{"abi":[{"constant":false,"inputs":[{"name":"_assetAddress","type":"address"}],"name":"startTransport","outputs":[{"name":"success","type":"bool"}],"payable":false,"stateMutability":"nonpayable","type":"function"},{"constant":false,"inputs":[{"name":"_transporterAddress","type":"address"},{"name":"_registrationData","type":"string"}],"name":"insertTransporter","outputs":[{"name":"success","type":"bool"}],"payable":false,"stateMutability":"nonpayable","type":"function"},{"constant":true,"inputs":[{"name":"_shopAddress","type":"address"}],"name":"isShop","outputs":[{"name":"isIndeed","type":"bool"}],"payable":false,"stateMutability":"view","type":"function"},{"constant":false,"inputs":[{"name":"_assetAddress","type":"address"},{"name":"_transporterAddress","type":"address"},{"name":"_receiverAddress","type":"address"}],"name":"requestTransportStart","outputs":[{"name":"success","type":"bool"}],"payable":false,"stateMutability":"nonpayable","type":"function"},{"constant":true,"inputs":[{"name":"_transporterAddress","type":"address"}],"name":"isTransporter","outputs":[{"name":"isIndeed","type":"bool"}],"payable":false,"stateMutability":"view","type":"function"},{"constant":false,"inputs":[{"name":"_assetAddress","type":"address"}],"name":"endTransport","outputs":[{"name":"success","type":"bool"}],"payable":false,"stateMutability":"nonpayable","type":"function"},{"constant":false,"inputs":[{"name":"_JSON","type":"string"}],"name":"createAsset","outputs":[{"name":"assetAddress","type":"address"}],"payable":false,"stateMutability":"nonpayable","type":"function"},{"constant":false,"inputs":[{"name":"ProducerAddress","type":"address"},{"name":"_data","type":"string"}],"name":"insertProducer","outputs":[{"name":"index","type":"uint256"}],"payable":false,"stateMutability":"nonpayable","type":"function"},{"constant":false,"inputs":[{"name":"_assetAddress","type":"address"}],"name":"requestTransportEnd","outputs":[{"name":"success","type":"bool"}],"payable":false,"stateMutability":"nonpayable","type":"function"},{"constant":true,"inputs":[],"name":"owner","outputs":[{"name":"","type":"address"}],"payable":false,"stateMutability":"view","type":"function"},{"constant":false,"inputs":[{"name":"_shopAddress","type":"address"},{"name":"_data","type":"string"}],"name":"insertShop","outputs":[{"name":"index","type":"uint256"}],"payable":false,"stateMutability":"nonpayable","type":"function"},{"constant":false,"inputs":[{"name":"_transporterAddress","type":"address"}],"name":"userAttachTransporter","outputs":[{"name":"success","type":"bool"}],"payable":false,"stateMutability":"nonpayable","type":"function"},{"constant":true,"inputs":[{"name":"_producerAddress","type":"address"}],"name":"isProducer","outputs":[{"name":"isIndeed","type":"bool"}],"payable":false,"stateMutability":"view","type":"function"},{"inputs":[],"payable":false,"stateMutability":"nonpayable","type":"constructor"},{"anonymous":false,"inputs":[{"indexed":false,"name":"transporterAddress","type":"address"},{"indexed":false,"name":"registrationData","type":"string"}],"name":"LogNewTransporter","type":"event"},{"anonymous":false,"inputs":[{"indexed":false,"name":"certifierAddress","type":"address"},{"indexed":false,"name":"registrationData","type":"string"}],"name":"LogNewCertifier","type":"event"},{"anonymous":false,"inputs":[{"indexed":false,"name":"shopAddress","type":"address"},{"indexed":false,"name":"registrationData","type":"string"}],"name":"LogNewShop","type":"event"},{"anonymous":false,"inputs":[{"indexed":false,"name":"producerAddress","type":"address"},{"indexed":false,"name":"registrationData","type":"string"}],"name":"LogNewProducer","type":"event"},{"anonymous":false,"inputs":[{"indexed":true,"name":"producerAddress","type":"address"},{"indexed":false,"name":"assetAddress","type":"address"}],"name":"LogNewAsset","type":"event"},{"anonymous":false,"inputs":[{"indexed":true,"name":"userAddress","type":"address"},{"indexed":true,"name":"transporterAddress","type":"address"}],"name":"LogAttachedTransporter","type":"event"}],"devdoc":{"methods":{}},"evm":{"assembly":"    /* \"traceabilityContract.sol\":184:7320  contract TraceabilityContract is owned {... */\n  mstore(0x40, 0x80)\n    /* \"traceabilityContract.sol\":852:1137  constructor () public {... */\n  callvalue\n    /* \"--CODEGEN--\":8:17   */\n  dup1\n    /* \"--CODEGEN--\":5:7   */\n  iszero\n  tag_1\n  jumpi\n    /* \"--CODEGEN--\":30:31   */\n  0x00\n    /* \"--CODEGEN--\":27:28   */\n  dup1\n    /* \"--CODEGEN--\":20:32   */\n  revert\n    /* \"--CODEGEN--\":5:7   */\ntag_1:\n    /* \"traceabilityContract.sol\":852:1137  constructor () public {... */\n  pop\n    /* \"owned.sol\":76:86   */\n  caller\n    /* \"owned.sol\":68:73   */\n  0x00\n  dup1\n    /* \"owned.sol\":68:86   */\n  0x0100\n  exp\n  dup2\n  sload\n  dup2\n  0xffffffffffffffffffffffffffffffffffffffff\n  mul\n  not\n  and\n  swap1\n  dup4\n  0xffffffffffffffffffffffffffffffffffffffff\n  and\n  mul\n  or\n  swap1\n  sstore\n  pop\n    /* \"traceabilityContract.sol\":928:932  this */\n  address\n    /* \"traceabilityContract.sol\":897:934  new Transporters_Users(address(this)) */\n  mload(0x40)\n  tag_6\n  swap1\n  tag_7\n  jump\t// in\ntag_6:\n  dup1\n  dup3\n  0xffffffffffffffffffffffffffffffffffffffff\n  and\n  0xffffffffffffffffffffffffffffffffffffffff\n  and\n  dup2\n  mstore\n  0x20\n  add\n  swap2\n  pop\n  pop\n  mload(0x40)\n  dup1\n  swap2\n  sub\n  swap1\n  0x00\n  create\n  dup1\n  iszero\n    /* \"--CODEGEN--\":8:17   */\n  dup1\n    /* \"--CODEGEN--\":5:7   */\n  iszero\n  tag_8\n  jumpi\n    /* \"--CODEGEN--\":45:61   */\n  returndatasize\n    /* \"--CODEGEN--\":42:43   */\n  0x00\n    /* \"--CODEGEN--\":39:40   */\n  dup1\n    /* \"--CODEGEN--\":24:62   */\n  returndatacopy\n    /* \"--CODEGEN--\":77:93   */\n  returndatasize\n    /* \"--CODEGEN--\":74:75   */\n  0x00\n    /* \"--CODEGEN--\":67:94   */\n  revert\n    /* \"--CODEGEN--\":5:7   */\ntag_8:\n    /* \"traceabilityContract.sol\":897:934  new Transporters_Users(address(this)) */\n  pop\n    /* \"traceabilityContract.sol\":884:894  tuContract */\n  0x01\n  0x00\n    /* \"traceabilityContract.sol\":884:934  tuContract = new Transporters_Users(address(this)) */\n  0x0100\n  exp\n  dup2\n  sload\n  dup2\n  0xffffffffffffffffffffffffffffffffffffffff\n  mul\n  not\n  and\n  swap1\n  dup4\n  0xffffffffffffffffffffffffffffffffffffffff\n  and\n  mul\n  or\n  swap1\n  sstore\n  pop\n    /* \"traceabilityContract.sol\":986:990  this */\n  address\n    /* \"traceabilityContract.sol\":964:992  new Producers(address(this)) */\n  mload(0x40)\n  tag_9\n  swap1\n  tag_10\n  jump\t// in\ntag_9:\n  dup1\n  dup3\n  0xffffffffffffffffffffffffffffffffffffffff\n  and\n  0xffffffffffffffffffffffffffffffffffffffff\n  and\n  dup2\n  mstore\n  0x20\n  add\n  swap2\n  pop\n  pop\n  mload(0x40)\n  dup1\n  swap2\n  sub\n  swap1\n  0x00\n  create\n  dup1\n  iszero\n    /* \"--CODEGEN--\":8:17   */\n  dup1\n    /* \"--CODEGEN--\":5:7   */\n  iszero\n  tag_11\n  jumpi\n    /* \"--CODEGEN--\":45:61   */\n  returndatasize\n    /* \"--CODEGEN--\":42:43   */\n  0x00\n    /* \"--CODEGEN--\":39:40   */\n  dup1\n    /* \"--CODEGEN--\":24:62   */\n  returndatacopy\n    /* \"--CODEGEN--\":77:93   */\n  returndatasize\n    /* \"--CODEGEN--\":74:75   */\n  0x00\n    /* \"--CODEGEN--\":67:94   */\n  revert\n    /* \"--CODEGEN--\":5:7   */\ntag_11:\n    /* \"traceabilityContract.sol\":964:992  new Producers(address(this)) */\n  pop\n    /* \"traceabilityContract.sol\":944:961  producersContract */\n  0x02\n  0x00\n    /* \"traceabilityContract.sol\":944:992  producersContract = new Producers(address(this)) */\n  0x0100\n  exp\n  dup2\n  sload\n  dup2\n  0xffffffffffffffffffffffffffffffffffffffff\n  mul\n  not\n  and\n  swap1\n  dup4\n  0xffffffffffffffffffffffffffffffffffffffff\n  and\n  mul\n  or\n  swap1\n  sstore\n  pop\n    /* \"traceabilityContract.sol\":1074:1078  this */\n  address\n    /* \"traceabilityContract.sol\":1049:1080  new Transporters(address(this)) */\n  mload(0x40)\n  tag_12\n  swap1\n  tag_13\n  jump\t// in\ntag_12:\n  dup1\n  dup3\n  0xffffffffffffffffffffffffffffffffffffffff\n  and\n  0xffffffffffffffffffffffffffffffffffffffff\n  and\n  dup2\n  mstore\n  0x20\n  add\n  swap2\n  pop\n  pop\n  mload(0x40)\n  dup1\n  swap2\n  sub\n  swap1\n  0x00\n  create\n  dup1\n  iszero\n    /* \"--CODEGEN--\":8:17   */\n  dup1\n    /* \"--CODEGEN--\":5:7   */\n  iszero\n  tag_14\n  jumpi\n    /* \"--CODEGEN--\":45:61   */\n  returndatasize\n    /* \"--CODEGEN--\":42:43   */\n  0x00\n    /* \"--CODEGEN--\":39:40   */\n  dup1\n    /* \"--CODEGEN--\":24:62   */\n  returndatacopy\n    /* \"--CODEGEN--\":77:93   */\n  returndatasize\n    /* \"--CODEGEN--\":74:75   */\n  0x00\n    /* \"--CODEGEN--\":67:94   */\n  revert\n    /* \"--CODEGEN--\":5:7   */\ntag_14:\n    /* \"traceabilityContract.sol\":1049:1080  new Transporters(address(this)) */\n  pop\n    /* \"traceabilityContract.sol\":1026:1046  transportersContract */\n  0x03\n  0x00\n    /* \"traceabilityContract.sol\":1026:1080  transportersContract = new Transporters(address(this)) */\n  0x0100\n  exp\n  dup2\n  sload\n  dup2\n  0xffffffffffffffffffffffffffffffffffffffff\n  mul\n  not\n  and\n  swap1\n  dup4\n  0xffffffffffffffffffffffffffffffffffffffff\n  and\n  mul\n  or\n  swap1\n  sstore\n  pop\n    /* \"traceabilityContract.sol\":1124:1128  this */\n  address\n    /* \"traceabilityContract.sol\":1106:1130  new Shops(address(this)) */\n  mload(0x40)\n  tag_15\n  swap1\n  tag_16\n  jump\t// in\ntag_15:\n  dup1\n  dup3\n  0xffffffffffffffffffffffffffffffffffffffff\n  and\n  0xffffffffffffffffffffffffffffffffffffffff\n  and\n  dup2\n  mstore\n  0x20\n  add\n  swap2\n  pop\n  pop\n  mload(0x40)\n  dup1\n  swap2\n  sub\n  swap1\n  0x00\n  create\n  dup1\n  iszero\n    /* \"--CODEGEN--\":8:17   */\n  dup1\n    /* \"--CODEGEN--\":5:7   */\n  iszero\n  tag_17\n  jumpi\n    /* \"--CODEGEN--\":45:61   */\n  returndatasize\n    /* \"--CODEGEN--\":42:43   */\n  0x00\n    /* \"--CODEGEN--\":39:40   */\n  dup1\n    /* \"--CODEGEN--\":24:62   */\n  returndatacopy\n    /* \"--CODEGEN--\":77:93   */\n  returndatasize\n    /* \"--CODEGEN--\":74:75   */\n  0x00\n    /* \"--CODEGEN--\":67:94   */\n  revert\n    /* \"--CODEGEN--\":5:7   */\ntag_17:\n    /* \"traceabilityContract.sol\":1106:1130  new Shops(address(this)) */\n  pop\n    /* \"traceabilityContract.sol\":1090:1103  shopsContract */\n  0x04\n  0x00\n    /* \"traceabilityContract.sol\":1090:1130  shopsContract = new Shops(address(this)) */\n  0x0100\n  exp\n  dup2\n  sload\n  dup2\n  0xffffffffffffffffffffffffffffffffffffffff\n  mul\n  not\n  and\n  swap1\n  dup4\n  0xffffffffffffffffffffffffffffffffffffffff\n  and\n  mul\n  or\n  swap1\n  sstore\n  pop\n    /* \"traceabilityContract.sol\":184:7320  contract TraceabilityContract is owned {... */\n  jump(tag_18)\ntag_7:\n  dataSize(sub_1)\n  dup1\n  dataOffset(sub_1)\n  dup4\n  codecopy\n  add\n  swap1\n  jump\t// out\ntag_10:\n  dataSize(sub_2)\n  dup1\n  dataOffset(sub_2)\n  dup4\n  codecopy\n  add\n  swap1\n  jump\t// out\ntag_13:\n  dataSize(sub_3)\n  dup1\n  dataOffset(sub_3)\n  dup4\n  codecopy\n  add\n  swap1\n  jump\t// out\ntag_16:\n  dataSize(sub_4)\n  dup1\n  dataOffset(sub_4)\n  dup4\n  codecopy\n  add\n  swap1\n  jump\t// out\ntag_18:\n  dataSize(sub_0)\n  dup1\n  dataOffset(sub_0)\n  0x00\n  codecopy\n  0x00\n  return\nstop\n\nsub_0: assembly {\n        /* \"traceabilityContract.sol\":184:7320  contract TraceabilityContract is owned {... */\n      mstore(0x40, 0x80)\n      callvalue\n        /* \"--CODEGEN--\":8:17   */\n      dup1\n        /* \"--CODEGEN--\":5:7   */\n      iszero\n      tag_1\n      jumpi\n        /* \"--CODEGEN--\":30:31   */\n      0x00\n        /* \"--CODEGEN--\":27:28   */\n      dup1\n        /* \"--CODEGEN--\":20:32   */\n      revert\n        /* \"--CODEGEN--\":5:7   */\n    tag_1:\n        /* \"traceabilityContract.sol\":184:7320  contract TraceabilityContract is owned {... */\n      pop\n      jumpi(tag_2, lt(calldatasize, 0x04))\n      calldataload(0x00)\n      0x0100000000000000000000000000000000000000000000000000000000\n      swap1\n      div\n      dup1\n      0x55b1f24e\n      gt\n      tag_16\n      jumpi\n      dup1\n      0x8da5cb5b\n      gt\n      tag_17\n      jumpi\n      dup1\n      0x8da5cb5b\n      eq\n      tag_12\n      jumpi\n      dup1\n      0x9b7e02eb\n      eq\n      tag_13\n      jumpi\n      dup1\n      0xb46d0110\n      eq\n      tag_14\n      jumpi\n      dup1\n      0xf5521022\n      eq\n      tag_15\n      jumpi\n      jump(tag_2)\n    tag_17:\n      dup1\n      0x55b1f24e\n      eq\n      tag_9\n      jumpi\n      dup1\n      0x8412d3d1\n      eq\n      tag_10\n      jumpi\n      dup1\n      0x8736cb5d\n      eq\n      tag_11\n      jumpi\n      jump(tag_2)\n    tag_16:\n      dup1\n      0x029d9e92\n      eq\n      tag_3\n      jumpi\n      dup1\n      0x1302ed1f\n      eq\n      tag_4\n      jumpi\n      dup1\n      0x1d0e8a4d\n      eq\n      tag_5\n      jumpi\n      dup1\n      0x245fd408\n      eq\n      tag_6\n      jumpi\n      dup1\n      0x2b8109d5\n      eq\n      tag_7\n      jumpi\n      dup1\n      0x3db4de47\n      eq\n      tag_8\n      jumpi\n    tag_2:\n      0x00\n      dup1\n      revert\n        /* \"traceabilityContract.sol\":4834:5759  function startTransport(address _assetAddress) public returns (bool success){     ... */\n    tag_3:\n      tag_18\n      0x04\n      dup1\n      calldatasize\n      sub\n        /* \"--CODEGEN--\":13:15   */\n      0x20\n        /* \"--CODEGEN--\":8:11   */\n      dup2\n        /* \"--CODEGEN--\":5:16   */\n      lt\n        /* \"--CODEGEN--\":2:4   */\n      iszero\n      tag_19\n      jumpi\n        /* \"--CODEGEN--\":29:30   */\n      0x00\n        /* \"--CODEGEN--\":26:27   */\n      dup1\n        /* \"--CODEGEN--\":19:31   */\n      revert\n        /* \"--CODEGEN--\":2:4   */\n    tag_19:\n        /* \"traceabilityContract.sol\":4834:5759  function startTransport(address _assetAddress) public returns (bool success){     ... */\n      dup2\n      add\n      swap1\n      dup1\n      dup1\n      calldataload\n      0xffffffffffffffffffffffffffffffffffffffff\n      and\n      swap1\n      0x20\n      add\n      swap1\n      swap3\n      swap2\n      swap1\n      pop\n      pop\n      pop\n      tag_20\n      jump\t// in\n    tag_18:\n      mload(0x40)\n      dup1\n      dup3\n      iszero\n      iszero\n      iszero\n      iszero\n      dup2\n      mstore\n      0x20\n      add\n      swap2\n      pop\n      pop\n      mload(0x40)\n      dup1\n      swap2\n      sub\n      swap1\n      return\n        /* \"traceabilityContract.sol\":2220:2561  function insertTransporter(address _transporterAddress, string memory _registrationData) ... */\n    tag_4:\n      tag_21\n      0x04\n      dup1\n      calldatasize\n      sub\n        /* \"--CODEGEN--\":13:15   */\n      0x40\n        /* \"--CODEGEN--\":8:11   */\n      dup2\n        /* \"--CODEGEN--\":5:16   */\n      lt\n        /* \"--CODEGEN--\":2:4   */\n      iszero\n      tag_22\n      jumpi\n        /* \"--CODEGEN--\":29:30   */\n      0x00\n        /* \"--CODEGEN--\":26:27   */\n      dup1\n        /* \"--CODEGEN--\":19:31   */\n      revert\n        /* \"--CODEGEN--\":2:4   */\n    tag_22:\n        /* \"traceabilityContract.sol\":2220:2561  function insertTransporter(address _transporterAddress, string memory _registrationData) ... */\n      dup2\n      add\n      swap1\n      dup1\n      dup1\n      calldataload\n      0xffffffffffffffffffffffffffffffffffffffff\n      and\n      swap1\n      0x20\n      add\n      swap1\n      swap3\n      swap2\n      swap1\n      dup1\n      calldataload\n      swap1\n      0x20\n      add\n      swap1\n        /* \"--CODEGEN--\":21:32   */\n      0x0100000000\n        /* \"--CODEGEN--\":8:19   */\n      dup2\n        /* \"--CODEGEN--\":5:33   */\n      gt\n        /* \"--CODEGEN--\":2:4   */\n      iszero\n      tag_23\n      jumpi\n        /* \"--CODEGEN--\":46:47   */\n      0x00\n        /* \"--CODEGEN--\":43:44   */\n      dup1\n        /* \"--CODEGEN--\":36:48   */\n      revert\n        /* \"--CODEGEN--\":2:4   */\n    tag_23:\n        /* \"traceabilityContract.sol\":2220:2561  function insertTransporter(address _transporterAddress, string memory _registrationData) ... */\n      dup3\n      add\n        /* \"--CODEGEN--\":35:44   */\n      dup4\n        /* \"--CODEGEN--\":28:32   */\n      0x20\n        /* \"--CODEGEN--\":12:26   */\n      dup3\n        /* \"--CODEGEN--\":8:33   */\n      add\n        /* \"--CODEGEN--\":5:45   */\n      gt\n        /* \"--CODEGEN--\":2:4   */\n      iszero\n      tag_24\n      jumpi\n        /* \"--CODEGEN--\":58:59   */\n      0x00\n        /* \"--CODEGEN--\":55:56   */\n      dup1\n        /* \"--CODEGEN--\":48:60   */\n      revert\n        /* \"--CODEGEN--\":2:4   */\n    tag_24:\n        /* \"traceabilityContract.sol\":2220:2561  function insertTransporter(address _transporterAddress, string memory _registrationData) ... */\n      dup1\n      calldataload\n      swap1\n      0x20\n      add\n      swap2\n        /* \"--CODEGEN--\":100:109   */\n      dup5\n        /* \"--CODEGEN--\":95:96   */\n      0x01\n        /* \"--CODEGEN--\":81:93   */\n      dup4\n        /* \"--CODEGEN--\":77:97   */\n      mul\n        /* \"--CODEGEN--\":67:75   */\n      dup5\n        /* \"--CODEGEN--\":63:98   */\n      add\n        /* \"--CODEGEN--\":60:110   */\n      gt\n        /* \"--CODEGEN--\":39:50   */\n      0x0100000000\n        /* \"--CODEGEN--\":25:37   */\n      dup4\n        /* \"--CODEGEN--\":22:51   */\n      gt\n        /* \"--CODEGEN--\":11:118   */\n      or\n        /* \"--CODEGEN--\":8:10   */\n      iszero\n      tag_25\n      jumpi\n        /* \"--CODEGEN--\":131:132   */\n      0x00\n        /* \"--CODEGEN--\":128:129   */\n      dup1\n        /* \"--CODEGEN--\":121:133   */\n      revert\n        /* \"--CODEGEN--\":8:10   */\n    tag_25:\n        /* \"traceabilityContract.sol\":2220:2561  function insertTransporter(address _transporterAddress, string memory _registrationData) ... */\n      swap2\n      swap1\n      dup1\n      dup1\n      0x1f\n      add\n      0x20\n      dup1\n      swap2\n      div\n      mul\n      0x20\n      add\n      mload(0x40)\n      swap1\n      dup2\n      add\n      0x40\n      mstore\n      dup1\n      swap4\n      swap3\n      swap2\n      swap1\n      dup2\n      dup2\n      mstore\n      0x20\n      add\n      dup4\n      dup4\n        /* \"--CODEGEN--\":30:33   */\n      dup1\n        /* \"--CODEGEN--\":22:28   */\n      dup3\n        /* \"--CODEGEN--\":14:20   */\n      dup5\n        /* \"--CODEGEN--\":1:34   */\n      calldatacopy\n        /* \"--CODEGEN--\":99:100   */\n      0x00\n        /* \"--CODEGEN--\":93:96   */\n      dup2\n        /* \"--CODEGEN--\":85:91   */\n      dup5\n        /* \"--CODEGEN--\":81:97   */\n      add\n        /* \"--CODEGEN--\":74:101   */\n      mstore\n        /* \"--CODEGEN--\":137:141   */\n      0x1f\n        /* \"--CODEGEN--\":133:142   */\n      not\n        /* \"--CODEGEN--\":126:130   */\n      0x1f\n        /* \"--CODEGEN--\":121:124   */\n      dup3\n        /* \"--CODEGEN--\":117:131   */\n      add\n        /* \"--CODEGEN--\":113:143   */\n      and\n        /* \"--CODEGEN--\":106:143   */\n      swap1\n      pop\n        /* \"--CODEGEN--\":169:172   */\n      dup1\n        /* \"--CODEGEN--\":161:167   */\n      dup4\n        /* \"--CODEGEN--\":157:173   */\n      add\n        /* \"--CODEGEN--\":147:173   */\n      swap3\n      pop\n        /* \"traceabilityContract.sol\":2220:2561  function insertTransporter(address _transporterAddress, string memory _registrationData) ... */\n      pop\n      pop\n      pop\n      pop\n      pop\n      pop\n      swap2\n      swap3\n      swap2\n      swap3\n      swap1\n      pop\n      pop\n      pop\n      tag_26\n      jump\t// in\n    tag_21:\n      mload(0x40)\n      dup1\n      dup3\n      iszero\n      iszero\n      iszero\n      iszero\n      dup2\n      mstore\n      0x20\n      add\n      swap2\n      pop\n      pop\n      mload(0x40)\n      dup1\n      swap2\n      sub\n      swap1\n      return\n        /* \"traceabilityContract.sol\":1345:1476  function isShop(address _shopAddress) public view returns(bool isIndeed) {... */\n    tag_5:\n      tag_27\n      0x04\n      dup1\n      calldatasize\n      sub\n        /* \"--CODEGEN--\":13:15   */\n      0x20\n        /* \"--CODEGEN--\":8:11   */\n      dup2\n        /* \"--CODEGEN--\":5:16   */\n      lt\n        /* \"--CODEGEN--\":2:4   */\n      iszero\n      tag_28\n      jumpi\n        /* \"--CODEGEN--\":29:30   */\n      0x00\n        /* \"--CODEGEN--\":26:27   */\n      dup1\n        /* \"--CODEGEN--\":19:31   */\n      revert\n        /* \"--CODEGEN--\":2:4   */\n    tag_28:\n        /* \"traceabilityContract.sol\":1345:1476  function isShop(address _shopAddress) public view returns(bool isIndeed) {... */\n      dup2\n      add\n      swap1\n      dup1\n      dup1\n      calldataload\n      0xffffffffffffffffffffffffffffffffffffffff\n      and\n      swap1\n      0x20\n      add\n      swap1\n      swap3\n      swap2\n      swap1\n      pop\n      pop\n      pop\n      tag_29\n      jump\t// in\n    tag_27:\n      mload(0x40)\n      dup1\n      dup3\n      iszero\n      iszero\n      iszero\n      iszero\n      dup2\n      mstore\n      0x20\n      add\n      swap2\n      pop\n      pop\n      mload(0x40)\n      dup1\n      swap2\n      sub\n      swap1\n      return\n        /* \"traceabilityContract.sol\":3971:4828  function requestTransportStart(address _assetAddress, address _transporterAddress, address _receiverAddress) ... */\n    tag_6:\n      tag_30\n      0x04\n      dup1\n      calldatasize\n      sub\n        /* \"--CODEGEN--\":13:15   */\n      0x60\n        /* \"--CODEGEN--\":8:11   */\n      dup2\n        /* \"--CODEGEN--\":5:16   */\n      lt\n        /* \"--CODEGEN--\":2:4   */\n      iszero\n      tag_31\n      jumpi\n        /* \"--CODEGEN--\":29:30   */\n      0x00\n        /* \"--CODEGEN--\":26:27   */\n      dup1\n        /* \"--CODEGEN--\":19:31   */\n      revert\n        /* \"--CODEGEN--\":2:4   */\n    tag_31:\n        /* \"traceabilityContract.sol\":3971:4828  function requestTransportStart(address _assetAddress, address _transporterAddress, address _receiverAddress) ... */\n      dup2\n      add\n      swap1\n      dup1\n      dup1\n      calldataload\n      0xffffffffffffffffffffffffffffffffffffffff\n      and\n      swap1\n      0x20\n      add\n      swap1\n      swap3\n      swap2\n      swap1\n      dup1\n      calldataload\n      0xffffffffffffffffffffffffffffffffffffffff\n      and\n      swap1\n      0x20\n      add\n      swap1\n      swap3\n      swap2\n      swap1\n      dup1\n      calldataload\n      0xffffffffffffffffffffffffffffffffffffffff\n      and\n      swap1\n      0x20\n      add\n      swap1\n      swap3\n      swap2\n      swap1\n      pop\n      pop\n      pop\n      tag_32\n      jump\t// in\n    tag_30:\n      mload(0x40)\n      dup1\n      dup3\n      iszero\n      iszero\n      iszero\n      iszero\n      dup2\n      mstore\n      0x20\n      add\n      swap2\n      pop\n      pop\n      mload(0x40)\n      dup1\n      swap2\n      sub\n      swap1\n      return\n        /* \"traceabilityContract.sol\":1173:1339  function isTransporter(address _transporterAddress) public view returns(bool isIndeed) {... */\n    tag_7:\n      tag_33\n      0x04\n      dup1\n      calldatasize\n      sub\n        /* \"--CODEGEN--\":13:15   */\n      0x20\n        /* \"--CODEGEN--\":8:11   */\n      dup2\n        /* \"--CODEGEN--\":5:16   */\n      lt\n        /* \"--CODEGEN--\":2:4   */\n      iszero\n      tag_34\n      jumpi\n        /* \"--CODEGEN--\":29:30   */\n      0x00\n        /* \"--CODEGEN--\":26:27   */\n      dup1\n        /* \"--CODEGEN--\":19:31   */\n      revert\n        /* \"--CODEGEN--\":2:4   */\n    tag_34:\n        /* \"traceabilityContract.sol\":1173:1339  function isTransporter(address _transporterAddress) public view returns(bool isIndeed) {... */\n      dup2\n      add\n      swap1\n      dup1\n      dup1\n      calldataload\n      0xffffffffffffffffffffffffffffffffffffffff\n      and\n      swap1\n      0x20\n      add\n      swap1\n      swap3\n      swap2\n      swap1\n      pop\n      pop\n      pop\n      tag_35\n      jump\t// in\n    tag_33:\n      mload(0x40)\n      dup1\n      dup3\n      iszero\n      iszero\n      iszero\n      iszero\n      dup2\n      mstore\n      0x20\n      add\n      swap2\n      pop\n      pop\n      mload(0x40)\n      dup1\n      swap2\n      sub\n      swap1\n      return\n        /* \"traceabilityContract.sol\":6562:7318  function endTransport(address _assetAddress) public returns (bool success){      ... */\n    tag_8:\n      tag_36\n      0x04\n      dup1\n      calldatasize\n      sub\n        /* \"--CODEGEN--\":13:15   */\n      0x20\n        /* \"--CODEGEN--\":8:11   */\n      dup2\n        /* \"--CODEGEN--\":5:16   */\n      lt\n        /* \"--CODEGEN--\":2:4   */\n      iszero\n      tag_37\n      jumpi\n        /* \"--CODEGEN--\":29:30   */\n      0x00\n        /* \"--CODEGEN--\":26:27   */\n      dup1\n        /* \"--CODEGEN--\":19:31   */\n      revert\n        /* \"--CODEGEN--\":2:4   */\n    tag_37:\n        /* \"traceabilityContract.sol\":6562:7318  function endTransport(address _assetAddress) public returns (bool success){      ... */\n      dup2\n      add\n      swap1\n      dup1\n      dup1\n      calldataload\n      0xffffffffffffffffffffffffffffffffffffffff\n      and\n      swap1\n      0x20\n      add\n      swap1\n      swap3\n      swap2\n      swap1\n      pop\n      pop\n      pop\n      tag_38\n      jump\t// in\n    tag_36:\n      mload(0x40)\n      dup1\n      dup3\n      iszero\n      iszero\n      iszero\n      iszero\n      dup2\n      mstore\n      0x20\n      add\n      swap2\n      pop\n      pop\n      mload(0x40)\n      dup1\n      swap2\n      sub\n      swap1\n      return\n        /* \"traceabilityContract.sol\":3739:3965  function createAsset(string memory _JSON) public returns (address assetAddress){       ... */\n    tag_9:\n      tag_39\n      0x04\n      dup1\n      calldatasize\n      sub\n        /* \"--CODEGEN--\":13:15   */\n      0x20\n        /* \"--CODEGEN--\":8:11   */\n      dup2\n        /* \"--CODEGEN--\":5:16   */\n      lt\n        /* \"--CODEGEN--\":2:4   */\n      iszero\n      tag_40\n      jumpi\n        /* \"--CODEGEN--\":29:30   */\n      0x00\n        /* \"--CODEGEN--\":26:27   */\n      dup1\n        /* \"--CODEGEN--\":19:31   */\n      revert\n        /* \"--CODEGEN--\":2:4   */\n    tag_40:\n        /* \"traceabilityContract.sol\":3739:3965  function createAsset(string memory _JSON) public returns (address assetAddress){       ... */\n      dup2\n      add\n      swap1\n      dup1\n      dup1\n      calldataload\n      swap1\n      0x20\n      add\n      swap1\n        /* \"--CODEGEN--\":21:32   */\n      0x0100000000\n        /* \"--CODEGEN--\":8:19   */\n      dup2\n        /* \"--CODEGEN--\":5:33   */\n      gt\n        /* \"--CODEGEN--\":2:4   */\n      iszero\n      tag_41\n      jumpi\n        /* \"--CODEGEN--\":46:47   */\n      0x00\n        /* \"--CODEGEN--\":43:44   */\n      dup1\n        /* \"--CODEGEN--\":36:48   */\n      revert\n        /* \"--CODEGEN--\":2:4   */\n    tag_41:\n        /* \"traceabilityContract.sol\":3739:3965  function createAsset(string memory _JSON) public returns (address assetAddress){       ... */\n      dup3\n      add\n        /* \"--CODEGEN--\":35:44   */\n      dup4\n        /* \"--CODEGEN--\":28:32   */\n      0x20\n        /* \"--CODEGEN--\":12:26   */\n      dup3\n        /* \"--CODEGEN--\":8:33   */\n      add\n        /* \"--CODEGEN--\":5:45   */\n      gt\n        /* \"--CODEGEN--\":2:4   */\n      iszero\n      tag_42\n      jumpi\n        /* \"--CODEGEN--\":58:59   */\n      0x00\n        /* \"--CODEGEN--\":55:56   */\n      dup1\n        /* \"--CODEGEN--\":48:60   */\n      revert\n        /* \"--CODEGEN--\":2:4   */\n    tag_42:\n        /* \"traceabilityContract.sol\":3739:3965  function createAsset(string memory _JSON) public returns (address assetAddress){       ... */\n      dup1\n      calldataload\n      swap1\n      0x20\n      add\n      swap2\n        /* \"--CODEGEN--\":100:109   */\n      dup5\n        /* \"--CODEGEN--\":95:96   */\n      0x01\n        /* \"--CODEGEN--\":81:93   */\n      dup4\n        /* \"--CODEGEN--\":77:97   */\n      mul\n        /* \"--CODEGEN--\":67:75   */\n      dup5\n        /* \"--CODEGEN--\":63:98   */\n      add\n        /* \"--CODEGEN--\":60:110   */\n      gt\n        /* \"--CODEGEN--\":39:50   */\n      0x0100000000\n        /* \"--CODEGEN--\":25:37   */\n      dup4\n        /* \"--CODEGEN--\":22:51   */\n      gt\n        /* \"--CODEGEN--\":11:118   */\n      or\n        /* \"--CODEGEN--\":8:10   */\n      iszero\n      tag_43\n      jumpi\n        /* \"--CODEGEN--\":131:132   */\n      0x00\n        /* \"--CODEGEN--\":128:129   */\n      dup1\n        /* \"--CODEGEN--\":121:133   */\n      revert\n        /* \"--CODEGEN--\":8:10   */\n    tag_43:\n        /* \"traceabilityContract.sol\":3739:3965  function createAsset(string memory _JSON) public returns (address assetAddress){       ... */\n      swap2\n      swap1\n      dup1\n      dup1\n      0x1f\n      add\n      0x20\n      dup1\n      swap2\n      div\n      mul\n      0x20\n      add\n      mload(0x40)\n      swap1\n      dup2\n      add\n      0x40\n      mstore\n      dup1\n      swap4\n      swap3\n      swap2\n      swap1\n      dup2\n      dup2\n      mstore\n      0x20\n      add\n      dup4\n      dup4\n        /* \"--CODEGEN--\":30:33   */\n      dup1\n        /* \"--CODEGEN--\":22:28   */\n      dup3\n        /* \"--CODEGEN--\":14:20   */\n      dup5\n        /* \"--CODEGEN--\":1:34   */\n      calldatacopy\n        /* \"--CODEGEN--\":99:100   */\n      0x00\n        /* \"--CODEGEN--\":93:96   */\n      dup2\n        /* \"--CODEGEN--\":85:91   */\n      dup5\n        /* \"--CODEGEN--\":81:97   */\n      add\n        /* \"--CODEGEN--\":74:101   */\n      mstore\n        /* \"--CODEGEN--\":137:141   */\n      0x1f\n        /* \"--CODEGEN--\":133:142   */\n      not\n        /* \"--CODEGEN--\":126:130   */\n      0x1f\n        /* \"--CODEGEN--\":121:124   */\n      dup3\n        /* \"--CODEGEN--\":117:131   */\n      add\n        /* \"--CODEGEN--\":113:143   */\n      and\n        /* \"--CODEGEN--\":106:143   */\n      swap1\n      pop\n        /* \"--CODEGEN--\":169:172   */\n      dup1\n        /* \"--CODEGEN--\":161:167   */\n      dup4\n        /* \"--CODEGEN--\":157:173   */\n      add\n        /* \"--CODEGEN--\":147:173   */\n      swap3\n      pop\n        /* \"traceabilityContract.sol\":3739:3965  function createAsset(string memory _JSON) public returns (address assetAddress){       ... */\n      pop\n      pop\n      pop\n      pop\n      pop\n      pop\n      swap2\n      swap3\n      swap2\n      swap3\n      swap1\n      pop\n      pop\n      pop\n      tag_44\n      jump\t// in\n    tag_39:\n      mload(0x40)\n      dup1\n      dup3\n      0xffffffffffffffffffffffffffffffffffffffff\n      and\n      0xffffffffffffffffffffffffffffffffffffffff\n      and\n      dup2\n      mstore\n      0x20\n      add\n      swap2\n      pop\n      pop\n      mload(0x40)\n      dup1\n      swap2\n      sub\n      swap1\n      return\n        /* \"traceabilityContract.sol\":1966:2214  function insertProducer(address ProducerAddress, string memory _data) public onlyOwner returns(uint index){... */\n    tag_10:\n      tag_45\n      0x04\n      dup1\n      calldatasize\n      sub\n        /* \"--CODEGEN--\":13:15   */\n      0x40\n        /* \"--CODEGEN--\":8:11   */\n      dup2\n        /* \"--CODEGEN--\":5:16   */\n      lt\n        /* \"--CODEGEN--\":2:4   */\n      iszero\n      tag_46\n      jumpi\n        /* \"--CODEGEN--\":29:30   */\n      0x00\n        /* \"--CODEGEN--\":26:27   */\n      dup1\n        /* \"--CODEGEN--\":19:31   */\n      revert\n        /* \"--CODEGEN--\":2:4   */\n    tag_46:\n        /* \"traceabilityContract.sol\":1966:2214  function insertProducer(address ProducerAddress, string memory _data) public onlyOwner returns(uint index){... */\n      dup2\n      add\n      swap1\n      dup1\n      dup1\n      calldataload\n      0xffffffffffffffffffffffffffffffffffffffff\n      and\n      swap1\n      0x20\n      add\n      swap1\n      swap3\n      swap2\n      swap1\n      dup1\n      calldataload\n      swap1\n      0x20\n      add\n      swap1\n        /* \"--CODEGEN--\":21:32   */\n      0x0100000000\n        /* \"--CODEGEN--\":8:19   */\n      dup2\n        /* \"--CODEGEN--\":5:33   */\n      gt\n        /* \"--CODEGEN--\":2:4   */\n      iszero\n      tag_47\n      jumpi\n        /* \"--CODEGEN--\":46:47   */\n      0x00\n        /* \"--CODEGEN--\":43:44   */\n      dup1\n        /* \"--CODEGEN--\":36:48   */\n      revert\n        /* \"--CODEGEN--\":2:4   */\n    tag_47:\n        /* \"traceabilityContract.sol\":1966:2214  function insertProducer(address ProducerAddress, string memory _data) public onlyOwner returns(uint index){... */\n      dup3\n      add\n        /* \"--CODEGEN--\":35:44   */\n      dup4\n        /* \"--CODEGEN--\":28:32   */\n      0x20\n        /* \"--CODEGEN--\":12:26   */\n      dup3\n        /* \"--CODEGEN--\":8:33   */\n      add\n        /* \"--CODEGEN--\":5:45   */\n      gt\n        /* \"--CODEGEN--\":2:4   */\n      iszero\n      tag_48\n      jumpi\n        /* \"--CODEGEN--\":58:59   */\n      0x00\n        /* \"--CODEGEN--\":55:56   */\n      dup1\n        /* \"--CODEGEN--\":48:60   */\n      revert\n        /* \"--CODEGEN--\":2:4   */\n    tag_48:\n        /* \"traceabilityContract.sol\":1966:2214  function insertProducer(address ProducerAddress, string memory _data) public onlyOwner returns(uint index){... */\n      dup1\n      calldataload\n      swap1\n      0x20\n      add\n      swap2\n        /* \"--CODEGEN--\":100:109   */\n      dup5\n        /* \"--CODEGEN--\":95:96   */\n      0x01\n        /* \"--CODEGEN--\":81:93   */\n      dup4\n        /* \"--CODEGEN--\":77:97   */\n      mul\n        /* \"--CODEGEN--\":67:75   */\n      dup5\n        /* \"--CODEGEN--\":63:98   */\n      add\n        /* \"--CODEGEN--\":60:110   */\n      gt\n        /* \"--CODEGEN--\":39:50   */\n      0x0100000000\n        /* \"--CODEGEN--\":25:37   */\n      dup4\n        /* \"--CODEGEN--\":22:51   */\n      gt\n        /* \"--CODEGEN--\":11:118   */\n      or\n        /* \"--CODEGEN--\":8:10   */\n      iszero\n      tag_49\n      jumpi\n        /* \"--CODEGEN--\":131:132   */\n      0x00\n        /* \"--CODEGEN--\":128:129   */\n      dup1\n        /* \"--CODEGEN--\":121:133   */\n      revert\n        /* \"--CODEGEN--\":8:10   */\n    tag_49:\n        /* \"traceabilityContract.sol\":1966:2214  function insertProducer(address ProducerAddress, string memory _data) public onlyOwner returns(uint index){... */\n      swap2\n      swap1\n      dup1\n      dup1\n      0x1f\n      add\n      0x20\n      dup1\n      swap2\n      div\n      mul\n      0x20\n      add\n      mload(0x40)\n      swap1\n      dup2\n      add\n      0x40\n      mstore\n      dup1\n      swap4\n      swap3\n      swap2\n      swap1\n      dup2\n      dup2\n      mstore\n      0x20\n      add\n      dup4\n      dup4\n        /* \"--CODEGEN--\":30:33   */\n      dup1\n        /* \"--CODEGEN--\":22:28   */\n      dup3\n        /* \"--CODEGEN--\":14:20   */\n      dup5\n        /* \"--CODEGEN--\":1:34   */\n      calldatacopy\n        /* \"--CODEGEN--\":99:100   */\n      0x00\n        /* \"--CODEGEN--\":93:96   */\n      dup2\n        /* \"--CODEGEN--\":85:91   */\n      dup5\n        /* \"--CODEGEN--\":81:97   */\n      add\n        /* \"--CODEGEN--\":74:101   */\n      mstore\n        /* \"--CODEGEN--\":137:141   */\n      0x1f\n        /* \"--CODEGEN--\":133:142   */\n      not\n        /* \"--CODEGEN--\":126:130   */\n      0x1f\n        /* \"--CODEGEN--\":121:124   */\n      dup3\n        /* \"--CODEGEN--\":117:131   */\n      add\n        /* \"--CODEGEN--\":113:143   */\n      and\n        /* \"--CODEGEN--\":106:143   */\n      swap1\n      pop\n        /* \"--CODEGEN--\":169:172   */\n      dup1\n        /* \"--CODEGEN--\":161:167   */\n      dup4\n        /* \"--CODEGEN--\":157:173   */\n      add\n        /* \"--CODEGEN--\":147:173   */\n      swap3\n      pop\n        /* \"traceabilityContract.sol\":1966:2214  function insertProducer(address ProducerAddress, string memory _data) public onlyOwner returns(uint index){... */\n      pop\n      pop\n      pop\n      pop\n      pop\n      pop\n      swap2\n      swap3\n      swap2\n      swap3\n      swap1\n      pop\n      pop\n      pop\n      tag_50\n      jump\t// in\n    tag_45:\n      mload(0x40)\n      dup1\n      dup3\n      dup2\n      mstore\n      0x20\n      add\n      swap2\n      pop\n      pop\n      mload(0x40)\n      dup1\n      swap2\n      sub\n      swap1\n      return\n        /* \"traceabilityContract.sol\":5765:6556  function requestTransportEnd(address _assetAddress) public returns (bool success){... */\n    tag_11:\n      tag_51\n      0x04\n      dup1\n      calldatasize\n      sub\n        /* \"--CODEGEN--\":13:15   */\n      0x20\n        /* \"--CODEGEN--\":8:11   */\n      dup2\n        /* \"--CODEGEN--\":5:16   */\n      lt\n        /* \"--CODEGEN--\":2:4   */\n      iszero\n      tag_52\n      jumpi\n        /* \"--CODEGEN--\":29:30   */\n      0x00\n        /* \"--CODEGEN--\":26:27   */\n      dup1\n        /* \"--CODEGEN--\":19:31   */\n      revert\n        /* \"--CODEGEN--\":2:4   */\n    tag_52:\n        /* \"traceabilityContract.sol\":5765:6556  function requestTransportEnd(address _assetAddress) public returns (bool success){... */\n      dup2\n      add\n      swap1\n      dup1\n      dup1\n      calldataload\n      0xffffffffffffffffffffffffffffffffffffffff\n      and\n      swap1\n      0x20\n      add\n      swap1\n      swap3\n      swap2\n      swap1\n      pop\n      pop\n      pop\n      tag_53\n      jump\t// in\n    tag_51:\n      mload(0x40)\n      dup1\n      dup3\n      iszero\n      iszero\n      iszero\n      iszero\n      dup2\n      mstore\n      0x20\n      add\n      swap2\n      pop\n      pop\n      mload(0x40)\n      dup1\n      swap2\n      sub\n      swap1\n      return\n        /* \"owned.sol\":94:114   */\n    tag_12:\n      tag_54\n      tag_55\n      jump\t// in\n    tag_54:\n      mload(0x40)\n      dup1\n      dup3\n      0xffffffffffffffffffffffffffffffffffffffff\n      and\n      0xffffffffffffffffffffffffffffffffffffffff\n      and\n      dup2\n      mstore\n      0x20\n      add\n      swap2\n      pop\n      pop\n      mload(0x40)\n      dup1\n      swap2\n      sub\n      swap1\n      return\n        /* \"traceabilityContract.sol\":1732:1960  function insertShop(address _shopAddress, string memory _data) public onlyOwner returns(uint index){... */\n    tag_13:\n      tag_56\n      0x04\n      dup1\n      calldatasize\n      sub\n        /* \"--CODEGEN--\":13:15   */\n      0x40\n        /* \"--CODEGEN--\":8:11   */\n      dup2\n        /* \"--CODEGEN--\":5:16   */\n      lt\n        /* \"--CODEGEN--\":2:4   */\n      iszero\n      tag_57\n      jumpi\n        /* \"--CODEGEN--\":29:30   */\n      0x00\n        /* \"--CODEGEN--\":26:27   */\n      dup1\n        /* \"--CODEGEN--\":19:31   */\n      revert\n        /* \"--CODEGEN--\":2:4   */\n    tag_57:\n        /* \"traceabilityContract.sol\":1732:1960  function insertShop(address _shopAddress, string memory _data) public onlyOwner returns(uint index){... */\n      dup2\n      add\n      swap1\n      dup1\n      dup1\n      calldataload\n      0xffffffffffffffffffffffffffffffffffffffff\n      and\n      swap1\n      0x20\n      add\n      swap1\n      swap3\n      swap2\n      swap1\n      dup1\n      calldataload\n      swap1\n      0x20\n      add\n      swap1\n        /* \"--CODEGEN--\":21:32   */\n      0x0100000000\n        /* \"--CODEGEN--\":8:19   */\n      dup2\n        /* \"--CODEGEN--\":5:33   */\n      gt\n        /* \"--CODEGEN--\":2:4   */\n      iszero\n      tag_58\n      jumpi\n        /* \"--CODEGEN--\":46:47   */\n      0x00\n        /* \"--CODEGEN--\":43:44   */\n      dup1\n        /* \"--CODEGEN--\":36:48   */\n      revert\n        /* \"--CODEGEN--\":2:4   */\n    tag_58:\n        /* \"traceabilityContract.sol\":1732:1960  function insertShop(address _shopAddress, string memory _data) public onlyOwner returns(uint index){... */\n      dup3\n      add\n        /* \"--CODEGEN--\":35:44   */\n      dup4\n        /* \"--CODEGEN--\":28:32   */\n      0x20\n        /* \"--CODEGEN--\":12:26   */\n      dup3\n        /* \"--CODEGEN--\":8:33   */\n      add\n        /* \"--CODEGEN--\":5:45   */\n      gt\n        /* \"--CODEGEN--\":2:4   */\n      iszero\n      tag_59\n      jumpi\n        /* \"--CODEGEN--\":58:59   */\n      0x00\n        /* \"--CODEGEN--\":55:56   */\n      dup1\n        /* \"--CODEGEN--\":48:60   */\n      revert\n        /* \"--CODEGEN--\":2:4   */\n    tag_59:\n        /* \"traceabilityContract.sol\":1732:1960  function insertShop(address _shopAddress, string memory _data) public onlyOwner returns(uint index){... */\n      dup1\n      calldataload\n      swap1\n      0x20\n      add\n      swap2\n        /* \"--CODEGEN--\":100:109   */\n      dup5\n        /* \"--CODEGEN--\":95:96   */\n      0x01\n        /* \"--CODEGEN--\":81:93   */\n      dup4\n        /* \"--CODEGEN--\":77:97   */\n      mul\n        /* \"--CODEGEN--\":67:75   */\n      dup5\n        /* \"--CODEGEN--\":63:98   */\n      add\n        /* \"--CODEGEN--\":60:110   */\n      gt\n        /* \"--CODEGEN--\":39:50   */\n      0x0100000000\n        /* \"--CODEGEN--\":25:37   */\n      dup4\n        /* \"--CODEGEN--\":22:51   */\n      gt\n        /* \"--CODEGEN--\":11:118   */\n      or\n        /* \"--CODEGEN--\":8:10   */\n      iszero\n      tag_60\n      jumpi\n        /* \"--CODEGEN--\":131:132   */\n      0x00\n        /* \"--CODEGEN--\":128:129   */\n      dup1\n        /* \"--CODEGEN--\":121:133   */\n      revert\n        /* \"--CODEGEN--\":8:10   */\n    tag_60:\n        /* \"traceabilityContract.sol\":1732:1960  function insertShop(address _shopAddress, string memory _data) public onlyOwner returns(uint index){... */\n      swap2\n      swap1\n      dup1\n      dup1\n      0x1f\n      add\n      0x20\n      dup1\n      swap2\n      div\n      mul\n      0x20\n      add\n      mload(0x40)\n      swap1\n      dup2\n      add\n      0x40\n      mstore\n      dup1\n      swap4\n      swap3\n      swap2\n      swap1\n      dup2\n      dup2\n      mstore\n      0x20\n      add\n      dup4\n      dup4\n        /* \"--CODEGEN--\":30:33   */\n      dup1\n        /* \"--CODEGEN--\":22:28   */\n      dup3\n        /* \"--CODEGEN--\":14:20   */\n      dup5\n        /* \"--CODEGEN--\":1:34   */\n      calldatacopy\n        /* \"--CODEGEN--\":99:100   */\n      0x00\n        /* \"--CODEGEN--\":93:96   */\n      dup2\n        /* \"--CODEGEN--\":85:91   */\n      dup5\n        /* \"--CODEGEN--\":81:97   */\n      add\n        /* \"--CODEGEN--\":74:101   */\n      mstore\n        /* \"--CODEGEN--\":137:141   */\n      0x1f\n        /* \"--CODEGEN--\":133:142   */\n      not\n        /* \"--CODEGEN--\":126:130   */\n      0x1f\n        /* \"--CODEGEN--\":121:124   */\n      dup3\n        /* \"--CODEGEN--\":117:131   */\n      add\n        /* \"--CODEGEN--\":113:143   */\n      and\n        /* \"--CODEGEN--\":106:143   */\n      swap1\n      pop\n        /* \"--CODEGEN--\":169:172   */\n      dup1\n        /* \"--CODEGEN--\":161:167   */\n      dup4\n        /* \"--CODEGEN--\":157:173   */\n      add\n        /* \"--CODEGEN--\":147:173   */\n      swap3\n      pop\n        /* \"traceabilityContract.sol\":1732:1960  function insertShop(address _shopAddress, string memory _data) public onlyOwner returns(uint index){... */\n      pop\n      pop\n      pop\n      pop\n      pop\n      pop\n      swap2\n      swap3\n      swap2\n      swap3\n      swap1\n      pop\n      pop\n      pop\n      tag_61\n      jump\t// in\n    tag_56:\n      mload(0x40)\n      dup1\n      dup3\n      dup2\n      mstore\n      0x20\n      add\n      swap2\n      pop\n      pop\n      mload(0x40)\n      dup1\n      swap2\n      sub\n      swap1\n      return\n        /* \"traceabilityContract.sol\":2593:3103  function userAttachTransporter(address _transporterAddress) public returns(bool success){... */\n    tag_14:\n      tag_62\n      0x04\n      dup1\n      calldatasize\n      sub\n        /* \"--CODEGEN--\":13:15   */\n      0x20\n        /* \"--CODEGEN--\":8:11   */\n      dup2\n        /* \"--CODEGEN--\":5:16   */\n      lt\n        /* \"--CODEGEN--\":2:4   */\n      iszero\n      tag_63\n      jumpi\n        /* \"--CODEGEN--\":29:30   */\n      0x00\n        /* \"--CODEGEN--\":26:27   */\n      dup1\n        /* \"--CODEGEN--\":19:31   */\n      revert\n        /* \"--CODEGEN--\":2:4   */\n    tag_63:\n        /* \"traceabilityContract.sol\":2593:3103  function userAttachTransporter(address _transporterAddress) public returns(bool success){... */\n      dup2\n      add\n      swap1\n      dup1\n      dup1\n      calldataload\n      0xffffffffffffffffffffffffffffffffffffffff\n      and\n      swap1\n      0x20\n      add\n      swap1\n      swap3\n      swap2\n      swap1\n      pop\n      pop\n      pop\n      tag_64\n      jump\t// in\n    tag_62:\n      mload(0x40)\n      dup1\n      dup3\n      iszero\n      iszero\n      iszero\n      iszero\n      dup2\n      mstore\n      0x20\n      add\n      swap2\n      pop\n      pop\n      mload(0x40)\n      dup1\n      swap2\n      sub\n      swap1\n      return\n        /* \"traceabilityContract.sol\":1487:1654  function isProducer(address _producerAddress) public view returns(bool isIndeed) {                ... */\n    tag_15:\n      tag_65\n      0x04\n      dup1\n      calldatasize\n      sub\n        /* \"--CODEGEN--\":13:15   */\n      0x20\n        /* \"--CODEGEN--\":8:11   */\n      dup2\n        /* \"--CODEGEN--\":5:16   */\n      lt\n        /* \"--CODEGEN--\":2:4   */\n      iszero\n      tag_66\n      jumpi\n        /* \"--CODEGEN--\":29:30   */\n      0x00\n        /* \"--CODEGEN--\":26:27   */\n      dup1\n        /* \"--CODEGEN--\":19:31   */\n      revert\n        /* \"--CODEGEN--\":2:4   */\n    tag_66:\n        /* \"traceabilityContract.sol\":1487:1654  function isProducer(address _producerAddress) public view returns(bool isIndeed) {                ... */\n      dup2\n      add\n      swap1\n      dup1\n      dup1\n      calldataload\n      0xffffffffffffffffffffffffffffffffffffffff\n      and\n      swap1\n      0x20\n      add\n      swap1\n      swap3\n      swap2\n      swap1\n      pop\n      pop\n      pop\n      tag_67\n      jump\t// in\n    tag_65:\n      mload(0x40)\n      dup1\n      dup3\n      iszero\n      iszero\n      iszero\n      iszero\n      dup2\n      mstore\n      0x20\n      add\n      swap2\n      pop\n      pop\n      mload(0x40)\n      dup1\n      swap2\n      sub\n      swap1\n      return\n        /* \"traceabilityContract.sol\":4834:5759  function startTransport(address _assetAddress) public returns (bool success){     ... */\n    tag_20:\n        /* \"traceabilityContract.sol\":4897:4909  bool success */\n      0x00\n        /* \"traceabilityContract.sol\":5073:5098  isTransporter(msg.sender) */\n      tag_69\n        /* \"traceabilityContract.sol\":5087:5097  msg.sender */\n      caller\n        /* \"traceabilityContract.sol\":5073:5086  isTransporter */\n      tag_35\n        /* \"traceabilityContract.sol\":5073:5098  isTransporter(msg.sender) */\n      jump\t// in\n    tag_69:\n        /* \"traceabilityContract.sol\":5065:5141  require(isTransporter(msg.sender), \"Only transporters can start transports\") */\n      iszero\n      iszero\n      tag_70\n      jumpi\n      mload(0x40)\n      0x08c379a000000000000000000000000000000000000000000000000000000000\n      dup2\n      mstore\n      0x04\n      add\n      dup1\n      dup1\n      0x20\n      add\n      dup3\n      dup2\n      sub\n      dup3\n      mstore\n      0x26\n      dup2\n      mstore\n      0x20\n      add\n      dup1\n      data_3085316e211e9a084a33d506d08fea02c3a3659f0f8e7025b255bea06ca78344\n      0x26\n      swap2\n      codecopy\n      0x40\n      add\n      swap2\n      pop\n      pop\n      mload(0x40)\n      dup1\n      swap2\n      sub\n      swap1\n      revert\n    tag_70:\n        /* \"traceabilityContract.sol\":5160:5173  address _from */\n      0x00\n        /* \"traceabilityContract.sol\":5175:5195  address _transporter */\n      dup1\n        /* \"traceabilityContract.sol\":5205:5218  _assetAddress */\n      dup4\n        /* \"traceabilityContract.sol\":5199:5236  Asset(_assetAddress).getTransportData */\n      0xffffffffffffffffffffffffffffffffffffffff\n      and\n      0xb98c19c4\n        /* \"traceabilityContract.sol\":5199:5238  Asset(_assetAddress).getTransportData() */\n      mload(0x40)\n      dup2\n      0xffffffff\n      and\n      0x0100000000000000000000000000000000000000000000000000000000\n      mul\n      dup2\n      mstore\n      0x04\n      add\n      0x40\n      dup1\n      mload\n      dup1\n      dup4\n      sub\n      dup2\n      dup7\n      dup1\n      extcodesize\n      iszero\n        /* \"--CODEGEN--\":8:17   */\n      dup1\n        /* \"--CODEGEN--\":5:7   */\n      iszero\n      tag_71\n      jumpi\n        /* \"--CODEGEN--\":30:31   */\n      0x00\n        /* \"--CODEGEN--\":27:28   */\n      dup1\n        /* \"--CODEGEN--\":20:32   */\n      revert\n        /* \"--CODEGEN--\":5:7   */\n    tag_71:\n        /* \"traceabilityContract.sol\":5199:5238  Asset(_assetAddress).getTransportData() */\n      pop\n      gas\n      staticcall\n      iszero\n        /* \"--CODEGEN--\":8:17   */\n      dup1\n        /* \"--CODEGEN--\":5:7   */\n      iszero\n      tag_72\n      jumpi\n        /* \"--CODEGEN--\":45:61   */\n      returndatasize\n        /* \"--CODEGEN--\":42:43   */\n      0x00\n        /* \"--CODEGEN--\":39:40   */\n      dup1\n        /* \"--CODEGEN--\":24:62   */\n      returndatacopy\n        /* \"--CODEGEN--\":77:93   */\n      returndatasize\n        /* \"--CODEGEN--\":74:75   */\n      0x00\n        /* \"--CODEGEN--\":67:94   */\n      revert\n        /* \"--CODEGEN--\":5:7   */\n    tag_72:\n        /* \"traceabilityContract.sol\":5199:5238  Asset(_assetAddress).getTransportData() */\n      pop\n      pop\n      pop\n      pop\n      mload(0x40)\n      returndatasize\n        /* \"--CODEGEN--\":13:15   */\n      0x40\n        /* \"--CODEGEN--\":8:11   */\n      dup2\n        /* \"--CODEGEN--\":5:16   */\n      lt\n        /* \"--CODEGEN--\":2:4   */\n      iszero\n      tag_73\n      jumpi\n        /* \"--CODEGEN--\":29:30   */\n      0x00\n        /* \"--CODEGEN--\":26:27   */\n      dup1\n        /* \"--CODEGEN--\":19:31   */\n      revert\n        /* \"--CODEGEN--\":2:4   */\n    tag_73:\n        /* \"traceabilityContract.sol\":5199:5238  Asset(_assetAddress).getTransportData() */\n      dup2\n      add\n      swap1\n      dup1\n      dup1\n      mload\n      swap1\n      0x20\n      add\n      swap1\n      swap3\n      swap2\n      swap1\n      dup1\n      mload\n      swap1\n      0x20\n      add\n      swap1\n      swap3\n      swap2\n      swap1\n      pop\n      pop\n      pop\n        /* \"traceabilityContract.sol\":5159:5238  (address _from, address _transporter) = Asset(_assetAddress).getTransportData() */\n      swap2\n      pop\n      swap2\n      pop\n        /* \"traceabilityContract.sol\":5273:5283  msg.sender */\n      caller\n        /* \"traceabilityContract.sol\":5257:5283  _transporter == msg.sender */\n      0xffffffffffffffffffffffffffffffffffffffff\n      and\n        /* \"traceabilityContract.sol\":5257:5269  _transporter */\n      dup2\n        /* \"traceabilityContract.sol\":5257:5283  _transporter == msg.sender */\n      0xffffffffffffffffffffffffffffffffffffffff\n      and\n      eq\n        /* \"traceabilityContract.sol\":5248:5339  require (_transporter == msg.sender, \"Asset is pending transport from another transporter\") */\n      iszero\n      iszero\n      tag_74\n      jumpi\n      mload(0x40)\n      0x08c379a000000000000000000000000000000000000000000000000000000000\n      dup2\n      mstore\n      0x04\n      add\n      dup1\n      dup1\n      0x20\n      add\n      dup3\n      dup2\n      sub\n      dup3\n      mstore\n      0x33\n      dup2\n      mstore\n      0x20\n      add\n      dup1\n      data_1f20c7958d9f0cd748b8762e2034937c60a5ebea47891fdb7ad0202f0127610b\n      0x33\n      swap2\n      codecopy\n      0x40\n      add\n      swap2\n      pop\n      pop\n      mload(0x40)\n      dup1\n      swap2\n      sub\n      swap1\n      revert\n    tag_74:\n        /* \"traceabilityContract.sol\":5365:5419  isPendingTransport(_from, _transporter, _assetAddress) */\n      tag_75\n        /* \"traceabilityContract.sol\":5384:5389  _from */\n      dup3\n        /* \"traceabilityContract.sol\":5391:5403  _transporter */\n      dup3\n        /* \"traceabilityContract.sol\":5405:5418  _assetAddress */\n      dup7\n        /* \"traceabilityContract.sol\":5365:5383  isPendingTransport */\n      tag_76\n        /* \"traceabilityContract.sol\":5365:5419  isPendingTransport(_from, _transporter, _assetAddress) */\n      jump\t// in\n    tag_75:\n        /* \"traceabilityContract.sol\":5357:5420  assert (isPendingTransport(_from, _transporter, _assetAddress)) */\n      iszero\n      iszero\n      tag_77\n      jumpi\n      invalid\n    tag_77:\n        /* \"traceabilityContract.sol\":5534:5544  tuContract */\n      0x01\n      0x00\n      swap1\n      sload\n      swap1\n      0x0100\n      exp\n      swap1\n      div\n      0xffffffffffffffffffffffffffffffffffffffff\n      and\n        /* \"traceabilityContract.sol\":5534:5562  tuContract.activateTransport */\n      0xffffffffffffffffffffffffffffffffffffffff\n      and\n      0xd8775956\n        /* \"traceabilityContract.sol\":5563:5568  _from */\n      dup4\n        /* \"traceabilityContract.sol\":5570:5582  _transporter */\n      dup4\n        /* \"traceabilityContract.sol\":5584:5597  _assetAddress */\n      dup8\n        /* \"traceabilityContract.sol\":5534:5598  tuContract.activateTransport(_from, _transporter, _assetAddress) */\n      mload(0x40)\n      dup5\n      0xffffffff\n      and\n      0x0100000000000000000000000000000000000000000000000000000000\n      mul\n      dup2\n      mstore\n      0x04\n      add\n      dup1\n      dup5\n      0xffffffffffffffffffffffffffffffffffffffff\n      and\n      0xffffffffffffffffffffffffffffffffffffffff\n      and\n      dup2\n      mstore\n      0x20\n      add\n      dup4\n      0xffffffffffffffffffffffffffffffffffffffff\n      and\n      0xffffffffffffffffffffffffffffffffffffffff\n      and\n      dup2\n      mstore\n      0x20\n      add\n      dup3\n      0xffffffffffffffffffffffffffffffffffffffff\n      and\n      0xffffffffffffffffffffffffffffffffffffffff\n      and\n      dup2\n      mstore\n      0x20\n      add\n      swap4\n      pop\n      pop\n      pop\n      pop\n      0x00\n      mload(0x40)\n      dup1\n      dup4\n      sub\n      dup2\n      0x00\n      dup8\n      dup1\n      extcodesize\n      iszero\n        /* \"--CODEGEN--\":8:17   */\n      dup1\n        /* \"--CODEGEN--\":5:7   */\n      iszero\n      tag_78\n      jumpi\n        /* \"--CODEGEN--\":30:31   */\n      0x00\n        /* \"--CODEGEN--\":27:28   */\n      dup1\n        /* \"--CODEGEN--\":20:32   */\n      revert\n        /* \"--CODEGEN--\":5:7   */\n    tag_78:\n        /* \"traceabilityContract.sol\":5534:5598  tuContract.activateTransport(_from, _transporter, _assetAddress) */\n      pop\n      gas\n      call\n      iszero\n        /* \"--CODEGEN--\":8:17   */\n      dup1\n        /* \"--CODEGEN--\":5:7   */\n      iszero\n      tag_79\n      jumpi\n        /* \"--CODEGEN--\":45:61   */\n      returndatasize\n        /* \"--CODEGEN--\":42:43   */\n      0x00\n        /* \"--CODEGEN--\":39:40   */\n      dup1\n        /* \"--CODEGEN--\":24:62   */\n      returndatacopy\n        /* \"--CODEGEN--\":77:93   */\n      returndatasize\n        /* \"--CODEGEN--\":74:75   */\n      0x00\n        /* \"--CODEGEN--\":67:94   */\n      revert\n        /* \"--CODEGEN--\":5:7   */\n    tag_79:\n        /* \"traceabilityContract.sol\":5534:5598  tuContract.activateTransport(_from, _transporter, _assetAddress) */\n      pop\n      pop\n      pop\n      pop\n        /* \"traceabilityContract.sol\":5702:5715  _assetAddress */\n      dup4\n        /* \"traceabilityContract.sol\":5696:5729  Asset(_assetAddress).newTransport */\n      0xffffffffffffffffffffffffffffffffffffffff\n      and\n      0xcbd056c8\n        /* \"traceabilityContract.sol\":5696:5731  Asset(_assetAddress).newTransport() */\n      mload(0x40)\n      dup2\n      0xffffffff\n      and\n      0x0100000000000000000000000000000000000000000000000000000000\n      mul\n      dup2\n      mstore\n      0x04\n      add\n      0x00\n      mload(0x40)\n      dup1\n      dup4\n      sub\n      dup2\n      0x00\n      dup8\n      dup1\n      extcodesize\n      iszero\n        /* \"--CODEGEN--\":8:17   */\n      dup1\n        /* \"--CODEGEN--\":5:7   */\n      iszero\n      tag_80\n      jumpi\n        /* \"--CODEGEN--\":30:31   */\n      0x00\n        /* \"--CODEGEN--\":27:28   */\n      dup1\n        /* \"--CODEGEN--\":20:32   */\n      revert\n        /* \"--CODEGEN--\":5:7   */\n    tag_80:\n        /* \"traceabilityContract.sol\":5696:5731  Asset(_assetAddress).newTransport() */\n      pop\n      gas\n      call\n      iszero\n        /* \"--CODEGEN--\":8:17   */\n      dup1\n        /* \"--CODEGEN--\":5:7   */\n      iszero\n      tag_81\n      jumpi\n        /* \"--CODEGEN--\":45:61   */\n      returndatasize\n        /* \"--CODEGEN--\":42:43   */\n      0x00\n        /* \"--CODEGEN--\":39:40   */\n      dup1\n        /* \"--CODEGEN--\":24:62   */\n      returndatacopy\n        /* \"--CODEGEN--\":77:93   */\n      returndatasize\n        /* \"--CODEGEN--\":74:75   */\n      0x00\n        /* \"--CODEGEN--\":67:94   */\n      revert\n        /* \"--CODEGEN--\":5:7   */\n    tag_81:\n        /* \"traceabilityContract.sol\":5696:5731  Asset(_assetAddress).newTransport() */\n      pop\n      pop\n      pop\n      pop\n        /* \"traceabilityContract.sol\":5748:5752  true */\n      0x01\n        /* \"traceabilityContract.sol\":5741:5752  return true */\n      swap3\n      pop\n      pop\n      pop\n        /* \"traceabilityContract.sol\":4834:5759  function startTransport(address _assetAddress) public returns (bool success){     ... */\n      swap2\n      swap1\n      pop\n      jump\t// out\n        /* \"traceabilityContract.sol\":2220:2561  function insertTransporter(address _transporterAddress, string memory _registrationData) ... */\n    tag_26:\n        /* \"traceabilityContract.sol\":2343:2355  bool success */\n      0x00\n        /* \"owned.sol\":172:177   */\n      dup1\n      0x00\n      swap1\n      sload\n      swap1\n      0x0100\n      exp\n      swap1\n      div\n      0xffffffffffffffffffffffffffffffffffffffff\n      and\n        /* \"owned.sol\":158:177   */\n      0xffffffffffffffffffffffffffffffffffffffff\n      and\n        /* \"owned.sol\":158:168   */\n      caller\n        /* \"owned.sol\":158:177   */\n      0xffffffffffffffffffffffffffffffffffffffff\n      and\n      eq\n        /* \"owned.sol\":150:192   */\n      iszero\n      iszero\n      tag_83\n      jumpi\n      mload(0x40)\n      0x08c379a000000000000000000000000000000000000000000000000000000000\n      dup2\n      mstore\n      0x04\n      add\n      dup1\n      dup1\n      0x20\n      add\n      dup3\n      dup2\n      sub\n      dup3\n      mstore\n      0x0a\n      dup2\n      mstore\n      0x20\n      add\n      dup1\n      0x4f6e6c79206f776e657200000000000000000000000000000000000000000000\n      dup2\n      mstore\n      pop\n      0x20\n      add\n      swap2\n      pop\n      pop\n      mload(0x40)\n      dup1\n      swap2\n      sub\n      swap1\n      revert\n    tag_83:\n        /* \"traceabilityContract.sol\":2388:2408  transportersContract */\n      0x03\n      0x00\n      swap1\n      sload\n      swap1\n      0x0100\n      exp\n      swap1\n      div\n      0xffffffffffffffffffffffffffffffffffffffff\n      and\n        /* \"traceabilityContract.sol\":2388:2426  transportersContract.insertTransporter */\n      0xffffffffffffffffffffffffffffffffffffffff\n      and\n      0x1302ed1f\n        /* \"traceabilityContract.sol\":2427:2446  _transporterAddress */\n      dup5\n        /* \"traceabilityContract.sol\":2448:2465  _registrationData */\n      dup5\n        /* \"traceabilityContract.sol\":2388:2466  transportersContract.insertTransporter(_transporterAddress, _registrationData) */\n      mload(0x40)\n      dup4\n      0xffffffff\n      and\n      0x0100000000000000000000000000000000000000000000000000000000\n      mul\n      dup2\n      mstore\n      0x04\n      add\n      dup1\n      dup4\n      0xffffffffffffffffffffffffffffffffffffffff\n      and\n      0xffffffffffffffffffffffffffffffffffffffff\n      and\n      dup2\n      mstore\n      0x20\n      add\n      dup1\n      0x20\n      add\n      dup3\n      dup2\n      sub\n      dup3\n      mstore\n      dup4\n      dup2\n      dup2\n      mload\n      dup2\n      mstore\n      0x20\n      add\n      swap2\n      pop\n      dup1\n      mload\n      swap1\n      0x20\n      add\n      swap1\n      dup1\n      dup4\n      dup4\n        /* \"--CODEGEN--\":23:24   */\n      0x00\n        /* \"--CODEGEN--\":8:108   */\n    tag_85:\n        /* \"--CODEGEN--\":33:36   */\n      dup4\n        /* \"--CODEGEN--\":30:31   */\n      dup2\n        /* \"--CODEGEN--\":27:37   */\n      lt\n        /* \"--CODEGEN--\":8:108   */\n      iszero\n      tag_86\n      jumpi\n        /* \"--CODEGEN--\":99:100   */\n      dup1\n        /* \"--CODEGEN--\":94:97   */\n      dup3\n        /* \"--CODEGEN--\":90:101   */\n      add\n        /* \"--CODEGEN--\":84:102   */\n      mload\n        /* \"--CODEGEN--\":80:81   */\n      dup2\n        /* \"--CODEGEN--\":75:78   */\n      dup5\n        /* \"--CODEGEN--\":71:82   */\n      add\n        /* \"--CODEGEN--\":64:103   */\n      mstore\n        /* \"--CODEGEN--\":52:54   */\n      0x20\n        /* \"--CODEGEN--\":49:50   */\n      dup2\n        /* \"--CODEGEN--\":45:55   */\n      add\n        /* \"--CODEGEN--\":40:55   */\n      swap1\n      pop\n        /* \"--CODEGEN--\":8:108   */\n      jump(tag_85)\n    tag_86:\n        /* \"--CODEGEN--\":12:26   */\n      pop\n        /* \"traceabilityContract.sol\":2388:2466  transportersContract.insertTransporter(_transporterAddress, _registrationData) */\n      pop\n      pop\n      pop\n      swap1\n      pop\n      swap1\n      dup2\n      add\n      swap1\n      0x1f\n      and\n      dup1\n      iszero\n      tag_88\n      jumpi\n      dup1\n      dup3\n      sub\n      dup1\n      mload\n      0x01\n      dup4\n      0x20\n      sub\n      0x0100\n      exp\n      sub\n      not\n      and\n      dup2\n      mstore\n      0x20\n      add\n      swap2\n      pop\n    tag_88:\n      pop\n      swap4\n      pop\n      pop\n      pop\n      pop\n      0x20\n      mload(0x40)\n      dup1\n      dup4\n      sub\n      dup2\n      0x00\n      dup8\n      dup1\n      extcodesize\n      iszero\n        /* \"--CODEGEN--\":8:17   */\n      dup1\n        /* \"--CODEGEN--\":5:7   */\n      iszero\n      tag_89\n      jumpi\n        /* \"--CODEGEN--\":30:31   */\n      0x00\n        /* \"--CODEGEN--\":27:28   */\n      dup1\n        /* \"--CODEGEN--\":20:32   */\n      revert\n        /* \"--CODEGEN--\":5:7   */\n    tag_89:\n        /* \"traceabilityContract.sol\":2388:2466  transportersContract.insertTransporter(_transporterAddress, _registrationData) */\n      pop\n      gas\n      call\n      iszero\n        /* \"--CODEGEN--\":8:17   */\n      dup1\n        /* \"--CODEGEN--\":5:7   */\n      iszero\n      tag_90\n      jumpi\n        /* \"--CODEGEN--\":45:61   */\n      returndatasize\n        /* \"--CODEGEN--\":42:43   */\n      0x00\n        /* \"--CODEGEN--\":39:40   */\n      dup1\n        /* \"--CODEGEN--\":24:62   */\n      returndatacopy\n        /* \"--CODEGEN--\":77:93   */\n      returndatasize\n        /* \"--CODEGEN--\":74:75   */\n      0x00\n        /* \"--CODEGEN--\":67:94   */\n      revert\n        /* \"--CODEGEN--\":5:7   */\n    tag_90:\n        /* \"traceabilityContract.sol\":2388:2466  transportersContract.insertTransporter(_transporterAddress, _registrationData) */\n      pop\n      pop\n      pop\n      pop\n      mload(0x40)\n      returndatasize\n        /* \"--CODEGEN--\":13:15   */\n      0x20\n        /* \"--CODEGEN--\":8:11   */\n      dup2\n        /* \"--CODEGEN--\":5:16   */\n      lt\n        /* \"--CODEGEN--\":2:4   */\n      iszero\n      tag_91\n      jumpi\n        /* \"--CODEGEN--\":29:30   */\n      0x00\n        /* \"--CODEGEN--\":26:27   */\n      dup1\n        /* \"--CODEGEN--\":19:31   */\n      revert\n        /* \"--CODEGEN--\":2:4   */\n    tag_91:\n        /* \"traceabilityContract.sol\":2388:2466  transportersContract.insertTransporter(_transporterAddress, _registrationData) */\n      dup2\n      add\n      swap1\n      dup1\n      dup1\n      mload\n      swap1\n      0x20\n      add\n      swap1\n      swap3\n      swap2\n      swap1\n      pop\n      pop\n      pop\n        /* \"traceabilityContract.sol\":2378:2466  success = transportersContract.insertTransporter(_transporterAddress, _registrationData) */\n      swap1\n      pop\n        /* \"traceabilityContract.sol\":2481:2538  LogNewTransporter(_transporterAddress, _registrationData) */\n      0x4d13fc32a15280074c61b282b69dffa21ef4336b9b8bfbe0c6bc402cdd86c715\n        /* \"traceabilityContract.sol\":2499:2518  _transporterAddress */\n      dup4\n        /* \"traceabilityContract.sol\":2520:2537  _registrationData */\n      dup4\n        /* \"traceabilityContract.sol\":2481:2538  LogNewTransporter(_transporterAddress, _registrationData) */\n      mload(0x40)\n      dup1\n      dup4\n      0xffffffffffffffffffffffffffffffffffffffff\n      and\n      0xffffffffffffffffffffffffffffffffffffffff\n      and\n      dup2\n      mstore\n      0x20\n      add\n      dup1\n      0x20\n      add\n      dup3\n      dup2\n      sub\n      dup3\n      mstore\n      dup4\n      dup2\n      dup2\n      mload\n      dup2\n      mstore\n      0x20\n      add\n      swap2\n      pop\n      dup1\n      mload\n      swap1\n      0x20\n      add\n      swap1\n      dup1\n      dup4\n      dup4\n        /* \"--CODEGEN--\":23:24   */\n      0x00\n        /* \"--CODEGEN--\":8:108   */\n    tag_92:\n        /* \"--CODEGEN--\":33:36   */\n      dup4\n        /* \"--CODEGEN--\":30:31   */\n      dup2\n        /* \"--CODEGEN--\":27:37   */\n      lt\n        /* \"--CODEGEN--\":8:108   */\n      iszero\n      tag_93\n      jumpi\n        /* \"--CODEGEN--\":99:100   */\n      dup1\n        /* \"--CODEGEN--\":94:97   */\n      dup3\n        /* \"--CODEGEN--\":90:101   */\n      add\n        /* \"--CODEGEN--\":84:102   */\n      mload\n        /* \"--CODEGEN--\":80:81   */\n      dup2\n        /* \"--CODEGEN--\":75:78   */\n      dup5\n        /* \"--CODEGEN--\":71:82   */\n      add\n        /* \"--CODEGEN--\":64:103   */\n      mstore\n        /* \"--CODEGEN--\":52:54   */\n      0x20\n        /* \"--CODEGEN--\":49:50   */\n      dup2\n        /* \"--CODEGEN--\":45:55   */\n      add\n        /* \"--CODEGEN--\":40:55   */\n      swap1\n      pop\n        /* \"--CODEGEN--\":8:108   */\n      jump(tag_92)\n    tag_93:\n        /* \"--CODEGEN--\":12:26   */\n      pop\n        /* \"traceabilityContract.sol\":2481:2538  LogNewTransporter(_transporterAddress, _registrationData) */\n      pop\n      pop\n      pop\n      swap1\n      pop\n      swap1\n      dup2\n      add\n      swap1\n      0x1f\n      and\n      dup1\n      iszero\n      tag_95\n      jumpi\n      dup1\n      dup3\n      sub\n      dup1\n      mload\n      0x01\n      dup4\n      0x20\n      sub\n      0x0100\n      exp\n      sub\n      not\n      and\n      dup2\n      mstore\n      0x20\n      add\n      swap2\n      pop\n    tag_95:\n      pop\n      swap4\n      pop\n      pop\n      pop\n      pop\n      mload(0x40)\n      dup1\n      swap2\n      sub\n      swap1\n      log1\n        /* \"traceabilityContract.sol\":2220:2561  function insertTransporter(address _transporterAddress, string memory _registrationData) ... */\n      swap3\n      swap2\n      pop\n      pop\n      jump\t// out\n        /* \"traceabilityContract.sol\":1345:1476  function isShop(address _shopAddress) public view returns(bool isIndeed) {... */\n    tag_29:\n        /* \"traceabilityContract.sol\":1403:1416  bool isIndeed */\n      0x00\n        /* \"traceabilityContract.sol\":1435:1448  shopsContract */\n      0x04\n      0x00\n      swap1\n      sload\n      swap1\n      0x0100\n      exp\n      swap1\n      div\n      0xffffffffffffffffffffffffffffffffffffffff\n      and\n        /* \"traceabilityContract.sol\":1435:1455  shopsContract.isShop */\n      0xffffffffffffffffffffffffffffffffffffffff\n      and\n      0x1d0e8a4d\n        /* \"traceabilityContract.sol\":1456:1468  _shopAddress */\n      dup4\n        /* \"traceabilityContract.sol\":1435:1469  shopsContract.isShop(_shopAddress) */\n      mload(0x40)\n      dup3\n      0xffffffff\n      and\n      0x0100000000000000000000000000000000000000000000000000000000\n      mul\n      dup2\n      mstore\n      0x04\n      add\n      dup1\n      dup3\n      0xffffffffffffffffffffffffffffffffffffffff\n      and\n      0xffffffffffffffffffffffffffffffffffffffff\n      and\n      dup2\n      mstore\n      0x20\n      add\n      swap2\n      pop\n      pop\n      0x20\n      mload(0x40)\n      dup1\n      dup4\n      sub\n      dup2\n      dup7\n      dup1\n      extcodesize\n      iszero\n        /* \"--CODEGEN--\":8:17   */\n      dup1\n        /* \"--CODEGEN--\":5:7   */\n      iszero\n      tag_97\n      jumpi\n        /* \"--CODEGEN--\":30:31   */\n      0x00\n        /* \"--CODEGEN--\":27:28   */\n      dup1\n        /* \"--CODEGEN--\":20:32   */\n      revert\n        /* \"--CODEGEN--\":5:7   */\n    tag_97:\n        /* \"traceabilityContract.sol\":1435:1469  shopsContract.isShop(_shopAddress) */\n      pop\n      gas\n      staticcall\n      iszero\n        /* \"--CODEGEN--\":8:17   */\n      dup1\n        /* \"--CODEGEN--\":5:7   */\n      iszero\n      tag_98\n      jumpi\n        /* \"--CODEGEN--\":45:61   */\n      returndatasize\n        /* \"--CODEGEN--\":42:43   */\n      0x00\n        /* \"--CODEGEN--\":39:40   */\n      dup1\n        /* \"--CODEGEN--\":24:62   */\n      returndatacopy\n        /* \"--CODEGEN--\":77:93   */\n      returndatasize\n        /* \"--CODEGEN--\":74:75   */\n      0x00\n        /* \"--CODEGEN--\":67:94   */\n      revert\n        /* \"--CODEGEN--\":5:7   */\n    tag_98:\n        /* \"traceabilityContract.sol\":1435:1469  shopsContract.isShop(_shopAddress) */\n      pop\n      pop\n      pop\n      pop\n      mload(0x40)\n      returndatasize\n        /* \"--CODEGEN--\":13:15   */\n      0x20\n        /* \"--CODEGEN--\":8:11   */\n      dup2\n        /* \"--CODEGEN--\":5:16   */\n      lt\n        /* \"--CODEGEN--\":2:4   */\n      iszero\n      tag_99\n      jumpi\n        /* \"--CODEGEN--\":29:30   */\n      0x00\n        /* \"--CODEGEN--\":26:27   */\n      dup1\n        /* \"--CODEGEN--\":19:31   */\n      revert\n        /* \"--CODEGEN--\":2:4   */\n    tag_99:\n        /* \"traceabilityContract.sol\":1435:1469  shopsContract.isShop(_shopAddress) */\n      dup2\n      add\n      swap1\n      dup1\n      dup1\n      mload\n      swap1\n      0x20\n      add\n      swap1\n      swap3\n      swap2\n      swap1\n      pop\n      pop\n      pop\n        /* \"traceabilityContract.sol\":1428:1469  return shopsContract.isShop(_shopAddress) */\n      swap1\n      pop\n        /* \"traceabilityContract.sol\":1345:1476  function isShop(address _shopAddress) public view returns(bool isIndeed) {... */\n      swap2\n      swap1\n      pop\n      jump\t// out\n        /* \"traceabilityContract.sol\":3971:4828  function requestTransportStart(address _assetAddress, address _transporterAddress, address _receiverAddress) ... */\n    tag_32:\n        /* \"traceabilityContract.sol\":4114:4126  bool success */\n      0x00\n        /* \"traceabilityContract.sol\":4185:4195  msg.sender */\n      caller\n        /* \"traceabilityContract.sol\":4153:4195  Asset(_assetAddress).owner() == msg.sender */\n      0xffffffffffffffffffffffffffffffffffffffff\n      and\n        /* \"traceabilityContract.sol\":4159:4172  _assetAddress */\n      dup5\n        /* \"traceabilityContract.sol\":4153:4179  Asset(_assetAddress).owner */\n      0xffffffffffffffffffffffffffffffffffffffff\n      and\n      0x8da5cb5b\n        /* \"traceabilityContract.sol\":4153:4181  Asset(_assetAddress).owner() */\n      mload(0x40)\n      dup2\n      0xffffffff\n      and\n      0x0100000000000000000000000000000000000000000000000000000000\n      mul\n      dup2\n      mstore\n      0x04\n      add\n      0x20\n      mload(0x40)\n      dup1\n      dup4\n      sub\n      dup2\n      dup7\n      dup1\n      extcodesize\n      iszero\n        /* \"--CODEGEN--\":8:17   */\n      dup1\n        /* \"--CODEGEN--\":5:7   */\n      iszero\n      tag_101\n      jumpi\n        /* \"--CODEGEN--\":30:31   */\n      0x00\n        /* \"--CODEGEN--\":27:28   */\n      dup1\n        /* \"--CODEGEN--\":20:32   */\n      revert\n        /* \"--CODEGEN--\":5:7   */\n    tag_101:\n        /* \"traceabilityContract.sol\":4153:4181  Asset(_assetAddress).owner() */\n      pop\n      gas\n      staticcall\n      iszero\n        /* \"--CODEGEN--\":8:17   */\n      dup1\n        /* \"--CODEGEN--\":5:7   */\n      iszero\n      tag_102\n      jumpi\n        /* \"--CODEGEN--\":45:61   */\n      returndatasize\n        /* \"--CODEGEN--\":42:43   */\n      0x00\n        /* \"--CODEGEN--\":39:40   */\n      dup1\n        /* \"--CODEGEN--\":24:62   */\n      returndatacopy\n        /* \"--CODEGEN--\":77:93   */\n      returndatasize\n        /* \"--CODEGEN--\":74:75   */\n      0x00\n        /* \"--CODEGEN--\":67:94   */\n      revert\n        /* \"--CODEGEN--\":5:7   */\n    tag_102:\n        /* \"traceabilityContract.sol\":4153:4181  Asset(_assetAddress).owner() */\n      pop\n      pop\n      pop\n      pop\n      mload(0x40)\n      returndatasize\n        /* \"--CODEGEN--\":13:15   */\n      0x20\n        /* \"--CODEGEN--\":8:11   */\n      dup2\n        /* \"--CODEGEN--\":5:16   */\n      lt\n        /* \"--CODEGEN--\":2:4   */\n      iszero\n      tag_103\n      jumpi\n        /* \"--CODEGEN--\":29:30   */\n      0x00\n        /* \"--CODEGEN--\":26:27   */\n      dup1\n        /* \"--CODEGEN--\":19:31   */\n      revert\n        /* \"--CODEGEN--\":2:4   */\n    tag_103:\n        /* \"traceabilityContract.sol\":4153:4181  Asset(_assetAddress).owner() */\n      dup2\n      add\n      swap1\n      dup1\n      dup1\n      mload\n      swap1\n      0x20\n      add\n      swap1\n      swap3\n      swap2\n      swap1\n      pop\n      pop\n      pop\n        /* \"traceabilityContract.sol\":4153:4195  Asset(_assetAddress).owner() == msg.sender */\n      0xffffffffffffffffffffffffffffffffffffffff\n      and\n      eq\n        /* \"traceabilityContract.sol\":4145:4247  require(Asset(_assetAddress).owner() == msg.sender, \"Only owner of the asset can request a transport\") */\n      iszero\n      iszero\n      tag_104\n      jumpi\n      mload(0x40)\n      0x08c379a000000000000000000000000000000000000000000000000000000000\n      dup2\n      mstore\n      0x04\n      add\n      dup1\n      dup1\n      0x20\n      add\n      dup3\n      dup2\n      sub\n      dup3\n      mstore\n      0x2f\n      dup2\n      mstore\n      0x20\n      add\n      dup1\n      data_b3386db340692aeb38fbfec616535bed7dd67523ac4deb537607824874941004\n      0x2f\n      swap2\n      codecopy\n      0x40\n      add\n      swap2\n      pop\n      pop\n      mload(0x40)\n      dup1\n      swap2\n      sub\n      swap1\n      revert\n    tag_104:\n        /* \"traceabilityContract.sol\":4276:4310  isTransporter(_transporterAddress) */\n      tag_105\n        /* \"traceabilityContract.sol\":4290:4309  _transporterAddress */\n      dup4\n        /* \"traceabilityContract.sol\":4276:4289  isTransporter */\n      tag_35\n        /* \"traceabilityContract.sol\":4276:4310  isTransporter(_transporterAddress) */\n      jump\t// in\n    tag_105:\n        /* \"traceabilityContract.sol\":4268:4346  require(isTransporter(_transporterAddress), \"only transporters can transport\") */\n      iszero\n      iszero\n      tag_106\n      jumpi\n      mload(0x40)\n      0x08c379a000000000000000000000000000000000000000000000000000000000\n      dup2\n      mstore\n      0x04\n      add\n      dup1\n      dup1\n      0x20\n      add\n      dup3\n      dup2\n      sub\n      dup3\n      mstore\n      0x1f\n      dup2\n      mstore\n      0x20\n      add\n      dup1\n      0x6f6e6c79207472616e73706f72746572732063616e207472616e73706f727400\n      dup2\n      mstore\n      pop\n      0x20\n      add\n      swap2\n      pop\n      pop\n      mload(0x40)\n      dup1\n      swap2\n      sub\n      swap1\n      revert\n    tag_106:\n        /* \"traceabilityContract.sol\":4377:4401  isShop(_receiverAddress) */\n      tag_107\n        /* \"traceabilityContract.sol\":4384:4400  _receiverAddress */\n      dup3\n        /* \"traceabilityContract.sol\":4377:4383  isShop */\n      tag_29\n        /* \"traceabilityContract.sol\":4377:4401  isShop(_receiverAddress) */\n      jump\t// in\n    tag_107:\n        /* \"traceabilityContract.sol\":4356:4502  require(... */\n      iszero\n      iszero\n      tag_108\n      jumpi\n      mload(0x40)\n      0x08c379a000000000000000000000000000000000000000000000000000000000\n      dup2\n      mstore\n      0x04\n      add\n      dup1\n      dup1\n      0x20\n      add\n      dup3\n      dup2\n      sub\n      dup3\n      mstore\n      0x22\n      dup2\n      mstore\n      0x20\n      add\n      dup1\n      data_d7ebdb07604d2f2dfde5e92adb2ec486d1953b2382851f46f6d2c63adec71c70\n      0x22\n      swap2\n      codecopy\n      0x40\n      add\n      swap2\n      pop\n      pop\n      mload(0x40)\n      dup1\n      swap2\n      sub\n      swap1\n      revert\n    tag_108:\n        /* \"traceabilityContract.sol\":4529:4539  tuContract */\n      0x01\n      0x00\n      swap1\n      sload\n      swap1\n      0x0100\n      exp\n      swap1\n      div\n      0xffffffffffffffffffffffffffffffffffffffff\n      and\n        /* \"traceabilityContract.sol\":4529:4561  tuContract.requestTransportStart */\n      0xffffffffffffffffffffffffffffffffffffffff\n      and\n      0x90097b3c\n        /* \"traceabilityContract.sol\":4562:4572  msg.sender */\n      caller\n        /* \"traceabilityContract.sol\":4574:4587  _assetAddress */\n      dup7\n        /* \"traceabilityContract.sol\":4589:4608  _transporterAddress */\n      dup7\n        /* \"traceabilityContract.sol\":4610:4626  _receiverAddress */\n      dup7\n        /* \"traceabilityContract.sol\":4529:4627  tuContract.requestTransportStart(msg.sender, _assetAddress, _transporterAddress, _receiverAddress) */\n      mload(0x40)\n      dup6\n      0xffffffff\n      and\n      0x0100000000000000000000000000000000000000000000000000000000\n      mul\n      dup2\n      mstore\n      0x04\n      add\n      dup1\n      dup6\n      0xffffffffffffffffffffffffffffffffffffffff\n      and\n      0xffffffffffffffffffffffffffffffffffffffff\n      and\n      dup2\n      mstore\n      0x20\n      add\n      dup5\n      0xffffffffffffffffffffffffffffffffffffffff\n      and\n      0xffffffffffffffffffffffffffffffffffffffff\n      and\n      dup2\n      mstore\n      0x20\n      add\n      dup4\n      0xffffffffffffffffffffffffffffffffffffffff\n      and\n      0xffffffffffffffffffffffffffffffffffffffff\n      and\n      dup2\n      mstore\n      0x20\n      add\n      dup3\n      0xffffffffffffffffffffffffffffffffffffffff\n      and\n      0xffffffffffffffffffffffffffffffffffffffff\n      and\n      dup2\n      mstore\n      0x20\n      add\n      swap5\n      pop\n      pop\n      pop\n      pop\n      pop\n      0x20\n      mload(0x40)\n      dup1\n      dup4\n      sub\n      dup2\n      0x00\n      dup8\n      dup1\n      extcodesize\n      iszero\n        /* \"--CODEGEN--\":8:17   */\n      dup1\n        /* \"--CODEGEN--\":5:7   */\n      iszero\n      tag_109\n      jumpi\n        /* \"--CODEGEN--\":30:31   */\n      0x00\n        /* \"--CODEGEN--\":27:28   */\n      dup1\n        /* \"--CODEGEN--\":20:32   */\n      revert\n        /* \"--CODEGEN--\":5:7   */\n    tag_109:\n        /* \"traceabilityContract.sol\":4529:4627  tuContract.requestTransportStart(msg.sender, _assetAddress, _transporterAddress, _receiverAddress) */\n      pop\n      gas\n      call\n      iszero\n        /* \"--CODEGEN--\":8:17   */\n      dup1\n        /* \"--CODEGEN--\":5:7   */\n      iszero\n      tag_110\n      jumpi\n        /* \"--CODEGEN--\":45:61   */\n      returndatasize\n        /* \"--CODEGEN--\":42:43   */\n      0x00\n        /* \"--CODEGEN--\":39:40   */\n      dup1\n        /* \"--CODEGEN--\":24:62   */\n      returndatacopy\n        /* \"--CODEGEN--\":77:93   */\n      returndatasize\n        /* \"--CODEGEN--\":74:75   */\n      0x00\n        /* \"--CODEGEN--\":67:94   */\n      revert\n        /* \"--CODEGEN--\":5:7   */\n    tag_110:\n        /* \"traceabilityContract.sol\":4529:4627  tuContract.requestTransportStart(msg.sender, _assetAddress, _transporterAddress, _receiverAddress) */\n      pop\n      pop\n      pop\n      pop\n      mload(0x40)\n      returndatasize\n        /* \"--CODEGEN--\":13:15   */\n      0x20\n        /* \"--CODEGEN--\":8:11   */\n      dup2\n        /* \"--CODEGEN--\":5:16   */\n      lt\n        /* \"--CODEGEN--\":2:4   */\n      iszero\n      tag_111\n      jumpi\n        /* \"--CODEGEN--\":29:30   */\n      0x00\n        /* \"--CODEGEN--\":26:27   */\n      dup1\n        /* \"--CODEGEN--\":19:31   */\n      revert\n        /* \"--CODEGEN--\":2:4   */\n    tag_111:\n        /* \"traceabilityContract.sol\":4529:4627  tuContract.requestTransportStart(msg.sender, _assetAddress, _transporterAddress, _receiverAddress) */\n      dup2\n      add\n      swap1\n      dup1\n      dup1\n      mload\n      swap1\n      0x20\n      add\n      swap1\n      swap3\n      swap2\n      swap1\n      pop\n      pop\n      pop\n      pop\n        /* \"traceabilityContract.sol\":4736:4749  _assetAddress */\n      dup4\n        /* \"traceabilityContract.sol\":4730:4766  Asset(_assetAddress).askForTransport */\n      0xffffffffffffffffffffffffffffffffffffffff\n      and\n      0x79ca5ca4\n        /* \"traceabilityContract.sol\":4767:4777  msg.sender */\n      caller\n        /* \"traceabilityContract.sol\":4779:4798  _transporterAddress */\n      dup6\n        /* \"traceabilityContract.sol\":4730:4799  Asset(_assetAddress).askForTransport(msg.sender, _transporterAddress) */\n      mload(0x40)\n      dup4\n      0xffffffff\n      and\n      0x0100000000000000000000000000000000000000000000000000000000\n      mul\n      dup2\n      mstore\n      0x04\n      add\n      dup1\n      dup4\n      0xffffffffffffffffffffffffffffffffffffffff\n      and\n      0xffffffffffffffffffffffffffffffffffffffff\n      and\n      dup2\n      mstore\n      0x20\n      add\n      dup3\n      0xffffffffffffffffffffffffffffffffffffffff\n      and\n      0xffffffffffffffffffffffffffffffffffffffff\n      and\n      dup2\n      mstore\n      0x20\n      add\n      swap3\n      pop\n      pop\n      pop\n      0x00\n      mload(0x40)\n      dup1\n      dup4\n      sub\n      dup2\n      0x00\n      dup8\n      dup1\n      extcodesize\n      iszero\n        /* \"--CODEGEN--\":8:17   */\n      dup1\n        /* \"--CODEGEN--\":5:7   */\n      iszero\n      tag_112\n      jumpi\n        /* \"--CODEGEN--\":30:31   */\n      0x00\n        /* \"--CODEGEN--\":27:28   */\n      dup1\n        /* \"--CODEGEN--\":20:32   */\n      revert\n        /* \"--CODEGEN--\":5:7   */\n    tag_112:\n        /* \"traceabilityContract.sol\":4730:4799  Asset(_assetAddress).askForTransport(msg.sender, _transporterAddress) */\n      pop\n      gas\n      call\n      iszero\n        /* \"--CODEGEN--\":8:17   */\n      dup1\n        /* \"--CODEGEN--\":5:7   */\n      iszero\n      tag_113\n      jumpi\n        /* \"--CODEGEN--\":45:61   */\n      returndatasize\n        /* \"--CODEGEN--\":42:43   */\n      0x00\n        /* \"--CODEGEN--\":39:40   */\n      dup1\n        /* \"--CODEGEN--\":24:62   */\n      returndatacopy\n        /* \"--CODEGEN--\":77:93   */\n      returndatasize\n        /* \"--CODEGEN--\":74:75   */\n      0x00\n        /* \"--CODEGEN--\":67:94   */\n      revert\n        /* \"--CODEGEN--\":5:7   */\n    tag_113:\n        /* \"traceabilityContract.sol\":4730:4799  Asset(_assetAddress).askForTransport(msg.sender, _transporterAddress) */\n      pop\n      pop\n      pop\n      pop\n        /* \"traceabilityContract.sol\":4817:4821  true */\n      0x01\n        /* \"traceabilityContract.sol\":4810:4821  return true */\n      swap1\n      pop\n        /* \"traceabilityContract.sol\":3971:4828  function requestTransportStart(address _assetAddress, address _transporterAddress, address _receiverAddress) ... */\n      swap4\n      swap3\n      pop\n      pop\n      pop\n      jump\t// out\n        /* \"traceabilityContract.sol\":1173:1339  function isTransporter(address _transporterAddress) public view returns(bool isIndeed) {... */\n    tag_35:\n        /* \"traceabilityContract.sol\":1245:1258  bool isIndeed */\n      0x00\n        /* \"traceabilityContract.sol\":1277:1297  transportersContract */\n      0x03\n      0x00\n      swap1\n      sload\n      swap1\n      0x0100\n      exp\n      swap1\n      div\n      0xffffffffffffffffffffffffffffffffffffffff\n      and\n        /* \"traceabilityContract.sol\":1277:1311  transportersContract.isTransporter */\n      0xffffffffffffffffffffffffffffffffffffffff\n      and\n      0x2b8109d5\n        /* \"traceabilityContract.sol\":1312:1331  _transporterAddress */\n      dup4\n        /* \"traceabilityContract.sol\":1277:1332  transportersContract.isTransporter(_transporterAddress) */\n      mload(0x40)\n      dup3\n      0xffffffff\n      and\n      0x0100000000000000000000000000000000000000000000000000000000\n      mul\n      dup2\n      mstore\n      0x04\n      add\n      dup1\n      dup3\n      0xffffffffffffffffffffffffffffffffffffffff\n      and\n      0xffffffffffffffffffffffffffffffffffffffff\n      and\n      dup2\n      mstore\n      0x20\n      add\n      swap2\n      pop\n      pop\n      0x20\n      mload(0x40)\n      dup1\n      dup4\n      sub\n      dup2\n      dup7\n      dup1\n      extcodesize\n      iszero\n        /* \"--CODEGEN--\":8:17   */\n      dup1\n        /* \"--CODEGEN--\":5:7   */\n      iszero\n      tag_115\n      jumpi\n        /* \"--CODEGEN--\":30:31   */\n      0x00\n        /* \"--CODEGEN--\":27:28   */\n      dup1\n        /* \"--CODEGEN--\":20:32   */\n      revert\n        /* \"--CODEGEN--\":5:7   */\n    tag_115:\n        /* \"traceabilityContract.sol\":1277:1332  transportersContract.isTransporter(_transporterAddress) */\n      pop\n      gas\n      staticcall\n      iszero\n        /* \"--CODEGEN--\":8:17   */\n      dup1\n        /* \"--CODEGEN--\":5:7   */\n      iszero\n      tag_116\n      jumpi\n        /* \"--CODEGEN--\":45:61   */\n      returndatasize\n        /* \"--CODEGEN--\":42:43   */\n      0x00\n        /* \"--CODEGEN--\":39:40   */\n      dup1\n        /* \"--CODEGEN--\":24:62   */\n      returndatacopy\n        /* \"--CODEGEN--\":77:93   */\n      returndatasize\n        /* \"--CODEGEN--\":74:75   */\n      0x00\n        /* \"--CODEGEN--\":67:94   */\n      revert\n        /* \"--CODEGEN--\":5:7   */\n    tag_116:\n        /* \"traceabilityContract.sol\":1277:1332  transportersContract.isTransporter(_transporterAddress) */\n      pop\n      pop\n      pop\n      pop\n      mload(0x40)\n      returndatasize\n        /* \"--CODEGEN--\":13:15   */\n      0x20\n        /* \"--CODEGEN--\":8:11   */\n      dup2\n        /* \"--CODEGEN--\":5:16   */\n      lt\n        /* \"--CODEGEN--\":2:4   */\n      iszero\n      tag_117\n      jumpi\n        /* \"--CODEGEN--\":29:30   */\n      0x00\n        /* \"--CODEGEN--\":26:27   */\n      dup1\n        /* \"--CODEGEN--\":19:31   */\n      revert\n        /* \"--CODEGEN--\":2:4   */\n    tag_117:\n        /* \"traceabilityContract.sol\":1277:1332  transportersContract.isTransporter(_transporterAddress) */\n      dup2\n      add\n      swap1\n      dup1\n      dup1\n      mload\n      swap1\n      0x20\n      add\n      swap1\n      swap3\n      swap2\n      swap1\n      pop\n      pop\n      pop\n        /* \"traceabilityContract.sol\":1270:1332  return transportersContract.isTransporter(_transporterAddress) */\n      swap1\n      pop\n        /* \"traceabilityContract.sol\":1173:1339  function isTransporter(address _transporterAddress) public view returns(bool isIndeed) {... */\n      swap2\n      swap1\n      pop\n      jump\t// out\n        /* \"traceabilityContract.sol\":6562:7318  function endTransport(address _assetAddress) public returns (bool success){      ... */\n    tag_38:\n        /* \"traceabilityContract.sol\":6623:6635  bool success */\n      0x00\n        /* \"traceabilityContract.sol\":6673:6691  isShop(msg.sender) */\n      tag_119\n        /* \"traceabilityContract.sol\":6680:6690  msg.sender */\n      caller\n        /* \"traceabilityContract.sol\":6673:6679  isShop */\n      tag_29\n        /* \"traceabilityContract.sol\":6673:6691  isShop(msg.sender) */\n      jump\t// in\n    tag_119:\n        /* \"traceabilityContract.sol\":6652:6810  require(... */\n      iszero\n      iszero\n      tag_120\n      jumpi\n      mload(0x40)\n      0x08c379a000000000000000000000000000000000000000000000000000000000\n      dup2\n      mstore\n      0x04\n      add\n      dup1\n      dup1\n      0x20\n      add\n      dup3\n      dup2\n      sub\n      dup3\n      mstore\n      0x1b\n      dup2\n      mstore\n      0x20\n      add\n      dup1\n      0x4f6e6c792073686f702063616e20726563656976652041737365740000000000\n      dup2\n      mstore\n      pop\n      0x20\n      add\n      swap2\n      pop\n      pop\n      mload(0x40)\n      dup1\n      swap2\n      sub\n      swap1\n      revert\n    tag_120:\n        /* \"traceabilityContract.sol\":6937:6950  _assetAddress */\n      dup2\n        /* \"traceabilityContract.sol\":6931:6964  Asset(_assetAddress).endTransport */\n      0xffffffffffffffffffffffffffffffffffffffff\n      and\n      0xa4d62f9a\n        /* \"traceabilityContract.sol\":6931:6966  Asset(_assetAddress).endTransport() */\n      mload(0x40)\n      dup2\n      0xffffffff\n      and\n      0x0100000000000000000000000000000000000000000000000000000000\n      mul\n      dup2\n      mstore\n      0x04\n      add\n      0x00\n      mload(0x40)\n      dup1\n      dup4\n      sub\n      dup2\n      0x00\n      dup8\n      dup1\n      extcodesize\n      iszero\n        /* \"--CODEGEN--\":8:17   */\n      dup1\n        /* \"--CODEGEN--\":5:7   */\n      iszero\n      tag_121\n      jumpi\n        /* \"--CODEGEN--\":30:31   */\n      0x00\n        /* \"--CODEGEN--\":27:28   */\n      dup1\n        /* \"--CODEGEN--\":20:32   */\n      revert\n        /* \"--CODEGEN--\":5:7   */\n    tag_121:\n        /* \"traceabilityContract.sol\":6931:6966  Asset(_assetAddress).endTransport() */\n      pop\n      gas\n      call\n      iszero\n        /* \"--CODEGEN--\":8:17   */\n      dup1\n        /* \"--CODEGEN--\":5:7   */\n      iszero\n      tag_122\n      jumpi\n        /* \"--CODEGEN--\":45:61   */\n      returndatasize\n        /* \"--CODEGEN--\":42:43   */\n      0x00\n        /* \"--CODEGEN--\":39:40   */\n      dup1\n        /* \"--CODEGEN--\":24:62   */\n      returndatacopy\n        /* \"--CODEGEN--\":77:93   */\n      returndatasize\n        /* \"--CODEGEN--\":74:75   */\n      0x00\n        /* \"--CODEGEN--\":67:94   */\n      revert\n        /* \"--CODEGEN--\":5:7   */\n    tag_122:\n        /* \"traceabilityContract.sol\":6931:6966  Asset(_assetAddress).endTransport() */\n      pop\n      pop\n      pop\n      pop\n        /* \"traceabilityContract.sol\":6986:6999  address _from */\n      0x00\n        /* \"traceabilityContract.sol\":7001:7021  address _transporter */\n      dup1\n        /* \"traceabilityContract.sol\":7031:7044  _assetAddress */\n      dup4\n        /* \"traceabilityContract.sol\":7025:7062  Asset(_assetAddress).getTransportData */\n      0xffffffffffffffffffffffffffffffffffffffff\n      and\n      0xb98c19c4\n        /* \"traceabilityContract.sol\":7025:7064  Asset(_assetAddress).getTransportData() */\n      mload(0x40)\n      dup2\n      0xffffffff\n      and\n      0x0100000000000000000000000000000000000000000000000000000000\n      mul\n      dup2\n      mstore\n      0x04\n      add\n      0x40\n      dup1\n      mload\n      dup1\n      dup4\n      sub\n      dup2\n      dup7\n      dup1\n      extcodesize\n      iszero\n        /* \"--CODEGEN--\":8:17   */\n      dup1\n        /* \"--CODEGEN--\":5:7   */\n      iszero\n      tag_123\n      jumpi\n        /* \"--CODEGEN--\":30:31   */\n      0x00\n        /* \"--CODEGEN--\":27:28   */\n      dup1\n        /* \"--CODEGEN--\":20:32   */\n      revert\n        /* \"--CODEGEN--\":5:7   */\n    tag_123:\n        /* \"traceabilityContract.sol\":7025:7064  Asset(_assetAddress).getTransportData() */\n      pop\n      gas\n      staticcall\n      iszero\n        /* \"--CODEGEN--\":8:17   */\n      dup1\n        /* \"--CODEGEN--\":5:7   */\n      iszero\n      tag_124\n      jumpi\n        /* \"--CODEGEN--\":45:61   */\n      returndatasize\n        /* \"--CODEGEN--\":42:43   */\n      0x00\n        /* \"--CODEGEN--\":39:40   */\n      dup1\n        /* \"--CODEGEN--\":24:62   */\n      returndatacopy\n        /* \"--CODEGEN--\":77:93   */\n      returndatasize\n        /* \"--CODEGEN--\":74:75   */\n      0x00\n        /* \"--CODEGEN--\":67:94   */\n      revert\n        /* \"--CODEGEN--\":5:7   */\n    tag_124:\n        /* \"traceabilityContract.sol\":7025:7064  Asset(_assetAddress).getTransportData() */\n      pop\n      pop\n      pop\n      pop\n      mload(0x40)\n      returndatasize\n        /* \"--CODEGEN--\":13:15   */\n      0x40\n        /* \"--CODEGEN--\":8:11   */\n      dup2\n        /* \"--CODEGEN--\":5:16   */\n      lt\n        /* \"--CODEGEN--\":2:4   */\n      iszero\n      tag_125\n      jumpi\n        /* \"--CODEGEN--\":29:30   */\n      0x00\n        /* \"--CODEGEN--\":26:27   */\n      dup1\n        /* \"--CODEGEN--\":19:31   */\n      revert\n        /* \"--CODEGEN--\":2:4   */\n    tag_125:\n        /* \"traceabilityContract.sol\":7025:7064  Asset(_assetAddress).getTransportData() */\n      dup2\n      add\n      swap1\n      dup1\n      dup1\n      mload\n      swap1\n      0x20\n      add\n      swap1\n      swap3\n      swap2\n      swap1\n      dup1\n      mload\n      swap1\n      0x20\n      add\n      swap1\n      swap3\n      swap2\n      swap1\n      pop\n      pop\n      pop\n        /* \"traceabilityContract.sol\":6985:7064  (address _from, address _transporter) = Asset(_assetAddress).getTransportData() */\n      swap2\n      pop\n      swap2\n      pop\n        /* \"traceabilityContract.sol\":7119:7129  tuContract */\n      0x01\n      0x00\n      swap1\n      sload\n      swap1\n      0x0100\n      exp\n      swap1\n      div\n      0xffffffffffffffffffffffffffffffffffffffff\n      and\n        /* \"traceabilityContract.sol\":7119:7145  tuContract.deleteTransport */\n      0xffffffffffffffffffffffffffffffffffffffff\n      and\n      0x6a20d949\n        /* \"traceabilityContract.sol\":7146:7151  _from */\n      dup4\n        /* \"traceabilityContract.sol\":7153:7165  _transporter */\n      dup4\n        /* \"traceabilityContract.sol\":7167:7180  _assetAddress */\n      dup8\n        /* \"traceabilityContract.sol\":7119:7181  tuContract.deleteTransport(_from, _transporter, _assetAddress) */\n      mload(0x40)\n      dup5\n      0xffffffff\n      and\n      0x0100000000000000000000000000000000000000000000000000000000\n      mul\n      dup2\n      mstore\n      0x04\n      add\n      dup1\n      dup5\n      0xffffffffffffffffffffffffffffffffffffffff\n      and\n      0xffffffffffffffffffffffffffffffffffffffff\n      and\n      dup2\n      mstore\n      0x20\n      add\n      dup4\n      0xffffffffffffffffffffffffffffffffffffffff\n      and\n      0xffffffffffffffffffffffffffffffffffffffff\n      and\n      dup2\n      mstore\n      0x20\n      add\n      dup3\n      0xffffffffffffffffffffffffffffffffffffffff\n      and\n      0xffffffffffffffffffffffffffffffffffffffff\n      and\n      dup2\n      mstore\n      0x20\n      add\n      swap4\n      pop\n      pop\n      pop\n      pop\n      0x00\n      mload(0x40)\n      dup1\n      dup4\n      sub\n      dup2\n      0x00\n      dup8\n      dup1\n      extcodesize\n      iszero\n        /* \"--CODEGEN--\":8:17   */\n      dup1\n        /* \"--CODEGEN--\":5:7   */\n      iszero\n      tag_126\n      jumpi\n        /* \"--CODEGEN--\":30:31   */\n      0x00\n        /* \"--CODEGEN--\":27:28   */\n      dup1\n        /* \"--CODEGEN--\":20:32   */\n      revert\n        /* \"--CODEGEN--\":5:7   */\n    tag_126:\n        /* \"traceabilityContract.sol\":7119:7181  tuContract.deleteTransport(_from, _transporter, _assetAddress) */\n      pop\n      gas\n      call\n      iszero\n        /* \"--CODEGEN--\":8:17   */\n      dup1\n        /* \"--CODEGEN--\":5:7   */\n      iszero\n      tag_127\n      jumpi\n        /* \"--CODEGEN--\":45:61   */\n      returndatasize\n        /* \"--CODEGEN--\":42:43   */\n      0x00\n        /* \"--CODEGEN--\":39:40   */\n      dup1\n        /* \"--CODEGEN--\":24:62   */\n      returndatacopy\n        /* \"--CODEGEN--\":77:93   */\n      returndatasize\n        /* \"--CODEGEN--\":74:75   */\n      0x00\n        /* \"--CODEGEN--\":67:94   */\n      revert\n        /* \"--CODEGEN--\":5:7   */\n    tag_127:\n        /* \"traceabilityContract.sol\":7119:7181  tuContract.deleteTransport(_from, _transporter, _assetAddress) */\n      pop\n      pop\n      pop\n      pop\n        /* \"traceabilityContract.sol\":7237:7250  shopsContract */\n      0x04\n      0x00\n      swap1\n      sload\n      swap1\n      0x0100\n      exp\n      swap1\n      div\n      0xffffffffffffffffffffffffffffffffffffffff\n      and\n        /* \"traceabilityContract.sol\":7237:7263  shopsContract.receiveAsset */\n      0xffffffffffffffffffffffffffffffffffffffff\n      and\n      0x91104740\n        /* \"traceabilityContract.sol\":7264:7274  msg.sender */\n      caller\n        /* \"traceabilityContract.sol\":7276:7289  _assetAddress */\n      dup7\n        /* \"traceabilityContract.sol\":7237:7290  shopsContract.receiveAsset(msg.sender, _assetAddress) */\n      mload(0x40)\n      dup4\n      0xffffffff\n      and\n      0x0100000000000000000000000000000000000000000000000000000000\n      mul\n      dup2\n      mstore\n      0x04\n      add\n      dup1\n      dup4\n      0xffffffffffffffffffffffffffffffffffffffff\n      and\n      0xffffffffffffffffffffffffffffffffffffffff\n      and\n      dup2\n      mstore\n      0x20\n      add\n      dup3\n      0xffffffffffffffffffffffffffffffffffffffff\n      and\n      0xffffffffffffffffffffffffffffffffffffffff\n      and\n      dup2\n      mstore\n      0x20\n      add\n      swap3\n      pop\n      pop\n      pop\n      0x20\n      mload(0x40)\n      dup1\n      dup4\n      sub\n      dup2\n      0x00\n      dup8\n      dup1\n      extcodesize\n      iszero\n        /* \"--CODEGEN--\":8:17   */\n      dup1\n        /* \"--CODEGEN--\":5:7   */\n      iszero\n      tag_128\n      jumpi\n        /* \"--CODEGEN--\":30:31   */\n      0x00\n        /* \"--CODEGEN--\":27:28   */\n      dup1\n        /* \"--CODEGEN--\":20:32   */\n      revert\n        /* \"--CODEGEN--\":5:7   */\n    tag_128:\n        /* \"traceabilityContract.sol\":7237:7290  shopsContract.receiveAsset(msg.sender, _assetAddress) */\n      pop\n      gas\n      call\n      iszero\n        /* \"--CODEGEN--\":8:17   */\n      dup1\n        /* \"--CODEGEN--\":5:7   */\n      iszero\n      tag_129\n      jumpi\n        /* \"--CODEGEN--\":45:61   */\n      returndatasize\n        /* \"--CODEGEN--\":42:43   */\n      0x00\n        /* \"--CODEGEN--\":39:40   */\n      dup1\n        /* \"--CODEGEN--\":24:62   */\n      returndatacopy\n        /* \"--CODEGEN--\":77:93   */\n      returndatasize\n        /* \"--CODEGEN--\":74:75   */\n      0x00\n        /* \"--CODEGEN--\":67:94   */\n      revert\n        /* \"--CODEGEN--\":5:7   */\n    tag_129:\n        /* \"traceabilityContract.sol\":7237:7290  shopsContract.receiveAsset(msg.sender, _assetAddress) */\n      pop\n      pop\n      pop\n      pop\n      mload(0x40)\n      returndatasize\n        /* \"--CODEGEN--\":13:15   */\n      0x20\n        /* \"--CODEGEN--\":8:11   */\n      dup2\n        /* \"--CODEGEN--\":5:16   */\n      lt\n        /* \"--CODEGEN--\":2:4   */\n      iszero\n      tag_130\n      jumpi\n        /* \"--CODEGEN--\":29:30   */\n      0x00\n        /* \"--CODEGEN--\":26:27   */\n      dup1\n        /* \"--CODEGEN--\":19:31   */\n      revert\n        /* \"--CODEGEN--\":2:4   */\n    tag_130:\n        /* \"traceabilityContract.sol\":7237:7290  shopsContract.receiveAsset(msg.sender, _assetAddress) */\n      dup2\n      add\n      swap1\n      dup1\n      dup1\n      mload\n      swap1\n      0x20\n      add\n      swap1\n      swap3\n      swap2\n      swap1\n      pop\n      pop\n      pop\n      pop\n        /* \"traceabilityContract.sol\":7307:7311  true */\n      0x01\n        /* \"traceabilityContract.sol\":7300:7311  return true */\n      swap3\n      pop\n      pop\n      pop\n        /* \"traceabilityContract.sol\":6562:7318  function endTransport(address _assetAddress) public returns (bool success){      ... */\n      swap2\n      swap1\n      pop\n      jump\t// out\n        /* \"traceabilityContract.sol\":3739:3965  function createAsset(string memory _JSON) public returns (address assetAddress){       ... */\n    tag_44:\n        /* \"traceabilityContract.sol\":3797:3817  address assetAddress */\n      0x00\n        /* \"traceabilityContract.sol\":3850:3867  producersContract */\n      0x02\n      0x00\n      swap1\n      sload\n      swap1\n      0x0100\n      exp\n      swap1\n      div\n      0xffffffffffffffffffffffffffffffffffffffff\n      and\n        /* \"traceabilityContract.sol\":3850:3879  producersContract.createAsset */\n      0xffffffffffffffffffffffffffffffffffffffff\n      and\n      0x791c0741\n        /* \"traceabilityContract.sol\":3880:3890  msg.sender */\n      caller\n        /* \"traceabilityContract.sol\":3892:3897  _JSON */\n      dup5\n        /* \"traceabilityContract.sol\":3850:3898  producersContract.createAsset(msg.sender, _JSON) */\n      mload(0x40)\n      dup4\n      0xffffffff\n      and\n      0x0100000000000000000000000000000000000000000000000000000000\n      mul\n      dup2\n      mstore\n      0x04\n      add\n      dup1\n      dup4\n      0xffffffffffffffffffffffffffffffffffffffff\n      and\n      0xffffffffffffffffffffffffffffffffffffffff\n      and\n      dup2\n      mstore\n      0x20\n      add\n      dup1\n      0x20\n      add\n      dup3\n      dup2\n      sub\n      dup3\n      mstore\n      dup4\n      dup2\n      dup2\n      mload\n      dup2\n      mstore\n      0x20\n      add\n      swap2\n      pop\n      dup1\n      mload\n      swap1\n      0x20\n      add\n      swap1\n      dup1\n      dup4\n      dup4\n        /* \"--CODEGEN--\":23:24   */\n      0x00\n        /* \"--CODEGEN--\":8:108   */\n    tag_132:\n        /* \"--CODEGEN--\":33:36   */\n      dup4\n        /* \"--CODEGEN--\":30:31   */\n      dup2\n        /* \"--CODEGEN--\":27:37   */\n      lt\n        /* \"--CODEGEN--\":8:108   */\n      iszero\n      tag_133\n      jumpi\n        /* \"--CODEGEN--\":99:100   */\n      dup1\n        /* \"--CODEGEN--\":94:97   */\n      dup3\n        /* \"--CODEGEN--\":90:101   */\n      add\n        /* \"--CODEGEN--\":84:102   */\n      mload\n        /* \"--CODEGEN--\":80:81   */\n      dup2\n        /* \"--CODEGEN--\":75:78   */\n      dup5\n        /* \"--CODEGEN--\":71:82   */\n      add\n        /* \"--CODEGEN--\":64:103   */\n      mstore\n        /* \"--CODEGEN--\":52:54   */\n      0x20\n        /* \"--CODEGEN--\":49:50   */\n      dup2\n        /* \"--CODEGEN--\":45:55   */\n      add\n        /* \"--CODEGEN--\":40:55   */\n      swap1\n      pop\n        /* \"--CODEGEN--\":8:108   */\n      jump(tag_132)\n    tag_133:\n        /* \"--CODEGEN--\":12:26   */\n      pop\n        /* \"traceabilityContract.sol\":3850:3898  producersContract.createAsset(msg.sender, _JSON) */\n      pop\n      pop\n      pop\n      swap1\n      pop\n      swap1\n      dup2\n      add\n      swap1\n      0x1f\n      and\n      dup1\n      iszero\n      tag_135\n      jumpi\n      dup1\n      dup3\n      sub\n      dup1\n      mload\n      0x01\n      dup4\n      0x20\n      sub\n      0x0100\n      exp\n      sub\n      not\n      and\n      dup2\n      mstore\n      0x20\n      add\n      swap2\n      pop\n    tag_135:\n      pop\n      swap4\n      pop\n      pop\n      pop\n      pop\n      0x20\n      mload(0x40)\n      dup1\n      dup4\n      sub\n      dup2\n      0x00\n      dup8\n      dup1\n      extcodesize\n      iszero\n        /* \"--CODEGEN--\":8:17   */\n      dup1\n        /* \"--CODEGEN--\":5:7   */\n      iszero\n      tag_136\n      jumpi\n        /* \"--CODEGEN--\":30:31   */\n      0x00\n        /* \"--CODEGEN--\":27:28   */\n      dup1\n        /* \"--CODEGEN--\":20:32   */\n      revert\n        /* \"--CODEGEN--\":5:7   */\n    tag_136:\n        /* \"traceabilityContract.sol\":3850:3898  producersContract.createAsset(msg.sender, _JSON) */\n      pop\n      gas\n      call\n      iszero\n        /* \"--CODEGEN--\":8:17   */\n      dup1\n        /* \"--CODEGEN--\":5:7   */\n      iszero\n      tag_137\n      jumpi\n        /* \"--CODEGEN--\":45:61   */\n      returndatasize\n        /* \"--CODEGEN--\":42:43   */\n      0x00\n        /* \"--CODEGEN--\":39:40   */\n      dup1\n        /* \"--CODEGEN--\":24:62   */\n      returndatacopy\n        /* \"--CODEGEN--\":77:93   */\n      returndatasize\n        /* \"--CODEGEN--\":74:75   */\n      0x00\n        /* \"--CODEGEN--\":67:94   */\n      revert\n        /* \"--CODEGEN--\":5:7   */\n    tag_137:\n        /* \"traceabilityContract.sol\":3850:3898  producersContract.createAsset(msg.sender, _JSON) */\n      pop\n      pop\n      pop\n      pop\n      mload(0x40)\n      returndatasize\n        /* \"--CODEGEN--\":13:15   */\n      0x20\n        /* \"--CODEGEN--\":8:11   */\n      dup2\n        /* \"--CODEGEN--\":5:16   */\n      lt\n        /* \"--CODEGEN--\":2:4   */\n      iszero\n      tag_138\n      jumpi\n        /* \"--CODEGEN--\":29:30   */\n      0x00\n        /* \"--CODEGEN--\":26:27   */\n      dup1\n        /* \"--CODEGEN--\":19:31   */\n      revert\n        /* \"--CODEGEN--\":2:4   */\n    tag_138:\n        /* \"traceabilityContract.sol\":3850:3898  producersContract.createAsset(msg.sender, _JSON) */\n      dup2\n      add\n      swap1\n      dup1\n      dup1\n      mload\n      swap1\n      0x20\n      add\n      swap1\n      swap3\n      swap2\n      swap1\n      pop\n      pop\n      pop\n        /* \"traceabilityContract.sol\":3835:3898  assetAddress = producersContract.createAsset(msg.sender, _JSON) */\n      swap1\n      pop\n        /* \"traceabilityContract.sol\":3925:3935  msg.sender */\n      caller\n        /* \"traceabilityContract.sol\":3913:3950  LogNewAsset(msg.sender, assetAddress) */\n      0xffffffffffffffffffffffffffffffffffffffff\n      and\n      0xc025769440426a633bedf01175c407aa85088e087b11a585ae5bc0e1a302004e\n        /* \"traceabilityContract.sol\":3937:3949  assetAddress */\n      dup3\n        /* \"traceabilityContract.sol\":3913:3950  LogNewAsset(msg.sender, assetAddress) */\n      mload(0x40)\n      dup1\n      dup3\n      0xffffffffffffffffffffffffffffffffffffffff\n      and\n      0xffffffffffffffffffffffffffffffffffffffff\n      and\n      dup2\n      mstore\n      0x20\n      add\n      swap2\n      pop\n      pop\n      mload(0x40)\n      dup1\n      swap2\n      sub\n      swap1\n      log2\n        /* \"traceabilityContract.sol\":3739:3965  function createAsset(string memory _JSON) public returns (address assetAddress){       ... */\n      swap2\n      swap1\n      pop\n      jump\t// out\n        /* \"traceabilityContract.sol\":1966:2214  function insertProducer(address ProducerAddress, string memory _data) public onlyOwner returns(uint index){... */\n    tag_50:\n        /* \"traceabilityContract.sol\":2061:2071  uint index */\n      0x00\n        /* \"owned.sol\":172:177   */\n      dup1\n      0x00\n      swap1\n      sload\n      swap1\n      0x0100\n      exp\n      swap1\n      div\n      0xffffffffffffffffffffffffffffffffffffffff\n      and\n        /* \"owned.sol\":158:177   */\n      0xffffffffffffffffffffffffffffffffffffffff\n      and\n        /* \"owned.sol\":158:168   */\n      caller\n        /* \"owned.sol\":158:177   */\n      0xffffffffffffffffffffffffffffffffffffffff\n      and\n      eq\n        /* \"owned.sol\":150:192   */\n      iszero\n      iszero\n      tag_140\n      jumpi\n      mload(0x40)\n      0x08c379a000000000000000000000000000000000000000000000000000000000\n      dup2\n      mstore\n      0x04\n      add\n      dup1\n      dup1\n      0x20\n      add\n      dup3\n      dup2\n      sub\n      dup3\n      mstore\n      0x0a\n      dup2\n      mstore\n      0x20\n      add\n      dup1\n      0x4f6e6c79206f776e657200000000000000000000000000000000000000000000\n      dup2\n      mstore\n      pop\n      0x20\n      add\n      swap2\n      pop\n      pop\n      mload(0x40)\n      dup1\n      swap2\n      sub\n      swap1\n      revert\n    tag_140:\n        /* \"traceabilityContract.sol\":2090:2107  producersContract */\n      0x02\n      0x00\n      swap1\n      sload\n      swap1\n      0x0100\n      exp\n      swap1\n      div\n      0xffffffffffffffffffffffffffffffffffffffff\n      and\n        /* \"traceabilityContract.sol\":2090:2122  producersContract.insertProducer */\n      0xffffffffffffffffffffffffffffffffffffffff\n      and\n      0x8412d3d1\n        /* \"traceabilityContract.sol\":2123:2138  ProducerAddress */\n      dup5\n        /* \"traceabilityContract.sol\":2140:2145  _data */\n      dup5\n        /* \"traceabilityContract.sol\":2090:2146  producersContract.insertProducer(ProducerAddress, _data) */\n      mload(0x40)\n      dup4\n      0xffffffff\n      and\n      0x0100000000000000000000000000000000000000000000000000000000\n      mul\n      dup2\n      mstore\n      0x04\n      add\n      dup1\n      dup4\n      0xffffffffffffffffffffffffffffffffffffffff\n      and\n      0xffffffffffffffffffffffffffffffffffffffff\n      and\n      dup2\n      mstore\n      0x20\n      add\n      dup1\n      0x20\n      add\n      dup3\n      dup2\n      sub\n      dup3\n      mstore\n      dup4\n      dup2\n      dup2\n      mload\n      dup2\n      mstore\n      0x20\n      add\n      swap2\n      pop\n      dup1\n      mload\n      swap1\n      0x20\n      add\n      swap1\n      dup1\n      dup4\n      dup4\n        /* \"--CODEGEN--\":23:24   */\n      0x00\n        /* \"--CODEGEN--\":8:108   */\n    tag_142:\n        /* \"--CODEGEN--\":33:36   */\n      dup4\n        /* \"--CODEGEN--\":30:31   */\n      dup2\n        /* \"--CODEGEN--\":27:37   */\n      lt\n        /* \"--CODEGEN--\":8:108   */\n      iszero\n      tag_143\n      jumpi\n        /* \"--CODEGEN--\":99:100   */\n      dup1\n        /* \"--CODEGEN--\":94:97   */\n      dup3\n        /* \"--CODEGEN--\":90:101   */\n      add\n        /* \"--CODEGEN--\":84:102   */\n      mload\n        /* \"--CODEGEN--\":80:81   */\n      dup2\n        /* \"--CODEGEN--\":75:78   */\n      dup5\n        /* \"--CODEGEN--\":71:82   */\n      add\n        /* \"--CODEGEN--\":64:103   */\n      mstore\n        /* \"--CODEGEN--\":52:54   */\n      0x20\n        /* \"--CODEGEN--\":49:50   */\n      dup2\n        /* \"--CODEGEN--\":45:55   */\n      add\n        /* \"--CODEGEN--\":40:55   */\n      swap1\n      pop\n        /* \"--CODEGEN--\":8:108   */\n      jump(tag_142)\n    tag_143:\n        /* \"--CODEGEN--\":12:26   */\n      pop\n        /* \"traceabilityContract.sol\":2090:2146  producersContract.insertProducer(ProducerAddress, _data) */\n      pop\n      pop\n      pop\n      swap1\n      pop\n      swap1\n      dup2\n      add\n      swap1\n      0x1f\n      and\n      dup1\n      iszero\n      tag_145\n      jumpi\n      dup1\n      dup3\n      sub\n      dup1\n      mload\n      0x01\n      dup4\n      0x20\n      sub\n      0x0100\n      exp\n      sub\n      not\n      and\n      dup2\n      mstore\n      0x20\n      add\n      swap2\n      pop\n    tag_145:\n      pop\n      swap4\n      pop\n      pop\n      pop\n      pop\n      0x20\n      mload(0x40)\n      dup1\n      dup4\n      sub\n      dup2\n      0x00\n      dup8\n      dup1\n      extcodesize\n      iszero\n        /* \"--CODEGEN--\":8:17   */\n      dup1\n        /* \"--CODEGEN--\":5:7   */\n      iszero\n      tag_146\n      jumpi\n        /* \"--CODEGEN--\":30:31   */\n      0x00\n        /* \"--CODEGEN--\":27:28   */\n      dup1\n        /* \"--CODEGEN--\":20:32   */\n      revert\n        /* \"--CODEGEN--\":5:7   */\n    tag_146:\n        /* \"traceabilityContract.sol\":2090:2146  producersContract.insertProducer(ProducerAddress, _data) */\n      pop\n      gas\n      call\n      iszero\n        /* \"--CODEGEN--\":8:17   */\n      dup1\n        /* \"--CODEGEN--\":5:7   */\n      iszero\n      tag_147\n      jumpi\n        /* \"--CODEGEN--\":45:61   */\n      returndatasize\n        /* \"--CODEGEN--\":42:43   */\n      0x00\n        /* \"--CODEGEN--\":39:40   */\n      dup1\n        /* \"--CODEGEN--\":24:62   */\n      returndatacopy\n        /* \"--CODEGEN--\":77:93   */\n      returndatasize\n        /* \"--CODEGEN--\":74:75   */\n      0x00\n        /* \"--CODEGEN--\":67:94   */\n      revert\n        /* \"--CODEGEN--\":5:7   */\n    tag_147:\n        /* \"traceabilityContract.sol\":2090:2146  producersContract.insertProducer(ProducerAddress, _data) */\n      pop\n      pop\n      pop\n      pop\n      mload(0x40)\n      returndatasize\n        /* \"--CODEGEN--\":13:15   */\n      0x20\n        /* \"--CODEGEN--\":8:11   */\n      dup2\n        /* \"--CODEGEN--\":5:16   */\n      lt\n        /* \"--CODEGEN--\":2:4   */\n      iszero\n      tag_148\n      jumpi\n        /* \"--CODEGEN--\":29:30   */\n      0x00\n        /* \"--CODEGEN--\":26:27   */\n      dup1\n        /* \"--CODEGEN--\":19:31   */\n      revert\n        /* \"--CODEGEN--\":2:4   */\n    tag_148:\n        /* \"traceabilityContract.sol\":2090:2146  producersContract.insertProducer(ProducerAddress, _data) */\n      dup2\n      add\n      swap1\n      dup1\n      dup1\n      mload\n      swap1\n      0x20\n      add\n      swap1\n      swap3\n      swap2\n      swap1\n      pop\n      pop\n      pop\n        /* \"traceabilityContract.sol\":2082:2146  index = producersContract.insertProducer(ProducerAddress, _data) */\n      swap1\n      pop\n        /* \"traceabilityContract.sol\":2161:2199  LogNewProducer(ProducerAddress, _data) */\n      0xb056bbe56ce656be62cde590f9c83ee5ae28ba40d9b2849cd6a02622af6c2750\n        /* \"traceabilityContract.sol\":2176:2191  ProducerAddress */\n      dup4\n        /* \"traceabilityContract.sol\":2193:2198  _data */\n      dup4\n        /* \"traceabilityContract.sol\":2161:2199  LogNewProducer(ProducerAddress, _data) */\n      mload(0x40)\n      dup1\n      dup4\n      0xffffffffffffffffffffffffffffffffffffffff\n      and\n      0xffffffffffffffffffffffffffffffffffffffff\n      and\n      dup2\n      mstore\n      0x20\n      add\n      dup1\n      0x20\n      add\n      dup3\n      dup2\n      sub\n      dup3\n      mstore\n      dup4\n      dup2\n      dup2\n      mload\n      dup2\n      mstore\n      0x20\n      add\n      swap2\n      pop\n      dup1\n      mload\n      swap1\n      0x20\n      add\n      swap1\n      dup1\n      dup4\n      dup4\n        /* \"--CODEGEN--\":23:24   */\n      0x00\n        /* \"--CODEGEN--\":8:108   */\n    tag_149:\n        /* \"--CODEGEN--\":33:36   */\n      dup4\n        /* \"--CODEGEN--\":30:31   */\n      dup2\n        /* \"--CODEGEN--\":27:37   */\n      lt\n        /* \"--CODEGEN--\":8:108   */\n      iszero\n      tag_150\n      jumpi\n        /* \"--CODEGEN--\":99:100   */\n      dup1\n        /* \"--CODEGEN--\":94:97   */\n      dup3\n        /* \"--CODEGEN--\":90:101   */\n      add\n        /* \"--CODEGEN--\":84:102   */\n      mload\n        /* \"--CODEGEN--\":80:81   */\n      dup2\n        /* \"--CODEGEN--\":75:78   */\n      dup5\n        /* \"--CODEGEN--\":71:82   */\n      add\n        /* \"--CODEGEN--\":64:103   */\n      mstore\n        /* \"--CODEGEN--\":52:54   */\n      0x20\n        /* \"--CODEGEN--\":49:50   */\n      dup2\n        /* \"--CODEGEN--\":45:55   */\n      add\n        /* \"--CODEGEN--\":40:55   */\n      swap1\n      pop\n        /* \"--CODEGEN--\":8:108   */\n      jump(tag_149)\n    tag_150:\n        /* \"--CODEGEN--\":12:26   */\n      pop\n        /* \"traceabilityContract.sol\":2161:2199  LogNewProducer(ProducerAddress, _data) */\n      pop\n      pop\n      pop\n      swap1\n      pop\n      swap1\n      dup2\n      add\n      swap1\n      0x1f\n      and\n      dup1\n      iszero\n      tag_152\n      jumpi\n      dup1\n      dup3\n      sub\n      dup1\n      mload\n      0x01\n      dup4\n      0x20\n      sub\n      0x0100\n      exp\n      sub\n      not\n      and\n      dup2\n      mstore\n      0x20\n      add\n      swap2\n      pop\n    tag_152:\n      pop\n      swap4\n      pop\n      pop\n      pop\n      pop\n      mload(0x40)\n      dup1\n      swap2\n      sub\n      swap1\n      log1\n        /* \"traceabilityContract.sol\":1966:2214  function insertProducer(address ProducerAddress, string memory _data) public onlyOwner returns(uint index){... */\n      swap3\n      swap2\n      pop\n      pop\n      jump\t// out\n        /* \"traceabilityContract.sol\":5765:6556  function requestTransportEnd(address _assetAddress) public returns (bool success){... */\n    tag_53:\n        /* \"traceabilityContract.sol\":5833:5845  bool success */\n      0x00\n        /* \"traceabilityContract.sol\":5864:5889  isTransporter(msg.sender) */\n      tag_154\n        /* \"traceabilityContract.sol\":5878:5888  msg.sender */\n      caller\n        /* \"traceabilityContract.sol\":5864:5877  isTransporter */\n      tag_35\n        /* \"traceabilityContract.sol\":5864:5889  isTransporter(msg.sender) */\n      jump\t// in\n    tag_154:\n        /* \"traceabilityContract.sol\":5856:5938  require(isTransporter(msg.sender), \"Only a transporter can request transport end\") */\n      iszero\n      iszero\n      tag_155\n      jumpi\n      mload(0x40)\n      0x08c379a000000000000000000000000000000000000000000000000000000000\n      dup2\n      mstore\n      0x04\n      add\n      dup1\n      dup1\n      0x20\n      add\n      dup3\n      dup2\n      sub\n      dup3\n      mstore\n      0x2c\n      dup2\n      mstore\n      0x20\n      add\n      dup1\n      data_db6d5f6fd8d243f5ea5478bab3d24275e673984b772b1be1f43af5dc1256953d\n      0x2c\n      swap2\n      codecopy\n      0x40\n      add\n      swap2\n      pop\n      pop\n      mload(0x40)\n      dup1\n      swap2\n      sub\n      swap1\n      revert\n    tag_155:\n        /* \"traceabilityContract.sol\":5959:5972  address _from */\n      0x00\n        /* \"traceabilityContract.sol\":5974:5994  address _transporter */\n      dup1\n        /* \"traceabilityContract.sol\":6004:6017  _assetAddress */\n      dup4\n        /* \"traceabilityContract.sol\":5998:6035  Asset(_assetAddress).getTransportData */\n      0xffffffffffffffffffffffffffffffffffffffff\n      and\n      0xb98c19c4\n        /* \"traceabilityContract.sol\":5998:6037  Asset(_assetAddress).getTransportData() */\n      mload(0x40)\n      dup2\n      0xffffffff\n      and\n      0x0100000000000000000000000000000000000000000000000000000000\n      mul\n      dup2\n      mstore\n      0x04\n      add\n      0x40\n      dup1\n      mload\n      dup1\n      dup4\n      sub\n      dup2\n      dup7\n      dup1\n      extcodesize\n      iszero\n        /* \"--CODEGEN--\":8:17   */\n      dup1\n        /* \"--CODEGEN--\":5:7   */\n      iszero\n      tag_156\n      jumpi\n        /* \"--CODEGEN--\":30:31   */\n      0x00\n        /* \"--CODEGEN--\":27:28   */\n      dup1\n        /* \"--CODEGEN--\":20:32   */\n      revert\n        /* \"--CODEGEN--\":5:7   */\n    tag_156:\n        /* \"traceabilityContract.sol\":5998:6037  Asset(_assetAddress).getTransportData() */\n      pop\n      gas\n      staticcall\n      iszero\n        /* \"--CODEGEN--\":8:17   */\n      dup1\n        /* \"--CODEGEN--\":5:7   */\n      iszero\n      tag_157\n      jumpi\n        /* \"--CODEGEN--\":45:61   */\n      returndatasize\n        /* \"--CODEGEN--\":42:43   */\n      0x00\n        /* \"--CODEGEN--\":39:40   */\n      dup1\n        /* \"--CODEGEN--\":24:62   */\n      returndatacopy\n        /* \"--CODEGEN--\":77:93   */\n      returndatasize\n        /* \"--CODEGEN--\":74:75   */\n      0x00\n        /* \"--CODEGEN--\":67:94   */\n      revert\n        /* \"--CODEGEN--\":5:7   */\n    tag_157:\n        /* \"traceabilityContract.sol\":5998:6037  Asset(_assetAddress).getTransportData() */\n      pop\n      pop\n      pop\n      pop\n      mload(0x40)\n      returndatasize\n        /* \"--CODEGEN--\":13:15   */\n      0x40\n        /* \"--CODEGEN--\":8:11   */\n      dup2\n        /* \"--CODEGEN--\":5:16   */\n      lt\n        /* \"--CODEGEN--\":2:4   */\n      iszero\n      tag_158\n      jumpi\n        /* \"--CODEGEN--\":29:30   */\n      0x00\n        /* \"--CODEGEN--\":26:27   */\n      dup1\n        /* \"--CODEGEN--\":19:31   */\n      revert\n        /* \"--CODEGEN--\":2:4   */\n    tag_158:\n        /* \"traceabilityContract.sol\":5998:6037  Asset(_assetAddress).getTransportData() */\n      dup2\n      add\n      swap1\n      dup1\n      dup1\n      mload\n      swap1\n      0x20\n      add\n      swap1\n      swap3\n      swap2\n      swap1\n      dup1\n      mload\n      swap1\n      0x20\n      add\n      swap1\n      swap3\n      swap2\n      swap1\n      pop\n      pop\n      pop\n        /* \"traceabilityContract.sol\":5958:6037  (address _from, address _transporter) = Asset(_assetAddress).getTransportData() */\n      swap2\n      pop\n      swap2\n      pop\n        /* \"traceabilityContract.sol\":6069:6081  _transporter */\n      dup1\n        /* \"traceabilityContract.sol\":6055:6081  msg.sender == _transporter */\n      0xffffffffffffffffffffffffffffffffffffffff\n      and\n        /* \"traceabilityContract.sol\":6055:6065  msg.sender */\n      caller\n        /* \"traceabilityContract.sol\":6055:6081  msg.sender == _transporter */\n      0xffffffffffffffffffffffffffffffffffffffff\n      and\n      eq\n        /* \"traceabilityContract.sol\":6047:6124  require(msg.sender == _transporter, \"Requester is not the valid transporter\") */\n      iszero\n      iszero\n      tag_159\n      jumpi\n      mload(0x40)\n      0x08c379a000000000000000000000000000000000000000000000000000000000\n      dup2\n      mstore\n      0x04\n      add\n      dup1\n      dup1\n      0x20\n      add\n      dup3\n      dup2\n      sub\n      dup3\n      mstore\n      0x26\n      dup2\n      mstore\n      0x20\n      add\n      dup1\n      data_9972cbd7570942969f9940a603338612a7b85c1b18dcf4011df478f476704281\n      0x26\n      swap2\n      codecopy\n      0x40\n      add\n      swap2\n      pop\n      pop\n      mload(0x40)\n      dup1\n      swap2\n      sub\n      swap1\n      revert\n    tag_159:\n        /* \"traceabilityContract.sol\":6187:6198  address _to */\n      0x00\n        /* \"traceabilityContract.sol\":6201:6211  tuContract */\n      0x01\n      0x00\n      swap1\n      sload\n      swap1\n      0x0100\n      exp\n      swap1\n      div\n      0xffffffffffffffffffffffffffffffffffffffff\n      and\n        /* \"traceabilityContract.sol\":6201:6232  tuContract.getTransportReceiver */\n      0xffffffffffffffffffffffffffffffffffffffff\n      and\n      0x365d8226\n        /* \"traceabilityContract.sol\":6233:6238  _from */\n      dup5\n        /* \"traceabilityContract.sol\":6240:6252  _transporter */\n      dup5\n        /* \"traceabilityContract.sol\":6254:6267  _assetAddress */\n      dup9\n        /* \"traceabilityContract.sol\":6201:6268  tuContract.getTransportReceiver(_from, _transporter, _assetAddress) */\n      mload(0x40)\n      dup5\n      0xffffffff\n      and\n      0x0100000000000000000000000000000000000000000000000000000000\n      mul\n      dup2\n      mstore\n      0x04\n      add\n      dup1\n      dup5\n      0xffffffffffffffffffffffffffffffffffffffff\n      and\n      0xffffffffffffffffffffffffffffffffffffffff\n      and\n      dup2\n      mstore\n      0x20\n      add\n      dup4\n      0xffffffffffffffffffffffffffffffffffffffff\n      and\n      0xffffffffffffffffffffffffffffffffffffffff\n      and\n      dup2\n      mstore\n      0x20\n      add\n      dup3\n      0xffffffffffffffffffffffffffffffffffffffff\n      and\n      0xffffffffffffffffffffffffffffffffffffffff\n      and\n      dup2\n      mstore\n      0x20\n      add\n      swap4\n      pop\n      pop\n      pop\n      pop\n      0x20\n      mload(0x40)\n      dup1\n      dup4\n      sub\n      dup2\n      dup7\n      dup1\n      extcodesize\n      iszero\n        /* \"--CODEGEN--\":8:17   */\n      dup1\n        /* \"--CODEGEN--\":5:7   */\n      iszero\n      tag_160\n      jumpi\n        /* \"--CODEGEN--\":30:31   */\n      0x00\n        /* \"--CODEGEN--\":27:28   */\n      dup1\n        /* \"--CODEGEN--\":20:32   */\n      revert\n        /* \"--CODEGEN--\":5:7   */\n    tag_160:\n        /* \"traceabilityContract.sol\":6201:6268  tuContract.getTransportReceiver(_from, _transporter, _assetAddress) */\n      pop\n      gas\n      staticcall\n      iszero\n        /* \"--CODEGEN--\":8:17   */\n      dup1\n        /* \"--CODEGEN--\":5:7   */\n      iszero\n      tag_161\n      jumpi\n        /* \"--CODEGEN--\":45:61   */\n      returndatasize\n        /* \"--CODEGEN--\":42:43   */\n      0x00\n        /* \"--CODEGEN--\":39:40   */\n      dup1\n        /* \"--CODEGEN--\":24:62   */\n      returndatacopy\n        /* \"--CODEGEN--\":77:93   */\n      returndatasize\n        /* \"--CODEGEN--\":74:75   */\n      0x00\n        /* \"--CODEGEN--\":67:94   */\n      revert\n        /* \"--CODEGEN--\":5:7   */\n    tag_161:\n        /* \"traceabilityContract.sol\":6201:6268  tuContract.getTransportReceiver(_from, _transporter, _assetAddress) */\n      pop\n      pop\n      pop\n      pop\n      mload(0x40)\n      returndatasize\n        /* \"--CODEGEN--\":13:15   */\n      0x20\n        /* \"--CODEGEN--\":8:11   */\n      dup2\n        /* \"--CODEGEN--\":5:16   */\n      lt\n        /* \"--CODEGEN--\":2:4   */\n      iszero\n      tag_162\n      jumpi\n        /* \"--CODEGEN--\":29:30   */\n      0x00\n        /* \"--CODEGEN--\":26:27   */\n      dup1\n        /* \"--CODEGEN--\":19:31   */\n      revert\n        /* \"--CODEGEN--\":2:4   */\n    tag_162:\n        /* \"traceabilityContract.sol\":6201:6268  tuContract.getTransportReceiver(_from, _transporter, _assetAddress) */\n      dup2\n      add\n      swap1\n      dup1\n      dup1\n      mload\n      swap1\n      0x20\n      add\n      swap1\n      swap3\n      swap2\n      swap1\n      pop\n      pop\n      pop\n        /* \"traceabilityContract.sol\":6187:6268  address _to = tuContract.getTransportReceiver(_from, _transporter, _assetAddress) */\n      swap1\n      pop\n        /* \"traceabilityContract.sol\":6331:6344  _assetAddress */\n      dup5\n        /* \"traceabilityContract.sol\":6325:6364  Asset(_assetAddress).askForTransportEnd */\n      0xffffffffffffffffffffffffffffffffffffffff\n      and\n      0x0b41573f\n        /* \"traceabilityContract.sol\":6365:6377  _transporter */\n      dup4\n        /* \"traceabilityContract.sol\":6379:6382  _to */\n      dup4\n        /* \"traceabilityContract.sol\":6325:6383  Asset(_assetAddress).askForTransportEnd(_transporter, _to) */\n      mload(0x40)\n      dup4\n      0xffffffff\n      and\n      0x0100000000000000000000000000000000000000000000000000000000\n      mul\n      dup2\n      mstore\n      0x04\n      add\n      dup1\n      dup4\n      0xffffffffffffffffffffffffffffffffffffffff\n      and\n      0xffffffffffffffffffffffffffffffffffffffff\n      and\n      dup2\n      mstore\n      0x20\n      add\n      dup3\n      0xffffffffffffffffffffffffffffffffffffffff\n      and\n      0xffffffffffffffffffffffffffffffffffffffff\n      and\n      dup2\n      mstore\n      0x20\n      add\n      swap3\n      pop\n      pop\n      pop\n      0x00\n      mload(0x40)\n      dup1\n      dup4\n      sub\n      dup2\n      0x00\n      dup8\n      dup1\n      extcodesize\n      iszero\n        /* \"--CODEGEN--\":8:17   */\n      dup1\n        /* \"--CODEGEN--\":5:7   */\n      iszero\n      tag_163\n      jumpi\n        /* \"--CODEGEN--\":30:31   */\n      0x00\n        /* \"--CODEGEN--\":27:28   */\n      dup1\n        /* \"--CODEGEN--\":20:32   */\n      revert\n        /* \"--CODEGEN--\":5:7   */\n    tag_163:\n        /* \"traceabilityContract.sol\":6325:6383  Asset(_assetAddress).askForTransportEnd(_transporter, _to) */\n      pop\n      gas\n      call\n      iszero\n        /* \"--CODEGEN--\":8:17   */\n      dup1\n        /* \"--CODEGEN--\":5:7   */\n      iszero\n      tag_164\n      jumpi\n        /* \"--CODEGEN--\":45:61   */\n      returndatasize\n        /* \"--CODEGEN--\":42:43   */\n      0x00\n        /* \"--CODEGEN--\":39:40   */\n      dup1\n        /* \"--CODEGEN--\":24:62   */\n      returndatacopy\n        /* \"--CODEGEN--\":77:93   */\n      returndatasize\n        /* \"--CODEGEN--\":74:75   */\n      0x00\n        /* \"--CODEGEN--\":67:94   */\n      revert\n        /* \"--CODEGEN--\":5:7   */\n    tag_164:\n        /* \"traceabilityContract.sol\":6325:6383  Asset(_assetAddress).askForTransportEnd(_transporter, _to) */\n      pop\n      pop\n      pop\n      pop\n        /* \"traceabilityContract.sol\":6462:6475  shopsContract */\n      0x04\n      0x00\n      swap1\n      sload\n      swap1\n      0x0100\n      exp\n      swap1\n      div\n      0xffffffffffffffffffffffffffffffffffffffff\n      and\n        /* \"traceabilityContract.sol\":6462:6491  shopsContract.addPendingAsset */\n      0xffffffffffffffffffffffffffffffffffffffff\n      and\n      0x62e6115a\n        /* \"traceabilityContract.sol\":6492:6495  _to */\n      dup3\n        /* \"traceabilityContract.sol\":6497:6510  _assetAddress */\n      dup8\n        /* \"traceabilityContract.sol\":6462:6511  shopsContract.addPendingAsset(_to, _assetAddress) */\n      mload(0x40)\n      dup4\n      0xffffffff\n      and\n      0x0100000000000000000000000000000000000000000000000000000000\n      mul\n      dup2\n      mstore\n      0x04\n      add\n      dup1\n      dup4\n      0xffffffffffffffffffffffffffffffffffffffff\n      and\n      0xffffffffffffffffffffffffffffffffffffffff\n      and\n      dup2\n      mstore\n      0x20\n      add\n      dup3\n      0xffffffffffffffffffffffffffffffffffffffff\n      and\n      0xffffffffffffffffffffffffffffffffffffffff\n      and\n      dup2\n      mstore\n      0x20\n      add\n      swap3\n      pop\n      pop\n      pop\n      0x20\n      mload(0x40)\n      dup1\n      dup4\n      sub\n      dup2\n      0x00\n      dup8\n      dup1\n      extcodesize\n      iszero\n        /* \"--CODEGEN--\":8:17   */\n      dup1\n        /* \"--CODEGEN--\":5:7   */\n      iszero\n      tag_165\n      jumpi\n        /* \"--CODEGEN--\":30:31   */\n      0x00\n        /* \"--CODEGEN--\":27:28   */\n      dup1\n        /* \"--CODEGEN--\":20:32   */\n      revert\n        /* \"--CODEGEN--\":5:7   */\n    tag_165:\n        /* \"traceabilityContract.sol\":6462:6511  shopsContract.addPendingAsset(_to, _assetAddress) */\n      pop\n      gas\n      call\n      iszero\n        /* \"--CODEGEN--\":8:17   */\n      dup1\n        /* \"--CODEGEN--\":5:7   */\n      iszero\n      tag_166\n      jumpi\n        /* \"--CODEGEN--\":45:61   */\n      returndatasize\n        /* \"--CODEGEN--\":42:43   */\n      0x00\n        /* \"--CODEGEN--\":39:40   */\n      dup1\n        /* \"--CODEGEN--\":24:62   */\n      returndatacopy\n        /* \"--CODEGEN--\":77:93   */\n      returndatasize\n        /* \"--CODEGEN--\":74:75   */\n      0x00\n        /* \"--CODEGEN--\":67:94   */\n      revert\n        /* \"--CODEGEN--\":5:7   */\n    tag_166:\n        /* \"traceabilityContract.sol\":6462:6511  shopsContract.addPendingAsset(_to, _assetAddress) */\n      pop\n      pop\n      pop\n      pop\n      mload(0x40)\n      returndatasize\n        /* \"--CODEGEN--\":13:15   */\n      0x20\n        /* \"--CODEGEN--\":8:11   */\n      dup2\n        /* \"--CODEGEN--\":5:16   */\n      lt\n        /* \"--CODEGEN--\":2:4   */\n      iszero\n      tag_167\n      jumpi\n        /* \"--CODEGEN--\":29:30   */\n      0x00\n        /* \"--CODEGEN--\":26:27   */\n      dup1\n        /* \"--CODEGEN--\":19:31   */\n      revert\n        /* \"--CODEGEN--\":2:4   */\n    tag_167:\n        /* \"traceabilityContract.sol\":6462:6511  shopsContract.addPendingAsset(_to, _assetAddress) */\n      dup2\n      add\n      swap1\n      dup1\n      dup1\n      mload\n      swap1\n      0x20\n      add\n      swap1\n      swap3\n      swap2\n      swap1\n      pop\n      pop\n      pop\n      pop\n        /* \"traceabilityContract.sol\":6545:6549  true */\n      0x01\n        /* \"traceabilityContract.sol\":6538:6549  return true */\n      swap4\n      pop\n      pop\n      pop\n      pop\n        /* \"traceabilityContract.sol\":5765:6556  function requestTransportEnd(address _assetAddress) public returns (bool success){... */\n      swap2\n      swap1\n      pop\n      jump\t// out\n        /* \"owned.sol\":94:114   */\n    tag_55:\n      0x00\n      dup1\n      swap1\n      sload\n      swap1\n      0x0100\n      exp\n      swap1\n      div\n      0xffffffffffffffffffffffffffffffffffffffff\n      and\n      dup2\n      jump\t// out\n        /* \"traceabilityContract.sol\":1732:1960  function insertShop(address _shopAddress, string memory _data) public onlyOwner returns(uint index){... */\n    tag_61:\n        /* \"traceabilityContract.sol\":1820:1830  uint index */\n      0x00\n        /* \"owned.sol\":172:177   */\n      dup1\n      0x00\n      swap1\n      sload\n      swap1\n      0x0100\n      exp\n      swap1\n      div\n      0xffffffffffffffffffffffffffffffffffffffff\n      and\n        /* \"owned.sol\":158:177   */\n      0xffffffffffffffffffffffffffffffffffffffff\n      and\n        /* \"owned.sol\":158:168   */\n      caller\n        /* \"owned.sol\":158:177   */\n      0xffffffffffffffffffffffffffffffffffffffff\n      and\n      eq\n        /* \"owned.sol\":150:192   */\n      iszero\n      iszero\n      tag_169\n      jumpi\n      mload(0x40)\n      0x08c379a000000000000000000000000000000000000000000000000000000000\n      dup2\n      mstore\n      0x04\n      add\n      dup1\n      dup1\n      0x20\n      add\n      dup3\n      dup2\n      sub\n      dup3\n      mstore\n      0x0a\n      dup2\n      mstore\n      0x20\n      add\n      dup1\n      0x4f6e6c79206f776e657200000000000000000000000000000000000000000000\n      dup2\n      mstore\n      pop\n      0x20\n      add\n      swap2\n      pop\n      pop\n      mload(0x40)\n      dup1\n      swap2\n      sub\n      swap1\n      revert\n    tag_169:\n        /* \"traceabilityContract.sol\":1849:1862  shopsContract */\n      0x04\n      0x00\n      swap1\n      sload\n      swap1\n      0x0100\n      exp\n      swap1\n      div\n      0xffffffffffffffffffffffffffffffffffffffff\n      and\n        /* \"traceabilityContract.sol\":1849:1873  shopsContract.insertShop */\n      0xffffffffffffffffffffffffffffffffffffffff\n      and\n      0x9b7e02eb\n        /* \"traceabilityContract.sol\":1874:1886  _shopAddress */\n      dup5\n        /* \"traceabilityContract.sol\":1888:1893  _data */\n      dup5\n        /* \"traceabilityContract.sol\":1849:1894  shopsContract.insertShop(_shopAddress, _data) */\n      mload(0x40)\n      dup4\n      0xffffffff\n      and\n      0x0100000000000000000000000000000000000000000000000000000000\n      mul\n      dup2\n      mstore\n      0x04\n      add\n      dup1\n      dup4\n      0xffffffffffffffffffffffffffffffffffffffff\n      and\n      0xffffffffffffffffffffffffffffffffffffffff\n      and\n      dup2\n      mstore\n      0x20\n      add\n      dup1\n      0x20\n      add\n      dup3\n      dup2\n      sub\n      dup3\n      mstore\n      dup4\n      dup2\n      dup2\n      mload\n      dup2\n      mstore\n      0x20\n      add\n      swap2\n      pop\n      dup1\n      mload\n      swap1\n      0x20\n      add\n      swap1\n      dup1\n      dup4\n      dup4\n        /* \"--CODEGEN--\":23:24   */\n      0x00\n        /* \"--CODEGEN--\":8:108   */\n    tag_171:\n        /* \"--CODEGEN--\":33:36   */\n      dup4\n        /* \"--CODEGEN--\":30:31   */\n      dup2\n        /* \"--CODEGEN--\":27:37   */\n      lt\n        /* \"--CODEGEN--\":8:108   */\n      iszero\n      tag_172\n      jumpi\n        /* \"--CODEGEN--\":99:100   */\n      dup1\n        /* \"--CODEGEN--\":94:97   */\n      dup3\n        /* \"--CODEGEN--\":90:101   */\n      add\n        /* \"--CODEGEN--\":84:102   */\n      mload\n        /* \"--CODEGEN--\":80:81   */\n      dup2\n        /* \"--CODEGEN--\":75:78   */\n      dup5\n        /* \"--CODEGEN--\":71:82   */\n      add\n        /* \"--CODEGEN--\":64:103   */\n      mstore\n        /* \"--CODEGEN--\":52:54   */\n      0x20\n        /* \"--CODEGEN--\":49:50   */\n      dup2\n        /* \"--CODEGEN--\":45:55   */\n      add\n        /* \"--CODEGEN--\":40:55   */\n      swap1\n      pop\n        /* \"--CODEGEN--\":8:108   */\n      jump(tag_171)\n    tag_172:\n        /* \"--CODEGEN--\":12:26   */\n      pop\n        /* \"traceabilityContract.sol\":1849:1894  shopsContract.insertShop(_shopAddress, _data) */\n      pop\n      pop\n      pop\n      swap1\n      pop\n      swap1\n      dup2\n      add\n      swap1\n      0x1f\n      and\n      dup1\n      iszero\n      tag_174\n      jumpi\n      dup1\n      dup3\n      sub\n      dup1\n      mload\n      0x01\n      dup4\n      0x20\n      sub\n      0x0100\n      exp\n      sub\n      not\n      and\n      dup2\n      mstore\n      0x20\n      add\n      swap2\n      pop\n    tag_174:\n      pop\n      swap4\n      pop\n      pop\n      pop\n      pop\n      0x20\n      mload(0x40)\n      dup1\n      dup4\n      sub\n      dup2\n      0x00\n      dup8\n      dup1\n      extcodesize\n      iszero\n        /* \"--CODEGEN--\":8:17   */\n      dup1\n        /* \"--CODEGEN--\":5:7   */\n      iszero\n      tag_175\n      jumpi\n        /* \"--CODEGEN--\":30:31   */\n      0x00\n        /* \"--CODEGEN--\":27:28   */\n      dup1\n        /* \"--CODEGEN--\":20:32   */\n      revert\n        /* \"--CODEGEN--\":5:7   */\n    tag_175:\n        /* \"traceabilityContract.sol\":1849:1894  shopsContract.insertShop(_shopAddress, _data) */\n      pop\n      gas\n      call\n      iszero\n        /* \"--CODEGEN--\":8:17   */\n      dup1\n        /* \"--CODEGEN--\":5:7   */\n      iszero\n      tag_176\n      jumpi\n        /* \"--CODEGEN--\":45:61   */\n      returndatasize\n        /* \"--CODEGEN--\":42:43   */\n      0x00\n        /* \"--CODEGEN--\":39:40   */\n      dup1\n        /* \"--CODEGEN--\":24:62   */\n      returndatacopy\n        /* \"--CODEGEN--\":77:93   */\n      returndatasize\n        /* \"--CODEGEN--\":74:75   */\n      0x00\n        /* \"--CODEGEN--\":67:94   */\n      revert\n        /* \"--CODEGEN--\":5:7   */\n    tag_176:\n        /* \"traceabilityContract.sol\":1849:1894  shopsContract.insertShop(_shopAddress, _data) */\n      pop\n      pop\n      pop\n      pop\n      mload(0x40)\n      returndatasize\n        /* \"--CODEGEN--\":13:15   */\n      0x20\n        /* \"--CODEGEN--\":8:11   */\n      dup2\n        /* \"--CODEGEN--\":5:16   */\n      lt\n        /* \"--CODEGEN--\":2:4   */\n      iszero\n      tag_177\n      jumpi\n        /* \"--CODEGEN--\":29:30   */\n      0x00\n        /* \"--CODEGEN--\":26:27   */\n      dup1\n        /* \"--CODEGEN--\":19:31   */\n      revert\n        /* \"--CODEGEN--\":2:4   */\n    tag_177:\n        /* \"traceabilityContract.sol\":1849:1894  shopsContract.insertShop(_shopAddress, _data) */\n      dup2\n      add\n      swap1\n      dup1\n      dup1\n      mload\n      swap1\n      0x20\n      add\n      swap1\n      swap3\n      swap2\n      swap1\n      pop\n      pop\n      pop\n        /* \"traceabilityContract.sol\":1841:1894  index = shopsContract.insertShop(_shopAddress, _data) */\n      swap1\n      pop\n        /* \"traceabilityContract.sol\":1909:1940  LogNewShop(_shopAddress, _data) */\n      0x93eab32f8c5dc356093a926c4d817dbb30fc86a502fabd6e9922f16e5866e574\n        /* \"traceabilityContract.sol\":1920:1932  _shopAddress */\n      dup4\n        /* \"traceabilityContract.sol\":1934:1939  _data */\n      dup4\n        /* \"traceabilityContract.sol\":1909:1940  LogNewShop(_shopAddress, _data) */\n      mload(0x40)\n      dup1\n      dup4\n      0xffffffffffffffffffffffffffffffffffffffff\n      and\n      0xffffffffffffffffffffffffffffffffffffffff\n      and\n      dup2\n      mstore\n      0x20\n      add\n      dup1\n      0x20\n      add\n      dup3\n      dup2\n      sub\n      dup3\n      mstore\n      dup4\n      dup2\n      dup2\n      mload\n      dup2\n      mstore\n      0x20\n      add\n      swap2\n      pop\n      dup1\n      mload\n      swap1\n      0x20\n      add\n      swap1\n      dup1\n      dup4\n      dup4\n        /* \"--CODEGEN--\":23:24   */\n      0x00\n        /* \"--CODEGEN--\":8:108   */\n    tag_178:\n        /* \"--CODEGEN--\":33:36   */\n      dup4\n        /* \"--CODEGEN--\":30:31   */\n      dup2\n        /* \"--CODEGEN--\":27:37   */\n      lt\n        /* \"--CODEGEN--\":8:108   */\n      iszero\n      tag_179\n      jumpi\n        /* \"--CODEGEN--\":99:100   */\n      dup1\n        /* \"--CODEGEN--\":94:97   */\n      dup3\n        /* \"--CODEGEN--\":90:101   */\n      add\n        /* \"--CODEGEN--\":84:102   */\n      mload\n        /* \"--CODEGEN--\":80:81   */\n      dup2\n        /* \"--CODEGEN--\":75:78   */\n      dup5\n        /* \"--CODEGEN--\":71:82   */\n      add\n        /* \"--CODEGEN--\":64:103   */\n      mstore\n        /* \"--CODEGEN--\":52:54   */\n      0x20\n        /* \"--CODEGEN--\":49:50   */\n      dup2\n        /* \"--CODEGEN--\":45:55   */\n      add\n        /* \"--CODEGEN--\":40:55   */\n      swap1\n      pop\n        /* \"--CODEGEN--\":8:108   */\n      jump(tag_178)\n    tag_179:\n        /* \"--CODEGEN--\":12:26   */\n      pop\n        /* \"traceabilityContract.sol\":1909:1940  LogNewShop(_shopAddress, _data) */\n      pop\n      pop\n      pop\n      swap1\n      pop\n      swap1\n      dup2\n      add\n      swap1\n      0x1f\n      and\n      dup1\n      iszero\n      tag_181\n      jumpi\n      dup1\n      dup3\n      sub\n      dup1\n      mload\n      0x01\n      dup4\n      0x20\n      sub\n      0x0100\n      exp\n      sub\n      not\n      and\n      dup2\n      mstore\n      0x20\n      add\n      swap2\n      pop\n    tag_181:\n      pop\n      swap4\n      pop\n      pop\n      pop\n      pop\n      mload(0x40)\n      dup1\n      swap2\n      sub\n      swap1\n      log1\n        /* \"traceabilityContract.sol\":1732:1960  function insertShop(address _shopAddress, string memory _data) public onlyOwner returns(uint index){... */\n      swap3\n      swap2\n      pop\n      pop\n      jump\t// out\n        /* \"traceabilityContract.sol\":2593:3103  function userAttachTransporter(address _transporterAddress) public returns(bool success){... */\n    tag_64:\n        /* \"traceabilityContract.sol\":2668:2680  bool success */\n      0x00\n        /* \"traceabilityContract.sol\":2699:2733  isTransporter(_transporterAddress) */\n      tag_183\n        /* \"traceabilityContract.sol\":2713:2732  _transporterAddress */\n      dup3\n        /* \"traceabilityContract.sol\":2699:2712  isTransporter */\n      tag_35\n        /* \"traceabilityContract.sol\":2699:2733  isTransporter(_transporterAddress) */\n      jump\t// in\n    tag_183:\n        /* \"traceabilityContract.sol\":2691:2778  require(isTransporter(_transporterAddress), \" transporterAddress is not a transporter\") */\n      iszero\n      iszero\n      tag_184\n      jumpi\n      mload(0x40)\n      0x08c379a000000000000000000000000000000000000000000000000000000000\n      dup2\n      mstore\n      0x04\n      add\n      dup1\n      dup1\n      0x20\n      add\n      dup3\n      dup2\n      sub\n      dup3\n      mstore\n      0x28\n      dup2\n      mstore\n      0x20\n      add\n      dup1\n      data_feb68486e21d226af1ab6590b08fb75db8fc9d1417353eede53469d22827c42b\n      0x28\n      swap2\n      codecopy\n      0x40\n      add\n      swap2\n      pop\n      pop\n      mload(0x40)\n      dup1\n      swap2\n      sub\n      swap1\n      revert\n    tag_184:\n        /* \"traceabilityContract.sol\":2809:2831  isProducer(msg.sender) */\n      tag_185\n        /* \"traceabilityContract.sol\":2820:2830  msg.sender */\n      caller\n        /* \"traceabilityContract.sol\":2809:2819  isProducer */\n      tag_67\n        /* \"traceabilityContract.sol\":2809:2831  isProducer(msg.sender) */\n      jump\t// in\n    tag_185:\n        /* \"traceabilityContract.sol\":2809:2840  isProducer(msg.sender) || false */\n      dup1\n      tag_186\n      jumpi\n      pop\n        /* \"traceabilityContract.sol\":2835:2840  false */\n      0x00\n        /* \"traceabilityContract.sol\":2809:2840  isProducer(msg.sender) || false */\n    tag_186:\n        /* \"traceabilityContract.sol\":2788:2952  require(... */\n      iszero\n      iszero\n      tag_187\n      jumpi\n      mload(0x40)\n      0x08c379a000000000000000000000000000000000000000000000000000000000\n      dup2\n      mstore\n      0x04\n      add\n      dup1\n      dup1\n      0x20\n      add\n      dup3\n      dup2\n      sub\n      dup3\n      mstore\n      0x26\n      dup2\n      mstore\n      0x20\n      add\n      dup1\n      data_6f0d14ca8a4f3d4889e7cc5a69588459f736a89902706515af2ae953a27c56ce\n      0x26\n      swap2\n      codecopy\n      0x40\n      add\n      swap2\n      pop\n      pop\n      mload(0x40)\n      dup1\n      swap2\n      sub\n      swap1\n      revert\n    tag_187:\n        /* \"traceabilityContract.sol\":2974:2984  tuContract */\n      0x01\n      0x00\n      swap1\n      sload\n      swap1\n      0x0100\n      exp\n      swap1\n      div\n      0xffffffffffffffffffffffffffffffffffffffff\n      and\n        /* \"traceabilityContract.sol\":2974:2993  tuContract.insertTU */\n      0xffffffffffffffffffffffffffffffffffffffff\n      and\n      0x28d3170a\n        /* \"traceabilityContract.sol\":2994:3013  _transporterAddress */\n      dup4\n        /* \"traceabilityContract.sol\":3015:3025  msg.sender */\n      caller\n        /* \"traceabilityContract.sol\":2974:3026  tuContract.insertTU(_transporterAddress, msg.sender) */\n      mload(0x40)\n      dup4\n      0xffffffff\n      and\n      0x0100000000000000000000000000000000000000000000000000000000\n      mul\n      dup2\n      mstore\n      0x04\n      add\n      dup1\n      dup4\n      0xffffffffffffffffffffffffffffffffffffffff\n      and\n      0xffffffffffffffffffffffffffffffffffffffff\n      and\n      dup2\n      mstore\n      0x20\n      add\n      dup3\n      0xffffffffffffffffffffffffffffffffffffffff\n      and\n      0xffffffffffffffffffffffffffffffffffffffff\n      and\n      dup2\n      mstore\n      0x20\n      add\n      swap3\n      pop\n      pop\n      pop\n      0x20\n      mload(0x40)\n      dup1\n      dup4\n      sub\n      dup2\n      0x00\n      dup8\n      dup1\n      extcodesize\n      iszero\n        /* \"--CODEGEN--\":8:17   */\n      dup1\n        /* \"--CODEGEN--\":5:7   */\n      iszero\n      tag_188\n      jumpi\n        /* \"--CODEGEN--\":30:31   */\n      0x00\n        /* \"--CODEGEN--\":27:28   */\n      dup1\n        /* \"--CODEGEN--\":20:32   */\n      revert\n        /* \"--CODEGEN--\":5:7   */\n    tag_188:\n        /* \"traceabilityContract.sol\":2974:3026  tuContract.insertTU(_transporterAddress, msg.sender) */\n      pop\n      gas\n      call\n      iszero\n        /* \"--CODEGEN--\":8:17   */\n      dup1\n        /* \"--CODEGEN--\":5:7   */\n      iszero\n      tag_189\n      jumpi\n        /* \"--CODEGEN--\":45:61   */\n      returndatasize\n        /* \"--CODEGEN--\":42:43   */\n      0x00\n        /* \"--CODEGEN--\":39:40   */\n      dup1\n        /* \"--CODEGEN--\":24:62   */\n      returndatacopy\n        /* \"--CODEGEN--\":77:93   */\n      returndatasize\n        /* \"--CODEGEN--\":74:75   */\n      0x00\n        /* \"--CODEGEN--\":67:94   */\n      revert\n        /* \"--CODEGEN--\":5:7   */\n    tag_189:\n        /* \"traceabilityContract.sol\":2974:3026  tuContract.insertTU(_transporterAddress, msg.sender) */\n      pop\n      pop\n      pop\n      pop\n      mload(0x40)\n      returndatasize\n        /* \"--CODEGEN--\":13:15   */\n      0x20\n        /* \"--CODEGEN--\":8:11   */\n      dup2\n        /* \"--CODEGEN--\":5:16   */\n      lt\n        /* \"--CODEGEN--\":2:4   */\n      iszero\n      tag_190\n      jumpi\n        /* \"--CODEGEN--\":29:30   */\n      0x00\n        /* \"--CODEGEN--\":26:27   */\n      dup1\n        /* \"--CODEGEN--\":19:31   */\n      revert\n        /* \"--CODEGEN--\":2:4   */\n    tag_190:\n        /* \"traceabilityContract.sol\":2974:3026  tuContract.insertTU(_transporterAddress, msg.sender) */\n      dup2\n      add\n      swap1\n      dup1\n      dup1\n      mload\n      swap1\n      0x20\n      add\n      swap1\n      swap3\n      swap2\n      swap1\n      pop\n      pop\n      pop\n        /* \"traceabilityContract.sol\":2964:3026  success = tuContract.insertTU(_transporterAddress, msg.sender) */\n      swap1\n      pop\n        /* \"traceabilityContract.sol\":3076:3095  _transporterAddress */\n      dup2\n        /* \"traceabilityContract.sol\":3041:3096  LogAttachedTransporter(msg.sender, _transporterAddress) */\n      0xffffffffffffffffffffffffffffffffffffffff\n      and\n        /* \"traceabilityContract.sol\":3064:3074  msg.sender */\n      caller\n        /* \"traceabilityContract.sol\":3041:3096  LogAttachedTransporter(msg.sender, _transporterAddress) */\n      0xffffffffffffffffffffffffffffffffffffffff\n      and\n      0x74011501283de09f5fa60523776c4e4d25fd8304672adac75523c58abb54ddc6\n      mload(0x40)\n      mload(0x40)\n      dup1\n      swap2\n      sub\n      swap1\n      log3\n        /* \"traceabilityContract.sol\":2593:3103  function userAttachTransporter(address _transporterAddress) public returns(bool success){... */\n      swap2\n      swap1\n      pop\n      jump\t// out\n        /* \"traceabilityContract.sol\":1487:1654  function isProducer(address _producerAddress) public view returns(bool isIndeed) {                ... */\n    tag_67:\n        /* \"traceabilityContract.sol\":1553:1566  bool isIndeed */\n      0x00\n        /* \"traceabilityContract.sol\":1601:1618  producersContract */\n      0x02\n      0x00\n      swap1\n      sload\n      swap1\n      0x0100\n      exp\n      swap1\n      div\n      0xffffffffffffffffffffffffffffffffffffffff\n      and\n        /* \"traceabilityContract.sol\":1601:1629  producersContract.isProducer */\n      0xffffffffffffffffffffffffffffffffffffffff\n      and\n      0xf5521022\n        /* \"traceabilityContract.sol\":1630:1646  _producerAddress */\n      dup4\n        /* \"traceabilityContract.sol\":1601:1647  producersContract.isProducer(_producerAddress) */\n      mload(0x40)\n      dup3\n      0xffffffff\n      and\n      0x0100000000000000000000000000000000000000000000000000000000\n      mul\n      dup2\n      mstore\n      0x04\n      add\n      dup1\n      dup3\n      0xffffffffffffffffffffffffffffffffffffffff\n      and\n      0xffffffffffffffffffffffffffffffffffffffff\n      and\n      dup2\n      mstore\n      0x20\n      add\n      swap2\n      pop\n      pop\n      0x20\n      mload(0x40)\n      dup1\n      dup4\n      sub\n      dup2\n      dup7\n      dup1\n      extcodesize\n      iszero\n        /* \"--CODEGEN--\":8:17   */\n      dup1\n        /* \"--CODEGEN--\":5:7   */\n      iszero\n      tag_192\n      jumpi\n        /* \"--CODEGEN--\":30:31   */\n      0x00\n        /* \"--CODEGEN--\":27:28   */\n      dup1\n        /* \"--CODEGEN--\":20:32   */\n      revert\n        /* \"--CODEGEN--\":5:7   */\n    tag_192:\n        /* \"traceabilityContract.sol\":1601:1647  producersContract.isProducer(_producerAddress) */\n      pop\n      gas\n      staticcall\n      iszero\n        /* \"--CODEGEN--\":8:17   */\n      dup1\n        /* \"--CODEGEN--\":5:7   */\n      iszero\n      tag_193\n      jumpi\n        /* \"--CODEGEN--\":45:61   */\n      returndatasize\n        /* \"--CODEGEN--\":42:43   */\n      0x00\n        /* \"--CODEGEN--\":39:40   */\n      dup1\n        /* \"--CODEGEN--\":24:62   */\n      returndatacopy\n        /* \"--CODEGEN--\":77:93   */\n      returndatasize\n        /* \"--CODEGEN--\":74:75   */\n      0x00\n        /* \"--CODEGEN--\":67:94   */\n      revert\n        /* \"--CODEGEN--\":5:7   */\n    tag_193:\n        /* \"traceabilityContract.sol\":1601:1647  producersContract.isProducer(_producerAddress) */\n      pop\n      pop\n      pop\n      pop\n      mload(0x40)\n      returndatasize\n        /* \"--CODEGEN--\":13:15   */\n      0x20\n        /* \"--CODEGEN--\":8:11   */\n      dup2\n        /* \"--CODEGEN--\":5:16   */\n      lt\n        /* \"--CODEGEN--\":2:4   */\n      iszero\n      tag_194\n      jumpi\n        /* \"--CODEGEN--\":29:30   */\n      0x00\n        /* \"--CODEGEN--\":26:27   */\n      dup1\n        /* \"--CODEGEN--\":19:31   */\n      revert\n        /* \"--CODEGEN--\":2:4   */\n    tag_194:\n        /* \"traceabilityContract.sol\":1601:1647  producersContract.isProducer(_producerAddress) */\n      dup2\n      add\n      swap1\n      dup1\n      dup1\n      mload\n      swap1\n      0x20\n      add\n      swap1\n      swap3\n      swap2\n      swap1\n      pop\n      pop\n      pop\n        /* \"traceabilityContract.sol\":1594:1647  return producersContract.isProducer(_producerAddress) */\n      swap1\n      pop\n        /* \"traceabilityContract.sol\":1487:1654  function isProducer(address _producerAddress) public view returns(bool isIndeed) {                ... */\n      swap2\n      swap1\n      pop\n      jump\t// out\n        /* \"traceabilityContract.sol\":3395:3710  function isPendingTransport(address _userAddress, address _transporterAddress, address _assetAddress) ... */\n    tag_76:\n        /* \"traceabilityContract.sol\":3528:3541  bool isIndeed */\n      0x00\n        /* \"traceabilityContract.sol\":3572:3606  isTransporter(_transporterAddress) */\n      tag_196\n        /* \"traceabilityContract.sol\":3586:3605  _transporterAddress */\n      dup4\n        /* \"traceabilityContract.sol\":3572:3585  isTransporter */\n      tag_35\n        /* \"traceabilityContract.sol\":3572:3606  isTransporter(_transporterAddress) */\n      jump\t// in\n    tag_196:\n        /* \"traceabilityContract.sol\":3565:3607  assert(isTransporter(_transporterAddress)) */\n      iszero\n      iszero\n      tag_197\n      jumpi\n      invalid\n    tag_197:\n        /* \"traceabilityContract.sol\":3624:3634  tuContract */\n      0x01\n      0x00\n      swap1\n      sload\n      swap1\n      0x0100\n      exp\n      swap1\n      div\n      0xffffffffffffffffffffffffffffffffffffffff\n      and\n        /* \"traceabilityContract.sol\":3624:3653  tuContract.isPendingTransport */\n      0xffffffffffffffffffffffffffffffffffffffff\n      and\n      0x9eb8452a\n        /* \"traceabilityContract.sol\":3654:3666  _userAddress */\n      dup6\n        /* \"traceabilityContract.sol\":3668:3687  _transporterAddress */\n      dup6\n        /* \"traceabilityContract.sol\":3689:3702  _assetAddress */\n      dup6\n        /* \"traceabilityContract.sol\":3624:3703  tuContract.isPendingTransport(_userAddress, _transporterAddress, _assetAddress) */\n      mload(0x40)\n      dup5\n      0xffffffff\n      and\n      0x0100000000000000000000000000000000000000000000000000000000\n      mul\n      dup2\n      mstore\n      0x04\n      add\n      dup1\n      dup5\n      0xffffffffffffffffffffffffffffffffffffffff\n      and\n      0xffffffffffffffffffffffffffffffffffffffff\n      and\n      dup2\n      mstore\n      0x20\n      add\n      dup4\n      0xffffffffffffffffffffffffffffffffffffffff\n      and\n      0xffffffffffffffffffffffffffffffffffffffff\n      and\n      dup2\n      mstore\n      0x20\n      add\n      dup3\n      0xffffffffffffffffffffffffffffffffffffffff\n      and\n      0xffffffffffffffffffffffffffffffffffffffff\n      and\n      dup2\n      mstore\n      0x20\n      add\n      swap4\n      pop\n      pop\n      pop\n      pop\n      0x20\n      mload(0x40)\n      dup1\n      dup4\n      sub\n      dup2\n      dup7\n      dup1\n      extcodesize\n      iszero\n        /* \"--CODEGEN--\":8:17   */\n      dup1\n        /* \"--CODEGEN--\":5:7   */\n      iszero\n      tag_198\n      jumpi\n        /* \"--CODEGEN--\":30:31   */\n      0x00\n        /* \"--CODEGEN--\":27:28   */\n      dup1\n        /* \"--CODEGEN--\":20:32   */\n      revert\n        /* \"--CODEGEN--\":5:7   */\n    tag_198:\n        /* \"traceabilityContract.sol\":3624:3703  tuContract.isPendingTransport(_userAddress, _transporterAddress, _assetAddress) */\n      pop\n      gas\n      staticcall\n      iszero\n        /* \"--CODEGEN--\":8:17   */\n      dup1\n        /* \"--CODEGEN--\":5:7   */\n      iszero\n      tag_199\n      jumpi\n        /* \"--CODEGEN--\":45:61   */\n      returndatasize\n        /* \"--CODEGEN--\":42:43   */\n      0x00\n        /* \"--CODEGEN--\":39:40   */\n      dup1\n        /* \"--CODEGEN--\":24:62   */\n      returndatacopy\n        /* \"--CODEGEN--\":77:93   */\n      returndatasize\n        /* \"--CODEGEN--\":74:75   */\n      0x00\n        /* \"--CODEGEN--\":67:94   */\n      revert\n        /* \"--CODEGEN--\":5:7   */\n    tag_199:\n        /* \"traceabilityContract.sol\":3624:3703  tuContract.isPendingTransport(_userAddress, _transporterAddress, _assetAddress) */\n      pop\n      pop\n      pop\n      pop\n      mload(0x40)\n      returndatasize\n        /* \"--CODEGEN--\":13:15   */\n      0x20\n        /* \"--CODEGEN--\":8:11   */\n      dup2\n        /* \"--CODEGEN--\":5:16   */\n      lt\n        /* \"--CODEGEN--\":2:4   */\n      iszero\n      tag_200\n      jumpi\n        /* \"--CODEGEN--\":29:30   */\n      0x00\n        /* \"--CODEGEN--\":26:27   */\n      dup1\n        /* \"--CODEGEN--\":19:31   */\n      revert\n        /* \"--CODEGEN--\":2:4   */\n    tag_200:\n        /* \"traceabilityContract.sol\":3624:3703  tuContract.isPendingTransport(_userAddress, _transporterAddress, _assetAddress) */\n      dup2\n      add\n      swap1\n      dup1\n      dup1\n      mload\n      swap1\n      0x20\n      add\n      swap1\n      swap3\n      swap2\n      swap1\n      pop\n      pop\n      pop\n        /* \"traceabilityContract.sol\":3617:3703  return tuContract.isPendingTransport(_userAddress, _transporterAddress, _assetAddress) */\n      swap1\n      pop\n        /* \"traceabilityContract.sol\":3395:3710  function isPendingTransport(address _userAddress, address _transporterAddress, address _assetAddress) ... */\n      swap4\n      swap3\n      pop\n      pop\n      pop\n      jump\t// out\n    stop\n    data_1f20c7958d9f0cd748b8762e2034937c60a5ebea47891fdb7ad0202f0127610b 41737365742069732070656e64696e67207472616e73706f72742066726f6d20616e6f74686572207472616e73706f72746572\n    data_3085316e211e9a084a33d506d08fea02c3a3659f0f8e7025b255bea06ca78344 4f6e6c79207472616e73706f72746572732063616e207374617274207472616e73706f727473\n    data_6f0d14ca8a4f3d4889e7cc5a69588459f736a89902706515af2ae953a27c56ce 53656e646572206973206e6f7420612076616c6964207472616e73706f727465722075736572\n    data_9972cbd7570942969f9940a603338612a7b85c1b18dcf4011df478f476704281 526571756573746572206973206e6f74207468652076616c6964207472616e73706f72746572\n    data_b3386db340692aeb38fbfec616535bed7dd67523ac4deb537607824874941004 4f6e6c79206f776e6572206f66207468652061737365742063616e20726571756573742061207472616e73706f7274\n    data_d7ebdb07604d2f2dfde5e92adb2ec486d1953b2382851f46f6d2c63adec71c70 6f6e6c792073686f70732063616e20726563656976652061207472616e73706f7274\n    data_db6d5f6fd8d243f5ea5478bab3d24275e673984b772b1be1f43af5dc1256953d 4f6e6c792061207472616e73706f727465722063616e2072657175657374207472616e73706f727420656e64\n    data_feb68486e21d226af1ab6590b08fb75db8fc9d1417353eede53469d22827c42b 207472616e73706f7274657241646472657373206973206e6f742061207472616e73706f72746572\n\n    auxdata: 0xa165627a7a72305820d3495679365630e454ae04003a66cc64330972037772a64fd0613045107df6b40029\n}\n\nsub_1: assembly {\n        /* \"transporters_users.sol\":25:5428   */\n      mstore(0x40, 0x80)\n        /* \"transporters_users.sol\":1269:1344   */\n      callvalue\n        /* \"--CODEGEN--\":8:17   */\n      dup1\n        /* \"--CODEGEN--\":5:7   */\n      iszero\n      tag_1\n      jumpi\n        /* \"--CODEGEN--\":30:31   */\n      0x00\n        /* \"--CODEGEN--\":27:28   */\n      dup1\n        /* \"--CODEGEN--\":20:32   */\n      revert\n        /* \"--CODEGEN--\":5:7   */\n    tag_1:\n        /* \"transporters_users.sol\":1269:1344   */\n      pop\n      mload(0x40)\n      0x20\n      dup1\n      bytecodeSize\n      dup4\n      codecopy\n      dup2\n      add\n      dup1\n      0x40\n      mstore\n        /* \"--CODEGEN--\":13:15   */\n      0x20\n        /* \"--CODEGEN--\":8:11   */\n      dup2\n        /* \"--CODEGEN--\":5:16   */\n      lt\n        /* \"--CODEGEN--\":2:4   */\n      iszero\n      tag_2\n      jumpi\n        /* \"--CODEGEN--\":29:30   */\n      0x00\n        /* \"--CODEGEN--\":26:27   */\n      dup1\n        /* \"--CODEGEN--\":19:31   */\n      revert\n        /* \"--CODEGEN--\":2:4   */\n    tag_2:\n        /* \"transporters_users.sol\":1269:1344   */\n      dup2\n      add\n      swap1\n      dup1\n      dup1\n      mload\n      swap1\n      0x20\n      add\n      swap1\n      swap3\n      swap2\n      swap1\n      pop\n      pop\n      pop\n        /* \"transporters_users.sol\":1334:1337   */\n      dup1\n        /* \"transporters_users.sol\":1311:1331   */\n      0x00\n      dup1\n        /* \"transporters_users.sol\":1311:1337   */\n      0x0100\n      exp\n      dup2\n      sload\n      dup2\n      0xffffffffffffffffffffffffffffffffffffffff\n      mul\n      not\n      and\n      swap1\n      dup4\n      0xffffffffffffffffffffffffffffffffffffffff\n      and\n      mul\n      or\n      swap1\n      sstore\n      pop\n        /* \"transporters_users.sol\":1269:1344   */\n      pop\n        /* \"transporters_users.sol\":25:5428   */\n      dataSize(sub_0)\n      dup1\n      dataOffset(sub_0)\n      0x00\n      codecopy\n      0x00\n      return\n    stop\n\n    sub_0: assembly {\n            /* \"transporters_users.sol\":25:5428   */\n          mstore(0x40, 0x80)\n          callvalue\n            /* \"--CODEGEN--\":8:17   */\n          dup1\n            /* \"--CODEGEN--\":5:7   */\n          iszero\n          tag_1\n          jumpi\n            /* \"--CODEGEN--\":30:31   */\n          0x00\n            /* \"--CODEGEN--\":27:28   */\n          dup1\n            /* \"--CODEGEN--\":20:32   */\n          revert\n            /* \"--CODEGEN--\":5:7   */\n        tag_1:\n            /* \"transporters_users.sol\":25:5428   */\n          pop\n          jumpi(tag_2, lt(calldatasize, 0x04))\n          calldataload(0x00)\n          0x0100000000000000000000000000000000000000000000000000000000\n          swap1\n          div\n          dup1\n          0x90097b3c\n          gt\n          tag_10\n          jumpi\n          dup1\n          0x90097b3c\n          eq\n          tag_6\n          jumpi\n          dup1\n          0x9eb8452a\n          eq\n          tag_7\n          jumpi\n          dup1\n          0xd1a08567\n          eq\n          tag_8\n          jumpi\n          dup1\n          0xd8775956\n          eq\n          tag_9\n          jumpi\n          jump(tag_2)\n        tag_10:\n          dup1\n          0x28d3170a\n          eq\n          tag_3\n          jumpi\n          dup1\n          0x365d8226\n          eq\n          tag_4\n          jumpi\n          dup1\n          0x6a20d949\n          eq\n          tag_5\n          jumpi\n        tag_2:\n          0x00\n          dup1\n          revert\n            /* \"transporters_users.sol\":1351:1924   */\n        tag_3:\n          tag_11\n          0x04\n          dup1\n          calldatasize\n          sub\n            /* \"--CODEGEN--\":13:15   */\n          0x40\n            /* \"--CODEGEN--\":8:11   */\n          dup2\n            /* \"--CODEGEN--\":5:16   */\n          lt\n            /* \"--CODEGEN--\":2:4   */\n          iszero\n          tag_12\n          jumpi\n            /* \"--CODEGEN--\":29:30   */\n          0x00\n            /* \"--CODEGEN--\":26:27   */\n          dup1\n            /* \"--CODEGEN--\":19:31   */\n          revert\n            /* \"--CODEGEN--\":2:4   */\n        tag_12:\n            /* \"transporters_users.sol\":1351:1924   */\n          dup2\n          add\n          swap1\n          dup1\n          dup1\n          calldataload\n          0xffffffffffffffffffffffffffffffffffffffff\n          and\n          swap1\n          0x20\n          add\n          swap1\n          swap3\n          swap2\n          swap1\n          dup1\n          calldataload\n          0xffffffffffffffffffffffffffffffffffffffff\n          and\n          swap1\n          0x20\n          add\n          swap1\n          swap3\n          swap2\n          swap1\n          pop\n          pop\n          pop\n          tag_13\n          jump\t// in\n        tag_11:\n          mload(0x40)\n          dup1\n          dup3\n          iszero\n          iszero\n          iszero\n          iszero\n          dup2\n          mstore\n          0x20\n          add\n          swap2\n          pop\n          pop\n          mload(0x40)\n          dup1\n          swap2\n          sub\n          swap1\n          return\n            /* \"transporters_users.sol\":4421:4659   */\n        tag_4:\n          tag_14\n          0x04\n          dup1\n          calldatasize\n          sub\n            /* \"--CODEGEN--\":13:15   */\n          0x60\n            /* \"--CODEGEN--\":8:11   */\n          dup2\n            /* \"--CODEGEN--\":5:16   */\n          lt\n            /* \"--CODEGEN--\":2:4   */\n          iszero\n          tag_15\n          jumpi\n            /* \"--CODEGEN--\":29:30   */\n          0x00\n            /* \"--CODEGEN--\":26:27   */\n          dup1\n            /* \"--CODEGEN--\":19:31   */\n          revert\n            /* \"--CODEGEN--\":2:4   */\n        tag_15:\n            /* \"transporters_users.sol\":4421:4659   */\n          dup2\n          add\n          swap1\n          dup1\n          dup1\n          calldataload\n          0xffffffffffffffffffffffffffffffffffffffff\n          and\n          swap1\n          0x20\n          add\n          swap1\n          swap3\n          swap2\n          swap1\n          dup1\n          calldataload\n          0xffffffffffffffffffffffffffffffffffffffff\n          and\n          swap1\n          0x20\n          add\n          swap1\n          swap3\n          swap2\n          swap1\n          dup1\n          calldataload\n          0xffffffffffffffffffffffffffffffffffffffff\n          and\n          swap1\n          0x20\n          add\n          swap1\n          swap3\n          swap2\n          swap1\n          pop\n          pop\n          pop\n          tag_16\n          jump\t// in\n        tag_14:\n          mload(0x40)\n          dup1\n          dup3\n          0xffffffffffffffffffffffffffffffffffffffff\n          and\n          0xffffffffffffffffffffffffffffffffffffffff\n          and\n          dup2\n          mstore\n          0x20\n          add\n          swap2\n          pop\n          pop\n          mload(0x40)\n          dup1\n          swap2\n          sub\n          swap1\n          return\n            /* \"transporters_users.sol\":4665:5426   */\n        tag_5:\n          tag_17\n          0x04\n          dup1\n          calldatasize\n          sub\n            /* \"--CODEGEN--\":13:15   */\n          0x60\n            /* \"--CODEGEN--\":8:11   */\n          dup2\n            /* \"--CODEGEN--\":5:16   */\n          lt\n            /* \"--CODEGEN--\":2:4   */\n          iszero\n          tag_18\n          jumpi\n            /* \"--CODEGEN--\":29:30   */\n          0x00\n            /* \"--CODEGEN--\":26:27   */\n          dup1\n            /* \"--CODEGEN--\":19:31   */\n          revert\n            /* \"--CODEGEN--\":2:4   */\n        tag_18:\n            /* \"transporters_users.sol\":4665:5426   */\n          dup2\n          add\n          swap1\n          dup1\n          dup1\n          calldataload\n          0xffffffffffffffffffffffffffffffffffffffff\n          and\n          swap1\n          0x20\n          add\n          swap1\n          swap3\n          swap2\n          swap1\n          dup1\n          calldataload\n          0xffffffffffffffffffffffffffffffffffffffff\n          and\n          swap1\n          0x20\n          add\n          swap1\n          swap3\n          swap2\n          swap1\n          dup1\n          calldataload\n          0xffffffffffffffffffffffffffffffffffffffff\n          and\n          swap1\n          0x20\n          add\n          swap1\n          swap3\n          swap2\n          swap1\n          pop\n          pop\n          pop\n          tag_19\n          jump\t// in\n        tag_17:\n          stop\n            /* \"transporters_users.sol\":2494:3448   */\n        tag_6:\n          tag_20\n          0x04\n          dup1\n          calldatasize\n          sub\n            /* \"--CODEGEN--\":13:16   */\n          0x80\n            /* \"--CODEGEN--\":8:11   */\n          dup2\n            /* \"--CODEGEN--\":5:17   */\n          lt\n            /* \"--CODEGEN--\":2:4   */\n          iszero\n          tag_21\n          jumpi\n            /* \"--CODEGEN--\":30:31   */\n          0x00\n            /* \"--CODEGEN--\":27:28   */\n          dup1\n            /* \"--CODEGEN--\":20:32   */\n          revert\n            /* \"--CODEGEN--\":2:4   */\n        tag_21:\n            /* \"transporters_users.sol\":2494:3448   */\n          dup2\n          add\n          swap1\n          dup1\n          dup1\n          calldataload\n          0xffffffffffffffffffffffffffffffffffffffff\n          and\n          swap1\n          0x20\n          add\n          swap1\n          swap3\n          swap2\n          swap1\n          dup1\n          calldataload\n          0xffffffffffffffffffffffffffffffffffffffff\n          and\n          swap1\n          0x20\n          add\n          swap1\n          swap3\n          swap2\n          swap1\n          dup1\n          calldataload\n          0xffffffffffffffffffffffffffffffffffffffff\n          and\n          swap1\n          0x20\n          add\n          swap1\n          swap3\n          swap2\n          swap1\n          dup1\n          calldataload\n          0xffffffffffffffffffffffffffffffffffffffff\n          and\n          swap1\n          0x20\n          add\n          swap1\n          swap3\n          swap2\n          swap1\n          pop\n          pop\n          pop\n          tag_22\n          jump\t// in\n        tag_20:\n          mload(0x40)\n          dup1\n          dup3\n          iszero\n          iszero\n          iszero\n          iszero\n          dup2\n          mstore\n          0x20\n          add\n          swap2\n          pop\n          pop\n          mload(0x40)\n          dup1\n          swap2\n          sub\n          swap1\n          return\n            /* \"transporters_users.sol\":2144:2488   */\n        tag_7:\n          tag_23\n          0x04\n          dup1\n          calldatasize\n          sub\n            /* \"--CODEGEN--\":13:15   */\n          0x60\n            /* \"--CODEGEN--\":8:11   */\n          dup2\n            /* \"--CODEGEN--\":5:16   */\n          lt\n            /* \"--CODEGEN--\":2:4   */\n          iszero\n          tag_24\n          jumpi\n            /* \"--CODEGEN--\":29:30   */\n          0x00\n            /* \"--CODEGEN--\":26:27   */\n          dup1\n            /* \"--CODEGEN--\":19:31   */\n          revert\n            /* \"--CODEGEN--\":2:4   */\n        tag_24:\n            /* \"transporters_users.sol\":2144:2488   */\n          dup2\n          add\n          swap1\n          dup1\n          dup1\n          calldataload\n          0xffffffffffffffffffffffffffffffffffffffff\n          and\n          swap1\n          0x20\n          add\n          swap1\n          swap3\n          swap2\n          swap1\n          dup1\n          calldataload\n          0xffffffffffffffffffffffffffffffffffffffff\n          and\n          swap1\n          0x20\n          add\n          swap1\n          swap3\n          swap2\n          swap1\n          dup1\n          calldataload\n          0xffffffffffffffffffffffffffffffffffffffff\n          and\n          swap1\n          0x20\n          add\n          swap1\n          swap3\n          swap2\n          swap1\n          pop\n          pop\n          pop\n          tag_25\n          jump\t// in\n        tag_23:\n          mload(0x40)\n          dup1\n          dup3\n          iszero\n          iszero\n          iszero\n          iszero\n          dup2\n          mstore\n          0x20\n          add\n          swap2\n          pop\n          pop\n          mload(0x40)\n          dup1\n          swap2\n          sub\n          swap1\n          return\n            /* \"transporters_users.sol\":1930:2138   */\n        tag_8:\n          tag_26\n          0x04\n          dup1\n          calldatasize\n          sub\n            /* \"--CODEGEN--\":13:15   */\n          0x40\n            /* \"--CODEGEN--\":8:11   */\n          dup2\n            /* \"--CODEGEN--\":5:16   */\n          lt\n            /* \"--CODEGEN--\":2:4   */\n          iszero\n          tag_27\n          jumpi\n            /* \"--CODEGEN--\":29:30   */\n          0x00\n            /* \"--CODEGEN--\":26:27   */\n          dup1\n            /* \"--CODEGEN--\":19:31   */\n          revert\n            /* \"--CODEGEN--\":2:4   */\n        tag_27:\n            /* \"transporters_users.sol\":1930:2138   */\n          dup2\n          add\n          swap1\n          dup1\n          dup1\n          calldataload\n          0xffffffffffffffffffffffffffffffffffffffff\n          and\n          swap1\n          0x20\n          add\n          swap1\n          swap3\n          swap2\n          swap1\n          dup1\n          calldataload\n          0xffffffffffffffffffffffffffffffffffffffff\n          and\n          swap1\n          0x20\n          add\n          swap1\n          swap3\n          swap2\n          swap1\n          pop\n          pop\n          pop\n          tag_28\n          jump\t// in\n        tag_26:\n          mload(0x40)\n          dup1\n          dup3\n          iszero\n          iszero\n          iszero\n          iszero\n          dup2\n          mstore\n          0x20\n          add\n          swap2\n          pop\n          pop\n          mload(0x40)\n          dup1\n          swap2\n          sub\n          swap1\n          return\n            /* \"transporters_users.sol\":3454:4415   */\n        tag_9:\n          tag_29\n          0x04\n          dup1\n          calldatasize\n          sub\n            /* \"--CODEGEN--\":13:15   */\n          0x60\n            /* \"--CODEGEN--\":8:11   */\n          dup2\n            /* \"--CODEGEN--\":5:16   */\n          lt\n            /* \"--CODEGEN--\":2:4   */\n          iszero\n          tag_30\n          jumpi\n            /* \"--CODEGEN--\":29:30   */\n          0x00\n            /* \"--CODEGEN--\":26:27   */\n          dup1\n            /* \"--CODEGEN--\":19:31   */\n          revert\n            /* \"--CODEGEN--\":2:4   */\n        tag_30:\n            /* \"transporters_users.sol\":3454:4415   */\n          dup2\n          add\n          swap1\n          dup1\n          dup1\n          calldataload\n          0xffffffffffffffffffffffffffffffffffffffff\n          and\n          swap1\n          0x20\n          add\n          swap1\n          swap3\n          swap2\n          swap1\n          dup1\n          calldataload\n          0xffffffffffffffffffffffffffffffffffffffff\n          and\n          swap1\n          0x20\n          add\n          swap1\n          swap3\n          swap2\n          swap1\n          dup1\n          calldataload\n          0xffffffffffffffffffffffffffffffffffffffff\n          and\n          swap1\n          0x20\n          add\n          swap1\n          swap3\n          swap2\n          swap1\n          pop\n          pop\n          pop\n          tag_31\n          jump\t// in\n        tag_29:\n          stop\n            /* \"transporters_users.sol\":1351:1924   */\n        tag_13:\n            /* \"transporters_users.sol\":1436:1448   */\n          0x00\n            /* \"transporters_users.sol\":1468:1522   */\n          tag_33\n            /* \"transporters_users.sol\":1488:1507   */\n          dup4\n            /* \"transporters_users.sol\":1509:1521   */\n          dup4\n            /* \"transporters_users.sol\":1468:1487   */\n          tag_28\n            /* \"transporters_users.sol\":1468:1522   */\n          jump\t// in\n        tag_33:\n            /* \"transporters_users.sol\":1467:1522   */\n          iszero\n            /* \"transporters_users.sol\":1459:1553   */\n          iszero\n          iszero\n          tag_34\n          jumpi\n          mload(0x40)\n          0x08c379a000000000000000000000000000000000000000000000000000000000\n          dup2\n          mstore\n          0x04\n          add\n          dup1\n          dup1\n          0x20\n          add\n          dup3\n          dup2\n          sub\n          dup3\n          mstore\n          0x1a\n          dup2\n          mstore\n          0x20\n          add\n          dup1\n          0x4173736f63696174696f6e20616c726561647920657869737473000000000000\n          dup2\n          mstore\n          pop\n          0x20\n          add\n          swap2\n          pop\n          pop\n          mload(0x40)\n          dup1\n          swap2\n          sub\n          swap1\n          revert\n        tag_34:\n            /* \"transporters_users.sol\":1565:1592   */\n          0x00\n            /* \"transporters_users.sol\":1595:1603   */\n          0x01\n            /* \"transporters_users.sol\":1595:1624   */\n          0x00\n            /* \"transporters_users.sol\":1604:1623   */\n          dup6\n            /* \"transporters_users.sol\":1595:1624   */\n          0xffffffffffffffffffffffffffffffffffffffff\n          and\n          0xffffffffffffffffffffffffffffffffffffffff\n          and\n          dup2\n          mstore\n          0x20\n          add\n          swap1\n          dup2\n          mstore\n          0x20\n          add\n          0x00\n          keccak256\n            /* \"transporters_users.sol\":1595:1638   */\n          0x00\n            /* \"transporters_users.sol\":1625:1637   */\n          dup5\n            /* \"transporters_users.sol\":1595:1638   */\n          0xffffffffffffffffffffffffffffffffffffffff\n          and\n          0xffffffffffffffffffffffffffffffffffffffff\n          and\n          dup2\n          mstore\n          0x20\n          add\n          swap1\n          dup2\n          mstore\n          0x20\n          add\n          0x00\n          keccak256\n            /* \"transporters_users.sol\":1565:1638   */\n          swap1\n          pop\n            /* \"transporters_users.sol\":1665:1684   */\n          dup4\n            /* \"transporters_users.sol\":1648:1650   */\n          dup2\n            /* \"transporters_users.sol\":1648:1662   */\n          0x00\n          add\n          0x00\n            /* \"transporters_users.sol\":1648:1684   */\n          0x0100\n          exp\n          dup2\n          sload\n          dup2\n          0xffffffffffffffffffffffffffffffffffffffff\n          mul\n          not\n          and\n          swap1\n          dup4\n          0xffffffffffffffffffffffffffffffffffffffff\n          and\n          mul\n          or\n          swap1\n          sstore\n          pop\n            /* \"transporters_users.sol\":1704:1716   */\n          dup3\n            /* \"transporters_users.sol\":1694:1696   */\n          dup2\n            /* \"transporters_users.sol\":1694:1701   */\n          0x01\n          add\n          0x00\n            /* \"transporters_users.sol\":1694:1716   */\n          0x0100\n          exp\n          dup2\n          sload\n          dup2\n          0xffffffffffffffffffffffffffffffffffffffff\n          mul\n          not\n          and\n          swap1\n          dup4\n          0xffffffffffffffffffffffffffffffffffffffff\n          and\n          mul\n          or\n          swap1\n          sstore\n          pop\n            /* \"transporters_users.sol\":1750:1769   */\n          0x02\n            /* \"transporters_users.sol\":1750:1790   */\n          0x00\n            /* \"transporters_users.sol\":1770:1789   */\n          dup6\n            /* \"transporters_users.sol\":1750:1790   */\n          0xffffffffffffffffffffffffffffffffffffffff\n          and\n          0xffffffffffffffffffffffffffffffffffffffff\n          and\n          dup2\n          mstore\n          0x20\n          add\n          swap1\n          dup2\n          mstore\n          0x20\n          add\n          0x00\n          keccak256\n            /* \"transporters_users.sol\":1796:1808   */\n          dup4\n            /* \"transporters_users.sol\":1750:1809   */\n          swap1\n          dup1\n            /* \"--CODEGEN--\":39:40   */\n          0x01\n            /* \"--CODEGEN--\":33:36   */\n          dup2\n            /* \"--CODEGEN--\":27:37   */\n          sload\n            /* \"--CODEGEN--\":23:41   */\n          add\n            /* \"--CODEGEN--\":57:67   */\n          dup1\n            /* \"--CODEGEN--\":52:55   */\n          dup3\n            /* \"--CODEGEN--\":45:68   */\n          sstore\n            /* \"--CODEGEN--\":79:89   */\n          dup1\n            /* \"--CODEGEN--\":72:89   */\n          swap2\n          pop\n            /* \"--CODEGEN--\":0:93   */\n          pop\n            /* \"transporters_users.sol\":1750:1809   */\n          swap1\n          0x01\n          dup3\n          sub\n          swap1\n          0x00\n          mstore\n          keccak256(0x00, 0x20)\n          add\n          0x00\n          swap1\n          swap2\n          swap3\n          swap1\n          swap2\n          swap1\n          swap2\n          0x0100\n          exp\n          dup2\n          sload\n          dup2\n          0xffffffffffffffffffffffffffffffffffffffff\n          mul\n          not\n          and\n          swap1\n          dup4\n          0xffffffffffffffffffffffffffffffffffffffff\n          and\n          mul\n          or\n          swap1\n          sstore\n          pop\n            /* \"transporters_users.sol\":1726:1728   */\n          dup2\n            /* \"transporters_users.sol\":1726:1747   */\n          0x02\n          add\n            /* \"transporters_users.sol\":1726:1809   */\n          dup2\n          swap1\n          sstore\n          pop\n            /* \"transporters_users.sol\":1836:1855   */\n          0x02\n            /* \"transporters_users.sol\":1836:1869   */\n          0x00\n            /* \"transporters_users.sol\":1856:1868   */\n          dup5\n            /* \"transporters_users.sol\":1836:1869   */\n          0xffffffffffffffffffffffffffffffffffffffff\n          and\n          0xffffffffffffffffffffffffffffffffffffffff\n          and\n          dup2\n          mstore\n          0x20\n          add\n          swap1\n          dup2\n          mstore\n          0x20\n          add\n          0x00\n          keccak256\n            /* \"transporters_users.sol\":1875:1894   */\n          dup5\n            /* \"transporters_users.sol\":1836:1895   */\n          swap1\n          dup1\n            /* \"--CODEGEN--\":39:40   */\n          0x01\n            /* \"--CODEGEN--\":33:36   */\n          dup2\n            /* \"--CODEGEN--\":27:37   */\n          sload\n            /* \"--CODEGEN--\":23:41   */\n          add\n            /* \"--CODEGEN--\":57:67   */\n          dup1\n            /* \"--CODEGEN--\":52:55   */\n          dup3\n            /* \"--CODEGEN--\":45:68   */\n          sstore\n            /* \"--CODEGEN--\":79:89   */\n          dup1\n            /* \"--CODEGEN--\":72:89   */\n          swap2\n          pop\n            /* \"--CODEGEN--\":0:93   */\n          pop\n            /* \"transporters_users.sol\":1836:1895   */\n          swap1\n          0x01\n          dup3\n          sub\n          swap1\n          0x00\n          mstore\n          keccak256(0x00, 0x20)\n          add\n          0x00\n          swap1\n          swap2\n          swap3\n          swap1\n          swap2\n          swap1\n          swap2\n          0x0100\n          exp\n          dup2\n          sload\n          dup2\n          0xffffffffffffffffffffffffffffffffffffffff\n          mul\n          not\n          and\n          swap1\n          dup4\n          0xffffffffffffffffffffffffffffffffffffffff\n          and\n          mul\n          or\n          swap1\n          sstore\n          pop\n            /* \"transporters_users.sol\":1819:1821   */\n          dup2\n            /* \"transporters_users.sol\":1819:1833   */\n          0x03\n          add\n            /* \"transporters_users.sol\":1819:1895   */\n          dup2\n          swap1\n          sstore\n          pop\n            /* \"transporters_users.sol\":1913:1917   */\n          0x01\n            /* \"transporters_users.sol\":1906:1917   */\n          swap2\n          pop\n          pop\n            /* \"transporters_users.sol\":1351:1924   */\n          swap3\n          swap2\n          pop\n          pop\n          jump\t// out\n            /* \"transporters_users.sol\":4421:4659   */\n        tag_16:\n            /* \"transporters_users.sol\":4546:4556   */\n          0x00\n            /* \"transporters_users.sol\":4574:4582   */\n          0x01\n            /* \"transporters_users.sol\":4574:4603   */\n          0x00\n            /* \"transporters_users.sol\":4583:4602   */\n          dup5\n            /* \"transporters_users.sol\":4574:4603   */\n          0xffffffffffffffffffffffffffffffffffffffff\n          and\n          0xffffffffffffffffffffffffffffffffffffffff\n          and\n          dup2\n          mstore\n          0x20\n          add\n          swap1\n          dup2\n          mstore\n          0x20\n          add\n          0x00\n          keccak256\n            /* \"transporters_users.sol\":4574:4617   */\n          0x00\n            /* \"transporters_users.sol\":4604:4616   */\n          dup6\n            /* \"transporters_users.sol\":4574:4617   */\n          0xffffffffffffffffffffffffffffffffffffffff\n          and\n          0xffffffffffffffffffffffffffffffffffffffff\n          and\n          dup2\n          mstore\n          0x20\n          add\n          swap1\n          dup2\n          mstore\n          0x20\n          add\n          0x00\n          keccak256\n            /* \"transporters_users.sol\":4574:4634   */\n          0x06\n          add\n            /* \"transporters_users.sol\":4574:4649   */\n          0x00\n            /* \"transporters_users.sol\":4635:4648   */\n          dup4\n            /* \"transporters_users.sol\":4574:4649   */\n          0xffffffffffffffffffffffffffffffffffffffff\n          and\n          0xffffffffffffffffffffffffffffffffffffffff\n          and\n          dup2\n          mstore\n          0x20\n          add\n          swap1\n          dup2\n          mstore\n          0x20\n          add\n          0x00\n          keccak256\n            /* \"transporters_users.sol\":4574:4652   */\n          0x03\n          add\n          0x00\n          swap1\n          sload\n          swap1\n          0x0100\n          exp\n          swap1\n          div\n          0xffffffffffffffffffffffffffffffffffffffff\n          and\n            /* \"transporters_users.sol\":4567:4652   */\n          swap1\n          pop\n            /* \"transporters_users.sol\":4421:4659   */\n          swap4\n          swap3\n          pop\n          pop\n          pop\n          jump\t// out\n            /* \"transporters_users.sol\":4665:5426   */\n        tag_19:\n            /* \"transporters_users.sol\":4802:4822   */\n          0x00\n          dup1\n          swap1\n          sload\n          swap1\n          0x0100\n          exp\n          swap1\n          div\n          0xffffffffffffffffffffffffffffffffffffffff\n          and\n            /* \"transporters_users.sol\":4788:4822   */\n          0xffffffffffffffffffffffffffffffffffffffff\n          and\n            /* \"transporters_users.sol\":4788:4798   */\n          caller\n            /* \"transporters_users.sol\":4788:4822   */\n          0xffffffffffffffffffffffffffffffffffffffff\n          and\n          eq\n            /* \"transporters_users.sol\":4780:4851   */\n          iszero\n          iszero\n          tag_39\n          jumpi\n          mload(0x40)\n          0x08c379a000000000000000000000000000000000000000000000000000000000\n          dup2\n          mstore\n          0x04\n          add\n          dup1\n          dup1\n          0x20\n          add\n          dup3\n          dup2\n          sub\n          dup3\n          mstore\n          0x18\n          dup2\n          mstore\n          0x20\n          add\n          dup1\n          0x6f6e6c792054432063616e20646f20746869732063616c6c0000000000000000\n          dup2\n          mstore\n          pop\n          0x20\n          add\n          swap2\n          pop\n          pop\n          mload(0x40)\n          dup1\n          swap2\n          sub\n          swap1\n          revert\n        tag_39:\n            /* \"transporters_users.sol\":4862:4900   */\n          0x00\n            /* \"transporters_users.sol\":4903:4911   */\n          0x01\n            /* \"transporters_users.sol\":4903:4932   */\n          0x00\n            /* \"transporters_users.sol\":4912:4931   */\n          dup5\n            /* \"transporters_users.sol\":4903:4932   */\n          0xffffffffffffffffffffffffffffffffffffffff\n          and\n          0xffffffffffffffffffffffffffffffffffffffff\n          and\n          dup2\n          mstore\n          0x20\n          add\n          swap1\n          dup2\n          mstore\n          0x20\n          add\n          0x00\n          keccak256\n            /* \"transporters_users.sol\":4903:4946   */\n          0x00\n            /* \"transporters_users.sol\":4933:4945   */\n          dup6\n            /* \"transporters_users.sol\":4903:4946   */\n          0xffffffffffffffffffffffffffffffffffffffff\n          and\n          0xffffffffffffffffffffffffffffffffffffffff\n          and\n          dup2\n          mstore\n          0x20\n          add\n          swap1\n          dup2\n          mstore\n          0x20\n          add\n          0x00\n          keccak256\n            /* \"transporters_users.sol\":4903:4967   */\n          0x07\n          add\n            /* \"transporters_users.sol\":4862:4967   */\n          swap1\n          pop\n            /* \"transporters_users.sol\":4977:4996   */\n          0x00\n            /* \"transporters_users.sol\":4999:5007   */\n          0x01\n            /* \"transporters_users.sol\":4999:5028   */\n          0x00\n            /* \"transporters_users.sol\":5008:5027   */\n          dup6\n            /* \"transporters_users.sol\":4999:5028   */\n          0xffffffffffffffffffffffffffffffffffffffff\n          and\n          0xffffffffffffffffffffffffffffffffffffffff\n          and\n          dup2\n          mstore\n          0x20\n          add\n          swap1\n          dup2\n          mstore\n          0x20\n          add\n          0x00\n          keccak256\n            /* \"transporters_users.sol\":4999:5042   */\n          0x00\n            /* \"transporters_users.sol\":5029:5041   */\n          dup7\n            /* \"transporters_users.sol\":4999:5042   */\n          0xffffffffffffffffffffffffffffffffffffffff\n          and\n          0xffffffffffffffffffffffffffffffffffffffff\n          and\n          dup2\n          mstore\n          0x20\n          add\n          swap1\n          dup2\n          mstore\n          0x20\n          add\n          0x00\n          keccak256\n            /* \"transporters_users.sol\":4999:5059   */\n          0x06\n          add\n            /* \"transporters_users.sol\":4999:5074   */\n          0x00\n            /* \"transporters_users.sol\":5060:5073   */\n          dup5\n            /* \"transporters_users.sol\":4999:5074   */\n          0xffffffffffffffffffffffffffffffffffffffff\n          and\n          0xffffffffffffffffffffffffffffffffffffffff\n          and\n          dup2\n          mstore\n          0x20\n          add\n          swap1\n          dup2\n          mstore\n          0x20\n          add\n          0x00\n          keccak256\n            /* \"transporters_users.sol\":4977:5074   */\n          swap1\n          pop\n            /* \"transporters_users.sol\":5113:5129   */\n          0x00\n            /* \"transporters_users.sol\":5132:5133   */\n          dup2\n            /* \"transporters_users.sol\":5132:5139   */\n          0x01\n          add\n          sload\n            /* \"transporters_users.sol\":5113:5139   */\n          swap1\n          pop\n            /* \"transporters_users.sol\":5149:5166   */\n          0x00\n            /* \"transporters_users.sol\":5169:5189   */\n          dup4\n            /* \"transporters_users.sol\":5220:5221   */\n          0x01\n            /* \"transporters_users.sol\":5190:5210   */\n          dup6\n            /* \"transporters_users.sol\":5190:5217   */\n          dup1\n          sload\n          swap1\n          pop\n            /* \"transporters_users.sol\":5190:5221   */\n          sub\n            /* \"transporters_users.sol\":5169:5222   */\n          dup2\n          sload\n          dup2\n          lt\n          iszero\n          iszero\n          tag_40\n          jumpi\n          invalid\n        tag_40:\n          swap1\n          0x00\n          mstore\n          keccak256(0x00, 0x20)\n          add\n          0x00\n          swap1\n          sload\n          swap1\n          0x0100\n          exp\n          swap1\n          div\n          0xffffffffffffffffffffffffffffffffffffffff\n          and\n            /* \"transporters_users.sol\":5149:5222   */\n          swap1\n          pop\n            /* \"transporters_users.sol\":5269:5278   */\n          dup1\n            /* \"transporters_users.sol\":5233:5253   */\n          dup5\n            /* \"transporters_users.sol\":5254:5265   */\n          dup4\n            /* \"transporters_users.sol\":5233:5266   */\n          dup2\n          sload\n          dup2\n          lt\n          iszero\n          iszero\n          tag_42\n          jumpi\n          invalid\n        tag_42:\n          swap1\n          0x00\n          mstore\n          keccak256(0x00, 0x20)\n          add\n          0x00\n            /* \"transporters_users.sol\":5233:5278   */\n          0x0100\n          exp\n          dup2\n          sload\n          dup2\n          0xffffffffffffffffffffffffffffffffffffffff\n          mul\n          not\n          and\n          swap1\n          dup4\n          0xffffffffffffffffffffffffffffffffffffffff\n          and\n          mul\n          or\n          swap1\n          sstore\n          pop\n            /* \"transporters_users.sol\":5368:5379   */\n          dup2\n            /* \"transporters_users.sol\":5288:5296   */\n          0x01\n            /* \"transporters_users.sol\":5288:5317   */\n          0x00\n            /* \"transporters_users.sol\":5297:5316   */\n          dup9\n            /* \"transporters_users.sol\":5288:5317   */\n          0xffffffffffffffffffffffffffffffffffffffff\n          and\n          0xffffffffffffffffffffffffffffffffffffffff\n          and\n          dup2\n          mstore\n          0x20\n          add\n          swap1\n          dup2\n          mstore\n          0x20\n          add\n          0x00\n          keccak256\n            /* \"transporters_users.sol\":5288:5331   */\n          0x00\n            /* \"transporters_users.sol\":5318:5330   */\n          dup10\n            /* \"transporters_users.sol\":5288:5331   */\n          0xffffffffffffffffffffffffffffffffffffffff\n          and\n          0xffffffffffffffffffffffffffffffffffffffff\n          and\n          dup2\n          mstore\n          0x20\n          add\n          swap1\n          dup2\n          mstore\n          0x20\n          add\n          0x00\n          keccak256\n            /* \"transporters_users.sol\":5288:5348   */\n          0x06\n          add\n            /* \"transporters_users.sol\":5288:5359   */\n          0x00\n            /* \"transporters_users.sol\":5349:5358   */\n          dup4\n            /* \"transporters_users.sol\":5288:5359   */\n          0xffffffffffffffffffffffffffffffffffffffff\n          and\n          0xffffffffffffffffffffffffffffffffffffffff\n          and\n          dup2\n          mstore\n          0x20\n          add\n          swap1\n          dup2\n          mstore\n          0x20\n          add\n          0x00\n          keccak256\n            /* \"transporters_users.sol\":5288:5365   */\n          0x01\n          add\n            /* \"transporters_users.sol\":5288:5379   */\n          dup2\n          swap1\n          sstore\n          pop\n            /* \"transporters_users.sol\":5389:5409   */\n          dup4\n            /* \"transporters_users.sol\":5389:5419   */\n          dup1\n          sload\n          dup1\n          swap2\n          swap1\n          0x01\n          swap1\n          sub\n          tag_44\n          swap2\n          swap1\n          tag_45\n          jump\t// in\n        tag_44:\n          pop\n            /* \"transporters_users.sol\":4665:5426   */\n          pop\n          pop\n          pop\n          pop\n          pop\n          pop\n          pop\n          jump\t// out\n            /* \"transporters_users.sol\":2494:3448   */\n        tag_22:\n            /* \"transporters_users.sol\":2659:2671   */\n          0x00\n            /* \"transporters_users.sol\":2712:2732   */\n          dup1\n          0x00\n          swap1\n          sload\n          swap1\n          0x0100\n          exp\n          swap1\n          div\n          0xffffffffffffffffffffffffffffffffffffffff\n          and\n            /* \"transporters_users.sol\":2698:2732   */\n          0xffffffffffffffffffffffffffffffffffffffff\n          and\n            /* \"transporters_users.sol\":2698:2708   */\n          caller\n            /* \"transporters_users.sol\":2698:2732   */\n          0xffffffffffffffffffffffffffffffffffffffff\n          and\n          eq\n            /* \"transporters_users.sol\":2690:2761   */\n          iszero\n          iszero\n          tag_47\n          jumpi\n          mload(0x40)\n          0x08c379a000000000000000000000000000000000000000000000000000000000\n          dup2\n          mstore\n          0x04\n          add\n          dup1\n          dup1\n          0x20\n          add\n          dup3\n          dup2\n          sub\n          dup3\n          mstore\n          0x18\n          dup2\n          mstore\n          0x20\n          add\n          dup1\n          0x6f6e6c792054432063616e20646f20746869732063616c6c0000000000000000\n          dup2\n          mstore\n          pop\n          0x20\n          add\n          swap2\n          pop\n          pop\n          mload(0x40)\n          dup1\n          swap2\n          sub\n          swap1\n          revert\n        tag_47:\n            /* \"transporters_users.sol\":2848:2852   */\n          0x01\n            /* \"transporters_users.sol\":2792:2852   */\n          iszero\n          iszero\n            /* \"transporters_users.sol\":2792:2844   */\n          tag_48\n            /* \"transporters_users.sol\":2812:2831   */\n          dup5\n            /* \"transporters_users.sol\":2833:2843   */\n          caller\n            /* \"transporters_users.sol\":2792:2811   */\n          tag_28\n            /* \"transporters_users.sol\":2792:2844   */\n          jump\t// in\n        tag_48:\n            /* \"transporters_users.sol\":2792:2852   */\n          iszero\n          iszero\n          eq\n            /* \"transporters_users.sol\":2771:2923   */\n          iszero\n          iszero\n          tag_49\n          jumpi\n          mload(0x40)\n          0x08c379a000000000000000000000000000000000000000000000000000000000\n          dup2\n          mstore\n          0x04\n          add\n          dup1\n          dup1\n          0x20\n          add\n          dup3\n          dup2\n          sub\n          dup3\n          mstore\n          0x2c\n          dup2\n          mstore\n          0x20\n          add\n          dup1\n          data_314a78c46bcdb0b036fee4186417aed0f0dec006f476c7b3a487e66fa99a6b2e\n          0x2c\n          swap2\n          codecopy\n          0x40\n          add\n          swap2\n          pop\n          pop\n          mload(0x40)\n          dup1\n          swap2\n          sub\n          swap1\n          revert\n        tag_49:\n            /* \"transporters_users.sol\":3005:3032   */\n          0x00\n            /* \"transporters_users.sol\":3035:3043   */\n          0x01\n            /* \"transporters_users.sol\":3035:3064   */\n          0x00\n            /* \"transporters_users.sol\":3044:3063   */\n          dup6\n            /* \"transporters_users.sol\":3035:3064   */\n          0xffffffffffffffffffffffffffffffffffffffff\n          and\n          0xffffffffffffffffffffffffffffffffffffffff\n          and\n          dup2\n          mstore\n          0x20\n          add\n          swap1\n          dup2\n          mstore\n          0x20\n          add\n          0x00\n          keccak256\n            /* \"transporters_users.sol\":3035:3078   */\n          0x00\n            /* \"transporters_users.sol\":3065:3077   */\n          dup8\n            /* \"transporters_users.sol\":3035:3078   */\n          0xffffffffffffffffffffffffffffffffffffffff\n          and\n          0xffffffffffffffffffffffffffffffffffffffff\n          and\n          dup2\n          mstore\n          0x20\n          add\n          swap1\n          dup2\n          mstore\n          0x20\n          add\n          0x00\n          keccak256\n            /* \"transporters_users.sol\":3005:3078   */\n          swap1\n          pop\n            /* \"transporters_users.sol\":3104:3123   */\n          0x00\n            /* \"transporters_users.sol\":3126:3128   */\n          dup2\n            /* \"transporters_users.sol\":3126:3146   */\n          0x04\n          add\n            /* \"transporters_users.sol\":3126:3161   */\n          0x00\n            /* \"transporters_users.sol\":3147:3160   */\n          dup8\n            /* \"transporters_users.sol\":3126:3161   */\n          0xffffffffffffffffffffffffffffffffffffffff\n          and\n          0xffffffffffffffffffffffffffffffffffffffff\n          and\n          dup2\n          mstore\n          0x20\n          add\n          swap1\n          dup2\n          mstore\n          0x20\n          add\n          0x00\n          keccak256\n            /* \"transporters_users.sol\":3104:3161   */\n          swap1\n          pop\n            /* \"transporters_users.sol\":3182:3209   */\n          0x00\n            /* \"transporters_users.sol\":3172:3173   */\n          dup2\n            /* \"transporters_users.sol\":3172:3179   */\n          0x00\n          add\n          0x00\n            /* \"transporters_users.sol\":3172:3209   */\n          0x0100\n          exp\n          dup2\n          sload\n          dup2\n          0xff\n          mul\n          not\n          and\n          swap1\n          dup4\n          0x02\n          dup2\n          gt\n          iszero\n          tag_50\n          jumpi\n          invalid\n        tag_50:\n          mul\n          or\n          swap1\n          sstore\n          pop\n            /* \"transporters_users.sol\":3228:3240   */\n          dup7\n            /* \"transporters_users.sol\":3219:3220   */\n          dup2\n            /* \"transporters_users.sol\":3219:3225   */\n          0x02\n          add\n          0x00\n            /* \"transporters_users.sol\":3219:3240   */\n          0x0100\n          exp\n          dup2\n          sload\n          dup2\n          0xffffffffffffffffffffffffffffffffffffffff\n          mul\n          not\n          and\n          swap1\n          dup4\n          0xffffffffffffffffffffffffffffffffffffffff\n          and\n          mul\n          or\n          swap1\n          sstore\n          pop\n            /* \"transporters_users.sol\":3257:3273   */\n          dup4\n            /* \"transporters_users.sol\":3250:3251   */\n          dup2\n            /* \"transporters_users.sol\":3250:3254   */\n          0x03\n          add\n          0x00\n            /* \"transporters_users.sol\":3250:3273   */\n          0x0100\n          exp\n          dup2\n          sload\n          dup2\n          0xffffffffffffffffffffffffffffffffffffffff\n          mul\n          not\n          and\n          swap1\n          dup4\n          0xffffffffffffffffffffffffffffffffffffffff\n          and\n          mul\n          or\n          swap1\n          sstore\n          pop\n            /* \"transporters_users.sol\":3299:3318   */\n          dup5\n            /* \"transporters_users.sol\":3283:3284   */\n          dup2\n            /* \"transporters_users.sol\":3283:3296   */\n          0x04\n          add\n          0x00\n            /* \"transporters_users.sol\":3283:3318   */\n          0x0100\n          exp\n          dup2\n          sload\n          dup2\n          0xffffffffffffffffffffffffffffffffffffffff\n          mul\n          not\n          and\n          swap1\n          dup4\n          0xffffffffffffffffffffffffffffffffffffffff\n          and\n          mul\n          or\n          swap1\n          sstore\n          pop\n            /* \"transporters_users.sol\":3338:3351   */\n          dup6\n            /* \"transporters_users.sol\":3328:3329   */\n          dup2\n            /* \"transporters_users.sol\":3328:3335   */\n          0x05\n          add\n          0x00\n            /* \"transporters_users.sol\":3328:3351   */\n          0x0100\n          exp\n          dup2\n          sload\n          dup2\n          0xffffffffffffffffffffffffffffffffffffffff\n          mul\n          not\n          and\n          swap1\n          dup4\n          0xffffffffffffffffffffffffffffffffffffffff\n          and\n          mul\n          or\n          swap1\n          sstore\n          pop\n            /* \"transporters_users.sol\":3418:3419   */\n          0x01\n            /* \"transporters_users.sol\":3371:3373   */\n          dup3\n            /* \"transporters_users.sol\":3371:3395   */\n          0x05\n          add\n            /* \"transporters_users.sol\":3401:3414   */\n          dup8\n            /* \"transporters_users.sol\":3371:3415   */\n          swap1\n          dup1\n            /* \"--CODEGEN--\":39:40   */\n          0x01\n            /* \"--CODEGEN--\":33:36   */\n          dup2\n            /* \"--CODEGEN--\":27:37   */\n          sload\n            /* \"--CODEGEN--\":23:41   */\n          add\n            /* \"--CODEGEN--\":57:67   */\n          dup1\n            /* \"--CODEGEN--\":52:55   */\n          dup3\n            /* \"--CODEGEN--\":45:68   */\n          sstore\n            /* \"--CODEGEN--\":79:89   */\n          dup1\n            /* \"--CODEGEN--\":72:89   */\n          swap2\n          pop\n            /* \"--CODEGEN--\":0:93   */\n          pop\n            /* \"transporters_users.sol\":3371:3415   */\n          swap1\n          0x01\n          dup3\n          sub\n          swap1\n          0x00\n          mstore\n          keccak256(0x00, 0x20)\n          add\n          0x00\n          swap1\n          swap2\n          swap3\n          swap1\n          swap2\n          swap1\n          swap2\n          0x0100\n          exp\n          dup2\n          sload\n          dup2\n          0xffffffffffffffffffffffffffffffffffffffff\n          mul\n          not\n          and\n          swap1\n          dup4\n          0xffffffffffffffffffffffffffffffffffffffff\n          and\n          mul\n          or\n          swap1\n          sstore\n          pop\n            /* \"transporters_users.sol\":3371:3419   */\n          sub\n            /* \"transporters_users.sol\":3361:3362   */\n          dup2\n            /* \"transporters_users.sol\":3361:3368   */\n          0x01\n          add\n            /* \"transporters_users.sol\":3361:3419   */\n          dup2\n          swap1\n          sstore\n          pop\n            /* \"transporters_users.sol\":3437:3441   */\n          0x01\n            /* \"transporters_users.sol\":3430:3441   */\n          swap3\n          pop\n          pop\n          pop\n            /* \"transporters_users.sol\":2494:3448   */\n          swap5\n          swap4\n          pop\n          pop\n          pop\n          pop\n          jump\t// out\n            /* \"transporters_users.sol\":2144:2488   */\n        tag_25:\n            /* \"transporters_users.sol\":2276:2289   */\n          0x00\n            /* \"transporters_users.sol\":2305:2332   */\n          dup1\n            /* \"transporters_users.sol\":2335:2343   */\n          0x01\n            /* \"transporters_users.sol\":2335:2364   */\n          0x00\n            /* \"transporters_users.sol\":2344:2363   */\n          dup6\n            /* \"transporters_users.sol\":2335:2364   */\n          0xffffffffffffffffffffffffffffffffffffffff\n          and\n          0xffffffffffffffffffffffffffffffffffffffff\n          and\n          dup2\n          mstore\n          0x20\n          add\n          swap1\n          dup2\n          mstore\n          0x20\n          add\n          0x00\n          keccak256\n            /* \"transporters_users.sol\":2335:2378   */\n          0x00\n            /* \"transporters_users.sol\":2365:2377   */\n          dup7\n            /* \"transporters_users.sol\":2335:2378   */\n          0xffffffffffffffffffffffffffffffffffffffff\n          and\n          0xffffffffffffffffffffffffffffffffffffffff\n          and\n          dup2\n          mstore\n          0x20\n          add\n          swap1\n          dup2\n          mstore\n          0x20\n          add\n          0x00\n          keccak256\n            /* \"transporters_users.sol\":2305:2378   */\n          swap1\n          pop\n            /* \"transporters_users.sol\":2413:2415   */\n          dup1\n            /* \"transporters_users.sol\":2413:2437   */\n          0x05\n          add\n            /* \"transporters_users.sol\":2438:2440   */\n          dup2\n            /* \"transporters_users.sol\":2438:2458   */\n          0x04\n          add\n            /* \"transporters_users.sol\":2438:2473   */\n          0x00\n            /* \"transporters_users.sol\":2459:2472   */\n          dup6\n            /* \"transporters_users.sol\":2438:2473   */\n          0xffffffffffffffffffffffffffffffffffffffff\n          and\n          0xffffffffffffffffffffffffffffffffffffffff\n          and\n          dup2\n          mstore\n          0x20\n          add\n          swap1\n          dup2\n          mstore\n          0x20\n          add\n          0x00\n          keccak256\n            /* \"transporters_users.sol\":2438:2479   */\n          0x01\n          add\n          sload\n            /* \"transporters_users.sol\":2413:2480   */\n          dup2\n          sload\n          dup2\n          lt\n          iszero\n          iszero\n          tag_53\n          jumpi\n          invalid\n        tag_53:\n          swap1\n          0x00\n          mstore\n          keccak256(0x00, 0x20)\n          add\n          0x00\n          swap1\n          sload\n          swap1\n          0x0100\n          exp\n          swap1\n          div\n          0xffffffffffffffffffffffffffffffffffffffff\n          and\n            /* \"transporters_users.sol\":2396:2480   */\n          0xffffffffffffffffffffffffffffffffffffffff\n          and\n            /* \"transporters_users.sol\":2396:2409   */\n          dup4\n            /* \"transporters_users.sol\":2396:2480   */\n          0xffffffffffffffffffffffffffffffffffffffff\n          and\n          eq\n            /* \"transporters_users.sol\":2388:2481   */\n          swap2\n          pop\n          pop\n            /* \"transporters_users.sol\":2144:2488   */\n          swap4\n          swap3\n          pop\n          pop\n          pop\n          jump\t// out\n            /* \"transporters_users.sol\":1930:2138   */\n        tag_28:\n            /* \"transporters_users.sol\":2031:2044   */\n          0x00\n            /* \"transporters_users.sol\":2129:2130   */\n          dup1\n            /* \"transporters_users.sol\":2062:2131   */\n          0xffffffffffffffffffffffffffffffffffffffff\n          and\n            /* \"transporters_users.sol\":2062:2070   */\n          0x01\n            /* \"transporters_users.sol\":2062:2091   */\n          0x00\n            /* \"transporters_users.sol\":2071:2090   */\n          dup6\n            /* \"transporters_users.sol\":2062:2091   */\n          0xffffffffffffffffffffffffffffffffffffffff\n          and\n          0xffffffffffffffffffffffffffffffffffffffff\n          and\n          dup2\n          mstore\n          0x20\n          add\n          swap1\n          dup2\n          mstore\n          0x20\n          add\n          0x00\n          keccak256\n            /* \"transporters_users.sol\":2062:2105   */\n          0x00\n            /* \"transporters_users.sol\":2092:2104   */\n          dup5\n            /* \"transporters_users.sol\":2062:2105   */\n          0xffffffffffffffffffffffffffffffffffffffff\n          and\n          0xffffffffffffffffffffffffffffffffffffffff\n          and\n          dup2\n          mstore\n          0x20\n          add\n          swap1\n          dup2\n          mstore\n          0x20\n          add\n          0x00\n          keccak256\n            /* \"transporters_users.sol\":2062:2117   */\n          0x00\n          add\n          0x00\n          swap1\n          sload\n          swap1\n          0x0100\n          exp\n          swap1\n          div\n          0xffffffffffffffffffffffffffffffffffffffff\n          and\n            /* \"transporters_users.sol\":2062:2131   */\n          0xffffffffffffffffffffffffffffffffffffffff\n          and\n          eq\n          iszero\n            /* \"transporters_users.sol\":2055:2131   */\n          swap1\n          pop\n            /* \"transporters_users.sol\":1930:2138   */\n          swap3\n          swap2\n          pop\n          pop\n          jump\t// out\n            /* \"transporters_users.sol\":3454:4415   */\n        tag_31:\n            /* \"transporters_users.sol\":3593:3613   */\n          0x00\n          dup1\n          swap1\n          sload\n          swap1\n          0x0100\n          exp\n          swap1\n          div\n          0xffffffffffffffffffffffffffffffffffffffff\n          and\n            /* \"transporters_users.sol\":3579:3613   */\n          0xffffffffffffffffffffffffffffffffffffffff\n          and\n            /* \"transporters_users.sol\":3579:3589   */\n          caller\n            /* \"transporters_users.sol\":3579:3613   */\n          0xffffffffffffffffffffffffffffffffffffffff\n          and\n          eq\n            /* \"transporters_users.sol\":3571:3642   */\n          iszero\n          iszero\n          tag_57\n          jumpi\n          mload(0x40)\n          0x08c379a000000000000000000000000000000000000000000000000000000000\n          dup2\n          mstore\n          0x04\n          add\n          dup1\n          dup1\n          0x20\n          add\n          dup3\n          dup2\n          sub\n          dup3\n          mstore\n          0x18\n          dup2\n          mstore\n          0x20\n          add\n          dup1\n          0x6f6e6c792054432063616e20646f20746869732063616c6c0000000000000000\n          dup2\n          mstore\n          pop\n          0x20\n          add\n          swap2\n          pop\n          pop\n          mload(0x40)\n          dup1\n          swap2\n          sub\n          swap1\n          revert\n        tag_57:\n            /* \"transporters_users.sol\":3653:3692   */\n          0x00\n            /* \"transporters_users.sol\":3695:3703   */\n          0x01\n            /* \"transporters_users.sol\":3695:3724   */\n          0x00\n            /* \"transporters_users.sol\":3704:3723   */\n          dup5\n            /* \"transporters_users.sol\":3695:3724   */\n          0xffffffffffffffffffffffffffffffffffffffff\n          and\n          0xffffffffffffffffffffffffffffffffffffffff\n          and\n          dup2\n          mstore\n          0x20\n          add\n          swap1\n          dup2\n          mstore\n          0x20\n          add\n          0x00\n          keccak256\n            /* \"transporters_users.sol\":3695:3738   */\n          0x00\n            /* \"transporters_users.sol\":3725:3737   */\n          dup6\n            /* \"transporters_users.sol\":3695:3738   */\n          0xffffffffffffffffffffffffffffffffffffffff\n          and\n          0xffffffffffffffffffffffffffffffffffffffff\n          and\n          dup2\n          mstore\n          0x20\n          add\n          swap1\n          dup2\n          mstore\n          0x20\n          add\n          0x00\n          keccak256\n            /* \"transporters_users.sol\":3695:3760   */\n          0x05\n          add\n            /* \"transporters_users.sol\":3653:3760   */\n          swap1\n          pop\n            /* \"transporters_users.sol\":3770:3789   */\n          0x00\n            /* \"transporters_users.sol\":3792:3800   */\n          0x01\n            /* \"transporters_users.sol\":3792:3821   */\n          0x00\n            /* \"transporters_users.sol\":3801:3820   */\n          dup6\n            /* \"transporters_users.sol\":3792:3821   */\n          0xffffffffffffffffffffffffffffffffffffffff\n          and\n          0xffffffffffffffffffffffffffffffffffffffff\n          and\n          dup2\n          mstore\n          0x20\n          add\n          swap1\n          dup2\n          mstore\n          0x20\n          add\n          0x00\n          keccak256\n            /* \"transporters_users.sol\":3792:3835   */\n          0x00\n            /* \"transporters_users.sol\":3822:3834   */\n          dup7\n            /* \"transporters_users.sol\":3792:3835   */\n          0xffffffffffffffffffffffffffffffffffffffff\n          and\n          0xffffffffffffffffffffffffffffffffffffffff\n          and\n          dup2\n          mstore\n          0x20\n          add\n          swap1\n          dup2\n          mstore\n          0x20\n          add\n          0x00\n          keccak256\n            /* \"transporters_users.sol\":3792:3853   */\n          0x04\n          add\n            /* \"transporters_users.sol\":3792:3868   */\n          0x00\n            /* \"transporters_users.sol\":3854:3867   */\n          dup5\n            /* \"transporters_users.sol\":3792:3868   */\n          0xffffffffffffffffffffffffffffffffffffffff\n          and\n          0xffffffffffffffffffffffffffffffffffffffff\n          and\n          dup2\n          mstore\n          0x20\n          add\n          swap1\n          dup2\n          mstore\n          0x20\n          add\n          0x00\n          keccak256\n            /* \"transporters_users.sol\":3770:3868   */\n          swap1\n          pop\n            /* \"transporters_users.sol\":3917:3933   */\n          0x00\n            /* \"transporters_users.sol\":3936:3937   */\n          dup2\n            /* \"transporters_users.sol\":3936:3943   */\n          0x01\n          add\n          sload\n            /* \"transporters_users.sol\":3917:3943   */\n          swap1\n          pop\n            /* \"transporters_users.sol\":3953:3970   */\n          0x00\n            /* \"transporters_users.sol\":3973:3994   */\n          dup4\n            /* \"transporters_users.sol\":4026:4027   */\n          0x01\n            /* \"transporters_users.sol\":3995:4016   */\n          dup6\n            /* \"transporters_users.sol\":3995:4023   */\n          dup1\n          sload\n          swap1\n          pop\n            /* \"transporters_users.sol\":3995:4027   */\n          sub\n            /* \"transporters_users.sol\":3973:4028   */\n          dup2\n          sload\n          dup2\n          lt\n          iszero\n          iszero\n          tag_58\n          jumpi\n          invalid\n        tag_58:\n          swap1\n          0x00\n          mstore\n          keccak256(0x00, 0x20)\n          add\n          0x00\n          swap1\n          sload\n          swap1\n          0x0100\n          exp\n          swap1\n          div\n          0xffffffffffffffffffffffffffffffffffffffff\n          and\n            /* \"transporters_users.sol\":3953:4028   */\n          swap1\n          pop\n            /* \"transporters_users.sol\":4076:4085   */\n          dup1\n            /* \"transporters_users.sol\":4039:4060   */\n          dup5\n            /* \"transporters_users.sol\":4061:4072   */\n          dup4\n            /* \"transporters_users.sol\":4039:4073   */\n          dup2\n          sload\n          dup2\n          lt\n          iszero\n          iszero\n          tag_60\n          jumpi\n          invalid\n        tag_60:\n          swap1\n          0x00\n          mstore\n          keccak256(0x00, 0x20)\n          add\n          0x00\n            /* \"transporters_users.sol\":4039:4085   */\n          0x0100\n          exp\n          dup2\n          sload\n          dup2\n          0xffffffffffffffffffffffffffffffffffffffff\n          mul\n          not\n          and\n          swap1\n          dup4\n          0xffffffffffffffffffffffffffffffffffffffff\n          and\n          mul\n          or\n          swap1\n          sstore\n          pop\n            /* \"transporters_users.sol\":4176:4187   */\n          dup2\n            /* \"transporters_users.sol\":4095:4103   */\n          0x01\n            /* \"transporters_users.sol\":4095:4124   */\n          0x00\n            /* \"transporters_users.sol\":4104:4123   */\n          dup9\n            /* \"transporters_users.sol\":4095:4124   */\n          0xffffffffffffffffffffffffffffffffffffffff\n          and\n          0xffffffffffffffffffffffffffffffffffffffff\n          and\n          dup2\n          mstore\n          0x20\n          add\n          swap1\n          dup2\n          mstore\n          0x20\n          add\n          0x00\n          keccak256\n            /* \"transporters_users.sol\":4095:4138   */\n          0x00\n            /* \"transporters_users.sol\":4125:4137   */\n          dup10\n            /* \"transporters_users.sol\":4095:4138   */\n          0xffffffffffffffffffffffffffffffffffffffff\n          and\n          0xffffffffffffffffffffffffffffffffffffffff\n          and\n          dup2\n          mstore\n          0x20\n          add\n          swap1\n          dup2\n          mstore\n          0x20\n          add\n          0x00\n          keccak256\n            /* \"transporters_users.sol\":4095:4156   */\n          0x04\n          add\n            /* \"transporters_users.sol\":4095:4167   */\n          0x00\n            /* \"transporters_users.sol\":4157:4166   */\n          dup4\n            /* \"transporters_users.sol\":4095:4167   */\n          0xffffffffffffffffffffffffffffffffffffffff\n          and\n          0xffffffffffffffffffffffffffffffffffffffff\n          and\n          dup2\n          mstore\n          0x20\n          add\n          swap1\n          dup2\n          mstore\n          0x20\n          add\n          0x00\n          keccak256\n            /* \"transporters_users.sol\":4095:4173   */\n          0x01\n          add\n            /* \"transporters_users.sol\":4095:4187   */\n          dup2\n          swap1\n          sstore\n          pop\n            /* \"transporters_users.sol\":4197:4218   */\n          dup4\n            /* \"transporters_users.sol\":4197:4228   */\n          dup1\n          sload\n          dup1\n          swap2\n          swap1\n          0x01\n          swap1\n          sub\n          tag_62\n          swap2\n          swap1\n          tag_45\n          jump\t// in\n        tag_62:\n          pop\n            /* \"transporters_users.sol\":4360:4361   */\n          0x01\n            /* \"transporters_users.sol\":4273:4281   */\n          dup1\n            /* \"transporters_users.sol\":4273:4302   */\n          0x00\n            /* \"transporters_users.sol\":4282:4301   */\n          dup9\n            /* \"transporters_users.sol\":4273:4302   */\n          0xffffffffffffffffffffffffffffffffffffffff\n          and\n          0xffffffffffffffffffffffffffffffffffffffff\n          and\n          dup2\n          mstore\n          0x20\n          add\n          swap1\n          dup2\n          mstore\n          0x20\n          add\n          0x00\n          keccak256\n            /* \"transporters_users.sol\":4273:4316   */\n          0x00\n            /* \"transporters_users.sol\":4303:4315   */\n          dup10\n            /* \"transporters_users.sol\":4273:4316   */\n          0xffffffffffffffffffffffffffffffffffffffff\n          and\n          0xffffffffffffffffffffffffffffffffffffffff\n          and\n          dup2\n          mstore\n          0x20\n          add\n          swap1\n          dup2\n          mstore\n          0x20\n          add\n          0x00\n          keccak256\n            /* \"transporters_users.sol\":4273:4337   */\n          0x07\n          add\n            /* \"transporters_users.sol\":4343:4356   */\n          dup7\n            /* \"transporters_users.sol\":4273:4357   */\n          swap1\n          dup1\n            /* \"--CODEGEN--\":39:40   */\n          0x01\n            /* \"--CODEGEN--\":33:36   */\n          dup2\n            /* \"--CODEGEN--\":27:37   */\n          sload\n            /* \"--CODEGEN--\":23:41   */\n          add\n            /* \"--CODEGEN--\":57:67   */\n          dup1\n            /* \"--CODEGEN--\":52:55   */\n          dup3\n            /* \"--CODEGEN--\":45:68   */\n          sstore\n            /* \"--CODEGEN--\":79:89   */\n          dup1\n            /* \"--CODEGEN--\":72:89   */\n          swap2\n          pop\n            /* \"--CODEGEN--\":0:93   */\n          pop\n            /* \"transporters_users.sol\":4273:4357   */\n          swap1\n          0x01\n          dup3\n          sub\n          swap1\n          0x00\n          mstore\n          keccak256(0x00, 0x20)\n          add\n          0x00\n          swap1\n          swap2\n          swap3\n          swap1\n          swap2\n          swap1\n          swap2\n          0x0100\n          exp\n          dup2\n          sload\n          dup2\n          0xffffffffffffffffffffffffffffffffffffffff\n          mul\n          not\n          and\n          swap1\n          dup4\n          0xffffffffffffffffffffffffffffffffffffffff\n          and\n          mul\n          or\n          swap1\n          sstore\n          pop\n            /* \"transporters_users.sol\":4273:4361   */\n          sub\n            /* \"transporters_users.sol\":4263:4264   */\n          dup4\n            /* \"transporters_users.sol\":4263:4270   */\n          0x01\n          add\n            /* \"transporters_users.sol\":4263:4361   */\n          dup2\n          swap1\n          sstore\n          pop\n            /* \"transporters_users.sol\":4381:4408   */\n          0x01\n            /* \"transporters_users.sol\":4371:4372   */\n          dup4\n            /* \"transporters_users.sol\":4371:4378   */\n          0x00\n          add\n          0x00\n            /* \"transporters_users.sol\":4371:4408   */\n          0x0100\n          exp\n          dup2\n          sload\n          dup2\n          0xff\n          mul\n          not\n          and\n          swap1\n          dup4\n          0x02\n          dup2\n          gt\n          iszero\n          tag_64\n          jumpi\n          invalid\n        tag_64:\n          mul\n          or\n          swap1\n          sstore\n          pop\n            /* \"transporters_users.sol\":3454:4415   */\n          pop\n          pop\n          pop\n          pop\n          pop\n          pop\n          pop\n          jump\t// out\n            /* \"transporters_users.sol\":25:5428   */\n        tag_45:\n          dup2\n          sload\n          dup2\n          dup4\n          sstore\n          dup2\n          dup2\n          gt\n          iszero\n          tag_65\n          jumpi\n          dup2\n          dup4\n          0x00\n          mstore\n          keccak256(0x00, 0x20)\n          swap2\n          dup3\n          add\n          swap2\n          add\n          tag_66\n          swap2\n          swap1\n          tag_67\n          jump\t// in\n        tag_66:\n        tag_65:\n          pop\n          pop\n          pop\n          jump\t// out\n        tag_67:\n          tag_68\n          swap2\n          swap1\n        tag_69:\n          dup1\n          dup3\n          gt\n          iszero\n          tag_70\n          jumpi\n          0x00\n          dup2\n          0x00\n          swap1\n          sstore\n          pop\n          0x01\n          add\n          jump(tag_69)\n        tag_70:\n          pop\n          swap1\n          jump\n        tag_68:\n          swap1\n          jump\t// out\n        stop\n        data_314a78c46bcdb0b036fee4186417aed0f0dec006f476c7b3a487e66fa99a6b2e 7472616e73706f72746572206973206e6f7420706172746e6572206f66206d6573736167652073656e646572\n\n        auxdata: 0xa165627a7a723058201f71e1b8152649a06fd9825e9e72df860b8ef668e8e22b74c36ec8d34d474d400029\n    }\n}\n\nsub_2: assembly {\n        /* \"producers.sol\":48:1742   */\n      mstore(0x40, 0x80)\n        /* \"producers.sol\":443:526   */\n      callvalue\n        /* \"--CODEGEN--\":8:17   */\n      dup1\n        /* \"--CODEGEN--\":5:7   */\n      iszero\n      tag_1\n      jumpi\n        /* \"--CODEGEN--\":30:31   */\n      0x00\n        /* \"--CODEGEN--\":27:28   */\n      dup1\n        /* \"--CODEGEN--\":20:32   */\n      revert\n        /* \"--CODEGEN--\":5:7   */\n    tag_1:\n        /* \"producers.sol\":443:526   */\n      pop\n      mload(0x40)\n      0x20\n      dup1\n      bytecodeSize\n      dup4\n      codecopy\n      dup2\n      add\n      dup1\n      0x40\n      mstore\n        /* \"--CODEGEN--\":13:15   */\n      0x20\n        /* \"--CODEGEN--\":8:11   */\n      dup2\n        /* \"--CODEGEN--\":5:16   */\n      lt\n        /* \"--CODEGEN--\":2:4   */\n      iszero\n      tag_2\n      jumpi\n        /* \"--CODEGEN--\":29:30   */\n      0x00\n        /* \"--CODEGEN--\":26:27   */\n      dup1\n        /* \"--CODEGEN--\":19:31   */\n      revert\n        /* \"--CODEGEN--\":2:4   */\n    tag_2:\n        /* \"producers.sol\":443:526   */\n      dup2\n      add\n      swap1\n      dup1\n      dup1\n      mload\n      swap1\n      0x20\n      add\n      swap1\n      swap3\n      swap2\n      swap1\n      pop\n      pop\n      pop\n        /* \"producers.sol\":508:511   */\n      dup1\n        /* \"producers.sol\":485:505   */\n      0x00\n      dup1\n        /* \"producers.sol\":485:511   */\n      0x0100\n      exp\n      dup2\n      sload\n      dup2\n      0xffffffffffffffffffffffffffffffffffffffff\n      mul\n      not\n      and\n      swap1\n      dup4\n      0xffffffffffffffffffffffffffffffffffffffff\n      and\n      mul\n      or\n      swap1\n      sstore\n      pop\n        /* \"producers.sol\":443:526   */\n      pop\n        /* \"producers.sol\":48:1742   */\n      dataSize(sub_0)\n      dup1\n      dataOffset(sub_0)\n      0x00\n      codecopy\n      0x00\n      return\n    stop\n\n    sub_0: assembly {\n            /* \"producers.sol\":48:1742   */\n          mstore(0x40, 0x80)\n          callvalue\n            /* \"--CODEGEN--\":8:17   */\n          dup1\n            /* \"--CODEGEN--\":5:7   */\n          iszero\n          tag_1\n          jumpi\n            /* \"--CODEGEN--\":30:31   */\n          0x00\n            /* \"--CODEGEN--\":27:28   */\n          dup1\n            /* \"--CODEGEN--\":20:32   */\n          revert\n            /* \"--CODEGEN--\":5:7   */\n        tag_1:\n            /* \"producers.sol\":48:1742   */\n          pop\n          jumpi(tag_2, lt(calldatasize, 0x04))\n          calldataload(0x00)\n          0x0100000000000000000000000000000000000000000000000000000000\n          swap1\n          div\n          dup1\n          0x791c0741\n          eq\n          tag_3\n          jumpi\n          dup1\n          0x8412d3d1\n          eq\n          tag_4\n          jumpi\n          dup1\n          0x98581fd9\n          eq\n          tag_5\n          jumpi\n          dup1\n          0xf5521022\n          eq\n          tag_6\n          jumpi\n        tag_2:\n          0x00\n          dup1\n          revert\n            /* \"producers.sol\":1247:1739   */\n        tag_3:\n          tag_7\n          0x04\n          dup1\n          calldatasize\n          sub\n            /* \"--CODEGEN--\":13:15   */\n          0x40\n            /* \"--CODEGEN--\":8:11   */\n          dup2\n            /* \"--CODEGEN--\":5:16   */\n          lt\n            /* \"--CODEGEN--\":2:4   */\n          iszero\n          tag_8\n          jumpi\n            /* \"--CODEGEN--\":29:30   */\n          0x00\n            /* \"--CODEGEN--\":26:27   */\n          dup1\n            /* \"--CODEGEN--\":19:31   */\n          revert\n            /* \"--CODEGEN--\":2:4   */\n        tag_8:\n            /* \"producers.sol\":1247:1739   */\n          dup2\n          add\n          swap1\n          dup1\n          dup1\n          calldataload\n          0xffffffffffffffffffffffffffffffffffffffff\n          and\n          swap1\n          0x20\n          add\n          swap1\n          swap3\n          swap2\n          swap1\n          dup1\n          calldataload\n          swap1\n          0x20\n          add\n          swap1\n            /* \"--CODEGEN--\":21:32   */\n          0x0100000000\n            /* \"--CODEGEN--\":8:19   */\n          dup2\n            /* \"--CODEGEN--\":5:33   */\n          gt\n            /* \"--CODEGEN--\":2:4   */\n          iszero\n          tag_9\n          jumpi\n            /* \"--CODEGEN--\":46:47   */\n          0x00\n            /* \"--CODEGEN--\":43:44   */\n          dup1\n            /* \"--CODEGEN--\":36:48   */\n          revert\n            /* \"--CODEGEN--\":2:4   */\n        tag_9:\n            /* \"producers.sol\":1247:1739   */\n          dup3\n          add\n            /* \"--CODEGEN--\":35:44   */\n          dup4\n            /* \"--CODEGEN--\":28:32   */\n          0x20\n            /* \"--CODEGEN--\":12:26   */\n          dup3\n            /* \"--CODEGEN--\":8:33   */\n          add\n            /* \"--CODEGEN--\":5:45   */\n          gt\n            /* \"--CODEGEN--\":2:4   */\n          iszero\n          tag_10\n          jumpi\n            /* \"--CODEGEN--\":58:59   */\n          0x00\n            /* \"--CODEGEN--\":55:56   */\n          dup1\n            /* \"--CODEGEN--\":48:60   */\n          revert\n            /* \"--CODEGEN--\":2:4   */\n        tag_10:\n            /* \"producers.sol\":1247:1739   */\n          dup1\n          calldataload\n          swap1\n          0x20\n          add\n          swap2\n            /* \"--CODEGEN--\":100:109   */\n          dup5\n            /* \"--CODEGEN--\":95:96   */\n          0x01\n            /* \"--CODEGEN--\":81:93   */\n          dup4\n            /* \"--CODEGEN--\":77:97   */\n          mul\n            /* \"--CODEGEN--\":67:75   */\n          dup5\n            /* \"--CODEGEN--\":63:98   */\n          add\n            /* \"--CODEGEN--\":60:110   */\n          gt\n            /* \"--CODEGEN--\":39:50   */\n          0x0100000000\n            /* \"--CODEGEN--\":25:37   */\n          dup4\n            /* \"--CODEGEN--\":22:51   */\n          gt\n            /* \"--CODEGEN--\":11:118   */\n          or\n            /* \"--CODEGEN--\":8:10   */\n          iszero\n          tag_11\n          jumpi\n            /* \"--CODEGEN--\":131:132   */\n          0x00\n            /* \"--CODEGEN--\":128:129   */\n          dup1\n            /* \"--CODEGEN--\":121:133   */\n          revert\n            /* \"--CODEGEN--\":8:10   */\n        tag_11:\n            /* \"producers.sol\":1247:1739   */\n          swap2\n          swap1\n          dup1\n          dup1\n          0x1f\n          add\n          0x20\n          dup1\n          swap2\n          div\n          mul\n          0x20\n          add\n          mload(0x40)\n          swap1\n          dup2\n          add\n          0x40\n          mstore\n          dup1\n          swap4\n          swap3\n          swap2\n          swap1\n          dup2\n          dup2\n          mstore\n          0x20\n          add\n          dup4\n          dup4\n            /* \"--CODEGEN--\":30:33   */\n          dup1\n            /* \"--CODEGEN--\":22:28   */\n          dup3\n            /* \"--CODEGEN--\":14:20   */\n          dup5\n            /* \"--CODEGEN--\":1:34   */\n          calldatacopy\n            /* \"--CODEGEN--\":99:100   */\n          0x00\n            /* \"--CODEGEN--\":93:96   */\n          dup2\n            /* \"--CODEGEN--\":85:91   */\n          dup5\n            /* \"--CODEGEN--\":81:97   */\n          add\n            /* \"--CODEGEN--\":74:101   */\n          mstore\n            /* \"--CODEGEN--\":137:141   */\n          0x1f\n            /* \"--CODEGEN--\":133:142   */\n          not\n            /* \"--CODEGEN--\":126:130   */\n          0x1f\n            /* \"--CODEGEN--\":121:124   */\n          dup3\n            /* \"--CODEGEN--\":117:131   */\n          add\n            /* \"--CODEGEN--\":113:143   */\n          and\n            /* \"--CODEGEN--\":106:143   */\n          swap1\n          pop\n            /* \"--CODEGEN--\":169:172   */\n          dup1\n            /* \"--CODEGEN--\":161:167   */\n          dup4\n            /* \"--CODEGEN--\":157:173   */\n          add\n            /* \"--CODEGEN--\":147:173   */\n          swap3\n          pop\n            /* \"producers.sol\":1247:1739   */\n          pop\n          pop\n          pop\n          pop\n          pop\n          pop\n          swap2\n          swap3\n          swap2\n          swap3\n          swap1\n          pop\n          pop\n          pop\n          tag_12\n          jump\t// in\n        tag_7:\n          mload(0x40)\n          dup1\n          dup3\n          0xffffffffffffffffffffffffffffffffffffffff\n          and\n          0xffffffffffffffffffffffffffffffffffffffff\n          and\n          dup2\n          mstore\n          0x20\n          add\n          swap2\n          pop\n          pop\n          mload(0x40)\n          dup1\n          swap2\n          sub\n          swap1\n          return\n            /* \"producers.sol\":768:1241   */\n        tag_4:\n          tag_13\n          0x04\n          dup1\n          calldatasize\n          sub\n            /* \"--CODEGEN--\":13:15   */\n          0x40\n            /* \"--CODEGEN--\":8:11   */\n          dup2\n            /* \"--CODEGEN--\":5:16   */\n          lt\n            /* \"--CODEGEN--\":2:4   */\n          iszero\n          tag_14\n          jumpi\n            /* \"--CODEGEN--\":29:30   */\n          0x00\n            /* \"--CODEGEN--\":26:27   */\n          dup1\n            /* \"--CODEGEN--\":19:31   */\n          revert\n            /* \"--CODEGEN--\":2:4   */\n        tag_14:\n            /* \"producers.sol\":768:1241   */\n          dup2\n          add\n          swap1\n          dup1\n          dup1\n          calldataload\n          0xffffffffffffffffffffffffffffffffffffffff\n          and\n          swap1\n          0x20\n          add\n          swap1\n          swap3\n          swap2\n          swap1\n          dup1\n          calldataload\n          swap1\n          0x20\n          add\n          swap1\n            /* \"--CODEGEN--\":21:32   */\n          0x0100000000\n            /* \"--CODEGEN--\":8:19   */\n          dup2\n            /* \"--CODEGEN--\":5:33   */\n          gt\n            /* \"--CODEGEN--\":2:4   */\n          iszero\n          tag_15\n          jumpi\n            /* \"--CODEGEN--\":46:47   */\n          0x00\n            /* \"--CODEGEN--\":43:44   */\n          dup1\n            /* \"--CODEGEN--\":36:48   */\n          revert\n            /* \"--CODEGEN--\":2:4   */\n        tag_15:\n            /* \"producers.sol\":768:1241   */\n          dup3\n          add\n            /* \"--CODEGEN--\":35:44   */\n          dup4\n            /* \"--CODEGEN--\":28:32   */\n          0x20\n            /* \"--CODEGEN--\":12:26   */\n          dup3\n            /* \"--CODEGEN--\":8:33   */\n          add\n            /* \"--CODEGEN--\":5:45   */\n          gt\n            /* \"--CODEGEN--\":2:4   */\n          iszero\n          tag_16\n          jumpi\n            /* \"--CODEGEN--\":58:59   */\n          0x00\n            /* \"--CODEGEN--\":55:56   */\n          dup1\n            /* \"--CODEGEN--\":48:60   */\n          revert\n            /* \"--CODEGEN--\":2:4   */\n        tag_16:\n            /* \"producers.sol\":768:1241   */\n          dup1\n          calldataload\n          swap1\n          0x20\n          add\n          swap2\n            /* \"--CODEGEN--\":100:109   */\n          dup5\n            /* \"--CODEGEN--\":95:96   */\n          0x01\n            /* \"--CODEGEN--\":81:93   */\n          dup4\n            /* \"--CODEGEN--\":77:97   */\n          mul\n            /* \"--CODEGEN--\":67:75   */\n          dup5\n            /* \"--CODEGEN--\":63:98   */\n          add\n            /* \"--CODEGEN--\":60:110   */\n          gt\n            /* \"--CODEGEN--\":39:50   */\n          0x0100000000\n            /* \"--CODEGEN--\":25:37   */\n          dup4\n            /* \"--CODEGEN--\":22:51   */\n          gt\n            /* \"--CODEGEN--\":11:118   */\n          or\n            /* \"--CODEGEN--\":8:10   */\n          iszero\n          tag_17\n          jumpi\n            /* \"--CODEGEN--\":131:132   */\n          0x00\n            /* \"--CODEGEN--\":128:129   */\n          dup1\n            /* \"--CODEGEN--\":121:133   */\n          revert\n            /* \"--CODEGEN--\":8:10   */\n        tag_17:\n            /* \"producers.sol\":768:1241   */\n          swap2\n          swap1\n          dup1\n          dup1\n          0x1f\n          add\n          0x20\n          dup1\n          swap2\n          div\n          mul\n          0x20\n          add\n          mload(0x40)\n          swap1\n          dup2\n          add\n          0x40\n          mstore\n          dup1\n          swap4\n          swap3\n          swap2\n          swap1\n          dup2\n          dup2\n          mstore\n          0x20\n          add\n          dup4\n          dup4\n            /* \"--CODEGEN--\":30:33   */\n          dup1\n            /* \"--CODEGEN--\":22:28   */\n          dup3\n            /* \"--CODEGEN--\":14:20   */\n          dup5\n            /* \"--CODEGEN--\":1:34   */\n          calldatacopy\n            /* \"--CODEGEN--\":99:100   */\n          0x00\n            /* \"--CODEGEN--\":93:96   */\n          dup2\n            /* \"--CODEGEN--\":85:91   */\n          dup5\n            /* \"--CODEGEN--\":81:97   */\n          add\n            /* \"--CODEGEN--\":74:101   */\n          mstore\n            /* \"--CODEGEN--\":137:141   */\n          0x1f\n            /* \"--CODEGEN--\":133:142   */\n          not\n            /* \"--CODEGEN--\":126:130   */\n          0x1f\n            /* \"--CODEGEN--\":121:124   */\n          dup3\n            /* \"--CODEGEN--\":117:131   */\n          add\n            /* \"--CODEGEN--\":113:143   */\n          and\n            /* \"--CODEGEN--\":106:143   */\n          swap1\n          pop\n            /* \"--CODEGEN--\":169:172   */\n          dup1\n            /* \"--CODEGEN--\":161:167   */\n          dup4\n            /* \"--CODEGEN--\":157:173   */\n          add\n            /* \"--CODEGEN--\":147:173   */\n          swap3\n          pop\n            /* \"producers.sol\":768:1241   */\n          pop\n          pop\n          pop\n          pop\n          pop\n          pop\n          swap2\n          swap3\n          swap2\n          swap3\n          swap1\n          pop\n          pop\n          pop\n          tag_18\n          jump\t// in\n        tag_13:\n          mload(0x40)\n          dup1\n          dup3\n          dup2\n          mstore\n          0x20\n          add\n          swap2\n          pop\n          pop\n          mload(0x40)\n          dup1\n          swap2\n          sub\n          swap1\n          return\n            /* \"producers.sol\":405:436   */\n        tag_5:\n          tag_19\n          0x04\n          dup1\n          calldatasize\n          sub\n            /* \"--CODEGEN--\":13:15   */\n          0x20\n            /* \"--CODEGEN--\":8:11   */\n          dup2\n            /* \"--CODEGEN--\":5:16   */\n          lt\n            /* \"--CODEGEN--\":2:4   */\n          iszero\n          tag_20\n          jumpi\n            /* \"--CODEGEN--\":29:30   */\n          0x00\n            /* \"--CODEGEN--\":26:27   */\n          dup1\n            /* \"--CODEGEN--\":19:31   */\n          revert\n            /* \"--CODEGEN--\":2:4   */\n        tag_20:\n            /* \"producers.sol\":405:436   */\n          dup2\n          add\n          swap1\n          dup1\n          dup1\n          calldataload\n          swap1\n          0x20\n          add\n          swap1\n          swap3\n          swap2\n          swap1\n          pop\n          pop\n          pop\n          tag_21\n          jump\t// in\n        tag_19:\n          mload(0x40)\n          dup1\n          dup3\n          0xffffffffffffffffffffffffffffffffffffffff\n          and\n          0xffffffffffffffffffffffffffffffffffffffff\n          and\n          dup2\n          mstore\n          0x20\n          add\n          swap2\n          pop\n          pop\n          mload(0x40)\n          dup1\n          swap2\n          sub\n          swap1\n          return\n            /* \"producers.sol\":536:762   */\n        tag_6:\n          tag_22\n          0x04\n          dup1\n          calldatasize\n          sub\n            /* \"--CODEGEN--\":13:15   */\n          0x20\n            /* \"--CODEGEN--\":8:11   */\n          dup2\n            /* \"--CODEGEN--\":5:16   */\n          lt\n            /* \"--CODEGEN--\":2:4   */\n          iszero\n          tag_23\n          jumpi\n            /* \"--CODEGEN--\":29:30   */\n          0x00\n            /* \"--CODEGEN--\":26:27   */\n          dup1\n            /* \"--CODEGEN--\":19:31   */\n          revert\n            /* \"--CODEGEN--\":2:4   */\n        tag_23:\n            /* \"producers.sol\":536:762   */\n          dup2\n          add\n          swap1\n          dup1\n          dup1\n          calldataload\n          0xffffffffffffffffffffffffffffffffffffffff\n          and\n          swap1\n          0x20\n          add\n          swap1\n          swap3\n          swap2\n          swap1\n          pop\n          pop\n          pop\n          tag_24\n          jump\t// in\n        tag_22:\n          mload(0x40)\n          dup1\n          dup3\n          iszero\n          iszero\n          iszero\n          iszero\n          dup2\n          mstore\n          0x20\n          add\n          swap2\n          pop\n          pop\n          mload(0x40)\n          dup1\n          swap2\n          sub\n          swap1\n          return\n            /* \"producers.sol\":1247:1739   */\n        tag_12:\n            /* \"producers.sol\":1331:1344   */\n          0x00\n            /* \"producers.sol\":1377:1397   */\n          dup1\n          0x00\n          swap1\n          sload\n          swap1\n          0x0100\n          exp\n          swap1\n          div\n          0xffffffffffffffffffffffffffffffffffffffff\n          and\n            /* \"producers.sol\":1363:1397   */\n          0xffffffffffffffffffffffffffffffffffffffff\n          and\n            /* \"producers.sol\":1363:1373   */\n          caller\n            /* \"producers.sol\":1363:1397   */\n          0xffffffffffffffffffffffffffffffffffffffff\n          and\n          eq\n            /* \"producers.sol\":1355:1426   */\n          iszero\n          iszero\n          tag_26\n          jumpi\n          mload(0x40)\n          0x08c379a000000000000000000000000000000000000000000000000000000000\n          dup2\n          mstore\n          0x04\n          add\n          dup1\n          dup1\n          0x20\n          add\n          dup3\n          dup2\n          sub\n          dup3\n          mstore\n          0x18\n          dup2\n          mstore\n          0x20\n          add\n          dup1\n          0x6f6e6c792054432063616e20646f20746869732063616c6c0000000000000000\n          dup2\n          mstore\n          pop\n          0x20\n          add\n          swap2\n          pop\n          pop\n          mload(0x40)\n          dup1\n          swap2\n          sub\n          swap1\n          revert\n        tag_26:\n            /* \"producers.sol\":1444:1472   */\n          tag_27\n            /* \"producers.sol\":1455:1471   */\n          dup4\n            /* \"producers.sol\":1444:1454   */\n          tag_24\n            /* \"producers.sol\":1444:1472   */\n          jump\t// in\n        tag_27:\n            /* \"producers.sol\":1436:1509   */\n          iszero\n          iszero\n          tag_28\n          jumpi\n          mload(0x40)\n          0x08c379a000000000000000000000000000000000000000000000000000000000\n          dup2\n          mstore\n          0x04\n          add\n          dup1\n          dup1\n          0x20\n          add\n          dup3\n          dup2\n          sub\n          dup3\n          mstore\n          0x20\n          dup2\n          mstore\n          0x20\n          add\n          dup1\n          0x4f6e6c792070726f6475636572732063616e2063726561746520617373657473\n          dup2\n          mstore\n          pop\n          0x20\n          add\n          swap2\n          pop\n          pop\n          mload(0x40)\n          dup1\n          swap2\n          sub\n          swap1\n          revert\n        tag_28:\n            /* \"producers.sol\":1546:1562   */\n          dup3\n            /* \"producers.sol\":1564:1569   */\n          dup3\n            /* \"producers.sol\":1536:1570   */\n          mload(0x40)\n          tag_29\n          swap1\n          tag_30\n          jump\t// in\n        tag_29:\n          dup1\n          dup4\n          0xffffffffffffffffffffffffffffffffffffffff\n          and\n          0xffffffffffffffffffffffffffffffffffffffff\n          and\n          dup2\n          mstore\n          0x20\n          add\n          dup1\n          0x20\n          add\n          dup3\n          dup2\n          sub\n          dup3\n          mstore\n          dup4\n          dup2\n          dup2\n          mload\n          dup2\n          mstore\n          0x20\n          add\n          swap2\n          pop\n          dup1\n          mload\n          swap1\n          0x20\n          add\n          swap1\n          dup1\n          dup4\n          dup4\n            /* \"--CODEGEN--\":23:24   */\n          0x00\n            /* \"--CODEGEN--\":8:108   */\n        tag_31:\n            /* \"--CODEGEN--\":33:36   */\n          dup4\n            /* \"--CODEGEN--\":30:31   */\n          dup2\n            /* \"--CODEGEN--\":27:37   */\n          lt\n            /* \"--CODEGEN--\":8:108   */\n          iszero\n          tag_32\n          jumpi\n            /* \"--CODEGEN--\":99:100   */\n          dup1\n            /* \"--CODEGEN--\":94:97   */\n          dup3\n            /* \"--CODEGEN--\":90:101   */\n          add\n            /* \"--CODEGEN--\":84:102   */\n          mload\n            /* \"--CODEGEN--\":80:81   */\n          dup2\n            /* \"--CODEGEN--\":75:78   */\n          dup5\n            /* \"--CODEGEN--\":71:82   */\n          add\n            /* \"--CODEGEN--\":64:103   */\n          mstore\n            /* \"--CODEGEN--\":52:54   */\n          0x20\n            /* \"--CODEGEN--\":49:50   */\n          dup2\n            /* \"--CODEGEN--\":45:55   */\n          add\n            /* \"--CODEGEN--\":40:55   */\n          swap1\n          pop\n            /* \"--CODEGEN--\":8:108   */\n          jump(tag_31)\n        tag_32:\n            /* \"--CODEGEN--\":12:26   */\n          pop\n            /* \"producers.sol\":1536:1570   */\n          pop\n          pop\n          pop\n          swap1\n          pop\n          swap1\n          dup2\n          add\n          swap1\n          0x1f\n          and\n          dup1\n          iszero\n          tag_34\n          jumpi\n          dup1\n          dup3\n          sub\n          dup1\n          mload\n          0x01\n          dup4\n          0x20\n          sub\n          0x0100\n          exp\n          sub\n          not\n          and\n          dup2\n          mstore\n          0x20\n          add\n          swap2\n          pop\n        tag_34:\n          pop\n          swap4\n          pop\n          pop\n          pop\n          pop\n          mload(0x40)\n          dup1\n          swap2\n          sub\n          swap1\n          0x00\n          create\n          dup1\n          iszero\n            /* \"--CODEGEN--\":8:17   */\n          dup1\n            /* \"--CODEGEN--\":5:7   */\n          iszero\n          tag_35\n          jumpi\n            /* \"--CODEGEN--\":45:61   */\n          returndatasize\n            /* \"--CODEGEN--\":42:43   */\n          0x00\n            /* \"--CODEGEN--\":39:40   */\n          dup1\n            /* \"--CODEGEN--\":24:62   */\n          returndatacopy\n            /* \"--CODEGEN--\":77:93   */\n          returndatasize\n            /* \"--CODEGEN--\":74:75   */\n          0x00\n            /* \"--CODEGEN--\":67:94   */\n          revert\n            /* \"--CODEGEN--\":5:7   */\n        tag_35:\n            /* \"producers.sol\":1536:1570   */\n          pop\n            /* \"producers.sol\":1520:1571   */\n          swap1\n          pop\n            /* \"producers.sol\":1693:1694   */\n          0x01\n            /* \"producers.sol\":1639:1648   */\n          dup1\n            /* \"producers.sol\":1639:1660   */\n          0x00\n            /* \"producers.sol\":1649:1659   */\n          caller\n            /* \"producers.sol\":1639:1660   */\n          0xffffffffffffffffffffffffffffffffffffffff\n          and\n          0xffffffffffffffffffffffffffffffffffffffff\n          and\n          dup2\n          mstore\n          0x20\n          add\n          swap1\n          dup2\n          mstore\n          0x20\n          add\n          0x00\n          keccak256\n            /* \"producers.sol\":1639:1678   */\n          0x03\n          add\n            /* \"producers.sol\":1684:1689   */\n          dup3\n            /* \"producers.sol\":1639:1690   */\n          swap1\n          dup1\n            /* \"--CODEGEN--\":39:40   */\n          0x01\n            /* \"--CODEGEN--\":33:36   */\n          dup2\n            /* \"--CODEGEN--\":27:37   */\n          sload\n            /* \"--CODEGEN--\":23:41   */\n          add\n            /* \"--CODEGEN--\":57:67   */\n          dup1\n            /* \"--CODEGEN--\":52:55   */\n          dup3\n            /* \"--CODEGEN--\":45:68   */\n          sstore\n            /* \"--CODEGEN--\":79:89   */\n          dup1\n            /* \"--CODEGEN--\":72:89   */\n          swap2\n          pop\n            /* \"--CODEGEN--\":0:93   */\n          pop\n            /* \"producers.sol\":1639:1690   */\n          swap1\n          0x01\n          dup3\n          sub\n          swap1\n          0x00\n          mstore\n          keccak256(0x00, 0x20)\n          add\n          0x00\n          swap1\n          swap2\n          swap3\n          swap1\n          swap2\n          swap1\n          swap2\n          0x0100\n          exp\n          dup2\n          sload\n          dup2\n          0xffffffffffffffffffffffffffffffffffffffff\n          mul\n          not\n          and\n          swap1\n          dup4\n          0xffffffffffffffffffffffffffffffffffffffff\n          and\n          mul\n          or\n          swap1\n          sstore\n          pop\n            /* \"producers.sol\":1639:1694   */\n          sub\n            /* \"producers.sol\":1589:1598   */\n          0x01\n            /* \"producers.sol\":1589:1610   */\n          0x00\n            /* \"producers.sol\":1599:1609   */\n          caller\n            /* \"producers.sol\":1589:1610   */\n          0xffffffffffffffffffffffffffffffffffffffff\n          and\n          0xffffffffffffffffffffffffffffffffffffffff\n          and\n          dup2\n          mstore\n          0x20\n          add\n          swap1\n          dup2\n          mstore\n          0x20\n          add\n          0x00\n          keccak256\n            /* \"producers.sol\":1589:1629   */\n          0x02\n          add\n            /* \"producers.sol\":1589:1636   */\n          0x00\n            /* \"producers.sol\":1630:1635   */\n          dup4\n            /* \"producers.sol\":1589:1636   */\n          0xffffffffffffffffffffffffffffffffffffffff\n          and\n          0xffffffffffffffffffffffffffffffffffffffff\n          and\n          dup2\n          mstore\n          0x20\n          add\n          swap1\n          dup2\n          mstore\n          0x20\n          add\n          0x00\n          keccak256\n            /* \"producers.sol\":1589:1694   */\n          dup2\n          swap1\n          sstore\n          pop\n            /* \"producers.sol\":1727:1732   */\n          dup1\n            /* \"producers.sol\":1720:1732   */\n          swap1\n          pop\n            /* \"producers.sol\":1247:1739   */\n          swap3\n          swap2\n          pop\n          pop\n          jump\t// out\n            /* \"producers.sol\":768:1241   */\n        tag_18:\n            /* \"producers.sol\":853:863   */\n          0x00\n            /* \"producers.sol\":900:920   */\n          dup1\n          0x00\n          swap1\n          sload\n          swap1\n          0x0100\n          exp\n          swap1\n          div\n          0xffffffffffffffffffffffffffffffffffffffff\n          and\n            /* \"producers.sol\":886:920   */\n          0xffffffffffffffffffffffffffffffffffffffff\n          and\n            /* \"producers.sol\":886:896   */\n          caller\n            /* \"producers.sol\":886:920   */\n          0xffffffffffffffffffffffffffffffffffffffff\n          and\n          eq\n            /* \"producers.sol\":878:949   */\n          iszero\n          iszero\n          tag_38\n          jumpi\n          mload(0x40)\n          0x08c379a000000000000000000000000000000000000000000000000000000000\n          dup2\n          mstore\n          0x04\n          add\n          dup1\n          dup1\n          0x20\n          add\n          dup3\n          dup2\n          sub\n          dup3\n          mstore\n          0x18\n          dup2\n          mstore\n          0x20\n          add\n          dup1\n          0x6f6e6c792054432063616e20646f20746869732063616c6c0000000000000000\n          dup2\n          mstore\n          pop\n          0x20\n          add\n          swap2\n          pop\n          pop\n          mload(0x40)\n          dup1\n          swap2\n          sub\n          swap1\n          revert\n        tag_38:\n            /* \"producers.sol\":998:1003   */\n          0x00\n            /* \"producers.sol\":967:1003   */\n          iszero\n          iszero\n            /* \"producers.sol\":967:994   */\n          tag_39\n            /* \"producers.sol\":978:993   */\n          dup5\n            /* \"producers.sol\":967:977   */\n          tag_24\n            /* \"producers.sol\":967:994   */\n          jump\t// in\n        tag_39:\n            /* \"producers.sol\":967:1003   */\n          iszero\n          iszero\n          eq\n            /* \"producers.sol\":959:1041   */\n          iszero\n          iszero\n          tag_40\n          jumpi\n          mload(0x40)\n          0x08c379a000000000000000000000000000000000000000000000000000000000\n          dup2\n          mstore\n          0x04\n          add\n          dup1\n          dup1\n          0x20\n          add\n          dup3\n          dup2\n          sub\n          dup3\n          mstore\n          0x21\n          dup2\n          mstore\n          0x20\n          add\n          dup1\n          data_71be84483766a60e188c806294aeb8cc8e01cd0f8a4d8dd6b2c78fc387536bf9\n          0x21\n          swap2\n          codecopy\n          0x40\n          add\n          swap2\n          pop\n          pop\n          mload(0x40)\n          dup1\n          swap2\n          sub\n          swap1\n          revert\n        tag_40:\n            /* \"producers.sol\":1098:1103   */\n          dup2\n            /* \"producers.sol\":1052:1061   */\n          0x01\n            /* \"producers.sol\":1052:1078   */\n          0x00\n            /* \"producers.sol\":1062:1077   */\n          dup6\n            /* \"producers.sol\":1052:1078   */\n          0xffffffffffffffffffffffffffffffffffffffff\n          and\n          0xffffffffffffffffffffffffffffffffffffffff\n          and\n          dup2\n          mstore\n          0x20\n          add\n          swap1\n          dup2\n          mstore\n          0x20\n          add\n          0x00\n          keccak256\n            /* \"producers.sol\":1052:1095   */\n          0x00\n          add\n            /* \"producers.sol\":1052:1103   */\n          swap1\n          dup1\n          mload\n          swap1\n          0x20\n          add\n          swap1\n          tag_41\n          swap3\n          swap2\n          swap1\n          tag_42\n          jump\t// in\n        tag_41:\n          pop\n            /* \"producers.sol\":1185:1186   */\n          0x01\n            /* \"producers.sol\":1148:1162   */\n          0x02\n            /* \"producers.sol\":1168:1183   */\n          dup5\n            /* \"producers.sol\":1148:1184   */\n          swap1\n          dup1\n            /* \"--CODEGEN--\":39:40   */\n          0x01\n            /* \"--CODEGEN--\":33:36   */\n          dup2\n            /* \"--CODEGEN--\":27:37   */\n          sload\n            /* \"--CODEGEN--\":23:41   */\n          add\n            /* \"--CODEGEN--\":57:67   */\n          dup1\n            /* \"--CODEGEN--\":52:55   */\n          dup3\n            /* \"--CODEGEN--\":45:68   */\n          sstore\n            /* \"--CODEGEN--\":79:89   */\n          dup1\n            /* \"--CODEGEN--\":72:89   */\n          swap2\n          pop\n            /* \"--CODEGEN--\":0:93   */\n          pop\n            /* \"producers.sol\":1148:1184   */\n          swap1\n          0x01\n          dup3\n          sub\n          swap1\n          0x00\n          mstore\n          keccak256(0x00, 0x20)\n          add\n          0x00\n          swap1\n          swap2\n          swap3\n          swap1\n          swap2\n          swap1\n          swap2\n          0x0100\n          exp\n          dup2\n          sload\n          dup2\n          0xffffffffffffffffffffffffffffffffffffffff\n          mul\n          not\n          and\n          swap1\n          dup4\n          0xffffffffffffffffffffffffffffffffffffffff\n          and\n          mul\n          or\n          swap1\n          sstore\n          pop\n            /* \"producers.sol\":1148:1186   */\n          sub\n            /* \"producers.sol\":1113:1122   */\n          0x01\n            /* \"producers.sol\":1113:1139   */\n          0x00\n            /* \"producers.sol\":1123:1138   */\n          dup6\n            /* \"producers.sol\":1113:1139   */\n          0xffffffffffffffffffffffffffffffffffffffff\n          and\n          0xffffffffffffffffffffffffffffffffffffffff\n          and\n          dup2\n          mstore\n          0x20\n          add\n          swap1\n          dup2\n          mstore\n          0x20\n          add\n          0x00\n          keccak256\n            /* \"producers.sol\":1113:1145   */\n          0x01\n          add\n            /* \"producers.sol\":1113:1186   */\n          dup2\n          swap1\n          sstore\n          pop\n            /* \"producers.sol\":1233:1234   */\n          0x01\n            /* \"producers.sol\":1211:1225   */\n          0x02\n            /* \"producers.sol\":1211:1232   */\n          dup1\n          sload\n          swap1\n          pop\n            /* \"producers.sol\":1211:1234   */\n          sub\n            /* \"producers.sol\":1204:1234   */\n          swap1\n          pop\n            /* \"producers.sol\":768:1241   */\n          swap3\n          swap2\n          pop\n          pop\n          jump\t// out\n            /* \"producers.sol\":405:436   */\n        tag_21:\n          0x02\n          dup2\n          dup2\n          sload\n          dup2\n          lt\n          iszero\n          iszero\n          tag_44\n          jumpi\n          invalid\n        tag_44:\n          swap1\n          0x00\n          mstore\n          keccak256(0x00, 0x20)\n          add\n          0x00\n          swap2\n          pop\n          sload\n          swap1\n          0x0100\n          exp\n          swap1\n          div\n          0xffffffffffffffffffffffffffffffffffffffff\n          and\n          dup2\n          jump\t// out\n            /* \"producers.sol\":536:762   */\n        tag_24:\n            /* \"producers.sol\":601:614   */\n          0x00\n            /* \"producers.sol\":654:655   */\n          dup1\n            /* \"producers.sol\":629:643   */\n          0x02\n            /* \"producers.sol\":629:650   */\n          dup1\n          sload\n          swap1\n          pop\n            /* \"producers.sol\":629:655   */\n          eq\n            /* \"producers.sol\":626:669   */\n          iszero\n          tag_47\n          jumpi\n            /* \"producers.sol\":664:669   */\n          0x00\n            /* \"producers.sol\":657:669   */\n          swap1\n          pop\n          jump(tag_46)\n            /* \"producers.sol\":626:669   */\n        tag_47:\n            /* \"producers.sol\":739:754   */\n          dup2\n            /* \"producers.sol\":687:754   */\n          0xffffffffffffffffffffffffffffffffffffffff\n          and\n            /* \"producers.sol\":687:701   */\n          0x02\n            /* \"producers.sol\":702:711   */\n          0x01\n            /* \"producers.sol\":702:728   */\n          0x00\n            /* \"producers.sol\":712:727   */\n          dup6\n            /* \"producers.sol\":702:728   */\n          0xffffffffffffffffffffffffffffffffffffffff\n          and\n          0xffffffffffffffffffffffffffffffffffffffff\n          and\n          dup2\n          mstore\n          0x20\n          add\n          swap1\n          dup2\n          mstore\n          0x20\n          add\n          0x00\n          keccak256\n            /* \"producers.sol\":702:734   */\n          0x01\n          add\n          sload\n            /* \"producers.sol\":687:735   */\n          dup2\n          sload\n          dup2\n          lt\n          iszero\n          iszero\n          tag_48\n          jumpi\n          invalid\n        tag_48:\n          swap1\n          0x00\n          mstore\n          keccak256(0x00, 0x20)\n          add\n          0x00\n          swap1\n          sload\n          swap1\n          0x0100\n          exp\n          swap1\n          div\n          0xffffffffffffffffffffffffffffffffffffffff\n          and\n            /* \"producers.sol\":687:754   */\n          0xffffffffffffffffffffffffffffffffffffffff\n          and\n          eq\n            /* \"producers.sol\":679:755   */\n          swap1\n          pop\n            /* \"producers.sol\":536:762   */\n        tag_46:\n          swap2\n          swap1\n          pop\n          jump\t// out\n            /* \"producers.sol\":48:1742   */\n        tag_30:\n          dataSize(sub_0)\n          dup1\n          dataOffset(sub_0)\n          dup4\n          codecopy\n          add\n          swap1\n          jump\t// out\n        tag_42:\n          dup3\n          dup1\n          sload\n          0x01\n          dup2\n          0x01\n          and\n          iszero\n          0x0100\n          mul\n          sub\n          and\n          0x02\n          swap1\n          div\n          swap1\n          0x00\n          mstore\n          keccak256(0x00, 0x20)\n          swap1\n          0x1f\n          add\n          0x20\n          swap1\n          div\n          dup2\n          add\n          swap3\n          dup3\n          0x1f\n          lt\n          tag_51\n          jumpi\n          dup1\n          mload\n          not(0xff)\n          and\n          dup4\n          dup1\n          add\n          or\n          dup6\n          sstore\n          jump(tag_50)\n        tag_51:\n          dup3\n          dup1\n          add\n          0x01\n          add\n          dup6\n          sstore\n          dup3\n          iszero\n          tag_50\n          jumpi\n          swap2\n          dup3\n          add\n        tag_52:\n          dup3\n          dup2\n          gt\n          iszero\n          tag_53\n          jumpi\n          dup3\n          mload\n          dup3\n          sstore\n          swap2\n          0x20\n          add\n          swap2\n          swap1\n          0x01\n          add\n          swap1\n          jump(tag_52)\n        tag_53:\n        tag_50:\n          pop\n          swap1\n          pop\n          tag_54\n          swap2\n          swap1\n          tag_55\n          jump\t// in\n        tag_54:\n          pop\n          swap1\n          jump\t// out\n        tag_55:\n          tag_56\n          swap2\n          swap1\n        tag_57:\n          dup1\n          dup3\n          gt\n          iszero\n          tag_58\n          jumpi\n          0x00\n          dup2\n          0x00\n          swap1\n          sstore\n          pop\n          0x01\n          add\n          jump(tag_57)\n        tag_58:\n          pop\n          swap1\n          jump\n        tag_56:\n          swap1\n          jump\t// out\n        stop\n        data_71be84483766a60e188c806294aeb8cc8e01cd0f8a4d8dd6b2c78fc387536bf9 50726f647563657220697320616c726561647920696e207468652073797374656d\n\n        sub_0: assembly {\n                /* \"asset.sol\":25:3049   */\n              mstore(0x40, 0x80)\n                /* \"asset.sol\":571:967   */\n              callvalue\n                /* \"--CODEGEN--\":8:17   */\n              dup1\n                /* \"--CODEGEN--\":5:7   */\n              iszero\n              tag_1\n              jumpi\n                /* \"--CODEGEN--\":30:31   */\n              0x00\n                /* \"--CODEGEN--\":27:28   */\n              dup1\n                /* \"--CODEGEN--\":20:32   */\n              revert\n                /* \"--CODEGEN--\":5:7   */\n            tag_1:\n                /* \"asset.sol\":571:967   */\n              pop\n              mload(0x40)\n              sub(codesize, bytecodeSize)\n              dup1\n              bytecodeSize\n              dup4\n              codecopy\n              dup2\n              add\n              dup1\n              0x40\n              mstore\n                /* \"--CODEGEN--\":13:15   */\n              0x40\n                /* \"--CODEGEN--\":8:11   */\n              dup2\n                /* \"--CODEGEN--\":5:16   */\n              lt\n                /* \"--CODEGEN--\":2:4   */\n              iszero\n              tag_2\n              jumpi\n                /* \"--CODEGEN--\":29:30   */\n              0x00\n                /* \"--CODEGEN--\":26:27   */\n              dup1\n                /* \"--CODEGEN--\":19:31   */\n              revert\n                /* \"--CODEGEN--\":2:4   */\n            tag_2:\n                /* \"asset.sol\":571:967   */\n              dup2\n              add\n              swap1\n              dup1\n              dup1\n              mload\n              swap1\n              0x20\n              add\n              swap1\n              swap3\n              swap2\n              swap1\n              dup1\n              mload\n                /* \"--CODEGEN--\":19:30   */\n              0x0100000000\n                /* \"--CODEGEN--\":14:17   */\n              dup2\n                /* \"--CODEGEN--\":11:31   */\n              gt\n                /* \"--CODEGEN--\":8:10   */\n              iszero\n              tag_3\n              jumpi\n                /* \"--CODEGEN--\":44:45   */\n              0x00\n                /* \"--CODEGEN--\":41:42   */\n              dup1\n                /* \"--CODEGEN--\":34:46   */\n              revert\n                /* \"--CODEGEN--\":8:10   */\n            tag_3:\n                /* \"--CODEGEN--\":71:82   */\n              dup3\n                /* \"--CODEGEN--\":66:69   */\n              dup2\n                /* \"--CODEGEN--\":62:83   */\n              add\n                /* \"--CODEGEN--\":55:83   */\n              swap1\n              pop\n                /* \"--CODEGEN--\":123:127   */\n              0x20\n                /* \"--CODEGEN--\":118:121   */\n              dup2\n                /* \"--CODEGEN--\":114:128   */\n              add\n                /* \"--CODEGEN--\":159:168   */\n              dup5\n                /* \"--CODEGEN--\":141:157   */\n              dup2\n                /* \"--CODEGEN--\":138:169   */\n              gt\n                /* \"--CODEGEN--\":135:137   */\n              iszero\n              tag_4\n              jumpi\n                /* \"--CODEGEN--\":182:183   */\n              0x00\n                /* \"--CODEGEN--\":179:180   */\n              dup1\n                /* \"--CODEGEN--\":172:184   */\n              revert\n                /* \"--CODEGEN--\":135:137   */\n            tag_4:\n                /* \"--CODEGEN--\":219:222   */\n              dup2\n                /* \"--CODEGEN--\":213:223   */\n              mload\n                /* \"--CODEGEN--\":330:339   */\n              dup6\n                /* \"--CODEGEN--\":325:326   */\n              0x01\n                /* \"--CODEGEN--\":311:323   */\n              dup3\n                /* \"--CODEGEN--\":307:327   */\n              mul\n                /* \"--CODEGEN--\":289:305   */\n              dup4\n                /* \"--CODEGEN--\":285:328   */\n              add\n                /* \"--CODEGEN--\":282:340   */\n              gt\n                /* \"--CODEGEN--\":261:272   */\n              0x0100000000\n                /* \"--CODEGEN--\":247:259   */\n              dup3\n                /* \"--CODEGEN--\":244:273   */\n              gt\n                /* \"--CODEGEN--\":233:348   */\n              or\n                /* \"--CODEGEN--\":230:232   */\n              iszero\n              tag_5\n              jumpi\n                /* \"--CODEGEN--\":361:362   */\n              0x00\n                /* \"--CODEGEN--\":358:359   */\n              dup1\n                /* \"--CODEGEN--\":351:363   */\n              revert\n                /* \"--CODEGEN--\":230:232   */\n            tag_5:\n                /* \"--CODEGEN--\":0:372   */\n              pop\n              pop\n                /* \"asset.sol\":571:967   */\n              swap3\n              swap2\n              swap1\n              pop\n              pop\n              pop\n                /* \"asset.sol\":668:678   */\n              caller\n                /* \"asset.sol\":645:665   */\n              0x00\n              0x01\n                /* \"asset.sol\":645:678   */\n              0x0100\n              exp\n              dup2\n              sload\n              dup2\n              0xffffffffffffffffffffffffffffffffffffffff\n              mul\n              not\n              and\n              swap1\n              dup4\n              0xffffffffffffffffffffffffffffffffffffffff\n              and\n              mul\n              or\n              swap1\n              sstore\n              pop\n                /* \"asset.sol\":701:719   */\n              0x00\n                /* \"asset.sol\":688:698   */\n              dup1\n              0x00\n                /* \"asset.sol\":688:719   */\n              0x0100\n              exp\n              dup2\n              sload\n              dup2\n              0xff\n              mul\n              not\n              and\n              swap1\n              dup4\n              0x04\n              dup2\n              gt\n              iszero\n              tag_8\n              jumpi\n              invalid\n            tag_8:\n              mul\n              or\n              swap1\n              sstore\n              pop\n                /* \"asset.sol\":737:745   */\n              dup2\n                /* \"asset.sol\":729:734   */\n              0x01\n              0x00\n                /* \"asset.sol\":729:745   */\n              0x0100\n              exp\n              dup2\n              sload\n              dup2\n              0xffffffffffffffffffffffffffffffffffffffff\n              mul\n              not\n              and\n              swap1\n              dup4\n              0xffffffffffffffffffffffffffffffffffffffff\n              and\n              mul\n              or\n              swap1\n              sstore\n              pop\n                /* \"asset.sol\":756:776   */\n              tag_9\n              tag_10\n              jump\t// in\n            tag_9:\n                /* \"asset.sol\":806:830   */\n              0x00\n                /* \"asset.sol\":786:787   */\n              dup2\n                /* \"asset.sol\":786:803   */\n              0x00\n              add\n                /* \"asset.sol\":786:830   */\n              swap1\n              0x05\n              dup2\n              gt\n              iszero\n              tag_11\n              jumpi\n              invalid\n            tag_11:\n              swap1\n              dup2\n              0x05\n              dup2\n              gt\n              iszero\n              tag_12\n              jumpi\n              invalid\n            tag_12:\n              dup2\n              mstore\n              pop\n              pop\n                /* \"asset.sol\":856:868   */\n              dup2\n                /* \"asset.sol\":840:841   */\n              dup2\n                /* \"asset.sol\":840:853   */\n              0x60\n              add\n                /* \"asset.sol\":840:868   */\n              dup2\n              swap1\n              mstore\n              pop\n                /* \"asset.sol\":891:899   */\n              dup3\n                /* \"asset.sol\":878:879   */\n              dup2\n                /* \"asset.sol\":878:888   */\n              0x20\n              add\n                /* \"asset.sol\":878:899   */\n              swap1\n              0xffffffffffffffffffffffffffffffffffffffff\n              and\n              swap1\n              dup2\n              0xffffffffffffffffffffffffffffffffffffffff\n              and\n              dup2\n              mstore\n              pop\n              pop\n                /* \"asset.sol\":918:921   */\n              timestamp\n                /* \"asset.sol\":909:910   */\n              dup2\n                /* \"asset.sol\":909:915   */\n              0x80\n              add\n                /* \"asset.sol\":909:921   */\n              dup2\n              dup2\n              mstore\n              pop\n              pop\n                /* \"asset.sol\":931:943   */\n              0x02\n                /* \"asset.sol\":949:950   */\n              dup2\n                /* \"asset.sol\":931:951   */\n              swap1\n              dup1\n                /* \"--CODEGEN--\":39:40   */\n              0x01\n                /* \"--CODEGEN--\":33:36   */\n              dup2\n                /* \"--CODEGEN--\":27:37   */\n              sload\n                /* \"--CODEGEN--\":23:41   */\n              add\n                /* \"--CODEGEN--\":57:67   */\n              dup1\n                /* \"--CODEGEN--\":52:55   */\n              dup3\n                /* \"--CODEGEN--\":45:68   */\n              sstore\n                /* \"--CODEGEN--\":79:89   */\n              dup1\n                /* \"--CODEGEN--\":72:89   */\n              swap2\n              pop\n                /* \"--CODEGEN--\":0:93   */\n              pop\n                /* \"asset.sol\":931:951   */\n              swap1\n              0x01\n              dup3\n              sub\n              swap1\n              0x00\n              mstore\n              keccak256(0x00, 0x20)\n              swap1\n              0x04\n              mul\n              add\n              0x00\n              swap1\n              swap2\n              swap3\n              swap1\n              swap2\n              swap1\n              swap2\n              pop\n              0x00\n              dup3\n              add\n              mload\n              dup2\n              0x00\n              add\n              exp(0x0100, 0x00)\n              dup2\n              sload\n              dup2\n              0xff\n              mul\n              not\n              and\n              swap1\n              dup4\n              0x05\n              dup2\n              gt\n              iszero\n              tag_14\n              jumpi\n              invalid\n            tag_14:\n              mul\n              or\n              swap1\n              sstore\n              pop\n              0x20\n              dup3\n              add\n              mload\n              dup2\n              0x00\n              add\n              exp(0x0100, 0x01)\n              dup2\n              sload\n              dup2\n              0xffffffffffffffffffffffffffffffffffffffff\n              mul\n              not\n              and\n              swap1\n              dup4\n              0xffffffffffffffffffffffffffffffffffffffff\n              and\n              mul\n              or\n              swap1\n              sstore\n              pop\n              0x40\n              dup3\n              add\n              mload\n              dup2\n              0x01\n              add\n              exp(0x0100, 0x00)\n              dup2\n              sload\n              dup2\n              0xffffffffffffffffffffffffffffffffffffffff\n              mul\n              not\n              and\n              swap1\n              dup4\n              0xffffffffffffffffffffffffffffffffffffffff\n              and\n              mul\n              or\n              swap1\n              sstore\n              pop\n              0x60\n              dup3\n              add\n              mload\n              dup2\n              0x02\n              add\n              swap1\n              dup1\n              mload\n              swap1\n              0x20\n              add\n              swap1\n              tag_15\n              swap3\n              swap2\n              swap1\n              tag_16\n              jump\t// in\n            tag_15:\n              pop\n              0x80\n              dup3\n              add\n              mload\n              dup2\n              0x03\n              add\n              sstore\n              pop\n              pop\n              pop\n                /* \"asset.sol\":571:967   */\n              pop\n              pop\n              pop\n                /* \"asset.sol\":25:3049   */\n              jump(tag_17)\n            tag_10:\n              0xa0\n              mload(0x40)\n              swap1\n              dup2\n              add\n              0x40\n              mstore\n              dup1\n              0x00\n              0x05\n              dup2\n              gt\n              iszero\n              tag_18\n              jumpi\n              invalid\n            tag_18:\n              dup2\n              mstore\n              0x20\n              add\n              and(0xffffffffffffffffffffffffffffffffffffffff, 0x00)\n              dup2\n              mstore\n              0x20\n              add\n              and(0xffffffffffffffffffffffffffffffffffffffff, 0x00)\n              dup2\n              mstore\n              0x20\n              add\n              0x60\n              dup2\n              mstore\n              0x20\n              add\n              0x00\n              dup2\n              mstore\n              pop\n              swap1\n              jump\t// out\n            tag_16:\n              dup3\n              dup1\n              sload\n              0x01\n              dup2\n              0x01\n              and\n              iszero\n              0x0100\n              mul\n              sub\n              and\n              0x02\n              swap1\n              div\n              swap1\n              0x00\n              mstore\n              keccak256(0x00, 0x20)\n              swap1\n              0x1f\n              add\n              0x20\n              swap1\n              div\n              dup2\n              add\n              swap3\n              dup3\n              0x1f\n              lt\n              tag_20\n              jumpi\n              dup1\n              mload\n              not(0xff)\n              and\n              dup4\n              dup1\n              add\n              or\n              dup6\n              sstore\n              jump(tag_19)\n            tag_20:\n              dup3\n              dup1\n              add\n              0x01\n              add\n              dup6\n              sstore\n              dup3\n              iszero\n              tag_19\n              jumpi\n              swap2\n              dup3\n              add\n            tag_21:\n              dup3\n              dup2\n              gt\n              iszero\n              tag_22\n              jumpi\n              dup3\n              mload\n              dup3\n              sstore\n              swap2\n              0x20\n              add\n              swap2\n              swap1\n              0x01\n              add\n              swap1\n              jump(tag_21)\n            tag_22:\n            tag_19:\n              pop\n              swap1\n              pop\n              tag_23\n              swap2\n              swap1\n              tag_24\n              jump\t// in\n            tag_23:\n              pop\n              swap1\n              jump\t// out\n            tag_24:\n              tag_25\n              swap2\n              swap1\n            tag_26:\n              dup1\n              dup3\n              gt\n              iszero\n              tag_27\n              jumpi\n              0x00\n              dup2\n              0x00\n              swap1\n              sstore\n              pop\n              0x01\n              add\n              jump(tag_26)\n            tag_27:\n              pop\n              swap1\n              jump\n            tag_25:\n              swap1\n              jump\t// out\n            tag_17:\n              dataSize(sub_0)\n              dup1\n              dataOffset(sub_0)\n              0x00\n              codecopy\n              0x00\n              return\n            stop\n\n            sub_0: assembly {\n                    /* \"asset.sol\":25:3049   */\n                  mstore(0x40, 0x80)\n                  callvalue\n                    /* \"--CODEGEN--\":8:17   */\n                  dup1\n                    /* \"--CODEGEN--\":5:7   */\n                  iszero\n                  tag_1\n                  jumpi\n                    /* \"--CODEGEN--\":30:31   */\n                  0x00\n                    /* \"--CODEGEN--\":27:28   */\n                  dup1\n                    /* \"--CODEGEN--\":20:32   */\n                  revert\n                    /* \"--CODEGEN--\":5:7   */\n                tag_1:\n                    /* \"asset.sol\":25:3049   */\n                  pop\n                  jumpi(tag_2, lt(calldatasize, 0x04))\n                  calldataload(0x00)\n                  0x0100000000000000000000000000000000000000000000000000000000\n                  swap1\n                  div\n                  dup1\n                  0x9ace38c2\n                  gt\n                  tag_11\n                  jumpi\n                  dup1\n                  0x9ace38c2\n                  eq\n                  tag_7\n                  jumpi\n                  dup1\n                  0xa4d62f9a\n                  eq\n                  tag_8\n                  jumpi\n                  dup1\n                  0xb98c19c4\n                  eq\n                  tag_9\n                  jumpi\n                  dup1\n                  0xcbd056c8\n                  eq\n                  tag_10\n                  jumpi\n                  jump(tag_2)\n                tag_11:\n                  dup1\n                  0x0b41573f\n                  eq\n                  tag_3\n                  jumpi\n                  dup1\n                  0x79ca5ca4\n                  eq\n                  tag_4\n                  jumpi\n                  dup1\n                  0x8da5cb5b\n                  eq\n                  tag_5\n                  jumpi\n                  dup1\n                  0x98fa582a\n                  eq\n                  tag_6\n                  jumpi\n                tag_2:\n                  0x00\n                  dup1\n                  revert\n                    /* \"asset.sol\":1838:2256   */\n                tag_3:\n                  tag_12\n                  0x04\n                  dup1\n                  calldatasize\n                  sub\n                    /* \"--CODEGEN--\":13:15   */\n                  0x40\n                    /* \"--CODEGEN--\":8:11   */\n                  dup2\n                    /* \"--CODEGEN--\":5:16   */\n                  lt\n                    /* \"--CODEGEN--\":2:4   */\n                  iszero\n                  tag_13\n                  jumpi\n                    /* \"--CODEGEN--\":29:30   */\n                  0x00\n                    /* \"--CODEGEN--\":26:27   */\n                  dup1\n                    /* \"--CODEGEN--\":19:31   */\n                  revert\n                    /* \"--CODEGEN--\":2:4   */\n                tag_13:\n                    /* \"asset.sol\":1838:2256   */\n                  dup2\n                  add\n                  swap1\n                  dup1\n                  dup1\n                  calldataload\n                  0xffffffffffffffffffffffffffffffffffffffff\n                  and\n                  swap1\n                  0x20\n                  add\n                  swap1\n                  swap3\n                  swap2\n                  swap1\n                  dup1\n                  calldataload\n                  0xffffffffffffffffffffffffffffffffffffffff\n                  and\n                  swap1\n                  0x20\n                  add\n                  swap1\n                  swap3\n                  swap2\n                  swap1\n                  pop\n                  pop\n                  pop\n                  tag_14\n                  jump\t// in\n                tag_12:\n                  stop\n                    /* \"asset.sol\":973:1484   */\n                tag_4:\n                  tag_15\n                  0x04\n                  dup1\n                  calldatasize\n                  sub\n                    /* \"--CODEGEN--\":13:15   */\n                  0x40\n                    /* \"--CODEGEN--\":8:11   */\n                  dup2\n                    /* \"--CODEGEN--\":5:16   */\n                  lt\n                    /* \"--CODEGEN--\":2:4   */\n                  iszero\n                  tag_16\n                  jumpi\n                    /* \"--CODEGEN--\":29:30   */\n                  0x00\n                    /* \"--CODEGEN--\":26:27   */\n                  dup1\n                    /* \"--CODEGEN--\":19:31   */\n                  revert\n                    /* \"--CODEGEN--\":2:4   */\n                tag_16:\n                    /* \"asset.sol\":973:1484   */\n                  dup2\n                  add\n                  swap1\n                  dup1\n                  dup1\n                  calldataload\n                  0xffffffffffffffffffffffffffffffffffffffff\n                  and\n                  swap1\n                  0x20\n                  add\n                  swap1\n                  swap3\n                  swap2\n                  swap1\n                  dup1\n                  calldataload\n                  0xffffffffffffffffffffffffffffffffffffffff\n                  and\n                  swap1\n                  0x20\n                  add\n                  swap1\n                  swap3\n                  swap2\n                  swap1\n                  pop\n                  pop\n                  pop\n                  tag_17\n                  jump\t// in\n                tag_15:\n                  stop\n                    /* \"asset.sol\":505:525   */\n                tag_5:\n                  tag_18\n                  tag_19\n                  jump\t// in\n                tag_18:\n                  mload(0x40)\n                  dup1\n                  dup3\n                  0xffffffffffffffffffffffffffffffffffffffff\n                  and\n                  0xffffffffffffffffffffffffffffffffffffffff\n                  and\n                  dup2\n                  mstore\n                  0x20\n                  add\n                  swap2\n                  pop\n                  pop\n                  mload(0x40)\n                  dup1\n                  swap2\n                  sub\n                  swap1\n                  return\n                    /* \"asset.sol\":436:464   */\n                tag_6:\n                  tag_20\n                  tag_21\n                  jump\t// in\n                tag_20:\n                  mload(0x40)\n                  dup1\n                  dup3\n                  0x04\n                  dup2\n                  gt\n                  iszero\n                  tag_22\n                  jumpi\n                  invalid\n                tag_22:\n                  0xff\n                  and\n                  dup2\n                  mstore\n                  0x20\n                  add\n                  swap2\n                  pop\n                  pop\n                  mload(0x40)\n                  dup1\n                  swap2\n                  sub\n                  swap1\n                  return\n                    /* \"asset.sol\":531:564   */\n                tag_7:\n                  tag_23\n                  0x04\n                  dup1\n                  calldatasize\n                  sub\n                    /* \"--CODEGEN--\":13:15   */\n                  0x20\n                    /* \"--CODEGEN--\":8:11   */\n                  dup2\n                    /* \"--CODEGEN--\":5:16   */\n                  lt\n                    /* \"--CODEGEN--\":2:4   */\n                  iszero\n                  tag_24\n                  jumpi\n                    /* \"--CODEGEN--\":29:30   */\n                  0x00\n                    /* \"--CODEGEN--\":26:27   */\n                  dup1\n                    /* \"--CODEGEN--\":19:31   */\n                  revert\n                    /* \"--CODEGEN--\":2:4   */\n                tag_24:\n                    /* \"asset.sol\":531:564   */\n                  dup2\n                  add\n                  swap1\n                  dup1\n                  dup1\n                  calldataload\n                  swap1\n                  0x20\n                  add\n                  swap1\n                  swap3\n                  swap2\n                  swap1\n                  pop\n                  pop\n                  pop\n                  tag_25\n                  jump\t// in\n                tag_23:\n                  mload(0x40)\n                  dup1\n                  dup7\n                  0x05\n                  dup2\n                  gt\n                  iszero\n                  tag_26\n                  jumpi\n                  invalid\n                tag_26:\n                  0xff\n                  and\n                  dup2\n                  mstore\n                  0x20\n                  add\n                  dup6\n                  0xffffffffffffffffffffffffffffffffffffffff\n                  and\n                  0xffffffffffffffffffffffffffffffffffffffff\n                  and\n                  dup2\n                  mstore\n                  0x20\n                  add\n                  dup5\n                  0xffffffffffffffffffffffffffffffffffffffff\n                  and\n                  0xffffffffffffffffffffffffffffffffffffffff\n                  and\n                  dup2\n                  mstore\n                  0x20\n                  add\n                  dup1\n                  0x20\n                  add\n                  dup4\n                  dup2\n                  mstore\n                  0x20\n                  add\n                  dup3\n                  dup2\n                  sub\n                  dup3\n                  mstore\n                  dup5\n                  dup2\n                  dup2\n                  mload\n                  dup2\n                  mstore\n                  0x20\n                  add\n                  swap2\n                  pop\n                  dup1\n                  mload\n                  swap1\n                  0x20\n                  add\n                  swap1\n                  dup1\n                  dup4\n                  dup4\n                    /* \"--CODEGEN--\":23:24   */\n                  0x00\n                    /* \"--CODEGEN--\":8:108   */\n                tag_27:\n                    /* \"--CODEGEN--\":33:36   */\n                  dup4\n                    /* \"--CODEGEN--\":30:31   */\n                  dup2\n                    /* \"--CODEGEN--\":27:37   */\n                  lt\n                    /* \"--CODEGEN--\":8:108   */\n                  iszero\n                  tag_28\n                  jumpi\n                    /* \"--CODEGEN--\":99:100   */\n                  dup1\n                    /* \"--CODEGEN--\":94:97   */\n                  dup3\n                    /* \"--CODEGEN--\":90:101   */\n                  add\n                    /* \"--CODEGEN--\":84:102   */\n                  mload\n                    /* \"--CODEGEN--\":80:81   */\n                  dup2\n                    /* \"--CODEGEN--\":75:78   */\n                  dup5\n                    /* \"--CODEGEN--\":71:82   */\n                  add\n                    /* \"--CODEGEN--\":64:103   */\n                  mstore\n                    /* \"--CODEGEN--\":52:54   */\n                  0x20\n                    /* \"--CODEGEN--\":49:50   */\n                  dup2\n                    /* \"--CODEGEN--\":45:55   */\n                  add\n                    /* \"--CODEGEN--\":40:55   */\n                  swap1\n                  pop\n                    /* \"--CODEGEN--\":8:108   */\n                  jump(tag_27)\n                tag_28:\n                    /* \"--CODEGEN--\":12:26   */\n                  pop\n                    /* \"asset.sol\":531:564   */\n                  pop\n                  pop\n                  pop\n                  swap1\n                  pop\n                  swap1\n                  dup2\n                  add\n                  swap1\n                  0x1f\n                  and\n                  dup1\n                  iszero\n                  tag_30\n                  jumpi\n                  dup1\n                  dup3\n                  sub\n                  dup1\n                  mload\n                  0x01\n                  dup4\n                  0x20\n                  sub\n                  0x0100\n                  exp\n                  sub\n                  not\n                  and\n                  dup2\n                  mstore\n                  0x20\n                  add\n                  swap2\n                  pop\n                tag_30:\n                  pop\n                  swap7\n                  pop\n                  pop\n                  pop\n                  pop\n                  pop\n                  pop\n                  pop\n                  mload(0x40)\n                  dup1\n                  swap2\n                  sub\n                  swap1\n                  return\n                    /* \"asset.sol\":2262:2598   */\n                tag_8:\n                  tag_31\n                  tag_32\n                  jump\t// in\n                tag_31:\n                  stop\n                    /* \"asset.sol\":2604:3047   */\n                tag_9:\n                  tag_33\n                  tag_34\n                  jump\t// in\n                tag_33:\n                  mload(0x40)\n                  dup1\n                  dup4\n                  0xffffffffffffffffffffffffffffffffffffffff\n                  and\n                  0xffffffffffffffffffffffffffffffffffffffff\n                  and\n                  dup2\n                  mstore\n                  0x20\n                  add\n                  dup3\n                  0xffffffffffffffffffffffffffffffffffffffff\n                  and\n                  0xffffffffffffffffffffffffffffffffffffffff\n                  and\n                  dup2\n                  mstore\n                  0x20\n                  add\n                  swap3\n                  pop\n                  pop\n                  pop\n                  mload(0x40)\n                  dup1\n                  swap2\n                  sub\n                  swap1\n                  return\n                    /* \"asset.sol\":1490:1832   */\n                tag_10:\n                  tag_35\n                  tag_36\n                  jump\t// in\n                tag_35:\n                  stop\n                    /* \"asset.sol\":1838:2256   */\n                tag_14:\n                    /* \"asset.sol\":1927:1932   */\n                  0x01\n                  0x00\n                  swap1\n                  sload\n                  swap1\n                  0x0100\n                  exp\n                  swap1\n                  div\n                  0xffffffffffffffffffffffffffffffffffffffff\n                  and\n                    /* \"asset.sol\":1918:1932   */\n                  0xffffffffffffffffffffffffffffffffffffffff\n                  and\n                    /* \"asset.sol\":1918:1923   */\n                  dup3\n                    /* \"asset.sol\":1918:1932   */\n                  0xffffffffffffffffffffffffffffffffffffffff\n                  and\n                  eq\n                    /* \"asset.sol\":1910:1986   */\n                  iszero\n                  iszero\n                  tag_38\n                  jumpi\n                  mload(0x40)\n                  0x08c379a000000000000000000000000000000000000000000000000000000000\n                  dup2\n                  mstore\n                  0x04\n                  add\n                  dup1\n                  dup1\n                  0x20\n                  add\n                  dup3\n                  dup2\n                  sub\n                  dup3\n                  mstore\n                  0x31\n                  dup2\n                  mstore\n                  0x20\n                  add\n                  dup1\n                  data_1791ac5ffd0fc84d6c5699accf1f612856b55a4ed297082dae1a6770055503e1\n                  0x31\n                  swap2\n                  codecopy\n                  0x40\n                  add\n                  swap2\n                  pop\n                  pop\n                  mload(0x40)\n                  dup1\n                  swap2\n                  sub\n                  swap1\n                  revert\n                tag_38:\n                    /* \"asset.sol\":2017:2042   */\n                  0x03\n                    /* \"asset.sol\":2004:2014   */\n                  0x00\n                  dup1\n                    /* \"asset.sol\":2004:2042   */\n                  0x0100\n                  exp\n                  dup2\n                  sload\n                  dup2\n                  0xff\n                  mul\n                  not\n                  and\n                  swap1\n                  dup4\n                  0x04\n                  dup2\n                  gt\n                  iszero\n                  tag_39\n                  jumpi\n                  invalid\n                tag_39:\n                  mul\n                  or\n                  swap1\n                  sstore\n                  pop\n                    /* \"asset.sol\":2052:2073   */\n                  tag_40\n                  tag_41\n                  jump\t// in\n                tag_40:\n                    /* \"asset.sol\":2104:2139   */\n                  0x03\n                    /* \"asset.sol\":2083:2085   */\n                  dup2\n                    /* \"asset.sol\":2083:2101   */\n                  0x00\n                  add\n                    /* \"asset.sol\":2083:2139   */\n                  swap1\n                  0x05\n                  dup2\n                  gt\n                  iszero\n                  tag_42\n                  jumpi\n                  invalid\n                tag_42:\n                  swap1\n                  dup2\n                  0x05\n                  dup2\n                  gt\n                  iszero\n                  tag_43\n                  jumpi\n                  invalid\n                tag_43:\n                  dup2\n                  mstore\n                  pop\n                  pop\n                    /* \"asset.sol\":2163:2168   */\n                  dup3\n                    /* \"asset.sol\":2149:2151   */\n                  dup2\n                    /* \"asset.sol\":2149:2160   */\n                  0x20\n                  add\n                    /* \"asset.sol\":2149:2168   */\n                  swap1\n                  0xffffffffffffffffffffffffffffffffffffffff\n                  and\n                  swap1\n                  dup2\n                  0xffffffffffffffffffffffffffffffffffffffff\n                  and\n                  dup2\n                  mstore\n                  pop\n                  pop\n                    /* \"asset.sol\":2192:2195   */\n                  dup2\n                    /* \"asset.sol\":2178:2180   */\n                  dup2\n                    /* \"asset.sol\":2178:2189   */\n                  0x40\n                  add\n                    /* \"asset.sol\":2178:2195   */\n                  swap1\n                  0xffffffffffffffffffffffffffffffffffffffff\n                  and\n                  swap1\n                  dup2\n                  0xffffffffffffffffffffffffffffffffffffffff\n                  and\n                  dup2\n                  mstore\n                  pop\n                  pop\n                    /* \"asset.sol\":2215:2218   */\n                  timestamp\n                    /* \"asset.sol\":2205:2207   */\n                  dup2\n                    /* \"asset.sol\":2205:2212   */\n                  0x80\n                  add\n                    /* \"asset.sol\":2205:2218   */\n                  dup2\n                  dup2\n                  mstore\n                  pop\n                  pop\n                    /* \"asset.sol\":2228:2240   */\n                  0x02\n                    /* \"asset.sol\":2246:2248   */\n                  dup2\n                    /* \"asset.sol\":2228:2249   */\n                  swap1\n                  dup1\n                    /* \"--CODEGEN--\":39:40   */\n                  0x01\n                    /* \"--CODEGEN--\":33:36   */\n                  dup2\n                    /* \"--CODEGEN--\":27:37   */\n                  sload\n                    /* \"--CODEGEN--\":23:41   */\n                  add\n                    /* \"--CODEGEN--\":57:67   */\n                  dup1\n                    /* \"--CODEGEN--\":52:55   */\n                  dup3\n                    /* \"--CODEGEN--\":45:68   */\n                  sstore\n                    /* \"--CODEGEN--\":79:89   */\n                  dup1\n                    /* \"--CODEGEN--\":72:89   */\n                  swap2\n                  pop\n                    /* \"--CODEGEN--\":0:93   */\n                  pop\n                    /* \"asset.sol\":2228:2249   */\n                  swap1\n                  0x01\n                  dup3\n                  sub\n                  swap1\n                  0x00\n                  mstore\n                  keccak256(0x00, 0x20)\n                  swap1\n                  0x04\n                  mul\n                  add\n                  0x00\n                  swap1\n                  swap2\n                  swap3\n                  swap1\n                  swap2\n                  swap1\n                  swap2\n                  pop\n                  0x00\n                  dup3\n                  add\n                  mload\n                  dup2\n                  0x00\n                  add\n                  exp(0x0100, 0x00)\n                  dup2\n                  sload\n                  dup2\n                  0xff\n                  mul\n                  not\n                  and\n                  swap1\n                  dup4\n                  0x05\n                  dup2\n                  gt\n                  iszero\n                  tag_45\n                  jumpi\n                  invalid\n                tag_45:\n                  mul\n                  or\n                  swap1\n                  sstore\n                  pop\n                  0x20\n                  dup3\n                  add\n                  mload\n                  dup2\n                  0x00\n                  add\n                  exp(0x0100, 0x01)\n                  dup2\n                  sload\n                  dup2\n                  0xffffffffffffffffffffffffffffffffffffffff\n                  mul\n                  not\n                  and\n                  swap1\n                  dup4\n                  0xffffffffffffffffffffffffffffffffffffffff\n                  and\n                  mul\n                  or\n                  swap1\n                  sstore\n                  pop\n                  0x40\n                  dup3\n                  add\n                  mload\n                  dup2\n                  0x01\n                  add\n                  exp(0x0100, 0x00)\n                  dup2\n                  sload\n                  dup2\n                  0xffffffffffffffffffffffffffffffffffffffff\n                  mul\n                  not\n                  and\n                  swap1\n                  dup4\n                  0xffffffffffffffffffffffffffffffffffffffff\n                  and\n                  mul\n                  or\n                  swap1\n                  sstore\n                  pop\n                  0x60\n                  dup3\n                  add\n                  mload\n                  dup2\n                  0x02\n                  add\n                  swap1\n                  dup1\n                  mload\n                  swap1\n                  0x20\n                  add\n                  swap1\n                  tag_46\n                  swap3\n                  swap2\n                  swap1\n                  tag_47\n                  jump\t// in\n                tag_46:\n                  pop\n                  0x80\n                  dup3\n                  add\n                  mload\n                  dup2\n                  0x03\n                  add\n                  sstore\n                  pop\n                  pop\n                  pop\n                    /* \"asset.sol\":1838:2256   */\n                  pop\n                  pop\n                  pop\n                  jump\t// out\n                    /* \"asset.sol\":973:1484   */\n                tag_17:\n                    /* \"asset.sol\":1059:1064   */\n                  0x01\n                  0x00\n                  swap1\n                  sload\n                  swap1\n                  0x0100\n                  exp\n                  swap1\n                  div\n                  0xffffffffffffffffffffffffffffffffffffffff\n                  and\n                    /* \"asset.sol\":1050:1064   */\n                  0xffffffffffffffffffffffffffffffffffffffff\n                  and\n                    /* \"asset.sol\":1050:1055   */\n                  dup3\n                    /* \"asset.sol\":1050:1064   */\n                  0xffffffffffffffffffffffffffffffffffffffff\n                  and\n                  eq\n                    /* \"asset.sol\":1042:1114   */\n                  iszero\n                  iszero\n                  tag_49\n                  jumpi\n                  mload(0x40)\n                  0x08c379a000000000000000000000000000000000000000000000000000000000\n                  dup2\n                  mstore\n                  0x04\n                  add\n                  dup1\n                  dup1\n                  0x20\n                  add\n                  dup3\n                  dup2\n                  sub\n                  dup3\n                  mstore\n                  0x2d\n                  dup2\n                  mstore\n                  0x20\n                  add\n                  dup1\n                  data_f14d2f82c5fccb17b8a7a32c859665bf5153b90fc4a53b88a7c0943fc46629da\n                  0x2d\n                  swap2\n                  codecopy\n                  0x40\n                  add\n                  swap2\n                  pop\n                  pop\n                  mload(0x40)\n                  dup1\n                  swap2\n                  sub\n                  swap1\n                  revert\n                tag_49:\n                    /* \"asset.sol\":1146:1164   */\n                  0x00\n                    /* \"asset.sol\":1132:1164   */\n                  0x04\n                  dup2\n                  gt\n                  iszero\n                  tag_50\n                  jumpi\n                  invalid\n                tag_50:\n                    /* \"asset.sol\":1132:1142   */\n                  0x00\n                  dup1\n                  swap1\n                  sload\n                  swap1\n                  0x0100\n                  exp\n                  swap1\n                  div\n                  0xff\n                  and\n                    /* \"asset.sol\":1132:1164   */\n                  0x04\n                  dup2\n                  gt\n                  iszero\n                  tag_51\n                  jumpi\n                  invalid\n                tag_51:\n                  eq\n                    /* \"asset.sol\":1124:1218   */\n                  iszero\n                  iszero\n                  tag_52\n                  jumpi\n                  mload(0x40)\n                  0x08c379a000000000000000000000000000000000000000000000000000000000\n                  dup2\n                  mstore\n                  0x04\n                  add\n                  dup1\n                  dup1\n                  0x20\n                  add\n                  dup3\n                  dup2\n                  sub\n                  dup3\n                  mstore\n                  0x31\n                  dup2\n                  mstore\n                  0x20\n                  add\n                  dup1\n                  data_7cf259c1c9db9cdb02a56d1e6529a285eba27e32b4d75d4b451f221b0c3f1c25\n                  0x31\n                  swap2\n                  codecopy\n                  0x40\n                  add\n                  swap2\n                  pop\n                  pop\n                  mload(0x40)\n                  dup1\n                  swap2\n                  sub\n                  swap1\n                  revert\n                tag_52:\n                    /* \"asset.sol\":1241:1268   */\n                  0x01\n                    /* \"asset.sol\":1228:1238   */\n                  0x00\n                  dup1\n                    /* \"asset.sol\":1228:1268   */\n                  0x0100\n                  exp\n                  dup2\n                  sload\n                  dup2\n                  0xff\n                  mul\n                  not\n                  and\n                  swap1\n                  dup4\n                  0x04\n                  dup2\n                  gt\n                  iszero\n                  tag_53\n                  jumpi\n                  invalid\n                tag_53:\n                  mul\n                  or\n                  swap1\n                  sstore\n                  pop\n                    /* \"asset.sol\":1278:1299   */\n                  tag_54\n                  tag_41\n                  jump\t// in\n                tag_54:\n                    /* \"asset.sol\":1330:1367   */\n                  0x01\n                    /* \"asset.sol\":1309:1311   */\n                  dup2\n                    /* \"asset.sol\":1309:1327   */\n                  0x00\n                  add\n                    /* \"asset.sol\":1309:1367   */\n                  swap1\n                  0x05\n                  dup2\n                  gt\n                  iszero\n                  tag_55\n                  jumpi\n                  invalid\n                tag_55:\n                  swap1\n                  dup2\n                  0x05\n                  dup2\n                  gt\n                  iszero\n                  tag_56\n                  jumpi\n                  invalid\n                tag_56:\n                  dup2\n                  mstore\n                  pop\n                  pop\n                    /* \"asset.sol\":1391:1396   */\n                  dup3\n                    /* \"asset.sol\":1377:1379   */\n                  dup2\n                    /* \"asset.sol\":1377:1388   */\n                  0x20\n                  add\n                    /* \"asset.sol\":1377:1396   */\n                  swap1\n                  0xffffffffffffffffffffffffffffffffffffffff\n                  and\n                  swap1\n                  dup2\n                  0xffffffffffffffffffffffffffffffffffffffff\n                  and\n                  dup2\n                  mstore\n                  pop\n                  pop\n                    /* \"asset.sol\":1420:1423   */\n                  dup2\n                    /* \"asset.sol\":1406:1408   */\n                  dup2\n                    /* \"asset.sol\":1406:1417   */\n                  0x40\n                  add\n                    /* \"asset.sol\":1406:1423   */\n                  swap1\n                  0xffffffffffffffffffffffffffffffffffffffff\n                  and\n                  swap1\n                  dup2\n                  0xffffffffffffffffffffffffffffffffffffffff\n                  and\n                  dup2\n                  mstore\n                  pop\n                  pop\n                    /* \"asset.sol\":1443:1446   */\n                  timestamp\n                    /* \"asset.sol\":1433:1435   */\n                  dup2\n                    /* \"asset.sol\":1433:1440   */\n                  0x80\n                  add\n                    /* \"asset.sol\":1433:1446   */\n                  dup2\n                  dup2\n                  mstore\n                  pop\n                  pop\n                    /* \"asset.sol\":1456:1468   */\n                  0x02\n                    /* \"asset.sol\":1474:1476   */\n                  dup2\n                    /* \"asset.sol\":1456:1477   */\n                  swap1\n                  dup1\n                    /* \"--CODEGEN--\":39:40   */\n                  0x01\n                    /* \"--CODEGEN--\":33:36   */\n                  dup2\n                    /* \"--CODEGEN--\":27:37   */\n                  sload\n                    /* \"--CODEGEN--\":23:41   */\n                  add\n                    /* \"--CODEGEN--\":57:67   */\n                  dup1\n                    /* \"--CODEGEN--\":52:55   */\n                  dup3\n                    /* \"--CODEGEN--\":45:68   */\n                  sstore\n                    /* \"--CODEGEN--\":79:89   */\n                  dup1\n                    /* \"--CODEGEN--\":72:89   */\n                  swap2\n                  pop\n                    /* \"--CODEGEN--\":0:93   */\n                  pop\n                    /* \"asset.sol\":1456:1477   */\n                  swap1\n                  0x01\n                  dup3\n                  sub\n                  swap1\n                  0x00\n                  mstore\n                  keccak256(0x00, 0x20)\n                  swap1\n                  0x04\n                  mul\n                  add\n                  0x00\n                  swap1\n                  swap2\n                  swap3\n                  swap1\n                  swap2\n                  swap1\n                  swap2\n                  pop\n                  0x00\n                  dup3\n                  add\n                  mload\n                  dup2\n                  0x00\n                  add\n                  exp(0x0100, 0x00)\n                  dup2\n                  sload\n                  dup2\n                  0xff\n                  mul\n                  not\n                  and\n                  swap1\n                  dup4\n                  0x05\n                  dup2\n                  gt\n                  iszero\n                  tag_58\n                  jumpi\n                  invalid\n                tag_58:\n                  mul\n                  or\n                  swap1\n                  sstore\n                  pop\n                  0x20\n                  dup3\n                  add\n                  mload\n                  dup2\n                  0x00\n                  add\n                  exp(0x0100, 0x01)\n                  dup2\n                  sload\n                  dup2\n                  0xffffffffffffffffffffffffffffffffffffffff\n                  mul\n                  not\n                  and\n                  swap1\n                  dup4\n                  0xffffffffffffffffffffffffffffffffffffffff\n                  and\n                  mul\n                  or\n                  swap1\n                  sstore\n                  pop\n                  0x40\n                  dup3\n                  add\n                  mload\n                  dup2\n                  0x01\n                  add\n                  exp(0x0100, 0x00)\n                  dup2\n                  sload\n                  dup2\n                  0xffffffffffffffffffffffffffffffffffffffff\n                  mul\n                  not\n                  and\n                  swap1\n                  dup4\n                  0xffffffffffffffffffffffffffffffffffffffff\n                  and\n                  mul\n                  or\n                  swap1\n                  sstore\n                  pop\n                  0x60\n                  dup3\n                  add\n                  mload\n                  dup2\n                  0x02\n                  add\n                  swap1\n                  dup1\n                  mload\n                  swap1\n                  0x20\n                  add\n                  swap1\n                  tag_59\n                  swap3\n                  swap2\n                  swap1\n                  tag_47\n                  jump\t// in\n                tag_59:\n                  pop\n                  0x80\n                  dup3\n                  add\n                  mload\n                  dup2\n                  0x03\n                  add\n                  sstore\n                  pop\n                  pop\n                  pop\n                    /* \"asset.sol\":973:1484   */\n                  pop\n                  pop\n                  pop\n                  jump\t// out\n                    /* \"asset.sol\":505:525   */\n                tag_19:\n                  0x01\n                  0x00\n                  swap1\n                  sload\n                  swap1\n                  0x0100\n                  exp\n                  swap1\n                  div\n                  0xffffffffffffffffffffffffffffffffffffffff\n                  and\n                  dup2\n                  jump\t// out\n                    /* \"asset.sol\":436:464   */\n                tag_21:\n                  0x00\n                  dup1\n                  swap1\n                  sload\n                  swap1\n                  0x0100\n                  exp\n                  swap1\n                  div\n                  0xff\n                  and\n                  dup2\n                  jump\t// out\n                    /* \"asset.sol\":531:564   */\n                tag_25:\n                  0x02\n                  dup2\n                  dup2\n                  sload\n                  dup2\n                  lt\n                  iszero\n                  iszero\n                  tag_60\n                  jumpi\n                  invalid\n                tag_60:\n                  swap1\n                  0x00\n                  mstore\n                  keccak256(0x00, 0x20)\n                  swap1\n                  0x04\n                  mul\n                  add\n                  0x00\n                  swap2\n                  pop\n                  swap1\n                  pop\n                  dup1\n                  0x00\n                  add\n                  0x00\n                  swap1\n                  sload\n                  swap1\n                  0x0100\n                  exp\n                  swap1\n                  div\n                  0xff\n                  and\n                  swap1\n                  dup1\n                  0x00\n                  add\n                  0x01\n                  swap1\n                  sload\n                  swap1\n                  0x0100\n                  exp\n                  swap1\n                  div\n                  0xffffffffffffffffffffffffffffffffffffffff\n                  and\n                  swap1\n                  dup1\n                  0x01\n                  add\n                  0x00\n                  swap1\n                  sload\n                  swap1\n                  0x0100\n                  exp\n                  swap1\n                  div\n                  0xffffffffffffffffffffffffffffffffffffffff\n                  and\n                  swap1\n                  dup1\n                  0x02\n                  add\n                  dup1\n                  sload\n                  0x01\n                  dup2\n                  0x01\n                  and\n                  iszero\n                  0x0100\n                  mul\n                  sub\n                  and\n                  0x02\n                  swap1\n                  div\n                  dup1\n                  0x1f\n                  add\n                  0x20\n                  dup1\n                  swap2\n                  div\n                  mul\n                  0x20\n                  add\n                  mload(0x40)\n                  swap1\n                  dup2\n                  add\n                  0x40\n                  mstore\n                  dup1\n                  swap3\n                  swap2\n                  swap1\n                  dup2\n                  dup2\n                  mstore\n                  0x20\n                  add\n                  dup3\n                  dup1\n                  sload\n                  0x01\n                  dup2\n                  0x01\n                  and\n                  iszero\n                  0x0100\n                  mul\n                  sub\n                  and\n                  0x02\n                  swap1\n                  div\n                  dup1\n                  iszero\n                  tag_62\n                  jumpi\n                  dup1\n                  0x1f\n                  lt\n                  tag_63\n                  jumpi\n                  0x0100\n                  dup1\n                  dup4\n                  sload\n                  div\n                  mul\n                  dup4\n                  mstore\n                  swap2\n                  0x20\n                  add\n                  swap2\n                  jump(tag_62)\n                tag_63:\n                  dup3\n                  add\n                  swap2\n                  swap1\n                  0x00\n                  mstore\n                  keccak256(0x00, 0x20)\n                  swap1\n                tag_64:\n                  dup2\n                  sload\n                  dup2\n                  mstore\n                  swap1\n                  0x01\n                  add\n                  swap1\n                  0x20\n                  add\n                  dup1\n                  dup4\n                  gt\n                  tag_64\n                  jumpi\n                  dup3\n                  swap1\n                  sub\n                  0x1f\n                  and\n                  dup3\n                  add\n                  swap2\n                tag_62:\n                  pop\n                  pop\n                  pop\n                  pop\n                  pop\n                  swap1\n                  dup1\n                  0x03\n                  add\n                  sload\n                  swap1\n                  pop\n                  dup6\n                  jump\t// out\n                    /* \"asset.sol\":2262:2598   */\n                tag_32:\n                    /* \"asset.sol\":2316:2334   */\n                  0x00\n                    /* \"asset.sol\":2303:2313   */\n                  dup1\n                  0x00\n                    /* \"asset.sol\":2303:2334   */\n                  0x0100\n                  exp\n                  dup2\n                  sload\n                  dup2\n                  0xff\n                  mul\n                  not\n                  and\n                  swap1\n                  dup4\n                  0x04\n                  dup2\n                  gt\n                  iszero\n                  tag_66\n                  jumpi\n                  invalid\n                tag_66:\n                  mul\n                  or\n                  swap1\n                  sstore\n                  pop\n                    /* \"asset.sol\":2344:2365   */\n                  tag_67\n                  tag_41\n                  jump\t// in\n                tag_67:\n                    /* \"asset.sol\":2368:2380   */\n                  0x02\n                    /* \"asset.sol\":2403:2404   */\n                  0x01\n                    /* \"asset.sol\":2381:2393   */\n                  0x02\n                    /* \"asset.sol\":2381:2400   */\n                  dup1\n                  sload\n                  swap1\n                  pop\n                    /* \"asset.sol\":2381:2404   */\n                  sub\n                    /* \"asset.sol\":2368:2405   */\n                  dup2\n                  sload\n                  dup2\n                  lt\n                  iszero\n                  iszero\n                  tag_68\n                  jumpi\n                  invalid\n                tag_68:\n                  swap1\n                  0x00\n                  mstore\n                  keccak256(0x00, 0x20)\n                  swap1\n                  0x04\n                  mul\n                  add\n                    /* \"asset.sol\":2344:2405   */\n                  0xa0\n                  mload(0x40)\n                  swap1\n                  dup2\n                  add\n                  0x40\n                  mstore\n                  swap1\n                  dup2\n                  0x00\n                  dup3\n                  add\n                  0x00\n                  swap1\n                  sload\n                  swap1\n                  0x0100\n                  exp\n                  swap1\n                  div\n                  0xff\n                  and\n                  0x05\n                  dup2\n                  gt\n                  iszero\n                  tag_70\n                  jumpi\n                  invalid\n                tag_70:\n                  0x05\n                  dup2\n                  gt\n                  iszero\n                  tag_71\n                  jumpi\n                  invalid\n                tag_71:\n                  dup2\n                  mstore\n                  0x20\n                  add\n                  0x00\n                  dup3\n                  add\n                  0x01\n                  swap1\n                  sload\n                  swap1\n                  0x0100\n                  exp\n                  swap1\n                  div\n                  0xffffffffffffffffffffffffffffffffffffffff\n                  and\n                  0xffffffffffffffffffffffffffffffffffffffff\n                  and\n                  0xffffffffffffffffffffffffffffffffffffffff\n                  and\n                  dup2\n                  mstore\n                  0x20\n                  add\n                  0x01\n                  dup3\n                  add\n                  0x00\n                  swap1\n                  sload\n                  swap1\n                  0x0100\n                  exp\n                  swap1\n                  div\n                  0xffffffffffffffffffffffffffffffffffffffff\n                  and\n                  0xffffffffffffffffffffffffffffffffffffffff\n                  and\n                  0xffffffffffffffffffffffffffffffffffffffff\n                  and\n                  dup2\n                  mstore\n                  0x20\n                  add\n                  0x02\n                  dup3\n                  add\n                  dup1\n                  sload\n                  0x01\n                  dup2\n                  0x01\n                  and\n                  iszero\n                  0x0100\n                  mul\n                  sub\n                  and\n                  0x02\n                  swap1\n                  div\n                  dup1\n                  0x1f\n                  add\n                  0x20\n                  dup1\n                  swap2\n                  div\n                  mul\n                  0x20\n                  add\n                  mload(0x40)\n                  swap1\n                  dup2\n                  add\n                  0x40\n                  mstore\n                  dup1\n                  swap3\n                  swap2\n                  swap1\n                  dup2\n                  dup2\n                  mstore\n                  0x20\n                  add\n                  dup3\n                  dup1\n                  sload\n                  0x01\n                  dup2\n                  0x01\n                  and\n                  iszero\n                  0x0100\n                  mul\n                  sub\n                  and\n                  0x02\n                  swap1\n                  div\n                  dup1\n                  iszero\n                  tag_72\n                  jumpi\n                  dup1\n                  0x1f\n                  lt\n                  tag_73\n                  jumpi\n                  0x0100\n                  dup1\n                  dup4\n                  sload\n                  div\n                  mul\n                  dup4\n                  mstore\n                  swap2\n                  0x20\n                  add\n                  swap2\n                  jump(tag_72)\n                tag_73:\n                  dup3\n                  add\n                  swap2\n                  swap1\n                  0x00\n                  mstore\n                  keccak256(0x00, 0x20)\n                  swap1\n                tag_74:\n                  dup2\n                  sload\n                  dup2\n                  mstore\n                  swap1\n                  0x01\n                  add\n                  swap1\n                  0x20\n                  add\n                  dup1\n                  dup4\n                  gt\n                  tag_74\n                  jumpi\n                  dup3\n                  swap1\n                  sub\n                  0x1f\n                  and\n                  dup3\n                  add\n                  swap2\n                tag_72:\n                  pop\n                  pop\n                  pop\n                  pop\n                  pop\n                  dup2\n                  mstore\n                  0x20\n                  add\n                  0x03\n                  dup3\n                  add\n                  sload\n                  dup2\n                  mstore\n                  pop\n                  pop\n                  swap1\n                  pop\n                    /* \"asset.sol\":2451:2453   */\n                  dup1\n                    /* \"asset.sol\":2451:2462   */\n                  0x40\n                  add\n                  mload\n                    /* \"asset.sol\":2443:2448   */\n                  0x01\n                  0x00\n                    /* \"asset.sol\":2443:2462   */\n                  0x0100\n                  exp\n                  dup2\n                  sload\n                  dup2\n                  0xffffffffffffffffffffffffffffffffffffffff\n                  mul\n                  not\n                  and\n                  swap1\n                  dup4\n                  0xffffffffffffffffffffffffffffffffffffffff\n                  and\n                  mul\n                  or\n                  swap1\n                  sstore\n                  pop\n                    /* \"asset.sol\":2501:2529   */\n                  0x04\n                    /* \"asset.sol\":2480:2482   */\n                  dup2\n                    /* \"asset.sol\":2480:2498   */\n                  0x00\n                  add\n                    /* \"asset.sol\":2480:2529   */\n                  swap1\n                  0x05\n                  dup2\n                  gt\n                  iszero\n                  tag_75\n                  jumpi\n                  invalid\n                tag_75:\n                  swap1\n                  dup2\n                  0x05\n                  dup2\n                  gt\n                  iszero\n                  tag_76\n                  jumpi\n                  invalid\n                tag_76:\n                  dup2\n                  mstore\n                  pop\n                  pop\n                    /* \"asset.sol\":2557:2560   */\n                  timestamp\n                    /* \"asset.sol\":2547:2549   */\n                  dup2\n                    /* \"asset.sol\":2547:2554   */\n                  0x80\n                  add\n                    /* \"asset.sol\":2547:2560   */\n                  dup2\n                  dup2\n                  mstore\n                  pop\n                  pop\n                    /* \"asset.sol\":2570:2582   */\n                  0x02\n                    /* \"asset.sol\":2588:2590   */\n                  dup2\n                    /* \"asset.sol\":2570:2591   */\n                  swap1\n                  dup1\n                    /* \"--CODEGEN--\":39:40   */\n                  0x01\n                    /* \"--CODEGEN--\":33:36   */\n                  dup2\n                    /* \"--CODEGEN--\":27:37   */\n                  sload\n                    /* \"--CODEGEN--\":23:41   */\n                  add\n                    /* \"--CODEGEN--\":57:67   */\n                  dup1\n                    /* \"--CODEGEN--\":52:55   */\n                  dup3\n                    /* \"--CODEGEN--\":45:68   */\n                  sstore\n                    /* \"--CODEGEN--\":79:89   */\n                  dup1\n                    /* \"--CODEGEN--\":72:89   */\n                  swap2\n                  pop\n                    /* \"--CODEGEN--\":0:93   */\n                  pop\n                    /* \"asset.sol\":2570:2591   */\n                  swap1\n                  0x01\n                  dup3\n                  sub\n                  swap1\n                  0x00\n                  mstore\n                  keccak256(0x00, 0x20)\n                  swap1\n                  0x04\n                  mul\n                  add\n                  0x00\n                  swap1\n                  swap2\n                  swap3\n                  swap1\n                  swap2\n                  swap1\n                  swap2\n                  pop\n                  0x00\n                  dup3\n                  add\n                  mload\n                  dup2\n                  0x00\n                  add\n                  exp(0x0100, 0x00)\n                  dup2\n                  sload\n                  dup2\n                  0xff\n                  mul\n                  not\n                  and\n                  swap1\n                  dup4\n                  0x05\n                  dup2\n                  gt\n                  iszero\n                  tag_78\n                  jumpi\n                  invalid\n                tag_78:\n                  mul\n                  or\n                  swap1\n                  sstore\n                  pop\n                  0x20\n                  dup3\n                  add\n                  mload\n                  dup2\n                  0x00\n                  add\n                  exp(0x0100, 0x01)\n                  dup2\n                  sload\n                  dup2\n                  0xffffffffffffffffffffffffffffffffffffffff\n                  mul\n                  not\n                  and\n                  swap1\n                  dup4\n                  0xffffffffffffffffffffffffffffffffffffffff\n                  and\n                  mul\n                  or\n                  swap1\n                  sstore\n                  pop\n                  0x40\n                  dup3\n                  add\n                  mload\n                  dup2\n                  0x01\n                  add\n                  exp(0x0100, 0x00)\n                  dup2\n                  sload\n                  dup2\n                  0xffffffffffffffffffffffffffffffffffffffff\n                  mul\n                  not\n                  and\n                  swap1\n                  dup4\n                  0xffffffffffffffffffffffffffffffffffffffff\n                  and\n                  mul\n                  or\n                  swap1\n                  sstore\n                  pop\n                  0x60\n                  dup3\n                  add\n                  mload\n                  dup2\n                  0x02\n                  add\n                  swap1\n                  dup1\n                  mload\n                  swap1\n                  0x20\n                  add\n                  swap1\n                  tag_79\n                  swap3\n                  swap2\n                  swap1\n                  tag_47\n                  jump\t// in\n                tag_79:\n                  pop\n                  0x80\n                  dup3\n                  add\n                  mload\n                  dup2\n                  0x03\n                  add\n                  sstore\n                  pop\n                  pop\n                  pop\n                    /* \"asset.sol\":2262:2598   */\n                  pop\n                  jump\t// out\n                    /* \"asset.sol\":2604:3047   */\n                tag_34:\n                    /* \"asset.sol\":2653:2666   */\n                  0x00\n                    /* \"asset.sol\":2668:2688   */\n                  dup1\n                    /* \"asset.sol\":2735:2762   */\n                  0x01\n                    /* \"asset.sol\":2721:2762   */\n                  0x04\n                  dup2\n                  gt\n                  iszero\n                  tag_81\n                  jumpi\n                  invalid\n                tag_81:\n                    /* \"asset.sol\":2721:2731   */\n                  0x00\n                  dup1\n                  swap1\n                  sload\n                  swap1\n                  0x0100\n                  exp\n                  swap1\n                  div\n                  0xff\n                  and\n                    /* \"asset.sol\":2721:2762   */\n                  0x04\n                  dup2\n                  gt\n                  iszero\n                  tag_82\n                  jumpi\n                  invalid\n                tag_82:\n                  eq\n                    /* \"asset.sol\":2721:2802   */\n                  dup1\n                  tag_83\n                  jumpi\n                  pop\n                    /* \"asset.sol\":2780:2802   */\n                  0x02\n                    /* \"asset.sol\":2766:2802   */\n                  0x04\n                  dup2\n                  gt\n                  iszero\n                  tag_84\n                  jumpi\n                  invalid\n                tag_84:\n                    /* \"asset.sol\":2766:2776   */\n                  0x00\n                  dup1\n                  swap1\n                  sload\n                  swap1\n                  0x0100\n                  exp\n                  swap1\n                  div\n                  0xff\n                  and\n                    /* \"asset.sol\":2766:2802   */\n                  0x04\n                  dup2\n                  gt\n                  iszero\n                  tag_85\n                  jumpi\n                  invalid\n                tag_85:\n                  eq\n                    /* \"asset.sol\":2721:2802   */\n                tag_83:\n                    /* \"asset.sol\":2721:2845   */\n                  dup1\n                  tag_86\n                  jumpi\n                  pop\n                    /* \"asset.sol\":2820:2845   */\n                  0x03\n                    /* \"asset.sol\":2806:2845   */\n                  0x04\n                  dup2\n                  gt\n                  iszero\n                  tag_87\n                  jumpi\n                  invalid\n                tag_87:\n                    /* \"asset.sol\":2806:2816   */\n                  0x00\n                  dup1\n                  swap1\n                  sload\n                  swap1\n                  0x0100\n                  exp\n                  swap1\n                  div\n                  0xff\n                  and\n                    /* \"asset.sol\":2806:2845   */\n                  0x04\n                  dup2\n                  gt\n                  iszero\n                  tag_88\n                  jumpi\n                  invalid\n                tag_88:\n                  eq\n                    /* \"asset.sol\":2721:2845   */\n                tag_86:\n                    /* \"asset.sol\":2699:2904   */\n                  iszero\n                  iszero\n                  tag_89\n                  jumpi\n                  mload(0x40)\n                  0x08c379a000000000000000000000000000000000000000000000000000000000\n                  dup2\n                  mstore\n                  0x04\n                  add\n                  dup1\n                  dup1\n                  0x20\n                  add\n                  dup3\n                  dup2\n                  sub\n                  dup3\n                  mstore\n                  0x21\n                  dup2\n                  mstore\n                  0x20\n                  add\n                  dup1\n                  data_f6a6a17dab7be2462b26f019d6e0b94971fc63d7cd30922cd03b838867a99c12\n                  0x21\n                  swap2\n                  codecopy\n                  0x40\n                  add\n                  swap2\n                  pop\n                  pop\n                  mload(0x40)\n                  dup1\n                  swap2\n                  sub\n                  swap1\n                  revert\n                tag_89:\n                    /* \"asset.sol\":2923:2935   */\n                  0x02\n                    /* \"asset.sol\":2958:2959   */\n                  0x01\n                    /* \"asset.sol\":2936:2948   */\n                  0x02\n                    /* \"asset.sol\":2936:2955   */\n                  dup1\n                  sload\n                  swap1\n                  pop\n                    /* \"asset.sol\":2936:2959   */\n                  sub\n                    /* \"asset.sol\":2923:2960   */\n                  dup2\n                  sload\n                  dup2\n                  lt\n                  iszero\n                  iszero\n                  tag_90\n                  jumpi\n                  invalid\n                tag_90:\n                  swap1\n                  0x00\n                  mstore\n                  keccak256(0x00, 0x20)\n                  swap1\n                  0x04\n                  mul\n                  add\n                    /* \"asset.sol\":2923:2969   */\n                  0x00\n                  add\n                  0x01\n                  swap1\n                  sload\n                  swap1\n                  0x0100\n                  exp\n                  swap1\n                  div\n                  0xffffffffffffffffffffffffffffffffffffffff\n                  and\n                    /* \"asset.sol\":2915:2969   */\n                  swap2\n                  pop\n                    /* \"asset.sol\":2994:3006   */\n                  0x02\n                    /* \"asset.sol\":3029:3030   */\n                  0x01\n                    /* \"asset.sol\":3007:3019   */\n                  0x02\n                    /* \"asset.sol\":3007:3026   */\n                  dup1\n                  sload\n                  swap1\n                  pop\n                    /* \"asset.sol\":3007:3030   */\n                  sub\n                    /* \"asset.sol\":2994:3031   */\n                  dup2\n                  sload\n                  dup2\n                  lt\n                  iszero\n                  iszero\n                  tag_92\n                  jumpi\n                  invalid\n                tag_92:\n                  swap1\n                  0x00\n                  mstore\n                  keccak256(0x00, 0x20)\n                  swap1\n                  0x04\n                  mul\n                  add\n                    /* \"asset.sol\":2994:3040   */\n                  0x01\n                  add\n                  0x00\n                  swap1\n                  sload\n                  swap1\n                  0x0100\n                  exp\n                  swap1\n                  div\n                  0xffffffffffffffffffffffffffffffffffffffff\n                  and\n                    /* \"asset.sol\":2979:3040   */\n                  swap1\n                  pop\n                    /* \"asset.sol\":2604:3047   */\n                  swap1\n                  swap2\n                  jump\t// out\n                    /* \"asset.sol\":1490:1832   */\n                tag_36:\n                    /* \"asset.sol\":1544:1566   */\n                  0x02\n                    /* \"asset.sol\":1531:1541   */\n                  0x00\n                  dup1\n                    /* \"asset.sol\":1531:1566   */\n                  0x0100\n                  exp\n                  dup2\n                  sload\n                  dup2\n                  0xff\n                  mul\n                  not\n                  and\n                  swap1\n                  dup4\n                  0x04\n                  dup2\n                  gt\n                  iszero\n                  tag_95\n                  jumpi\n                  invalid\n                tag_95:\n                  mul\n                  or\n                  swap1\n                  sstore\n                  pop\n                    /* \"asset.sol\":1576:1597   */\n                  tag_96\n                  tag_41\n                  jump\t// in\n                tag_96:\n                    /* \"asset.sol\":1600:1612   */\n                  0x02\n                    /* \"asset.sol\":1635:1636   */\n                  0x01\n                    /* \"asset.sol\":1613:1625   */\n                  0x02\n                    /* \"asset.sol\":1613:1632   */\n                  dup1\n                  sload\n                  swap1\n                  pop\n                    /* \"asset.sol\":1613:1636   */\n                  sub\n                    /* \"asset.sol\":1600:1637   */\n                  dup2\n                  sload\n                  dup2\n                  lt\n                  iszero\n                  iszero\n                  tag_97\n                  jumpi\n                  invalid\n                tag_97:\n                  swap1\n                  0x00\n                  mstore\n                  keccak256(0x00, 0x20)\n                  swap1\n                  0x04\n                  mul\n                  add\n                    /* \"asset.sol\":1576:1637   */\n                  0xa0\n                  mload(0x40)\n                  swap1\n                  dup2\n                  add\n                  0x40\n                  mstore\n                  swap1\n                  dup2\n                  0x00\n                  dup3\n                  add\n                  0x00\n                  swap1\n                  sload\n                  swap1\n                  0x0100\n                  exp\n                  swap1\n                  div\n                  0xff\n                  and\n                  0x05\n                  dup2\n                  gt\n                  iszero\n                  tag_99\n                  jumpi\n                  invalid\n                tag_99:\n                  0x05\n                  dup2\n                  gt\n                  iszero\n                  tag_100\n                  jumpi\n                  invalid\n                tag_100:\n                  dup2\n                  mstore\n                  0x20\n                  add\n                  0x00\n                  dup3\n                  add\n                  0x01\n                  swap1\n                  sload\n                  swap1\n                  0x0100\n                  exp\n                  swap1\n                  div\n                  0xffffffffffffffffffffffffffffffffffffffff\n                  and\n                  0xffffffffffffffffffffffffffffffffffffffff\n                  and\n                  0xffffffffffffffffffffffffffffffffffffffff\n                  and\n                  dup2\n                  mstore\n                  0x20\n                  add\n                  0x01\n                  dup3\n                  add\n                  0x00\n                  swap1\n                  sload\n                  swap1\n                  0x0100\n                  exp\n                  swap1\n                  div\n                  0xffffffffffffffffffffffffffffffffffffffff\n                  and\n                  0xffffffffffffffffffffffffffffffffffffffff\n                  and\n                  0xffffffffffffffffffffffffffffffffffffffff\n                  and\n                  dup2\n                  mstore\n                  0x20\n                  add\n                  0x02\n                  dup3\n                  add\n                  dup1\n                  sload\n                  0x01\n                  dup2\n                  0x01\n                  and\n                  iszero\n                  0x0100\n                  mul\n                  sub\n                  and\n                  0x02\n                  swap1\n                  div\n                  dup1\n                  0x1f\n                  add\n                  0x20\n                  dup1\n                  swap2\n                  div\n                  mul\n                  0x20\n                  add\n                  mload(0x40)\n                  swap1\n                  dup2\n                  add\n                  0x40\n                  mstore\n                  dup1\n                  swap3\n                  swap2\n                  swap1\n                  dup2\n                  dup2\n                  mstore\n                  0x20\n                  add\n                  dup3\n                  dup1\n                  sload\n                  0x01\n                  dup2\n                  0x01\n                  and\n                  iszero\n                  0x0100\n                  mul\n                  sub\n                  and\n                  0x02\n                  swap1\n                  div\n                  dup1\n                  iszero\n                  tag_101\n                  jumpi\n                  dup1\n                  0x1f\n                  lt\n                  tag_102\n                  jumpi\n                  0x0100\n                  dup1\n                  dup4\n                  sload\n                  div\n                  mul\n                  dup4\n                  mstore\n                  swap2\n                  0x20\n                  add\n                  swap2\n                  jump(tag_101)\n                tag_102:\n                  dup3\n                  add\n                  swap2\n                  swap1\n                  0x00\n                  mstore\n                  keccak256(0x00, 0x20)\n                  swap1\n                tag_103:\n                  dup2\n                  sload\n                  dup2\n                  mstore\n                  swap1\n                  0x01\n                  add\n                  swap1\n                  0x20\n                  add\n                  dup1\n                  dup4\n                  gt\n                  tag_103\n                  jumpi\n                  dup3\n                  swap1\n                  sub\n                  0x1f\n                  and\n                  dup3\n                  add\n                  swap2\n                tag_101:\n                  pop\n                  pop\n                  pop\n                  pop\n                  pop\n                  dup2\n                  mstore\n                  0x20\n                  add\n                  0x03\n                  dup3\n                  add\n                  sload\n                  dup2\n                  mstore\n                  pop\n                  pop\n                  swap1\n                  pop\n                    /* \"asset.sol\":1683:1685   */\n                  dup1\n                    /* \"asset.sol\":1683:1694   */\n                  0x40\n                  add\n                  mload\n                    /* \"asset.sol\":1675:1680   */\n                  0x01\n                  0x00\n                    /* \"asset.sol\":1675:1694   */\n                  0x0100\n                  exp\n                  dup2\n                  sload\n                  dup2\n                  0xffffffffffffffffffffffffffffffffffffffff\n                  mul\n                  not\n                  and\n                  swap1\n                  dup4\n                  0xffffffffffffffffffffffffffffffffffffffff\n                  and\n                  mul\n                  or\n                  swap1\n                  sstore\n                  pop\n                    /* \"asset.sol\":1733:1763   */\n                  0x02\n                    /* \"asset.sol\":1712:1714   */\n                  dup2\n                    /* \"asset.sol\":1712:1730   */\n                  0x00\n                  add\n                    /* \"asset.sol\":1712:1763   */\n                  swap1\n                  0x05\n                  dup2\n                  gt\n                  iszero\n                  tag_104\n                  jumpi\n                  invalid\n                tag_104:\n                  swap1\n                  dup2\n                  0x05\n                  dup2\n                  gt\n                  iszero\n                  tag_105\n                  jumpi\n                  invalid\n                tag_105:\n                  dup2\n                  mstore\n                  pop\n                  pop\n                    /* \"asset.sol\":1783:1786   */\n                  timestamp\n                    /* \"asset.sol\":1773:1775   */\n                  dup2\n                    /* \"asset.sol\":1773:1780   */\n                  0x80\n                  add\n                    /* \"asset.sol\":1773:1786   */\n                  dup2\n                  dup2\n                  mstore\n                  pop\n                  pop\n                    /* \"asset.sol\":1796:1808   */\n                  0x02\n                    /* \"asset.sol\":1814:1816   */\n                  dup2\n                    /* \"asset.sol\":1796:1817   */\n                  swap1\n                  dup1\n                    /* \"--CODEGEN--\":39:40   */\n                  0x01\n                    /* \"--CODEGEN--\":33:36   */\n                  dup2\n                    /* \"--CODEGEN--\":27:37   */\n                  sload\n                    /* \"--CODEGEN--\":23:41   */\n                  add\n                    /* \"--CODEGEN--\":57:67   */\n                  dup1\n                    /* \"--CODEGEN--\":52:55   */\n                  dup3\n                    /* \"--CODEGEN--\":45:68   */\n                  sstore\n                    /* \"--CODEGEN--\":79:89   */\n                  dup1\n                    /* \"--CODEGEN--\":72:89   */\n                  swap2\n                  pop\n                    /* \"--CODEGEN--\":0:93   */\n                  pop\n                    /* \"asset.sol\":1796:1817   */\n                  swap1\n                  0x01\n                  dup3\n                  sub\n                  swap1\n                  0x00\n                  mstore\n                  keccak256(0x00, 0x20)\n                  swap1\n                  0x04\n                  mul\n                  add\n                  0x00\n                  swap1\n                  swap2\n                  swap3\n                  swap1\n                  swap2\n                  swap1\n                  swap2\n                  pop\n                  0x00\n                  dup3\n                  add\n                  mload\n                  dup2\n                  0x00\n                  add\n                  exp(0x0100, 0x00)\n                  dup2\n                  sload\n                  dup2\n                  0xff\n                  mul\n                  not\n                  and\n                  swap1\n                  dup4\n                  0x05\n                  dup2\n                  gt\n                  iszero\n                  tag_107\n                  jumpi\n                  invalid\n                tag_107:\n                  mul\n                  or\n                  swap1\n                  sstore\n                  pop\n                  0x20\n                  dup3\n                  add\n                  mload\n                  dup2\n                  0x00\n                  add\n                  exp(0x0100, 0x01)\n                  dup2\n                  sload\n                  dup2\n                  0xffffffffffffffffffffffffffffffffffffffff\n                  mul\n                  not\n                  and\n                  swap1\n                  dup4\n                  0xffffffffffffffffffffffffffffffffffffffff\n                  and\n                  mul\n                  or\n                  swap1\n                  sstore\n                  pop\n                  0x40\n                  dup3\n                  add\n                  mload\n                  dup2\n                  0x01\n                  add\n                  exp(0x0100, 0x00)\n                  dup2\n                  sload\n                  dup2\n                  0xffffffffffffffffffffffffffffffffffffffff\n                  mul\n                  not\n                  and\n                  swap1\n                  dup4\n                  0xffffffffffffffffffffffffffffffffffffffff\n                  and\n                  mul\n                  or\n                  swap1\n                  sstore\n                  pop\n                  0x60\n                  dup3\n                  add\n                  mload\n                  dup2\n                  0x02\n                  add\n                  swap1\n                  dup1\n                  mload\n                  swap1\n                  0x20\n                  add\n                  swap1\n                  tag_108\n                  swap3\n                  swap2\n                  swap1\n                  tag_47\n                  jump\t// in\n                tag_108:\n                  pop\n                  0x80\n                  dup3\n                  add\n                  mload\n                  dup2\n                  0x03\n                  add\n                  sstore\n                  pop\n                  pop\n                  pop\n                    /* \"asset.sol\":1490:1832   */\n                  pop\n                  jump\t// out\n                    /* \"asset.sol\":25:3049   */\n                tag_41:\n                  0xa0\n                  mload(0x40)\n                  swap1\n                  dup2\n                  add\n                  0x40\n                  mstore\n                  dup1\n                  0x00\n                  0x05\n                  dup2\n                  gt\n                  iszero\n                  tag_109\n                  jumpi\n                  invalid\n                tag_109:\n                  dup2\n                  mstore\n                  0x20\n                  add\n                  and(0xffffffffffffffffffffffffffffffffffffffff, 0x00)\n                  dup2\n                  mstore\n                  0x20\n                  add\n                  and(0xffffffffffffffffffffffffffffffffffffffff, 0x00)\n                  dup2\n                  mstore\n                  0x20\n                  add\n                  0x60\n                  dup2\n                  mstore\n                  0x20\n                  add\n                  0x00\n                  dup2\n                  mstore\n                  pop\n                  swap1\n                  jump\t// out\n                tag_47:\n                  dup3\n                  dup1\n                  sload\n                  0x01\n                  dup2\n                  0x01\n                  and\n                  iszero\n                  0x0100\n                  mul\n                  sub\n                  and\n                  0x02\n                  swap1\n                  div\n                  swap1\n                  0x00\n                  mstore\n                  keccak256(0x00, 0x20)\n                  swap1\n                  0x1f\n                  add\n                  0x20\n                  swap1\n                  div\n                  dup2\n                  add\n                  swap3\n                  dup3\n                  0x1f\n                  lt\n                  tag_111\n                  jumpi\n                  dup1\n                  mload\n                  not(0xff)\n                  and\n                  dup4\n                  dup1\n                  add\n                  or\n                  dup6\n                  sstore\n                  jump(tag_110)\n                tag_111:\n                  dup3\n                  dup1\n                  add\n                  0x01\n                  add\n                  dup6\n                  sstore\n                  dup3\n                  iszero\n                  tag_110\n                  jumpi\n                  swap2\n                  dup3\n                  add\n                tag_112:\n                  dup3\n                  dup2\n                  gt\n                  iszero\n                  tag_113\n                  jumpi\n                  dup3\n                  mload\n                  dup3\n                  sstore\n                  swap2\n                  0x20\n                  add\n                  swap2\n                  swap1\n                  0x01\n                  add\n                  swap1\n                  jump(tag_112)\n                tag_113:\n                tag_110:\n                  pop\n                  swap1\n                  pop\n                  tag_114\n                  swap2\n                  swap1\n                  tag_115\n                  jump\t// in\n                tag_114:\n                  pop\n                  swap1\n                  jump\t// out\n                tag_115:\n                  tag_116\n                  swap2\n                  swap1\n                tag_117:\n                  dup1\n                  dup3\n                  gt\n                  iszero\n                  tag_118\n                  jumpi\n                  0x00\n                  dup2\n                  0x00\n                  swap1\n                  sstore\n                  pop\n                  0x01\n                  add\n                  jump(tag_117)\n                tag_118:\n                  pop\n                  swap1\n                  jump\n                tag_116:\n                  swap1\n                  jump\t// out\n                stop\n                data_1791ac5ffd0fc84d6c5699accf1f612856b55a4ed297082dae1a6770055503e1 6f6e6c79206f776e6572206f66207468652061737365742063616e2061736b20666f7220656e64205472616e73706f7274\n                data_7cf259c1c9db9cdb02a56d1e6529a285eba27e32b4d75d4b451f221b0c3f1c25 43616e206e6f742061736b20666f72207472616e73706f7274206966206173736574206973206e6f742077616974696e67\n                data_f14d2f82c5fccb17b8a7a32c859665bf5153b90fc4a53b88a7c0943fc46629da 4f6e6c79206f776e6572206f66207468652061737365742063616e2061736b20666f72207472616e73706f7274\n                data_f6a6a17dab7be2462b26f019d6e0b94971fc63d7cd30922cd03b838867a99c12 6173736574206973206e6f742070656e64696e67206f66207472616e73706f7274\n\n                auxdata: 0xa165627a7a723058207a5995534a2c1fe65bd29d63568afac62a3d018b04f040391ba5993875aa042c0029\n            }\n        }\n\n        auxdata: 0xa165627a7a7230582041b75480f63816511ba068181d1efc9e6feb0e2138ea66f930b6ab35f35ea64e0029\n    }\n}\n\nsub_3: assembly {\n        /* \"transporters.sol\":25:1265   */\n      mstore(0x40, 0x80)\n        /* \"transporters.sol\":351:434   */\n      callvalue\n        /* \"--CODEGEN--\":8:17   */\n      dup1\n        /* \"--CODEGEN--\":5:7   */\n      iszero\n      tag_1\n      jumpi\n        /* \"--CODEGEN--\":30:31   */\n      0x00\n        /* \"--CODEGEN--\":27:28   */\n      dup1\n        /* \"--CODEGEN--\":20:32   */\n      revert\n        /* \"--CODEGEN--\":5:7   */\n    tag_1:\n        /* \"transporters.sol\":351:434   */\n      pop\n      mload(0x40)\n      0x20\n      dup1\n      bytecodeSize\n      dup4\n      codecopy\n      dup2\n      add\n      dup1\n      0x40\n      mstore\n        /* \"--CODEGEN--\":13:15   */\n      0x20\n        /* \"--CODEGEN--\":8:11   */\n      dup2\n        /* \"--CODEGEN--\":5:16   */\n      lt\n        /* \"--CODEGEN--\":2:4   */\n      iszero\n      tag_2\n      jumpi\n        /* \"--CODEGEN--\":29:30   */\n      0x00\n        /* \"--CODEGEN--\":26:27   */\n      dup1\n        /* \"--CODEGEN--\":19:31   */\n      revert\n        /* \"--CODEGEN--\":2:4   */\n    tag_2:\n        /* \"transporters.sol\":351:434   */\n      dup2\n      add\n      swap1\n      dup1\n      dup1\n      mload\n      swap1\n      0x20\n      add\n      swap1\n      swap3\n      swap2\n      swap1\n      pop\n      pop\n      pop\n        /* \"transporters.sol\":416:419   */\n      dup1\n        /* \"transporters.sol\":393:413   */\n      0x00\n      dup1\n        /* \"transporters.sol\":393:419   */\n      0x0100\n      exp\n      dup2\n      sload\n      dup2\n      0xffffffffffffffffffffffffffffffffffffffff\n      mul\n      not\n      and\n      swap1\n      dup4\n      0xffffffffffffffffffffffffffffffffffffffff\n      and\n      mul\n      or\n      swap1\n      sstore\n      pop\n        /* \"transporters.sol\":351:434   */\n      pop\n        /* \"transporters.sol\":25:1265   */\n      dataSize(sub_0)\n      dup1\n      dataOffset(sub_0)\n      0x00\n      codecopy\n      0x00\n      return\n    stop\n\n    sub_0: assembly {\n            /* \"transporters.sol\":25:1265   */\n          mstore(0x40, 0x80)\n          callvalue\n            /* \"--CODEGEN--\":8:17   */\n          dup1\n            /* \"--CODEGEN--\":5:7   */\n          iszero\n          tag_1\n          jumpi\n            /* \"--CODEGEN--\":30:31   */\n          0x00\n            /* \"--CODEGEN--\":27:28   */\n          dup1\n            /* \"--CODEGEN--\":20:32   */\n          revert\n            /* \"--CODEGEN--\":5:7   */\n        tag_1:\n            /* \"transporters.sol\":25:1265   */\n          pop\n          jumpi(tag_2, lt(calldatasize, 0x04))\n          calldataload(0x00)\n          0x0100000000000000000000000000000000000000000000000000000000\n          swap1\n          div\n          dup1\n          0x1302ed1f\n          eq\n          tag_3\n          jumpi\n          dup1\n          0x2b8109d5\n          eq\n          tag_4\n          jumpi\n          dup1\n          0xda3898fe\n          eq\n          tag_5\n          jumpi\n        tag_2:\n          0x00\n          dup1\n          revert\n            /* \"transporters.sol\":694:1258   */\n        tag_3:\n          tag_6\n          0x04\n          dup1\n          calldatasize\n          sub\n            /* \"--CODEGEN--\":13:15   */\n          0x40\n            /* \"--CODEGEN--\":8:11   */\n          dup2\n            /* \"--CODEGEN--\":5:16   */\n          lt\n            /* \"--CODEGEN--\":2:4   */\n          iszero\n          tag_7\n          jumpi\n            /* \"--CODEGEN--\":29:30   */\n          0x00\n            /* \"--CODEGEN--\":26:27   */\n          dup1\n            /* \"--CODEGEN--\":19:31   */\n          revert\n            /* \"--CODEGEN--\":2:4   */\n        tag_7:\n            /* \"transporters.sol\":694:1258   */\n          dup2\n          add\n          swap1\n          dup1\n          dup1\n          calldataload\n          0xffffffffffffffffffffffffffffffffffffffff\n          and\n          swap1\n          0x20\n          add\n          swap1\n          swap3\n          swap2\n          swap1\n          dup1\n          calldataload\n          swap1\n          0x20\n          add\n          swap1\n            /* \"--CODEGEN--\":21:32   */\n          0x0100000000\n            /* \"--CODEGEN--\":8:19   */\n          dup2\n            /* \"--CODEGEN--\":5:33   */\n          gt\n            /* \"--CODEGEN--\":2:4   */\n          iszero\n          tag_8\n          jumpi\n            /* \"--CODEGEN--\":46:47   */\n          0x00\n            /* \"--CODEGEN--\":43:44   */\n          dup1\n            /* \"--CODEGEN--\":36:48   */\n          revert\n            /* \"--CODEGEN--\":2:4   */\n        tag_8:\n            /* \"transporters.sol\":694:1258   */\n          dup3\n          add\n            /* \"--CODEGEN--\":35:44   */\n          dup4\n            /* \"--CODEGEN--\":28:32   */\n          0x20\n            /* \"--CODEGEN--\":12:26   */\n          dup3\n            /* \"--CODEGEN--\":8:33   */\n          add\n            /* \"--CODEGEN--\":5:45   */\n          gt\n            /* \"--CODEGEN--\":2:4   */\n          iszero\n          tag_9\n          jumpi\n            /* \"--CODEGEN--\":58:59   */\n          0x00\n            /* \"--CODEGEN--\":55:56   */\n          dup1\n            /* \"--CODEGEN--\":48:60   */\n          revert\n            /* \"--CODEGEN--\":2:4   */\n        tag_9:\n            /* \"transporters.sol\":694:1258   */\n          dup1\n          calldataload\n          swap1\n          0x20\n          add\n          swap2\n            /* \"--CODEGEN--\":100:109   */\n          dup5\n            /* \"--CODEGEN--\":95:96   */\n          0x01\n            /* \"--CODEGEN--\":81:93   */\n          dup4\n            /* \"--CODEGEN--\":77:97   */\n          mul\n            /* \"--CODEGEN--\":67:75   */\n          dup5\n            /* \"--CODEGEN--\":63:98   */\n          add\n            /* \"--CODEGEN--\":60:110   */\n          gt\n            /* \"--CODEGEN--\":39:50   */\n          0x0100000000\n            /* \"--CODEGEN--\":25:37   */\n          dup4\n            /* \"--CODEGEN--\":22:51   */\n          gt\n            /* \"--CODEGEN--\":11:118   */\n          or\n            /* \"--CODEGEN--\":8:10   */\n          iszero\n          tag_10\n          jumpi\n            /* \"--CODEGEN--\":131:132   */\n          0x00\n            /* \"--CODEGEN--\":128:129   */\n          dup1\n            /* \"--CODEGEN--\":121:133   */\n          revert\n            /* \"--CODEGEN--\":8:10   */\n        tag_10:\n            /* \"transporters.sol\":694:1258   */\n          swap2\n          swap1\n          dup1\n          dup1\n          0x1f\n          add\n          0x20\n          dup1\n          swap2\n          div\n          mul\n          0x20\n          add\n          mload(0x40)\n          swap1\n          dup2\n          add\n          0x40\n          mstore\n          dup1\n          swap4\n          swap3\n          swap2\n          swap1\n          dup2\n          dup2\n          mstore\n          0x20\n          add\n          dup4\n          dup4\n            /* \"--CODEGEN--\":30:33   */\n          dup1\n            /* \"--CODEGEN--\":22:28   */\n          dup3\n            /* \"--CODEGEN--\":14:20   */\n          dup5\n            /* \"--CODEGEN--\":1:34   */\n          calldatacopy\n            /* \"--CODEGEN--\":99:100   */\n          0x00\n            /* \"--CODEGEN--\":93:96   */\n          dup2\n            /* \"--CODEGEN--\":85:91   */\n          dup5\n            /* \"--CODEGEN--\":81:97   */\n          add\n            /* \"--CODEGEN--\":74:101   */\n          mstore\n            /* \"--CODEGEN--\":137:141   */\n          0x1f\n            /* \"--CODEGEN--\":133:142   */\n          not\n            /* \"--CODEGEN--\":126:130   */\n          0x1f\n            /* \"--CODEGEN--\":121:124   */\n          dup3\n            /* \"--CODEGEN--\":117:131   */\n          add\n            /* \"--CODEGEN--\":113:143   */\n          and\n            /* \"--CODEGEN--\":106:143   */\n          swap1\n          pop\n            /* \"--CODEGEN--\":169:172   */\n          dup1\n            /* \"--CODEGEN--\":161:167   */\n          dup4\n            /* \"--CODEGEN--\":157:173   */\n          add\n            /* \"--CODEGEN--\":147:173   */\n          swap3\n          pop\n            /* \"transporters.sol\":694:1258   */\n          pop\n          pop\n          pop\n          pop\n          pop\n          pop\n          swap2\n          swap3\n          swap2\n          swap3\n          swap1\n          pop\n          pop\n          pop\n          tag_11\n          jump\t// in\n        tag_6:\n          mload(0x40)\n          dup1\n          dup3\n          iszero\n          iszero\n          iszero\n          iszero\n          dup2\n          mstore\n          0x20\n          add\n          swap2\n          pop\n          pop\n          mload(0x40)\n          dup1\n          swap2\n          sub\n          swap1\n          return\n            /* \"transporters.sol\":443:688   */\n        tag_4:\n          tag_12\n          0x04\n          dup1\n          calldatasize\n          sub\n            /* \"--CODEGEN--\":13:15   */\n          0x20\n            /* \"--CODEGEN--\":8:11   */\n          dup2\n            /* \"--CODEGEN--\":5:16   */\n          lt\n            /* \"--CODEGEN--\":2:4   */\n          iszero\n          tag_13\n          jumpi\n            /* \"--CODEGEN--\":29:30   */\n          0x00\n            /* \"--CODEGEN--\":26:27   */\n          dup1\n            /* \"--CODEGEN--\":19:31   */\n          revert\n            /* \"--CODEGEN--\":2:4   */\n        tag_13:\n            /* \"transporters.sol\":443:688   */\n          dup2\n          add\n          swap1\n          dup1\n          dup1\n          calldataload\n          0xffffffffffffffffffffffffffffffffffffffff\n          and\n          swap1\n          0x20\n          add\n          swap1\n          swap3\n          swap2\n          swap1\n          pop\n          pop\n          pop\n          tag_14\n          jump\t// in\n        tag_12:\n          mload(0x40)\n          dup1\n          dup3\n          iszero\n          iszero\n          iszero\n          iszero\n          dup2\n          mstore\n          0x20\n          add\n          swap2\n          pop\n          pop\n          mload(0x40)\n          dup1\n          swap2\n          sub\n          swap1\n          return\n            /* \"transporters.sol\":311:344   */\n        tag_5:\n          tag_15\n          0x04\n          dup1\n          calldatasize\n          sub\n            /* \"--CODEGEN--\":13:15   */\n          0x20\n            /* \"--CODEGEN--\":8:11   */\n          dup2\n            /* \"--CODEGEN--\":5:16   */\n          lt\n            /* \"--CODEGEN--\":2:4   */\n          iszero\n          tag_16\n          jumpi\n            /* \"--CODEGEN--\":29:30   */\n          0x00\n            /* \"--CODEGEN--\":26:27   */\n          dup1\n            /* \"--CODEGEN--\":19:31   */\n          revert\n            /* \"--CODEGEN--\":2:4   */\n        tag_16:\n            /* \"transporters.sol\":311:344   */\n          dup2\n          add\n          swap1\n          dup1\n          dup1\n          calldataload\n          swap1\n          0x20\n          add\n          swap1\n          swap3\n          swap2\n          swap1\n          pop\n          pop\n          pop\n          tag_17\n          jump\t// in\n        tag_15:\n          mload(0x40)\n          dup1\n          dup3\n          0xffffffffffffffffffffffffffffffffffffffff\n          and\n          0xffffffffffffffffffffffffffffffffffffffff\n          and\n          dup2\n          mstore\n          0x20\n          add\n          swap2\n          pop\n          pop\n          mload(0x40)\n          dup1\n          swap2\n          sub\n          swap1\n          return\n            /* \"transporters.sol\":694:1258   */\n        tag_11:\n            /* \"transporters.sol\":828:840   */\n          0x00\n            /* \"transporters.sol\":874:894   */\n          dup1\n          0x00\n          swap1\n          sload\n          swap1\n          0x0100\n          exp\n          swap1\n          div\n          0xffffffffffffffffffffffffffffffffffffffff\n          and\n            /* \"transporters.sol\":860:894   */\n          0xffffffffffffffffffffffffffffffffffffffff\n          and\n            /* \"transporters.sol\":860:870   */\n          caller\n            /* \"transporters.sol\":860:894   */\n          0xffffffffffffffffffffffffffffffffffffffff\n          and\n          eq\n            /* \"transporters.sol\":852:923   */\n          iszero\n          iszero\n          tag_19\n          jumpi\n          mload(0x40)\n          0x08c379a000000000000000000000000000000000000000000000000000000000\n          dup2\n          mstore\n          0x04\n          add\n          dup1\n          dup1\n          0x20\n          add\n          dup3\n          dup2\n          sub\n          dup3\n          mstore\n          0x18\n          dup2\n          mstore\n          0x20\n          add\n          dup1\n          0x6f6e6c792054432063616e20646f20746869732063616c6c0000000000000000\n          dup2\n          mstore\n          pop\n          0x20\n          add\n          swap2\n          pop\n          pop\n          mload(0x40)\n          dup1\n          swap2\n          sub\n          swap1\n          revert\n        tag_19:\n            /* \"transporters.sol\":986:991   */\n          0x00\n            /* \"transporters.sol\":948:991   */\n          iszero\n          iszero\n            /* \"transporters.sol\":948:982   */\n          tag_20\n            /* \"transporters.sol\":962:981   */\n          dup5\n            /* \"transporters.sol\":948:961   */\n          tag_14\n            /* \"transporters.sol\":948:982   */\n          jump\t// in\n        tag_20:\n            /* \"transporters.sol\":948:991   */\n          iszero\n          iszero\n          eq\n            /* \"transporters.sol\":940:1032   */\n          iszero\n          iszero\n          tag_21\n          jumpi\n          mload(0x40)\n          0x08c379a000000000000000000000000000000000000000000000000000000000\n          dup2\n          mstore\n          0x04\n          add\n          dup1\n          dup1\n          0x20\n          add\n          dup3\n          dup2\n          sub\n          dup3\n          mstore\n          0x24\n          dup2\n          mstore\n          0x20\n          add\n          dup1\n          data_d9f06d8d571f83f09cf10fcc0554a339ee7eaeca042eb19193eafe1b175edaae\n          0x24\n          swap2\n          codecopy\n          0x40\n          add\n          swap2\n          pop\n          pop\n          mload(0x40)\n          dup1\n          swap2\n          sub\n          swap1\n          revert\n        tag_21:\n            /* \"transporters.sol\":1106:1123   */\n          dup2\n            /* \"transporters.sol\":1053:1065   */\n          0x01\n            /* \"transporters.sol\":1053:1086   */\n          0x00\n            /* \"transporters.sol\":1066:1085   */\n          dup6\n            /* \"transporters.sol\":1053:1086   */\n          0xffffffffffffffffffffffffffffffffffffffff\n          and\n          0xffffffffffffffffffffffffffffffffffffffff\n          and\n          dup2\n          mstore\n          0x20\n          add\n          swap1\n          dup2\n          mstore\n          0x20\n          add\n          0x00\n          keccak256\n            /* \"transporters.sol\":1053:1103   */\n          0x00\n          add\n            /* \"transporters.sol\":1053:1123   */\n          swap1\n          dup1\n          mload\n          swap1\n          0x20\n          add\n          swap1\n          tag_22\n          swap3\n          swap2\n          swap1\n          tag_23\n          jump\t// in\n        tag_22:\n          pop\n            /* \"transporters.sol\":1220:1221   */\n          0x01\n            /* \"transporters.sol\":1175:1191   */\n          0x02\n            /* \"transporters.sol\":1197:1216   */\n          dup5\n            /* \"transporters.sol\":1175:1217   */\n          swap1\n          dup1\n            /* \"--CODEGEN--\":39:40   */\n          0x01\n            /* \"--CODEGEN--\":33:36   */\n          dup2\n            /* \"--CODEGEN--\":27:37   */\n          sload\n            /* \"--CODEGEN--\":23:41   */\n          add\n            /* \"--CODEGEN--\":57:67   */\n          dup1\n            /* \"--CODEGEN--\":52:55   */\n          dup3\n            /* \"--CODEGEN--\":45:68   */\n          sstore\n            /* \"--CODEGEN--\":79:89   */\n          dup1\n            /* \"--CODEGEN--\":72:89   */\n          swap2\n          pop\n            /* \"--CODEGEN--\":0:93   */\n          pop\n            /* \"transporters.sol\":1175:1217   */\n          swap1\n          0x01\n          dup3\n          sub\n          swap1\n          0x00\n          mstore\n          keccak256(0x00, 0x20)\n          add\n          0x00\n          swap1\n          swap2\n          swap3\n          swap1\n          swap2\n          swap1\n          swap2\n          0x0100\n          exp\n          dup2\n          sload\n          dup2\n          0xffffffffffffffffffffffffffffffffffffffff\n          mul\n          not\n          and\n          swap1\n          dup4\n          0xffffffffffffffffffffffffffffffffffffffff\n          and\n          mul\n          or\n          swap1\n          sstore\n          pop\n            /* \"transporters.sol\":1175:1221   */\n          sub\n            /* \"transporters.sol\":1133:1145   */\n          0x01\n            /* \"transporters.sol\":1133:1166   */\n          0x00\n            /* \"transporters.sol\":1146:1165   */\n          dup6\n            /* \"transporters.sol\":1133:1166   */\n          0xffffffffffffffffffffffffffffffffffffffff\n          and\n          0xffffffffffffffffffffffffffffffffffffffff\n          and\n          dup2\n          mstore\n          0x20\n          add\n          swap1\n          dup2\n          mstore\n          0x20\n          add\n          0x00\n          keccak256\n            /* \"transporters.sol\":1133:1172   */\n          0x01\n          add\n            /* \"transporters.sol\":1133:1221   */\n          dup2\n          swap1\n          sstore\n          pop\n            /* \"transporters.sol\":1247:1251   */\n          0x01\n            /* \"transporters.sol\":1240:1251   */\n          swap1\n          pop\n            /* \"transporters.sol\":694:1258   */\n          swap3\n          swap2\n          pop\n          pop\n          jump\t// out\n            /* \"transporters.sol\":443:688   */\n        tag_14:\n            /* \"transporters.sol\":514:527   */\n          0x00\n            /* \"transporters.sol\":569:570   */\n          dup1\n            /* \"transporters.sol\":542:558   */\n          0x02\n            /* \"transporters.sol\":542:565   */\n          dup1\n          sload\n          swap1\n          pop\n            /* \"transporters.sol\":542:570   */\n          eq\n            /* \"transporters.sol\":539:584   */\n          iszero\n          tag_26\n          jumpi\n            /* \"transporters.sol\":579:584   */\n          0x00\n            /* \"transporters.sol\":572:584   */\n          swap1\n          pop\n          jump(tag_25)\n            /* \"transporters.sol\":539:584   */\n        tag_26:\n            /* \"transporters.sol\":662:680   */\n          dup2\n            /* \"transporters.sol\":602:680   */\n          0xffffffffffffffffffffffffffffffffffffffff\n          and\n            /* \"transporters.sol\":602:618   */\n          0x02\n            /* \"transporters.sol\":619:631   */\n          0x01\n            /* \"transporters.sol\":619:651   */\n          0x00\n            /* \"transporters.sol\":632:650   */\n          dup6\n            /* \"transporters.sol\":619:651   */\n          0xffffffffffffffffffffffffffffffffffffffff\n          and\n          0xffffffffffffffffffffffffffffffffffffffff\n          and\n          dup2\n          mstore\n          0x20\n          add\n          swap1\n          dup2\n          mstore\n          0x20\n          add\n          0x00\n          keccak256\n            /* \"transporters.sol\":619:657   */\n          0x01\n          add\n          sload\n            /* \"transporters.sol\":602:658   */\n          dup2\n          sload\n          dup2\n          lt\n          iszero\n          iszero\n          tag_27\n          jumpi\n          invalid\n        tag_27:\n          swap1\n          0x00\n          mstore\n          keccak256(0x00, 0x20)\n          add\n          0x00\n          swap1\n          sload\n          swap1\n          0x0100\n          exp\n          swap1\n          div\n          0xffffffffffffffffffffffffffffffffffffffff\n          and\n            /* \"transporters.sol\":602:680   */\n          0xffffffffffffffffffffffffffffffffffffffff\n          and\n          eq\n            /* \"transporters.sol\":594:681   */\n          swap1\n          pop\n            /* \"transporters.sol\":443:688   */\n        tag_25:\n          swap2\n          swap1\n          pop\n          jump\t// out\n            /* \"transporters.sol\":311:344   */\n        tag_17:\n          0x02\n          dup2\n          dup2\n          sload\n          dup2\n          lt\n          iszero\n          iszero\n          tag_29\n          jumpi\n          invalid\n        tag_29:\n          swap1\n          0x00\n          mstore\n          keccak256(0x00, 0x20)\n          add\n          0x00\n          swap2\n          pop\n          sload\n          swap1\n          0x0100\n          exp\n          swap1\n          div\n          0xffffffffffffffffffffffffffffffffffffffff\n          and\n          dup2\n          jump\t// out\n            /* \"transporters.sol\":25:1265   */\n        tag_23:\n          dup3\n          dup1\n          sload\n          0x01\n          dup2\n          0x01\n          and\n          iszero\n          0x0100\n          mul\n          sub\n          and\n          0x02\n          swap1\n          div\n          swap1\n          0x00\n          mstore\n          keccak256(0x00, 0x20)\n          swap1\n          0x1f\n          add\n          0x20\n          swap1\n          div\n          dup2\n          add\n          swap3\n          dup3\n          0x1f\n          lt\n          tag_32\n          jumpi\n          dup1\n          mload\n          not(0xff)\n          and\n          dup4\n          dup1\n          add\n          or\n          dup6\n          sstore\n          jump(tag_31)\n        tag_32:\n          dup3\n          dup1\n          add\n          0x01\n          add\n          dup6\n          sstore\n          dup3\n          iszero\n          tag_31\n          jumpi\n          swap2\n          dup3\n          add\n        tag_33:\n          dup3\n          dup2\n          gt\n          iszero\n          tag_34\n          jumpi\n          dup3\n          mload\n          dup3\n          sstore\n          swap2\n          0x20\n          add\n          swap2\n          swap1\n          0x01\n          add\n          swap1\n          jump(tag_33)\n        tag_34:\n        tag_31:\n          pop\n          swap1\n          pop\n          tag_35\n          swap2\n          swap1\n          tag_36\n          jump\t// in\n        tag_35:\n          pop\n          swap1\n          jump\t// out\n        tag_36:\n          tag_37\n          swap2\n          swap1\n        tag_38:\n          dup1\n          dup3\n          gt\n          iszero\n          tag_39\n          jumpi\n          0x00\n          dup2\n          0x00\n          swap1\n          sstore\n          pop\n          0x01\n          add\n          jump(tag_38)\n        tag_39:\n          pop\n          swap1\n          jump\n        tag_37:\n          swap1\n          jump\t// out\n        stop\n        data_d9f06d8d571f83f09cf10fcc0554a339ee7eaeca042eb19193eafe1b175edaae 5472616e73706f7274657220697320616c726561647920696e207468652073797374656d\n\n        auxdata: 0xa165627a7a72305820751005a15c8c5d02a201774a5bbd64314c947a493de12b9b133efde4fc555dea0029\n    }\n}\n\nsub_4: assembly {\n        /* \"shops.sol\":25:2501   */\n      mstore(0x40, 0x80)\n        /* \"shops.sol\":523:598   */\n      callvalue\n        /* \"--CODEGEN--\":8:17   */\n      dup1\n        /* \"--CODEGEN--\":5:7   */\n      iszero\n      tag_1\n      jumpi\n        /* \"--CODEGEN--\":30:31   */\n      0x00\n        /* \"--CODEGEN--\":27:28   */\n      dup1\n        /* \"--CODEGEN--\":20:32   */\n      revert\n        /* \"--CODEGEN--\":5:7   */\n    tag_1:\n        /* \"shops.sol\":523:598   */\n      pop\n      mload(0x40)\n      0x20\n      dup1\n      bytecodeSize\n      dup4\n      codecopy\n      dup2\n      add\n      dup1\n      0x40\n      mstore\n        /* \"--CODEGEN--\":13:15   */\n      0x20\n        /* \"--CODEGEN--\":8:11   */\n      dup2\n        /* \"--CODEGEN--\":5:16   */\n      lt\n        /* \"--CODEGEN--\":2:4   */\n      iszero\n      tag_2\n      jumpi\n        /* \"--CODEGEN--\":29:30   */\n      0x00\n        /* \"--CODEGEN--\":26:27   */\n      dup1\n        /* \"--CODEGEN--\":19:31   */\n      revert\n        /* \"--CODEGEN--\":2:4   */\n    tag_2:\n        /* \"shops.sol\":523:598   */\n      dup2\n      add\n      swap1\n      dup1\n      dup1\n      mload\n      swap1\n      0x20\n      add\n      swap1\n      swap3\n      swap2\n      swap1\n      pop\n      pop\n      pop\n        /* \"shops.sol\":588:591   */\n      dup1\n        /* \"shops.sol\":565:585   */\n      0x00\n      dup1\n        /* \"shops.sol\":565:591   */\n      0x0100\n      exp\n      dup2\n      sload\n      dup2\n      0xffffffffffffffffffffffffffffffffffffffff\n      mul\n      not\n      and\n      swap1\n      dup4\n      0xffffffffffffffffffffffffffffffffffffffff\n      and\n      mul\n      or\n      swap1\n      sstore\n      pop\n        /* \"shops.sol\":523:598   */\n      pop\n        /* \"shops.sol\":25:2501   */\n      dataSize(sub_0)\n      dup1\n      dataOffset(sub_0)\n      0x00\n      codecopy\n      0x00\n      return\n    stop\n\n    sub_0: assembly {\n            /* \"shops.sol\":25:2501   */\n          mstore(0x40, 0x80)\n          callvalue\n            /* \"--CODEGEN--\":8:17   */\n          dup1\n            /* \"--CODEGEN--\":5:7   */\n          iszero\n          tag_1\n          jumpi\n            /* \"--CODEGEN--\":30:31   */\n          0x00\n            /* \"--CODEGEN--\":27:28   */\n          dup1\n            /* \"--CODEGEN--\":20:32   */\n          revert\n            /* \"--CODEGEN--\":5:7   */\n        tag_1:\n            /* \"shops.sol\":25:2501   */\n          pop\n          jumpi(tag_2, lt(calldatasize, 0x04))\n          calldataload(0x00)\n          0x0100000000000000000000000000000000000000000000000000000000\n          swap1\n          div\n          dup1\n          0x079320a1\n          eq\n          tag_3\n          jumpi\n          dup1\n          0x1d0e8a4d\n          eq\n          tag_4\n          jumpi\n          dup1\n          0x62e6115a\n          eq\n          tag_5\n          jumpi\n          dup1\n          0x91104740\n          eq\n          tag_6\n          jumpi\n          dup1\n          0x9b7e02eb\n          eq\n          tag_7\n          jumpi\n        tag_2:\n          0x00\n          dup1\n          revert\n            /* \"shops.sol\":489:516   */\n        tag_3:\n          tag_8\n          0x04\n          dup1\n          calldatasize\n          sub\n            /* \"--CODEGEN--\":13:15   */\n          0x20\n            /* \"--CODEGEN--\":8:11   */\n          dup2\n            /* \"--CODEGEN--\":5:16   */\n          lt\n            /* \"--CODEGEN--\":2:4   */\n          iszero\n          tag_9\n          jumpi\n            /* \"--CODEGEN--\":29:30   */\n          0x00\n            /* \"--CODEGEN--\":26:27   */\n          dup1\n            /* \"--CODEGEN--\":19:31   */\n          revert\n            /* \"--CODEGEN--\":2:4   */\n        tag_9:\n            /* \"shops.sol\":489:516   */\n          dup2\n          add\n          swap1\n          dup1\n          dup1\n          calldataload\n          swap1\n          0x20\n          add\n          swap1\n          swap3\n          swap2\n          swap1\n          pop\n          pop\n          pop\n          tag_10\n          jump\t// in\n        tag_8:\n          mload(0x40)\n          dup1\n          dup3\n          0xffffffffffffffffffffffffffffffffffffffff\n          and\n          0xffffffffffffffffffffffffffffffffffffffff\n          and\n          dup2\n          mstore\n          0x20\n          add\n          swap2\n          pop\n          pop\n          mload(0x40)\n          dup1\n          swap2\n          sub\n          swap1\n          return\n            /* \"shops.sol\":604:802   */\n        tag_4:\n          tag_11\n          0x04\n          dup1\n          calldatasize\n          sub\n            /* \"--CODEGEN--\":13:15   */\n          0x20\n            /* \"--CODEGEN--\":8:11   */\n          dup2\n            /* \"--CODEGEN--\":5:16   */\n          lt\n            /* \"--CODEGEN--\":2:4   */\n          iszero\n          tag_12\n          jumpi\n            /* \"--CODEGEN--\":29:30   */\n          0x00\n            /* \"--CODEGEN--\":26:27   */\n          dup1\n            /* \"--CODEGEN--\":19:31   */\n          revert\n            /* \"--CODEGEN--\":2:4   */\n        tag_12:\n            /* \"shops.sol\":604:802   */\n          dup2\n          add\n          swap1\n          dup1\n          dup1\n          calldataload\n          0xffffffffffffffffffffffffffffffffffffffff\n          and\n          swap1\n          0x20\n          add\n          swap1\n          swap3\n          swap2\n          swap1\n          pop\n          pop\n          pop\n          tag_13\n          jump\t// in\n        tag_11:\n          mload(0x40)\n          dup1\n          dup3\n          iszero\n          iszero\n          iszero\n          iszero\n          dup2\n          mstore\n          0x20\n          add\n          swap2\n          pop\n          pop\n          mload(0x40)\n          dup1\n          swap2\n          sub\n          swap1\n          return\n            /* \"shops.sol\":1240:1640   */\n        tag_5:\n          tag_14\n          0x04\n          dup1\n          calldatasize\n          sub\n            /* \"--CODEGEN--\":13:15   */\n          0x40\n            /* \"--CODEGEN--\":8:11   */\n          dup2\n            /* \"--CODEGEN--\":5:16   */\n          lt\n            /* \"--CODEGEN--\":2:4   */\n          iszero\n          tag_15\n          jumpi\n            /* \"--CODEGEN--\":29:30   */\n          0x00\n            /* \"--CODEGEN--\":26:27   */\n          dup1\n            /* \"--CODEGEN--\":19:31   */\n          revert\n            /* \"--CODEGEN--\":2:4   */\n        tag_15:\n            /* \"shops.sol\":1240:1640   */\n          dup2\n          add\n          swap1\n          dup1\n          dup1\n          calldataload\n          0xffffffffffffffffffffffffffffffffffffffff\n          and\n          swap1\n          0x20\n          add\n          swap1\n          swap3\n          swap2\n          swap1\n          dup1\n          calldataload\n          0xffffffffffffffffffffffffffffffffffffffff\n          and\n          swap1\n          0x20\n          add\n          swap1\n          swap3\n          swap2\n          swap1\n          pop\n          pop\n          pop\n          tag_16\n          jump\t// in\n        tag_14:\n          mload(0x40)\n          dup1\n          dup3\n          iszero\n          iszero\n          iszero\n          iszero\n          dup2\n          mstore\n          0x20\n          add\n          swap2\n          pop\n          pop\n          mload(0x40)\n          dup1\n          swap2\n          sub\n          swap1\n          return\n            /* \"shops.sol\":1646:2499   */\n        tag_6:\n          tag_17\n          0x04\n          dup1\n          calldatasize\n          sub\n            /* \"--CODEGEN--\":13:15   */\n          0x40\n            /* \"--CODEGEN--\":8:11   */\n          dup2\n            /* \"--CODEGEN--\":5:16   */\n          lt\n            /* \"--CODEGEN--\":2:4   */\n          iszero\n          tag_18\n          jumpi\n            /* \"--CODEGEN--\":29:30   */\n          0x00\n            /* \"--CODEGEN--\":26:27   */\n          dup1\n            /* \"--CODEGEN--\":19:31   */\n          revert\n            /* \"--CODEGEN--\":2:4   */\n        tag_18:\n            /* \"shops.sol\":1646:2499   */\n          dup2\n          add\n          swap1\n          dup1\n          dup1\n          calldataload\n          0xffffffffffffffffffffffffffffffffffffffff\n          and\n          swap1\n          0x20\n          add\n          swap1\n          swap3\n          swap2\n          swap1\n          dup1\n          calldataload\n          0xffffffffffffffffffffffffffffffffffffffff\n          and\n          swap1\n          0x20\n          add\n          swap1\n          swap3\n          swap2\n          swap1\n          pop\n          pop\n          pop\n          tag_19\n          jump\t// in\n        tag_17:\n          mload(0x40)\n          dup1\n          dup3\n          iszero\n          iszero\n          iszero\n          iszero\n          dup2\n          mstore\n          0x20\n          add\n          swap2\n          pop\n          pop\n          mload(0x40)\n          dup1\n          swap2\n          sub\n          swap1\n          return\n            /* \"shops.sol\":808:1234   */\n        tag_7:\n          tag_20\n          0x04\n          dup1\n          calldatasize\n          sub\n            /* \"--CODEGEN--\":13:15   */\n          0x40\n            /* \"--CODEGEN--\":8:11   */\n          dup2\n            /* \"--CODEGEN--\":5:16   */\n          lt\n            /* \"--CODEGEN--\":2:4   */\n          iszero\n          tag_21\n          jumpi\n            /* \"--CODEGEN--\":29:30   */\n          0x00\n            /* \"--CODEGEN--\":26:27   */\n          dup1\n            /* \"--CODEGEN--\":19:31   */\n          revert\n            /* \"--CODEGEN--\":2:4   */\n        tag_21:\n            /* \"shops.sol\":808:1234   */\n          dup2\n          add\n          swap1\n          dup1\n          dup1\n          calldataload\n          0xffffffffffffffffffffffffffffffffffffffff\n          and\n          swap1\n          0x20\n          add\n          swap1\n          swap3\n          swap2\n          swap1\n          dup1\n          calldataload\n          swap1\n          0x20\n          add\n          swap1\n            /* \"--CODEGEN--\":21:32   */\n          0x0100000000\n            /* \"--CODEGEN--\":8:19   */\n          dup2\n            /* \"--CODEGEN--\":5:33   */\n          gt\n            /* \"--CODEGEN--\":2:4   */\n          iszero\n          tag_22\n          jumpi\n            /* \"--CODEGEN--\":46:47   */\n          0x00\n            /* \"--CODEGEN--\":43:44   */\n          dup1\n            /* \"--CODEGEN--\":36:48   */\n          revert\n            /* \"--CODEGEN--\":2:4   */\n        tag_22:\n            /* \"shops.sol\":808:1234   */\n          dup3\n          add\n            /* \"--CODEGEN--\":35:44   */\n          dup4\n            /* \"--CODEGEN--\":28:32   */\n          0x20\n            /* \"--CODEGEN--\":12:26   */\n          dup3\n            /* \"--CODEGEN--\":8:33   */\n          add\n            /* \"--CODEGEN--\":5:45   */\n          gt\n            /* \"--CODEGEN--\":2:4   */\n          iszero\n          tag_23\n          jumpi\n            /* \"--CODEGEN--\":58:59   */\n          0x00\n            /* \"--CODEGEN--\":55:56   */\n          dup1\n            /* \"--CODEGEN--\":48:60   */\n          revert\n            /* \"--CODEGEN--\":2:4   */\n        tag_23:\n            /* \"shops.sol\":808:1234   */\n          dup1\n          calldataload\n          swap1\n          0x20\n          add\n          swap2\n            /* \"--CODEGEN--\":100:109   */\n          dup5\n            /* \"--CODEGEN--\":95:96   */\n          0x01\n            /* \"--CODEGEN--\":81:93   */\n          dup4\n            /* \"--CODEGEN--\":77:97   */\n          mul\n            /* \"--CODEGEN--\":67:75   */\n          dup5\n            /* \"--CODEGEN--\":63:98   */\n          add\n            /* \"--CODEGEN--\":60:110   */\n          gt\n            /* \"--CODEGEN--\":39:50   */\n          0x0100000000\n            /* \"--CODEGEN--\":25:37   */\n          dup4\n            /* \"--CODEGEN--\":22:51   */\n          gt\n            /* \"--CODEGEN--\":11:118   */\n          or\n            /* \"--CODEGEN--\":8:10   */\n          iszero\n          tag_24\n          jumpi\n            /* \"--CODEGEN--\":131:132   */\n          0x00\n            /* \"--CODEGEN--\":128:129   */\n          dup1\n            /* \"--CODEGEN--\":121:133   */\n          revert\n            /* \"--CODEGEN--\":8:10   */\n        tag_24:\n            /* \"shops.sol\":808:1234   */\n          swap2\n          swap1\n          dup1\n          dup1\n          0x1f\n          add\n          0x20\n          dup1\n          swap2\n          div\n          mul\n          0x20\n          add\n          mload(0x40)\n          swap1\n          dup2\n          add\n          0x40\n          mstore\n          dup1\n          swap4\n          swap3\n          swap2\n          swap1\n          dup2\n          dup2\n          mstore\n          0x20\n          add\n          dup4\n          dup4\n            /* \"--CODEGEN--\":30:33   */\n          dup1\n            /* \"--CODEGEN--\":22:28   */\n          dup3\n            /* \"--CODEGEN--\":14:20   */\n          dup5\n            /* \"--CODEGEN--\":1:34   */\n          calldatacopy\n            /* \"--CODEGEN--\":99:100   */\n          0x00\n            /* \"--CODEGEN--\":93:96   */\n          dup2\n            /* \"--CODEGEN--\":85:91   */\n          dup5\n            /* \"--CODEGEN--\":81:97   */\n          add\n            /* \"--CODEGEN--\":74:101   */\n          mstore\n            /* \"--CODEGEN--\":137:141   */\n          0x1f\n            /* \"--CODEGEN--\":133:142   */\n          not\n            /* \"--CODEGEN--\":126:130   */\n          0x1f\n            /* \"--CODEGEN--\":121:124   */\n          dup3\n            /* \"--CODEGEN--\":117:131   */\n          add\n            /* \"--CODEGEN--\":113:143   */\n          and\n            /* \"--CODEGEN--\":106:143   */\n          swap1\n          pop\n            /* \"--CODEGEN--\":169:172   */\n          dup1\n            /* \"--CODEGEN--\":161:167   */\n          dup4\n            /* \"--CODEGEN--\":157:173   */\n          add\n            /* \"--CODEGEN--\":147:173   */\n          swap3\n          pop\n            /* \"shops.sol\":808:1234   */\n          pop\n          pop\n          pop\n          pop\n          pop\n          pop\n          swap2\n          swap3\n          swap2\n          swap3\n          swap1\n          pop\n          pop\n          pop\n          tag_25\n          jump\t// in\n        tag_20:\n          mload(0x40)\n          dup1\n          dup3\n          dup2\n          mstore\n          0x20\n          add\n          swap2\n          pop\n          pop\n          mload(0x40)\n          dup1\n          swap2\n          sub\n          swap1\n          return\n            /* \"shops.sol\":489:516   */\n        tag_10:\n          0x02\n          dup2\n          dup2\n          sload\n          dup2\n          lt\n          iszero\n          iszero\n          tag_26\n          jumpi\n          invalid\n        tag_26:\n          swap1\n          0x00\n          mstore\n          keccak256(0x00, 0x20)\n          add\n          0x00\n          swap2\n          pop\n          sload\n          swap1\n          0x0100\n          exp\n          swap1\n          div\n          0xffffffffffffffffffffffffffffffffffffffff\n          and\n          dup2\n          jump\t// out\n            /* \"shops.sol\":604:802   */\n        tag_13:\n            /* \"shops.sol\":661:674   */\n          0x00\n            /* \"shops.sol\":710:711   */\n          dup1\n            /* \"shops.sol\":689:699   */\n          0x02\n            /* \"shops.sol\":689:706   */\n          dup1\n          sload\n          swap1\n          pop\n            /* \"shops.sol\":689:711   */\n          eq\n            /* \"shops.sol\":686:725   */\n          iszero\n          tag_29\n          jumpi\n            /* \"shops.sol\":720:725   */\n          0x00\n            /* \"shops.sol\":713:725   */\n          swap1\n          pop\n          jump(tag_28)\n            /* \"shops.sol\":686:725   */\n        tag_29:\n            /* \"shops.sol\":783:794   */\n          dup2\n            /* \"shops.sol\":743:794   */\n          0xffffffffffffffffffffffffffffffffffffffff\n          and\n            /* \"shops.sol\":743:753   */\n          0x02\n            /* \"shops.sol\":754:759   */\n          0x01\n            /* \"shops.sol\":754:772   */\n          0x00\n            /* \"shops.sol\":760:771   */\n          dup6\n            /* \"shops.sol\":754:772   */\n          0xffffffffffffffffffffffffffffffffffffffff\n          and\n          0xffffffffffffffffffffffffffffffffffffffff\n          and\n          dup2\n          mstore\n          0x20\n          add\n          swap1\n          dup2\n          mstore\n          0x20\n          add\n          0x00\n          keccak256\n            /* \"shops.sol\":754:778   */\n          0x01\n          add\n          sload\n            /* \"shops.sol\":743:779   */\n          dup2\n          sload\n          dup2\n          lt\n          iszero\n          iszero\n          tag_30\n          jumpi\n          invalid\n        tag_30:\n          swap1\n          0x00\n          mstore\n          keccak256(0x00, 0x20)\n          add\n          0x00\n          swap1\n          sload\n          swap1\n          0x0100\n          exp\n          swap1\n          div\n          0xffffffffffffffffffffffffffffffffffffffff\n          and\n            /* \"shops.sol\":743:794   */\n          0xffffffffffffffffffffffffffffffffffffffff\n          and\n          eq\n            /* \"shops.sol\":735:795   */\n          swap1\n          pop\n            /* \"shops.sol\":604:802   */\n        tag_28:\n          swap2\n          swap1\n          pop\n          jump\t// out\n            /* \"shops.sol\":1240:1640   */\n        tag_16:\n            /* \"shops.sol\":1326:1338   */\n          0x00\n            /* \"shops.sol\":1371:1391   */\n          dup1\n          0x00\n          swap1\n          sload\n          swap1\n          0x0100\n          exp\n          swap1\n          div\n          0xffffffffffffffffffffffffffffffffffffffff\n          and\n            /* \"shops.sol\":1357:1391   */\n          0xffffffffffffffffffffffffffffffffffffffff\n          and\n            /* \"shops.sol\":1357:1367   */\n          caller\n            /* \"shops.sol\":1357:1391   */\n          0xffffffffffffffffffffffffffffffffffffffff\n          and\n          eq\n            /* \"shops.sol\":1349:1420   */\n          iszero\n          iszero\n          tag_33\n          jumpi\n          mload(0x40)\n          0x08c379a000000000000000000000000000000000000000000000000000000000\n          dup2\n          mstore\n          0x04\n          add\n          dup1\n          dup1\n          0x20\n          add\n          dup3\n          dup2\n          sub\n          dup3\n          mstore\n          0x18\n          dup2\n          mstore\n          0x20\n          add\n          dup1\n          0x6f6e6c792054432063616e20646f20746869732063616c6c0000000000000000\n          dup2\n          mstore\n          pop\n          0x20\n          add\n          swap2\n          pop\n          pop\n          mload(0x40)\n          dup1\n          swap2\n          sub\n          swap1\n          revert\n        tag_33:\n            /* \"shops.sol\":1438:1458   */\n          tag_34\n            /* \"shops.sol\":1445:1457   */\n          dup4\n            /* \"shops.sol\":1438:1444   */\n          tag_13\n            /* \"shops.sol\":1438:1458   */\n          jump\t// in\n        tag_34:\n            /* \"shops.sol\":1430:1489   */\n          iszero\n          iszero\n          tag_35\n          jumpi\n          mload(0x40)\n          0x08c379a000000000000000000000000000000000000000000000000000000000\n          dup2\n          mstore\n          0x04\n          add\n          dup1\n          dup1\n          0x20\n          add\n          dup3\n          dup2\n          sub\n          dup3\n          mstore\n          0x1a\n          dup2\n          mstore\n          0x20\n          add\n          dup1\n          0x57726f6e672073686f70416464726573732070726f7669646564000000000000\n          dup2\n          mstore\n          pop\n          0x20\n          add\n          swap2\n          pop\n          pop\n          mload(0x40)\n          dup1\n          swap2\n          sub\n          swap1\n          revert\n        tag_35:\n            /* \"shops.sol\":1611:1612   */\n          0x01\n            /* \"shops.sol\":1551:1556   */\n          dup1\n            /* \"shops.sol\":1551:1570   */\n          0x00\n            /* \"shops.sol\":1557:1569   */\n          dup6\n            /* \"shops.sol\":1551:1570   */\n          0xffffffffffffffffffffffffffffffffffffffff\n          and\n          0xffffffffffffffffffffffffffffffffffffffff\n          and\n          dup2\n          mstore\n          0x20\n          add\n          swap1\n          dup2\n          mstore\n          0x20\n          add\n          0x00\n          keccak256\n            /* \"shops.sol\":1551:1588   */\n          0x03\n          add\n            /* \"shops.sol\":1594:1607   */\n          dup4\n            /* \"shops.sol\":1551:1608   */\n          swap1\n          dup1\n            /* \"--CODEGEN--\":39:40   */\n          0x01\n            /* \"--CODEGEN--\":33:36   */\n          dup2\n            /* \"--CODEGEN--\":27:37   */\n          sload\n            /* \"--CODEGEN--\":23:41   */\n          add\n            /* \"--CODEGEN--\":57:67   */\n          dup1\n            /* \"--CODEGEN--\":52:55   */\n          dup3\n            /* \"--CODEGEN--\":45:68   */\n          sstore\n            /* \"--CODEGEN--\":79:89   */\n          dup1\n            /* \"--CODEGEN--\":72:89   */\n          swap2\n          pop\n            /* \"--CODEGEN--\":0:93   */\n          pop\n            /* \"shops.sol\":1551:1608   */\n          swap1\n          0x01\n          dup3\n          sub\n          swap1\n          0x00\n          mstore\n          keccak256(0x00, 0x20)\n          add\n          0x00\n          swap1\n          swap2\n          swap3\n          swap1\n          swap2\n          swap1\n          swap2\n          0x0100\n          exp\n          dup2\n          sload\n          dup2\n          0xffffffffffffffffffffffffffffffffffffffff\n          mul\n          not\n          and\n          swap1\n          dup4\n          0xffffffffffffffffffffffffffffffffffffffff\n          and\n          mul\n          or\n          swap1\n          sstore\n          pop\n            /* \"shops.sol\":1551:1612   */\n          sub\n            /* \"shops.sol\":1500:1505   */\n          0x01\n            /* \"shops.sol\":1500:1519   */\n          0x00\n            /* \"shops.sol\":1506:1518   */\n          dup6\n            /* \"shops.sol\":1500:1519   */\n          0xffffffffffffffffffffffffffffffffffffffff\n          and\n          0xffffffffffffffffffffffffffffffffffffffff\n          and\n          dup2\n          mstore\n          0x20\n          add\n          swap1\n          dup2\n          mstore\n          0x20\n          add\n          0x00\n          keccak256\n            /* \"shops.sol\":1500:1533   */\n          0x02\n          add\n            /* \"shops.sol\":1500:1548   */\n          0x00\n            /* \"shops.sol\":1534:1547   */\n          dup5\n            /* \"shops.sol\":1500:1548   */\n          0xffffffffffffffffffffffffffffffffffffffff\n          and\n          0xffffffffffffffffffffffffffffffffffffffff\n          and\n          dup2\n          mstore\n          0x20\n          add\n          swap1\n          dup2\n          mstore\n          0x20\n          add\n          0x00\n          keccak256\n            /* \"shops.sol\":1500:1612   */\n          dup2\n          swap1\n          sstore\n          pop\n            /* \"shops.sol\":1629:1633   */\n          0x01\n            /* \"shops.sol\":1622:1633   */\n          swap1\n          pop\n            /* \"shops.sol\":1240:1640   */\n          swap3\n          swap2\n          pop\n          pop\n          jump\t// out\n            /* \"shops.sol\":1646:2499   */\n        tag_19:\n            /* \"shops.sol\":1729:1741   */\n          0x00\n            /* \"shops.sol\":1774:1794   */\n          dup1\n          0x00\n          swap1\n          sload\n          swap1\n          0x0100\n          exp\n          swap1\n          div\n          0xffffffffffffffffffffffffffffffffffffffff\n          and\n            /* \"shops.sol\":1760:1794   */\n          0xffffffffffffffffffffffffffffffffffffffff\n          and\n            /* \"shops.sol\":1760:1770   */\n          caller\n            /* \"shops.sol\":1760:1794   */\n          0xffffffffffffffffffffffffffffffffffffffff\n          and\n          eq\n            /* \"shops.sol\":1752:1823   */\n          iszero\n          iszero\n          tag_38\n          jumpi\n          mload(0x40)\n          0x08c379a000000000000000000000000000000000000000000000000000000000\n          dup2\n          mstore\n          0x04\n          add\n          dup1\n          dup1\n          0x20\n          add\n          dup3\n          dup2\n          sub\n          dup3\n          mstore\n          0x18\n          dup2\n          mstore\n          0x20\n          add\n          dup1\n          0x6f6e6c792054432063616e20646f20746869732063616c6c0000000000000000\n          dup2\n          mstore\n          pop\n          0x20\n          add\n          swap2\n          pop\n          pop\n          mload(0x40)\n          dup1\n          swap2\n          sub\n          swap1\n          revert\n        tag_38:\n            /* \"shops.sol\":1841:1861   */\n          tag_39\n            /* \"shops.sol\":1848:1860   */\n          dup4\n            /* \"shops.sol\":1841:1847   */\n          tag_13\n            /* \"shops.sol\":1841:1861   */\n          jump\t// in\n        tag_39:\n            /* \"shops.sol\":1833:1892   */\n          iszero\n          iszero\n          tag_40\n          jumpi\n          mload(0x40)\n          0x08c379a000000000000000000000000000000000000000000000000000000000\n          dup2\n          mstore\n          0x04\n          add\n          dup1\n          dup1\n          0x20\n          add\n          dup3\n          dup2\n          sub\n          dup3\n          mstore\n          0x1a\n          dup2\n          mstore\n          0x20\n          add\n          dup1\n          0x57726f6e672073686f70416464726573732070726f7669646564000000000000\n          dup2\n          mstore\n          pop\n          0x20\n          add\n          swap2\n          pop\n          pop\n          mload(0x40)\n          dup1\n          swap2\n          sub\n          swap1\n          revert\n        tag_40:\n            /* \"shops.sol\":1903:1938   */\n          0x00\n            /* \"shops.sol\":1941:1946   */\n          0x01\n            /* \"shops.sol\":1941:1960   */\n          0x00\n            /* \"shops.sol\":1947:1959   */\n          dup6\n            /* \"shops.sol\":1941:1960   */\n          0xffffffffffffffffffffffffffffffffffffffff\n          and\n          0xffffffffffffffffffffffffffffffffffffffff\n          and\n          dup2\n          mstore\n          0x20\n          add\n          swap1\n          dup2\n          mstore\n          0x20\n          add\n          0x00\n          keccak256\n            /* \"shops.sol\":1941:1978   */\n          0x03\n          add\n            /* \"shops.sol\":1903:1978   */\n          swap1\n          pop\n            /* \"shops.sol\":2024:2040   */\n          0x00\n            /* \"shops.sol\":2043:2048   */\n          0x01\n            /* \"shops.sol\":2043:2062   */\n          0x00\n            /* \"shops.sol\":2049:2061   */\n          dup7\n            /* \"shops.sol\":2043:2062   */\n          0xffffffffffffffffffffffffffffffffffffffff\n          and\n          0xffffffffffffffffffffffffffffffffffffffff\n          and\n          dup2\n          mstore\n          0x20\n          add\n          swap1\n          dup2\n          mstore\n          0x20\n          add\n          0x00\n          keccak256\n            /* \"shops.sol\":2043:2076   */\n          0x02\n          add\n            /* \"shops.sol\":2043:2091   */\n          0x00\n            /* \"shops.sol\":2077:2090   */\n          dup6\n            /* \"shops.sol\":2043:2091   */\n          0xffffffffffffffffffffffffffffffffffffffff\n          and\n          0xffffffffffffffffffffffffffffffffffffffff\n          and\n          dup2\n          mstore\n          0x20\n          add\n          swap1\n          dup2\n          mstore\n          0x20\n          add\n          0x00\n          keccak256\n          sload\n            /* \"shops.sol\":2024:2091   */\n          swap1\n          pop\n            /* \"shops.sol\":2101:2118   */\n          0x00\n            /* \"shops.sol\":2121:2138   */\n          dup3\n            /* \"shops.sol\":2166:2167   */\n          0x01\n            /* \"shops.sol\":2139:2156   */\n          dup5\n            /* \"shops.sol\":2139:2163   */\n          dup1\n          sload\n          swap1\n          pop\n            /* \"shops.sol\":2139:2167   */\n          sub\n            /* \"shops.sol\":2121:2168   */\n          dup2\n          sload\n          dup2\n          lt\n          iszero\n          iszero\n          tag_41\n          jumpi\n          invalid\n        tag_41:\n          swap1\n          0x00\n          mstore\n          keccak256(0x00, 0x20)\n          add\n          0x00\n          swap1\n          sload\n          swap1\n          0x0100\n          exp\n          swap1\n          div\n          0xffffffffffffffffffffffffffffffffffffffff\n          and\n            /* \"shops.sol\":2101:2168   */\n          swap1\n          pop\n            /* \"shops.sol\":2212:2221   */\n          dup1\n            /* \"shops.sol\":2179:2196   */\n          dup4\n            /* \"shops.sol\":2197:2208   */\n          dup4\n            /* \"shops.sol\":2179:2209   */\n          dup2\n          sload\n          dup2\n          lt\n          iszero\n          iszero\n          tag_43\n          jumpi\n          invalid\n        tag_43:\n          swap1\n          0x00\n          mstore\n          keccak256(0x00, 0x20)\n          add\n          0x00\n            /* \"shops.sol\":2179:2221   */\n          0x0100\n          exp\n          dup2\n          sload\n          dup2\n          0xffffffffffffffffffffffffffffffffffffffff\n          mul\n          not\n          and\n          swap1\n          dup4\n          0xffffffffffffffffffffffffffffffffffffffff\n          and\n          mul\n          or\n          swap1\n          sstore\n          pop\n            /* \"shops.sol\":2278:2289   */\n          dup2\n            /* \"shops.sol\":2231:2236   */\n          0x01\n            /* \"shops.sol\":2231:2250   */\n          0x00\n            /* \"shops.sol\":2237:2249   */\n          dup9\n            /* \"shops.sol\":2231:2250   */\n          0xffffffffffffffffffffffffffffffffffffffff\n          and\n          0xffffffffffffffffffffffffffffffffffffffff\n          and\n          dup2\n          mstore\n          0x20\n          add\n          swap1\n          dup2\n          mstore\n          0x20\n          add\n          0x00\n          keccak256\n            /* \"shops.sol\":2231:2264   */\n          0x02\n          add\n            /* \"shops.sol\":2231:2275   */\n          0x00\n            /* \"shops.sol\":2265:2274   */\n          dup4\n            /* \"shops.sol\":2231:2275   */\n          0xffffffffffffffffffffffffffffffffffffffff\n          and\n          0xffffffffffffffffffffffffffffffffffffffff\n          and\n          dup2\n          mstore\n          0x20\n          add\n          swap1\n          dup2\n          mstore\n          0x20\n          add\n          0x00\n          keccak256\n            /* \"shops.sol\":2231:2289   */\n          dup2\n          swap1\n          sstore\n          pop\n            /* \"shops.sol\":2299:2316   */\n          dup3\n            /* \"shops.sol\":2299:2326   */\n          dup1\n          sload\n          dup1\n          swap2\n          swap1\n          0x01\n          swap1\n          sub\n          tag_45\n          swap2\n          swap1\n          tag_46\n          jump\t// in\n        tag_45:\n          pop\n            /* \"shops.sol\":2469:2470   */\n          0x01\n            /* \"shops.sol\":2416:2421   */\n          dup1\n            /* \"shops.sol\":2416:2435   */\n          0x00\n            /* \"shops.sol\":2422:2434   */\n          dup9\n            /* \"shops.sol\":2416:2435   */\n          0xffffffffffffffffffffffffffffffffffffffff\n          and\n          0xffffffffffffffffffffffffffffffffffffffff\n          and\n          dup2\n          mstore\n          0x20\n          add\n          swap1\n          dup2\n          mstore\n          0x20\n          add\n          0x00\n          keccak256\n            /* \"shops.sol\":2416:2446   */\n          0x05\n          add\n            /* \"shops.sol\":2452:2465   */\n          dup7\n            /* \"shops.sol\":2416:2466   */\n          swap1\n          dup1\n            /* \"--CODEGEN--\":39:40   */\n          0x01\n            /* \"--CODEGEN--\":33:36   */\n          dup2\n            /* \"--CODEGEN--\":27:37   */\n          sload\n            /* \"--CODEGEN--\":23:41   */\n          add\n            /* \"--CODEGEN--\":57:67   */\n          dup1\n            /* \"--CODEGEN--\":52:55   */\n          dup3\n            /* \"--CODEGEN--\":45:68   */\n          sstore\n            /* \"--CODEGEN--\":79:89   */\n          dup1\n            /* \"--CODEGEN--\":72:89   */\n          swap2\n          pop\n            /* \"--CODEGEN--\":0:93   */\n          pop\n            /* \"shops.sol\":2416:2466   */\n          swap1\n          0x01\n          dup3\n          sub\n          swap1\n          0x00\n          mstore\n          keccak256(0x00, 0x20)\n          add\n          0x00\n          swap1\n          swap2\n          swap3\n          swap1\n          swap2\n          swap1\n          swap2\n          0x0100\n          exp\n          dup2\n          sload\n          dup2\n          0xffffffffffffffffffffffffffffffffffffffff\n          mul\n          not\n          and\n          swap1\n          dup4\n          0xffffffffffffffffffffffffffffffffffffffff\n          and\n          mul\n          or\n          swap1\n          sstore\n          pop\n            /* \"shops.sol\":2416:2470   */\n          sub\n            /* \"shops.sol\":2367:2372   */\n          0x01\n            /* \"shops.sol\":2367:2386   */\n          0x00\n            /* \"shops.sol\":2373:2385   */\n          dup9\n            /* \"shops.sol\":2367:2386   */\n          0xffffffffffffffffffffffffffffffffffffffff\n          and\n          0xffffffffffffffffffffffffffffffffffffffff\n          and\n          dup2\n          mstore\n          0x20\n          add\n          swap1\n          dup2\n          mstore\n          0x20\n          add\n          0x00\n          keccak256\n            /* \"shops.sol\":2367:2398   */\n          0x04\n          add\n            /* \"shops.sol\":2367:2413   */\n          0x00\n            /* \"shops.sol\":2399:2412   */\n          dup8\n            /* \"shops.sol\":2367:2413   */\n          0xffffffffffffffffffffffffffffffffffffffff\n          and\n          0xffffffffffffffffffffffffffffffffffffffff\n          and\n          dup2\n          mstore\n          0x20\n          add\n          swap1\n          dup2\n          mstore\n          0x20\n          add\n          0x00\n          keccak256\n            /* \"shops.sol\":2367:2470   */\n          dup2\n          swap1\n          sstore\n          pop\n            /* \"shops.sol\":2488:2492   */\n          0x01\n            /* \"shops.sol\":2481:2492   */\n          swap4\n          pop\n          pop\n          pop\n          pop\n            /* \"shops.sol\":1646:2499   */\n          swap3\n          swap2\n          pop\n          pop\n          jump\t// out\n            /* \"shops.sol\":808:1234   */\n        tag_25:\n            /* \"shops.sol\":886:896   */\n          0x00\n            /* \"shops.sol\":929:949   */\n          dup1\n          0x00\n          swap1\n          sload\n          swap1\n          0x0100\n          exp\n          swap1\n          div\n          0xffffffffffffffffffffffffffffffffffffffff\n          and\n            /* \"shops.sol\":915:949   */\n          0xffffffffffffffffffffffffffffffffffffffff\n          and\n            /* \"shops.sol\":915:925   */\n          caller\n            /* \"shops.sol\":915:949   */\n          0xffffffffffffffffffffffffffffffffffffffff\n          and\n          eq\n            /* \"shops.sol\":907:978   */\n          iszero\n          iszero\n          tag_49\n          jumpi\n          mload(0x40)\n          0x08c379a000000000000000000000000000000000000000000000000000000000\n          dup2\n          mstore\n          0x04\n          add\n          dup1\n          dup1\n          0x20\n          add\n          dup3\n          dup2\n          sub\n          dup3\n          mstore\n          0x18\n          dup2\n          mstore\n          0x20\n          add\n          dup1\n          0x6f6e6c792054432063616e20646f20746869732063616c6c0000000000000000\n          dup2\n          mstore\n          pop\n          0x20\n          add\n          swap2\n          pop\n          pop\n          mload(0x40)\n          dup1\n          swap2\n          sub\n          swap1\n          revert\n        tag_49:\n            /* \"shops.sol\":1020:1025   */\n          0x00\n            /* \"shops.sol\":996:1025   */\n          iszero\n          iszero\n            /* \"shops.sol\":996:1016   */\n          tag_50\n            /* \"shops.sol\":1003:1015   */\n          dup5\n            /* \"shops.sol\":996:1002   */\n          tag_13\n            /* \"shops.sol\":996:1016   */\n          jump\t// in\n        tag_50:\n            /* \"shops.sol\":996:1025   */\n          iszero\n          iszero\n          eq\n            /* \"shops.sol\":988:1059   */\n          iszero\n          iszero\n          tag_51\n          jumpi\n          mload(0x40)\n          0x08c379a000000000000000000000000000000000000000000000000000000000\n          dup2\n          mstore\n          0x04\n          add\n          dup1\n          dup1\n          0x20\n          add\n          dup3\n          dup2\n          sub\n          dup3\n          mstore\n          0x1d\n          dup2\n          mstore\n          0x20\n          add\n          dup1\n          0x53686f7020697320616c726561647920696e207468652073797374656d000000\n          dup2\n          mstore\n          pop\n          0x20\n          add\n          swap2\n          pop\n          pop\n          mload(0x40)\n          dup1\n          swap2\n          sub\n          swap1\n          revert\n        tag_51:\n            /* \"shops.sol\":1109:1114   */\n          dup2\n            /* \"shops.sol\":1070:1075   */\n          0x01\n            /* \"shops.sol\":1070:1089   */\n          0x00\n            /* \"shops.sol\":1076:1088   */\n          dup6\n            /* \"shops.sol\":1070:1089   */\n          0xffffffffffffffffffffffffffffffffffffffff\n          and\n          0xffffffffffffffffffffffffffffffffffffffff\n          and\n          dup2\n          mstore\n          0x20\n          add\n          swap1\n          dup2\n          mstore\n          0x20\n          add\n          0x00\n          keccak256\n            /* \"shops.sol\":1070:1106   */\n          0x00\n          add\n            /* \"shops.sol\":1070:1114   */\n          swap1\n          dup1\n          mload\n          swap1\n          0x20\n          add\n          swap1\n          tag_52\n          swap3\n          swap2\n          swap1\n          tag_53\n          jump\t// in\n        tag_52:\n          pop\n            /* \"shops.sol\":1182:1183   */\n          0x01\n            /* \"shops.sol\":1152:1162   */\n          0x02\n            /* \"shops.sol\":1168:1180   */\n          dup5\n            /* \"shops.sol\":1152:1181   */\n          swap1\n          dup1\n            /* \"--CODEGEN--\":39:40   */\n          0x01\n            /* \"--CODEGEN--\":33:36   */\n          dup2\n            /* \"--CODEGEN--\":27:37   */\n          sload\n            /* \"--CODEGEN--\":23:41   */\n          add\n            /* \"--CODEGEN--\":57:67   */\n          dup1\n            /* \"--CODEGEN--\":52:55   */\n          dup3\n            /* \"--CODEGEN--\":45:68   */\n          sstore\n            /* \"--CODEGEN--\":79:89   */\n          dup1\n            /* \"--CODEGEN--\":72:89   */\n          swap2\n          pop\n            /* \"--CODEGEN--\":0:93   */\n          pop\n            /* \"shops.sol\":1152:1181   */\n          swap1\n          0x01\n          dup3\n          sub\n          swap1\n          0x00\n          mstore\n          keccak256(0x00, 0x20)\n          add\n          0x00\n          swap1\n          swap2\n          swap3\n          swap1\n          swap2\n          swap1\n          swap2\n          0x0100\n          exp\n          dup2\n          sload\n          dup2\n          0xffffffffffffffffffffffffffffffffffffffff\n          mul\n          not\n          and\n          swap1\n          dup4\n          0xffffffffffffffffffffffffffffffffffffffff\n          and\n          mul\n          or\n          swap1\n          sstore\n          pop\n            /* \"shops.sol\":1152:1183   */\n          sub\n            /* \"shops.sol\":1124:1129   */\n          0x01\n            /* \"shops.sol\":1124:1143   */\n          0x00\n            /* \"shops.sol\":1130:1142   */\n          dup6\n            /* \"shops.sol\":1124:1143   */\n          0xffffffffffffffffffffffffffffffffffffffff\n          and\n          0xffffffffffffffffffffffffffffffffffffffff\n          and\n          dup2\n          mstore\n          0x20\n          add\n          swap1\n          dup2\n          mstore\n          0x20\n          add\n          0x00\n          keccak256\n            /* \"shops.sol\":1124:1149   */\n          0x01\n          add\n            /* \"shops.sol\":1124:1183   */\n          dup2\n          swap1\n          sstore\n          pop\n            /* \"shops.sol\":1226:1227   */\n          0x01\n            /* \"shops.sol\":1208:1218   */\n          0x02\n            /* \"shops.sol\":1208:1225   */\n          dup1\n          sload\n          swap1\n          pop\n            /* \"shops.sol\":1208:1227   */\n          sub\n            /* \"shops.sol\":1201:1227   */\n          swap1\n          pop\n            /* \"shops.sol\":808:1234   */\n          swap3\n          swap2\n          pop\n          pop\n          jump\t// out\n            /* \"shops.sol\":25:2501   */\n        tag_46:\n          dup2\n          sload\n          dup2\n          dup4\n          sstore\n          dup2\n          dup2\n          gt\n          iszero\n          tag_55\n          jumpi\n          dup2\n          dup4\n          0x00\n          mstore\n          keccak256(0x00, 0x20)\n          swap2\n          dup3\n          add\n          swap2\n          add\n          tag_56\n          swap2\n          swap1\n          tag_57\n          jump\t// in\n        tag_56:\n        tag_55:\n          pop\n          pop\n          pop\n          jump\t// out\n        tag_53:\n          dup3\n          dup1\n          sload\n          0x01\n          dup2\n          0x01\n          and\n          iszero\n          0x0100\n          mul\n          sub\n          and\n          0x02\n          swap1\n          div\n          swap1\n          0x00\n          mstore\n          keccak256(0x00, 0x20)\n          swap1\n          0x1f\n          add\n          0x20\n          swap1\n          div\n          dup2\n          add\n          swap3\n          dup3\n          0x1f\n          lt\n          tag_59\n          jumpi\n          dup1\n          mload\n          not(0xff)\n          and\n          dup4\n          dup1\n          add\n          or\n          dup6\n          sstore\n          jump(tag_58)\n        tag_59:\n          dup3\n          dup1\n          add\n          0x01\n          add\n          dup6\n          sstore\n          dup3\n          iszero\n          tag_58\n          jumpi\n          swap2\n          dup3\n          add\n        tag_60:\n          dup3\n          dup2\n          gt\n          iszero\n          tag_61\n          jumpi\n          dup3\n          mload\n          dup3\n          sstore\n          swap2\n          0x20\n          add\n          swap2\n          swap1\n          0x01\n          add\n          swap1\n          jump(tag_60)\n        tag_61:\n        tag_58:\n          pop\n          swap1\n          pop\n          tag_62\n          swap2\n          swap1\n          tag_57\n          jump\t// in\n        tag_62:\n          pop\n          swap1\n          jump\t// out\n        tag_57:\n          tag_63\n          swap2\n          swap1\n        tag_64:\n          dup1\n          dup3\n          gt\n          iszero\n          tag_65\n          jumpi\n          0x00\n          dup2\n          0x00\n          swap1\n          sstore\n          pop\n          0x01\n          add\n          jump(tag_64)\n        tag_65:\n          pop\n          swap1\n          jump\n        tag_63:\n          swap1\n          jump\t// out\n\n        auxdata: 0xa165627a7a72305820f18a3ac3fd15adc1031aa04f168d44bf46473d14ed9cd9893382f46ac07589750029\n    }\n}\n","bytecode":{"linkReferences":{},"object":"60806040523480156200001157600080fd5b50336000806101000a81548173ffffffffffffffffffffffffffffffffffffffff021916908373ffffffffffffffffffffffffffffffffffffffff160217905550306040516200006190620002e4565b808273ffffffffffffffffffffffffffffffffffffffff1673ffffffffffffffffffffffffffffffffffffffff168152602001915050604051809103906000f080158015620000b4573d6000803e3d6000fd5b50600160006101000a81548173ffffffffffffffffffffffffffffffffffffffff021916908373ffffffffffffffffffffffffffffffffffffffff160217905550306040516200010490620002f2565b808273ffffffffffffffffffffffffffffffffffffffff1673ffffffffffffffffffffffffffffffffffffffff168152602001915050604051809103906000f08015801562000157573d6000803e3d6000fd5b50600260006101000a81548173ffffffffffffffffffffffffffffffffffffffff021916908373ffffffffffffffffffffffffffffffffffffffff16021790555030604051620001a79062000300565b808273ffffffffffffffffffffffffffffffffffffffff1673ffffffffffffffffffffffffffffffffffffffff168152602001915050604051809103906000f080158015620001fa573d6000803e3d6000fd5b50600360006101000a81548173ffffffffffffffffffffffffffffffffffffffff021916908373ffffffffffffffffffffffffffffffffffffffff160217905550306040516200024a906200030e565b808273ffffffffffffffffffffffffffffffffffffffff1673ffffffffffffffffffffffffffffffffffffffff168152602001915050604051809103906000f0801580156200029d573d6000803e3d6000fd5b50600460006101000a81548173ffffffffffffffffffffffffffffffffffffffff021916908373ffffffffffffffffffffffffffffffffffffffff1602179055506200031c565b6117a98062002fd683390190565b612416806200477f83390190565b6106ea8062006b9583390190565b610f0f806200727f83390190565b612caa806200032c6000396000f3fe608060405234801561001057600080fd5b50600436106100ec576000357c01000000000000000000000000000000000000000000000000000000009004806355b1f24e116100a95780638da5cb5b116100835780638da5cb5b146106365780639b7e02eb14610680578063b46d01101461076f578063f5521022146107cb576100ec565b806355b1f24e146103f05780638412d3d1146104eb5780638736cb5d146105da576100ec565b8063029d9e92146100f15780631302ed1f1461014d5780631d0e8a4d14610240578063245fd4081461029c5780632b8109d5146103385780633db4de4714610394575b600080fd5b6101336004803603602081101561010757600080fd5b81019080803573ffffffffffffffffffffffffffffffffffffffff169060200190929190505050610827565b604051808215151515815260200191505060405180910390f35b6102266004803603604081101561016357600080fd5b81019080803573ffffffffffffffffffffffffffffffffffffffff169060200190929190803590602001906401000000008111156101a057600080fd5b8201836020820111156101b257600080fd5b803590602001918460018302840111640100000000831117156101d457600080fd5b91908080601f016020809104026020016040519081016040528093929190818152602001838380828437600081840152601f19601f820116905080830192505050505050509192919290505050610b93565b604051808215151515815260200191505060405180910390f35b6102826004803603602081101561025657600080fd5b81019080803573ffffffffffffffffffffffffffffffffffffffff169060200190929190505050610e96565b604051808215151515815260200191505060405180910390f35b61031e600480360360608110156102b257600080fd5b81019080803573ffffffffffffffffffffffffffffffffffffffff169060200190929190803573ffffffffffffffffffffffffffffffffffffffff169060200190929190803573ffffffffffffffffffffffffffffffffffffffff169060200190929190505050610f95565b604051808215151515815260200191505060405180910390f35b61037a6004803603602081101561034e57600080fd5b81019080803573ffffffffffffffffffffffffffffffffffffffff16906020019092919050505061141d565b604051808215151515815260200191505060405180910390f35b6103d6600480360360208110156103aa57600080fd5b81019080803573ffffffffffffffffffffffffffffffffffffffff16906020019092919050505061151c565b604051808215151515815260200191505060405180910390f35b6104a96004803603602081101561040657600080fd5b810190808035906020019064010000000081111561042357600080fd5b82018360208201111561043557600080fd5b8035906020019184600183028401116401000000008311171561045757600080fd5b91908080601f016020809104026020016040519081016040528093929190818152602001838380828437600081840152601f19601f820116905080830192505050505050509192919290505050611939565b604051808273ffffffffffffffffffffffffffffffffffffffff1673ffffffffffffffffffffffffffffffffffffffff16815260200191505060405180910390f35b6105c46004803603604081101561050157600080fd5b81019080803573ffffffffffffffffffffffffffffffffffffffff1690602001909291908035906020019064010000000081111561053e57600080fd5b82018360208201111561055057600080fd5b8035906020019184600183028401116401000000008311171561057257600080fd5b91908080601f016020809104026020016040519081016040528093929190818152602001838380828437600081840152601f19601f820116905080830192505050505050509192919290505050611b21565b6040518082815260200191505060405180910390f35b61061c600480360360208110156105f057600080fd5b81019080803573ffffffffffffffffffffffffffffffffffffffff169060200190929190505050611e24565b604051808215151515815260200191505060405180910390f35b61063e61233b565b604051808273ffffffffffffffffffffffffffffffffffffffff1673ffffffffffffffffffffffffffffffffffffffff16815260200191505060405180910390f35b6107596004803603604081101561069657600080fd5b81019080803573ffffffffffffffffffffffffffffffffffffffff169060200190929190803590602001906401000000008111156106d357600080fd5b8201836020820111156106e557600080fd5b8035906020019184600183028401116401000000008311171561070757600080fd5b91908080601f016020809104026020016040519081016040528093929190818152602001838380828437600081840152601f19601f820116905080830192505050505050509192919290505050612360565b6040518082815260200191505060405180910390f35b6107b16004803603602081101561078557600080fd5b81019080803573ffffffffffffffffffffffffffffffffffffffff169060200190929190505050612663565b604051808215151515815260200191505060405180910390f35b61080d600480360360208110156107e157600080fd5b81019080803573ffffffffffffffffffffffffffffffffffffffff1690602001909291905050506128bb565b604051808215151515815260200191505060405180910390f35b60006108323361141d565b1515610889576040517f08c379a0000000000000000000000000000000000000000000000000000000008152600401808060200182810382526026815260200180612b686026913960400191505060405180910390fd5b6000808373ffffffffffffffffffffffffffffffffffffffff1663b98c19c46040518163ffffffff167c0100000000000000000000000000000000000000000000000000000000028152600401604080518083038186803b1580156108ed57600080fd5b505afa158015610901573d6000803e3d6000fd5b505050506040513d604081101561091757600080fd5b810190808051906020019092919080519060200190929190505050915091503373ffffffffffffffffffffffffffffffffffffffff168173ffffffffffffffffffffffffffffffffffffffff161415156109bc576040517f08c379a0000000000000000000000000000000000000000000000000000000008152600401808060200182810382526033815260200180612b356033913960400191505060405180910390fd5b6109c78282866129ba565b15156109cf57fe5b600160009054906101000a900473ffffffffffffffffffffffffffffffffffffffff1673ffffffffffffffffffffffffffffffffffffffff1663d87759568383876040518463ffffffff167c0100000000000000000000000000000000000000000000000000000000028152600401808473ffffffffffffffffffffffffffffffffffffffff1673ffffffffffffffffffffffffffffffffffffffff1681526020018373ffffffffffffffffffffffffffffffffffffffff1673ffffffffffffffffffffffffffffffffffffffff1681526020018273ffffffffffffffffffffffffffffffffffffffff1673ffffffffffffffffffffffffffffffffffffffff1681526020019350505050600060405180830381600087803b158015610af457600080fd5b505af1158015610b08573d6000803e3d6000fd5b505050508373ffffffffffffffffffffffffffffffffffffffff1663cbd056c86040518163ffffffff167c0100000000000000000000000000000000000000000000000000000000028152600401600060405180830381600087803b158015610b7057600080fd5b505af1158015610b84573d6000803e3d6000fd5b50505050600192505050919050565b60008060009054906101000a900473ffffffffffffffffffffffffffffffffffffffff1673ffffffffffffffffffffffffffffffffffffffff163373ffffffffffffffffffffffffffffffffffffffff16141515610c59576040517f08c379a000000000000000000000000000000000000000000000000000000000815260040180806020018281038252600a8152602001807f4f6e6c79206f776e65720000000000000000000000000000000000000000000081525060200191505060405180910390fd5b600360009054906101000a900473ffffffffffffffffffffffffffffffffffffffff1673ffffffffffffffffffffffffffffffffffffffff16631302ed1f84846040518363ffffffff167c0100000000000000000000000000000000000000000000000000000000028152600401808373ffffffffffffffffffffffffffffffffffffffff1673ffffffffffffffffffffffffffffffffffffffff16815260200180602001828103825283818151815260200191508051906020019080838360005b83811015610d36578082015181840152602081019050610d1b565b50505050905090810190601f168015610d635780820380516001836020036101000a031916815260200191505b509350505050602060405180830381600087803b158015610d8357600080fd5b505af1158015610d97573d6000803e3d6000fd5b505050506040513d6020811015610dad57600080fd5b810190808051906020019092919050505090507f4d13fc32a15280074c61b282b69dffa21ef4336b9b8bfbe0c6bc402cdd86c7158383604051808373ffffffffffffffffffffffffffffffffffffffff1673ffffffffffffffffffffffffffffffffffffffff16815260200180602001828103825283818151815260200191508051906020019080838360005b83811015610e55578082015181840152602081019050610e3a565b50505050905090810190601f168015610e825780820380516001836020036101000a031916815260200191505b50935050505060405180910390a192915050565b6000600460009054906101000a900473ffffffffffffffffffffffffffffffffffffffff1673ffffffffffffffffffffffffffffffffffffffff16631d0e8a4d836040518263ffffffff167c0100000000000000000000000000000000000000000000000000000000028152600401808273ffffffffffffffffffffffffffffffffffffffff1673ffffffffffffffffffffffffffffffffffffffff16815260200191505060206040518083038186803b158015610f5357600080fd5b505afa158015610f67573d6000803e3d6000fd5b505050506040513d6020811015610f7d57600080fd5b81019080805190602001909291905050509050919050565b60003373ffffffffffffffffffffffffffffffffffffffff168473ffffffffffffffffffffffffffffffffffffffff16638da5cb5b6040518163ffffffff167c010000000000000000000000000000000000000000000000000000000002815260040160206040518083038186803b15801561101057600080fd5b505afa158015611024573d6000803e3d6000fd5b505050506040513d602081101561103a57600080fd5b810190808051906020019092919050505073ffffffffffffffffffffffffffffffffffffffff161415156110b9576040517f08c379a000000000000000000000000000000000000000000000000000000000815260040180806020018281038252602f815260200180612bda602f913960400191505060405180910390fd5b6110c28361141d565b1515611136576040517f08c379a000000000000000000000000000000000000000000000000000000000815260040180806020018281038252601f8152602001807f6f6e6c79207472616e73706f72746572732063616e207472616e73706f72740081525060200191505060405180910390fd5b61113f82610e96565b1515611196576040517f08c379a0000000000000000000000000000000000000000000000000000000008152600401808060200182810382526022815260200180612c096022913960400191505060405180910390fd5b600160009054906101000a900473ffffffffffffffffffffffffffffffffffffffff1673ffffffffffffffffffffffffffffffffffffffff166390097b3c338686866040518563ffffffff167c0100000000000000000000000000000000000000000000000000000000028152600401808573ffffffffffffffffffffffffffffffffffffffff1673ffffffffffffffffffffffffffffffffffffffff1681526020018473ffffffffffffffffffffffffffffffffffffffff1673ffffffffffffffffffffffffffffffffffffffff1681526020018373ffffffffffffffffffffffffffffffffffffffff1673ffffffffffffffffffffffffffffffffffffffff1681526020018273ffffffffffffffffffffffffffffffffffffffff1673ffffffffffffffffffffffffffffffffffffffff168152602001945050505050602060405180830381600087803b1580156112ef57600080fd5b505af1158015611303573d6000803e3d6000fd5b505050506040513d602081101561131957600080fd5b8101908080519060200190929190505050508373ffffffffffffffffffffffffffffffffffffffff166379ca5ca433856040518363ffffffff167c0100000000000000000000000000000000000000000000000000000000028152600401808373ffffffffffffffffffffffffffffffffffffffff1673ffffffffffffffffffffffffffffffffffffffff1681526020018273ffffffffffffffffffffffffffffffffffffffff1673ffffffffffffffffffffffffffffffffffffffff16815260200192505050600060405180830381600087803b1580156113fa57600080fd5b505af115801561140e573d6000803e3d6000fd5b50505050600190509392505050565b6000600360009054906101000a900473ffffffffffffffffffffffffffffffffffffffff1673ffffffffffffffffffffffffffffffffffffffff16632b8109d5836040518263ffffffff167c0100000000000000000000000000000000000000000000000000000000028152600401808273ffffffffffffffffffffffffffffffffffffffff1673ffffffffffffffffffffffffffffffffffffffff16815260200191505060206040518083038186803b1580156114da57600080fd5b505afa1580156114ee573d6000803e3d6000fd5b505050506040513d602081101561150457600080fd5b81019080805190602001909291905050509050919050565b600061152733610e96565b151561159b576040517f08c379a000000000000000000000000000000000000000000000000000000000815260040180806020018281038252601b8152602001807f4f6e6c792073686f702063616e2072656365697665204173736574000000000081525060200191505060405180910390fd5b8173ffffffffffffffffffffffffffffffffffffffff1663a4d62f9a6040518163ffffffff167c0100000000000000000000000000000000000000000000000000000000028152600401600060405180830381600087803b1580156115ff57600080fd5b505af1158015611613573d6000803e3d6000fd5b505050506000808373ffffffffffffffffffffffffffffffffffffffff1663b98c19c46040518163ffffffff167c0100000000000000000000000000000000000000000000000000000000028152600401604080518083038186803b15801561167b57600080fd5b505afa15801561168f573d6000803e3d6000fd5b505050506040513d60408110156116a557600080fd5b81019080805190602001909291908051906020019092919050505091509150600160009054906101000a900473ffffffffffffffffffffffffffffffffffffffff1673ffffffffffffffffffffffffffffffffffffffff16636a20d9498383876040518463ffffffff167c0100000000000000000000000000000000000000000000000000000000028152600401808473ffffffffffffffffffffffffffffffffffffffff1673ffffffffffffffffffffffffffffffffffffffff1681526020018373ffffffffffffffffffffffffffffffffffffffff1673ffffffffffffffffffffffffffffffffffffffff1681526020018273ffffffffffffffffffffffffffffffffffffffff1673ffffffffffffffffffffffffffffffffffffffff1681526020019350505050600060405180830381600087803b1580156117e957600080fd5b505af11580156117fd573d6000803e3d6000fd5b50505050600460009054906101000a900473ffffffffffffffffffffffffffffffffffffffff1673ffffffffffffffffffffffffffffffffffffffff16639110474033866040518363ffffffff167c0100000000000000000000000000000000000000000000000000000000028152600401808373ffffffffffffffffffffffffffffffffffffffff1673ffffffffffffffffffffffffffffffffffffffff1681526020018273ffffffffffffffffffffffffffffffffffffffff1673ffffffffffffffffffffffffffffffffffffffff16815260200192505050602060405180830381600087803b1580156118f257600080fd5b505af1158015611906573d6000803e3d6000fd5b505050506040513d602081101561191c57600080fd5b810190808051906020019092919050505050600192505050919050565b6000600260009054906101000a900473ffffffffffffffffffffffffffffffffffffffff1673ffffffffffffffffffffffffffffffffffffffff1663791c074133846040518363ffffffff167c0100000000000000000000000000000000000000000000000000000000028152600401808373ffffffffffffffffffffffffffffffffffffffff1673ffffffffffffffffffffffffffffffffffffffff16815260200180602001828103825283818151815260200191508051906020019080838360005b83811015611a185780820151818401526020810190506119fd565b50505050905090810190601f168015611a455780820380516001836020036101000a031916815260200191505b509350505050602060405180830381600087803b158015611a6557600080fd5b505af1158015611a79573d6000803e3d6000fd5b505050506040513d6020811015611a8f57600080fd5b810190808051906020019092919050505090503373ffffffffffffffffffffffffffffffffffffffff167fc025769440426a633bedf01175c407aa85088e087b11a585ae5bc0e1a302004e82604051808273ffffffffffffffffffffffffffffffffffffffff1673ffffffffffffffffffffffffffffffffffffffff16815260200191505060405180910390a2919050565b60008060009054906101000a900473ffffffffffffffffffffffffffffffffffffffff1673ffffffffffffffffffffffffffffffffffffffff163373ffffffffffffffffffffffffffffffffffffffff16141515611be7576040517f08c379a000000000000000000000000000000000000000000000000000000000815260040180806020018281038252600a8152602001807f4f6e6c79206f776e65720000000000000000000000000000000000000000000081525060200191505060405180910390fd5b600260009054906101000a900473ffffffffffffffffffffffffffffffffffffffff1673ffffffffffffffffffffffffffffffffffffffff16638412d3d184846040518363ffffffff167c0100000000000000000000000000000000000000000000000000000000028152600401808373ffffffffffffffffffffffffffffffffffffffff1673ffffffffffffffffffffffffffffffffffffffff16815260200180602001828103825283818151815260200191508051906020019080838360005b83811015611cc4578082015181840152602081019050611ca9565b50505050905090810190601f168015611cf15780820380516001836020036101000a031916815260200191505b509350505050602060405180830381600087803b158015611d1157600080fd5b505af1158015611d25573d6000803e3d6000fd5b505050506040513d6020811015611d3b57600080fd5b810190808051906020019092919050505090507fb056bbe56ce656be62cde590f9c83ee5ae28ba40d9b2849cd6a02622af6c27508383604051808373ffffffffffffffffffffffffffffffffffffffff1673ffffffffffffffffffffffffffffffffffffffff16815260200180602001828103825283818151815260200191508051906020019080838360005b83811015611de3578082015181840152602081019050611dc8565b50505050905090810190601f168015611e105780820380516001836020036101000a031916815260200191505b50935050505060405180910390a192915050565b6000611e2f3361141d565b1515611e86576040517f08c379a000000000000000000000000000000000000000000000000000000000815260040180806020018281038252602c815260200180612c2b602c913960400191505060405180910390fd5b6000808373ffffffffffffffffffffffffffffffffffffffff1663b98c19c46040518163ffffffff167c0100000000000000000000000000000000000000000000000000000000028152600401604080518083038186803b158015611eea57600080fd5b505afa158015611efe573d6000803e3d6000fd5b505050506040513d6040811015611f1457600080fd5b810190808051906020019092919080519060200190929190505050915091508073ffffffffffffffffffffffffffffffffffffffff163373ffffffffffffffffffffffffffffffffffffffff16141515611fb9576040517f08c379a0000000000000000000000000000000000000000000000000000000008152600401808060200182810382526026815260200180612bb46026913960400191505060405180910390fd5b6000600160009054906101000a900473ffffffffffffffffffffffffffffffffffffffff1673ffffffffffffffffffffffffffffffffffffffff1663365d82268484886040518463ffffffff167c0100000000000000000000000000000000000000000000000000000000028152600401808473ffffffffffffffffffffffffffffffffffffffff1673ffffffffffffffffffffffffffffffffffffffff1681526020018373ffffffffffffffffffffffffffffffffffffffff1673ffffffffffffffffffffffffffffffffffffffff1681526020018273ffffffffffffffffffffffffffffffffffffffff1673ffffffffffffffffffffffffffffffffffffffff168152602001935050505060206040518083038186803b1580156120de57600080fd5b505afa1580156120f2573d6000803e3d6000fd5b505050506040513d602081101561210857600080fd5b810190808051906020019092919050505090508473ffffffffffffffffffffffffffffffffffffffff16630b41573f83836040518363ffffffff167c0100000000000000000000000000000000000000000000000000000000028152600401808373ffffffffffffffffffffffffffffffffffffffff1673ffffffffffffffffffffffffffffffffffffffff1681526020018273ffffffffffffffffffffffffffffffffffffffff1673ffffffffffffffffffffffffffffffffffffffff16815260200192505050600060405180830381600087803b1580156121ea57600080fd5b505af11580156121fe573d6000803e3d6000fd5b50505050600460009054906101000a900473ffffffffffffffffffffffffffffffffffffffff1673ffffffffffffffffffffffffffffffffffffffff166362e6115a82876040518363ffffffff167c0100000000000000000000000000000000000000000000000000000000028152600401808373ffffffffffffffffffffffffffffffffffffffff1673ffffffffffffffffffffffffffffffffffffffff1681526020018273ffffffffffffffffffffffffffffffffffffffff1673ffffffffffffffffffffffffffffffffffffffff16815260200192505050602060405180830381600087803b1580156122f357600080fd5b505af1158015612307573d6000803e3d6000fd5b505050506040513d602081101561231d57600080fd5b81019080805190602001909291905050505060019350505050919050565b6000809054906101000a900473ffffffffffffffffffffffffffffffffffffffff1681565b60008060009054906101000a900473ffffffffffffffffffffffffffffffffffffffff1673ffffffffffffffffffffffffffffffffffffffff163373ffffffffffffffffffffffffffffffffffffffff16141515612426576040517f08c379a000000000000000000000000000000000000000000000000000000000815260040180806020018281038252600a8152602001807f4f6e6c79206f776e65720000000000000000000000000000000000000000000081525060200191505060405180910390fd5b600460009054906101000a900473ffffffffffffffffffffffffffffffffffffffff1673ffffffffffffffffffffffffffffffffffffffff16639b7e02eb84846040518363ffffffff167c0100000000000000000000000000000000000000000000000000000000028152600401808373ffffffffffffffffffffffffffffffffffffffff1673ffffffffffffffffffffffffffffffffffffffff16815260200180602001828103825283818151815260200191508051906020019080838360005b838110156125035780820151818401526020810190506124e8565b50505050905090810190601f1680156125305780820380516001836020036101000a031916815260200191505b509350505050602060405180830381600087803b15801561255057600080fd5b505af1158015612564573d6000803e3d6000fd5b505050506040513d602081101561257a57600080fd5b810190808051906020019092919050505090507f93eab32f8c5dc356093a926c4d817dbb30fc86a502fabd6e9922f16e5866e5748383604051808373ffffffffffffffffffffffffffffffffffffffff1673ffffffffffffffffffffffffffffffffffffffff16815260200180602001828103825283818151815260200191508051906020019080838360005b83811015612622578082015181840152602081019050612607565b50505050905090810190601f16801561264f5780820380516001836020036101000a031916815260200191505b50935050505060405180910390a192915050565b600061266e8261141d565b15156126c5576040517f08c379a0000000000000000000000000000000000000000000000000000000008152600401808060200182810382526028815260200180612c576028913960400191505060405180910390fd5b6126ce336128bb565b806126d7575060005b151561272e576040517f08c379a0000000000000000000000000000000000000000000000000000000008152600401808060200182810382526026815260200180612b8e6026913960400191505060405180910390fd5b600160009054906101000a900473ffffffffffffffffffffffffffffffffffffffff1673ffffffffffffffffffffffffffffffffffffffff166328d3170a83336040518363ffffffff167c0100000000000000000000000000000000000000000000000000000000028152600401808373ffffffffffffffffffffffffffffffffffffffff1673ffffffffffffffffffffffffffffffffffffffff1681526020018273ffffffffffffffffffffffffffffffffffffffff1673ffffffffffffffffffffffffffffffffffffffff16815260200192505050602060405180830381600087803b15801561281f57600080fd5b505af1158015612833573d6000803e3d6000fd5b505050506040513d602081101561284957600080fd5b810190808051906020019092919050505090508173ffffffffffffffffffffffffffffffffffffffff163373ffffffffffffffffffffffffffffffffffffffff167f74011501283de09f5fa60523776c4e4d25fd8304672adac75523c58abb54ddc660405160405180910390a3919050565b6000600260009054906101000a900473ffffffffffffffffffffffffffffffffffffffff1673ffffffffffffffffffffffffffffffffffffffff1663f5521022836040518263ffffffff167c0100000000000000000000000000000000000000000000000000000000028152600401808273ffffffffffffffffffffffffffffffffffffffff1673ffffffffffffffffffffffffffffffffffffffff16815260200191505060206040518083038186803b15801561297857600080fd5b505afa15801561298c573d6000803e3d6000fd5b505050506040513d60208110156129a257600080fd5b81019080805190602001909291905050509050919050565b60006129c58361141d565b15156129cd57fe5b600160009054906101000a900473ffffffffffffffffffffffffffffffffffffffff1673ffffffffffffffffffffffffffffffffffffffff16639eb8452a8585856040518463ffffffff167c0100000000000000000000000000000000000000000000000000000000028152600401808473ffffffffffffffffffffffffffffffffffffffff1673ffffffffffffffffffffffffffffffffffffffff1681526020018373ffffffffffffffffffffffffffffffffffffffff1673ffffffffffffffffffffffffffffffffffffffff1681526020018273ffffffffffffffffffffffffffffffffffffffff1673ffffffffffffffffffffffffffffffffffffffff168152602001935050505060206040518083038186803b158015612af057600080fd5b505afa158015612b04573d6000803e3d6000fd5b505050506040513d6020811015612b1a57600080fd5b81019080805190602001909291905050509050939250505056fe41737365742069732070656e64696e67207472616e73706f72742066726f6d20616e6f74686572207472616e73706f727465724f6e6c79207472616e73706f72746572732063616e207374617274207472616e73706f72747353656e646572206973206e6f7420612076616c6964207472616e73706f727465722075736572526571756573746572206973206e6f74207468652076616c6964207472616e73706f727465724f6e6c79206f776e6572206f66207468652061737365742063616e20726571756573742061207472616e73706f72746f6e6c792073686f70732063616e20726563656976652061207472616e73706f72744f6e6c792061207472616e73706f727465722063616e2072657175657374207472616e73706f727420656e64207472616e73706f7274657241646472657373206973206e6f742061207472616e73706f72746572a165627a7a72305820d3495679365630e454ae04003a66cc64330972037772a64fd0613045107df6b40029608060405234801561001057600080fd5b506040516020806117a98339810180604052602081101561003057600080fd5b8101908080519060200190929190505050806000806101000a81548173ffffffffffffffffffffffffffffffffffffffff021916908373ffffffffffffffffffffffffffffffffffffffff16021790555050611718806100916000396000f3fe608060405234801561001057600080fd5b506004361061009a576000357c01000000000000000000000000000000000000000000000000000000009004806390097b3c1161007857806390097b3c146102635780639eb8452a1461031f578063d1a08567146103bb578063d8775956146104375761009a565b806328d3170a1461009f578063365d82261461011b5780636a20d949146101df575b600080fd5b610101600480360360408110156100b557600080fd5b81019080803573ffffffffffffffffffffffffffffffffffffffff169060200190929190803573ffffffffffffffffffffffffffffffffffffffff1690602001909291905050506104bb565b604051808215151515815260200191505060405180910390f35b61019d6004803603606081101561013157600080fd5b81019080803573ffffffffffffffffffffffffffffffffffffffff169060200190929190803573ffffffffffffffffffffffffffffffffffffffff169060200190929190803573ffffffffffffffffffffffffffffffffffffffff1690602001909291905050506107a1565b604051808273ffffffffffffffffffffffffffffffffffffffff1673ffffffffffffffffffffffffffffffffffffffff16815260200191505060405180910390f35b610261600480360360608110156101f557600080fd5b81019080803573ffffffffffffffffffffffffffffffffffffffff169060200190929190803573ffffffffffffffffffffffffffffffffffffffff169060200190929190803573ffffffffffffffffffffffffffffffffffffffff16906020019092919050505061088c565b005b6103056004803603608081101561027957600080fd5b81019080803573ffffffffffffffffffffffffffffffffffffffff169060200190929190803573ffffffffffffffffffffffffffffffffffffffff169060200190929190803573ffffffffffffffffffffffffffffffffffffffff169060200190929190803573ffffffffffffffffffffffffffffffffffffffff169060200190929190505050610c19565b604051808215151515815260200191505060405180910390f35b6103a16004803603606081101561033557600080fd5b81019080803573ffffffffffffffffffffffffffffffffffffffff169060200190929190803573ffffffffffffffffffffffffffffffffffffffff169060200190929190803573ffffffffffffffffffffffffffffffffffffffff169060200190929190505050610fbe565b604051808215151515815260200191505060405180910390f35b61041d600480360360408110156103d157600080fd5b81019080803573ffffffffffffffffffffffffffffffffffffffff169060200190929190803573ffffffffffffffffffffffffffffffffffffffff1690602001909291905050506110f7565b604051808215151515815260200191505060405180910390f35b6104b96004803603606081101561044d57600080fd5b81019080803573ffffffffffffffffffffffffffffffffffffffff169060200190929190803573ffffffffffffffffffffffffffffffffffffffff169060200190929190803573ffffffffffffffffffffffffffffffffffffffff1690602001909291905050506111d0565b005b60006104c783836110f7565b15151561053c576040517f08c379a000000000000000000000000000000000000000000000000000000000815260040180806020018281038252601a8152602001807f4173736f63696174696f6e20616c72656164792065786973747300000000000081525060200191505060405180910390fd5b6000600160008573ffffffffffffffffffffffffffffffffffffffff1673ffffffffffffffffffffffffffffffffffffffff16815260200190815260200160002060008473ffffffffffffffffffffffffffffffffffffffff1673ffffffffffffffffffffffffffffffffffffffff1681526020019081526020016000209050838160000160006101000a81548173ffffffffffffffffffffffffffffffffffffffff021916908373ffffffffffffffffffffffffffffffffffffffff160217905550828160010160006101000a81548173ffffffffffffffffffffffffffffffffffffffff021916908373ffffffffffffffffffffffffffffffffffffffff160217905550600260008573ffffffffffffffffffffffffffffffffffffffff1673ffffffffffffffffffffffffffffffffffffffff1681526020019081526020016000208390806001815401808255809150509060018203906000526020600020016000909192909190916101000a81548173ffffffffffffffffffffffffffffffffffffffff021916908373ffffffffffffffffffffffffffffffffffffffff1602179055508160020181905550600260008473ffffffffffffffffffffffffffffffffffffffff1673ffffffffffffffffffffffffffffffffffffffff1681526020019081526020016000208490806001815401808255809150509060018203906000526020600020016000909192909190916101000a81548173ffffffffffffffffffffffffffffffffffffffff021916908373ffffffffffffffffffffffffffffffffffffffff1602179055508160030181905550600191505092915050565b6000600160008473ffffffffffffffffffffffffffffffffffffffff1673ffffffffffffffffffffffffffffffffffffffff16815260200190815260200160002060008573ffffffffffffffffffffffffffffffffffffffff1673ffffffffffffffffffffffffffffffffffffffff16815260200190815260200160002060060160008373ffffffffffffffffffffffffffffffffffffffff1673ffffffffffffffffffffffffffffffffffffffff16815260200190815260200160002060030160009054906101000a900473ffffffffffffffffffffffffffffffffffffffff1690509392505050565b6000809054906101000a900473ffffffffffffffffffffffffffffffffffffffff1673ffffffffffffffffffffffffffffffffffffffff163373ffffffffffffffffffffffffffffffffffffffff16141515610950576040517f08c379a00000000000000000000000000000000000000000000000000000000081526004018080602001828103825260188152602001807f6f6e6c792054432063616e20646f20746869732063616c6c000000000000000081525060200191505060405180910390fd5b6000600160008473ffffffffffffffffffffffffffffffffffffffff1673ffffffffffffffffffffffffffffffffffffffff16815260200190815260200160002060008573ffffffffffffffffffffffffffffffffffffffff1673ffffffffffffffffffffffffffffffffffffffff16815260200190815260200160002060070190506000600160008573ffffffffffffffffffffffffffffffffffffffff1673ffffffffffffffffffffffffffffffffffffffff16815260200190815260200160002060008673ffffffffffffffffffffffffffffffffffffffff1673ffffffffffffffffffffffffffffffffffffffff16815260200190815260200160002060060160008473ffffffffffffffffffffffffffffffffffffffff1673ffffffffffffffffffffffffffffffffffffffff16815260200190815260200160002090506000816001015490506000836001858054905003815481101515610ab357fe5b9060005260206000200160009054906101000a900473ffffffffffffffffffffffffffffffffffffffff169050808483815481101515610aef57fe5b9060005260206000200160006101000a81548173ffffffffffffffffffffffffffffffffffffffff021916908373ffffffffffffffffffffffffffffffffffffffff16021790555081600160008873ffffffffffffffffffffffffffffffffffffffff1673ffffffffffffffffffffffffffffffffffffffff16815260200190815260200160002060008973ffffffffffffffffffffffffffffffffffffffff1673ffffffffffffffffffffffffffffffffffffffff16815260200190815260200160002060060160008373ffffffffffffffffffffffffffffffffffffffff1673ffffffffffffffffffffffffffffffffffffffff1681526020019081526020016000206001018190555083805480919060019003610c0f919061166f565b5050505050505050565b60008060009054906101000a900473ffffffffffffffffffffffffffffffffffffffff1673ffffffffffffffffffffffffffffffffffffffff163373ffffffffffffffffffffffffffffffffffffffff16141515610cdf576040517f08c379a00000000000000000000000000000000000000000000000000000000081526004018080602001828103825260188152602001807f6f6e6c792054432063616e20646f20746869732063616c6c000000000000000081525060200191505060405180910390fd5b60011515610ced84336110f7565b1515141515610d47576040517f08c379a000000000000000000000000000000000000000000000000000000000815260040180806020018281038252602c8152602001806116c1602c913960400191505060405180910390fd5b6000600160008573ffffffffffffffffffffffffffffffffffffffff1673ffffffffffffffffffffffffffffffffffffffff16815260200190815260200160002060008773ffffffffffffffffffffffffffffffffffffffff1673ffffffffffffffffffffffffffffffffffffffff168152602001908152602001600020905060008160040160008773ffffffffffffffffffffffffffffffffffffffff1673ffffffffffffffffffffffffffffffffffffffff168152602001908152602001600020905060008160000160006101000a81548160ff02191690836002811115610e2d57fe5b0217905550868160020160006101000a81548173ffffffffffffffffffffffffffffffffffffffff021916908373ffffffffffffffffffffffffffffffffffffffff160217905550838160030160006101000a81548173ffffffffffffffffffffffffffffffffffffffff021916908373ffffffffffffffffffffffffffffffffffffffff160217905550848160040160006101000a81548173ffffffffffffffffffffffffffffffffffffffff021916908373ffffffffffffffffffffffffffffffffffffffff160217905550858160050160006101000a81548173ffffffffffffffffffffffffffffffffffffffff021916908373ffffffffffffffffffffffffffffffffffffffff1602179055506001826005018790806001815401808255809150509060018203906000526020600020016000909192909190916101000a81548173ffffffffffffffffffffffffffffffffffffffff021916908373ffffffffffffffffffffffffffffffffffffffff160217905550038160010181905550600192505050949350505050565b600080600160008573ffffffffffffffffffffffffffffffffffffffff1673ffffffffffffffffffffffffffffffffffffffff16815260200190815260200160002060008673ffffffffffffffffffffffffffffffffffffffff1673ffffffffffffffffffffffffffffffffffffffff1681526020019081526020016000209050806005018160040160008573ffffffffffffffffffffffffffffffffffffffff1673ffffffffffffffffffffffffffffffffffffffff1681526020019081526020016000206001015481548110151561109457fe5b9060005260206000200160009054906101000a900473ffffffffffffffffffffffffffffffffffffffff1673ffffffffffffffffffffffffffffffffffffffff168373ffffffffffffffffffffffffffffffffffffffff16149150509392505050565b60008073ffffffffffffffffffffffffffffffffffffffff16600160008573ffffffffffffffffffffffffffffffffffffffff1673ffffffffffffffffffffffffffffffffffffffff16815260200190815260200160002060008473ffffffffffffffffffffffffffffffffffffffff1673ffffffffffffffffffffffffffffffffffffffff16815260200190815260200160002060000160009054906101000a900473ffffffffffffffffffffffffffffffffffffffff1673ffffffffffffffffffffffffffffffffffffffff161415905092915050565b6000809054906101000a900473ffffffffffffffffffffffffffffffffffffffff1673ffffffffffffffffffffffffffffffffffffffff163373ffffffffffffffffffffffffffffffffffffffff16141515611294576040517f08c379a00000000000000000000000000000000000000000000000000000000081526004018080602001828103825260188152602001807f6f6e6c792054432063616e20646f20746869732063616c6c000000000000000081525060200191505060405180910390fd5b6000600160008473ffffffffffffffffffffffffffffffffffffffff1673ffffffffffffffffffffffffffffffffffffffff16815260200190815260200160002060008573ffffffffffffffffffffffffffffffffffffffff1673ffffffffffffffffffffffffffffffffffffffff16815260200190815260200160002060050190506000600160008573ffffffffffffffffffffffffffffffffffffffff1673ffffffffffffffffffffffffffffffffffffffff16815260200190815260200160002060008673ffffffffffffffffffffffffffffffffffffffff1673ffffffffffffffffffffffffffffffffffffffff16815260200190815260200160002060040160008473ffffffffffffffffffffffffffffffffffffffff1673ffffffffffffffffffffffffffffffffffffffff168152602001908152602001600020905060008160010154905060008360018580549050038154811015156113f757fe5b9060005260206000200160009054906101000a900473ffffffffffffffffffffffffffffffffffffffff16905080848381548110151561143357fe5b9060005260206000200160006101000a81548173ffffffffffffffffffffffffffffffffffffffff021916908373ffffffffffffffffffffffffffffffffffffffff16021790555081600160008873ffffffffffffffffffffffffffffffffffffffff1673ffffffffffffffffffffffffffffffffffffffff16815260200190815260200160002060008973ffffffffffffffffffffffffffffffffffffffff1673ffffffffffffffffffffffffffffffffffffffff16815260200190815260200160002060040160008373ffffffffffffffffffffffffffffffffffffffff1673ffffffffffffffffffffffffffffffffffffffff1681526020019081526020016000206001018190555083805480919060019003611553919061166f565b5060018060008873ffffffffffffffffffffffffffffffffffffffff1673ffffffffffffffffffffffffffffffffffffffff16815260200190815260200160002060008973ffffffffffffffffffffffffffffffffffffffff1673ffffffffffffffffffffffffffffffffffffffff1681526020019081526020016000206007018690806001815401808255809150509060018203906000526020600020016000909192909190916101000a81548173ffffffffffffffffffffffffffffffffffffffff021916908373ffffffffffffffffffffffffffffffffffffffff16021790555003836001018190555060018360000160006101000a81548160ff0219169083600281111561166157fe5b021790555050505050505050565b81548183558181111561169657818360005260206000209182019101611695919061169b565b5b505050565b6116bd91905b808211156116b95760008160009055506001016116a1565b5090565b9056fe7472616e73706f72746572206973206e6f7420706172746e6572206f66206d6573736167652073656e646572a165627a7a723058201f71e1b8152649a06fd9825e9e72df860b8ef668e8e22b74c36ec8d34d474d400029608060405234801561001057600080fd5b506040516020806124168339810180604052602081101561003057600080fd5b8101908080519060200190929190505050806000806101000a81548173ffffffffffffffffffffffffffffffffffffffff021916908373ffffffffffffffffffffffffffffffffffffffff16021790555050612385806100916000396000f3fe608060405234801561001057600080fd5b5060043610610069576000357c010000000000000000000000000000000000000000000000000000000090048063791c07411461006e5780638412d3d11461018957806398581fd914610278578063f5521022146102e6575b600080fd5b6101476004803603604081101561008457600080fd5b81019080803573ffffffffffffffffffffffffffffffffffffffff169060200190929190803590602001906401000000008111156100c157600080fd5b8201836020820111156100d357600080fd5b803590602001918460018302840111640100000000831117156100f557600080fd5b91908080601f016020809104026020016040519081016040528093929190818152602001838380828437600081840152601f19601f820116905080830192505050505050509192919290505050610342565b604051808273ffffffffffffffffffffffffffffffffffffffff1673ffffffffffffffffffffffffffffffffffffffff16815260200191505060405180910390f35b6102626004803603604081101561019f57600080fd5b81019080803573ffffffffffffffffffffffffffffffffffffffff169060200190929190803590602001906401000000008111156101dc57600080fd5b8201836020820111156101ee57600080fd5b8035906020019184600183028401116401000000008311171561021057600080fd5b91908080601f016020809104026020016040519081016040528093929190818152602001838380828437600081840152601f19601f820116905080830192505050505050509192919290505050610687565b6040518082815260200191505060405180910390f35b6102a46004803603602081101561028e57600080fd5b81019080803590602001909291905050506108ca565b604051808273ffffffffffffffffffffffffffffffffffffffff1673ffffffffffffffffffffffffffffffffffffffff16815260200191505060405180910390f35b610328600480360360208110156102fc57600080fd5b81019080803573ffffffffffffffffffffffffffffffffffffffff169060200190929190505050610908565b604051808215151515815260200191505060405180910390f35b60008060009054906101000a900473ffffffffffffffffffffffffffffffffffffffff1673ffffffffffffffffffffffffffffffffffffffff163373ffffffffffffffffffffffffffffffffffffffff16141515610408576040517f08c379a00000000000000000000000000000000000000000000000000000000081526004018080602001828103825260188152602001807f6f6e6c792054432063616e20646f20746869732063616c6c000000000000000081525060200191505060405180910390fd5b61041183610908565b1515610485576040517f08c379a00000000000000000000000000000000000000000000000000000000081526004018080602001828103825260208152602001807f4f6e6c792070726f6475636572732063616e206372656174652061737365747381525060200191505060405180910390fd5b8282604051610493906109d2565b808373ffffffffffffffffffffffffffffffffffffffff1673ffffffffffffffffffffffffffffffffffffffff16815260200180602001828103825283818151815260200191508051906020019080838360005b838110156105025780820151818401526020810190506104e7565b50505050905090810190601f16801561052f5780820380516001836020036101000a031916815260200191505b509350505050604051809103906000f080158015610551573d6000803e3d6000fd5b50905060018060003373ffffffffffffffffffffffffffffffffffffffff1673ffffffffffffffffffffffffffffffffffffffff1681526020019081526020016000206003018290806001815401808255809150509060018203906000526020600020016000909192909190916101000a81548173ffffffffffffffffffffffffffffffffffffffff021916908373ffffffffffffffffffffffffffffffffffffffff16021790555003600160003373ffffffffffffffffffffffffffffffffffffffff1673ffffffffffffffffffffffffffffffffffffffff16815260200190815260200160002060020160008373ffffffffffffffffffffffffffffffffffffffff1673ffffffffffffffffffffffffffffffffffffffff1681526020019081526020016000208190555080905092915050565b60008060009054906101000a900473ffffffffffffffffffffffffffffffffffffffff1673ffffffffffffffffffffffffffffffffffffffff163373ffffffffffffffffffffffffffffffffffffffff1614151561074d576040517f08c379a00000000000000000000000000000000000000000000000000000000081526004018080602001828103825260188152602001807f6f6e6c792054432063616e20646f20746869732063616c6c000000000000000081525060200191505060405180910390fd5b6000151561075a84610908565b15151415156107b4576040517f08c379a00000000000000000000000000000000000000000000000000000000081526004018080602001828103825260218152602001806123396021913960400191505060405180910390fd5b81600160008573ffffffffffffffffffffffffffffffffffffffff1673ffffffffffffffffffffffffffffffffffffffff168152602001908152602001600020600001908051906020019061080a9291906109df565b50600160028490806001815401808255809150509060018203906000526020600020016000909192909190916101000a81548173ffffffffffffffffffffffffffffffffffffffff021916908373ffffffffffffffffffffffffffffffffffffffff16021790555003600160008573ffffffffffffffffffffffffffffffffffffffff1673ffffffffffffffffffffffffffffffffffffffff16815260200190815260200160002060010181905550600160028054905003905092915050565b6002818154811015156108d957fe5b906000526020600020016000915054906101000a900473ffffffffffffffffffffffffffffffffffffffff1681565b600080600280549050141561092057600090506109cd565b8173ffffffffffffffffffffffffffffffffffffffff166002600160008573ffffffffffffffffffffffffffffffffffffffff1673ffffffffffffffffffffffffffffffffffffffff1681526020019081526020016000206001015481548110151561098857fe5b9060005260206000200160009054906101000a900473ffffffffffffffffffffffffffffffffffffffff1673ffffffffffffffffffffffffffffffffffffffff161490505b919050565b6118b480610a8583390190565b828054600181600116156101000203166002900490600052602060002090601f016020900481019282601f10610a2057805160ff1916838001178555610a4e565b82800160010185558215610a4e579182015b82811115610a4d578251825591602001919060010190610a32565b5b509050610a5b9190610a5f565b5090565b610a8191905b80821115610a7d576000816000905550600101610a65565b5090565b9056fe60806040523480156200001157600080fd5b50604051620018b4380380620018b4833981018060405260408110156200003757600080fd5b810190808051906020019092919080516401000000008111156200005a57600080fd5b828101905060208101848111156200007157600080fd5b81518560018202830111640100000000821117156200008f57600080fd5b505092919050505033600060016101000a81548173ffffffffffffffffffffffffffffffffffffffff021916908373ffffffffffffffffffffffffffffffffffffffff16021790555060008060006101000a81548160ff02191690836004811115620000f757fe5b021790555081600160006101000a81548173ffffffffffffffffffffffffffffffffffffffff021916908373ffffffffffffffffffffffffffffffffffffffff16021790555062000147620002d2565b6000816000019060058111156200015a57fe5b908160058111156200016857fe5b8152505081816060018190525082816020019073ffffffffffffffffffffffffffffffffffffffff16908173ffffffffffffffffffffffffffffffffffffffff1681525050428160800181815250506002819080600181540180825580915050906001820390600052602060002090600402016000909192909190915060008201518160000160006101000a81548160ff021916908360058111156200020a57fe5b021790555060208201518160000160016101000a81548173ffffffffffffffffffffffffffffffffffffffff021916908373ffffffffffffffffffffffffffffffffffffffff16021790555060408201518160010160006101000a81548173ffffffffffffffffffffffffffffffffffffffff021916908373ffffffffffffffffffffffffffffffffffffffff1602179055506060820151816002019080519060200190620002bb9291906200033a565b5060808201518160030155505050505050620003e9565b60a06040519081016040528060006005811115620002ec57fe5b8152602001600073ffffffffffffffffffffffffffffffffffffffff168152602001600073ffffffffffffffffffffffffffffffffffffffff16815260200160608152602001600081525090565b828054600181600116156101000203166002900490600052602060002090601f016020900481019282601f106200037d57805160ff1916838001178555620003ae565b82800160010185558215620003ae579182015b82811115620003ad57825182559160200191906001019062000390565b5b509050620003bd9190620003c1565b5090565b620003e691905b80821115620003e2576000816000905550600101620003c8565b5090565b90565b6114bb80620003f96000396000f3fe608060405234801561001057600080fd5b50600436106100a5576000357c0100000000000000000000000000000000000000000000000000000000900480639ace38c2116100785780639ace38c2146101e8578063a4d62f9a14610311578063b98c19c41461031b578063cbd056c814610398576100a5565b80630b41573f146100aa57806379ca5ca41461010e5780638da5cb5b1461017257806398fa582a146101bc575b600080fd5b61010c600480360360408110156100c057600080fd5b81019080803573ffffffffffffffffffffffffffffffffffffffff169060200190929190803573ffffffffffffffffffffffffffffffffffffffff1690602001909291905050506103a2565b005b6101706004803603604081101561012457600080fd5b81019080803573ffffffffffffffffffffffffffffffffffffffff169060200190929190803573ffffffffffffffffffffffffffffffffffffffff169060200190929190505050610626565b005b61017a610929565b604051808273ffffffffffffffffffffffffffffffffffffffff1673ffffffffffffffffffffffffffffffffffffffff16815260200191505060405180910390f35b6101c461094f565b604051808260048111156101d457fe5b60ff16815260200191505060405180910390f35b610214600480360360208110156101fe57600080fd5b8101908080359060200190929190505050610961565b6040518086600581111561022457fe5b60ff1681526020018573ffffffffffffffffffffffffffffffffffffffff1673ffffffffffffffffffffffffffffffffffffffff1681526020018473ffffffffffffffffffffffffffffffffffffffff1673ffffffffffffffffffffffffffffffffffffffff16815260200180602001838152602001828103825284818151815260200191508051906020019080838360005b838110156102d25780820151818401526020810190506102b7565b50505050905090810190601f1680156102ff5780820380516001836020036101000a031916815260200191505b50965050505050505060405180910390f35b610319610a8b565b005b610323610df2565b604051808373ffffffffffffffffffffffffffffffffffffffff1673ffffffffffffffffffffffffffffffffffffffff1681526020018273ffffffffffffffffffffffffffffffffffffffff1673ffffffffffffffffffffffffffffffffffffffff1681526020019250505060405180910390f35b6103a0610f6c565b005b600160009054906101000a900473ffffffffffffffffffffffffffffffffffffffff1673ffffffffffffffffffffffffffffffffffffffff168273ffffffffffffffffffffffffffffffffffffffff1614151561044a576040517f08c379a00000000000000000000000000000000000000000000000000000000081526004018080602001828103825260318152602001806113e06031913960400191505060405180910390fd5b60036000806101000a81548160ff0219169083600481111561046857fe5b02179055506104756112d3565b60038160000190600581111561048757fe5b9081600581111561049457fe5b8152505082816020019073ffffffffffffffffffffffffffffffffffffffff16908173ffffffffffffffffffffffffffffffffffffffff168152505081816040019073ffffffffffffffffffffffffffffffffffffffff16908173ffffffffffffffffffffffffffffffffffffffff1681525050428160800181815250506002819080600181540180825580915050906001820390600052602060002090600402016000909192909190915060008201518160000160006101000a81548160ff0219169083600581111561056457fe5b021790555060208201518160000160016101000a81548173ffffffffffffffffffffffffffffffffffffffff021916908373ffffffffffffffffffffffffffffffffffffffff16021790555060408201518160010160006101000a81548173ffffffffffffffffffffffffffffffffffffffff021916908373ffffffffffffffffffffffffffffffffffffffff160217905550606082015181600201908051906020019061061392919061133a565b5060808201518160030155505050505050565b600160009054906101000a900473ffffffffffffffffffffffffffffffffffffffff1673ffffffffffffffffffffffffffffffffffffffff168273ffffffffffffffffffffffffffffffffffffffff161415156106ce576040517f08c379a000000000000000000000000000000000000000000000000000000000815260040180806020018281038252602d815260200180611442602d913960400191505060405180910390fd5b600060048111156106db57fe5b6000809054906101000a900460ff1660048111156106f557fe5b14151561074d576040517f08c379a00000000000000000000000000000000000000000000000000000000081526004018080602001828103825260318152602001806114116031913960400191505060405180910390fd5b60016000806101000a81548160ff0219169083600481111561076b57fe5b02179055506107786112d3565b60018160000190600581111561078a57fe5b9081600581111561079757fe5b8152505082816020019073ffffffffffffffffffffffffffffffffffffffff16908173ffffffffffffffffffffffffffffffffffffffff168152505081816040019073ffffffffffffffffffffffffffffffffffffffff16908173ffffffffffffffffffffffffffffffffffffffff1681525050428160800181815250506002819080600181540180825580915050906001820390600052602060002090600402016000909192909190915060008201518160000160006101000a81548160ff0219169083600581111561086757fe5b021790555060208201518160000160016101000a81548173ffffffffffffffffffffffffffffffffffffffff021916908373ffffffffffffffffffffffffffffffffffffffff16021790555060408201518160010160006101000a81548173ffffffffffffffffffffffffffffffffffffffff021916908373ffffffffffffffffffffffffffffffffffffffff160217905550606082015181600201908051906020019061091692919061133a565b5060808201518160030155505050505050565b600160009054906101000a900473ffffffffffffffffffffffffffffffffffffffff1681565b6000809054906101000a900460ff1681565b60028181548110151561097057fe5b90600052602060002090600402016000915090508060000160009054906101000a900460ff16908060000160019054906101000a900473ffffffffffffffffffffffffffffffffffffffff16908060010160009054906101000a900473ffffffffffffffffffffffffffffffffffffffff1690806002018054600181600116156101000203166002900480601f016020809104026020016040519081016040528092919081815260200182805460018160011615610100020316600290048015610a7b5780601f10610a5057610100808354040283529160200191610a7b565b820191906000526020600020905b815481529060010190602001808311610a5e57829003601f168201915b5050505050908060030154905085565b60008060006101000a81548160ff02191690836004811115610aa957fe5b0217905550610ab66112d3565b6002600160028054905003815481101515610acd57fe5b906000526020600020906004020160a060405190810160405290816000820160009054906101000a900460ff166005811115610b0557fe5b6005811115610b1057fe5b81526020016000820160019054906101000a900473ffffffffffffffffffffffffffffffffffffffff1673ffffffffffffffffffffffffffffffffffffffff1673ffffffffffffffffffffffffffffffffffffffff1681526020016001820160009054906101000a900473ffffffffffffffffffffffffffffffffffffffff1673ffffffffffffffffffffffffffffffffffffffff1673ffffffffffffffffffffffffffffffffffffffff168152602001600282018054600181600116156101000203166002900480601f016020809104026020016040519081016040528092919081815260200182805460018160011615610100020316600290048015610c595780601f10610c2e57610100808354040283529160200191610c59565b820191906000526020600020905b815481529060010190602001808311610c3c57829003601f168201915b5050505050815260200160038201548152505090508060400151600160006101000a81548173ffffffffffffffffffffffffffffffffffffffff021916908373ffffffffffffffffffffffffffffffffffffffff160217905550600481600001906005811115610cc557fe5b90816005811115610cd257fe5b81525050428160800181815250506002819080600181540180825580915050906001820390600052602060002090600402016000909192909190915060008201518160000160006101000a81548160ff02191690836005811115610d3257fe5b021790555060208201518160000160016101000a81548173ffffffffffffffffffffffffffffffffffffffff021916908373ffffffffffffffffffffffffffffffffffffffff16021790555060408201518160010160006101000a81548173ffffffffffffffffffffffffffffffffffffffff021916908373ffffffffffffffffffffffffffffffffffffffff1602179055506060820151816002019080519060200190610de192919061133a565b506080820151816003015550505050565b60008060016004811115610e0257fe5b6000809054906101000a900460ff166004811115610e1c57fe5b1480610e4c575060026004811115610e3057fe5b6000809054906101000a900460ff166004811115610e4a57fe5b145b80610e7b575060036004811115610e5f57fe5b6000809054906101000a900460ff166004811115610e7957fe5b145b1515610ed2576040517f08c379a000000000000000000000000000000000000000000000000000000000815260040180806020018281038252602181526020018061146f6021913960400191505060405180910390fd5b6002600160028054905003815481101515610ee957fe5b906000526020600020906004020160000160019054906101000a900473ffffffffffffffffffffffffffffffffffffffff1691506002600160028054905003815481101515610f3457fe5b906000526020600020906004020160010160009054906101000a900473ffffffffffffffffffffffffffffffffffffffff1690509091565b60026000806101000a81548160ff02191690836004811115610f8a57fe5b0217905550610f976112d3565b6002600160028054905003815481101515610fae57fe5b906000526020600020906004020160a060405190810160405290816000820160009054906101000a900460ff166005811115610fe657fe5b6005811115610ff157fe5b81526020016000820160019054906101000a900473ffffffffffffffffffffffffffffffffffffffff1673ffffffffffffffffffffffffffffffffffffffff1673ffffffffffffffffffffffffffffffffffffffff1681526020016001820160009054906101000a900473ffffffffffffffffffffffffffffffffffffffff1673ffffffffffffffffffffffffffffffffffffffff1673ffffffffffffffffffffffffffffffffffffffff168152602001600282018054600181600116156101000203166002900480601f01602080910402602001604051908101604052809291908181526020018280546001816001161561010002031660029004801561113a5780601f1061110f5761010080835404028352916020019161113a565b820191906000526020600020905b81548152906001019060200180831161111d57829003601f168201915b5050505050815260200160038201548152505090508060400151600160006101000a81548173ffffffffffffffffffffffffffffffffffffffff021916908373ffffffffffffffffffffffffffffffffffffffff1602179055506002816000019060058111156111a657fe5b908160058111156111b357fe5b81525050428160800181815250506002819080600181540180825580915050906001820390600052602060002090600402016000909192909190915060008201518160000160006101000a81548160ff0219169083600581111561121357fe5b021790555060208201518160000160016101000a81548173ffffffffffffffffffffffffffffffffffffffff021916908373ffffffffffffffffffffffffffffffffffffffff16021790555060408201518160010160006101000a81548173ffffffffffffffffffffffffffffffffffffffff021916908373ffffffffffffffffffffffffffffffffffffffff16021790555060608201518160020190805190602001906112c292919061133a565b506080820151816003015550505050565b60a060405190810160405280600060058111156112ec57fe5b8152602001600073ffffffffffffffffffffffffffffffffffffffff168152602001600073ffffffffffffffffffffffffffffffffffffffff16815260200160608152602001600081525090565b828054600181600116156101000203166002900490600052602060002090601f016020900481019282601f1061137b57805160ff19168380011785556113a9565b828001600101855582156113a9579182015b828111156113a857825182559160200191906001019061138d565b5b5090506113b691906113ba565b5090565b6113dc91905b808211156113d85760008160009055506001016113c0565b5090565b9056fe6f6e6c79206f776e6572206f66207468652061737365742063616e2061736b20666f7220656e64205472616e73706f727443616e206e6f742061736b20666f72207472616e73706f7274206966206173736574206973206e6f742077616974696e674f6e6c79206f776e6572206f66207468652061737365742063616e2061736b20666f72207472616e73706f72746173736574206973206e6f742070656e64696e67206f66207472616e73706f7274a165627a7a723058207a5995534a2c1fe65bd29d63568afac62a3d018b04f040391ba5993875aa042c002950726f647563657220697320616c726561647920696e207468652073797374656da165627a7a7230582041b75480f63816511ba068181d1efc9e6feb0e2138ea66f930b6ab35f35ea64e0029608060405234801561001057600080fd5b506040516020806106ea8339810180604052602081101561003057600080fd5b8101908080519060200190929190505050806000806101000a81548173ffffffffffffffffffffffffffffffffffffffff021916908373ffffffffffffffffffffffffffffffffffffffff16021790555050610659806100916000396000f3fe608060405234801561001057600080fd5b506004361061005e576000357c0100000000000000000000000000000000000000000000000000000000900480631302ed1f146100635780632b8109d514610156578063da3898fe146101b2575b600080fd5b61013c6004803603604081101561007957600080fd5b81019080803573ffffffffffffffffffffffffffffffffffffffff169060200190929190803590602001906401000000008111156100b657600080fd5b8201836020820111156100c857600080fd5b803590602001918460018302840111640100000000831117156100ea57600080fd5b91908080601f016020809104026020016040519081016040528093929190818152602001838380828437600081840152601f19601f820116905080830192505050505050509192919290505050610220565b604051808215151515815260200191505060405180910390f35b6101986004803603602081101561016c57600080fd5b81019080803573ffffffffffffffffffffffffffffffffffffffff16906020019092919050505061045c565b604051808215151515815260200191505060405180910390f35b6101de600480360360208110156101c857600080fd5b8101908080359060200190929190505050610526565b604051808273ffffffffffffffffffffffffffffffffffffffff1673ffffffffffffffffffffffffffffffffffffffff16815260200191505060405180910390f35b60008060009054906101000a900473ffffffffffffffffffffffffffffffffffffffff1673ffffffffffffffffffffffffffffffffffffffff163373ffffffffffffffffffffffffffffffffffffffff161415156102e6576040517f08c379a00000000000000000000000000000000000000000000000000000000081526004018080602001828103825260188152602001807f6f6e6c792054432063616e20646f20746869732063616c6c000000000000000081525060200191505060405180910390fd5b600015156102f38461045c565b151514151561034d576040517f08c379a000000000000000000000000000000000000000000000000000000000815260040180806020018281038252602481526020018061060a6024913960400191505060405180910390fd5b81600160008573ffffffffffffffffffffffffffffffffffffffff1673ffffffffffffffffffffffffffffffffffffffff16815260200190815260200160002060000190805190602001906103a3929190610564565b50600160028490806001815401808255809150509060018203906000526020600020016000909192909190916101000a81548173ffffffffffffffffffffffffffffffffffffffff021916908373ffffffffffffffffffffffffffffffffffffffff16021790555003600160008573ffffffffffffffffffffffffffffffffffffffff1673ffffffffffffffffffffffffffffffffffffffff168152602001908152602001600020600101819055506001905092915050565b60008060028054905014156104745760009050610521565b8173ffffffffffffffffffffffffffffffffffffffff166002600160008573ffffffffffffffffffffffffffffffffffffffff1673ffffffffffffffffffffffffffffffffffffffff168152602001908152602001600020600101548154811015156104dc57fe5b9060005260206000200160009054906101000a900473ffffffffffffffffffffffffffffffffffffffff1673ffffffffffffffffffffffffffffffffffffffff161490505b919050565b60028181548110151561053557fe5b906000526020600020016000915054906101000a900473ffffffffffffffffffffffffffffffffffffffff1681565b828054600181600116156101000203166002900490600052602060002090601f016020900481019282601f106105a557805160ff19168380011785556105d3565b828001600101855582156105d3579182015b828111156105d25782518255916020019190600101906105b7565b5b5090506105e091906105e4565b5090565b61060691905b808211156106025760008160009055506001016105ea565b5090565b9056fe5472616e73706f7274657220697320616c726561647920696e207468652073797374656da165627a7a72305820751005a15c8c5d02a201774a5bbd64314c947a493de12b9b133efde4fc555dea0029608060405234801561001057600080fd5b50604051602080610f0f8339810180604052602081101561003057600080fd5b8101908080519060200190929190505050806000806101000a81548173ffffffffffffffffffffffffffffffffffffffff021916908373ffffffffffffffffffffffffffffffffffffffff16021790555050610e7e806100916000396000f3fe608060405234801561001057600080fd5b5060043610610074576000357c010000000000000000000000000000000000000000000000000000000090048063079320a1146100795780631d0e8a4d146100e757806362e6115a1461014357806391104740146101bf5780639b7e02eb1461023b575b600080fd5b6100a56004803603602081101561008f57600080fd5b810190808035906020019092919050505061032a565b604051808273ffffffffffffffffffffffffffffffffffffffff1673ffffffffffffffffffffffffffffffffffffffff16815260200191505060405180910390f35b610129600480360360208110156100fd57600080fd5b81019080803573ffffffffffffffffffffffffffffffffffffffff169060200190929190505050610368565b604051808215151515815260200191505060405180910390f35b6101a56004803603604081101561015957600080fd5b81019080803573ffffffffffffffffffffffffffffffffffffffff169060200190929190803573ffffffffffffffffffffffffffffffffffffffff169060200190929190505050610432565b604051808215151515815260200191505060405180910390f35b610221600480360360408110156101d557600080fd5b81019080803573ffffffffffffffffffffffffffffffffffffffff169060200190929190803573ffffffffffffffffffffffffffffffffffffffff1690602001909291905050506106a9565b604051808215151515815260200191505060405180910390f35b6103146004803603604081101561025157600080fd5b81019080803573ffffffffffffffffffffffffffffffffffffffff1690602001909291908035906020019064010000000081111561028e57600080fd5b8201836020820111156102a057600080fd5b803590602001918460018302840111640100000000831117156102c257600080fd5b91908080601f016020809104026020016040519081016040528093929190818152602001838380828437600081840152601f19601f820116905080830192505050505050509192919290505050610b21565b6040518082815260200191505060405180910390f35b60028181548110151561033957fe5b906000526020600020016000915054906101000a900473ffffffffffffffffffffffffffffffffffffffff1681565b6000806002805490501415610380576000905061042d565b8173ffffffffffffffffffffffffffffffffffffffff166002600160008573ffffffffffffffffffffffffffffffffffffffff1673ffffffffffffffffffffffffffffffffffffffff168152602001908152602001600020600101548154811015156103e857fe5b9060005260206000200160009054906101000a900473ffffffffffffffffffffffffffffffffffffffff1673ffffffffffffffffffffffffffffffffffffffff161490505b919050565b60008060009054906101000a900473ffffffffffffffffffffffffffffffffffffffff1673ffffffffffffffffffffffffffffffffffffffff163373ffffffffffffffffffffffffffffffffffffffff161415156104f8576040517f08c379a00000000000000000000000000000000000000000000000000000000081526004018080602001828103825260188152602001807f6f6e6c792054432063616e20646f20746869732063616c6c000000000000000081525060200191505060405180910390fd5b61050183610368565b1515610575576040517f08c379a000000000000000000000000000000000000000000000000000000000815260040180806020018281038252601a8152602001807f57726f6e672073686f70416464726573732070726f766964656400000000000081525060200191505060405180910390fd5b60018060008573ffffffffffffffffffffffffffffffffffffffff1673ffffffffffffffffffffffffffffffffffffffff1681526020019081526020016000206003018390806001815401808255809150509060018203906000526020600020016000909192909190916101000a81548173ffffffffffffffffffffffffffffffffffffffff021916908373ffffffffffffffffffffffffffffffffffffffff16021790555003600160008573ffffffffffffffffffffffffffffffffffffffff1673ffffffffffffffffffffffffffffffffffffffff16815260200190815260200160002060020160008473ffffffffffffffffffffffffffffffffffffffff1673ffffffffffffffffffffffffffffffffffffffff168152602001908152602001600020819055506001905092915050565b60008060009054906101000a900473ffffffffffffffffffffffffffffffffffffffff1673ffffffffffffffffffffffffffffffffffffffff163373ffffffffffffffffffffffffffffffffffffffff1614151561076f576040517f08c379a00000000000000000000000000000000000000000000000000000000081526004018080602001828103825260188152602001807f6f6e6c792054432063616e20646f20746869732063616c6c000000000000000081525060200191505060405180910390fd5b61077883610368565b15156107ec576040517f08c379a000000000000000000000000000000000000000000000000000000000815260040180806020018281038252601a8152602001807f57726f6e672073686f70416464726573732070726f766964656400000000000081525060200191505060405180910390fd5b6000600160008573ffffffffffffffffffffffffffffffffffffffff1673ffffffffffffffffffffffffffffffffffffffff16815260200190815260200160002060030190506000600160008673ffffffffffffffffffffffffffffffffffffffff1673ffffffffffffffffffffffffffffffffffffffff16815260200190815260200160002060020160008573ffffffffffffffffffffffffffffffffffffffff1673ffffffffffffffffffffffffffffffffffffffff16815260200190815260200160002054905060008260018480549050038154811015156108cd57fe5b9060005260206000200160009054906101000a900473ffffffffffffffffffffffffffffffffffffffff16905080838381548110151561090957fe5b9060005260206000200160006101000a81548173ffffffffffffffffffffffffffffffffffffffff021916908373ffffffffffffffffffffffffffffffffffffffff16021790555081600160008873ffffffffffffffffffffffffffffffffffffffff1673ffffffffffffffffffffffffffffffffffffffff16815260200190815260200160002060020160008373ffffffffffffffffffffffffffffffffffffffff1673ffffffffffffffffffffffffffffffffffffffff16815260200190815260200160002081905550828054809190600190036109e99190610d81565b5060018060008873ffffffffffffffffffffffffffffffffffffffff1673ffffffffffffffffffffffffffffffffffffffff1681526020019081526020016000206005018690806001815401808255809150509060018203906000526020600020016000909192909190916101000a81548173ffffffffffffffffffffffffffffffffffffffff021916908373ffffffffffffffffffffffffffffffffffffffff16021790555003600160008873ffffffffffffffffffffffffffffffffffffffff1673ffffffffffffffffffffffffffffffffffffffff16815260200190815260200160002060040160008773ffffffffffffffffffffffffffffffffffffffff1673ffffffffffffffffffffffffffffffffffffffff168152602001908152602001600020819055506001935050505092915050565b60008060009054906101000a900473ffffffffffffffffffffffffffffffffffffffff1673ffffffffffffffffffffffffffffffffffffffff163373ffffffffffffffffffffffffffffffffffffffff16141515610be7576040517f08c379a00000000000000000000000000000000000000000000000000000000081526004018080602001828103825260188152602001807f6f6e6c792054432063616e20646f20746869732063616c6c000000000000000081525060200191505060405180910390fd5b60001515610bf484610368565b1515141515610c6b576040517f08c379a000000000000000000000000000000000000000000000000000000000815260040180806020018281038252601d8152602001807f53686f7020697320616c726561647920696e207468652073797374656d00000081525060200191505060405180910390fd5b81600160008573ffffffffffffffffffffffffffffffffffffffff1673ffffffffffffffffffffffffffffffffffffffff1681526020019081526020016000206000019080519060200190610cc1929190610dad565b50600160028490806001815401808255809150509060018203906000526020600020016000909192909190916101000a81548173ffffffffffffffffffffffffffffffffffffffff021916908373ffffffffffffffffffffffffffffffffffffffff16021790555003600160008573ffffffffffffffffffffffffffffffffffffffff1673ffffffffffffffffffffffffffffffffffffffff16815260200190815260200160002060010181905550600160028054905003905092915050565b815481835581811115610da857818360005260206000209182019101610da79190610e2d565b5b505050565b828054600181600116156101000203166002900490600052602060002090601f016020900481019282601f10610dee57805160ff1916838001178555610e1c565b82800160010185558215610e1c579182015b82811115610e1b578251825591602001919060010190610e00565b5b509050610e299190610e2d565b5090565b610e4f91905b80821115610e4b576000816000905550600101610e33565b5090565b9056fea165627a7a72305820f18a3ac3fd15adc1031aa04f168d44bf46473d14ed9cd9893382f46ac07589750029","opcodes":"PUSH1 0x80 PUSH1 0x40 MSTORE CALLVALUE DUP1 ISZERO PUSH3 0x11 JUMPI PUSH1 0x0 DUP1 REVERT JUMPDEST POP CALLER PUSH1 0x0 DUP1 PUSH2 0x100 EXP DUP2 SLOAD DUP2 PUSH20 0xFFFFFFFFFFFFFFFFFFFFFFFFFFFFFFFFFFFFFFFF MUL NOT AND SWAP1 DUP4 PUSH20 0xFFFFFFFFFFFFFFFFFFFFFFFFFFFFFFFFFFFFFFFF AND MUL OR SWAP1 SSTORE POP ADDRESS PUSH1 0x40 MLOAD PUSH3 0x61 SWAP1 PUSH3 0x2E4 JUMP JUMPDEST DUP1 DUP3 PUSH20 0xFFFFFFFFFFFFFFFFFFFFFFFFFFFFFFFFFFFFFFFF AND PUSH20 0xFFFFFFFFFFFFFFFFFFFFFFFFFFFFFFFFFFFFFFFF AND DUP2 MSTORE PUSH1 0x20 ADD SWAP2 POP POP PUSH1 0x40 MLOAD DUP1 SWAP2 SUB SWAP1 PUSH1 0x0 CREATE DUP1 ISZERO DUP1 ISZERO PUSH3 0xB4 JUMPI RETURNDATASIZE PUSH1 0x0 DUP1 RETURNDATACOPY RETURNDATASIZE PUSH1 0x0 REVERT JUMPDEST POP PUSH1 0x1 PUSH1 0x0 PUSH2 0x100 EXP DUP2 SLOAD DUP2 PUSH20 0xFFFFFFFFFFFFFFFFFFFFFFFFFFFFFFFFFFFFFFFF MUL NOT AND SWAP1 DUP4 PUSH20 0xFFFFFFFFFFFFFFFFFFFFFFFFFFFFFFFFFFFFFFFF AND MUL OR SWAP1 SSTORE POP ADDRESS PUSH1 0x40 MLOAD PUSH3 0x104 SWAP1 PUSH3 0x2F2 JUMP JUMPDEST DUP1 DUP3 PUSH20 0xFFFFFFFFFFFFFFFFFFFFFFFFFFFFFFFFFFFFFFFF AND PUSH20 0xFFFFFFFFFFFFFFFFFFFFFFFFFFFFFFFFFFFFFFFF AND DUP2 MSTORE PUSH1 0x20 ADD SWAP2 POP POP PUSH1 0x40 MLOAD DUP1 SWAP2 SUB SWAP1 PUSH1 0x0 CREATE DUP1 ISZERO DUP1 ISZERO PUSH3 0x157 JUMPI RETURNDATASIZE PUSH1 0x0 DUP1 RETURNDATACOPY RETURNDATASIZE PUSH1 0x0 REVERT JUMPDEST POP PUSH1 0x2 PUSH1 0x0 PUSH2 0x100 EXP DUP2 SLOAD DUP2 PUSH20 0xFFFFFFFFFFFFFFFFFFFFFFFFFFFFFFFFFFFFFFFF MUL NOT AND SWAP1 DUP4 PUSH20 0xFFFFFFFFFFFFFFFFFFFFFFFFFFFFFFFFFFFFFFFF AND MUL OR SWAP1 SSTORE POP ADDRESS PUSH1 0x40 MLOAD PUSH3 0x1A7 SWAP1 PUSH3 0x300 JUMP JUMPDEST DUP1 DUP3 PUSH20 0xFFFFFFFFFFFFFFFFFFFFFFFFFFFFFFFFFFFFFFFF AND PUSH20 0xFFFFFFFFFFFFFFFFFFFFFFFFFFFFFFFFFFFFFFFF AND DUP2 MSTORE PUSH1 0x20 ADD SWAP2 POP POP PUSH1 0x40 MLOAD DUP1 SWAP2 SUB SWAP1 PUSH1 0x0 CREATE DUP1 ISZERO DUP1 ISZERO PUSH3 0x1FA JUMPI RETURNDATASIZE PUSH1 0x0 DUP1 RETURNDATACOPY RETURNDATASIZE PUSH1 0x0 REVERT JUMPDEST POP PUSH1 0x3 PUSH1 0x0 PUSH2 0x100 EXP DUP2 SLOAD DUP2 PUSH20 0xFFFFFFFFFFFFFFFFFFFFFFFFFFFFFFFFFFFFFFFF MUL NOT AND SWAP1 DUP4 PUSH20 0xFFFFFFFFFFFFFFFFFFFFFFFFFFFFFFFFFFFFFFFF AND MUL OR SWAP1 SSTORE POP ADDRESS PUSH1 0x40 MLOAD PUSH3 0x24A SWAP1 PUSH3 0x30E JUMP JUMPDEST DUP1 DUP3 PUSH20 0xFFFFFFFFFFFFFFFFFFFFFFFFFFFFFFFFFFFFFFFF AND PUSH20 0xFFFFFFFFFFFFFFFFFFFFFFFFFFFFFFFFFFFFFFFF AND DUP2 MSTORE PUSH1 0x20 ADD SWAP2 POP POP PUSH1 0x40 MLOAD DUP1 SWAP2 SUB SWAP1 PUSH1 0x0 CREATE DUP1 ISZERO DUP1 ISZERO PUSH3 0x29D JUMPI RETURNDATASIZE PUSH1 0x0 DUP1 RETURNDATACOPY RETURNDATASIZE PUSH1 0x0 REVERT JUMPDEST POP PUSH1 0x4 PUSH1 0x0 PUSH2 0x100 EXP DUP2 SLOAD DUP2 PUSH20 0xFFFFFFFFFFFFFFFFFFFFFFFFFFFFFFFFFFFFFFFF MUL NOT AND SWAP1 DUP4 PUSH20 0xFFFFFFFFFFFFFFFFFFFFFFFFFFFFFFFFFFFFFFFF AND MUL OR SWAP1 SSTORE POP PUSH3 0x31C JUMP JUMPDEST PUSH2 0x17A9 DUP1 PUSH3 0x2FD6 DUP4 CODECOPY ADD SWAP1 JUMP JUMPDEST PUSH2 0x2416 DUP1 PUSH3 0x477F DUP4 CODECOPY ADD SWAP1 JUMP JUMPDEST PUSH2 0x6EA DUP1 PUSH3 0x6B95 DUP4 CODECOPY ADD SWAP1 JUMP JUMPDEST PUSH2 0xF0F DUP1 PUSH3 0x727F DUP4 CODECOPY ADD SWAP1 JUMP JUMPDEST PUSH2 0x2CAA DUP1 PUSH3 0x32C PUSH1 0x0 CODECOPY PUSH1 0x0 RETURN INVALID PUSH1 0x80 PUSH1 0x40 MSTORE CALLVALUE DUP1 ISZERO PUSH2 0x10 JUMPI PUSH1 0x0 DUP1 REVERT JUMPDEST POP PUSH1 0x4 CALLDATASIZE LT PUSH2 0xEC JUMPI PUSH1 0x0 CALLDATALOAD PUSH29 0x100000000000000000000000000000000000000000000000000000000 SWAP1 DIV DUP1 PUSH4 0x55B1F24E GT PUSH2 0xA9 JUMPI DUP1 PUSH4 0x8DA5CB5B GT PUSH2 0x83 JUMPI DUP1 PUSH4 0x8DA5CB5B EQ PUSH2 0x636 JUMPI DUP1 PUSH4 0x9B7E02EB EQ PUSH2 0x680 JUMPI DUP1 PUSH4 0xB46D0110 EQ PUSH2 0x76F JUMPI DUP1 PUSH4 0xF5521022 EQ PUSH2 0x7CB JUMPI PUSH2 0xEC JUMP JUMPDEST DUP1 PUSH4 0x55B1F24E EQ PUSH2 0x3F0 JUMPI DUP1 PUSH4 0x8412D3D1 EQ PUSH2 0x4EB JUMPI DUP1 PUSH4 0x8736CB5D EQ PUSH2 0x5DA JUMPI PUSH2 0xEC JUMP JUMPDEST DUP1 PUSH4 0x29D9E92 EQ PUSH2 0xF1 JUMPI DUP1 PUSH4 0x1302ED1F EQ PUSH2 0x14D JUMPI DUP1 PUSH4 0x1D0E8A4D EQ PUSH2 0x240 JUMPI DUP1 PUSH4 0x245FD408 EQ PUSH2 0x29C JUMPI DUP1 PUSH4 0x2B8109D5 EQ PUSH2 0x338 JUMPI DUP1 PUSH4 0x3DB4DE47 EQ PUSH2 0x394 JUMPI JUMPDEST PUSH1 0x0 DUP1 REVERT JUMPDEST PUSH2 0x133 PUSH1 0x4 DUP1 CALLDATASIZE SUB PUSH1 0x20 DUP2 LT ISZERO PUSH2 0x107 JUMPI PUSH1 0x0 DUP1 REVERT JUMPDEST DUP2 ADD SWAP1 DUP1 DUP1 CALLDATALOAD PUSH20 0xFFFFFFFFFFFFFFFFFFFFFFFFFFFFFFFFFFFFFFFF AND SWAP1 PUSH1 0x20 ADD SWAP1 SWAP3 SWAP2 SWAP1 POP POP POP PUSH2 0x827 JUMP JUMPDEST PUSH1 0x40 MLOAD DUP1 DUP3 ISZERO ISZERO ISZERO ISZERO DUP2 MSTORE PUSH1 0x20 ADD SWAP2 POP POP PUSH1 0x40 MLOAD DUP1 SWAP2 SUB SWAP1 RETURN JUMPDEST PUSH2 0x226 PUSH1 0x4 DUP1 CALLDATASIZE SUB PUSH1 0x40 DUP2 LT ISZERO PUSH2 0x163 JUMPI PUSH1 0x0 DUP1 REVERT JUMPDEST DUP2 ADD SWAP1 DUP1 DUP1 CALLDATALOAD PUSH20 0xFFFFFFFFFFFFFFFFFFFFFFFFFFFFFFFFFFFFFFFF AND SWAP1 PUSH1 0x20 ADD SWAP1 SWAP3 SWAP2 SWAP1 DUP1 CALLDATALOAD SWAP1 PUSH1 0x20 ADD SWAP1 PUSH5 0x100000000 DUP2 GT ISZERO PUSH2 0x1A0 JUMPI PUSH1 0x0 DUP1 REVERT JUMPDEST DUP3 ADD DUP4 PUSH1 0x20 DUP3 ADD GT ISZERO PUSH2 0x1B2 JUMPI PUSH1 0x0 DUP1 REVERT JUMPDEST DUP1 CALLDATALOAD SWAP1 PUSH1 0x20 ADD SWAP2 DUP5 PUSH1 0x1 DUP4 MUL DUP5 ADD GT PUSH5 0x100000000 DUP4 GT OR ISZERO PUSH2 0x1D4 JUMPI PUSH1 0x0 DUP1 REVERT JUMPDEST SWAP2 SWAP1 DUP1 DUP1 PUSH1 0x1F ADD PUSH1 0x20 DUP1 SWAP2 DIV MUL PUSH1 0x20 ADD PUSH1 0x40 MLOAD SWAP1 DUP2 ADD PUSH1 0x40 MSTORE DUP1 SWAP4 SWAP3 SWAP2 SWAP1 DUP2 DUP2 MSTORE PUSH1 0x20 ADD DUP4 DUP4 DUP1 DUP3 DUP5 CALLDATACOPY PUSH1 0x0 DUP2 DUP5 ADD MSTORE PUSH1 0x1F NOT PUSH1 0x1F DUP3 ADD AND SWAP1 POP DUP1 DUP4 ADD SWAP3 POP POP POP POP POP POP POP SWAP2 SWAP3 SWAP2 SWAP3 SWAP1 POP POP POP PUSH2 0xB93 JUMP JUMPDEST PUSH1 0x40 MLOAD DUP1 DUP3 ISZERO ISZERO ISZERO ISZERO DUP2 MSTORE PUSH1 0x20 ADD SWAP2 POP POP PUSH1 0x40 MLOAD DUP1 SWAP2 SUB SWAP1 RETURN JUMPDEST PUSH2 0x282 PUSH1 0x4 DUP1 CALLDATASIZE SUB PUSH1 0x20 DUP2 LT ISZERO PUSH2 0x256 JUMPI PUSH1 0x0 DUP1 REVERT JUMPDEST DUP2 ADD SWAP1 DUP1 DUP1 CALLDATALOAD PUSH20 0xFFFFFFFFFFFFFFFFFFFFFFFFFFFFFFFFFFFFFFFF AND SWAP1 PUSH1 0x20 ADD SWAP1 SWAP3 SWAP2 SWAP1 POP POP POP PUSH2 0xE96 JUMP JUMPDEST PUSH1 0x40 MLOAD DUP1 DUP3 ISZERO ISZERO ISZERO ISZERO DUP2 MSTORE PUSH1 0x20 ADD SWAP2 POP POP PUSH1 0x40 MLOAD DUP1 SWAP2 SUB SWAP1 RETURN JUMPDEST PUSH2 0x31E PUSH1 0x4 DUP1 CALLDATASIZE SUB PUSH1 0x60 DUP2 LT ISZERO PUSH2 0x2B2 JUMPI PUSH1 0x0 DUP1 REVERT JUMPDEST DUP2 ADD SWAP1 DUP1 DUP1 CALLDATALOAD PUSH20 0xFFFFFFFFFFFFFFFFFFFFFFFFFFFFFFFFFFFFFFFF AND SWAP1 PUSH1 0x20 ADD SWAP1 SWAP3 SWAP2 SWAP1 DUP1 CALLDATALOAD PUSH20 0xFFFFFFFFFFFFFFFFFFFFFFFFFFFFFFFFFFFFFFFF AND SWAP1 PUSH1 0x20 ADD SWAP1 SWAP3 SWAP2 SWAP1 DUP1 CALLDATALOAD PUSH20 0xFFFFFFFFFFFFFFFFFFFFFFFFFFFFFFFFFFFFFFFF AND SWAP1 PUSH1 0x20 ADD SWAP1 SWAP3 SWAP2 SWAP1 POP POP POP PUSH2 0xF95 JUMP JUMPDEST PUSH1 0x40 MLOAD DUP1 DUP3 ISZERO ISZERO ISZERO ISZERO DUP2 MSTORE PUSH1 0x20 ADD SWAP2 POP POP PUSH1 0x40 MLOAD DUP1 SWAP2 SUB SWAP1 RETURN JUMPDEST PUSH2 0x37A PUSH1 0x4 DUP1 CALLDATASIZE SUB PUSH1 0x20 DUP2 LT ISZERO PUSH2 0x34E JUMPI PUSH1 0x0 DUP1 REVERT JUMPDEST DUP2 ADD SWAP1 DUP1 DUP1 CALLDATALOAD PUSH20 0xFFFFFFFFFFFFFFFFFFFFFFFFFFFFFFFFFFFFFFFF AND SWAP1 PUSH1 0x20 ADD SWAP1 SWAP3 SWAP2 SWAP1 POP POP POP PUSH2 0x141D JUMP JUMPDEST PUSH1 0x40 MLOAD DUP1 DUP3 ISZERO ISZERO ISZERO ISZERO DUP2 MSTORE PUSH1 0x20 ADD SWAP2 POP POP PUSH1 0x40 MLOAD DUP1 SWAP2 SUB SWAP1 RETURN JUMPDEST PUSH2 0x3D6 PUSH1 0x4 DUP1 CALLDATASIZE SUB PUSH1 0x20 DUP2 LT ISZERO PUSH2 0x3AA JUMPI PUSH1 0x0 DUP1 REVERT JUMPDEST DUP2 ADD SWAP1 DUP1 DUP1 CALLDATALOAD PUSH20 0xFFFFFFFFFFFFFFFFFFFFFFFFFFFFFFFFFFFFFFFF AND SWAP1 PUSH1 0x20 ADD SWAP1 SWAP3 SWAP2 SWAP1 POP POP POP PUSH2 0x151C JUMP JUMPDEST PUSH1 0x40 MLOAD DUP1 DUP3 ISZERO ISZERO ISZERO ISZERO DUP2 MSTORE PUSH1 0x20 ADD SWAP2 POP POP PUSH1 0x40 MLOAD DUP1 SWAP2 SUB SWAP1 RETURN JUMPDEST PUSH2 0x4A9 PUSH1 0x4 DUP1 CALLDATASIZE SUB PUSH1 0x20 DUP2 LT ISZERO PUSH2 0x406 JUMPI PUSH1 0x0 DUP1 REVERT JUMPDEST DUP2 ADD SWAP1 DUP1 DUP1 CALLDATALOAD SWAP1 PUSH1 0x20 ADD SWAP1 PUSH5 0x100000000 DUP2 GT ISZERO PUSH2 0x423 JUMPI PUSH1 0x0 DUP1 REVERT JUMPDEST DUP3 ADD DUP4 PUSH1 0x20 DUP3 ADD GT ISZERO PUSH2 0x435 JUMPI PUSH1 0x0 DUP1 REVERT JUMPDEST DUP1 CALLDATALOAD SWAP1 PUSH1 0x20 ADD SWAP2 DUP5 PUSH1 0x1 DUP4 MUL DUP5 ADD GT PUSH5 0x100000000 DUP4 GT OR ISZERO PUSH2 0x457 JUMPI PUSH1 0x0 DUP1 REVERT JUMPDEST SWAP2 SWAP1 DUP1 DUP1 PUSH1 0x1F ADD PUSH1 0x20 DUP1 SWAP2 DIV MUL PUSH1 0x20 ADD PUSH1 0x40 MLOAD SWAP1 DUP2 ADD PUSH1 0x40 MSTORE DUP1 SWAP4 SWAP3 SWAP2 SWAP1 DUP2 DUP2 MSTORE PUSH1 0x20 ADD DUP4 DUP4 DUP1 DUP3 DUP5 CALLDATACOPY PUSH1 0x0 DUP2 DUP5 ADD MSTORE PUSH1 0x1F NOT PUSH1 0x1F DUP3 ADD AND SWAP1 POP DUP1 DUP4 ADD SWAP3 POP POP POP POP POP POP POP SWAP2 SWAP3 SWAP2 SWAP3 SWAP1 POP POP POP PUSH2 0x1939 JUMP JUMPDEST PUSH1 0x40 MLOAD DUP1 DUP3 PUSH20 0xFFFFFFFFFFFFFFFFFFFFFFFFFFFFFFFFFFFFFFFF AND PUSH20 0xFFFFFFFFFFFFFFFFFFFFFFFFFFFFFFFFFFFFFFFF AND DUP2 MSTORE PUSH1 0x20 ADD SWAP2 POP POP PUSH1 0x40 MLOAD DUP1 SWAP2 SUB SWAP1 RETURN JUMPDEST PUSH2 0x5C4 PUSH1 0x4 DUP1 CALLDATASIZE SUB PUSH1 0x40 DUP2 LT ISZERO PUSH2 0x501 JUMPI PUSH1 0x0 DUP1 REVERT JUMPDEST DUP2 ADD SWAP1 DUP1 DUP1 CALLDATALOAD PUSH20 0xFFFFFFFFFFFFFFFFFFFFFFFFFFFFFFFFFFFFFFFF AND SWAP1 PUSH1 0x20 ADD SWAP1 SWAP3 SWAP2 SWAP1 DUP1 CALLDATALOAD SWAP1 PUSH1 0x20 ADD SWAP1 PUSH5 0x100000000 DUP2 GT ISZERO PUSH2 0x53E JUMPI PUSH1 0x0 DUP1 REVERT JUMPDEST DUP3 ADD DUP4 PUSH1 0x20 DUP3 ADD GT ISZERO PUSH2 0x550 JUMPI PUSH1 0x0 DUP1 REVERT JUMPDEST DUP1 CALLDATALOAD SWAP1 PUSH1 0x20 ADD SWAP2 DUP5 PUSH1 0x1 DUP4 MUL DUP5 ADD GT PUSH5 0x100000000 DUP4 GT OR ISZERO PUSH2 0x572 JUMPI PUSH1 0x0 DUP1 REVERT JUMPDEST SWAP2 SWAP1 DUP1 DUP1 PUSH1 0x1F ADD PUSH1 0x20 DUP1 SWAP2 DIV MUL PUSH1 0x20 ADD PUSH1 0x40 MLOAD SWAP1 DUP2 ADD PUSH1 0x40 MSTORE DUP1 SWAP4 SWAP3 SWAP2 SWAP1 DUP2 DUP2 MSTORE PUSH1 0x20 ADD DUP4 DUP4 DUP1 DUP3 DUP5 CALLDATACOPY PUSH1 0x0 DUP2 DUP5 ADD MSTORE PUSH1 0x1F NOT PUSH1 0x1F DUP3 ADD AND SWAP1 POP DUP1 DUP4 ADD SWAP3 POP POP POP POP POP POP POP SWAP2 SWAP3 SWAP2 SWAP3 SWAP1 POP POP POP PUSH2 0x1B21 JUMP JUMPDEST PUSH1 0x40 MLOAD DUP1 DUP3 DUP2 MSTORE PUSH1 0x20 ADD SWAP2 POP POP PUSH1 0x40 MLOAD DUP1 SWAP2 SUB SWAP1 RETURN JUMPDEST PUSH2 0x61C PUSH1 0x4 DUP1 CALLDATASIZE SUB PUSH1 0x20 DUP2 LT ISZERO PUSH2 0x5F0 JUMPI PUSH1 0x0 DUP1 REVERT JUMPDEST DUP2 ADD SWAP1 DUP1 DUP1 CALLDATALOAD PUSH20 0xFFFFFFFFFFFFFFFFFFFFFFFFFFFFFFFFFFFFFFFF AND SWAP1 PUSH1 0x20 ADD SWAP1 SWAP3 SWAP2 SWAP1 POP POP POP PUSH2 0x1E24 JUMP JUMPDEST PUSH1 0x40 MLOAD DUP1 DUP3 ISZERO ISZERO ISZERO ISZERO DUP2 MSTORE PUSH1 0x20 ADD SWAP2 POP POP PUSH1 0x40 MLOAD DUP1 SWAP2 SUB SWAP1 RETURN JUMPDEST PUSH2 0x63E PUSH2 0x233B JUMP JUMPDEST PUSH1 0x40 MLOAD DUP1 DUP3 PUSH20 0xFFFFFFFFFFFFFFFFFFFFFFFFFFFFFFFFFFFFFFFF AND PUSH20 0xFFFFFFFFFFFFFFFFFFFFFFFFFFFFFFFFFFFFFFFF AND DUP2 MSTORE PUSH1 0x20 ADD SWAP2 POP POP PUSH1 0x40 MLOAD DUP1 SWAP2 SUB SWAP1 RETURN JUMPDEST PUSH2 0x759 PUSH1 0x4 DUP1 CALLDATASIZE SUB PUSH1 0x40 DUP2 LT ISZERO PUSH2 0x696 JUMPI PUSH1 0x0 DUP1 REVERT JUMPDEST DUP2 ADD SWAP1 DUP1 DUP1 CALLDATALOAD PUSH20 0xFFFFFFFFFFFFFFFFFFFFFFFFFFFFFFFFFFFFFFFF AND SWAP1 PUSH1 0x20 ADD SWAP1 SWAP3 SWAP2 SWAP1 DUP1 CALLDATALOAD SWAP1 PUSH1 0x20 ADD SWAP1 PUSH5 0x100000000 DUP2 GT ISZERO PUSH2 0x6D3 JUMPI PUSH1 0x0 DUP1 REVERT JUMPDEST DUP3 ADD DUP4 PUSH1 0x20 DUP3 ADD GT ISZERO PUSH2 0x6E5 JUMPI PUSH1 0x0 DUP1 REVERT JUMPDEST DUP1 CALLDATALOAD SWAP1 PUSH1 0x20 ADD SWAP2 DUP5 PUSH1 0x1 DUP4 MUL DUP5 ADD GT PUSH5 0x100000000 DUP4 GT OR ISZERO PUSH2 0x707 JUMPI PUSH1 0x0 DUP1 REVERT JUMPDEST SWAP2 SWAP1 DUP1 DUP1 PUSH1 0x1F ADD PUSH1 0x20 DUP1 SWAP2 DIV MUL PUSH1 0x20 ADD PUSH1 0x40 MLOAD SWAP1 DUP2 ADD PUSH1 0x40 MSTORE DUP1 SWAP4 SWAP3 SWAP2 SWAP1 DUP2 DUP2 MSTORE PUSH1 0x20 ADD DUP4 DUP4 DUP1 DUP3 DUP5 CALLDATACOPY PUSH1 0x0 DUP2 DUP5 ADD MSTORE PUSH1 0x1F NOT PUSH1 0x1F DUP3 ADD AND SWAP1 POP DUP1 DUP4 ADD SWAP3 POP POP POP POP POP POP POP SWAP2 SWAP3 SWAP2 SWAP3 SWAP1 POP POP POP PUSH2 0x2360 JUMP JUMPDEST PUSH1 0x40 MLOAD DUP1 DUP3 DUP2 MSTORE PUSH1 0x20 ADD SWAP2 POP POP PUSH1 0x40 MLOAD DUP1 SWAP2 SUB SWAP1 RETURN JUMPDEST PUSH2 0x7B1 PUSH1 0x4 DUP1 CALLDATASIZE SUB PUSH1 0x20 DUP2 LT ISZERO PUSH2 0x785 JUMPI PUSH1 0x0 DUP1 REVERT JUMPDEST DUP2 ADD SWAP1 DUP1 DUP1 CALLDATALOAD PUSH20 0xFFFFFFFFFFFFFFFFFFFFFFFFFFFFFFFFFFFFFFFF AND SWAP1 PUSH1 0x20 ADD SWAP1 SWAP3 SWAP2 SWAP1 POP POP POP PUSH2 0x2663 JUMP JUMPDEST PUSH1 0x40 MLOAD DUP1 DUP3 ISZERO ISZERO ISZERO ISZERO DUP2 MSTORE PUSH1 0x20 ADD SWAP2 POP POP PUSH1 0x40 MLOAD DUP1 SWAP2 SUB SWAP1 RETURN JUMPDEST PUSH2 0x80D PUSH1 0x4 DUP1 CALLDATASIZE SUB PUSH1 0x20 DUP2 LT ISZERO PUSH2 0x7E1 JUMPI PUSH1 0x0 DUP1 REVERT JUMPDEST DUP2 ADD SWAP1 DUP1 DUP1 CALLDATALOAD PUSH20 0xFFFFFFFFFFFFFFFFFFFFFFFFFFFFFFFFFFFFFFFF AND SWAP1 PUSH1 0x20 ADD SWAP1 SWAP3 SWAP2 SWAP1 POP POP POP PUSH2 0x28BB JUMP JUMPDEST PUSH1 0x40 MLOAD DUP1 DUP3 ISZERO ISZERO ISZERO ISZERO DUP2 MSTORE PUSH1 0x20 ADD SWAP2 POP POP PUSH1 0x40 MLOAD DUP1 SWAP2 SUB SWAP1 RETURN JUMPDEST PUSH1 0x0 PUSH2 0x832 CALLER PUSH2 0x141D JUMP JUMPDEST ISZERO ISZERO PUSH2 0x889 JUMPI PUSH1 0x40 MLOAD PUSH32 0x8C379A000000000000000000000000000000000000000000000000000000000 DUP2 MSTORE PUSH1 0x4 ADD DUP1 DUP1 PUSH1 0x20 ADD DUP3 DUP2 SUB DUP3 MSTORE PUSH1 0x26 DUP2 MSTORE PUSH1 0x20 ADD DUP1 PUSH2 0x2B68 PUSH1 0x26 SWAP2 CODECOPY PUSH1 0x40 ADD SWAP2 POP POP PUSH1 0x40 MLOAD DUP1 SWAP2 SUB SWAP1 REVERT JUMPDEST PUSH1 0x0 DUP1 DUP4 PUSH20 0xFFFFFFFFFFFFFFFFFFFFFFFFFFFFFFFFFFFFFFFF AND PUSH4 0xB98C19C4 PUSH1 0x40 MLOAD DUP2 PUSH4 0xFFFFFFFF AND PUSH29 0x100000000000000000000000000000000000000000000000000000000 MUL DUP2 MSTORE PUSH1 0x4 ADD PUSH1 0x40 DUP1 MLOAD DUP1 DUP4 SUB DUP2 DUP7 DUP1 EXTCODESIZE ISZERO DUP1 ISZERO PUSH2 0x8ED JUMPI PUSH1 0x0 DUP1 REVERT JUMPDEST POP GAS STATICCALL ISZERO DUP1 ISZERO PUSH2 0x901 JUMPI RETURNDATASIZE PUSH1 0x0 DUP1 RETURNDATACOPY RETURNDATASIZE PUSH1 0x0 REVERT JUMPDEST POP POP POP POP PUSH1 0x40 MLOAD RETURNDATASIZE PUSH1 0x40 DUP2 LT ISZERO PUSH2 0x917 JUMPI PUSH1 0x0 DUP1 REVERT JUMPDEST DUP2 ADD SWAP1 DUP1 DUP1 MLOAD SWAP1 PUSH1 0x20 ADD SWAP1 SWAP3 SWAP2 SWAP1 DUP1 MLOAD SWAP1 PUSH1 0x20 ADD SWAP1 SWAP3 SWAP2 SWAP1 POP POP POP SWAP2 POP SWAP2 POP CALLER PUSH20 0xFFFFFFFFFFFFFFFFFFFFFFFFFFFFFFFFFFFFFFFF AND DUP2 PUSH20 0xFFFFFFFFFFFFFFFFFFFFFFFFFFFFFFFFFFFFFFFF AND EQ ISZERO ISZERO PUSH2 0x9BC JUMPI PUSH1 0x40 MLOAD PUSH32 0x8C379A000000000000000000000000000000000000000000000000000000000 DUP2 MSTORE PUSH1 0x4 ADD DUP1 DUP1 PUSH1 0x20 ADD DUP3 DUP2 SUB DUP3 MSTORE PUSH1 0x33 DUP2 MSTORE PUSH1 0x20 ADD DUP1 PUSH2 0x2B35 PUSH1 0x33 SWAP2 CODECOPY PUSH1 0x40 ADD SWAP2 POP POP PUSH1 0x40 MLOAD DUP1 SWAP2 SUB SWAP1 REVERT JUMPDEST PUSH2 0x9C7 DUP3 DUP3 DUP7 PUSH2 0x29BA JUMP JUMPDEST ISZERO ISZERO PUSH2 0x9CF JUMPI INVALID JUMPDEST PUSH1 0x1 PUSH1 0x0 SWAP1 SLOAD SWAP1 PUSH2 0x100 EXP SWAP1 DIV PUSH20 0xFFFFFFFFFFFFFFFFFFFFFFFFFFFFFFFFFFFFFFFF AND PUSH20 0xFFFFFFFFFFFFFFFFFFFFFFFFFFFFFFFFFFFFFFFF AND PUSH4 0xD8775956 DUP4 DUP4 DUP8 PUSH1 0x40 MLOAD DUP5 PUSH4 0xFFFFFFFF AND PUSH29 0x100000000000000000000000000000000000000000000000000000000 MUL DUP2 MSTORE PUSH1 0x4 ADD DUP1 DUP5 PUSH20 0xFFFFFFFFFFFFFFFFFFFFFFFFFFFFFFFFFFFFFFFF AND PUSH20 0xFFFFFFFFFFFFFFFFFFFFFFFFFFFFFFFFFFFFFFFF AND DUP2 MSTORE PUSH1 0x20 ADD DUP4 PUSH20 0xFFFFFFFFFFFFFFFFFFFFFFFFFFFFFFFFFFFFFFFF AND PUSH20 0xFFFFFFFFFFFFFFFFFFFFFFFFFFFFFFFFFFFFFFFF AND DUP2 MSTORE PUSH1 0x20 ADD DUP3 PUSH20 0xFFFFFFFFFFFFFFFFFFFFFFFFFFFFFFFFFFFFFFFF AND PUSH20 0xFFFFFFFFFFFFFFFFFFFFFFFFFFFFFFFFFFFFFFFF AND DUP2 MSTORE PUSH1 0x20 ADD SWAP4 POP POP POP POP PUSH1 0x0 PUSH1 0x40 MLOAD DUP1 DUP4 SUB DUP2 PUSH1 0x0 DUP8 DUP1 EXTCODESIZE ISZERO DUP1 ISZERO PUSH2 0xAF4 JUMPI PUSH1 0x0 DUP1 REVERT JUMPDEST POP GAS CALL ISZERO DUP1 ISZERO PUSH2 0xB08 JUMPI RETURNDATASIZE PUSH1 0x0 DUP1 RETURNDATACOPY RETURNDATASIZE PUSH1 0x0 REVERT JUMPDEST POP POP POP POP DUP4 PUSH20 0xFFFFFFFFFFFFFFFFFFFFFFFFFFFFFFFFFFFFFFFF AND PUSH4 0xCBD056C8 PUSH1 0x40 MLOAD DUP2 PUSH4 0xFFFFFFFF AND PUSH29 0x100000000000000000000000000000000000000000000000000000000 MUL DUP2 MSTORE PUSH1 0x4 ADD PUSH1 0x0 PUSH1 0x40 MLOAD DUP1 DUP4 SUB DUP2 PUSH1 0x0 DUP8 DUP1 EXTCODESIZE ISZERO DUP1 ISZERO PUSH2 0xB70 JUMPI PUSH1 0x0 DUP1 REVERT JUMPDEST POP GAS CALL ISZERO DUP1 ISZERO PUSH2 0xB84 JUMPI RETURNDATASIZE PUSH1 0x0 DUP1 RETURNDATACOPY RETURNDATASIZE PUSH1 0x0 REVERT JUMPDEST POP POP POP POP PUSH1 0x1 SWAP3 POP POP POP SWAP2 SWAP1 POP JUMP JUMPDEST PUSH1 0x0 DUP1 PUSH1 0x0 SWAP1 SLOAD SWAP1 PUSH2 0x100 EXP SWAP1 DIV PUSH20 0xFFFFFFFFFFFFFFFFFFFFFFFFFFFFFFFFFFFFFFFF AND PUSH20 0xFFFFFFFFFFFFFFFFFFFFFFFFFFFFFFFFFFFFFFFF AND CALLER PUSH20 0xFFFFFFFFFFFFFFFFFFFFFFFFFFFFFFFFFFFFFFFF AND EQ ISZERO ISZERO PUSH2 0xC59 JUMPI PUSH1 0x40 MLOAD PUSH32 0x8C379A000000000000000000000000000000000000000000000000000000000 DUP2 MSTORE PUSH1 0x4 ADD DUP1 DUP1 PUSH1 0x20 ADD DUP3 DUP2 SUB DUP3 MSTORE PUSH1 0xA DUP2 MSTORE PUSH1 0x20 ADD DUP1 PUSH32 0x4F6E6C79206F776E657200000000000000000000000000000000000000000000 DUP2 MSTORE POP PUSH1 0x20 ADD SWAP2 POP POP PUSH1 0x40 MLOAD DUP1 SWAP2 SUB SWAP1 REVERT JUMPDEST PUSH1 0x3 PUSH1 0x0 SWAP1 SLOAD SWAP1 PUSH2 0x100 EXP SWAP1 DIV PUSH20 0xFFFFFFFFFFFFFFFFFFFFFFFFFFFFFFFFFFFFFFFF AND PUSH20 0xFFFFFFFFFFFFFFFFFFFFFFFFFFFFFFFFFFFFFFFF AND PUSH4 0x1302ED1F DUP5 DUP5 PUSH1 0x40 MLOAD DUP4 PUSH4 0xFFFFFFFF AND PUSH29 0x100000000000000000000000000000000000000000000000000000000 MUL DUP2 MSTORE PUSH1 0x4 ADD DUP1 DUP4 PUSH20 0xFFFFFFFFFFFFFFFFFFFFFFFFFFFFFFFFFFFFFFFF AND PUSH20 0xFFFFFFFFFFFFFFFFFFFFFFFFFFFFFFFFFFFFFFFF AND DUP2 MSTORE PUSH1 0x20 ADD DUP1 PUSH1 0x20 ADD DUP3 DUP2 SUB DUP3 MSTORE DUP4 DUP2 DUP2 MLOAD DUP2 MSTORE PUSH1 0x20 ADD SWAP2 POP DUP1 MLOAD SWAP1 PUSH1 0x20 ADD SWAP1 DUP1 DUP4 DUP4 PUSH1 0x0 JUMPDEST DUP4 DUP2 LT ISZERO PUSH2 0xD36 JUMPI DUP1 DUP3 ADD MLOAD DUP2 DUP5 ADD MSTORE PUSH1 0x20 DUP2 ADD SWAP1 POP PUSH2 0xD1B JUMP JUMPDEST POP POP POP POP SWAP1 POP SWAP1 DUP2 ADD SWAP1 PUSH1 0x1F AND DUP1 ISZERO PUSH2 0xD63 JUMPI DUP1 DUP3 SUB DUP1 MLOAD PUSH1 0x1 DUP4 PUSH1 0x20 SUB PUSH2 0x100 EXP SUB NOT AND DUP2 MSTORE PUSH1 0x20 ADD SWAP2 POP JUMPDEST POP SWAP4 POP POP POP POP PUSH1 0x20 PUSH1 0x40 MLOAD DUP1 DUP4 SUB DUP2 PUSH1 0x0 DUP8 DUP1 EXTCODESIZE ISZERO DUP1 ISZERO PUSH2 0xD83 JUMPI PUSH1 0x0 DUP1 REVERT JUMPDEST POP GAS CALL ISZERO DUP1 ISZERO PUSH2 0xD97 JUMPI RETURNDATASIZE PUSH1 0x0 DUP1 RETURNDATACOPY RETURNDATASIZE PUSH1 0x0 REVERT JUMPDEST POP POP POP POP PUSH1 0x40 MLOAD RETURNDATASIZE PUSH1 0x20 DUP2 LT ISZERO PUSH2 0xDAD JUMPI PUSH1 0x0 DUP1 REVERT JUMPDEST DUP2 ADD SWAP1 DUP1 DUP1 MLOAD SWAP1 PUSH1 0x20 ADD SWAP1 SWAP3 SWAP2 SWAP1 POP POP POP SWAP1 POP PUSH32 0x4D13FC32A15280074C61B282B69DFFA21EF4336B9B8BFBE0C6BC402CDD86C715 DUP4 DUP4 PUSH1 0x40 MLOAD DUP1 DUP4 PUSH20 0xFFFFFFFFFFFFFFFFFFFFFFFFFFFFFFFFFFFFFFFF AND PUSH20 0xFFFFFFFFFFFFFFFFFFFFFFFFFFFFFFFFFFFFFFFF AND DUP2 MSTORE PUSH1 0x20 ADD DUP1 PUSH1 0x20 ADD DUP3 DUP2 SUB DUP3 MSTORE DUP4 DUP2 DUP2 MLOAD DUP2 MSTORE PUSH1 0x20 ADD SWAP2 POP DUP1 MLOAD SWAP1 PUSH1 0x20 ADD SWAP1 DUP1 DUP4 DUP4 PUSH1 0x0 JUMPDEST DUP4 DUP2 LT ISZERO PUSH2 0xE55 JUMPI DUP1 DUP3 ADD MLOAD DUP2 DUP5 ADD MSTORE PUSH1 0x20 DUP2 ADD SWAP1 POP PUSH2 0xE3A JUMP JUMPDEST POP POP POP POP SWAP1 POP SWAP1 DUP2 ADD SWAP1 PUSH1 0x1F AND DUP1 ISZERO PUSH2 0xE82 JUMPI DUP1 DUP3 SUB DUP1 MLOAD PUSH1 0x1 DUP4 PUSH1 0x20 SUB PUSH2 0x100 EXP SUB NOT AND DUP2 MSTORE PUSH1 0x20 ADD SWAP2 POP JUMPDEST POP SWAP4 POP POP POP POP PUSH1 0x40 MLOAD DUP1 SWAP2 SUB SWAP1 LOG1 SWAP3 SWAP2 POP POP JUMP JUMPDEST PUSH1 0x0 PUSH1 0x4 PUSH1 0x0 SWAP1 SLOAD SWAP1 PUSH2 0x100 EXP SWAP1 DIV PUSH20 0xFFFFFFFFFFFFFFFFFFFFFFFFFFFFFFFFFFFFFFFF AND PUSH20 0xFFFFFFFFFFFFFFFFFFFFFFFFFFFFFFFFFFFFFFFF AND PUSH4 0x1D0E8A4D DUP4 PUSH1 0x40 MLOAD DUP3 PUSH4 0xFFFFFFFF AND PUSH29 0x100000000000000000000000000000000000000000000000000000000 MUL DUP2 MSTORE PUSH1 0x4 ADD DUP1 DUP3 PUSH20 0xFFFFFFFFFFFFFFFFFFFFFFFFFFFFFFFFFFFFFFFF AND PUSH20 0xFFFFFFFFFFFFFFFFFFFFFFFFFFFFFFFFFFFFFFFF AND DUP2 MSTORE PUSH1 0x20 ADD SWAP2 POP POP PUSH1 0x20 PUSH1 0x40 MLOAD DUP1 DUP4 SUB DUP2 DUP7 DUP1 EXTCODESIZE ISZERO DUP1 ISZERO PUSH2 0xF53 JUMPI PUSH1 0x0 DUP1 REVERT JUMPDEST POP GAS STATICCALL ISZERO DUP1 ISZERO PUSH2 0xF67 JUMPI RETURNDATASIZE PUSH1 0x0 DUP1 RETURNDATACOPY RETURNDATASIZE PUSH1 0x0 REVERT JUMPDEST POP POP POP POP PUSH1 0x40 MLOAD RETURNDATASIZE PUSH1 0x20 DUP2 LT ISZERO PUSH2 0xF7D JUMPI PUSH1 0x0 DUP1 REVERT JUMPDEST DUP2 ADD SWAP1 DUP1 DUP1 MLOAD SWAP1 PUSH1 0x20 ADD SWAP1 SWAP3 SWAP2 SWAP1 POP POP POP SWAP1 POP SWAP2 SWAP1 POP JUMP JUMPDEST PUSH1 0x0 CALLER PUSH20 0xFFFFFFFFFFFFFFFFFFFFFFFFFFFFFFFFFFFFFFFF AND DUP5 PUSH20 0xFFFFFFFFFFFFFFFFFFFFFFFFFFFFFFFFFFFFFFFF AND PUSH4 0x8DA5CB5B PUSH1 0x40 MLOAD DUP2 PUSH4 0xFFFFFFFF AND PUSH29 0x100000000000000000000000000000000000000000000000000000000 MUL DUP2 MSTORE PUSH1 0x4 ADD PUSH1 0x20 PUSH1 0x40 MLOAD DUP1 DUP4 SUB DUP2 DUP7 DUP1 EXTCODESIZE ISZERO DUP1 ISZERO PUSH2 0x1010 JUMPI PUSH1 0x0 DUP1 REVERT JUMPDEST POP GAS STATICCALL ISZERO DUP1 ISZERO PUSH2 0x1024 JUMPI RETURNDATASIZE PUSH1 0x0 DUP1 RETURNDATACOPY RETURNDATASIZE PUSH1 0x0 REVERT JUMPDEST POP POP POP POP PUSH1 0x40 MLOAD RETURNDATASIZE PUSH1 0x20 DUP2 LT ISZERO PUSH2 0x103A JUMPI PUSH1 0x0 DUP1 REVERT JUMPDEST DUP2 ADD SWAP1 DUP1 DUP1 MLOAD SWAP1 PUSH1 0x20 ADD SWAP1 SWAP3 SWAP2 SWAP1 POP POP POP PUSH20 0xFFFFFFFFFFFFFFFFFFFFFFFFFFFFFFFFFFFFFFFF AND EQ ISZERO ISZERO PUSH2 0x10B9 JUMPI PUSH1 0x40 MLOAD PUSH32 0x8C379A000000000000000000000000000000000000000000000000000000000 DUP2 MSTORE PUSH1 0x4 ADD DUP1 DUP1 PUSH1 0x20 ADD DUP3 DUP2 SUB DUP3 MSTORE PUSH1 0x2F DUP2 MSTORE PUSH1 0x20 ADD DUP1 PUSH2 0x2BDA PUSH1 0x2F SWAP2 CODECOPY PUSH1 0x40 ADD SWAP2 POP POP PUSH1 0x40 MLOAD DUP1 SWAP2 SUB SWAP1 REVERT JUMPDEST PUSH2 0x10C2 DUP4 PUSH2 0x141D JUMP JUMPDEST ISZERO ISZERO PUSH2 0x1136 JUMPI PUSH1 0x40 MLOAD PUSH32 0x8C379A000000000000000000000000000000000000000000000000000000000 DUP2 MSTORE PUSH1 0x4 ADD DUP1 DUP1 PUSH1 0x20 ADD DUP3 DUP2 SUB DUP3 MSTORE PUSH1 0x1F DUP2 MSTORE PUSH1 0x20 ADD DUP1 PUSH32 0x6F6E6C79207472616E73706F72746572732063616E207472616E73706F727400 DUP2 MSTORE POP PUSH1 0x20 ADD SWAP2 POP POP PUSH1 0x40 MLOAD DUP1 SWAP2 SUB SWAP1 REVERT JUMPDEST PUSH2 0x113F DUP3 PUSH2 0xE96 JUMP JUMPDEST ISZERO ISZERO PUSH2 0x1196 JUMPI PUSH1 0x40 MLOAD PUSH32 0x8C379A000000000000000000000000000000000000000000000000000000000 DUP2 MSTORE PUSH1 0x4 ADD DUP1 DUP1 PUSH1 0x20 ADD DUP3 DUP2 SUB DUP3 MSTORE PUSH1 0x22 DUP2 MSTORE PUSH1 0x20 ADD DUP1 PUSH2 0x2C09 PUSH1 0x22 SWAP2 CODECOPY PUSH1 0x40 ADD SWAP2 POP POP PUSH1 0x40 MLOAD DUP1 SWAP2 SUB SWAP1 REVERT JUMPDEST PUSH1 0x1 PUSH1 0x0 SWAP1 SLOAD SWAP1 PUSH2 0x100 EXP SWAP1 DIV PUSH20 0xFFFFFFFFFFFFFFFFFFFFFFFFFFFFFFFFFFFFFFFF AND PUSH20 0xFFFFFFFFFFFFFFFFFFFFFFFFFFFFFFFFFFFFFFFF AND PUSH4 0x90097B3C CALLER DUP7 DUP7 DUP7 PUSH1 0x40 MLOAD DUP6 PUSH4 0xFFFFFFFF AND PUSH29 0x100000000000000000000000000000000000000000000000000000000 MUL DUP2 MSTORE PUSH1 0x4 ADD DUP1 DUP6 PUSH20 0xFFFFFFFFFFFFFFFFFFFFFFFFFFFFFFFFFFFFFFFF AND PUSH20 0xFFFFFFFFFFFFFFFFFFFFFFFFFFFFFFFFFFFFFFFF AND DUP2 MSTORE PUSH1 0x20 ADD DUP5 PUSH20 0xFFFFFFFFFFFFFFFFFFFFFFFFFFFFFFFFFFFFFFFF AND PUSH20 0xFFFFFFFFFFFFFFFFFFFFFFFFFFFFFFFFFFFFFFFF AND DUP2 MSTORE PUSH1 0x20 ADD DUP4 PUSH20 0xFFFFFFFFFFFFFFFFFFFFFFFFFFFFFFFFFFFFFFFF AND PUSH20 0xFFFFFFFFFFFFFFFFFFFFFFFFFFFFFFFFFFFFFFFF AND DUP2 MSTORE PUSH1 0x20 ADD DUP3 PUSH20 0xFFFFFFFFFFFFFFFFFFFFFFFFFFFFFFFFFFFFFFFF AND PUSH20 0xFFFFFFFFFFFFFFFFFFFFFFFFFFFFFFFFFFFFFFFF AND DUP2 MSTORE PUSH1 0x20 ADD SWAP5 POP POP POP POP POP PUSH1 0x20 PUSH1 0x40 MLOAD DUP1 DUP4 SUB DUP2 PUSH1 0x0 DUP8 DUP1 EXTCODESIZE ISZERO DUP1 ISZERO PUSH2 0x12EF JUMPI PUSH1 0x0 DUP1 REVERT JUMPDEST POP GAS CALL ISZERO DUP1 ISZERO PUSH2 0x1303 JUMPI RETURNDATASIZE PUSH1 0x0 DUP1 RETURNDATACOPY RETURNDATASIZE PUSH1 0x0 REVERT JUMPDEST POP POP POP POP PUSH1 0x40 MLOAD RETURNDATASIZE PUSH1 0x20 DUP2 LT ISZERO PUSH2 0x1319 JUMPI PUSH1 0x0 DUP1 REVERT JUMPDEST DUP2 ADD SWAP1 DUP1 DUP1 MLOAD SWAP1 PUSH1 0x20 ADD SWAP1 SWAP3 SWAP2 SWAP1 POP POP POP POP DUP4 PUSH20 0xFFFFFFFFFFFFFFFFFFFFFFFFFFFFFFFFFFFFFFFF AND PUSH4 0x79CA5CA4 CALLER DUP6 PUSH1 0x40 MLOAD DUP4 PUSH4 0xFFFFFFFF AND PUSH29 0x100000000000000000000000000000000000000000000000000000000 MUL DUP2 MSTORE PUSH1 0x4 ADD DUP1 DUP4 PUSH20 0xFFFFFFFFFFFFFFFFFFFFFFFFFFFFFFFFFFFFFFFF AND PUSH20 0xFFFFFFFFFFFFFFFFFFFFFFFFFFFFFFFFFFFFFFFF AND DUP2 MSTORE PUSH1 0x20 ADD DUP3 PUSH20 0xFFFFFFFFFFFFFFFFFFFFFFFFFFFFFFFFFFFFFFFF AND PUSH20 0xFFFFFFFFFFFFFFFFFFFFFFFFFFFFFFFFFFFFFFFF AND DUP2 MSTORE PUSH1 0x20 ADD SWAP3 POP POP POP PUSH1 0x0 PUSH1 0x40 MLOAD DUP1 DUP4 SUB DUP2 PUSH1 0x0 DUP8 DUP1 EXTCODESIZE ISZERO DUP1 ISZERO PUSH2 0x13FA JUMPI PUSH1 0x0 DUP1 REVERT JUMPDEST POP GAS CALL ISZERO DUP1 ISZERO PUSH2 0x140E JUMPI RETURNDATASIZE PUSH1 0x0 DUP1 RETURNDATACOPY RETURNDATASIZE PUSH1 0x0 REVERT JUMPDEST POP POP POP POP PUSH1 0x1 SWAP1 POP SWAP4 SWAP3 POP POP POP JUMP JUMPDEST PUSH1 0x0 PUSH1 0x3 PUSH1 0x0 SWAP1 SLOAD SWAP1 PUSH2 0x100 EXP SWAP1 DIV PUSH20 0xFFFFFFFFFFFFFFFFFFFFFFFFFFFFFFFFFFFFFFFF AND PUSH20 0xFFFFFFFFFFFFFFFFFFFFFFFFFFFFFFFFFFFFFFFF AND PUSH4 0x2B8109D5 DUP4 PUSH1 0x40 MLOAD DUP3 PUSH4 0xFFFFFFFF AND PUSH29 0x100000000000000000000000000000000000000000000000000000000 MUL DUP2 MSTORE PUSH1 0x4 ADD DUP1 DUP3 PUSH20 0xFFFFFFFFFFFFFFFFFFFFFFFFFFFFFFFFFFFFFFFF AND PUSH20 0xFFFFFFFFFFFFFFFFFFFFFFFFFFFFFFFFFFFFFFFF AND DUP2 MSTORE PUSH1 0x20 ADD SWAP2 POP POP PUSH1 0x20 PUSH1 0x40 MLOAD DUP1 DUP4 SUB DUP2 DUP7 DUP1 EXTCODESIZE ISZERO DUP1 ISZERO PUSH2 0x14DA JUMPI PUSH1 0x0 DUP1 REVERT JUMPDEST POP GAS STATICCALL ISZERO DUP1 ISZERO PUSH2 0x14EE JUMPI RETURNDATASIZE PUSH1 0x0 DUP1 RETURNDATACOPY RETURNDATASIZE PUSH1 0x0 REVERT JUMPDEST POP POP POP POP PUSH1 0x40 MLOAD RETURNDATASIZE PUSH1 0x20 DUP2 LT ISZERO PUSH2 0x1504 JUMPI PUSH1 0x0 DUP1 REVERT JUMPDEST DUP2 ADD SWAP1 DUP1 DUP1 MLOAD SWAP1 PUSH1 0x20 ADD SWAP1 SWAP3 SWAP2 SWAP1 POP POP POP SWAP1 POP SWAP2 SWAP1 POP JUMP JUMPDEST PUSH1 0x0 PUSH2 0x1527 CALLER PUSH2 0xE96 JUMP JUMPDEST ISZERO ISZERO PUSH2 0x159B JUMPI PUSH1 0x40 MLOAD PUSH32 0x8C379A000000000000000000000000000000000000000000000000000000000 DUP2 MSTORE PUSH1 0x4 ADD DUP1 DUP1 PUSH1 0x20 ADD DUP3 DUP2 SUB DUP3 MSTORE PUSH1 0x1B DUP2 MSTORE PUSH1 0x20 ADD DUP1 PUSH32 0x4F6E6C792073686F702063616E20726563656976652041737365740000000000 DUP2 MSTORE POP PUSH1 0x20 ADD SWAP2 POP POP PUSH1 0x40 MLOAD DUP1 SWAP2 SUB SWAP1 REVERT JUMPDEST DUP2 PUSH20 0xFFFFFFFFFFFFFFFFFFFFFFFFFFFFFFFFFFFFFFFF AND PUSH4 0xA4D62F9A PUSH1 0x40 MLOAD DUP2 PUSH4 0xFFFFFFFF AND PUSH29 0x100000000000000000000000000000000000000000000000000000000 MUL DUP2 MSTORE PUSH1 0x4 ADD PUSH1 0x0 PUSH1 0x40 MLOAD DUP1 DUP4 SUB DUP2 PUSH1 0x0 DUP8 DUP1 EXTCODESIZE ISZERO DUP1 ISZERO PUSH2 0x15FF JUMPI PUSH1 0x0 DUP1 REVERT JUMPDEST POP GAS CALL ISZERO DUP1 ISZERO PUSH2 0x1613 JUMPI RETURNDATASIZE PUSH1 0x0 DUP1 RETURNDATACOPY RETURNDATASIZE PUSH1 0x0 REVERT JUMPDEST POP POP POP POP PUSH1 0x0 DUP1 DUP4 PUSH20 0xFFFFFFFFFFFFFFFFFFFFFFFFFFFFFFFFFFFFFFFF AND PUSH4 0xB98C19C4 PUSH1 0x40 MLOAD DUP2 PUSH4 0xFFFFFFFF AND PUSH29 0x100000000000000000000000000000000000000000000000000000000 MUL DUP2 MSTORE PUSH1 0x4 ADD PUSH1 0x40 DUP1 MLOAD DUP1 DUP4 SUB DUP2 DUP7 DUP1 EXTCODESIZE ISZERO DUP1 ISZERO PUSH2 0x167B JUMPI PUSH1 0x0 DUP1 REVERT JUMPDEST POP GAS STATICCALL ISZERO DUP1 ISZERO PUSH2 0x168F JUMPI RETURNDATASIZE PUSH1 0x0 DUP1 RETURNDATACOPY RETURNDATASIZE PUSH1 0x0 REVERT JUMPDEST POP POP POP POP PUSH1 0x40 MLOAD RETURNDATASIZE PUSH1 0x40 DUP2 LT ISZERO PUSH2 0x16A5 JUMPI PUSH1 0x0 DUP1 REVERT JUMPDEST DUP2 ADD SWAP1 DUP1 DUP1 MLOAD SWAP1 PUSH1 0x20 ADD SWAP1 SWAP3 SWAP2 SWAP1 DUP1 MLOAD SWAP1 PUSH1 0x20 ADD SWAP1 SWAP3 SWAP2 SWAP1 POP POP POP SWAP2 POP SWAP2 POP PUSH1 0x1 PUSH1 0x0 SWAP1 SLOAD SWAP1 PUSH2 0x100 EXP SWAP1 DIV PUSH20 0xFFFFFFFFFFFFFFFFFFFFFFFFFFFFFFFFFFFFFFFF AND PUSH20 0xFFFFFFFFFFFFFFFFFFFFFFFFFFFFFFFFFFFFFFFF AND PUSH4 0x6A20D949 DUP4 DUP4 DUP8 PUSH1 0x40 MLOAD DUP5 PUSH4 0xFFFFFFFF AND PUSH29 0x100000000000000000000000000000000000000000000000000000000 MUL DUP2 MSTORE PUSH1 0x4 ADD DUP1 DUP5 PUSH20 0xFFFFFFFFFFFFFFFFFFFFFFFFFFFFFFFFFFFFFFFF AND PUSH20 0xFFFFFFFFFFFFFFFFFFFFFFFFFFFFFFFFFFFFFFFF AND DUP2 MSTORE PUSH1 0x20 ADD DUP4 PUSH20 0xFFFFFFFFFFFFFFFFFFFFFFFFFFFFFFFFFFFFFFFF AND PUSH20 0xFFFFFFFFFFFFFFFFFFFFFFFFFFFFFFFFFFFFFFFF AND DUP2 MSTORE PUSH1 0x20 ADD DUP3 PUSH20 0xFFFFFFFFFFFFFFFFFFFFFFFFFFFFFFFFFFFFFFFF AND PUSH20 0xFFFFFFFFFFFFFFFFFFFFFFFFFFFFFFFFFFFFFFFF AND DUP2 MSTORE PUSH1 0x20 ADD SWAP4 POP POP POP POP PUSH1 0x0 PUSH1 0x40 MLOAD DUP1 DUP4 SUB DUP2 PUSH1 0x0 DUP8 DUP1 EXTCODESIZE ISZERO DUP1 ISZERO PUSH2 0x17E9 JUMPI PUSH1 0x0 DUP1 REVERT JUMPDEST POP GAS CALL ISZERO DUP1 ISZERO PUSH2 0x17FD JUMPI RETURNDATASIZE PUSH1 0x0 DUP1 RETURNDATACOPY RETURNDATASIZE PUSH1 0x0 REVERT JUMPDEST POP POP POP POP PUSH1 0x4 PUSH1 0x0 SWAP1 SLOAD SWAP1 PUSH2 0x100 EXP SWAP1 DIV PUSH20 0xFFFFFFFFFFFFFFFFFFFFFFFFFFFFFFFFFFFFFFFF AND PUSH20 0xFFFFFFFFFFFFFFFFFFFFFFFFFFFFFFFFFFFFFFFF AND PUSH4 0x91104740 CALLER DUP7 PUSH1 0x40 MLOAD DUP4 PUSH4 0xFFFFFFFF AND PUSH29 0x100000000000000000000000000000000000000000000000000000000 MUL DUP2 MSTORE PUSH1 0x4 ADD DUP1 DUP4 PUSH20 0xFFFFFFFFFFFFFFFFFFFFFFFFFFFFFFFFFFFFFFFF AND PUSH20 0xFFFFFFFFFFFFFFFFFFFFFFFFFFFFFFFFFFFFFFFF AND DUP2 MSTORE PUSH1 0x20 ADD DUP3 PUSH20 0xFFFFFFFFFFFFFFFFFFFFFFFFFFFFFFFFFFFFFFFF AND PUSH20 0xFFFFFFFFFFFFFFFFFFFFFFFFFFFFFFFFFFFFFFFF AND DUP2 MSTORE PUSH1 0x20 ADD SWAP3 POP POP POP PUSH1 0x20 PUSH1 0x40 MLOAD DUP1 DUP4 SUB DUP2 PUSH1 0x0 DUP8 DUP1 EXTCODESIZE ISZERO DUP1 ISZERO PUSH2 0x18F2 JUMPI PUSH1 0x0 DUP1 REVERT JUMPDEST POP GAS CALL ISZERO DUP1 ISZERO PUSH2 0x1906 JUMPI RETURNDATASIZE PUSH1 0x0 DUP1 RETURNDATACOPY RETURNDATASIZE PUSH1 0x0 REVERT JUMPDEST POP POP POP POP PUSH1 0x40 MLOAD RETURNDATASIZE PUSH1 0x20 DUP2 LT ISZERO PUSH2 0x191C JUMPI PUSH1 0x0 DUP1 REVERT JUMPDEST DUP2 ADD SWAP1 DUP1 DUP1 MLOAD SWAP1 PUSH1 0x20 ADD SWAP1 SWAP3 SWAP2 SWAP1 POP POP POP POP PUSH1 0x1 SWAP3 POP POP POP SWAP2 SWAP1 POP JUMP JUMPDEST PUSH1 0x0 PUSH1 0x2 PUSH1 0x0 SWAP1 SLOAD SWAP1 PUSH2 0x100 EXP SWAP1 DIV PUSH20 0xFFFFFFFFFFFFFFFFFFFFFFFFFFFFFFFFFFFFFFFF AND PUSH20 0xFFFFFFFFFFFFFFFFFFFFFFFFFFFFFFFFFFFFFFFF AND PUSH4 0x791C0741 CALLER DUP5 PUSH1 0x40 MLOAD DUP4 PUSH4 0xFFFFFFFF AND PUSH29 0x100000000000000000000000000000000000000000000000000000000 MUL DUP2 MSTORE PUSH1 0x4 ADD DUP1 DUP4 PUSH20 0xFFFFFFFFFFFFFFFFFFFFFFFFFFFFFFFFFFFFFFFF AND PUSH20 0xFFFFFFFFFFFFFFFFFFFFFFFFFFFFFFFFFFFFFFFF AND DUP2 MSTORE PUSH1 0x20 ADD DUP1 PUSH1 0x20 ADD DUP3 DUP2 SUB DUP3 MSTORE DUP4 DUP2 DUP2 MLOAD DUP2 MSTORE PUSH1 0x20 ADD SWAP2 POP DUP1 MLOAD SWAP1 PUSH1 0x20 ADD SWAP1 DUP1 DUP4 DUP4 PUSH1 0x0 JUMPDEST DUP4 DUP2 LT ISZERO PUSH2 0x1A18 JUMPI DUP1 DUP3 ADD MLOAD DUP2 DUP5 ADD MSTORE PUSH1 0x20 DUP2 ADD SWAP1 POP PUSH2 0x19FD JUMP JUMPDEST POP POP POP POP SWAP1 POP SWAP1 DUP2 ADD SWAP1 PUSH1 0x1F AND DUP1 ISZERO PUSH2 0x1A45 JUMPI DUP1 DUP3 SUB DUP1 MLOAD PUSH1 0x1 DUP4 PUSH1 0x20 SUB PUSH2 0x100 EXP SUB NOT AND DUP2 MSTORE PUSH1 0x20 ADD SWAP2 POP JUMPDEST POP SWAP4 POP POP POP POP PUSH1 0x20 PUSH1 0x40 MLOAD DUP1 DUP4 SUB DUP2 PUSH1 0x0 DUP8 DUP1 EXTCODESIZE ISZERO DUP1 ISZERO PUSH2 0x1A65 JUMPI PUSH1 0x0 DUP1 REVERT JUMPDEST POP GAS CALL ISZERO DUP1 ISZERO PUSH2 0x1A79 JUMPI RETURNDATASIZE PUSH1 0x0 DUP1 RETURNDATACOPY RETURNDATASIZE PUSH1 0x0 REVERT JUMPDEST POP POP POP POP PUSH1 0x40 MLOAD RETURNDATASIZE PUSH1 0x20 DUP2 LT ISZERO PUSH2 0x1A8F JUMPI PUSH1 0x0 DUP1 REVERT JUMPDEST DUP2 ADD SWAP1 DUP1 DUP1 MLOAD SWAP1 PUSH1 0x20 ADD SWAP1 SWAP3 SWAP2 SWAP1 POP POP POP SWAP1 POP CALLER PUSH20 0xFFFFFFFFFFFFFFFFFFFFFFFFFFFFFFFFFFFFFFFF AND PUSH32 0xC025769440426A633BEDF01175C407AA85088E087B11A585AE5BC0E1A302004E DUP3 PUSH1 0x40 MLOAD DUP1 DUP3 PUSH20 0xFFFFFFFFFFFFFFFFFFFFFFFFFFFFFFFFFFFFFFFF AND PUSH20 0xFFFFFFFFFFFFFFFFFFFFFFFFFFFFFFFFFFFFFFFF AND DUP2 MSTORE PUSH1 0x20 ADD SWAP2 POP POP PUSH1 0x40 MLOAD DUP1 SWAP2 SUB SWAP1 LOG2 SWAP2 SWAP1 POP JUMP JUMPDEST PUSH1 0x0 DUP1 PUSH1 0x0 SWAP1 SLOAD SWAP1 PUSH2 0x100 EXP SWAP1 DIV PUSH20 0xFFFFFFFFFFFFFFFFFFFFFFFFFFFFFFFFFFFFFFFF AND PUSH20 0xFFFFFFFFFFFFFFFFFFFFFFFFFFFFFFFFFFFFFFFF AND CALLER PUSH20 0xFFFFFFFFFFFFFFFFFFFFFFFFFFFFFFFFFFFFFFFF AND EQ ISZERO ISZERO PUSH2 0x1BE7 JUMPI PUSH1 0x40 MLOAD PUSH32 0x8C379A000000000000000000000000000000000000000000000000000000000 DUP2 MSTORE PUSH1 0x4 ADD DUP1 DUP1 PUSH1 0x20 ADD DUP3 DUP2 SUB DUP3 MSTORE PUSH1 0xA DUP2 MSTORE PUSH1 0x20 ADD DUP1 PUSH32 0x4F6E6C79206F776E657200000000000000000000000000000000000000000000 DUP2 MSTORE POP PUSH1 0x20 ADD SWAP2 POP POP PUSH1 0x40 MLOAD DUP1 SWAP2 SUB SWAP1 REVERT JUMPDEST PUSH1 0x2 PUSH1 0x0 SWAP1 SLOAD SWAP1 PUSH2 0x100 EXP SWAP1 DIV PUSH20 0xFFFFFFFFFFFFFFFFFFFFFFFFFFFFFFFFFFFFFFFF AND PUSH20 0xFFFFFFFFFFFFFFFFFFFFFFFFFFFFFFFFFFFFFFFF AND PUSH4 0x8412D3D1 DUP5 DUP5 PUSH1 0x40 MLOAD DUP4 PUSH4 0xFFFFFFFF AND PUSH29 0x100000000000000000000000000000000000000000000000000000000 MUL DUP2 MSTORE PUSH1 0x4 ADD DUP1 DUP4 PUSH20 0xFFFFFFFFFFFFFFFFFFFFFFFFFFFFFFFFFFFFFFFF AND PUSH20 0xFFFFFFFFFFFFFFFFFFFFFFFFFFFFFFFFFFFFFFFF AND DUP2 MSTORE PUSH1 0x20 ADD DUP1 PUSH1 0x20 ADD DUP3 DUP2 SUB DUP3 MSTORE DUP4 DUP2 DUP2 MLOAD DUP2 MSTORE PUSH1 0x20 ADD SWAP2 POP DUP1 MLOAD SWAP1 PUSH1 0x20 ADD SWAP1 DUP1 DUP4 DUP4 PUSH1 0x0 JUMPDEST DUP4 DUP2 LT ISZERO PUSH2 0x1CC4 JUMPI DUP1 DUP3 ADD MLOAD DUP2 DUP5 ADD MSTORE PUSH1 0x20 DUP2 ADD SWAP1 POP PUSH2 0x1CA9 JUMP JUMPDEST POP POP POP POP SWAP1 POP SWAP1 DUP2 ADD SWAP1 PUSH1 0x1F AND DUP1 ISZERO PUSH2 0x1CF1 JUMPI DUP1 DUP3 SUB DUP1 MLOAD PUSH1 0x1 DUP4 PUSH1 0x20 SUB PUSH2 0x100 EXP SUB NOT AND DUP2 MSTORE PUSH1 0x20 ADD SWAP2 POP JUMPDEST POP SWAP4 POP POP POP POP PUSH1 0x20 PUSH1 0x40 MLOAD DUP1 DUP4 SUB DUP2 PUSH1 0x0 DUP8 DUP1 EXTCODESIZE ISZERO DUP1 ISZERO PUSH2 0x1D11 JUMPI PUSH1 0x0 DUP1 REVERT JUMPDEST POP GAS CALL ISZERO DUP1 ISZERO PUSH2 0x1D25 JUMPI RETURNDATASIZE PUSH1 0x0 DUP1 RETURNDATACOPY RETURNDATASIZE PUSH1 0x0 REVERT JUMPDEST POP POP POP POP PUSH1 0x40 MLOAD RETURNDATASIZE PUSH1 0x20 DUP2 LT ISZERO PUSH2 0x1D3B JUMPI PUSH1 0x0 DUP1 REVERT JUMPDEST DUP2 ADD SWAP1 DUP1 DUP1 MLOAD SWAP1 PUSH1 0x20 ADD SWAP1 SWAP3 SWAP2 SWAP1 POP POP POP SWAP1 POP PUSH32 0xB056BBE56CE656BE62CDE590F9C83EE5AE28BA40D9B2849CD6A02622AF6C2750 DUP4 DUP4 PUSH1 0x40 MLOAD DUP1 DUP4 PUSH20 0xFFFFFFFFFFFFFFFFFFFFFFFFFFFFFFFFFFFFFFFF AND PUSH20 0xFFFFFFFFFFFFFFFFFFFFFFFFFFFFFFFFFFFFFFFF AND DUP2 MSTORE PUSH1 0x20 ADD DUP1 PUSH1 0x20 ADD DUP3 DUP2 SUB DUP3 MSTORE DUP4 DUP2 DUP2 MLOAD DUP2 MSTORE PUSH1 0x20 ADD SWAP2 POP DUP1 MLOAD SWAP1 PUSH1 0x20 ADD SWAP1 DUP1 DUP4 DUP4 PUSH1 0x0 JUMPDEST DUP4 DUP2 LT ISZERO PUSH2 0x1DE3 JUMPI DUP1 DUP3 ADD MLOAD DUP2 DUP5 ADD MSTORE PUSH1 0x20 DUP2 ADD SWAP1 POP PUSH2 0x1DC8 JUMP JUMPDEST POP POP POP POP SWAP1 POP SWAP1 DUP2 ADD SWAP1 PUSH1 0x1F AND DUP1 ISZERO PUSH2 0x1E10 JUMPI DUP1 DUP3 SUB DUP1 MLOAD PUSH1 0x1 DUP4 PUSH1 0x20 SUB PUSH2 0x100 EXP SUB NOT AND DUP2 MSTORE PUSH1 0x20 ADD SWAP2 POP JUMPDEST POP SWAP4 POP POP POP POP PUSH1 0x40 MLOAD DUP1 SWAP2 SUB SWAP1 LOG1 SWAP3 SWAP2 POP POP JUMP JUMPDEST PUSH1 0x0 PUSH2 0x1E2F CALLER PUSH2 0x141D JUMP JUMPDEST ISZERO ISZERO PUSH2 0x1E86 JUMPI PUSH1 0x40 MLOAD PUSH32 0x8C379A000000000000000000000000000000000000000000000000000000000 DUP2 MSTORE PUSH1 0x4 ADD DUP1 DUP1 PUSH1 0x20 ADD DUP3 DUP2 SUB DUP3 MSTORE PUSH1 0x2C DUP2 MSTORE PUSH1 0x20 ADD DUP1 PUSH2 0x2C2B PUSH1 0x2C SWAP2 CODECOPY PUSH1 0x40 ADD SWAP2 POP POP PUSH1 0x40 MLOAD DUP1 SWAP2 SUB SWAP1 REVERT JUMPDEST PUSH1 0x0 DUP1 DUP4 PUSH20 0xFFFFFFFFFFFFFFFFFFFFFFFFFFFFFFFFFFFFFFFF AND PUSH4 0xB98C19C4 PUSH1 0x40 MLOAD DUP2 PUSH4 0xFFFFFFFF AND PUSH29 0x100000000000000000000000000000000000000000000000000000000 MUL DUP2 MSTORE PUSH1 0x4 ADD PUSH1 0x40 DUP1 MLOAD DUP1 DUP4 SUB DUP2 DUP7 DUP1 EXTCODESIZE ISZERO DUP1 ISZERO PUSH2 0x1EEA JUMPI PUSH1 0x0 DUP1 REVERT JUMPDEST POP GAS STATICCALL ISZERO DUP1 ISZERO PUSH2 0x1EFE JUMPI RETURNDATASIZE PUSH1 0x0 DUP1 RETURNDATACOPY RETURNDATASIZE PUSH1 0x0 REVERT JUMPDEST POP POP POP POP PUSH1 0x40 MLOAD RETURNDATASIZE PUSH1 0x40 DUP2 LT ISZERO PUSH2 0x1F14 JUMPI PUSH1 0x0 DUP1 REVERT JUMPDEST DUP2 ADD SWAP1 DUP1 DUP1 MLOAD SWAP1 PUSH1 0x20 ADD SWAP1 SWAP3 SWAP2 SWAP1 DUP1 MLOAD SWAP1 PUSH1 0x20 ADD SWAP1 SWAP3 SWAP2 SWAP1 POP POP POP SWAP2 POP SWAP2 POP DUP1 PUSH20 0xFFFFFFFFFFFFFFFFFFFFFFFFFFFFFFFFFFFFFFFF AND CALLER PUSH20 0xFFFFFFFFFFFFFFFFFFFFFFFFFFFFFFFFFFFFFFFF AND EQ ISZERO ISZERO PUSH2 0x1FB9 JUMPI PUSH1 0x40 MLOAD PUSH32 0x8C379A000000000000000000000000000000000000000000000000000000000 DUP2 MSTORE PUSH1 0x4 ADD DUP1 DUP1 PUSH1 0x20 ADD DUP3 DUP2 SUB DUP3 MSTORE PUSH1 0x26 DUP2 MSTORE PUSH1 0x20 ADD DUP1 PUSH2 0x2BB4 PUSH1 0x26 SWAP2 CODECOPY PUSH1 0x40 ADD SWAP2 POP POP PUSH1 0x40 MLOAD DUP1 SWAP2 SUB SWAP1 REVERT JUMPDEST PUSH1 0x0 PUSH1 0x1 PUSH1 0x0 SWAP1 SLOAD SWAP1 PUSH2 0x100 EXP SWAP1 DIV PUSH20 0xFFFFFFFFFFFFFFFFFFFFFFFFFFFFFFFFFFFFFFFF AND PUSH20 0xFFFFFFFFFFFFFFFFFFFFFFFFFFFFFFFFFFFFFFFF AND PUSH4 0x365D8226 DUP5 DUP5 DUP9 PUSH1 0x40 MLOAD DUP5 PUSH4 0xFFFFFFFF AND PUSH29 0x100000000000000000000000000000000000000000000000000000000 MUL DUP2 MSTORE PUSH1 0x4 ADD DUP1 DUP5 PUSH20 0xFFFFFFFFFFFFFFFFFFFFFFFFFFFFFFFFFFFFFFFF AND PUSH20 0xFFFFFFFFFFFFFFFFFFFFFFFFFFFFFFFFFFFFFFFF AND DUP2 MSTORE PUSH1 0x20 ADD DUP4 PUSH20 0xFFFFFFFFFFFFFFFFFFFFFFFFFFFFFFFFFFFFFFFF AND PUSH20 0xFFFFFFFFFFFFFFFFFFFFFFFFFFFFFFFFFFFFFFFF AND DUP2 MSTORE PUSH1 0x20 ADD DUP3 PUSH20 0xFFFFFFFFFFFFFFFFFFFFFFFFFFFFFFFFFFFFFFFF AND PUSH20 0xFFFFFFFFFFFFFFFFFFFFFFFFFFFFFFFFFFFFFFFF AND DUP2 MSTORE PUSH1 0x20 ADD SWAP4 POP POP POP POP PUSH1 0x20 PUSH1 0x40 MLOAD DUP1 DUP4 SUB DUP2 DUP7 DUP1 EXTCODESIZE ISZERO DUP1 ISZERO PUSH2 0x20DE JUMPI PUSH1 0x0 DUP1 REVERT JUMPDEST POP GAS STATICCALL ISZERO DUP1 ISZERO PUSH2 0x20F2 JUMPI RETURNDATASIZE PUSH1 0x0 DUP1 RETURNDATACOPY RETURNDATASIZE PUSH1 0x0 REVERT JUMPDEST POP POP POP POP PUSH1 0x40 MLOAD RETURNDATASIZE PUSH1 0x20 DUP2 LT ISZERO PUSH2 0x2108 JUMPI PUSH1 0x0 DUP1 REVERT JUMPDEST DUP2 ADD SWAP1 DUP1 DUP1 MLOAD SWAP1 PUSH1 0x20 ADD SWAP1 SWAP3 SWAP2 SWAP1 POP POP POP SWAP1 POP DUP5 PUSH20 0xFFFFFFFFFFFFFFFFFFFFFFFFFFFFFFFFFFFFFFFF AND PUSH4 0xB41573F DUP4 DUP4 PUSH1 0x40 MLOAD DUP4 PUSH4 0xFFFFFFFF AND PUSH29 0x100000000000000000000000000000000000000000000000000000000 MUL DUP2 MSTORE PUSH1 0x4 ADD DUP1 DUP4 PUSH20 0xFFFFFFFFFFFFFFFFFFFFFFFFFFFFFFFFFFFFFFFF AND PUSH20 0xFFFFFFFFFFFFFFFFFFFFFFFFFFFFFFFFFFFFFFFF AND DUP2 MSTORE PUSH1 0x20 ADD DUP3 PUSH20 0xFFFFFFFFFFFFFFFFFFFFFFFFFFFFFFFFFFFFFFFF AND PUSH20 0xFFFFFFFFFFFFFFFFFFFFFFFFFFFFFFFFFFFFFFFF AND DUP2 MSTORE PUSH1 0x20 ADD SWAP3 POP POP POP PUSH1 0x0 PUSH1 0x40 MLOAD DUP1 DUP4 SUB DUP2 PUSH1 0x0 DUP8 DUP1 EXTCODESIZE ISZERO DUP1 ISZERO PUSH2 0x21EA JUMPI PUSH1 0x0 DUP1 REVERT JUMPDEST POP GAS CALL ISZERO DUP1 ISZERO PUSH2 0x21FE JUMPI RETURNDATASIZE PUSH1 0x0 DUP1 RETURNDATACOPY RETURNDATASIZE PUSH1 0x0 REVERT JUMPDEST POP POP POP POP PUSH1 0x4 PUSH1 0x0 SWAP1 SLOAD SWAP1 PUSH2 0x100 EXP SWAP1 DIV PUSH20 0xFFFFFFFFFFFFFFFFFFFFFFFFFFFFFFFFFFFFFFFF AND PUSH20 0xFFFFFFFFFFFFFFFFFFFFFFFFFFFFFFFFFFFFFFFF AND PUSH4 0x62E6115A DUP3 DUP8 PUSH1 0x40 MLOAD DUP4 PUSH4 0xFFFFFFFF AND PUSH29 0x100000000000000000000000000000000000000000000000000000000 MUL DUP2 MSTORE PUSH1 0x4 ADD DUP1 DUP4 PUSH20 0xFFFFFFFFFFFFFFFFFFFFFFFFFFFFFFFFFFFFFFFF AND PUSH20 0xFFFFFFFFFFFFFFFFFFFFFFFFFFFFFFFFFFFFFFFF AND DUP2 MSTORE PUSH1 0x20 ADD DUP3 PUSH20 0xFFFFFFFFFFFFFFFFFFFFFFFFFFFFFFFFFFFFFFFF AND PUSH20 0xFFFFFFFFFFFFFFFFFFFFFFFFFFFFFFFFFFFFFFFF AND DUP2 MSTORE PUSH1 0x20 ADD SWAP3 POP POP POP PUSH1 0x20 PUSH1 0x40 MLOAD DUP1 DUP4 SUB DUP2 PUSH1 0x0 DUP8 DUP1 EXTCODESIZE ISZERO DUP1 ISZERO PUSH2 0x22F3 JUMPI PUSH1 0x0 DUP1 REVERT JUMPDEST POP GAS CALL ISZERO DUP1 ISZERO PUSH2 0x2307 JUMPI RETURNDATASIZE PUSH1 0x0 DUP1 RETURNDATACOPY RETURNDATASIZE PUSH1 0x0 REVERT JUMPDEST POP POP POP POP PUSH1 0x40 MLOAD RETURNDATASIZE PUSH1 0x20 DUP2 LT ISZERO PUSH2 0x231D JUMPI PUSH1 0x0 DUP1 REVERT JUMPDEST DUP2 ADD SWAP1 DUP1 DUP1 MLOAD SWAP1 PUSH1 0x20 ADD SWAP1 SWAP3 SWAP2 SWAP1 POP POP POP POP PUSH1 0x1 SWAP4 POP POP POP POP SWAP2 SWAP1 POP JUMP JUMPDEST PUSH1 0x0 DUP1 SWAP1 SLOAD SWAP1 PUSH2 0x100 EXP SWAP1 DIV PUSH20 0xFFFFFFFFFFFFFFFFFFFFFFFFFFFFFFFFFFFFFFFF AND DUP2 JUMP JUMPDEST PUSH1 0x0 DUP1 PUSH1 0x0 SWAP1 SLOAD SWAP1 PUSH2 0x100 EXP SWAP1 DIV PUSH20 0xFFFFFFFFFFFFFFFFFFFFFFFFFFFFFFFFFFFFFFFF AND PUSH20 0xFFFFFFFFFFFFFFFFFFFFFFFFFFFFFFFFFFFFFFFF AND CALLER PUSH20 0xFFFFFFFFFFFFFFFFFFFFFFFFFFFFFFFFFFFFFFFF AND EQ ISZERO ISZERO PUSH2 0x2426 JUMPI PUSH1 0x40 MLOAD PUSH32 0x8C379A000000000000000000000000000000000000000000000000000000000 DUP2 MSTORE PUSH1 0x4 ADD DUP1 DUP1 PUSH1 0x20 ADD DUP3 DUP2 SUB DUP3 MSTORE PUSH1 0xA DUP2 MSTORE PUSH1 0x20 ADD DUP1 PUSH32 0x4F6E6C79206F776E657200000000000000000000000000000000000000000000 DUP2 MSTORE POP PUSH1 0x20 ADD SWAP2 POP POP PUSH1 0x40 MLOAD DUP1 SWAP2 SUB SWAP1 REVERT JUMPDEST PUSH1 0x4 PUSH1 0x0 SWAP1 SLOAD SWAP1 PUSH2 0x100 EXP SWAP1 DIV PUSH20 0xFFFFFFFFFFFFFFFFFFFFFFFFFFFFFFFFFFFFFFFF AND PUSH20 0xFFFFFFFFFFFFFFFFFFFFFFFFFFFFFFFFFFFFFFFF AND PUSH4 0x9B7E02EB DUP5 DUP5 PUSH1 0x40 MLOAD DUP4 PUSH4 0xFFFFFFFF AND PUSH29 0x100000000000000000000000000000000000000000000000000000000 MUL DUP2 MSTORE PUSH1 0x4 ADD DUP1 DUP4 PUSH20 0xFFFFFFFFFFFFFFFFFFFFFFFFFFFFFFFFFFFFFFFF AND PUSH20 0xFFFFFFFFFFFFFFFFFFFFFFFFFFFFFFFFFFFFFFFF AND DUP2 MSTORE PUSH1 0x20 ADD DUP1 PUSH1 0x20 ADD DUP3 DUP2 SUB DUP3 MSTORE DUP4 DUP2 DUP2 MLOAD DUP2 MSTORE PUSH1 0x20 ADD SWAP2 POP DUP1 MLOAD SWAP1 PUSH1 0x20 ADD SWAP1 DUP1 DUP4 DUP4 PUSH1 0x0 JUMPDEST DUP4 DUP2 LT ISZERO PUSH2 0x2503 JUMPI DUP1 DUP3 ADD MLOAD DUP2 DUP5 ADD MSTORE PUSH1 0x20 DUP2 ADD SWAP1 POP PUSH2 0x24E8 JUMP JUMPDEST POP POP POP POP SWAP1 POP SWAP1 DUP2 ADD SWAP1 PUSH1 0x1F AND DUP1 ISZERO PUSH2 0x2530 JUMPI DUP1 DUP3 SUB DUP1 MLOAD PUSH1 0x1 DUP4 PUSH1 0x20 SUB PUSH2 0x100 EXP SUB NOT AND DUP2 MSTORE PUSH1 0x20 ADD SWAP2 POP JUMPDEST POP SWAP4 POP POP POP POP PUSH1 0x20 PUSH1 0x40 MLOAD DUP1 DUP4 SUB DUP2 PUSH1 0x0 DUP8 DUP1 EXTCODESIZE ISZERO DUP1 ISZERO PUSH2 0x2550 JUMPI PUSH1 0x0 DUP1 REVERT JUMPDEST POP GAS CALL ISZERO DUP1 ISZERO PUSH2 0x2564 JUMPI RETURNDATASIZE PUSH1 0x0 DUP1 RETURNDATACOPY RETURNDATASIZE PUSH1 0x0 REVERT JUMPDEST POP POP POP POP PUSH1 0x40 MLOAD RETURNDATASIZE PUSH1 0x20 DUP2 LT ISZERO PUSH2 0x257A JUMPI PUSH1 0x0 DUP1 REVERT JUMPDEST DUP2 ADD SWAP1 DUP1 DUP1 MLOAD SWAP1 PUSH1 0x20 ADD SWAP1 SWAP3 SWAP2 SWAP1 POP POP POP SWAP1 POP PUSH32 0x93EAB32F8C5DC356093A926C4D817DBB30FC86A502FABD6E9922F16E5866E574 DUP4 DUP4 PUSH1 0x40 MLOAD DUP1 DUP4 PUSH20 0xFFFFFFFFFFFFFFFFFFFFFFFFFFFFFFFFFFFFFFFF AND PUSH20 0xFFFFFFFFFFFFFFFFFFFFFFFFFFFFFFFFFFFFFFFF AND DUP2 MSTORE PUSH1 0x20 ADD DUP1 PUSH1 0x20 ADD DUP3 DUP2 SUB DUP3 MSTORE DUP4 DUP2 DUP2 MLOAD DUP2 MSTORE PUSH1 0x20 ADD SWAP2 POP DUP1 MLOAD SWAP1 PUSH1 0x20 ADD SWAP1 DUP1 DUP4 DUP4 PUSH1 0x0 JUMPDEST DUP4 DUP2 LT ISZERO PUSH2 0x2622 JUMPI DUP1 DUP3 ADD MLOAD DUP2 DUP5 ADD MSTORE PUSH1 0x20 DUP2 ADD SWAP1 POP PUSH2 0x2607 JUMP JUMPDEST POP POP POP POP SWAP1 POP SWAP1 DUP2 ADD SWAP1 PUSH1 0x1F AND DUP1 ISZERO PUSH2 0x264F JUMPI DUP1 DUP3 SUB DUP1 MLOAD PUSH1 0x1 DUP4 PUSH1 0x20 SUB PUSH2 0x100 EXP SUB NOT AND DUP2 MSTORE PUSH1 0x20 ADD SWAP2 POP JUMPDEST POP SWAP4 POP POP POP POP PUSH1 0x40 MLOAD DUP1 SWAP2 SUB SWAP1 LOG1 SWAP3 SWAP2 POP POP JUMP JUMPDEST PUSH1 0x0 PUSH2 0x266E DUP3 PUSH2 0x141D JUMP JUMPDEST ISZERO ISZERO PUSH2 0x26C5 JUMPI PUSH1 0x40 MLOAD PUSH32 0x8C379A000000000000000000000000000000000000000000000000000000000 DUP2 MSTORE PUSH1 0x4 ADD DUP1 DUP1 PUSH1 0x20 ADD DUP3 DUP2 SUB DUP3 MSTORE PUSH1 0x28 DUP2 MSTORE PUSH1 0x20 ADD DUP1 PUSH2 0x2C57 PUSH1 0x28 SWAP2 CODECOPY PUSH1 0x40 ADD SWAP2 POP POP PUSH1 0x40 MLOAD DUP1 SWAP2 SUB SWAP1 REVERT JUMPDEST PUSH2 0x26CE CALLER PUSH2 0x28BB JUMP JUMPDEST DUP1 PUSH2 0x26D7 JUMPI POP PUSH1 0x0 JUMPDEST ISZERO ISZERO PUSH2 0x272E JUMPI PUSH1 0x40 MLOAD PUSH32 0x8C379A000000000000000000000000000000000000000000000000000000000 DUP2 MSTORE PUSH1 0x4 ADD DUP1 DUP1 PUSH1 0x20 ADD DUP3 DUP2 SUB DUP3 MSTORE PUSH1 0x26 DUP2 MSTORE PUSH1 0x20 ADD DUP1 PUSH2 0x2B8E PUSH1 0x26 SWAP2 CODECOPY PUSH1 0x40 ADD SWAP2 POP POP PUSH1 0x40 MLOAD DUP1 SWAP2 SUB SWAP1 REVERT JUMPDEST PUSH1 0x1 PUSH1 0x0 SWAP1 SLOAD SWAP1 PUSH2 0x100 EXP SWAP1 DIV PUSH20 0xFFFFFFFFFFFFFFFFFFFFFFFFFFFFFFFFFFFFFFFF AND PUSH20 0xFFFFFFFFFFFFFFFFFFFFFFFFFFFFFFFFFFFFFFFF AND PUSH4 0x28D3170A DUP4 CALLER PUSH1 0x40 MLOAD DUP4 PUSH4 0xFFFFFFFF AND PUSH29 0x100000000000000000000000000000000000000000000000000000000 MUL DUP2 MSTORE PUSH1 0x4 ADD DUP1 DUP4 PUSH20 0xFFFFFFFFFFFFFFFFFFFFFFFFFFFFFFFFFFFFFFFF AND PUSH20 0xFFFFFFFFFFFFFFFFFFFFFFFFFFFFFFFFFFFFFFFF AND DUP2 MSTORE PUSH1 0x20 ADD DUP3 PUSH20 0xFFFFFFFFFFFFFFFFFFFFFFFFFFFFFFFFFFFFFFFF AND PUSH20 0xFFFFFFFFFFFFFFFFFFFFFFFFFFFFFFFFFFFFFFFF AND DUP2 MSTORE PUSH1 0x20 ADD SWAP3 POP POP POP PUSH1 0x20 PUSH1 0x40 MLOAD DUP1 DUP4 SUB DUP2 PUSH1 0x0 DUP8 DUP1 EXTCODESIZE ISZERO DUP1 ISZERO PUSH2 0x281F JUMPI PUSH1 0x0 DUP1 REVERT JUMPDEST POP GAS CALL ISZERO DUP1 ISZERO PUSH2 0x2833 JUMPI RETURNDATASIZE PUSH1 0x0 DUP1 RETURNDATACOPY RETURNDATASIZE PUSH1 0x0 REVERT JUMPDEST POP POP POP POP PUSH1 0x40 MLOAD RETURNDATASIZE PUSH1 0x20 DUP2 LT ISZERO PUSH2 0x2849 JUMPI PUSH1 0x0 DUP1 REVERT JUMPDEST DUP2 ADD SWAP1 DUP1 DUP1 MLOAD SWAP1 PUSH1 0x20 ADD SWAP1 SWAP3 SWAP2 SWAP1 POP POP POP SWAP1 POP DUP2 PUSH20 0xFFFFFFFFFFFFFFFFFFFFFFFFFFFFFFFFFFFFFFFF AND CALLER PUSH20 0xFFFFFFFFFFFFFFFFFFFFFFFFFFFFFFFFFFFFFFFF AND PUSH32 0x74011501283DE09F5FA60523776C4E4D25FD8304672ADAC75523C58ABB54DDC6 PUSH1 0x40 MLOAD PUSH1 0x40 MLOAD DUP1 SWAP2 SUB SWAP1 LOG3 SWAP2 SWAP1 POP JUMP JUMPDEST PUSH1 0x0 PUSH1 0x2 PUSH1 0x0 SWAP1 SLOAD SWAP1 PUSH2 0x100 EXP SWAP1 DIV PUSH20 0xFFFFFFFFFFFFFFFFFFFFFFFFFFFFFFFFFFFFFFFF AND PUSH20 0xFFFFFFFFFFFFFFFFFFFFFFFFFFFFFFFFFFFFFFFF AND PUSH4 0xF5521022 DUP4 PUSH1 0x40 MLOAD DUP3 PUSH4 0xFFFFFFFF AND PUSH29 0x100000000000000000000000000000000000000000000000000000000 MUL DUP2 MSTORE PUSH1 0x4 ADD DUP1 DUP3 PUSH20 0xFFFFFFFFFFFFFFFFFFFFFFFFFFFFFFFFFFFFFFFF AND PUSH20 0xFFFFFFFFFFFFFFFFFFFFFFFFFFFFFFFFFFFFFFFF AND DUP2 MSTORE PUSH1 0x20 ADD SWAP2 POP POP PUSH1 0x20 PUSH1 0x40 MLOAD DUP1 DUP4 SUB DUP2 DUP7 DUP1 EXTCODESIZE ISZERO DUP1 ISZERO PUSH2 0x2978 JUMPI PUSH1 0x0 DUP1 REVERT JUMPDEST POP GAS STATICCALL ISZERO DUP1 ISZERO PUSH2 0x298C JUMPI RETURNDATASIZE PUSH1 0x0 DUP1 RETURNDATACOPY RETURNDATASIZE PUSH1 0x0 REVERT JUMPDEST POP POP POP POP PUSH1 0x40 MLOAD RETURNDATASIZE PUSH1 0x20 DUP2 LT ISZERO PUSH2 0x29A2 JUMPI PUSH1 0x0 DUP1 REVERT JUMPDEST DUP2 ADD SWAP1 DUP1 DUP1 MLOAD SWAP1 PUSH1 0x20 ADD SWAP1 SWAP3 SWAP2 SWAP1 POP POP POP SWAP1 POP SWAP2 SWAP1 POP JUMP JUMPDEST PUSH1 0x0 PUSH2 0x29C5 DUP4 PUSH2 0x141D JUMP JUMPDEST ISZERO ISZERO PUSH2 0x29CD JUMPI INVALID JUMPDEST PUSH1 0x1 PUSH1 0x0 SWAP1 SLOAD SWAP1 PUSH2 0x100 EXP SWAP1 DIV PUSH20 0xFFFFFFFFFFFFFFFFFFFFFFFFFFFFFFFFFFFFFFFF AND PUSH20 0xFFFFFFFFFFFFFFFFFFFFFFFFFFFFFFFFFFFFFFFF AND PUSH4 0x9EB8452A DUP6 DUP6 DUP6 PUSH1 0x40 MLOAD DUP5 PUSH4 0xFFFFFFFF AND PUSH29 0x100000000000000000000000000000000000000000000000000000000 MUL DUP2 MSTORE PUSH1 0x4 ADD DUP1 DUP5 PUSH20 0xFFFFFFFFFFFFFFFFFFFFFFFFFFFFFFFFFFFFFFFF AND PUSH20 0xFFFFFFFFFFFFFFFFFFFFFFFFFFFFFFFFFFFFFFFF AND DUP2 MSTORE PUSH1 0x20 ADD DUP4 PUSH20 0xFFFFFFFFFFFFFFFFFFFFFFFFFFFFFFFFFFFFFFFF AND PUSH20 0xFFFFFFFFFFFFFFFFFFFFFFFFFFFFFFFFFFFFFFFF AND DUP2 MSTORE PUSH1 0x20 ADD DUP3 PUSH20 0xFFFFFFFFFFFFFFFFFFFFFFFFFFFFFFFFFFFFFFFF AND PUSH20 0xFFFFFFFFFFFFFFFFFFFFFFFFFFFFFFFFFFFFFFFF AND DUP2 MSTORE PUSH1 0x20 ADD SWAP4 POP POP POP POP PUSH1 0x20 PUSH1 0x40 MLOAD DUP1 DUP4 SUB DUP2 DUP7 DUP1 EXTCODESIZE ISZERO DUP1 ISZERO PUSH2 0x2AF0 JUMPI PUSH1 0x0 DUP1 REVERT JUMPDEST POP GAS STATICCALL ISZERO DUP1 ISZERO PUSH2 0x2B04 JUMPI RETURNDATASIZE PUSH1 0x0 DUP1 RETURNDATACOPY RETURNDATASIZE PUSH1 0x0 REVERT JUMPDEST POP POP POP POP PUSH1 0x40 MLOAD RETURNDATASIZE PUSH1 0x20 DUP2 LT ISZERO PUSH2 0x2B1A JUMPI PUSH1 0x0 DUP1 REVERT JUMPDEST DUP2 ADD SWAP1 DUP1 DUP1 MLOAD SWAP1 PUSH1 0x20 ADD SWAP1 SWAP3 SWAP2 SWAP1 POP POP POP SWAP1 POP SWAP4 SWAP3 POP POP POP JUMP INVALID COINBASE PUSH20 0x7365742069732070656E64696E67207472616E73 PUSH17 0x6F72742066726F6D20616E6F7468657220 PUSH21 0x72616E73706F727465724F6E6C79207472616E7370 PUSH16 0x72746572732063616E20737461727420 PUSH21 0x72616E73706F72747353656E646572206973206E6F PUSH21 0x20612076616C6964207472616E73706F7274657220 PUSH22 0x736572526571756573746572206973206E6F74207468 PUSH6 0x2076616C6964 KECCAK256 PUSH21 0x72616E73706F727465724F6E6C79206F776E657220 PUSH16 0x66207468652061737365742063616E20 PUSH19 0x6571756573742061207472616E73706F72746F PUSH15 0x6C792073686F70732063616E207265 PUSH4 0x65697665 KECCAK256 PUSH2 0x2074 PUSH19 0x616E73706F72744F6E6C792061207472616E73 PUSH17 0x6F727465722063616E2072657175657374 KECCAK256 PUSH21 0x72616E73706F727420656E64207472616E73706F72 PUSH21 0x657241646472657373206973206E6F742061207472 PUSH2 0x6E73 PUSH17 0x6F72746572A165627A7A72305820D34956 PUSH26 0x365630E454AE04003A66CC64330972037772A64FD0613045107D 0xf6 0xb4 STOP 0x29 PUSH1 0x80 PUSH1 0x40 MSTORE CALLVALUE DUP1 ISZERO PUSH2 0x10 JUMPI PUSH1 0x0 DUP1 REVERT JUMPDEST POP PUSH1 0x40 MLOAD PUSH1 0x20 DUP1 PUSH2 0x17A9 DUP4 CODECOPY DUP2 ADD DUP1 PUSH1 0x40 MSTORE PUSH1 0x20 DUP2 LT ISZERO PUSH2 0x30 JUMPI PUSH1 0x0 DUP1 REVERT JUMPDEST DUP2 ADD SWAP1 DUP1 DUP1 MLOAD SWAP1 PUSH1 0x20 ADD SWAP1 SWAP3 SWAP2 SWAP1 POP POP POP DUP1 PUSH1 0x0 DUP1 PUSH2 0x100 EXP DUP2 SLOAD DUP2 PUSH20 0xFFFFFFFFFFFFFFFFFFFFFFFFFFFFFFFFFFFFFFFF MUL NOT AND SWAP1 DUP4 PUSH20 0xFFFFFFFFFFFFFFFFFFFFFFFFFFFFFFFFFFFFFFFF AND MUL OR SWAP1 SSTORE POP POP PUSH2 0x1718 DUP1 PUSH2 0x91 PUSH1 0x0 CODECOPY PUSH1 0x0 RETURN INVALID PUSH1 0x80 PUSH1 0x40 MSTORE CALLVALUE DUP1 ISZERO PUSH2 0x10 JUMPI PUSH1 0x0 DUP1 REVERT JUMPDEST POP PUSH1 0x4 CALLDATASIZE LT PUSH2 0x9A JUMPI PUSH1 0x0 CALLDATALOAD PUSH29 0x100000000000000000000000000000000000000000000000000000000 SWAP1 DIV DUP1 PUSH4 0x90097B3C GT PUSH2 0x78 JUMPI DUP1 PUSH4 0x90097B3C EQ PUSH2 0x263 JUMPI DUP1 PUSH4 0x9EB8452A EQ PUSH2 0x31F JUMPI DUP1 PUSH4 0xD1A08567 EQ PUSH2 0x3BB JUMPI DUP1 PUSH4 0xD8775956 EQ PUSH2 0x437 JUMPI PUSH2 0x9A JUMP JUMPDEST DUP1 PUSH4 0x28D3170A EQ PUSH2 0x9F JUMPI DUP1 PUSH4 0x365D8226 EQ PUSH2 0x11B JUMPI DUP1 PUSH4 0x6A20D949 EQ PUSH2 0x1DF JUMPI JUMPDEST PUSH1 0x0 DUP1 REVERT JUMPDEST PUSH2 0x101 PUSH1 0x4 DUP1 CALLDATASIZE SUB PUSH1 0x40 DUP2 LT ISZERO PUSH2 0xB5 JUMPI PUSH1 0x0 DUP1 REVERT JUMPDEST DUP2 ADD SWAP1 DUP1 DUP1 CALLDATALOAD PUSH20 0xFFFFFFFFFFFFFFFFFFFFFFFFFFFFFFFFFFFFFFFF AND SWAP1 PUSH1 0x20 ADD SWAP1 SWAP3 SWAP2 SWAP1 DUP1 CALLDATALOAD PUSH20 0xFFFFFFFFFFFFFFFFFFFFFFFFFFFFFFFFFFFFFFFF AND SWAP1 PUSH1 0x20 ADD SWAP1 SWAP3 SWAP2 SWAP1 POP POP POP PUSH2 0x4BB JUMP JUMPDEST PUSH1 0x40 MLOAD DUP1 DUP3 ISZERO ISZERO ISZERO ISZERO DUP2 MSTORE PUSH1 0x20 ADD SWAP2 POP POP PUSH1 0x40 MLOAD DUP1 SWAP2 SUB SWAP1 RETURN JUMPDEST PUSH2 0x19D PUSH1 0x4 DUP1 CALLDATASIZE SUB PUSH1 0x60 DUP2 LT ISZERO PUSH2 0x131 JUMPI PUSH1 0x0 DUP1 REVERT JUMPDEST DUP2 ADD SWAP1 DUP1 DUP1 CALLDATALOAD PUSH20 0xFFFFFFFFFFFFFFFFFFFFFFFFFFFFFFFFFFFFFFFF AND SWAP1 PUSH1 0x20 ADD SWAP1 SWAP3 SWAP2 SWAP1 DUP1 CALLDATALOAD PUSH20 0xFFFFFFFFFFFFFFFFFFFFFFFFFFFFFFFFFFFFFFFF AND SWAP1 PUSH1 0x20 ADD SWAP1 SWAP3 SWAP2 SWAP1 DUP1 CALLDATALOAD PUSH20 0xFFFFFFFFFFFFFFFFFFFFFFFFFFFFFFFFFFFFFFFF AND SWAP1 PUSH1 0x20 ADD SWAP1 SWAP3 SWAP2 SWAP1 POP POP POP PUSH2 0x7A1 JUMP JUMPDEST PUSH1 0x40 MLOAD DUP1 DUP3 PUSH20 0xFFFFFFFFFFFFFFFFFFFFFFFFFFFFFFFFFFFFFFFF AND PUSH20 0xFFFFFFFFFFFFFFFFFFFFFFFFFFFFFFFFFFFFFFFF AND DUP2 MSTORE PUSH1 0x20 ADD SWAP2 POP POP PUSH1 0x40 MLOAD DUP1 SWAP2 SUB SWAP1 RETURN JUMPDEST PUSH2 0x261 PUSH1 0x4 DUP1 CALLDATASIZE SUB PUSH1 0x60 DUP2 LT ISZERO PUSH2 0x1F5 JUMPI PUSH1 0x0 DUP1 REVERT JUMPDEST DUP2 ADD SWAP1 DUP1 DUP1 CALLDATALOAD PUSH20 0xFFFFFFFFFFFFFFFFFFFFFFFFFFFFFFFFFFFFFFFF AND SWAP1 PUSH1 0x20 ADD SWAP1 SWAP3 SWAP2 SWAP1 DUP1 CALLDATALOAD PUSH20 0xFFFFFFFFFFFFFFFFFFFFFFFFFFFFFFFFFFFFFFFF AND SWAP1 PUSH1 0x20 ADD SWAP1 SWAP3 SWAP2 SWAP1 DUP1 CALLDATALOAD PUSH20 0xFFFFFFFFFFFFFFFFFFFFFFFFFFFFFFFFFFFFFFFF AND SWAP1 PUSH1 0x20 ADD SWAP1 SWAP3 SWAP2 SWAP1 POP POP POP PUSH2 0x88C JUMP JUMPDEST STOP JUMPDEST PUSH2 0x305 PUSH1 0x4 DUP1 CALLDATASIZE SUB PUSH1 0x80 DUP2 LT ISZERO PUSH2 0x279 JUMPI PUSH1 0x0 DUP1 REVERT JUMPDEST DUP2 ADD SWAP1 DUP1 DUP1 CALLDATALOAD PUSH20 0xFFFFFFFFFFFFFFFFFFFFFFFFFFFFFFFFFFFFFFFF AND SWAP1 PUSH1 0x20 ADD SWAP1 SWAP3 SWAP2 SWAP1 DUP1 CALLDATALOAD PUSH20 0xFFFFFFFFFFFFFFFFFFFFFFFFFFFFFFFFFFFFFFFF AND SWAP1 PUSH1 0x20 ADD SWAP1 SWAP3 SWAP2 SWAP1 DUP1 CALLDATALOAD PUSH20 0xFFFFFFFFFFFFFFFFFFFFFFFFFFFFFFFFFFFFFFFF AND SWAP1 PUSH1 0x20 ADD SWAP1 SWAP3 SWAP2 SWAP1 DUP1 CALLDATALOAD PUSH20 0xFFFFFFFFFFFFFFFFFFFFFFFFFFFFFFFFFFFFFFFF AND SWAP1 PUSH1 0x20 ADD SWAP1 SWAP3 SWAP2 SWAP1 POP POP POP PUSH2 0xC19 JUMP JUMPDEST PUSH1 0x40 MLOAD DUP1 DUP3 ISZERO ISZERO ISZERO ISZERO DUP2 MSTORE PUSH1 0x20 ADD SWAP2 POP POP PUSH1 0x40 MLOAD DUP1 SWAP2 SUB SWAP1 RETURN JUMPDEST PUSH2 0x3A1 PUSH1 0x4 DUP1 CALLDATASIZE SUB PUSH1 0x60 DUP2 LT ISZERO PUSH2 0x335 JUMPI PUSH1 0x0 DUP1 REVERT JUMPDEST DUP2 ADD SWAP1 DUP1 DUP1 CALLDATALOAD PUSH20 0xFFFFFFFFFFFFFFFFFFFFFFFFFFFFFFFFFFFFFFFF AND SWAP1 PUSH1 0x20 ADD SWAP1 SWAP3 SWAP2 SWAP1 DUP1 CALLDATALOAD PUSH20 0xFFFFFFFFFFFFFFFFFFFFFFFFFFFFFFFFFFFFFFFF AND SWAP1 PUSH1 0x20 ADD SWAP1 SWAP3 SWAP2 SWAP1 DUP1 CALLDATALOAD PUSH20 0xFFFFFFFFFFFFFFFFFFFFFFFFFFFFFFFFFFFFFFFF AND SWAP1 PUSH1 0x20 ADD SWAP1 SWAP3 SWAP2 SWAP1 POP POP POP PUSH2 0xFBE JUMP JUMPDEST PUSH1 0x40 MLOAD DUP1 DUP3 ISZERO ISZERO ISZERO ISZERO DUP2 MSTORE PUSH1 0x20 ADD SWAP2 POP POP PUSH1 0x40 MLOAD DUP1 SWAP2 SUB SWAP1 RETURN JUMPDEST PUSH2 0x41D PUSH1 0x4 DUP1 CALLDATASIZE SUB PUSH1 0x40 DUP2 LT ISZERO PUSH2 0x3D1 JUMPI PUSH1 0x0 DUP1 REVERT JUMPDEST DUP2 ADD SWAP1 DUP1 DUP1 CALLDATALOAD PUSH20 0xFFFFFFFFFFFFFFFFFFFFFFFFFFFFFFFFFFFFFFFF AND SWAP1 PUSH1 0x20 ADD SWAP1 SWAP3 SWAP2 SWAP1 DUP1 CALLDATALOAD PUSH20 0xFFFFFFFFFFFFFFFFFFFFFFFFFFFFFFFFFFFFFFFF AND SWAP1 PUSH1 0x20 ADD SWAP1 SWAP3 SWAP2 SWAP1 POP POP POP PUSH2 0x10F7 JUMP JUMPDEST PUSH1 0x40 MLOAD DUP1 DUP3 ISZERO ISZERO ISZERO ISZERO DUP2 MSTORE PUSH1 0x20 ADD SWAP2 POP POP PUSH1 0x40 MLOAD DUP1 SWAP2 SUB SWAP1 RETURN JUMPDEST PUSH2 0x4B9 PUSH1 0x4 DUP1 CALLDATASIZE SUB PUSH1 0x60 DUP2 LT ISZERO PUSH2 0x44D JUMPI PUSH1 0x0 DUP1 REVERT JUMPDEST DUP2 ADD SWAP1 DUP1 DUP1 CALLDATALOAD PUSH20 0xFFFFFFFFFFFFFFFFFFFFFFFFFFFFFFFFFFFFFFFF AND SWAP1 PUSH1 0x20 ADD SWAP1 SWAP3 SWAP2 SWAP1 DUP1 CALLDATALOAD PUSH20 0xFFFFFFFFFFFFFFFFFFFFFFFFFFFFFFFFFFFFFFFF AND SWAP1 PUSH1 0x20 ADD SWAP1 SWAP3 SWAP2 SWAP1 DUP1 CALLDATALOAD PUSH20 0xFFFFFFFFFFFFFFFFFFFFFFFFFFFFFFFFFFFFFFFF AND SWAP1 PUSH1 0x20 ADD SWAP1 SWAP3 SWAP2 SWAP1 POP POP POP PUSH2 0x11D0 JUMP JUMPDEST STOP JUMPDEST PUSH1 0x0 PUSH2 0x4C7 DUP4 DUP4 PUSH2 0x10F7 JUMP JUMPDEST ISZERO ISZERO ISZERO PUSH2 0x53C JUMPI PUSH1 0x40 MLOAD PUSH32 0x8C379A000000000000000000000000000000000000000000000000000000000 DUP2 MSTORE PUSH1 0x4 ADD DUP1 DUP1 PUSH1 0x20 ADD DUP3 DUP2 SUB DUP3 MSTORE PUSH1 0x1A DUP2 MSTORE PUSH1 0x20 ADD DUP1 PUSH32 0x4173736F63696174696F6E20616C726561647920657869737473000000000000 DUP2 MSTORE POP PUSH1 0x20 ADD SWAP2 POP POP PUSH1 0x40 MLOAD DUP1 SWAP2 SUB SWAP1 REVERT JUMPDEST PUSH1 0x0 PUSH1 0x1 PUSH1 0x0 DUP6 PUSH20 0xFFFFFFFFFFFFFFFFFFFFFFFFFFFFFFFFFFFFFFFF AND PUSH20 0xFFFFFFFFFFFFFFFFFFFFFFFFFFFFFFFFFFFFFFFF AND DUP2 MSTORE PUSH1 0x20 ADD SWAP1 DUP2 MSTORE PUSH1 0x20 ADD PUSH1 0x0 KECCAK256 PUSH1 0x0 DUP5 PUSH20 0xFFFFFFFFFFFFFFFFFFFFFFFFFFFFFFFFFFFFFFFF AND PUSH20 0xFFFFFFFFFFFFFFFFFFFFFFFFFFFFFFFFFFFFFFFF AND DUP2 MSTORE PUSH1 0x20 ADD SWAP1 DUP2 MSTORE PUSH1 0x20 ADD PUSH1 0x0 KECCAK256 SWAP1 POP DUP4 DUP2 PUSH1 0x0 ADD PUSH1 0x0 PUSH2 0x100 EXP DUP2 SLOAD DUP2 PUSH20 0xFFFFFFFFFFFFFFFFFFFFFFFFFFFFFFFFFFFFFFFF MUL NOT AND SWAP1 DUP4 PUSH20 0xFFFFFFFFFFFFFFFFFFFFFFFFFFFFFFFFFFFFFFFF AND MUL OR SWAP1 SSTORE POP DUP3 DUP2 PUSH1 0x1 ADD PUSH1 0x0 PUSH2 0x100 EXP DUP2 SLOAD DUP2 PUSH20 0xFFFFFFFFFFFFFFFFFFFFFFFFFFFFFFFFFFFFFFFF MUL NOT AND SWAP1 DUP4 PUSH20 0xFFFFFFFFFFFFFFFFFFFFFFFFFFFFFFFFFFFFFFFF AND MUL OR SWAP1 SSTORE POP PUSH1 0x2 PUSH1 0x0 DUP6 PUSH20 0xFFFFFFFFFFFFFFFFFFFFFFFFFFFFFFFFFFFFFFFF AND PUSH20 0xFFFFFFFFFFFFFFFFFFFFFFFFFFFFFFFFFFFFFFFF AND DUP2 MSTORE PUSH1 0x20 ADD SWAP1 DUP2 MSTORE PUSH1 0x20 ADD PUSH1 0x0 KECCAK256 DUP4 SWAP1 DUP1 PUSH1 0x1 DUP2 SLOAD ADD DUP1 DUP3 SSTORE DUP1 SWAP2 POP POP SWAP1 PUSH1 0x1 DUP3 SUB SWAP1 PUSH1 0x0 MSTORE PUSH1 0x20 PUSH1 0x0 KECCAK256 ADD PUSH1 0x0 SWAP1 SWAP2 SWAP3 SWAP1 SWAP2 SWAP1 SWAP2 PUSH2 0x100 EXP DUP2 SLOAD DUP2 PUSH20 0xFFFFFFFFFFFFFFFFFFFFFFFFFFFFFFFFFFFFFFFF MUL NOT AND SWAP1 DUP4 PUSH20 0xFFFFFFFFFFFFFFFFFFFFFFFFFFFFFFFFFFFFFFFF AND MUL OR SWAP1 SSTORE POP DUP2 PUSH1 0x2 ADD DUP2 SWAP1 SSTORE POP PUSH1 0x2 PUSH1 0x0 DUP5 PUSH20 0xFFFFFFFFFFFFFFFFFFFFFFFFFFFFFFFFFFFFFFFF AND PUSH20 0xFFFFFFFFFFFFFFFFFFFFFFFFFFFFFFFFFFFFFFFF AND DUP2 MSTORE PUSH1 0x20 ADD SWAP1 DUP2 MSTORE PUSH1 0x20 ADD PUSH1 0x0 KECCAK256 DUP5 SWAP1 DUP1 PUSH1 0x1 DUP2 SLOAD ADD DUP1 DUP3 SSTORE DUP1 SWAP2 POP POP SWAP1 PUSH1 0x1 DUP3 SUB SWAP1 PUSH1 0x0 MSTORE PUSH1 0x20 PUSH1 0x0 KECCAK256 ADD PUSH1 0x0 SWAP1 SWAP2 SWAP3 SWAP1 SWAP2 SWAP1 SWAP2 PUSH2 0x100 EXP DUP2 SLOAD DUP2 PUSH20 0xFFFFFFFFFFFFFFFFFFFFFFFFFFFFFFFFFFFFFFFF MUL NOT AND SWAP1 DUP4 PUSH20 0xFFFFFFFFFFFFFFFFFFFFFFFFFFFFFFFFFFFFFFFF AND MUL OR SWAP1 SSTORE POP DUP2 PUSH1 0x3 ADD DUP2 SWAP1 SSTORE POP PUSH1 0x1 SWAP2 POP POP SWAP3 SWAP2 POP POP JUMP JUMPDEST PUSH1 0x0 PUSH1 0x1 PUSH1 0x0 DUP5 PUSH20 0xFFFFFFFFFFFFFFFFFFFFFFFFFFFFFFFFFFFFFFFF AND PUSH20 0xFFFFFFFFFFFFFFFFFFFFFFFFFFFFFFFFFFFFFFFF AND DUP2 MSTORE PUSH1 0x20 ADD SWAP1 DUP2 MSTORE PUSH1 0x20 ADD PUSH1 0x0 KECCAK256 PUSH1 0x0 DUP6 PUSH20 0xFFFFFFFFFFFFFFFFFFFFFFFFFFFFFFFFFFFFFFFF AND PUSH20 0xFFFFFFFFFFFFFFFFFFFFFFFFFFFFFFFFFFFFFFFF AND DUP2 MSTORE PUSH1 0x20 ADD SWAP1 DUP2 MSTORE PUSH1 0x20 ADD PUSH1 0x0 KECCAK256 PUSH1 0x6 ADD PUSH1 0x0 DUP4 PUSH20 0xFFFFFFFFFFFFFFFFFFFFFFFFFFFFFFFFFFFFFFFF AND PUSH20 0xFFFFFFFFFFFFFFFFFFFFFFFFFFFFFFFFFFFFFFFF AND DUP2 MSTORE PUSH1 0x20 ADD SWAP1 DUP2 MSTORE PUSH1 0x20 ADD PUSH1 0x0 KECCAK256 PUSH1 0x3 ADD PUSH1 0x0 SWAP1 SLOAD SWAP1 PUSH2 0x100 EXP SWAP1 DIV PUSH20 0xFFFFFFFFFFFFFFFFFFFFFFFFFFFFFFFFFFFFFFFF AND SWAP1 POP SWAP4 SWAP3 POP POP POP JUMP JUMPDEST PUSH1 0x0 DUP1 SWAP1 SLOAD SWAP1 PUSH2 0x100 EXP SWAP1 DIV PUSH20 0xFFFFFFFFFFFFFFFFFFFFFFFFFFFFFFFFFFFFFFFF AND PUSH20 0xFFFFFFFFFFFFFFFFFFFFFFFFFFFFFFFFFFFFFFFF AND CALLER PUSH20 0xFFFFFFFFFFFFFFFFFFFFFFFFFFFFFFFFFFFFFFFF AND EQ ISZERO ISZERO PUSH2 0x950 JUMPI PUSH1 0x40 MLOAD PUSH32 0x8C379A000000000000000000000000000000000000000000000000000000000 DUP2 MSTORE PUSH1 0x4 ADD DUP1 DUP1 PUSH1 0x20 ADD DUP3 DUP2 SUB DUP3 MSTORE PUSH1 0x18 DUP2 MSTORE PUSH1 0x20 ADD DUP1 PUSH32 0x6F6E6C792054432063616E20646F20746869732063616C6C0000000000000000 DUP2 MSTORE POP PUSH1 0x20 ADD SWAP2 POP POP PUSH1 0x40 MLOAD DUP1 SWAP2 SUB SWAP1 REVERT JUMPDEST PUSH1 0x0 PUSH1 0x1 PUSH1 0x0 DUP5 PUSH20 0xFFFFFFFFFFFFFFFFFFFFFFFFFFFFFFFFFFFFFFFF AND PUSH20 0xFFFFFFFFFFFFFFFFFFFFFFFFFFFFFFFFFFFFFFFF AND DUP2 MSTORE PUSH1 0x20 ADD SWAP1 DUP2 MSTORE PUSH1 0x20 ADD PUSH1 0x0 KECCAK256 PUSH1 0x0 DUP6 PUSH20 0xFFFFFFFFFFFFFFFFFFFFFFFFFFFFFFFFFFFFFFFF AND PUSH20 0xFFFFFFFFFFFFFFFFFFFFFFFFFFFFFFFFFFFFFFFF AND DUP2 MSTORE PUSH1 0x20 ADD SWAP1 DUP2 MSTORE PUSH1 0x20 ADD PUSH1 0x0 KECCAK256 PUSH1 0x7 ADD SWAP1 POP PUSH1 0x0 PUSH1 0x1 PUSH1 0x0 DUP6 PUSH20 0xFFFFFFFFFFFFFFFFFFFFFFFFFFFFFFFFFFFFFFFF AND PUSH20 0xFFFFFFFFFFFFFFFFFFFFFFFFFFFFFFFFFFFFFFFF AND DUP2 MSTORE PUSH1 0x20 ADD SWAP1 DUP2 MSTORE PUSH1 0x20 ADD PUSH1 0x0 KECCAK256 PUSH1 0x0 DUP7 PUSH20 0xFFFFFFFFFFFFFFFFFFFFFFFFFFFFFFFFFFFFFFFF AND PUSH20 0xFFFFFFFFFFFFFFFFFFFFFFFFFFFFFFFFFFFFFFFF AND DUP2 MSTORE PUSH1 0x20 ADD SWAP1 DUP2 MSTORE PUSH1 0x20 ADD PUSH1 0x0 KECCAK256 PUSH1 0x6 ADD PUSH1 0x0 DUP5 PUSH20 0xFFFFFFFFFFFFFFFFFFFFFFFFFFFFFFFFFFFFFFFF AND PUSH20 0xFFFFFFFFFFFFFFFFFFFFFFFFFFFFFFFFFFFFFFFF AND DUP2 MSTORE PUSH1 0x20 ADD SWAP1 DUP2 MSTORE PUSH1 0x20 ADD PUSH1 0x0 KECCAK256 SWAP1 POP PUSH1 0x0 DUP2 PUSH1 0x1 ADD SLOAD SWAP1 POP PUSH1 0x0 DUP4 PUSH1 0x1 DUP6 DUP1 SLOAD SWAP1 POP SUB DUP2 SLOAD DUP2 LT ISZERO ISZERO PUSH2 0xAB3 JUMPI INVALID JUMPDEST SWAP1 PUSH1 0x0 MSTORE PUSH1 0x20 PUSH1 0x0 KECCAK256 ADD PUSH1 0x0 SWAP1 SLOAD SWAP1 PUSH2 0x100 EXP SWAP1 DIV PUSH20 0xFFFFFFFFFFFFFFFFFFFFFFFFFFFFFFFFFFFFFFFF AND SWAP1 POP DUP1 DUP5 DUP4 DUP2 SLOAD DUP2 LT ISZERO ISZERO PUSH2 0xAEF JUMPI INVALID JUMPDEST SWAP1 PUSH1 0x0 MSTORE PUSH1 0x20 PUSH1 0x0 KECCAK256 ADD PUSH1 0x0 PUSH2 0x100 EXP DUP2 SLOAD DUP2 PUSH20 0xFFFFFFFFFFFFFFFFFFFFFFFFFFFFFFFFFFFFFFFF MUL NOT AND SWAP1 DUP4 PUSH20 0xFFFFFFFFFFFFFFFFFFFFFFFFFFFFFFFFFFFFFFFF AND MUL OR SWAP1 SSTORE POP DUP2 PUSH1 0x1 PUSH1 0x0 DUP9 PUSH20 0xFFFFFFFFFFFFFFFFFFFFFFFFFFFFFFFFFFFFFFFF AND PUSH20 0xFFFFFFFFFFFFFFFFFFFFFFFFFFFFFFFFFFFFFFFF AND DUP2 MSTORE PUSH1 0x20 ADD SWAP1 DUP2 MSTORE PUSH1 0x20 ADD PUSH1 0x0 KECCAK256 PUSH1 0x0 DUP10 PUSH20 0xFFFFFFFFFFFFFFFFFFFFFFFFFFFFFFFFFFFFFFFF AND PUSH20 0xFFFFFFFFFFFFFFFFFFFFFFFFFFFFFFFFFFFFFFFF AND DUP2 MSTORE PUSH1 0x20 ADD SWAP1 DUP2 MSTORE PUSH1 0x20 ADD PUSH1 0x0 KECCAK256 PUSH1 0x6 ADD PUSH1 0x0 DUP4 PUSH20 0xFFFFFFFFFFFFFFFFFFFFFFFFFFFFFFFFFFFFFFFF AND PUSH20 0xFFFFFFFFFFFFFFFFFFFFFFFFFFFFFFFFFFFFFFFF AND DUP2 MSTORE PUSH1 0x20 ADD SWAP1 DUP2 MSTORE PUSH1 0x20 ADD PUSH1 0x0 KECCAK256 PUSH1 0x1 ADD DUP2 SWAP1 SSTORE POP DUP4 DUP1 SLOAD DUP1 SWAP2 SWAP1 PUSH1 0x1 SWAP1 SUB PUSH2 0xC0F SWAP2 SWAP1 PUSH2 0x166F JUMP JUMPDEST POP POP POP POP POP POP POP POP JUMP JUMPDEST PUSH1 0x0 DUP1 PUSH1 0x0 SWAP1 SLOAD SWAP1 PUSH2 0x100 EXP SWAP1 DIV PUSH20 0xFFFFFFFFFFFFFFFFFFFFFFFFFFFFFFFFFFFFFFFF AND PUSH20 0xFFFFFFFFFFFFFFFFFFFFFFFFFFFFFFFFFFFFFFFF AND CALLER PUSH20 0xFFFFFFFFFFFFFFFFFFFFFFFFFFFFFFFFFFFFFFFF AND EQ ISZERO ISZERO PUSH2 0xCDF JUMPI PUSH1 0x40 MLOAD PUSH32 0x8C379A000000000000000000000000000000000000000000000000000000000 DUP2 MSTORE PUSH1 0x4 ADD DUP1 DUP1 PUSH1 0x20 ADD DUP3 DUP2 SUB DUP3 MSTORE PUSH1 0x18 DUP2 MSTORE PUSH1 0x20 ADD DUP1 PUSH32 0x6F6E6C792054432063616E20646F20746869732063616C6C0000000000000000 DUP2 MSTORE POP PUSH1 0x20 ADD SWAP2 POP POP PUSH1 0x40 MLOAD DUP1 SWAP2 SUB SWAP1 REVERT JUMPDEST PUSH1 0x1 ISZERO ISZERO PUSH2 0xCED DUP5 CALLER PUSH2 0x10F7 JUMP JUMPDEST ISZERO ISZERO EQ ISZERO ISZERO PUSH2 0xD47 JUMPI PUSH1 0x40 MLOAD PUSH32 0x8C379A000000000000000000000000000000000000000000000000000000000 DUP2 MSTORE PUSH1 0x4 ADD DUP1 DUP1 PUSH1 0x20 ADD DUP3 DUP2 SUB DUP3 MSTORE PUSH1 0x2C DUP2 MSTORE PUSH1 0x20 ADD DUP1 PUSH2 0x16C1 PUSH1 0x2C SWAP2 CODECOPY PUSH1 0x40 ADD SWAP2 POP POP PUSH1 0x40 MLOAD DUP1 SWAP2 SUB SWAP1 REVERT JUMPDEST PUSH1 0x0 PUSH1 0x1 PUSH1 0x0 DUP6 PUSH20 0xFFFFFFFFFFFFFFFFFFFFFFFFFFFFFFFFFFFFFFFF AND PUSH20 0xFFFFFFFFFFFFFFFFFFFFFFFFFFFFFFFFFFFFFFFF AND DUP2 MSTORE PUSH1 0x20 ADD SWAP1 DUP2 MSTORE PUSH1 0x20 ADD PUSH1 0x0 KECCAK256 PUSH1 0x0 DUP8 PUSH20 0xFFFFFFFFFFFFFFFFFFFFFFFFFFFFFFFFFFFFFFFF AND PUSH20 0xFFFFFFFFFFFFFFFFFFFFFFFFFFFFFFFFFFFFFFFF AND DUP2 MSTORE PUSH1 0x20 ADD SWAP1 DUP2 MSTORE PUSH1 0x20 ADD PUSH1 0x0 KECCAK256 SWAP1 POP PUSH1 0x0 DUP2 PUSH1 0x4 ADD PUSH1 0x0 DUP8 PUSH20 0xFFFFFFFFFFFFFFFFFFFFFFFFFFFFFFFFFFFFFFFF AND PUSH20 0xFFFFFFFFFFFFFFFFFFFFFFFFFFFFFFFFFFFFFFFF AND DUP2 MSTORE PUSH1 0x20 ADD SWAP1 DUP2 MSTORE PUSH1 0x20 ADD PUSH1 0x0 KECCAK256 SWAP1 POP PUSH1 0x0 DUP2 PUSH1 0x0 ADD PUSH1 0x0 PUSH2 0x100 EXP DUP2 SLOAD DUP2 PUSH1 0xFF MUL NOT AND SWAP1 DUP4 PUSH1 0x2 DUP2 GT ISZERO PUSH2 0xE2D JUMPI INVALID JUMPDEST MUL OR SWAP1 SSTORE POP DUP7 DUP2 PUSH1 0x2 ADD PUSH1 0x0 PUSH2 0x100 EXP DUP2 SLOAD DUP2 PUSH20 0xFFFFFFFFFFFFFFFFFFFFFFFFFFFFFFFFFFFFFFFF MUL NOT AND SWAP1 DUP4 PUSH20 0xFFFFFFFFFFFFFFFFFFFFFFFFFFFFFFFFFFFFFFFF AND MUL OR SWAP1 SSTORE POP DUP4 DUP2 PUSH1 0x3 ADD PUSH1 0x0 PUSH2 0x100 EXP DUP2 SLOAD DUP2 PUSH20 0xFFFFFFFFFFFFFFFFFFFFFFFFFFFFFFFFFFFFFFFF MUL NOT AND SWAP1 DUP4 PUSH20 0xFFFFFFFFFFFFFFFFFFFFFFFFFFFFFFFFFFFFFFFF AND MUL OR SWAP1 SSTORE POP DUP5 DUP2 PUSH1 0x4 ADD PUSH1 0x0 PUSH2 0x100 EXP DUP2 SLOAD DUP2 PUSH20 0xFFFFFFFFFFFFFFFFFFFFFFFFFFFFFFFFFFFFFFFF MUL NOT AND SWAP1 DUP4 PUSH20 0xFFFFFFFFFFFFFFFFFFFFFFFFFFFFFFFFFFFFFFFF AND MUL OR SWAP1 SSTORE POP DUP6 DUP2 PUSH1 0x5 ADD PUSH1 0x0 PUSH2 0x100 EXP DUP2 SLOAD DUP2 PUSH20 0xFFFFFFFFFFFFFFFFFFFFFFFFFFFFFFFFFFFFFFFF MUL NOT AND SWAP1 DUP4 PUSH20 0xFFFFFFFFFFFFFFFFFFFFFFFFFFFFFFFFFFFFFFFF AND MUL OR SWAP1 SSTORE POP PUSH1 0x1 DUP3 PUSH1 0x5 ADD DUP8 SWAP1 DUP1 PUSH1 0x1 DUP2 SLOAD ADD DUP1 DUP3 SSTORE DUP1 SWAP2 POP POP SWAP1 PUSH1 0x1 DUP3 SUB SWAP1 PUSH1 0x0 MSTORE PUSH1 0x20 PUSH1 0x0 KECCAK256 ADD PUSH1 0x0 SWAP1 SWAP2 SWAP3 SWAP1 SWAP2 SWAP1 SWAP2 PUSH2 0x100 EXP DUP2 SLOAD DUP2 PUSH20 0xFFFFFFFFFFFFFFFFFFFFFFFFFFFFFFFFFFFFFFFF MUL NOT AND SWAP1 DUP4 PUSH20 0xFFFFFFFFFFFFFFFFFFFFFFFFFFFFFFFFFFFFFFFF AND MUL OR SWAP1 SSTORE POP SUB DUP2 PUSH1 0x1 ADD DUP2 SWAP1 SSTORE POP PUSH1 0x1 SWAP3 POP POP POP SWAP5 SWAP4 POP POP POP POP JUMP JUMPDEST PUSH1 0x0 DUP1 PUSH1 0x1 PUSH1 0x0 DUP6 PUSH20 0xFFFFFFFFFFFFFFFFFFFFFFFFFFFFFFFFFFFFFFFF AND PUSH20 0xFFFFFFFFFFFFFFFFFFFFFFFFFFFFFFFFFFFFFFFF AND DUP2 MSTORE PUSH1 0x20 ADD SWAP1 DUP2 MSTORE PUSH1 0x20 ADD PUSH1 0x0 KECCAK256 PUSH1 0x0 DUP7 PUSH20 0xFFFFFFFFFFFFFFFFFFFFFFFFFFFFFFFFFFFFFFFF AND PUSH20 0xFFFFFFFFFFFFFFFFFFFFFFFFFFFFFFFFFFFFFFFF AND DUP2 MSTORE PUSH1 0x20 ADD SWAP1 DUP2 MSTORE PUSH1 0x20 ADD PUSH1 0x0 KECCAK256 SWAP1 POP DUP1 PUSH1 0x5 ADD DUP2 PUSH1 0x4 ADD PUSH1 0x0 DUP6 PUSH20 0xFFFFFFFFFFFFFFFFFFFFFFFFFFFFFFFFFFFFFFFF AND PUSH20 0xFFFFFFFFFFFFFFFFFFFFFFFFFFFFFFFFFFFFFFFF AND DUP2 MSTORE PUSH1 0x20 ADD SWAP1 DUP2 MSTORE PUSH1 0x20 ADD PUSH1 0x0 KECCAK256 PUSH1 0x1 ADD SLOAD DUP2 SLOAD DUP2 LT ISZERO ISZERO PUSH2 0x1094 JUMPI INVALID JUMPDEST SWAP1 PUSH1 0x0 MSTORE PUSH1 0x20 PUSH1 0x0 KECCAK256 ADD PUSH1 0x0 SWAP1 SLOAD SWAP1 PUSH2 0x100 EXP SWAP1 DIV PUSH20 0xFFFFFFFFFFFFFFFFFFFFFFFFFFFFFFFFFFFFFFFF AND PUSH20 0xFFFFFFFFFFFFFFFFFFFFFFFFFFFFFFFFFFFFFFFF AND DUP4 PUSH20 0xFFFFFFFFFFFFFFFFFFFFFFFFFFFFFFFFFFFFFFFF AND EQ SWAP2 POP POP SWAP4 SWAP3 POP POP POP JUMP JUMPDEST PUSH1 0x0 DUP1 PUSH20 0xFFFFFFFFFFFFFFFFFFFFFFFFFFFFFFFFFFFFFFFF AND PUSH1 0x1 PUSH1 0x0 DUP6 PUSH20 0xFFFFFFFFFFFFFFFFFFFFFFFFFFFFFFFFFFFFFFFF AND PUSH20 0xFFFFFFFFFFFFFFFFFFFFFFFFFFFFFFFFFFFFFFFF AND DUP2 MSTORE PUSH1 0x20 ADD SWAP1 DUP2 MSTORE PUSH1 0x20 ADD PUSH1 0x0 KECCAK256 PUSH1 0x0 DUP5 PUSH20 0xFFFFFFFFFFFFFFFFFFFFFFFFFFFFFFFFFFFFFFFF AND PUSH20 0xFFFFFFFFFFFFFFFFFFFFFFFFFFFFFFFFFFFFFFFF AND DUP2 MSTORE PUSH1 0x20 ADD SWAP1 DUP2 MSTORE PUSH1 0x20 ADD PUSH1 0x0 KECCAK256 PUSH1 0x0 ADD PUSH1 0x0 SWAP1 SLOAD SWAP1 PUSH2 0x100 EXP SWAP1 DIV PUSH20 0xFFFFFFFFFFFFFFFFFFFFFFFFFFFFFFFFFFFFFFFF AND PUSH20 0xFFFFFFFFFFFFFFFFFFFFFFFFFFFFFFFFFFFFFFFF AND EQ ISZERO SWAP1 POP SWAP3 SWAP2 POP POP JUMP JUMPDEST PUSH1 0x0 DUP1 SWAP1 SLOAD SWAP1 PUSH2 0x100 EXP SWAP1 DIV PUSH20 0xFFFFFFFFFFFFFFFFFFFFFFFFFFFFFFFFFFFFFFFF AND PUSH20 0xFFFFFFFFFFFFFFFFFFFFFFFFFFFFFFFFFFFFFFFF AND CALLER PUSH20 0xFFFFFFFFFFFFFFFFFFFFFFFFFFFFFFFFFFFFFFFF AND EQ ISZERO ISZERO PUSH2 0x1294 JUMPI PUSH1 0x40 MLOAD PUSH32 0x8C379A000000000000000000000000000000000000000000000000000000000 DUP2 MSTORE PUSH1 0x4 ADD DUP1 DUP1 PUSH1 0x20 ADD DUP3 DUP2 SUB DUP3 MSTORE PUSH1 0x18 DUP2 MSTORE PUSH1 0x20 ADD DUP1 PUSH32 0x6F6E6C792054432063616E20646F20746869732063616C6C0000000000000000 DUP2 MSTORE POP PUSH1 0x20 ADD SWAP2 POP POP PUSH1 0x40 MLOAD DUP1 SWAP2 SUB SWAP1 REVERT JUMPDEST PUSH1 0x0 PUSH1 0x1 PUSH1 0x0 DUP5 PUSH20 0xFFFFFFFFFFFFFFFFFFFFFFFFFFFFFFFFFFFFFFFF AND PUSH20 0xFFFFFFFFFFFFFFFFFFFFFFFFFFFFFFFFFFFFFFFF AND DUP2 MSTORE PUSH1 0x20 ADD SWAP1 DUP2 MSTORE PUSH1 0x20 ADD PUSH1 0x0 KECCAK256 PUSH1 0x0 DUP6 PUSH20 0xFFFFFFFFFFFFFFFFFFFFFFFFFFFFFFFFFFFFFFFF AND PUSH20 0xFFFFFFFFFFFFFFFFFFFFFFFFFFFFFFFFFFFFFFFF AND DUP2 MSTORE PUSH1 0x20 ADD SWAP1 DUP2 MSTORE PUSH1 0x20 ADD PUSH1 0x0 KECCAK256 PUSH1 0x5 ADD SWAP1 POP PUSH1 0x0 PUSH1 0x1 PUSH1 0x0 DUP6 PUSH20 0xFFFFFFFFFFFFFFFFFFFFFFFFFFFFFFFFFFFFFFFF AND PUSH20 0xFFFFFFFFFFFFFFFFFFFFFFFFFFFFFFFFFFFFFFFF AND DUP2 MSTORE PUSH1 0x20 ADD SWAP1 DUP2 MSTORE PUSH1 0x20 ADD PUSH1 0x0 KECCAK256 PUSH1 0x0 DUP7 PUSH20 0xFFFFFFFFFFFFFFFFFFFFFFFFFFFFFFFFFFFFFFFF AND PUSH20 0xFFFFFFFFFFFFFFFFFFFFFFFFFFFFFFFFFFFFFFFF AND DUP2 MSTORE PUSH1 0x20 ADD SWAP1 DUP2 MSTORE PUSH1 0x20 ADD PUSH1 0x0 KECCAK256 PUSH1 0x4 ADD PUSH1 0x0 DUP5 PUSH20 0xFFFFFFFFFFFFFFFFFFFFFFFFFFFFFFFFFFFFFFFF AND PUSH20 0xFFFFFFFFFFFFFFFFFFFFFFFFFFFFFFFFFFFFFFFF AND DUP2 MSTORE PUSH1 0x20 ADD SWAP1 DUP2 MSTORE PUSH1 0x20 ADD PUSH1 0x0 KECCAK256 SWAP1 POP PUSH1 0x0 DUP2 PUSH1 0x1 ADD SLOAD SWAP1 POP PUSH1 0x0 DUP4 PUSH1 0x1 DUP6 DUP1 SLOAD SWAP1 POP SUB DUP2 SLOAD DUP2 LT ISZERO ISZERO PUSH2 0x13F7 JUMPI INVALID JUMPDEST SWAP1 PUSH1 0x0 MSTORE PUSH1 0x20 PUSH1 0x0 KECCAK256 ADD PUSH1 0x0 SWAP1 SLOAD SWAP1 PUSH2 0x100 EXP SWAP1 DIV PUSH20 0xFFFFFFFFFFFFFFFFFFFFFFFFFFFFFFFFFFFFFFFF AND SWAP1 POP DUP1 DUP5 DUP4 DUP2 SLOAD DUP2 LT ISZERO ISZERO PUSH2 0x1433 JUMPI INVALID JUMPDEST SWAP1 PUSH1 0x0 MSTORE PUSH1 0x20 PUSH1 0x0 KECCAK256 ADD PUSH1 0x0 PUSH2 0x100 EXP DUP2 SLOAD DUP2 PUSH20 0xFFFFFFFFFFFFFFFFFFFFFFFFFFFFFFFFFFFFFFFF MUL NOT AND SWAP1 DUP4 PUSH20 0xFFFFFFFFFFFFFFFFFFFFFFFFFFFFFFFFFFFFFFFF AND MUL OR SWAP1 SSTORE POP DUP2 PUSH1 0x1 PUSH1 0x0 DUP9 PUSH20 0xFFFFFFFFFFFFFFFFFFFFFFFFFFFFFFFFFFFFFFFF AND PUSH20 0xFFFFFFFFFFFFFFFFFFFFFFFFFFFFFFFFFFFFFFFF AND DUP2 MSTORE PUSH1 0x20 ADD SWAP1 DUP2 MSTORE PUSH1 0x20 ADD PUSH1 0x0 KECCAK256 PUSH1 0x0 DUP10 PUSH20 0xFFFFFFFFFFFFFFFFFFFFFFFFFFFFFFFFFFFFFFFF AND PUSH20 0xFFFFFFFFFFFFFFFFFFFFFFFFFFFFFFFFFFFFFFFF AND DUP2 MSTORE PUSH1 0x20 ADD SWAP1 DUP2 MSTORE PUSH1 0x20 ADD PUSH1 0x0 KECCAK256 PUSH1 0x4 ADD PUSH1 0x0 DUP4 PUSH20 0xFFFFFFFFFFFFFFFFFFFFFFFFFFFFFFFFFFFFFFFF AND PUSH20 0xFFFFFFFFFFFFFFFFFFFFFFFFFFFFFFFFFFFFFFFF AND DUP2 MSTORE PUSH1 0x20 ADD SWAP1 DUP2 MSTORE PUSH1 0x20 ADD PUSH1 0x0 KECCAK256 PUSH1 0x1 ADD DUP2 SWAP1 SSTORE POP DUP4 DUP1 SLOAD DUP1 SWAP2 SWAP1 PUSH1 0x1 SWAP1 SUB PUSH2 0x1553 SWAP2 SWAP1 PUSH2 0x166F JUMP JUMPDEST POP PUSH1 0x1 DUP1 PUSH1 0x0 DUP9 PUSH20 0xFFFFFFFFFFFFFFFFFFFFFFFFFFFFFFFFFFFFFFFF AND PUSH20 0xFFFFFFFFFFFFFFFFFFFFFFFFFFFFFFFFFFFFFFFF AND DUP2 MSTORE PUSH1 0x20 ADD SWAP1 DUP2 MSTORE PUSH1 0x20 ADD PUSH1 0x0 KECCAK256 PUSH1 0x0 DUP10 PUSH20 0xFFFFFFFFFFFFFFFFFFFFFFFFFFFFFFFFFFFFFFFF AND PUSH20 0xFFFFFFFFFFFFFFFFFFFFFFFFFFFFFFFFFFFFFFFF AND DUP2 MSTORE PUSH1 0x20 ADD SWAP1 DUP2 MSTORE PUSH1 0x20 ADD PUSH1 0x0 KECCAK256 PUSH1 0x7 ADD DUP7 SWAP1 DUP1 PUSH1 0x1 DUP2 SLOAD ADD DUP1 DUP3 SSTORE DUP1 SWAP2 POP POP SWAP1 PUSH1 0x1 DUP3 SUB SWAP1 PUSH1 0x0 MSTORE PUSH1 0x20 PUSH1 0x0 KECCAK256 ADD PUSH1 0x0 SWAP1 SWAP2 SWAP3 SWAP1 SWAP2 SWAP1 SWAP2 PUSH2 0x100 EXP DUP2 SLOAD DUP2 PUSH20 0xFFFFFFFFFFFFFFFFFFFFFFFFFFFFFFFFFFFFFFFF MUL NOT AND SWAP1 DUP4 PUSH20 0xFFFFFFFFFFFFFFFFFFFFFFFFFFFFFFFFFFFFFFFF AND MUL OR SWAP1 SSTORE POP SUB DUP4 PUSH1 0x1 ADD DUP2 SWAP1 SSTORE POP PUSH1 0x1 DUP4 PUSH1 0x0 ADD PUSH1 0x0 PUSH2 0x100 EXP DUP2 SLOAD DUP2 PUSH1 0xFF MUL NOT AND SWAP1 DUP4 PUSH1 0x2 DUP2 GT ISZERO PUSH2 0x1661 JUMPI INVALID JUMPDEST MUL OR SWAP1 SSTORE POP POP POP POP POP POP POP POP JUMP JUMPDEST DUP2 SLOAD DUP2 DUP4 SSTORE DUP2 DUP2 GT ISZERO PUSH2 0x1696 JUMPI DUP2 DUP4 PUSH1 0x0 MSTORE PUSH1 0x20 PUSH1 0x0 KECCAK256 SWAP2 DUP3 ADD SWAP2 ADD PUSH2 0x1695 SWAP2 SWAP1 PUSH2 0x169B JUMP JUMPDEST JUMPDEST POP POP POP JUMP JUMPDEST PUSH2 0x16BD SWAP2 SWAP1 JUMPDEST DUP1 DUP3 GT ISZERO PUSH2 0x16B9 JUMPI PUSH1 0x0 DUP2 PUSH1 0x0 SWAP1 SSTORE POP PUSH1 0x1 ADD PUSH2 0x16A1 JUMP JUMPDEST POP SWAP1 JUMP JUMPDEST SWAP1 JUMP INVALID PUSH21 0x72616E73706F72746572206973206E6F7420706172 PUSH21 0x6E6572206F66206D6573736167652073656E646572 LOG1 PUSH6 0x627A7A723058 KECCAK256 0x1f PUSH18 0xE1B8152649A06FD9825E9E72DF860B8EF668 0xe8 0xe2 0x2b PUSH21 0xC36EC8D34D474D4000296080604052348015610010 JUMPI PUSH1 0x0 DUP1 REVERT JUMPDEST POP PUSH1 0x40 MLOAD PUSH1 0x20 DUP1 PUSH2 0x2416 DUP4 CODECOPY DUP2 ADD DUP1 PUSH1 0x40 MSTORE PUSH1 0x20 DUP2 LT ISZERO PUSH2 0x30 JUMPI PUSH1 0x0 DUP1 REVERT JUMPDEST DUP2 ADD SWAP1 DUP1 DUP1 MLOAD SWAP1 PUSH1 0x20 ADD SWAP1 SWAP3 SWAP2 SWAP1 POP POP POP DUP1 PUSH1 0x0 DUP1 PUSH2 0x100 EXP DUP2 SLOAD DUP2 PUSH20 0xFFFFFFFFFFFFFFFFFFFFFFFFFFFFFFFFFFFFFFFF MUL NOT AND SWAP1 DUP4 PUSH20 0xFFFFFFFFFFFFFFFFFFFFFFFFFFFFFFFFFFFFFFFF AND MUL OR SWAP1 SSTORE POP POP PUSH2 0x2385 DUP1 PUSH2 0x91 PUSH1 0x0 CODECOPY PUSH1 0x0 RETURN INVALID PUSH1 0x80 PUSH1 0x40 MSTORE CALLVALUE DUP1 ISZERO PUSH2 0x10 JUMPI PUSH1 0x0 DUP1 REVERT JUMPDEST POP PUSH1 0x4 CALLDATASIZE LT PUSH2 0x69 JUMPI PUSH1 0x0 CALLDATALOAD PUSH29 0x100000000000000000000000000000000000000000000000000000000 SWAP1 DIV DUP1 PUSH4 0x791C0741 EQ PUSH2 0x6E JUMPI DUP1 PUSH4 0x8412D3D1 EQ PUSH2 0x189 JUMPI DUP1 PUSH4 0x98581FD9 EQ PUSH2 0x278 JUMPI DUP1 PUSH4 0xF5521022 EQ PUSH2 0x2E6 JUMPI JUMPDEST PUSH1 0x0 DUP1 REVERT JUMPDEST PUSH2 0x147 PUSH1 0x4 DUP1 CALLDATASIZE SUB PUSH1 0x40 DUP2 LT ISZERO PUSH2 0x84 JUMPI PUSH1 0x0 DUP1 REVERT JUMPDEST DUP2 ADD SWAP1 DUP1 DUP1 CALLDATALOAD PUSH20 0xFFFFFFFFFFFFFFFFFFFFFFFFFFFFFFFFFFFFFFFF AND SWAP1 PUSH1 0x20 ADD SWAP1 SWAP3 SWAP2 SWAP1 DUP1 CALLDATALOAD SWAP1 PUSH1 0x20 ADD SWAP1 PUSH5 0x100000000 DUP2 GT ISZERO PUSH2 0xC1 JUMPI PUSH1 0x0 DUP1 REVERT JUMPDEST DUP3 ADD DUP4 PUSH1 0x20 DUP3 ADD GT ISZERO PUSH2 0xD3 JUMPI PUSH1 0x0 DUP1 REVERT JUMPDEST DUP1 CALLDATALOAD SWAP1 PUSH1 0x20 ADD SWAP2 DUP5 PUSH1 0x1 DUP4 MUL DUP5 ADD GT PUSH5 0x100000000 DUP4 GT OR ISZERO PUSH2 0xF5 JUMPI PUSH1 0x0 DUP1 REVERT JUMPDEST SWAP2 SWAP1 DUP1 DUP1 PUSH1 0x1F ADD PUSH1 0x20 DUP1 SWAP2 DIV MUL PUSH1 0x20 ADD PUSH1 0x40 MLOAD SWAP1 DUP2 ADD PUSH1 0x40 MSTORE DUP1 SWAP4 SWAP3 SWAP2 SWAP1 DUP2 DUP2 MSTORE PUSH1 0x20 ADD DUP4 DUP4 DUP1 DUP3 DUP5 CALLDATACOPY PUSH1 0x0 DUP2 DUP5 ADD MSTORE PUSH1 0x1F NOT PUSH1 0x1F DUP3 ADD AND SWAP1 POP DUP1 DUP4 ADD SWAP3 POP POP POP POP POP POP POP SWAP2 SWAP3 SWAP2 SWAP3 SWAP1 POP POP POP PUSH2 0x342 JUMP JUMPDEST PUSH1 0x40 MLOAD DUP1 DUP3 PUSH20 0xFFFFFFFFFFFFFFFFFFFFFFFFFFFFFFFFFFFFFFFF AND PUSH20 0xFFFFFFFFFFFFFFFFFFFFFFFFFFFFFFFFFFFFFFFF AND DUP2 MSTORE PUSH1 0x20 ADD SWAP2 POP POP PUSH1 0x40 MLOAD DUP1 SWAP2 SUB SWAP1 RETURN JUMPDEST PUSH2 0x262 PUSH1 0x4 DUP1 CALLDATASIZE SUB PUSH1 0x40 DUP2 LT ISZERO PUSH2 0x19F JUMPI PUSH1 0x0 DUP1 REVERT JUMPDEST DUP2 ADD SWAP1 DUP1 DUP1 CALLDATALOAD PUSH20 0xFFFFFFFFFFFFFFFFFFFFFFFFFFFFFFFFFFFFFFFF AND SWAP1 PUSH1 0x20 ADD SWAP1 SWAP3 SWAP2 SWAP1 DUP1 CALLDATALOAD SWAP1 PUSH1 0x20 ADD SWAP1 PUSH5 0x100000000 DUP2 GT ISZERO PUSH2 0x1DC JUMPI PUSH1 0x0 DUP1 REVERT JUMPDEST DUP3 ADD DUP4 PUSH1 0x20 DUP3 ADD GT ISZERO PUSH2 0x1EE JUMPI PUSH1 0x0 DUP1 REVERT JUMPDEST DUP1 CALLDATALOAD SWAP1 PUSH1 0x20 ADD SWAP2 DUP5 PUSH1 0x1 DUP4 MUL DUP5 ADD GT PUSH5 0x100000000 DUP4 GT OR ISZERO PUSH2 0x210 JUMPI PUSH1 0x0 DUP1 REVERT JUMPDEST SWAP2 SWAP1 DUP1 DUP1 PUSH1 0x1F ADD PUSH1 0x20 DUP1 SWAP2 DIV MUL PUSH1 0x20 ADD PUSH1 0x40 MLOAD SWAP1 DUP2 ADD PUSH1 0x40 MSTORE DUP1 SWAP4 SWAP3 SWAP2 SWAP1 DUP2 DUP2 MSTORE PUSH1 0x20 ADD DUP4 DUP4 DUP1 DUP3 DUP5 CALLDATACOPY PUSH1 0x0 DUP2 DUP5 ADD MSTORE PUSH1 0x1F NOT PUSH1 0x1F DUP3 ADD AND SWAP1 POP DUP1 DUP4 ADD SWAP3 POP POP POP POP POP POP POP SWAP2 SWAP3 SWAP2 SWAP3 SWAP1 POP POP POP PUSH2 0x687 JUMP JUMPDEST PUSH1 0x40 MLOAD DUP1 DUP3 DUP2 MSTORE PUSH1 0x20 ADD SWAP2 POP POP PUSH1 0x40 MLOAD DUP1 SWAP2 SUB SWAP1 RETURN JUMPDEST PUSH2 0x2A4 PUSH1 0x4 DUP1 CALLDATASIZE SUB PUSH1 0x20 DUP2 LT ISZERO PUSH2 0x28E JUMPI PUSH1 0x0 DUP1 REVERT JUMPDEST DUP2 ADD SWAP1 DUP1 DUP1 CALLDATALOAD SWAP1 PUSH1 0x20 ADD SWAP1 SWAP3 SWAP2 SWAP1 POP POP POP PUSH2 0x8CA JUMP JUMPDEST PUSH1 0x40 MLOAD DUP1 DUP3 PUSH20 0xFFFFFFFFFFFFFFFFFFFFFFFFFFFFFFFFFFFFFFFF AND PUSH20 0xFFFFFFFFFFFFFFFFFFFFFFFFFFFFFFFFFFFFFFFF AND DUP2 MSTORE PUSH1 0x20 ADD SWAP2 POP POP PUSH1 0x40 MLOAD DUP1 SWAP2 SUB SWAP1 RETURN JUMPDEST PUSH2 0x328 PUSH1 0x4 DUP1 CALLDATASIZE SUB PUSH1 0x20 DUP2 LT ISZERO PUSH2 0x2FC JUMPI PUSH1 0x0 DUP1 REVERT JUMPDEST DUP2 ADD SWAP1 DUP1 DUP1 CALLDATALOAD PUSH20 0xFFFFFFFFFFFFFFFFFFFFFFFFFFFFFFFFFFFFFFFF AND SWAP1 PUSH1 0x20 ADD SWAP1 SWAP3 SWAP2 SWAP1 POP POP POP PUSH2 0x908 JUMP JUMPDEST PUSH1 0x40 MLOAD DUP1 DUP3 ISZERO ISZERO ISZERO ISZERO DUP2 MSTORE PUSH1 0x20 ADD SWAP2 POP POP PUSH1 0x40 MLOAD DUP1 SWAP2 SUB SWAP1 RETURN JUMPDEST PUSH1 0x0 DUP1 PUSH1 0x0 SWAP1 SLOAD SWAP1 PUSH2 0x100 EXP SWAP1 DIV PUSH20 0xFFFFFFFFFFFFFFFFFFFFFFFFFFFFFFFFFFFFFFFF AND PUSH20 0xFFFFFFFFFFFFFFFFFFFFFFFFFFFFFFFFFFFFFFFF AND CALLER PUSH20 0xFFFFFFFFFFFFFFFFFFFFFFFFFFFFFFFFFFFFFFFF AND EQ ISZERO ISZERO PUSH2 0x408 JUMPI PUSH1 0x40 MLOAD PUSH32 0x8C379A000000000000000000000000000000000000000000000000000000000 DUP2 MSTORE PUSH1 0x4 ADD DUP1 DUP1 PUSH1 0x20 ADD DUP3 DUP2 SUB DUP3 MSTORE PUSH1 0x18 DUP2 MSTORE PUSH1 0x20 ADD DUP1 PUSH32 0x6F6E6C792054432063616E20646F20746869732063616C6C0000000000000000 DUP2 MSTORE POP PUSH1 0x20 ADD SWAP2 POP POP PUSH1 0x40 MLOAD DUP1 SWAP2 SUB SWAP1 REVERT JUMPDEST PUSH2 0x411 DUP4 PUSH2 0x908 JUMP JUMPDEST ISZERO ISZERO PUSH2 0x485 JUMPI PUSH1 0x40 MLOAD PUSH32 0x8C379A000000000000000000000000000000000000000000000000000000000 DUP2 MSTORE PUSH1 0x4 ADD DUP1 DUP1 PUSH1 0x20 ADD DUP3 DUP2 SUB DUP3 MSTORE PUSH1 0x20 DUP2 MSTORE PUSH1 0x20 ADD DUP1 PUSH32 0x4F6E6C792070726F6475636572732063616E2063726561746520617373657473 DUP2 MSTORE POP PUSH1 0x20 ADD SWAP2 POP POP PUSH1 0x40 MLOAD DUP1 SWAP2 SUB SWAP1 REVERT JUMPDEST DUP3 DUP3 PUSH1 0x40 MLOAD PUSH2 0x493 SWAP1 PUSH2 0x9D2 JUMP JUMPDEST DUP1 DUP4 PUSH20 0xFFFFFFFFFFFFFFFFFFFFFFFFFFFFFFFFFFFFFFFF AND PUSH20 0xFFFFFFFFFFFFFFFFFFFFFFFFFFFFFFFFFFFFFFFF AND DUP2 MSTORE PUSH1 0x20 ADD DUP1 PUSH1 0x20 ADD DUP3 DUP2 SUB DUP3 MSTORE DUP4 DUP2 DUP2 MLOAD DUP2 MSTORE PUSH1 0x20 ADD SWAP2 POP DUP1 MLOAD SWAP1 PUSH1 0x20 ADD SWAP1 DUP1 DUP4 DUP4 PUSH1 0x0 JUMPDEST DUP4 DUP2 LT ISZERO PUSH2 0x502 JUMPI DUP1 DUP3 ADD MLOAD DUP2 DUP5 ADD MSTORE PUSH1 0x20 DUP2 ADD SWAP1 POP PUSH2 0x4E7 JUMP JUMPDEST POP POP POP POP SWAP1 POP SWAP1 DUP2 ADD SWAP1 PUSH1 0x1F AND DUP1 ISZERO PUSH2 0x52F JUMPI DUP1 DUP3 SUB DUP1 MLOAD PUSH1 0x1 DUP4 PUSH1 0x20 SUB PUSH2 0x100 EXP SUB NOT AND DUP2 MSTORE PUSH1 0x20 ADD SWAP2 POP JUMPDEST POP SWAP4 POP POP POP POP PUSH1 0x40 MLOAD DUP1 SWAP2 SUB SWAP1 PUSH1 0x0 CREATE DUP1 ISZERO DUP1 ISZERO PUSH2 0x551 JUMPI RETURNDATASIZE PUSH1 0x0 DUP1 RETURNDATACOPY RETURNDATASIZE PUSH1 0x0 REVERT JUMPDEST POP SWAP1 POP PUSH1 0x1 DUP1 PUSH1 0x0 CALLER PUSH20 0xFFFFFFFFFFFFFFFFFFFFFFFFFFFFFFFFFFFFFFFF AND PUSH20 0xFFFFFFFFFFFFFFFFFFFFFFFFFFFFFFFFFFFFFFFF AND DUP2 MSTORE PUSH1 0x20 ADD SWAP1 DUP2 MSTORE PUSH1 0x20 ADD PUSH1 0x0 KECCAK256 PUSH1 0x3 ADD DUP3 SWAP1 DUP1 PUSH1 0x1 DUP2 SLOAD ADD DUP1 DUP3 SSTORE DUP1 SWAP2 POP POP SWAP1 PUSH1 0x1 DUP3 SUB SWAP1 PUSH1 0x0 MSTORE PUSH1 0x20 PUSH1 0x0 KECCAK256 ADD PUSH1 0x0 SWAP1 SWAP2 SWAP3 SWAP1 SWAP2 SWAP1 SWAP2 PUSH2 0x100 EXP DUP2 SLOAD DUP2 PUSH20 0xFFFFFFFFFFFFFFFFFFFFFFFFFFFFFFFFFFFFFFFF MUL NOT AND SWAP1 DUP4 PUSH20 0xFFFFFFFFFFFFFFFFFFFFFFFFFFFFFFFFFFFFFFFF AND MUL OR SWAP1 SSTORE POP SUB PUSH1 0x1 PUSH1 0x0 CALLER PUSH20 0xFFFFFFFFFFFFFFFFFFFFFFFFFFFFFFFFFFFFFFFF AND PUSH20 0xFFFFFFFFFFFFFFFFFFFFFFFFFFFFFFFFFFFFFFFF AND DUP2 MSTORE PUSH1 0x20 ADD SWAP1 DUP2 MSTORE PUSH1 0x20 ADD PUSH1 0x0 KECCAK256 PUSH1 0x2 ADD PUSH1 0x0 DUP4 PUSH20 0xFFFFFFFFFFFFFFFFFFFFFFFFFFFFFFFFFFFFFFFF AND PUSH20 0xFFFFFFFFFFFFFFFFFFFFFFFFFFFFFFFFFFFFFFFF AND DUP2 MSTORE PUSH1 0x20 ADD SWAP1 DUP2 MSTORE PUSH1 0x20 ADD PUSH1 0x0 KECCAK256 DUP2 SWAP1 SSTORE POP DUP1 SWAP1 POP SWAP3 SWAP2 POP POP JUMP JUMPDEST PUSH1 0x0 DUP1 PUSH1 0x0 SWAP1 SLOAD SWAP1 PUSH2 0x100 EXP SWAP1 DIV PUSH20 0xFFFFFFFFFFFFFFFFFFFFFFFFFFFFFFFFFFFFFFFF AND PUSH20 0xFFFFFFFFFFFFFFFFFFFFFFFFFFFFFFFFFFFFFFFF AND CALLER PUSH20 0xFFFFFFFFFFFFFFFFFFFFFFFFFFFFFFFFFFFFFFFF AND EQ ISZERO ISZERO PUSH2 0x74D JUMPI PUSH1 0x40 MLOAD PUSH32 0x8C379A000000000000000000000000000000000000000000000000000000000 DUP2 MSTORE PUSH1 0x4 ADD DUP1 DUP1 PUSH1 0x20 ADD DUP3 DUP2 SUB DUP3 MSTORE PUSH1 0x18 DUP2 MSTORE PUSH1 0x20 ADD DUP1 PUSH32 0x6F6E6C792054432063616E20646F20746869732063616C6C0000000000000000 DUP2 MSTORE POP PUSH1 0x20 ADD SWAP2 POP POP PUSH1 0x40 MLOAD DUP1 SWAP2 SUB SWAP1 REVERT JUMPDEST PUSH1 0x0 ISZERO ISZERO PUSH2 0x75A DUP5 PUSH2 0x908 JUMP JUMPDEST ISZERO ISZERO EQ ISZERO ISZERO PUSH2 0x7B4 JUMPI PUSH1 0x40 MLOAD PUSH32 0x8C379A000000000000000000000000000000000000000000000000000000000 DUP2 MSTORE PUSH1 0x4 ADD DUP1 DUP1 PUSH1 0x20 ADD DUP3 DUP2 SUB DUP3 MSTORE PUSH1 0x21 DUP2 MSTORE PUSH1 0x20 ADD DUP1 PUSH2 0x2339 PUSH1 0x21 SWAP2 CODECOPY PUSH1 0x40 ADD SWAP2 POP POP PUSH1 0x40 MLOAD DUP1 SWAP2 SUB SWAP1 REVERT JUMPDEST DUP2 PUSH1 0x1 PUSH1 0x0 DUP6 PUSH20 0xFFFFFFFFFFFFFFFFFFFFFFFFFFFFFFFFFFFFFFFF AND PUSH20 0xFFFFFFFFFFFFFFFFFFFFFFFFFFFFFFFFFFFFFFFF AND DUP2 MSTORE PUSH1 0x20 ADD SWAP1 DUP2 MSTORE PUSH1 0x20 ADD PUSH1 0x0 KECCAK256 PUSH1 0x0 ADD SWAP1 DUP1 MLOAD SWAP1 PUSH1 0x20 ADD SWAP1 PUSH2 0x80A SWAP3 SWAP2 SWAP1 PUSH2 0x9DF JUMP JUMPDEST POP PUSH1 0x1 PUSH1 0x2 DUP5 SWAP1 DUP1 PUSH1 0x1 DUP2 SLOAD ADD DUP1 DUP3 SSTORE DUP1 SWAP2 POP POP SWAP1 PUSH1 0x1 DUP3 SUB SWAP1 PUSH1 0x0 MSTORE PUSH1 0x20 PUSH1 0x0 KECCAK256 ADD PUSH1 0x0 SWAP1 SWAP2 SWAP3 SWAP1 SWAP2 SWAP1 SWAP2 PUSH2 0x100 EXP DUP2 SLOAD DUP2 PUSH20 0xFFFFFFFFFFFFFFFFFFFFFFFFFFFFFFFFFFFFFFFF MUL NOT AND SWAP1 DUP4 PUSH20 0xFFFFFFFFFFFFFFFFFFFFFFFFFFFFFFFFFFFFFFFF AND MUL OR SWAP1 SSTORE POP SUB PUSH1 0x1 PUSH1 0x0 DUP6 PUSH20 0xFFFFFFFFFFFFFFFFFFFFFFFFFFFFFFFFFFFFFFFF AND PUSH20 0xFFFFFFFFFFFFFFFFFFFFFFFFFFFFFFFFFFFFFFFF AND DUP2 MSTORE PUSH1 0x20 ADD SWAP1 DUP2 MSTORE PUSH1 0x20 ADD PUSH1 0x0 KECCAK256 PUSH1 0x1 ADD DUP2 SWAP1 SSTORE POP PUSH1 0x1 PUSH1 0x2 DUP1 SLOAD SWAP1 POP SUB SWAP1 POP SWAP3 SWAP2 POP POP JUMP JUMPDEST PUSH1 0x2 DUP2 DUP2 SLOAD DUP2 LT ISZERO ISZERO PUSH2 0x8D9 JUMPI INVALID JUMPDEST SWAP1 PUSH1 0x0 MSTORE PUSH1 0x20 PUSH1 0x0 KECCAK256 ADD PUSH1 0x0 SWAP2 POP SLOAD SWAP1 PUSH2 0x100 EXP SWAP1 DIV PUSH20 0xFFFFFFFFFFFFFFFFFFFFFFFFFFFFFFFFFFFFFFFF AND DUP2 JUMP JUMPDEST PUSH1 0x0 DUP1 PUSH1 0x2 DUP1 SLOAD SWAP1 POP EQ ISZERO PUSH2 0x920 JUMPI PUSH1 0x0 SWAP1 POP PUSH2 0x9CD JUMP JUMPDEST DUP2 PUSH20 0xFFFFFFFFFFFFFFFFFFFFFFFFFFFFFFFFFFFFFFFF AND PUSH1 0x2 PUSH1 0x1 PUSH1 0x0 DUP6 PUSH20 0xFFFFFFFFFFFFFFFFFFFFFFFFFFFFFFFFFFFFFFFF AND PUSH20 0xFFFFFFFFFFFFFFFFFFFFFFFFFFFFFFFFFFFFFFFF AND DUP2 MSTORE PUSH1 0x20 ADD SWAP1 DUP2 MSTORE PUSH1 0x20 ADD PUSH1 0x0 KECCAK256 PUSH1 0x1 ADD SLOAD DUP2 SLOAD DUP2 LT ISZERO ISZERO PUSH2 0x988 JUMPI INVALID JUMPDEST SWAP1 PUSH1 0x0 MSTORE PUSH1 0x20 PUSH1 0x0 KECCAK256 ADD PUSH1 0x0 SWAP1 SLOAD SWAP1 PUSH2 0x100 EXP SWAP1 DIV PUSH20 0xFFFFFFFFFFFFFFFFFFFFFFFFFFFFFFFFFFFFFFFF AND PUSH20 0xFFFFFFFFFFFFFFFFFFFFFFFFFFFFFFFFFFFFFFFF AND EQ SWAP1 POP JUMPDEST SWAP2 SWAP1 POP JUMP JUMPDEST PUSH2 0x18B4 DUP1 PUSH2 0xA85 DUP4 CODECOPY ADD SWAP1 JUMP JUMPDEST DUP3 DUP1 SLOAD PUSH1 0x1 DUP2 PUSH1 0x1 AND ISZERO PUSH2 0x100 MUL SUB AND PUSH1 0x2 SWAP1 DIV SWAP1 PUSH1 0x0 MSTORE PUSH1 0x20 PUSH1 0x0 KECCAK256 SWAP1 PUSH1 0x1F ADD PUSH1 0x20 SWAP1 DIV DUP2 ADD SWAP3 DUP3 PUSH1 0x1F LT PUSH2 0xA20 JUMPI DUP1 MLOAD PUSH1 0xFF NOT AND DUP4 DUP1 ADD OR DUP6 SSTORE PUSH2 0xA4E JUMP JUMPDEST DUP3 DUP1 ADD PUSH1 0x1 ADD DUP6 SSTORE DUP3 ISZERO PUSH2 0xA4E JUMPI SWAP2 DUP3 ADD JUMPDEST DUP3 DUP2 GT ISZERO PUSH2 0xA4D JUMPI DUP3 MLOAD DUP3 SSTORE SWAP2 PUSH1 0x20 ADD SWAP2 SWAP1 PUSH1 0x1 ADD SWAP1 PUSH2 0xA32 JUMP JUMPDEST JUMPDEST POP SWAP1 POP PUSH2 0xA5B SWAP2 SWAP1 PUSH2 0xA5F JUMP JUMPDEST POP SWAP1 JUMP JUMPDEST PUSH2 0xA81 SWAP2 SWAP1 JUMPDEST DUP1 DUP3 GT ISZERO PUSH2 0xA7D JUMPI PUSH1 0x0 DUP2 PUSH1 0x0 SWAP1 SSTORE POP PUSH1 0x1 ADD PUSH2 0xA65 JUMP JUMPDEST POP SWAP1 JUMP JUMPDEST SWAP1 JUMP INVALID PUSH1 0x80 PUSH1 0x40 MSTORE CALLVALUE DUP1 ISZERO PUSH3 0x11 JUMPI PUSH1 0x0 DUP1 REVERT JUMPDEST POP PUSH1 0x40 MLOAD PUSH3 0x18B4 CODESIZE SUB DUP1 PUSH3 0x18B4 DUP4 CODECOPY DUP2 ADD DUP1 PUSH1 0x40 MSTORE PUSH1 0x40 DUP2 LT ISZERO PUSH3 0x37 JUMPI PUSH1 0x0 DUP1 REVERT JUMPDEST DUP2 ADD SWAP1 DUP1 DUP1 MLOAD SWAP1 PUSH1 0x20 ADD SWAP1 SWAP3 SWAP2 SWAP1 DUP1 MLOAD PUSH5 0x100000000 DUP2 GT ISZERO PUSH3 0x5A JUMPI PUSH1 0x0 DUP1 REVERT JUMPDEST DUP3 DUP2 ADD SWAP1 POP PUSH1 0x20 DUP2 ADD DUP5 DUP2 GT ISZERO PUSH3 0x71 JUMPI PUSH1 0x0 DUP1 REVERT JUMPDEST DUP2 MLOAD DUP6 PUSH1 0x1 DUP3 MUL DUP4 ADD GT PUSH5 0x100000000 DUP3 GT OR ISZERO PUSH3 0x8F JUMPI PUSH1 0x0 DUP1 REVERT JUMPDEST POP POP SWAP3 SWAP2 SWAP1 POP POP POP CALLER PUSH1 0x0 PUSH1 0x1 PUSH2 0x100 EXP DUP2 SLOAD DUP2 PUSH20 0xFFFFFFFFFFFFFFFFFFFFFFFFFFFFFFFFFFFFFFFF MUL NOT AND SWAP1 DUP4 PUSH20 0xFFFFFFFFFFFFFFFFFFFFFFFFFFFFFFFFFFFFFFFF AND MUL OR SWAP1 SSTORE POP PUSH1 0x0 DUP1 PUSH1 0x0 PUSH2 0x100 EXP DUP2 SLOAD DUP2 PUSH1 0xFF MUL NOT AND SWAP1 DUP4 PUSH1 0x4 DUP2 GT ISZERO PUSH3 0xF7 JUMPI INVALID JUMPDEST MUL OR SWAP1 SSTORE POP DUP2 PUSH1 0x1 PUSH1 0x0 PUSH2 0x100 EXP DUP2 SLOAD DUP2 PUSH20 0xFFFFFFFFFFFFFFFFFFFFFFFFFFFFFFFFFFFFFFFF MUL NOT AND SWAP1 DUP4 PUSH20 0xFFFFFFFFFFFFFFFFFFFFFFFFFFFFFFFFFFFFFFFF AND MUL OR SWAP1 SSTORE POP PUSH3 0x147 PUSH3 0x2D2 JUMP JUMPDEST PUSH1 0x0 DUP2 PUSH1 0x0 ADD SWAP1 PUSH1 0x5 DUP2 GT ISZERO PUSH3 0x15A JUMPI INVALID JUMPDEST SWAP1 DUP2 PUSH1 0x5 DUP2 GT ISZERO PUSH3 0x168 JUMPI INVALID JUMPDEST DUP2 MSTORE POP POP DUP2 DUP2 PUSH1 0x60 ADD DUP2 SWAP1 MSTORE POP DUP3 DUP2 PUSH1 0x20 ADD SWAP1 PUSH20 0xFFFFFFFFFFFFFFFFFFFFFFFFFFFFFFFFFFFFFFFF AND SWAP1 DUP2 PUSH20 0xFFFFFFFFFFFFFFFFFFFFFFFFFFFFFFFFFFFFFFFF AND DUP2 MSTORE POP POP TIMESTAMP DUP2 PUSH1 0x80 ADD DUP2 DUP2 MSTORE POP POP PUSH1 0x2 DUP2 SWAP1 DUP1 PUSH1 0x1 DUP2 SLOAD ADD DUP1 DUP3 SSTORE DUP1 SWAP2 POP POP SWAP1 PUSH1 0x1 DUP3 SUB SWAP1 PUSH1 0x0 MSTORE PUSH1 0x20 PUSH1 0x0 KECCAK256 SWAP1 PUSH1 0x4 MUL ADD PUSH1 0x0 SWAP1 SWAP2 SWAP3 SWAP1 SWAP2 SWAP1 SWAP2 POP PUSH1 0x0 DUP3 ADD MLOAD DUP2 PUSH1 0x0 ADD PUSH1 0x0 PUSH2 0x100 EXP DUP2 SLOAD DUP2 PUSH1 0xFF MUL NOT AND SWAP1 DUP4 PUSH1 0x5 DUP2 GT ISZERO PUSH3 0x20A JUMPI INVALID JUMPDEST MUL OR SWAP1 SSTORE POP PUSH1 0x20 DUP3 ADD MLOAD DUP2 PUSH1 0x0 ADD PUSH1 0x1 PUSH2 0x100 EXP DUP2 SLOAD DUP2 PUSH20 0xFFFFFFFFFFFFFFFFFFFFFFFFFFFFFFFFFFFFFFFF MUL NOT AND SWAP1 DUP4 PUSH20 0xFFFFFFFFFFFFFFFFFFFFFFFFFFFFFFFFFFFFFFFF AND MUL OR SWAP1 SSTORE POP PUSH1 0x40 DUP3 ADD MLOAD DUP2 PUSH1 0x1 ADD PUSH1 0x0 PUSH2 0x100 EXP DUP2 SLOAD DUP2 PUSH20 0xFFFFFFFFFFFFFFFFFFFFFFFFFFFFFFFFFFFFFFFF MUL NOT AND SWAP1 DUP4 PUSH20 0xFFFFFFFFFFFFFFFFFFFFFFFFFFFFFFFFFFFFFFFF AND MUL OR SWAP1 SSTORE POP PUSH1 0x60 DUP3 ADD MLOAD DUP2 PUSH1 0x2 ADD SWAP1 DUP1 MLOAD SWAP1 PUSH1 0x20 ADD SWAP1 PUSH3 0x2BB SWAP3 SWAP2 SWAP1 PUSH3 0x33A JUMP JUMPDEST POP PUSH1 0x80 DUP3 ADD MLOAD DUP2 PUSH1 0x3 ADD SSTORE POP POP POP POP POP POP PUSH3 0x3E9 JUMP JUMPDEST PUSH1 0xA0 PUSH1 0x40 MLOAD SWAP1 DUP2 ADD PUSH1 0x40 MSTORE DUP1 PUSH1 0x0 PUSH1 0x5 DUP2 GT ISZERO PUSH3 0x2EC JUMPI INVALID JUMPDEST DUP2 MSTORE PUSH1 0x20 ADD PUSH1 0x0 PUSH20 0xFFFFFFFFFFFFFFFFFFFFFFFFFFFFFFFFFFFFFFFF AND DUP2 MSTORE PUSH1 0x20 ADD PUSH1 0x0 PUSH20 0xFFFFFFFFFFFFFFFFFFFFFFFFFFFFFFFFFFFFFFFF AND DUP2 MSTORE PUSH1 0x20 ADD PUSH1 0x60 DUP2 MSTORE PUSH1 0x20 ADD PUSH1 0x0 DUP2 MSTORE POP SWAP1 JUMP JUMPDEST DUP3 DUP1 SLOAD PUSH1 0x1 DUP2 PUSH1 0x1 AND ISZERO PUSH2 0x100 MUL SUB AND PUSH1 0x2 SWAP1 DIV SWAP1 PUSH1 0x0 MSTORE PUSH1 0x20 PUSH1 0x0 KECCAK256 SWAP1 PUSH1 0x1F ADD PUSH1 0x20 SWAP1 DIV DUP2 ADD SWAP3 DUP3 PUSH1 0x1F LT PUSH3 0x37D JUMPI DUP1 MLOAD PUSH1 0xFF NOT AND DUP4 DUP1 ADD OR DUP6 SSTORE PUSH3 0x3AE JUMP JUMPDEST DUP3 DUP1 ADD PUSH1 0x1 ADD DUP6 SSTORE DUP3 ISZERO PUSH3 0x3AE JUMPI SWAP2 DUP3 ADD JUMPDEST DUP3 DUP2 GT ISZERO PUSH3 0x3AD JUMPI DUP3 MLOAD DUP3 SSTORE SWAP2 PUSH1 0x20 ADD SWAP2 SWAP1 PUSH1 0x1 ADD SWAP1 PUSH3 0x390 JUMP JUMPDEST JUMPDEST POP SWAP1 POP PUSH3 0x3BD SWAP2 SWAP1 PUSH3 0x3C1 JUMP JUMPDEST POP SWAP1 JUMP JUMPDEST PUSH3 0x3E6 SWAP2 SWAP1 JUMPDEST DUP1 DUP3 GT ISZERO PUSH3 0x3E2 JUMPI PUSH1 0x0 DUP2 PUSH1 0x0 SWAP1 SSTORE POP PUSH1 0x1 ADD PUSH3 0x3C8 JUMP JUMPDEST POP SWAP1 JUMP JUMPDEST SWAP1 JUMP JUMPDEST PUSH2 0x14BB DUP1 PUSH3 0x3F9 PUSH1 0x0 CODECOPY PUSH1 0x0 RETURN INVALID PUSH1 0x80 PUSH1 0x40 MSTORE CALLVALUE DUP1 ISZERO PUSH2 0x10 JUMPI PUSH1 0x0 DUP1 REVERT JUMPDEST POP PUSH1 0x4 CALLDATASIZE LT PUSH2 0xA5 JUMPI PUSH1 0x0 CALLDATALOAD PUSH29 0x100000000000000000000000000000000000000000000000000000000 SWAP1 DIV DUP1 PUSH4 0x9ACE38C2 GT PUSH2 0x78 JUMPI DUP1 PUSH4 0x9ACE38C2 EQ PUSH2 0x1E8 JUMPI DUP1 PUSH4 0xA4D62F9A EQ PUSH2 0x311 JUMPI DUP1 PUSH4 0xB98C19C4 EQ PUSH2 0x31B JUMPI DUP1 PUSH4 0xCBD056C8 EQ PUSH2 0x398 JUMPI PUSH2 0xA5 JUMP JUMPDEST DUP1 PUSH4 0xB41573F EQ PUSH2 0xAA JUMPI DUP1 PUSH4 0x79CA5CA4 EQ PUSH2 0x10E JUMPI DUP1 PUSH4 0x8DA5CB5B EQ PUSH2 0x172 JUMPI DUP1 PUSH4 0x98FA582A EQ PUSH2 0x1BC JUMPI JUMPDEST PUSH1 0x0 DUP1 REVERT JUMPDEST PUSH2 0x10C PUSH1 0x4 DUP1 CALLDATASIZE SUB PUSH1 0x40 DUP2 LT ISZERO PUSH2 0xC0 JUMPI PUSH1 0x0 DUP1 REVERT JUMPDEST DUP2 ADD SWAP1 DUP1 DUP1 CALLDATALOAD PUSH20 0xFFFFFFFFFFFFFFFFFFFFFFFFFFFFFFFFFFFFFFFF AND SWAP1 PUSH1 0x20 ADD SWAP1 SWAP3 SWAP2 SWAP1 DUP1 CALLDATALOAD PUSH20 0xFFFFFFFFFFFFFFFFFFFFFFFFFFFFFFFFFFFFFFFF AND SWAP1 PUSH1 0x20 ADD SWAP1 SWAP3 SWAP2 SWAP1 POP POP POP PUSH2 0x3A2 JUMP JUMPDEST STOP JUMPDEST PUSH2 0x170 PUSH1 0x4 DUP1 CALLDATASIZE SUB PUSH1 0x40 DUP2 LT ISZERO PUSH2 0x124 JUMPI PUSH1 0x0 DUP1 REVERT JUMPDEST DUP2 ADD SWAP1 DUP1 DUP1 CALLDATALOAD PUSH20 0xFFFFFFFFFFFFFFFFFFFFFFFFFFFFFFFFFFFFFFFF AND SWAP1 PUSH1 0x20 ADD SWAP1 SWAP3 SWAP2 SWAP1 DUP1 CALLDATALOAD PUSH20 0xFFFFFFFFFFFFFFFFFFFFFFFFFFFFFFFFFFFFFFFF AND SWAP1 PUSH1 0x20 ADD SWAP1 SWAP3 SWAP2 SWAP1 POP POP POP PUSH2 0x626 JUMP JUMPDEST STOP JUMPDEST PUSH2 0x17A PUSH2 0x929 JUMP JUMPDEST PUSH1 0x40 MLOAD DUP1 DUP3 PUSH20 0xFFFFFFFFFFFFFFFFFFFFFFFFFFFFFFFFFFFFFFFF AND PUSH20 0xFFFFFFFFFFFFFFFFFFFFFFFFFFFFFFFFFFFFFFFF AND DUP2 MSTORE PUSH1 0x20 ADD SWAP2 POP POP PUSH1 0x40 MLOAD DUP1 SWAP2 SUB SWAP1 RETURN JUMPDEST PUSH2 0x1C4 PUSH2 0x94F JUMP JUMPDEST PUSH1 0x40 MLOAD DUP1 DUP3 PUSH1 0x4 DUP2 GT ISZERO PUSH2 0x1D4 JUMPI INVALID JUMPDEST PUSH1 0xFF AND DUP2 MSTORE PUSH1 0x20 ADD SWAP2 POP POP PUSH1 0x40 MLOAD DUP1 SWAP2 SUB SWAP1 RETURN JUMPDEST PUSH2 0x214 PUSH1 0x4 DUP1 CALLDATASIZE SUB PUSH1 0x20 DUP2 LT ISZERO PUSH2 0x1FE JUMPI PUSH1 0x0 DUP1 REVERT JUMPDEST DUP2 ADD SWAP1 DUP1 DUP1 CALLDATALOAD SWAP1 PUSH1 0x20 ADD SWAP1 SWAP3 SWAP2 SWAP1 POP POP POP PUSH2 0x961 JUMP JUMPDEST PUSH1 0x40 MLOAD DUP1 DUP7 PUSH1 0x5 DUP2 GT ISZERO PUSH2 0x224 JUMPI INVALID JUMPDEST PUSH1 0xFF AND DUP2 MSTORE PUSH1 0x20 ADD DUP6 PUSH20 0xFFFFFFFFFFFFFFFFFFFFFFFFFFFFFFFFFFFFFFFF AND PUSH20 0xFFFFFFFFFFFFFFFFFFFFFFFFFFFFFFFFFFFFFFFF AND DUP2 MSTORE PUSH1 0x20 ADD DUP5 PUSH20 0xFFFFFFFFFFFFFFFFFFFFFFFFFFFFFFFFFFFFFFFF AND PUSH20 0xFFFFFFFFFFFFFFFFFFFFFFFFFFFFFFFFFFFFFFFF AND DUP2 MSTORE PUSH1 0x20 ADD DUP1 PUSH1 0x20 ADD DUP4 DUP2 MSTORE PUSH1 0x20 ADD DUP3 DUP2 SUB DUP3 MSTORE DUP5 DUP2 DUP2 MLOAD DUP2 MSTORE PUSH1 0x20 ADD SWAP2 POP DUP1 MLOAD SWAP1 PUSH1 0x20 ADD SWAP1 DUP1 DUP4 DUP4 PUSH1 0x0 JUMPDEST DUP4 DUP2 LT ISZERO PUSH2 0x2D2 JUMPI DUP1 DUP3 ADD MLOAD DUP2 DUP5 ADD MSTORE PUSH1 0x20 DUP2 ADD SWAP1 POP PUSH2 0x2B7 JUMP JUMPDEST POP POP POP POP SWAP1 POP SWAP1 DUP2 ADD SWAP1 PUSH1 0x1F AND DUP1 ISZERO PUSH2 0x2FF JUMPI DUP1 DUP3 SUB DUP1 MLOAD PUSH1 0x1 DUP4 PUSH1 0x20 SUB PUSH2 0x100 EXP SUB NOT AND DUP2 MSTORE PUSH1 0x20 ADD SWAP2 POP JUMPDEST POP SWAP7 POP POP POP POP POP POP POP PUSH1 0x40 MLOAD DUP1 SWAP2 SUB SWAP1 RETURN JUMPDEST PUSH2 0x319 PUSH2 0xA8B JUMP JUMPDEST STOP JUMPDEST PUSH2 0x323 PUSH2 0xDF2 JUMP JUMPDEST PUSH1 0x40 MLOAD DUP1 DUP4 PUSH20 0xFFFFFFFFFFFFFFFFFFFFFFFFFFFFFFFFFFFFFFFF AND PUSH20 0xFFFFFFFFFFFFFFFFFFFFFFFFFFFFFFFFFFFFFFFF AND DUP2 MSTORE PUSH1 0x20 ADD DUP3 PUSH20 0xFFFFFFFFFFFFFFFFFFFFFFFFFFFFFFFFFFFFFFFF AND PUSH20 0xFFFFFFFFFFFFFFFFFFFFFFFFFFFFFFFFFFFFFFFF AND DUP2 MSTORE PUSH1 0x20 ADD SWAP3 POP POP POP PUSH1 0x40 MLOAD DUP1 SWAP2 SUB SWAP1 RETURN JUMPDEST PUSH2 0x3A0 PUSH2 0xF6C JUMP JUMPDEST STOP JUMPDEST PUSH1 0x1 PUSH1 0x0 SWAP1 SLOAD SWAP1 PUSH2 0x100 EXP SWAP1 DIV PUSH20 0xFFFFFFFFFFFFFFFFFFFFFFFFFFFFFFFFFFFFFFFF AND PUSH20 0xFFFFFFFFFFFFFFFFFFFFFFFFFFFFFFFFFFFFFFFF AND DUP3 PUSH20 0xFFFFFFFFFFFFFFFFFFFFFFFFFFFFFFFFFFFFFFFF AND EQ ISZERO ISZERO PUSH2 0x44A JUMPI PUSH1 0x40 MLOAD PUSH32 0x8C379A000000000000000000000000000000000000000000000000000000000 DUP2 MSTORE PUSH1 0x4 ADD DUP1 DUP1 PUSH1 0x20 ADD DUP3 DUP2 SUB DUP3 MSTORE PUSH1 0x31 DUP2 MSTORE PUSH1 0x20 ADD DUP1 PUSH2 0x13E0 PUSH1 0x31 SWAP2 CODECOPY PUSH1 0x40 ADD SWAP2 POP POP PUSH1 0x40 MLOAD DUP1 SWAP2 SUB SWAP1 REVERT JUMPDEST PUSH1 0x3 PUSH1 0x0 DUP1 PUSH2 0x100 EXP DUP2 SLOAD DUP2 PUSH1 0xFF MUL NOT AND SWAP1 DUP4 PUSH1 0x4 DUP2 GT ISZERO PUSH2 0x468 JUMPI INVALID JUMPDEST MUL OR SWAP1 SSTORE POP PUSH2 0x475 PUSH2 0x12D3 JUMP JUMPDEST PUSH1 0x3 DUP2 PUSH1 0x0 ADD SWAP1 PUSH1 0x5 DUP2 GT ISZERO PUSH2 0x487 JUMPI INVALID JUMPDEST SWAP1 DUP2 PUSH1 0x5 DUP2 GT ISZERO PUSH2 0x494 JUMPI INVALID JUMPDEST DUP2 MSTORE POP POP DUP3 DUP2 PUSH1 0x20 ADD SWAP1 PUSH20 0xFFFFFFFFFFFFFFFFFFFFFFFFFFFFFFFFFFFFFFFF AND SWAP1 DUP2 PUSH20 0xFFFFFFFFFFFFFFFFFFFFFFFFFFFFFFFFFFFFFFFF AND DUP2 MSTORE POP POP DUP2 DUP2 PUSH1 0x40 ADD SWAP1 PUSH20 0xFFFFFFFFFFFFFFFFFFFFFFFFFFFFFFFFFFFFFFFF AND SWAP1 DUP2 PUSH20 0xFFFFFFFFFFFFFFFFFFFFFFFFFFFFFFFFFFFFFFFF AND DUP2 MSTORE POP POP TIMESTAMP DUP2 PUSH1 0x80 ADD DUP2 DUP2 MSTORE POP POP PUSH1 0x2 DUP2 SWAP1 DUP1 PUSH1 0x1 DUP2 SLOAD ADD DUP1 DUP3 SSTORE DUP1 SWAP2 POP POP SWAP1 PUSH1 0x1 DUP3 SUB SWAP1 PUSH1 0x0 MSTORE PUSH1 0x20 PUSH1 0x0 KECCAK256 SWAP1 PUSH1 0x4 MUL ADD PUSH1 0x0 SWAP1 SWAP2 SWAP3 SWAP1 SWAP2 SWAP1 SWAP2 POP PUSH1 0x0 DUP3 ADD MLOAD DUP2 PUSH1 0x0 ADD PUSH1 0x0 PUSH2 0x100 EXP DUP2 SLOAD DUP2 PUSH1 0xFF MUL NOT AND SWAP1 DUP4 PUSH1 0x5 DUP2 GT ISZERO PUSH2 0x564 JUMPI INVALID JUMPDEST MUL OR SWAP1 SSTORE POP PUSH1 0x20 DUP3 ADD MLOAD DUP2 PUSH1 0x0 ADD PUSH1 0x1 PUSH2 0x100 EXP DUP2 SLOAD DUP2 PUSH20 0xFFFFFFFFFFFFFFFFFFFFFFFFFFFFFFFFFFFFFFFF MUL NOT AND SWAP1 DUP4 PUSH20 0xFFFFFFFFFFFFFFFFFFFFFFFFFFFFFFFFFFFFFFFF AND MUL OR SWAP1 SSTORE POP PUSH1 0x40 DUP3 ADD MLOAD DUP2 PUSH1 0x1 ADD PUSH1 0x0 PUSH2 0x100 EXP DUP2 SLOAD DUP2 PUSH20 0xFFFFFFFFFFFFFFFFFFFFFFFFFFFFFFFFFFFFFFFF MUL NOT AND SWAP1 DUP4 PUSH20 0xFFFFFFFFFFFFFFFFFFFFFFFFFFFFFFFFFFFFFFFF AND MUL OR SWAP1 SSTORE POP PUSH1 0x60 DUP3 ADD MLOAD DUP2 PUSH1 0x2 ADD SWAP1 DUP1 MLOAD SWAP1 PUSH1 0x20 ADD SWAP1 PUSH2 0x613 SWAP3 SWAP2 SWAP1 PUSH2 0x133A JUMP JUMPDEST POP PUSH1 0x80 DUP3 ADD MLOAD DUP2 PUSH1 0x3 ADD SSTORE POP POP POP POP POP POP JUMP JUMPDEST PUSH1 0x1 PUSH1 0x0 SWAP1 SLOAD SWAP1 PUSH2 0x100 EXP SWAP1 DIV PUSH20 0xFFFFFFFFFFFFFFFFFFFFFFFFFFFFFFFFFFFFFFFF AND PUSH20 0xFFFFFFFFFFFFFFFFFFFFFFFFFFFFFFFFFFFFFFFF AND DUP3 PUSH20 0xFFFFFFFFFFFFFFFFFFFFFFFFFFFFFFFFFFFFFFFF AND EQ ISZERO ISZERO PUSH2 0x6CE JUMPI PUSH1 0x40 MLOAD PUSH32 0x8C379A000000000000000000000000000000000000000000000000000000000 DUP2 MSTORE PUSH1 0x4 ADD DUP1 DUP1 PUSH1 0x20 ADD DUP3 DUP2 SUB DUP3 MSTORE PUSH1 0x2D DUP2 MSTORE PUSH1 0x20 ADD DUP1 PUSH2 0x1442 PUSH1 0x2D SWAP2 CODECOPY PUSH1 0x40 ADD SWAP2 POP POP PUSH1 0x40 MLOAD DUP1 SWAP2 SUB SWAP1 REVERT JUMPDEST PUSH1 0x0 PUSH1 0x4 DUP2 GT ISZERO PUSH2 0x6DB JUMPI INVALID JUMPDEST PUSH1 0x0 DUP1 SWAP1 SLOAD SWAP1 PUSH2 0x100 EXP SWAP1 DIV PUSH1 0xFF AND PUSH1 0x4 DUP2 GT ISZERO PUSH2 0x6F5 JUMPI INVALID JUMPDEST EQ ISZERO ISZERO PUSH2 0x74D JUMPI PUSH1 0x40 MLOAD PUSH32 0x8C379A000000000000000000000000000000000000000000000000000000000 DUP2 MSTORE PUSH1 0x4 ADD DUP1 DUP1 PUSH1 0x20 ADD DUP3 DUP2 SUB DUP3 MSTORE PUSH1 0x31 DUP2 MSTORE PUSH1 0x20 ADD DUP1 PUSH2 0x1411 PUSH1 0x31 SWAP2 CODECOPY PUSH1 0x40 ADD SWAP2 POP POP PUSH1 0x40 MLOAD DUP1 SWAP2 SUB SWAP1 REVERT JUMPDEST PUSH1 0x1 PUSH1 0x0 DUP1 PUSH2 0x100 EXP DUP2 SLOAD DUP2 PUSH1 0xFF MUL NOT AND SWAP1 DUP4 PUSH1 0x4 DUP2 GT ISZERO PUSH2 0x76B JUMPI INVALID JUMPDEST MUL OR SWAP1 SSTORE POP PUSH2 0x778 PUSH2 0x12D3 JUMP JUMPDEST PUSH1 0x1 DUP2 PUSH1 0x0 ADD SWAP1 PUSH1 0x5 DUP2 GT ISZERO PUSH2 0x78A JUMPI INVALID JUMPDEST SWAP1 DUP2 PUSH1 0x5 DUP2 GT ISZERO PUSH2 0x797 JUMPI INVALID JUMPDEST DUP2 MSTORE POP POP DUP3 DUP2 PUSH1 0x20 ADD SWAP1 PUSH20 0xFFFFFFFFFFFFFFFFFFFFFFFFFFFFFFFFFFFFFFFF AND SWAP1 DUP2 PUSH20 0xFFFFFFFFFFFFFFFFFFFFFFFFFFFFFFFFFFFFFFFF AND DUP2 MSTORE POP POP DUP2 DUP2 PUSH1 0x40 ADD SWAP1 PUSH20 0xFFFFFFFFFFFFFFFFFFFFFFFFFFFFFFFFFFFFFFFF AND SWAP1 DUP2 PUSH20 0xFFFFFFFFFFFFFFFFFFFFFFFFFFFFFFFFFFFFFFFF AND DUP2 MSTORE POP POP TIMESTAMP DUP2 PUSH1 0x80 ADD DUP2 DUP2 MSTORE POP POP PUSH1 0x2 DUP2 SWAP1 DUP1 PUSH1 0x1 DUP2 SLOAD ADD DUP1 DUP3 SSTORE DUP1 SWAP2 POP POP SWAP1 PUSH1 0x1 DUP3 SUB SWAP1 PUSH1 0x0 MSTORE PUSH1 0x20 PUSH1 0x0 KECCAK256 SWAP1 PUSH1 0x4 MUL ADD PUSH1 0x0 SWAP1 SWAP2 SWAP3 SWAP1 SWAP2 SWAP1 SWAP2 POP PUSH1 0x0 DUP3 ADD MLOAD DUP2 PUSH1 0x0 ADD PUSH1 0x0 PUSH2 0x100 EXP DUP2 SLOAD DUP2 PUSH1 0xFF MUL NOT AND SWAP1 DUP4 PUSH1 0x5 DUP2 GT ISZERO PUSH2 0x867 JUMPI INVALID JUMPDEST MUL OR SWAP1 SSTORE POP PUSH1 0x20 DUP3 ADD MLOAD DUP2 PUSH1 0x0 ADD PUSH1 0x1 PUSH2 0x100 EXP DUP2 SLOAD DUP2 PUSH20 0xFFFFFFFFFFFFFFFFFFFFFFFFFFFFFFFFFFFFFFFF MUL NOT AND SWAP1 DUP4 PUSH20 0xFFFFFFFFFFFFFFFFFFFFFFFFFFFFFFFFFFFFFFFF AND MUL OR SWAP1 SSTORE POP PUSH1 0x40 DUP3 ADD MLOAD DUP2 PUSH1 0x1 ADD PUSH1 0x0 PUSH2 0x100 EXP DUP2 SLOAD DUP2 PUSH20 0xFFFFFFFFFFFFFFFFFFFFFFFFFFFFFFFFFFFFFFFF MUL NOT AND SWAP1 DUP4 PUSH20 0xFFFFFFFFFFFFFFFFFFFFFFFFFFFFFFFFFFFFFFFF AND MUL OR SWAP1 SSTORE POP PUSH1 0x60 DUP3 ADD MLOAD DUP2 PUSH1 0x2 ADD SWAP1 DUP1 MLOAD SWAP1 PUSH1 0x20 ADD SWAP1 PUSH2 0x916 SWAP3 SWAP2 SWAP1 PUSH2 0x133A JUMP JUMPDEST POP PUSH1 0x80 DUP3 ADD MLOAD DUP2 PUSH1 0x3 ADD SSTORE POP POP POP POP POP POP JUMP JUMPDEST PUSH1 0x1 PUSH1 0x0 SWAP1 SLOAD SWAP1 PUSH2 0x100 EXP SWAP1 DIV PUSH20 0xFFFFFFFFFFFFFFFFFFFFFFFFFFFFFFFFFFFFFFFF AND DUP2 JUMP JUMPDEST PUSH1 0x0 DUP1 SWAP1 SLOAD SWAP1 PUSH2 0x100 EXP SWAP1 DIV PUSH1 0xFF AND DUP2 JUMP JUMPDEST PUSH1 0x2 DUP2 DUP2 SLOAD DUP2 LT ISZERO ISZERO PUSH2 0x970 JUMPI INVALID JUMPDEST SWAP1 PUSH1 0x0 MSTORE PUSH1 0x20 PUSH1 0x0 KECCAK256 SWAP1 PUSH1 0x4 MUL ADD PUSH1 0x0 SWAP2 POP SWAP1 POP DUP1 PUSH1 0x0 ADD PUSH1 0x0 SWAP1 SLOAD SWAP1 PUSH2 0x100 EXP SWAP1 DIV PUSH1 0xFF AND SWAP1 DUP1 PUSH1 0x0 ADD PUSH1 0x1 SWAP1 SLOAD SWAP1 PUSH2 0x100 EXP SWAP1 DIV PUSH20 0xFFFFFFFFFFFFFFFFFFFFFFFFFFFFFFFFFFFFFFFF AND SWAP1 DUP1 PUSH1 0x1 ADD PUSH1 0x0 SWAP1 SLOAD SWAP1 PUSH2 0x100 EXP SWAP1 DIV PUSH20 0xFFFFFFFFFFFFFFFFFFFFFFFFFFFFFFFFFFFFFFFF AND SWAP1 DUP1 PUSH1 0x2 ADD DUP1 SLOAD PUSH1 0x1 DUP2 PUSH1 0x1 AND ISZERO PUSH2 0x100 MUL SUB AND PUSH1 0x2 SWAP1 DIV DUP1 PUSH1 0x1F ADD PUSH1 0x20 DUP1 SWAP2 DIV MUL PUSH1 0x20 ADD PUSH1 0x40 MLOAD SWAP1 DUP2 ADD PUSH1 0x40 MSTORE DUP1 SWAP3 SWAP2 SWAP1 DUP2 DUP2 MSTORE PUSH1 0x20 ADD DUP3 DUP1 SLOAD PUSH1 0x1 DUP2 PUSH1 0x1 AND ISZERO PUSH2 0x100 MUL SUB AND PUSH1 0x2 SWAP1 DIV DUP1 ISZERO PUSH2 0xA7B JUMPI DUP1 PUSH1 0x1F LT PUSH2 0xA50 JUMPI PUSH2 0x100 DUP1 DUP4 SLOAD DIV MUL DUP4 MSTORE SWAP2 PUSH1 0x20 ADD SWAP2 PUSH2 0xA7B JUMP JUMPDEST DUP3 ADD SWAP2 SWAP1 PUSH1 0x0 MSTORE PUSH1 0x20 PUSH1 0x0 KECCAK256 SWAP1 JUMPDEST DUP2 SLOAD DUP2 MSTORE SWAP1 PUSH1 0x1 ADD SWAP1 PUSH1 0x20 ADD DUP1 DUP4 GT PUSH2 0xA5E JUMPI DUP3 SWAP1 SUB PUSH1 0x1F AND DUP3 ADD SWAP2 JUMPDEST POP POP POP POP POP SWAP1 DUP1 PUSH1 0x3 ADD SLOAD SWAP1 POP DUP6 JUMP JUMPDEST PUSH1 0x0 DUP1 PUSH1 0x0 PUSH2 0x100 EXP DUP2 SLOAD DUP2 PUSH1 0xFF MUL NOT AND SWAP1 DUP4 PUSH1 0x4 DUP2 GT ISZERO PUSH2 0xAA9 JUMPI INVALID JUMPDEST MUL OR SWAP1 SSTORE POP PUSH2 0xAB6 PUSH2 0x12D3 JUMP JUMPDEST PUSH1 0x2 PUSH1 0x1 PUSH1 0x2 DUP1 SLOAD SWAP1 POP SUB DUP2 SLOAD DUP2 LT ISZERO ISZERO PUSH2 0xACD JUMPI INVALID JUMPDEST SWAP1 PUSH1 0x0 MSTORE PUSH1 0x20 PUSH1 0x0 KECCAK256 SWAP1 PUSH1 0x4 MUL ADD PUSH1 0xA0 PUSH1 0x40 MLOAD SWAP1 DUP2 ADD PUSH1 0x40 MSTORE SWAP1 DUP2 PUSH1 0x0 DUP3 ADD PUSH1 0x0 SWAP1 SLOAD SWAP1 PUSH2 0x100 EXP SWAP1 DIV PUSH1 0xFF AND PUSH1 0x5 DUP2 GT ISZERO PUSH2 0xB05 JUMPI INVALID JUMPDEST PUSH1 0x5 DUP2 GT ISZERO PUSH2 0xB10 JUMPI INVALID JUMPDEST DUP2 MSTORE PUSH1 0x20 ADD PUSH1 0x0 DUP3 ADD PUSH1 0x1 SWAP1 SLOAD SWAP1 PUSH2 0x100 EXP SWAP1 DIV PUSH20 0xFFFFFFFFFFFFFFFFFFFFFFFFFFFFFFFFFFFFFFFF AND PUSH20 0xFFFFFFFFFFFFFFFFFFFFFFFFFFFFFFFFFFFFFFFF AND PUSH20 0xFFFFFFFFFFFFFFFFFFFFFFFFFFFFFFFFFFFFFFFF AND DUP2 MSTORE PUSH1 0x20 ADD PUSH1 0x1 DUP3 ADD PUSH1 0x0 SWAP1 SLOAD SWAP1 PUSH2 0x100 EXP SWAP1 DIV PUSH20 0xFFFFFFFFFFFFFFFFFFFFFFFFFFFFFFFFFFFFFFFF AND PUSH20 0xFFFFFFFFFFFFFFFFFFFFFFFFFFFFFFFFFFFFFFFF AND PUSH20 0xFFFFFFFFFFFFFFFFFFFFFFFFFFFFFFFFFFFFFFFF AND DUP2 MSTORE PUSH1 0x20 ADD PUSH1 0x2 DUP3 ADD DUP1 SLOAD PUSH1 0x1 DUP2 PUSH1 0x1 AND ISZERO PUSH2 0x100 MUL SUB AND PUSH1 0x2 SWAP1 DIV DUP1 PUSH1 0x1F ADD PUSH1 0x20 DUP1 SWAP2 DIV MUL PUSH1 0x20 ADD PUSH1 0x40 MLOAD SWAP1 DUP2 ADD PUSH1 0x40 MSTORE DUP1 SWAP3 SWAP2 SWAP1 DUP2 DUP2 MSTORE PUSH1 0x20 ADD DUP3 DUP1 SLOAD PUSH1 0x1 DUP2 PUSH1 0x1 AND ISZERO PUSH2 0x100 MUL SUB AND PUSH1 0x2 SWAP1 DIV DUP1 ISZERO PUSH2 0xC59 JUMPI DUP1 PUSH1 0x1F LT PUSH2 0xC2E JUMPI PUSH2 0x100 DUP1 DUP4 SLOAD DIV MUL DUP4 MSTORE SWAP2 PUSH1 0x20 ADD SWAP2 PUSH2 0xC59 JUMP JUMPDEST DUP3 ADD SWAP2 SWAP1 PUSH1 0x0 MSTORE PUSH1 0x20 PUSH1 0x0 KECCAK256 SWAP1 JUMPDEST DUP2 SLOAD DUP2 MSTORE SWAP1 PUSH1 0x1 ADD SWAP1 PUSH1 0x20 ADD DUP1 DUP4 GT PUSH2 0xC3C JUMPI DUP3 SWAP1 SUB PUSH1 0x1F AND DUP3 ADD SWAP2 JUMPDEST POP POP POP POP POP DUP2 MSTORE PUSH1 0x20 ADD PUSH1 0x3 DUP3 ADD SLOAD DUP2 MSTORE POP POP SWAP1 POP DUP1 PUSH1 0x40 ADD MLOAD PUSH1 0x1 PUSH1 0x0 PUSH2 0x100 EXP DUP2 SLOAD DUP2 PUSH20 0xFFFFFFFFFFFFFFFFFFFFFFFFFFFFFFFFFFFFFFFF MUL NOT AND SWAP1 DUP4 PUSH20 0xFFFFFFFFFFFFFFFFFFFFFFFFFFFFFFFFFFFFFFFF AND MUL OR SWAP1 SSTORE POP PUSH1 0x4 DUP2 PUSH1 0x0 ADD SWAP1 PUSH1 0x5 DUP2 GT ISZERO PUSH2 0xCC5 JUMPI INVALID JUMPDEST SWAP1 DUP2 PUSH1 0x5 DUP2 GT ISZERO PUSH2 0xCD2 JUMPI INVALID JUMPDEST DUP2 MSTORE POP POP TIMESTAMP DUP2 PUSH1 0x80 ADD DUP2 DUP2 MSTORE POP POP PUSH1 0x2 DUP2 SWAP1 DUP1 PUSH1 0x1 DUP2 SLOAD ADD DUP1 DUP3 SSTORE DUP1 SWAP2 POP POP SWAP1 PUSH1 0x1 DUP3 SUB SWAP1 PUSH1 0x0 MSTORE PUSH1 0x20 PUSH1 0x0 KECCAK256 SWAP1 PUSH1 0x4 MUL ADD PUSH1 0x0 SWAP1 SWAP2 SWAP3 SWAP1 SWAP2 SWAP1 SWAP2 POP PUSH1 0x0 DUP3 ADD MLOAD DUP2 PUSH1 0x0 ADD PUSH1 0x0 PUSH2 0x100 EXP DUP2 SLOAD DUP2 PUSH1 0xFF MUL NOT AND SWAP1 DUP4 PUSH1 0x5 DUP2 GT ISZERO PUSH2 0xD32 JUMPI INVALID JUMPDEST MUL OR SWAP1 SSTORE POP PUSH1 0x20 DUP3 ADD MLOAD DUP2 PUSH1 0x0 ADD PUSH1 0x1 PUSH2 0x100 EXP DUP2 SLOAD DUP2 PUSH20 0xFFFFFFFFFFFFFFFFFFFFFFFFFFFFFFFFFFFFFFFF MUL NOT AND SWAP1 DUP4 PUSH20 0xFFFFFFFFFFFFFFFFFFFFFFFFFFFFFFFFFFFFFFFF AND MUL OR SWAP1 SSTORE POP PUSH1 0x40 DUP3 ADD MLOAD DUP2 PUSH1 0x1 ADD PUSH1 0x0 PUSH2 0x100 EXP DUP2 SLOAD DUP2 PUSH20 0xFFFFFFFFFFFFFFFFFFFFFFFFFFFFFFFFFFFFFFFF MUL NOT AND SWAP1 DUP4 PUSH20 0xFFFFFFFFFFFFFFFFFFFFFFFFFFFFFFFFFFFFFFFF AND MUL OR SWAP1 SSTORE POP PUSH1 0x60 DUP3 ADD MLOAD DUP2 PUSH1 0x2 ADD SWAP1 DUP1 MLOAD SWAP1 PUSH1 0x20 ADD SWAP1 PUSH2 0xDE1 SWAP3 SWAP2 SWAP1 PUSH2 0x133A JUMP JUMPDEST POP PUSH1 0x80 DUP3 ADD MLOAD DUP2 PUSH1 0x3 ADD SSTORE POP POP POP POP JUMP JUMPDEST PUSH1 0x0 DUP1 PUSH1 0x1 PUSH1 0x4 DUP2 GT ISZERO PUSH2 0xE02 JUMPI INVALID JUMPDEST PUSH1 0x0 DUP1 SWAP1 SLOAD SWAP1 PUSH2 0x100 EXP SWAP1 DIV PUSH1 0xFF AND PUSH1 0x4 DUP2 GT ISZERO PUSH2 0xE1C JUMPI INVALID JUMPDEST EQ DUP1 PUSH2 0xE4C JUMPI POP PUSH1 0x2 PUSH1 0x4 DUP2 GT ISZERO PUSH2 0xE30 JUMPI INVALID JUMPDEST PUSH1 0x0 DUP1 SWAP1 SLOAD SWAP1 PUSH2 0x100 EXP SWAP1 DIV PUSH1 0xFF AND PUSH1 0x4 DUP2 GT ISZERO PUSH2 0xE4A JUMPI INVALID JUMPDEST EQ JUMPDEST DUP1 PUSH2 0xE7B JUMPI POP PUSH1 0x3 PUSH1 0x4 DUP2 GT ISZERO PUSH2 0xE5F JUMPI INVALID JUMPDEST PUSH1 0x0 DUP1 SWAP1 SLOAD SWAP1 PUSH2 0x100 EXP SWAP1 DIV PUSH1 0xFF AND PUSH1 0x4 DUP2 GT ISZERO PUSH2 0xE79 JUMPI INVALID JUMPDEST EQ JUMPDEST ISZERO ISZERO PUSH2 0xED2 JUMPI PUSH1 0x40 MLOAD PUSH32 0x8C379A000000000000000000000000000000000000000000000000000000000 DUP2 MSTORE PUSH1 0x4 ADD DUP1 DUP1 PUSH1 0x20 ADD DUP3 DUP2 SUB DUP3 MSTORE PUSH1 0x21 DUP2 MSTORE PUSH1 0x20 ADD DUP1 PUSH2 0x146F PUSH1 0x21 SWAP2 CODECOPY PUSH1 0x40 ADD SWAP2 POP POP PUSH1 0x40 MLOAD DUP1 SWAP2 SUB SWAP1 REVERT JUMPDEST PUSH1 0x2 PUSH1 0x1 PUSH1 0x2 DUP1 SLOAD SWAP1 POP SUB DUP2 SLOAD DUP2 LT ISZERO ISZERO PUSH2 0xEE9 JUMPI INVALID JUMPDEST SWAP1 PUSH1 0x0 MSTORE PUSH1 0x20 PUSH1 0x0 KECCAK256 SWAP1 PUSH1 0x4 MUL ADD PUSH1 0x0 ADD PUSH1 0x1 SWAP1 SLOAD SWAP1 PUSH2 0x100 EXP SWAP1 DIV PUSH20 0xFFFFFFFFFFFFFFFFFFFFFFFFFFFFFFFFFFFFFFFF AND SWAP2 POP PUSH1 0x2 PUSH1 0x1 PUSH1 0x2 DUP1 SLOAD SWAP1 POP SUB DUP2 SLOAD DUP2 LT ISZERO ISZERO PUSH2 0xF34 JUMPI INVALID JUMPDEST SWAP1 PUSH1 0x0 MSTORE PUSH1 0x20 PUSH1 0x0 KECCAK256 SWAP1 PUSH1 0x4 MUL ADD PUSH1 0x1 ADD PUSH1 0x0 SWAP1 SLOAD SWAP1 PUSH2 0x100 EXP SWAP1 DIV PUSH20 0xFFFFFFFFFFFFFFFFFFFFFFFFFFFFFFFFFFFFFFFF AND SWAP1 POP SWAP1 SWAP2 JUMP JUMPDEST PUSH1 0x2 PUSH1 0x0 DUP1 PUSH2 0x100 EXP DUP2 SLOAD DUP2 PUSH1 0xFF MUL NOT AND SWAP1 DUP4 PUSH1 0x4 DUP2 GT ISZERO PUSH2 0xF8A JUMPI INVALID JUMPDEST MUL OR SWAP1 SSTORE POP PUSH2 0xF97 PUSH2 0x12D3 JUMP JUMPDEST PUSH1 0x2 PUSH1 0x1 PUSH1 0x2 DUP1 SLOAD SWAP1 POP SUB DUP2 SLOAD DUP2 LT ISZERO ISZERO PUSH2 0xFAE JUMPI INVALID JUMPDEST SWAP1 PUSH1 0x0 MSTORE PUSH1 0x20 PUSH1 0x0 KECCAK256 SWAP1 PUSH1 0x4 MUL ADD PUSH1 0xA0 PUSH1 0x40 MLOAD SWAP1 DUP2 ADD PUSH1 0x40 MSTORE SWAP1 DUP2 PUSH1 0x0 DUP3 ADD PUSH1 0x0 SWAP1 SLOAD SWAP1 PUSH2 0x100 EXP SWAP1 DIV PUSH1 0xFF AND PUSH1 0x5 DUP2 GT ISZERO PUSH2 0xFE6 JUMPI INVALID JUMPDEST PUSH1 0x5 DUP2 GT ISZERO PUSH2 0xFF1 JUMPI INVALID JUMPDEST DUP2 MSTORE PUSH1 0x20 ADD PUSH1 0x0 DUP3 ADD PUSH1 0x1 SWAP1 SLOAD SWAP1 PUSH2 0x100 EXP SWAP1 DIV PUSH20 0xFFFFFFFFFFFFFFFFFFFFFFFFFFFFFFFFFFFFFFFF AND PUSH20 0xFFFFFFFFFFFFFFFFFFFFFFFFFFFFFFFFFFFFFFFF AND PUSH20 0xFFFFFFFFFFFFFFFFFFFFFFFFFFFFFFFFFFFFFFFF AND DUP2 MSTORE PUSH1 0x20 ADD PUSH1 0x1 DUP3 ADD PUSH1 0x0 SWAP1 SLOAD SWAP1 PUSH2 0x100 EXP SWAP1 DIV PUSH20 0xFFFFFFFFFFFFFFFFFFFFFFFFFFFFFFFFFFFFFFFF AND PUSH20 0xFFFFFFFFFFFFFFFFFFFFFFFFFFFFFFFFFFFFFFFF AND PUSH20 0xFFFFFFFFFFFFFFFFFFFFFFFFFFFFFFFFFFFFFFFF AND DUP2 MSTORE PUSH1 0x20 ADD PUSH1 0x2 DUP3 ADD DUP1 SLOAD PUSH1 0x1 DUP2 PUSH1 0x1 AND ISZERO PUSH2 0x100 MUL SUB AND PUSH1 0x2 SWAP1 DIV DUP1 PUSH1 0x1F ADD PUSH1 0x20 DUP1 SWAP2 DIV MUL PUSH1 0x20 ADD PUSH1 0x40 MLOAD SWAP1 DUP2 ADD PUSH1 0x40 MSTORE DUP1 SWAP3 SWAP2 SWAP1 DUP2 DUP2 MSTORE PUSH1 0x20 ADD DUP3 DUP1 SLOAD PUSH1 0x1 DUP2 PUSH1 0x1 AND ISZERO PUSH2 0x100 MUL SUB AND PUSH1 0x2 SWAP1 DIV DUP1 ISZERO PUSH2 0x113A JUMPI DUP1 PUSH1 0x1F LT PUSH2 0x110F JUMPI PUSH2 0x100 DUP1 DUP4 SLOAD DIV MUL DUP4 MSTORE SWAP2 PUSH1 0x20 ADD SWAP2 PUSH2 0x113A JUMP JUMPDEST DUP3 ADD SWAP2 SWAP1 PUSH1 0x0 MSTORE PUSH1 0x20 PUSH1 0x0 KECCAK256 SWAP1 JUMPDEST DUP2 SLOAD DUP2 MSTORE SWAP1 PUSH1 0x1 ADD SWAP1 PUSH1 0x20 ADD DUP1 DUP4 GT PUSH2 0x111D JUMPI DUP3 SWAP1 SUB PUSH1 0x1F AND DUP3 ADD SWAP2 JUMPDEST POP POP POP POP POP DUP2 MSTORE PUSH1 0x20 ADD PUSH1 0x3 DUP3 ADD SLOAD DUP2 MSTORE POP POP SWAP1 POP DUP1 PUSH1 0x40 ADD MLOAD PUSH1 0x1 PUSH1 0x0 PUSH2 0x100 EXP DUP2 SLOAD DUP2 PUSH20 0xFFFFFFFFFFFFFFFFFFFFFFFFFFFFFFFFFFFFFFFF MUL NOT AND SWAP1 DUP4 PUSH20 0xFFFFFFFFFFFFFFFFFFFFFFFFFFFFFFFFFFFFFFFF AND MUL OR SWAP1 SSTORE POP PUSH1 0x2 DUP2 PUSH1 0x0 ADD SWAP1 PUSH1 0x5 DUP2 GT ISZERO PUSH2 0x11A6 JUMPI INVALID JUMPDEST SWAP1 DUP2 PUSH1 0x5 DUP2 GT ISZERO PUSH2 0x11B3 JUMPI INVALID JUMPDEST DUP2 MSTORE POP POP TIMESTAMP DUP2 PUSH1 0x80 ADD DUP2 DUP2 MSTORE POP POP PUSH1 0x2 DUP2 SWAP1 DUP1 PUSH1 0x1 DUP2 SLOAD ADD DUP1 DUP3 SSTORE DUP1 SWAP2 POP POP SWAP1 PUSH1 0x1 DUP3 SUB SWAP1 PUSH1 0x0 MSTORE PUSH1 0x20 PUSH1 0x0 KECCAK256 SWAP1 PUSH1 0x4 MUL ADD PUSH1 0x0 SWAP1 SWAP2 SWAP3 SWAP1 SWAP2 SWAP1 SWAP2 POP PUSH1 0x0 DUP3 ADD MLOAD DUP2 PUSH1 0x0 ADD PUSH1 0x0 PUSH2 0x100 EXP DUP2 SLOAD DUP2 PUSH1 0xFF MUL NOT AND SWAP1 DUP4 PUSH1 0x5 DUP2 GT ISZERO PUSH2 0x1213 JUMPI INVALID JUMPDEST MUL OR SWAP1 SSTORE POP PUSH1 0x20 DUP3 ADD MLOAD DUP2 PUSH1 0x0 ADD PUSH1 0x1 PUSH2 0x100 EXP DUP2 SLOAD DUP2 PUSH20 0xFFFFFFFFFFFFFFFFFFFFFFFFFFFFFFFFFFFFFFFF MUL NOT AND SWAP1 DUP4 PUSH20 0xFFFFFFFFFFFFFFFFFFFFFFFFFFFFFFFFFFFFFFFF AND MUL OR SWAP1 SSTORE POP PUSH1 0x40 DUP3 ADD MLOAD DUP2 PUSH1 0x1 ADD PUSH1 0x0 PUSH2 0x100 EXP DUP2 SLOAD DUP2 PUSH20 0xFFFFFFFFFFFFFFFFFFFFFFFFFFFFFFFFFFFFFFFF MUL NOT AND SWAP1 DUP4 PUSH20 0xFFFFFFFFFFFFFFFFFFFFFFFFFFFFFFFFFFFFFFFF AND MUL OR SWAP1 SSTORE POP PUSH1 0x60 DUP3 ADD MLOAD DUP2 PUSH1 0x2 ADD SWAP1 DUP1 MLOAD SWAP1 PUSH1 0x20 ADD SWAP1 PUSH2 0x12C2 SWAP3 SWAP2 SWAP1 PUSH2 0x133A JUMP JUMPDEST POP PUSH1 0x80 DUP3 ADD MLOAD DUP2 PUSH1 0x3 ADD SSTORE POP POP POP POP JUMP JUMPDEST PUSH1 0xA0 PUSH1 0x40 MLOAD SWAP1 DUP2 ADD PUSH1 0x40 MSTORE DUP1 PUSH1 0x0 PUSH1 0x5 DUP2 GT ISZERO PUSH2 0x12EC JUMPI INVALID JUMPDEST DUP2 MSTORE PUSH1 0x20 ADD PUSH1 0x0 PUSH20 0xFFFFFFFFFFFFFFFFFFFFFFFFFFFFFFFFFFFFFFFF AND DUP2 MSTORE PUSH1 0x20 ADD PUSH1 0x0 PUSH20 0xFFFFFFFFFFFFFFFFFFFFFFFFFFFFFFFFFFFFFFFF AND DUP2 MSTORE PUSH1 0x20 ADD PUSH1 0x60 DUP2 MSTORE PUSH1 0x20 ADD PUSH1 0x0 DUP2 MSTORE POP SWAP1 JUMP JUMPDEST DUP3 DUP1 SLOAD PUSH1 0x1 DUP2 PUSH1 0x1 AND ISZERO PUSH2 0x100 MUL SUB AND PUSH1 0x2 SWAP1 DIV SWAP1 PUSH1 0x0 MSTORE PUSH1 0x20 PUSH1 0x0 KECCAK256 SWAP1 PUSH1 0x1F ADD PUSH1 0x20 SWAP1 DIV DUP2 ADD SWAP3 DUP3 PUSH1 0x1F LT PUSH2 0x137B JUMPI DUP1 MLOAD PUSH1 0xFF NOT AND DUP4 DUP1 ADD OR DUP6 SSTORE PUSH2 0x13A9 JUMP JUMPDEST DUP3 DUP1 ADD PUSH1 0x1 ADD DUP6 SSTORE DUP3 ISZERO PUSH2 0x13A9 JUMPI SWAP2 DUP3 ADD JUMPDEST DUP3 DUP2 GT ISZERO PUSH2 0x13A8 JUMPI DUP3 MLOAD DUP3 SSTORE SWAP2 PUSH1 0x20 ADD SWAP2 SWAP1 PUSH1 0x1 ADD SWAP1 PUSH2 0x138D JUMP JUMPDEST JUMPDEST POP SWAP1 POP PUSH2 0x13B6 SWAP2 SWAP1 PUSH2 0x13BA JUMP JUMPDEST POP SWAP1 JUMP JUMPDEST PUSH2 0x13DC SWAP2 SWAP1 JUMPDEST DUP1 DUP3 GT ISZERO PUSH2 0x13D8 JUMPI PUSH1 0x0 DUP2 PUSH1 0x0 SWAP1 SSTORE POP PUSH1 0x1 ADD PUSH2 0x13C0 JUMP JUMPDEST POP SWAP1 JUMP JUMPDEST SWAP1 JUMP INVALID PUSH16 0x6E6C79206F776E6572206F6620746865 KECCAK256 PUSH2 0x7373 PUSH6 0x742063616E20 PUSH2 0x736B KECCAK256 PUSH7 0x6F7220656E6420 SLOAD PUSH19 0x616E73706F727443616E206E6F742061736B20 PUSH7 0x6F72207472616E PUSH20 0x706F7274206966206173736574206973206E6F74 KECCAK256 PUSH24 0x616974696E674F6E6C79206F776E6572206F662074686520 PUSH2 0x7373 PUSH6 0x742063616E20 PUSH2 0x736B KECCAK256 PUSH7 0x6F72207472616E PUSH20 0x706F72746173736574206973206E6F742070656E PUSH5 0x696E67206F PUSH7 0x207472616E7370 PUSH16 0x7274A165627A7A723058207A5995534A 0x2c 0x1f 0xe6 JUMPDEST 0xd2 SWAP14 PUSH4 0x568AFAC6 0x2a RETURNDATASIZE ADD DUP12 DIV CREATE BLOCKHASH CODECOPY SHL 0xa5 SWAP10 CODESIZE PUSH22 0xAA042C002950726F647563657220697320616C726561 PUSH5 0x7920696E20 PUSH21 0x68652073797374656DA165627A7A7230582041B754 DUP1 0xf6 CODESIZE AND MLOAD SHL LOG0 PUSH9 0x181D1EFC9E6FEB0E21 CODESIZE 0xea PUSH7 0xF930B6AB35F35E 0xa6 0x4e STOP 0x29 PUSH1 0x80 PUSH1 0x40 MSTORE CALLVALUE DUP1 ISZERO PUSH2 0x10 JUMPI PUSH1 0x0 DUP1 REVERT JUMPDEST POP PUSH1 0x40 MLOAD PUSH1 0x20 DUP1 PUSH2 0x6EA DUP4 CODECOPY DUP2 ADD DUP1 PUSH1 0x40 MSTORE PUSH1 0x20 DUP2 LT ISZERO PUSH2 0x30 JUMPI PUSH1 0x0 DUP1 REVERT JUMPDEST DUP2 ADD SWAP1 DUP1 DUP1 MLOAD SWAP1 PUSH1 0x20 ADD SWAP1 SWAP3 SWAP2 SWAP1 POP POP POP DUP1 PUSH1 0x0 DUP1 PUSH2 0x100 EXP DUP2 SLOAD DUP2 PUSH20 0xFFFFFFFFFFFFFFFFFFFFFFFFFFFFFFFFFFFFFFFF MUL NOT AND SWAP1 DUP4 PUSH20 0xFFFFFFFFFFFFFFFFFFFFFFFFFFFFFFFFFFFFFFFF AND MUL OR SWAP1 SSTORE POP POP PUSH2 0x659 DUP1 PUSH2 0x91 PUSH1 0x0 CODECOPY PUSH1 0x0 RETURN INVALID PUSH1 0x80 PUSH1 0x40 MSTORE CALLVALUE DUP1 ISZERO PUSH2 0x10 JUMPI PUSH1 0x0 DUP1 REVERT JUMPDEST POP PUSH1 0x4 CALLDATASIZE LT PUSH2 0x5E JUMPI PUSH1 0x0 CALLDATALOAD PUSH29 0x100000000000000000000000000000000000000000000000000000000 SWAP1 DIV DUP1 PUSH4 0x1302ED1F EQ PUSH2 0x63 JUMPI DUP1 PUSH4 0x2B8109D5 EQ PUSH2 0x156 JUMPI DUP1 PUSH4 0xDA3898FE EQ PUSH2 0x1B2 JUMPI JUMPDEST PUSH1 0x0 DUP1 REVERT JUMPDEST PUSH2 0x13C PUSH1 0x4 DUP1 CALLDATASIZE SUB PUSH1 0x40 DUP2 LT ISZERO PUSH2 0x79 JUMPI PUSH1 0x0 DUP1 REVERT JUMPDEST DUP2 ADD SWAP1 DUP1 DUP1 CALLDATALOAD PUSH20 0xFFFFFFFFFFFFFFFFFFFFFFFFFFFFFFFFFFFFFFFF AND SWAP1 PUSH1 0x20 ADD SWAP1 SWAP3 SWAP2 SWAP1 DUP1 CALLDATALOAD SWAP1 PUSH1 0x20 ADD SWAP1 PUSH5 0x100000000 DUP2 GT ISZERO PUSH2 0xB6 JUMPI PUSH1 0x0 DUP1 REVERT JUMPDEST DUP3 ADD DUP4 PUSH1 0x20 DUP3 ADD GT ISZERO PUSH2 0xC8 JUMPI PUSH1 0x0 DUP1 REVERT JUMPDEST DUP1 CALLDATALOAD SWAP1 PUSH1 0x20 ADD SWAP2 DUP5 PUSH1 0x1 DUP4 MUL DUP5 ADD GT PUSH5 0x100000000 DUP4 GT OR ISZERO PUSH2 0xEA JUMPI PUSH1 0x0 DUP1 REVERT JUMPDEST SWAP2 SWAP1 DUP1 DUP1 PUSH1 0x1F ADD PUSH1 0x20 DUP1 SWAP2 DIV MUL PUSH1 0x20 ADD PUSH1 0x40 MLOAD SWAP1 DUP2 ADD PUSH1 0x40 MSTORE DUP1 SWAP4 SWAP3 SWAP2 SWAP1 DUP2 DUP2 MSTORE PUSH1 0x20 ADD DUP4 DUP4 DUP1 DUP3 DUP5 CALLDATACOPY PUSH1 0x0 DUP2 DUP5 ADD MSTORE PUSH1 0x1F NOT PUSH1 0x1F DUP3 ADD AND SWAP1 POP DUP1 DUP4 ADD SWAP3 POP POP POP POP POP POP POP SWAP2 SWAP3 SWAP2 SWAP3 SWAP1 POP POP POP PUSH2 0x220 JUMP JUMPDEST PUSH1 0x40 MLOAD DUP1 DUP3 ISZERO ISZERO ISZERO ISZERO DUP2 MSTORE PUSH1 0x20 ADD SWAP2 POP POP PUSH1 0x40 MLOAD DUP1 SWAP2 SUB SWAP1 RETURN JUMPDEST PUSH2 0x198 PUSH1 0x4 DUP1 CALLDATASIZE SUB PUSH1 0x20 DUP2 LT ISZERO PUSH2 0x16C JUMPI PUSH1 0x0 DUP1 REVERT JUMPDEST DUP2 ADD SWAP1 DUP1 DUP1 CALLDATALOAD PUSH20 0xFFFFFFFFFFFFFFFFFFFFFFFFFFFFFFFFFFFFFFFF AND SWAP1 PUSH1 0x20 ADD SWAP1 SWAP3 SWAP2 SWAP1 POP POP POP PUSH2 0x45C JUMP JUMPDEST PUSH1 0x40 MLOAD DUP1 DUP3 ISZERO ISZERO ISZERO ISZERO DUP2 MSTORE PUSH1 0x20 ADD SWAP2 POP POP PUSH1 0x40 MLOAD DUP1 SWAP2 SUB SWAP1 RETURN JUMPDEST PUSH2 0x1DE PUSH1 0x4 DUP1 CALLDATASIZE SUB PUSH1 0x20 DUP2 LT ISZERO PUSH2 0x1C8 JUMPI PUSH1 0x0 DUP1 REVERT JUMPDEST DUP2 ADD SWAP1 DUP1 DUP1 CALLDATALOAD SWAP1 PUSH1 0x20 ADD SWAP1 SWAP3 SWAP2 SWAP1 POP POP POP PUSH2 0x526 JUMP JUMPDEST PUSH1 0x40 MLOAD DUP1 DUP3 PUSH20 0xFFFFFFFFFFFFFFFFFFFFFFFFFFFFFFFFFFFFFFFF AND PUSH20 0xFFFFFFFFFFFFFFFFFFFFFFFFFFFFFFFFFFFFFFFF AND DUP2 MSTORE PUSH1 0x20 ADD SWAP2 POP POP PUSH1 0x40 MLOAD DUP1 SWAP2 SUB SWAP1 RETURN JUMPDEST PUSH1 0x0 DUP1 PUSH1 0x0 SWAP1 SLOAD SWAP1 PUSH2 0x100 EXP SWAP1 DIV PUSH20 0xFFFFFFFFFFFFFFFFFFFFFFFFFFFFFFFFFFFFFFFF AND PUSH20 0xFFFFFFFFFFFFFFFFFFFFFFFFFFFFFFFFFFFFFFFF AND CALLER PUSH20 0xFFFFFFFFFFFFFFFFFFFFFFFFFFFFFFFFFFFFFFFF AND EQ ISZERO ISZERO PUSH2 0x2E6 JUMPI PUSH1 0x40 MLOAD PUSH32 0x8C379A000000000000000000000000000000000000000000000000000000000 DUP2 MSTORE PUSH1 0x4 ADD DUP1 DUP1 PUSH1 0x20 ADD DUP3 DUP2 SUB DUP3 MSTORE PUSH1 0x18 DUP2 MSTORE PUSH1 0x20 ADD DUP1 PUSH32 0x6F6E6C792054432063616E20646F20746869732063616C6C0000000000000000 DUP2 MSTORE POP PUSH1 0x20 ADD SWAP2 POP POP PUSH1 0x40 MLOAD DUP1 SWAP2 SUB SWAP1 REVERT JUMPDEST PUSH1 0x0 ISZERO ISZERO PUSH2 0x2F3 DUP5 PUSH2 0x45C JUMP JUMPDEST ISZERO ISZERO EQ ISZERO ISZERO PUSH2 0x34D JUMPI PUSH1 0x40 MLOAD PUSH32 0x8C379A000000000000000000000000000000000000000000000000000000000 DUP2 MSTORE PUSH1 0x4 ADD DUP1 DUP1 PUSH1 0x20 ADD DUP3 DUP2 SUB DUP3 MSTORE PUSH1 0x24 DUP2 MSTORE PUSH1 0x20 ADD DUP1 PUSH2 0x60A PUSH1 0x24 SWAP2 CODECOPY PUSH1 0x40 ADD SWAP2 POP POP PUSH1 0x40 MLOAD DUP1 SWAP2 SUB SWAP1 REVERT JUMPDEST DUP2 PUSH1 0x1 PUSH1 0x0 DUP6 PUSH20 0xFFFFFFFFFFFFFFFFFFFFFFFFFFFFFFFFFFFFFFFF AND PUSH20 0xFFFFFFFFFFFFFFFFFFFFFFFFFFFFFFFFFFFFFFFF AND DUP2 MSTORE PUSH1 0x20 ADD SWAP1 DUP2 MSTORE PUSH1 0x20 ADD PUSH1 0x0 KECCAK256 PUSH1 0x0 ADD SWAP1 DUP1 MLOAD SWAP1 PUSH1 0x20 ADD SWAP1 PUSH2 0x3A3 SWAP3 SWAP2 SWAP1 PUSH2 0x564 JUMP JUMPDEST POP PUSH1 0x1 PUSH1 0x2 DUP5 SWAP1 DUP1 PUSH1 0x1 DUP2 SLOAD ADD DUP1 DUP3 SSTORE DUP1 SWAP2 POP POP SWAP1 PUSH1 0x1 DUP3 SUB SWAP1 PUSH1 0x0 MSTORE PUSH1 0x20 PUSH1 0x0 KECCAK256 ADD PUSH1 0x0 SWAP1 SWAP2 SWAP3 SWAP1 SWAP2 SWAP1 SWAP2 PUSH2 0x100 EXP DUP2 SLOAD DUP2 PUSH20 0xFFFFFFFFFFFFFFFFFFFFFFFFFFFFFFFFFFFFFFFF MUL NOT AND SWAP1 DUP4 PUSH20 0xFFFFFFFFFFFFFFFFFFFFFFFFFFFFFFFFFFFFFFFF AND MUL OR SWAP1 SSTORE POP SUB PUSH1 0x1 PUSH1 0x0 DUP6 PUSH20 0xFFFFFFFFFFFFFFFFFFFFFFFFFFFFFFFFFFFFFFFF AND PUSH20 0xFFFFFFFFFFFFFFFFFFFFFFFFFFFFFFFFFFFFFFFF AND DUP2 MSTORE PUSH1 0x20 ADD SWAP1 DUP2 MSTORE PUSH1 0x20 ADD PUSH1 0x0 KECCAK256 PUSH1 0x1 ADD DUP2 SWAP1 SSTORE POP PUSH1 0x1 SWAP1 POP SWAP3 SWAP2 POP POP JUMP JUMPDEST PUSH1 0x0 DUP1 PUSH1 0x2 DUP1 SLOAD SWAP1 POP EQ ISZERO PUSH2 0x474 JUMPI PUSH1 0x0 SWAP1 POP PUSH2 0x521 JUMP JUMPDEST DUP2 PUSH20 0xFFFFFFFFFFFFFFFFFFFFFFFFFFFFFFFFFFFFFFFF AND PUSH1 0x2 PUSH1 0x1 PUSH1 0x0 DUP6 PUSH20 0xFFFFFFFFFFFFFFFFFFFFFFFFFFFFFFFFFFFFFFFF AND PUSH20 0xFFFFFFFFFFFFFFFFFFFFFFFFFFFFFFFFFFFFFFFF AND DUP2 MSTORE PUSH1 0x20 ADD SWAP1 DUP2 MSTORE PUSH1 0x20 ADD PUSH1 0x0 KECCAK256 PUSH1 0x1 ADD SLOAD DUP2 SLOAD DUP2 LT ISZERO ISZERO PUSH2 0x4DC JUMPI INVALID JUMPDEST SWAP1 PUSH1 0x0 MSTORE PUSH1 0x20 PUSH1 0x0 KECCAK256 ADD PUSH1 0x0 SWAP1 SLOAD SWAP1 PUSH2 0x100 EXP SWAP1 DIV PUSH20 0xFFFFFFFFFFFFFFFFFFFFFFFFFFFFFFFFFFFFFFFF AND PUSH20 0xFFFFFFFFFFFFFFFFFFFFFFFFFFFFFFFFFFFFFFFF AND EQ SWAP1 POP JUMPDEST SWAP2 SWAP1 POP JUMP JUMPDEST PUSH1 0x2 DUP2 DUP2 SLOAD DUP2 LT ISZERO ISZERO PUSH2 0x535 JUMPI INVALID JUMPDEST SWAP1 PUSH1 0x0 MSTORE PUSH1 0x20 PUSH1 0x0 KECCAK256 ADD PUSH1 0x0 SWAP2 POP SLOAD SWAP1 PUSH2 0x100 EXP SWAP1 DIV PUSH20 0xFFFFFFFFFFFFFFFFFFFFFFFFFFFFFFFFFFFFFFFF AND DUP2 JUMP JUMPDEST DUP3 DUP1 SLOAD PUSH1 0x1 DUP2 PUSH1 0x1 AND ISZERO PUSH2 0x100 MUL SUB AND PUSH1 0x2 SWAP1 DIV SWAP1 PUSH1 0x0 MSTORE PUSH1 0x20 PUSH1 0x0 KECCAK256 SWAP1 PUSH1 0x1F ADD PUSH1 0x20 SWAP1 DIV DUP2 ADD SWAP3 DUP3 PUSH1 0x1F LT PUSH2 0x5A5 JUMPI DUP1 MLOAD PUSH1 0xFF NOT AND DUP4 DUP1 ADD OR DUP6 SSTORE PUSH2 0x5D3 JUMP JUMPDEST DUP3 DUP1 ADD PUSH1 0x1 ADD DUP6 SSTORE DUP3 ISZERO PUSH2 0x5D3 JUMPI SWAP2 DUP3 ADD JUMPDEST DUP3 DUP2 GT ISZERO PUSH2 0x5D2 JUMPI DUP3 MLOAD DUP3 SSTORE SWAP2 PUSH1 0x20 ADD SWAP2 SWAP1 PUSH1 0x1 ADD SWAP1 PUSH2 0x5B7 JUMP JUMPDEST JUMPDEST POP SWAP1 POP PUSH2 0x5E0 SWAP2 SWAP1 PUSH2 0x5E4 JUMP JUMPDEST POP SWAP1 JUMP JUMPDEST PUSH2 0x606 SWAP2 SWAP1 JUMPDEST DUP1 DUP3 GT ISZERO PUSH2 0x602 JUMPI PUSH1 0x0 DUP2 PUSH1 0x0 SWAP1 SSTORE POP PUSH1 0x1 ADD PUSH2 0x5EA JUMP JUMPDEST POP SWAP1 JUMP JUMPDEST SWAP1 JUMP INVALID SLOAD PUSH19 0x616E73706F7274657220697320616C72656164 PUSH26 0x20696E207468652073797374656DA165627A7A72305820751005 LOG1 0x5c DUP13 0x5d MUL LOG2 ADD PUSH24 0x4A5BBD64314C947A493DE12B9B133EFDE4FC555DEA002960 DUP1 PUSH1 0x40 MSTORE CALLVALUE DUP1 ISZERO PUSH2 0x10 JUMPI PUSH1 0x0 DUP1 REVERT JUMPDEST POP PUSH1 0x40 MLOAD PUSH1 0x20 DUP1 PUSH2 0xF0F DUP4 CODECOPY DUP2 ADD DUP1 PUSH1 0x40 MSTORE PUSH1 0x20 DUP2 LT ISZERO PUSH2 0x30 JUMPI PUSH1 0x0 DUP1 REVERT JUMPDEST DUP2 ADD SWAP1 DUP1 DUP1 MLOAD SWAP1 PUSH1 0x20 ADD SWAP1 SWAP3 SWAP2 SWAP1 POP POP POP DUP1 PUSH1 0x0 DUP1 PUSH2 0x100 EXP DUP2 SLOAD DUP2 PUSH20 0xFFFFFFFFFFFFFFFFFFFFFFFFFFFFFFFFFFFFFFFF MUL NOT AND SWAP1 DUP4 PUSH20 0xFFFFFFFFFFFFFFFFFFFFFFFFFFFFFFFFFFFFFFFF AND MUL OR SWAP1 SSTORE POP POP PUSH2 0xE7E DUP1 PUSH2 0x91 PUSH1 0x0 CODECOPY PUSH1 0x0 RETURN INVALID PUSH1 0x80 PUSH1 0x40 MSTORE CALLVALUE DUP1 ISZERO PUSH2 0x10 JUMPI PUSH1 0x0 DUP1 REVERT JUMPDEST POP PUSH1 0x4 CALLDATASIZE LT PUSH2 0x74 JUMPI PUSH1 0x0 CALLDATALOAD PUSH29 0x100000000000000000000000000000000000000000000000000000000 SWAP1 DIV DUP1 PUSH4 0x79320A1 EQ PUSH2 0x79 JUMPI DUP1 PUSH4 0x1D0E8A4D EQ PUSH2 0xE7 JUMPI DUP1 PUSH4 0x62E6115A EQ PUSH2 0x143 JUMPI DUP1 PUSH4 0x91104740 EQ PUSH2 0x1BF JUMPI DUP1 PUSH4 0x9B7E02EB EQ PUSH2 0x23B JUMPI JUMPDEST PUSH1 0x0 DUP1 REVERT JUMPDEST PUSH2 0xA5 PUSH1 0x4 DUP1 CALLDATASIZE SUB PUSH1 0x20 DUP2 LT ISZERO PUSH2 0x8F JUMPI PUSH1 0x0 DUP1 REVERT JUMPDEST DUP2 ADD SWAP1 DUP1 DUP1 CALLDATALOAD SWAP1 PUSH1 0x20 ADD SWAP1 SWAP3 SWAP2 SWAP1 POP POP POP PUSH2 0x32A JUMP JUMPDEST PUSH1 0x40 MLOAD DUP1 DUP3 PUSH20 0xFFFFFFFFFFFFFFFFFFFFFFFFFFFFFFFFFFFFFFFF AND PUSH20 0xFFFFFFFFFFFFFFFFFFFFFFFFFFFFFFFFFFFFFFFF AND DUP2 MSTORE PUSH1 0x20 ADD SWAP2 POP POP PUSH1 0x40 MLOAD DUP1 SWAP2 SUB SWAP1 RETURN JUMPDEST PUSH2 0x129 PUSH1 0x4 DUP1 CALLDATASIZE SUB PUSH1 0x20 DUP2 LT ISZERO PUSH2 0xFD JUMPI PUSH1 0x0 DUP1 REVERT JUMPDEST DUP2 ADD SWAP1 DUP1 DUP1 CALLDATALOAD PUSH20 0xFFFFFFFFFFFFFFFFFFFFFFFFFFFFFFFFFFFFFFFF AND SWAP1 PUSH1 0x20 ADD SWAP1 SWAP3 SWAP2 SWAP1 POP POP POP PUSH2 0x368 JUMP JUMPDEST PUSH1 0x40 MLOAD DUP1 DUP3 ISZERO ISZERO ISZERO ISZERO DUP2 MSTORE PUSH1 0x20 ADD SWAP2 POP POP PUSH1 0x40 MLOAD DUP1 SWAP2 SUB SWAP1 RETURN JUMPDEST PUSH2 0x1A5 PUSH1 0x4 DUP1 CALLDATASIZE SUB PUSH1 0x40 DUP2 LT ISZERO PUSH2 0x159 JUMPI PUSH1 0x0 DUP1 REVERT JUMPDEST DUP2 ADD SWAP1 DUP1 DUP1 CALLDATALOAD PUSH20 0xFFFFFFFFFFFFFFFFFFFFFFFFFFFFFFFFFFFFFFFF AND SWAP1 PUSH1 0x20 ADD SWAP1 SWAP3 SWAP2 SWAP1 DUP1 CALLDATALOAD PUSH20 0xFFFFFFFFFFFFFFFFFFFFFFFFFFFFFFFFFFFFFFFF AND SWAP1 PUSH1 0x20 ADD SWAP1 SWAP3 SWAP2 SWAP1 POP POP POP PUSH2 0x432 JUMP JUMPDEST PUSH1 0x40 MLOAD DUP1 DUP3 ISZERO ISZERO ISZERO ISZERO DUP2 MSTORE PUSH1 0x20 ADD SWAP2 POP POP PUSH1 0x40 MLOAD DUP1 SWAP2 SUB SWAP1 RETURN JUMPDEST PUSH2 0x221 PUSH1 0x4 DUP1 CALLDATASIZE SUB PUSH1 0x40 DUP2 LT ISZERO PUSH2 0x1D5 JUMPI PUSH1 0x0 DUP1 REVERT JUMPDEST DUP2 ADD SWAP1 DUP1 DUP1 CALLDATALOAD PUSH20 0xFFFFFFFFFFFFFFFFFFFFFFFFFFFFFFFFFFFFFFFF AND SWAP1 PUSH1 0x20 ADD SWAP1 SWAP3 SWAP2 SWAP1 DUP1 CALLDATALOAD PUSH20 0xFFFFFFFFFFFFFFFFFFFFFFFFFFFFFFFFFFFFFFFF AND SWAP1 PUSH1 0x20 ADD SWAP1 SWAP3 SWAP2 SWAP1 POP POP POP PUSH2 0x6A9 JUMP JUMPDEST PUSH1 0x40 MLOAD DUP1 DUP3 ISZERO ISZERO ISZERO ISZERO DUP2 MSTORE PUSH1 0x20 ADD SWAP2 POP POP PUSH1 0x40 MLOAD DUP1 SWAP2 SUB SWAP1 RETURN JUMPDEST PUSH2 0x314 PUSH1 0x4 DUP1 CALLDATASIZE SUB PUSH1 0x40 DUP2 LT ISZERO PUSH2 0x251 JUMPI PUSH1 0x0 DUP1 REVERT JUMPDEST DUP2 ADD SWAP1 DUP1 DUP1 CALLDATALOAD PUSH20 0xFFFFFFFFFFFFFFFFFFFFFFFFFFFFFFFFFFFFFFFF AND SWAP1 PUSH1 0x20 ADD SWAP1 SWAP3 SWAP2 SWAP1 DUP1 CALLDATALOAD SWAP1 PUSH1 0x20 ADD SWAP1 PUSH5 0x100000000 DUP2 GT ISZERO PUSH2 0x28E JUMPI PUSH1 0x0 DUP1 REVERT JUMPDEST DUP3 ADD DUP4 PUSH1 0x20 DUP3 ADD GT ISZERO PUSH2 0x2A0 JUMPI PUSH1 0x0 DUP1 REVERT JUMPDEST DUP1 CALLDATALOAD SWAP1 PUSH1 0x20 ADD SWAP2 DUP5 PUSH1 0x1 DUP4 MUL DUP5 ADD GT PUSH5 0x100000000 DUP4 GT OR ISZERO PUSH2 0x2C2 JUMPI PUSH1 0x0 DUP1 REVERT JUMPDEST SWAP2 SWAP1 DUP1 DUP1 PUSH1 0x1F ADD PUSH1 0x20 DUP1 SWAP2 DIV MUL PUSH1 0x20 ADD PUSH1 0x40 MLOAD SWAP1 DUP2 ADD PUSH1 0x40 MSTORE DUP1 SWAP4 SWAP3 SWAP2 SWAP1 DUP2 DUP2 MSTORE PUSH1 0x20 ADD DUP4 DUP4 DUP1 DUP3 DUP5 CALLDATACOPY PUSH1 0x0 DUP2 DUP5 ADD MSTORE PUSH1 0x1F NOT PUSH1 0x1F DUP3 ADD AND SWAP1 POP DUP1 DUP4 ADD SWAP3 POP POP POP POP POP POP POP SWAP2 SWAP3 SWAP2 SWAP3 SWAP1 POP POP POP PUSH2 0xB21 JUMP JUMPDEST PUSH1 0x40 MLOAD DUP1 DUP3 DUP2 MSTORE PUSH1 0x20 ADD SWAP2 POP POP PUSH1 0x40 MLOAD DUP1 SWAP2 SUB SWAP1 RETURN JUMPDEST PUSH1 0x2 DUP2 DUP2 SLOAD DUP2 LT ISZERO ISZERO PUSH2 0x339 JUMPI INVALID JUMPDEST SWAP1 PUSH1 0x0 MSTORE PUSH1 0x20 PUSH1 0x0 KECCAK256 ADD PUSH1 0x0 SWAP2 POP SLOAD SWAP1 PUSH2 0x100 EXP SWAP1 DIV PUSH20 0xFFFFFFFFFFFFFFFFFFFFFFFFFFFFFFFFFFFFFFFF AND DUP2 JUMP JUMPDEST PUSH1 0x0 DUP1 PUSH1 0x2 DUP1 SLOAD SWAP1 POP EQ ISZERO PUSH2 0x380 JUMPI PUSH1 0x0 SWAP1 POP PUSH2 0x42D JUMP JUMPDEST DUP2 PUSH20 0xFFFFFFFFFFFFFFFFFFFFFFFFFFFFFFFFFFFFFFFF AND PUSH1 0x2 PUSH1 0x1 PUSH1 0x0 DUP6 PUSH20 0xFFFFFFFFFFFFFFFFFFFFFFFFFFFFFFFFFFFFFFFF AND PUSH20 0xFFFFFFFFFFFFFFFFFFFFFFFFFFFFFFFFFFFFFFFF AND DUP2 MSTORE PUSH1 0x20 ADD SWAP1 DUP2 MSTORE PUSH1 0x20 ADD PUSH1 0x0 KECCAK256 PUSH1 0x1 ADD SLOAD DUP2 SLOAD DUP2 LT ISZERO ISZERO PUSH2 0x3E8 JUMPI INVALID JUMPDEST SWAP1 PUSH1 0x0 MSTORE PUSH1 0x20 PUSH1 0x0 KECCAK256 ADD PUSH1 0x0 SWAP1 SLOAD SWAP1 PUSH2 0x100 EXP SWAP1 DIV PUSH20 0xFFFFFFFFFFFFFFFFFFFFFFFFFFFFFFFFFFFFFFFF AND PUSH20 0xFFFFFFFFFFFFFFFFFFFFFFFFFFFFFFFFFFFFFFFF AND EQ SWAP1 POP JUMPDEST SWAP2 SWAP1 POP JUMP JUMPDEST PUSH1 0x0 DUP1 PUSH1 0x0 SWAP1 SLOAD SWAP1 PUSH2 0x100 EXP SWAP1 DIV PUSH20 0xFFFFFFFFFFFFFFFFFFFFFFFFFFFFFFFFFFFFFFFF AND PUSH20 0xFFFFFFFFFFFFFFFFFFFFFFFFFFFFFFFFFFFFFFFF AND CALLER PUSH20 0xFFFFFFFFFFFFFFFFFFFFFFFFFFFFFFFFFFFFFFFF AND EQ ISZERO ISZERO PUSH2 0x4F8 JUMPI PUSH1 0x40 MLOAD PUSH32 0x8C379A000000000000000000000000000000000000000000000000000000000 DUP2 MSTORE PUSH1 0x4 ADD DUP1 DUP1 PUSH1 0x20 ADD DUP3 DUP2 SUB DUP3 MSTORE PUSH1 0x18 DUP2 MSTORE PUSH1 0x20 ADD DUP1 PUSH32 0x6F6E6C792054432063616E20646F20746869732063616C6C0000000000000000 DUP2 MSTORE POP PUSH1 0x20 ADD SWAP2 POP POP PUSH1 0x40 MLOAD DUP1 SWAP2 SUB SWAP1 REVERT JUMPDEST PUSH2 0x501 DUP4 PUSH2 0x368 JUMP JUMPDEST ISZERO ISZERO PUSH2 0x575 JUMPI PUSH1 0x40 MLOAD PUSH32 0x8C379A000000000000000000000000000000000000000000000000000000000 DUP2 MSTORE PUSH1 0x4 ADD DUP1 DUP1 PUSH1 0x20 ADD DUP3 DUP2 SUB DUP3 MSTORE PUSH1 0x1A DUP2 MSTORE PUSH1 0x20 ADD DUP1 PUSH32 0x57726F6E672073686F70416464726573732070726F7669646564000000000000 DUP2 MSTORE POP PUSH1 0x20 ADD SWAP2 POP POP PUSH1 0x40 MLOAD DUP1 SWAP2 SUB SWAP1 REVERT JUMPDEST PUSH1 0x1 DUP1 PUSH1 0x0 DUP6 PUSH20 0xFFFFFFFFFFFFFFFFFFFFFFFFFFFFFFFFFFFFFFFF AND PUSH20 0xFFFFFFFFFFFFFFFFFFFFFFFFFFFFFFFFFFFFFFFF AND DUP2 MSTORE PUSH1 0x20 ADD SWAP1 DUP2 MSTORE PUSH1 0x20 ADD PUSH1 0x0 KECCAK256 PUSH1 0x3 ADD DUP4 SWAP1 DUP1 PUSH1 0x1 DUP2 SLOAD ADD DUP1 DUP3 SSTORE DUP1 SWAP2 POP POP SWAP1 PUSH1 0x1 DUP3 SUB SWAP1 PUSH1 0x0 MSTORE PUSH1 0x20 PUSH1 0x0 KECCAK256 ADD PUSH1 0x0 SWAP1 SWAP2 SWAP3 SWAP1 SWAP2 SWAP1 SWAP2 PUSH2 0x100 EXP DUP2 SLOAD DUP2 PUSH20 0xFFFFFFFFFFFFFFFFFFFFFFFFFFFFFFFFFFFFFFFF MUL NOT AND SWAP1 DUP4 PUSH20 0xFFFFFFFFFFFFFFFFFFFFFFFFFFFFFFFFFFFFFFFF AND MUL OR SWAP1 SSTORE POP SUB PUSH1 0x1 PUSH1 0x0 DUP6 PUSH20 0xFFFFFFFFFFFFFFFFFFFFFFFFFFFFFFFFFFFFFFFF AND PUSH20 0xFFFFFFFFFFFFFFFFFFFFFFFFFFFFFFFFFFFFFFFF AND DUP2 MSTORE PUSH1 0x20 ADD SWAP1 DUP2 MSTORE PUSH1 0x20 ADD PUSH1 0x0 KECCAK256 PUSH1 0x2 ADD PUSH1 0x0 DUP5 PUSH20 0xFFFFFFFFFFFFFFFFFFFFFFFFFFFFFFFFFFFFFFFF AND PUSH20 0xFFFFFFFFFFFFFFFFFFFFFFFFFFFFFFFFFFFFFFFF AND DUP2 MSTORE PUSH1 0x20 ADD SWAP1 DUP2 MSTORE PUSH1 0x20 ADD PUSH1 0x0 KECCAK256 DUP2 SWAP1 SSTORE POP PUSH1 0x1 SWAP1 POP SWAP3 SWAP2 POP POP JUMP JUMPDEST PUSH1 0x0 DUP1 PUSH1 0x0 SWAP1 SLOAD SWAP1 PUSH2 0x100 EXP SWAP1 DIV PUSH20 0xFFFFFFFFFFFFFFFFFFFFFFFFFFFFFFFFFFFFFFFF AND PUSH20 0xFFFFFFFFFFFFFFFFFFFFFFFFFFFFFFFFFFFFFFFF AND CALLER PUSH20 0xFFFFFFFFFFFFFFFFFFFFFFFFFFFFFFFFFFFFFFFF AND EQ ISZERO ISZERO PUSH2 0x76F JUMPI PUSH1 0x40 MLOAD PUSH32 0x8C379A000000000000000000000000000000000000000000000000000000000 DUP2 MSTORE PUSH1 0x4 ADD DUP1 DUP1 PUSH1 0x20 ADD DUP3 DUP2 SUB DUP3 MSTORE PUSH1 0x18 DUP2 MSTORE PUSH1 0x20 ADD DUP1 PUSH32 0x6F6E6C792054432063616E20646F20746869732063616C6C0000000000000000 DUP2 MSTORE POP PUSH1 0x20 ADD SWAP2 POP POP PUSH1 0x40 MLOAD DUP1 SWAP2 SUB SWAP1 REVERT JUMPDEST PUSH2 0x778 DUP4 PUSH2 0x368 JUMP JUMPDEST ISZERO ISZERO PUSH2 0x7EC JUMPI PUSH1 0x40 MLOAD PUSH32 0x8C379A000000000000000000000000000000000000000000000000000000000 DUP2 MSTORE PUSH1 0x4 ADD DUP1 DUP1 PUSH1 0x20 ADD DUP3 DUP2 SUB DUP3 MSTORE PUSH1 0x1A DUP2 MSTORE PUSH1 0x20 ADD DUP1 PUSH32 0x57726F6E672073686F70416464726573732070726F7669646564000000000000 DUP2 MSTORE POP PUSH1 0x20 ADD SWAP2 POP POP PUSH1 0x40 MLOAD DUP1 SWAP2 SUB SWAP1 REVERT JUMPDEST PUSH1 0x0 PUSH1 0x1 PUSH1 0x0 DUP6 PUSH20 0xFFFFFFFFFFFFFFFFFFFFFFFFFFFFFFFFFFFFFFFF AND PUSH20 0xFFFFFFFFFFFFFFFFFFFFFFFFFFFFFFFFFFFFFFFF AND DUP2 MSTORE PUSH1 0x20 ADD SWAP1 DUP2 MSTORE PUSH1 0x20 ADD PUSH1 0x0 KECCAK256 PUSH1 0x3 ADD SWAP1 POP PUSH1 0x0 PUSH1 0x1 PUSH1 0x0 DUP7 PUSH20 0xFFFFFFFFFFFFFFFFFFFFFFFFFFFFFFFFFFFFFFFF AND PUSH20 0xFFFFFFFFFFFFFFFFFFFFFFFFFFFFFFFFFFFFFFFF AND DUP2 MSTORE PUSH1 0x20 ADD SWAP1 DUP2 MSTORE PUSH1 0x20 ADD PUSH1 0x0 KECCAK256 PUSH1 0x2 ADD PUSH1 0x0 DUP6 PUSH20 0xFFFFFFFFFFFFFFFFFFFFFFFFFFFFFFFFFFFFFFFF AND PUSH20 0xFFFFFFFFFFFFFFFFFFFFFFFFFFFFFFFFFFFFFFFF AND DUP2 MSTORE PUSH1 0x20 ADD SWAP1 DUP2 MSTORE PUSH1 0x20 ADD PUSH1 0x0 KECCAK256 SLOAD SWAP1 POP PUSH1 0x0 DUP3 PUSH1 0x1 DUP5 DUP1 SLOAD SWAP1 POP SUB DUP2 SLOAD DUP2 LT ISZERO ISZERO PUSH2 0x8CD JUMPI INVALID JUMPDEST SWAP1 PUSH1 0x0 MSTORE PUSH1 0x20 PUSH1 0x0 KECCAK256 ADD PUSH1 0x0 SWAP1 SLOAD SWAP1 PUSH2 0x100 EXP SWAP1 DIV PUSH20 0xFFFFFFFFFFFFFFFFFFFFFFFFFFFFFFFFFFFFFFFF AND SWAP1 POP DUP1 DUP4 DUP4 DUP2 SLOAD DUP2 LT ISZERO ISZERO PUSH2 0x909 JUMPI INVALID JUMPDEST SWAP1 PUSH1 0x0 MSTORE PUSH1 0x20 PUSH1 0x0 KECCAK256 ADD PUSH1 0x0 PUSH2 0x100 EXP DUP2 SLOAD DUP2 PUSH20 0xFFFFFFFFFFFFFFFFFFFFFFFFFFFFFFFFFFFFFFFF MUL NOT AND SWAP1 DUP4 PUSH20 0xFFFFFFFFFFFFFFFFFFFFFFFFFFFFFFFFFFFFFFFF AND MUL OR SWAP1 SSTORE POP DUP2 PUSH1 0x1 PUSH1 0x0 DUP9 PUSH20 0xFFFFFFFFFFFFFFFFFFFFFFFFFFFFFFFFFFFFFFFF AND PUSH20 0xFFFFFFFFFFFFFFFFFFFFFFFFFFFFFFFFFFFFFFFF AND DUP2 MSTORE PUSH1 0x20 ADD SWAP1 DUP2 MSTORE PUSH1 0x20 ADD PUSH1 0x0 KECCAK256 PUSH1 0x2 ADD PUSH1 0x0 DUP4 PUSH20 0xFFFFFFFFFFFFFFFFFFFFFFFFFFFFFFFFFFFFFFFF AND PUSH20 0xFFFFFFFFFFFFFFFFFFFFFFFFFFFFFFFFFFFFFFFF AND DUP2 MSTORE PUSH1 0x20 ADD SWAP1 DUP2 MSTORE PUSH1 0x20 ADD PUSH1 0x0 KECCAK256 DUP2 SWAP1 SSTORE POP DUP3 DUP1 SLOAD DUP1 SWAP2 SWAP1 PUSH1 0x1 SWAP1 SUB PUSH2 0x9E9 SWAP2 SWAP1 PUSH2 0xD81 JUMP JUMPDEST POP PUSH1 0x1 DUP1 PUSH1 0x0 DUP9 PUSH20 0xFFFFFFFFFFFFFFFFFFFFFFFFFFFFFFFFFFFFFFFF AND PUSH20 0xFFFFFFFFFFFFFFFFFFFFFFFFFFFFFFFFFFFFFFFF AND DUP2 MSTORE PUSH1 0x20 ADD SWAP1 DUP2 MSTORE PUSH1 0x20 ADD PUSH1 0x0 KECCAK256 PUSH1 0x5 ADD DUP7 SWAP1 DUP1 PUSH1 0x1 DUP2 SLOAD ADD DUP1 DUP3 SSTORE DUP1 SWAP2 POP POP SWAP1 PUSH1 0x1 DUP3 SUB SWAP1 PUSH1 0x0 MSTORE PUSH1 0x20 PUSH1 0x0 KECCAK256 ADD PUSH1 0x0 SWAP1 SWAP2 SWAP3 SWAP1 SWAP2 SWAP1 SWAP2 PUSH2 0x100 EXP DUP2 SLOAD DUP2 PUSH20 0xFFFFFFFFFFFFFFFFFFFFFFFFFFFFFFFFFFFFFFFF MUL NOT AND SWAP1 DUP4 PUSH20 0xFFFFFFFFFFFFFFFFFFFFFFFFFFFFFFFFFFFFFFFF AND MUL OR SWAP1 SSTORE POP SUB PUSH1 0x1 PUSH1 0x0 DUP9 PUSH20 0xFFFFFFFFFFFFFFFFFFFFFFFFFFFFFFFFFFFFFFFF AND PUSH20 0xFFFFFFFFFFFFFFFFFFFFFFFFFFFFFFFFFFFFFFFF AND DUP2 MSTORE PUSH1 0x20 ADD SWAP1 DUP2 MSTORE PUSH1 0x20 ADD PUSH1 0x0 KECCAK256 PUSH1 0x4 ADD PUSH1 0x0 DUP8 PUSH20 0xFFFFFFFFFFFFFFFFFFFFFFFFFFFFFFFFFFFFFFFF AND PUSH20 0xFFFFFFFFFFFFFFFFFFFFFFFFFFFFFFFFFFFFFFFF AND DUP2 MSTORE PUSH1 0x20 ADD SWAP1 DUP2 MSTORE PUSH1 0x20 ADD PUSH1 0x0 KECCAK256 DUP2 SWAP1 SSTORE POP PUSH1 0x1 SWAP4 POP POP POP POP SWAP3 SWAP2 POP POP JUMP JUMPDEST PUSH1 0x0 DUP1 PUSH1 0x0 SWAP1 SLOAD SWAP1 PUSH2 0x100 EXP SWAP1 DIV PUSH20 0xFFFFFFFFFFFFFFFFFFFFFFFFFFFFFFFFFFFFFFFF AND PUSH20 0xFFFFFFFFFFFFFFFFFFFFFFFFFFFFFFFFFFFFFFFF AND CALLER PUSH20 0xFFFFFFFFFFFFFFFFFFFFFFFFFFFFFFFFFFFFFFFF AND EQ ISZERO ISZERO PUSH2 0xBE7 JUMPI PUSH1 0x40 MLOAD PUSH32 0x8C379A000000000000000000000000000000000000000000000000000000000 DUP2 MSTORE PUSH1 0x4 ADD DUP1 DUP1 PUSH1 0x20 ADD DUP3 DUP2 SUB DUP3 MSTORE PUSH1 0x18 DUP2 MSTORE PUSH1 0x20 ADD DUP1 PUSH32 0x6F6E6C792054432063616E20646F20746869732063616C6C0000000000000000 DUP2 MSTORE POP PUSH1 0x20 ADD SWAP2 POP POP PUSH1 0x40 MLOAD DUP1 SWAP2 SUB SWAP1 REVERT JUMPDEST PUSH1 0x0 ISZERO ISZERO PUSH2 0xBF4 DUP5 PUSH2 0x368 JUMP JUMPDEST ISZERO ISZERO EQ ISZERO ISZERO PUSH2 0xC6B JUMPI PUSH1 0x40 MLOAD PUSH32 0x8C379A000000000000000000000000000000000000000000000000000000000 DUP2 MSTORE PUSH1 0x4 ADD DUP1 DUP1 PUSH1 0x20 ADD DUP3 DUP2 SUB DUP3 MSTORE PUSH1 0x1D DUP2 MSTORE PUSH1 0x20 ADD DUP1 PUSH32 0x53686F7020697320616C726561647920696E207468652073797374656D000000 DUP2 MSTORE POP PUSH1 0x20 ADD SWAP2 POP POP PUSH1 0x40 MLOAD DUP1 SWAP2 SUB SWAP1 REVERT JUMPDEST DUP2 PUSH1 0x1 PUSH1 0x0 DUP6 PUSH20 0xFFFFFFFFFFFFFFFFFFFFFFFFFFFFFFFFFFFFFFFF AND PUSH20 0xFFFFFFFFFFFFFFFFFFFFFFFFFFFFFFFFFFFFFFFF AND DUP2 MSTORE PUSH1 0x20 ADD SWAP1 DUP2 MSTORE PUSH1 0x20 ADD PUSH1 0x0 KECCAK256 PUSH1 0x0 ADD SWAP1 DUP1 MLOAD SWAP1 PUSH1 0x20 ADD SWAP1 PUSH2 0xCC1 SWAP3 SWAP2 SWAP1 PUSH2 0xDAD JUMP JUMPDEST POP PUSH1 0x1 PUSH1 0x2 DUP5 SWAP1 DUP1 PUSH1 0x1 DUP2 SLOAD ADD DUP1 DUP3 SSTORE DUP1 SWAP2 POP POP SWAP1 PUSH1 0x1 DUP3 SUB SWAP1 PUSH1 0x0 MSTORE PUSH1 0x20 PUSH1 0x0 KECCAK256 ADD PUSH1 0x0 SWAP1 SWAP2 SWAP3 SWAP1 SWAP2 SWAP1 SWAP2 PUSH2 0x100 EXP DUP2 SLOAD DUP2 PUSH20 0xFFFFFFFFFFFFFFFFFFFFFFFFFFFFFFFFFFFFFFFF MUL NOT AND SWAP1 DUP4 PUSH20 0xFFFFFFFFFFFFFFFFFFFFFFFFFFFFFFFFFFFFFFFF AND MUL OR SWAP1 SSTORE POP SUB PUSH1 0x1 PUSH1 0x0 DUP6 PUSH20 0xFFFFFFFFFFFFFFFFFFFFFFFFFFFFFFFFFFFFFFFF AND PUSH20 0xFFFFFFFFFFFFFFFFFFFFFFFFFFFFFFFFFFFFFFFF AND DUP2 MSTORE PUSH1 0x20 ADD SWAP1 DUP2 MSTORE PUSH1 0x20 ADD PUSH1 0x0 KECCAK256 PUSH1 0x1 ADD DUP2 SWAP1 SSTORE POP PUSH1 0x1 PUSH1 0x2 DUP1 SLOAD SWAP1 POP SUB SWAP1 POP SWAP3 SWAP2 POP POP JUMP JUMPDEST DUP2 SLOAD DUP2 DUP4 SSTORE DUP2 DUP2 GT ISZERO PUSH2 0xDA8 JUMPI DUP2 DUP4 PUSH1 0x0 MSTORE PUSH1 0x20 PUSH1 0x0 KECCAK256 SWAP2 DUP3 ADD SWAP2 ADD PUSH2 0xDA7 SWAP2 SWAP1 PUSH2 0xE2D JUMP JUMPDEST JUMPDEST POP POP POP JUMP JUMPDEST DUP3 DUP1 SLOAD PUSH1 0x1 DUP2 PUSH1 0x1 AND ISZERO PUSH2 0x100 MUL SUB AND PUSH1 0x2 SWAP1 DIV SWAP1 PUSH1 0x0 MSTORE PUSH1 0x20 PUSH1 0x0 KECCAK256 SWAP1 PUSH1 0x1F ADD PUSH1 0x20 SWAP1 DIV DUP2 ADD SWAP3 DUP3 PUSH1 0x1F LT PUSH2 0xDEE JUMPI DUP1 MLOAD PUSH1 0xFF NOT AND DUP4 DUP1 ADD OR DUP6 SSTORE PUSH2 0xE1C JUMP JUMPDEST DUP3 DUP1 ADD PUSH1 0x1 ADD DUP6 SSTORE DUP3 ISZERO PUSH2 0xE1C JUMPI SWAP2 DUP3 ADD JUMPDEST DUP3 DUP2 GT ISZERO PUSH2 0xE1B JUMPI DUP3 MLOAD DUP3 SSTORE SWAP2 PUSH1 0x20 ADD SWAP2 SWAP1 PUSH1 0x1 ADD SWAP1 PUSH2 0xE00 JUMP JUMPDEST JUMPDEST POP SWAP1 POP PUSH2 0xE29 SWAP2 SWAP1 PUSH2 0xE2D JUMP JUMPDEST POP SWAP1 JUMP JUMPDEST PUSH2 0xE4F SWAP2 SWAP1 JUMPDEST DUP1 DUP3 GT ISZERO PUSH2 0xE4B JUMPI PUSH1 0x0 DUP2 PUSH1 0x0 SWAP1 SSTORE POP PUSH1 0x1 ADD PUSH2 0xE33 JUMP JUMPDEST POP SWAP1 JUMP JUMPDEST SWAP1 JUMP INVALID LOG1 PUSH6 0x627A7A723058 KECCAK256 CALL DUP11 GASPRICE 0xc3 REVERT ISZERO 0xad 0xc1 SUB BYTE LOG0 0x4f AND DUP14 DIFFICULTY 0xbf 0x46 0x47 RETURNDATASIZE EQ 0xed SWAP13 0xd9 DUP10 CALLER DUP3 DELEGATECALL PUSH11 0xC075897500290000000000 "},"gasEstimates":{"creation":{"codeDepositCost":"2286800","executionCost":"infinite","totalCost":"infinite"},"external":{"createAsset(string)":"infinite","endTransport(address)":"infinite","insertProducer(address,string)":"infinite","insertShop(address,string)":"infinite","insertTransporter(address,string)":"infinite","isProducer(address)":"infinite","isShop(address)":"infinite","isTransporter(address)":"infinite","owner()":"480","requestTransportEnd(address)":"infinite","requestTransportStart(address,address,address)":"infinite","startTransport(address)":"infinite","userAttachTransporter(address)":"infinite"},"internal":{"isPendingTransport(address,address,address)":"infinite","isTransporterOfUser(address,address)":"infinite"}},"methodIdentifiers":{"createAsset(string)":"55b1f24e","endTransport(address)":"3db4de47","insertProducer(address,string)":"8412d3d1","insertShop(address,string)":"9b7e02eb","insertTransporter(address,string)":"1302ed1f","isProducer(address)":"f5521022","isShop(address)":"1d0e8a4d","isTransporter(address)":"2b8109d5","owner()":"8da5cb5b","requestTransportEnd(address)":"8736cb5d","requestTransportStart(address,address,address)":"245fd408","startTransport(address)":"029d9e92","userAttachTransporter(address)":"b46d0110"}},"userdoc":{"methods":{}}}