{"abi":[{"constant":false,"inputs":[{"name":"_transporterAddress","type":"address"},{"name":"_userAddress","type":"address"}],"name":"insertTU","outputs":[{"name":"success","type":"bool"}],"payable":false,"stateMutability":"nonpayable","type":"function"},{"constant":true,"inputs":[{"name":"_userAddress","type":"address"},{"name":"_transporterAddress","type":"address"},{"name":"_assetAddress","type":"address"}],"name":"getTransportReceiver","outputs":[{"name":"to","type":"address"}],"payable":false,"stateMutability":"view","type":"function"},{"constant":false,"inputs":[{"name":"_userAddress","type":"address"},{"name":"_transporterAddress","type":"address"},{"name":"_assetAddress","type":"address"}],"name":"deleteTransport","outputs":[],"payable":false,"stateMutability":"nonpayable","type":"function"},{"constant":false,"inputs":[{"name":"_userAddress","type":"address"},{"name":"_assetAddress","type":"address"},{"name":"_transporterAddress","type":"address"},{"name":"_receiverAddress","type":"address"}],"name":"requestTransportStart","outputs":[{"name":"success","type":"bool"}],"payable":false,"stateMutability":"nonpayable","type":"function"},{"constant":true,"inputs":[{"name":"_userAddress","type":"address"},{"name":"_transporterAddress","type":"address"},{"name":"_assetAddress","type":"address"}],"name":"isPendingTransport","outputs":[{"name":"isIndeed","type":"bool"}],"payable":false,"stateMutability":"view","type":"function"},{"constant":true,"inputs":[{"name":"_transporterAddress","type":"address"},{"name":"_userAddress","type":"address"}],"name":"isTransporterOfUser","outputs":[{"name":"isIndeed","type":"bool"}],"payable":false,"stateMutability":"view","type":"function"},{"constant":false,"inputs":[{"name":"_userAddress","type":"address"},{"name":"_transporterAddress","type":"address"},{"name":"_assetAddress","type":"address"}],"name":"activateTransport","outputs":[],"payable":false,"stateMutability":"nonpayable","type":"function"},{"inputs":[{"name":"_tc","type":"address"}],"payable":false,"stateMutability":"nonpayable","type":"constructor"}],"devdoc":{"methods":{}},"evm":{"assembly":"    /* \"transporters_users.sol\":25:5428  contract Transporters_Users{... */\n  mstore(0x40, 0x80)\n    /* \"transporters_users.sol\":1269:1344  constructor (address _tc) public{... */\n  callvalue\n    /* \"--CODEGEN--\":8:17   */\n  dup1\n    /* \"--CODEGEN--\":5:7   */\n  iszero\n  tag_1\n  jumpi\n    /* \"--CODEGEN--\":30:31   */\n  0x00\n    /* \"--CODEGEN--\":27:28   */\n  dup1\n    /* \"--CODEGEN--\":20:32   */\n  revert\n    /* \"--CODEGEN--\":5:7   */\ntag_1:\n    /* \"transporters_users.sol\":1269:1344  constructor (address _tc) public{... */\n  pop\n  mload(0x40)\n  0x20\n  dup1\n  bytecodeSize\n  dup4\n  codecopy\n  dup2\n  add\n  dup1\n  0x40\n  mstore\n    /* \"--CODEGEN--\":13:15   */\n  0x20\n    /* \"--CODEGEN--\":8:11   */\n  dup2\n    /* \"--CODEGEN--\":5:16   */\n  lt\n    /* \"--CODEGEN--\":2:4   */\n  iszero\n  tag_2\n  jumpi\n    /* \"--CODEGEN--\":29:30   */\n  0x00\n    /* \"--CODEGEN--\":26:27   */\n  dup1\n    /* \"--CODEGEN--\":19:31   */\n  revert\n    /* \"--CODEGEN--\":2:4   */\ntag_2:\n    /* \"transporters_users.sol\":1269:1344  constructor (address _tc) public{... */\n  dup2\n  add\n  swap1\n  dup1\n  dup1\n  mload\n  swap1\n  0x20\n  add\n  swap1\n  swap3\n  swap2\n  swap1\n  pop\n  pop\n  pop\n    /* \"transporters_users.sol\":1334:1337  _tc */\n  dup1\n    /* \"transporters_users.sol\":1311:1331  traceabilityContract */\n  0x00\n  dup1\n    /* \"transporters_users.sol\":1311:1337  traceabilityContract = _tc */\n  0x0100\n  exp\n  dup2\n  sload\n  dup2\n  0xffffffffffffffffffffffffffffffffffffffff\n  mul\n  not\n  and\n  swap1\n  dup4\n  0xffffffffffffffffffffffffffffffffffffffff\n  and\n  mul\n  or\n  swap1\n  sstore\n  pop\n    /* \"transporters_users.sol\":1269:1344  constructor (address _tc) public{... */\n  pop\n    /* \"transporters_users.sol\":25:5428  contract Transporters_Users{... */\n  dataSize(sub_0)\n  dup1\n  dataOffset(sub_0)\n  0x00\n  codecopy\n  0x00\n  return\nstop\n\nsub_0: assembly {\n        /* \"transporters_users.sol\":25:5428  contract Transporters_Users{... */\n      mstore(0x40, 0x80)\n      callvalue\n        /* \"--CODEGEN--\":8:17   */\n      dup1\n        /* \"--CODEGEN--\":5:7   */\n      iszero\n      tag_1\n      jumpi\n        /* \"--CODEGEN--\":30:31   */\n      0x00\n        /* \"--CODEGEN--\":27:28   */\n      dup1\n        /* \"--CODEGEN--\":20:32   */\n      revert\n        /* \"--CODEGEN--\":5:7   */\n    tag_1:\n        /* \"transporters_users.sol\":25:5428  contract Transporters_Users{... */\n      pop\n      jumpi(tag_2, lt(calldatasize, 0x04))\n      calldataload(0x00)\n      0x0100000000000000000000000000000000000000000000000000000000\n      swap1\n      div\n      dup1\n      0x90097b3c\n      gt\n      tag_10\n      jumpi\n      dup1\n      0x90097b3c\n      eq\n      tag_6\n      jumpi\n      dup1\n      0x9eb8452a\n      eq\n      tag_7\n      jumpi\n      dup1\n      0xd1a08567\n      eq\n      tag_8\n      jumpi\n      dup1\n      0xd8775956\n      eq\n      tag_9\n      jumpi\n      jump(tag_2)\n    tag_10:\n      dup1\n      0x28d3170a\n      eq\n      tag_3\n      jumpi\n      dup1\n      0x365d8226\n      eq\n      tag_4\n      jumpi\n      dup1\n      0x6a20d949\n      eq\n      tag_5\n      jumpi\n    tag_2:\n      0x00\n      dup1\n      revert\n        /* \"transporters_users.sol\":1351:1924  function insertTU(address _transporterAddress, address _userAddress) public returns (bool success){... */\n    tag_3:\n      tag_11\n      0x04\n      dup1\n      calldatasize\n      sub\n        /* \"--CODEGEN--\":13:15   */\n      0x40\n        /* \"--CODEGEN--\":8:11   */\n      dup2\n        /* \"--CODEGEN--\":5:16   */\n      lt\n        /* \"--CODEGEN--\":2:4   */\n      iszero\n      tag_12\n      jumpi\n        /* \"--CODEGEN--\":29:30   */\n      0x00\n        /* \"--CODEGEN--\":26:27   */\n      dup1\n        /* \"--CODEGEN--\":19:31   */\n      revert\n        /* \"--CODEGEN--\":2:4   */\n    tag_12:\n        /* \"transporters_users.sol\":1351:1924  function insertTU(address _transporterAddress, address _userAddress) public returns (bool success){... */\n      dup2\n      add\n      swap1\n      dup1\n      dup1\n      calldataload\n      0xffffffffffffffffffffffffffffffffffffffff\n      and\n      swap1\n      0x20\n      add\n      swap1\n      swap3\n      swap2\n      swap1\n      dup1\n      calldataload\n      0xffffffffffffffffffffffffffffffffffffffff\n      and\n      swap1\n      0x20\n      add\n      swap1\n      swap3\n      swap2\n      swap1\n      pop\n      pop\n      pop\n      tag_13\n      jump\t// in\n    tag_11:\n      mload(0x40)\n      dup1\n      dup3\n      iszero\n      iszero\n      iszero\n      iszero\n      dup2\n      mstore\n      0x20\n      add\n      swap2\n      pop\n      pop\n      mload(0x40)\n      dup1\n      swap2\n      sub\n      swap1\n      return\n        /* \"transporters_users.sol\":4421:4659  function getTransportReceiver(address _userAddress, address _transporterAddress, address _assetAddress) public view returns (address to){... */\n    tag_4:\n      tag_14\n      0x04\n      dup1\n      calldatasize\n      sub\n        /* \"--CODEGEN--\":13:15   */\n      0x60\n        /* \"--CODEGEN--\":8:11   */\n      dup2\n        /* \"--CODEGEN--\":5:16   */\n      lt\n        /* \"--CODEGEN--\":2:4   */\n      iszero\n      tag_15\n      jumpi\n        /* \"--CODEGEN--\":29:30   */\n      0x00\n        /* \"--CODEGEN--\":26:27   */\n      dup1\n        /* \"--CODEGEN--\":19:31   */\n      revert\n        /* \"--CODEGEN--\":2:4   */\n    tag_15:\n        /* \"transporters_users.sol\":4421:4659  function getTransportReceiver(address _userAddress, address _transporterAddress, address _assetAddress) public view returns (address to){... */\n      dup2\n      add\n      swap1\n      dup1\n      dup1\n      calldataload\n      0xffffffffffffffffffffffffffffffffffffffff\n      and\n      swap1\n      0x20\n      add\n      swap1\n      swap3\n      swap2\n      swap1\n      dup1\n      calldataload\n      0xffffffffffffffffffffffffffffffffffffffff\n      and\n      swap1\n      0x20\n      add\n      swap1\n      swap3\n      swap2\n      swap1\n      dup1\n      calldataload\n      0xffffffffffffffffffffffffffffffffffffffff\n      and\n      swap1\n      0x20\n      add\n      swap1\n      swap3\n      swap2\n      swap1\n      pop\n      pop\n      pop\n      tag_16\n      jump\t// in\n    tag_14:\n      mload(0x40)\n      dup1\n      dup3\n      0xffffffffffffffffffffffffffffffffffffffff\n      and\n      0xffffffffffffffffffffffffffffffffffffffff\n      and\n      dup2\n      mstore\n      0x20\n      add\n      swap2\n      pop\n      pop\n      mload(0x40)\n      dup1\n      swap2\n      sub\n      swap1\n      return\n        /* \"transporters_users.sol\":4665:5426  function deleteTransport(address _userAddress, address _transporterAddress, address _assetAddress) public{... */\n    tag_5:\n      tag_17\n      0x04\n      dup1\n      calldatasize\n      sub\n        /* \"--CODEGEN--\":13:15   */\n      0x60\n        /* \"--CODEGEN--\":8:11   */\n      dup2\n        /* \"--CODEGEN--\":5:16   */\n      lt\n        /* \"--CODEGEN--\":2:4   */\n      iszero\n      tag_18\n      jumpi\n        /* \"--CODEGEN--\":29:30   */\n      0x00\n        /* \"--CODEGEN--\":26:27   */\n      dup1\n        /* \"--CODEGEN--\":19:31   */\n      revert\n        /* \"--CODEGEN--\":2:4   */\n    tag_18:\n        /* \"transporters_users.sol\":4665:5426  function deleteTransport(address _userAddress, address _transporterAddress, address _assetAddress) public{... */\n      dup2\n      add\n      swap1\n      dup1\n      dup1\n      calldataload\n      0xffffffffffffffffffffffffffffffffffffffff\n      and\n      swap1\n      0x20\n      add\n      swap1\n      swap3\n      swap2\n      swap1\n      dup1\n      calldataload\n      0xffffffffffffffffffffffffffffffffffffffff\n      and\n      swap1\n      0x20\n      add\n      swap1\n      swap3\n      swap2\n      swap1\n      dup1\n      calldataload\n      0xffffffffffffffffffffffffffffffffffffffff\n      and\n      swap1\n      0x20\n      add\n      swap1\n      swap3\n      swap2\n      swap1\n      pop\n      pop\n      pop\n      tag_19\n      jump\t// in\n    tag_17:\n      stop\n        /* \"transporters_users.sol\":2494:3448  function requestTransportStart(address _userAddress, address _assetAddress, address _transporterAddress, address _receiverAddress) ... */\n    tag_6:\n      tag_20\n      0x04\n      dup1\n      calldatasize\n      sub\n        /* \"--CODEGEN--\":13:16   */\n      0x80\n        /* \"--CODEGEN--\":8:11   */\n      dup2\n        /* \"--CODEGEN--\":5:17   */\n      lt\n        /* \"--CODEGEN--\":2:4   */\n      iszero\n      tag_21\n      jumpi\n        /* \"--CODEGEN--\":30:31   */\n      0x00\n        /* \"--CODEGEN--\":27:28   */\n      dup1\n        /* \"--CODEGEN--\":20:32   */\n      revert\n        /* \"--CODEGEN--\":2:4   */\n    tag_21:\n        /* \"transporters_users.sol\":2494:3448  function requestTransportStart(address _userAddress, address _assetAddress, address _transporterAddress, address _receiverAddress) ... */\n      dup2\n      add\n      swap1\n      dup1\n      dup1\n      calldataload\n      0xffffffffffffffffffffffffffffffffffffffff\n      and\n      swap1\n      0x20\n      add\n      swap1\n      swap3\n      swap2\n      swap1\n      dup1\n      calldataload\n      0xffffffffffffffffffffffffffffffffffffffff\n      and\n      swap1\n      0x20\n      add\n      swap1\n      swap3\n      swap2\n      swap1\n      dup1\n      calldataload\n      0xffffffffffffffffffffffffffffffffffffffff\n      and\n      swap1\n      0x20\n      add\n      swap1\n      swap3\n      swap2\n      swap1\n      dup1\n      calldataload\n      0xffffffffffffffffffffffffffffffffffffffff\n      and\n      swap1\n      0x20\n      add\n      swap1\n      swap3\n      swap2\n      swap1\n      pop\n      pop\n      pop\n      tag_22\n      jump\t// in\n    tag_20:\n      mload(0x40)\n      dup1\n      dup3\n      iszero\n      iszero\n      iszero\n      iszero\n      dup2\n      mstore\n      0x20\n      add\n      swap2\n      pop\n      pop\n      mload(0x40)\n      dup1\n      swap2\n      sub\n      swap1\n      return\n        /* \"transporters_users.sol\":2144:2488  function isPendingTransport(address _userAddress, address _transporterAddress, address _assetAddress) ... */\n    tag_7:\n      tag_23\n      0x04\n      dup1\n      calldatasize\n      sub\n        /* \"--CODEGEN--\":13:15   */\n      0x60\n        /* \"--CODEGEN--\":8:11   */\n      dup2\n        /* \"--CODEGEN--\":5:16   */\n      lt\n        /* \"--CODEGEN--\":2:4   */\n      iszero\n      tag_24\n      jumpi\n        /* \"--CODEGEN--\":29:30   */\n      0x00\n        /* \"--CODEGEN--\":26:27   */\n      dup1\n        /* \"--CODEGEN--\":19:31   */\n      revert\n        /* \"--CODEGEN--\":2:4   */\n    tag_24:\n        /* \"transporters_users.sol\":2144:2488  function isPendingTransport(address _userAddress, address _transporterAddress, address _assetAddress) ... */\n      dup2\n      add\n      swap1\n      dup1\n      dup1\n      calldataload\n      0xffffffffffffffffffffffffffffffffffffffff\n      and\n      swap1\n      0x20\n      add\n      swap1\n      swap3\n      swap2\n      swap1\n      dup1\n      calldataload\n      0xffffffffffffffffffffffffffffffffffffffff\n      and\n      swap1\n      0x20\n      add\n      swap1\n      swap3\n      swap2\n      swap1\n      dup1\n      calldataload\n      0xffffffffffffffffffffffffffffffffffffffff\n      and\n      swap1\n      0x20\n      add\n      swap1\n      swap3\n      swap2\n      swap1\n      pop\n      pop\n      pop\n      tag_25\n      jump\t// in\n    tag_23:\n      mload(0x40)\n      dup1\n      dup3\n      iszero\n      iszero\n      iszero\n      iszero\n      dup2\n      mstore\n      0x20\n      add\n      swap2\n      pop\n      pop\n      mload(0x40)\n      dup1\n      swap2\n      sub\n      swap1\n      return\n        /* \"transporters_users.sol\":1930:2138  function isTransporterOfUser(address _transporterAddress, address _userAddress) public view returns (bool isIndeed){... */\n    tag_8:\n      tag_26\n      0x04\n      dup1\n      calldatasize\n      sub\n        /* \"--CODEGEN--\":13:15   */\n      0x40\n        /* \"--CODEGEN--\":8:11   */\n      dup2\n        /* \"--CODEGEN--\":5:16   */\n      lt\n        /* \"--CODEGEN--\":2:4   */\n      iszero\n      tag_27\n      jumpi\n        /* \"--CODEGEN--\":29:30   */\n      0x00\n        /* \"--CODEGEN--\":26:27   */\n      dup1\n        /* \"--CODEGEN--\":19:31   */\n      revert\n        /* \"--CODEGEN--\":2:4   */\n    tag_27:\n        /* \"transporters_users.sol\":1930:2138  function isTransporterOfUser(address _transporterAddress, address _userAddress) public view returns (bool isIndeed){... */\n      dup2\n      add\n      swap1\n      dup1\n      dup1\n      calldataload\n      0xffffffffffffffffffffffffffffffffffffffff\n      and\n      swap1\n      0x20\n      add\n      swap1\n      swap3\n      swap2\n      swap1\n      dup1\n      calldataload\n      0xffffffffffffffffffffffffffffffffffffffff\n      and\n      swap1\n      0x20\n      add\n      swap1\n      swap3\n      swap2\n      swap1\n      pop\n      pop\n      pop\n      tag_28\n      jump\t// in\n    tag_26:\n      mload(0x40)\n      dup1\n      dup3\n      iszero\n      iszero\n      iszero\n      iszero\n      dup2\n      mstore\n      0x20\n      add\n      swap2\n      pop\n      pop\n      mload(0x40)\n      dup1\n      swap2\n      sub\n      swap1\n      return\n        /* \"transporters_users.sol\":3454:4415  function activateTransport(address _userAddress, address _transporterAddress, address _assetAddress) public{... */\n    tag_9:\n      tag_29\n      0x04\n      dup1\n      calldatasize\n      sub\n        /* \"--CODEGEN--\":13:15   */\n      0x60\n        /* \"--CODEGEN--\":8:11   */\n      dup2\n        /* \"--CODEGEN--\":5:16   */\n      lt\n        /* \"--CODEGEN--\":2:4   */\n      iszero\n      tag_30\n      jumpi\n        /* \"--CODEGEN--\":29:30   */\n      0x00\n        /* \"--CODEGEN--\":26:27   */\n      dup1\n        /* \"--CODEGEN--\":19:31   */\n      revert\n        /* \"--CODEGEN--\":2:4   */\n    tag_30:\n        /* \"transporters_users.sol\":3454:4415  function activateTransport(address _userAddress, address _transporterAddress, address _assetAddress) public{... */\n      dup2\n      add\n      swap1\n      dup1\n      dup1\n      calldataload\n      0xffffffffffffffffffffffffffffffffffffffff\n      and\n      swap1\n      0x20\n      add\n      swap1\n      swap3\n      swap2\n      swap1\n      dup1\n      calldataload\n      0xffffffffffffffffffffffffffffffffffffffff\n      and\n      swap1\n      0x20\n      add\n      swap1\n      swap3\n      swap2\n      swap1\n      dup1\n      calldataload\n      0xffffffffffffffffffffffffffffffffffffffff\n      and\n      swap1\n      0x20\n      add\n      swap1\n      swap3\n      swap2\n      swap1\n      pop\n      pop\n      pop\n      tag_31\n      jump\t// in\n    tag_29:\n      stop\n        /* \"transporters_users.sol\":1351:1924  function insertTU(address _transporterAddress, address _userAddress) public returns (bool success){... */\n    tag_13:\n        /* \"transporters_users.sol\":1436:1448  bool success */\n      0x00\n        /* \"transporters_users.sol\":1468:1522  isTransporterOfUser(_transporterAddress, _userAddress) */\n      tag_33\n        /* \"transporters_users.sol\":1488:1507  _transporterAddress */\n      dup4\n        /* \"transporters_users.sol\":1509:1521  _userAddress */\n      dup4\n        /* \"transporters_users.sol\":1468:1487  isTransporterOfUser */\n      tag_28\n        /* \"transporters_users.sol\":1468:1522  isTransporterOfUser(_transporterAddress, _userAddress) */\n      jump\t// in\n    tag_33:\n        /* \"transporters_users.sol\":1467:1522  !isTransporterOfUser(_transporterAddress, _userAddress) */\n      iszero\n        /* \"transporters_users.sol\":1459:1553  require(!isTransporterOfUser(_transporterAddress, _userAddress), \"Association already exists\") */\n      iszero\n      iszero\n      tag_34\n      jumpi\n      mload(0x40)\n      0x08c379a000000000000000000000000000000000000000000000000000000000\n      dup2\n      mstore\n      0x04\n      add\n      dup1\n      dup1\n      0x20\n      add\n      dup3\n      dup2\n      sub\n      dup3\n      mstore\n      0x1a\n      dup2\n      mstore\n      0x20\n      add\n      dup1\n      0x4173736f63696174696f6e20616c726561647920657869737473000000000000\n      dup2\n      mstore\n      pop\n      0x20\n      add\n      swap2\n      pop\n      pop\n      mload(0x40)\n      dup1\n      swap2\n      sub\n      swap1\n      revert\n    tag_34:\n        /* \"transporters_users.sol\":1565:1592  Transporter_User storage tu */\n      0x00\n        /* \"transporters_users.sol\":1595:1603  tuMatrix */\n      0x01\n        /* \"transporters_users.sol\":1595:1624  tuMatrix[_transporterAddress] */\n      0x00\n        /* \"transporters_users.sol\":1604:1623  _transporterAddress */\n      dup6\n        /* \"transporters_users.sol\":1595:1624  tuMatrix[_transporterAddress] */\n      0xffffffffffffffffffffffffffffffffffffffff\n      and\n      0xffffffffffffffffffffffffffffffffffffffff\n      and\n      dup2\n      mstore\n      0x20\n      add\n      swap1\n      dup2\n      mstore\n      0x20\n      add\n      0x00\n      keccak256\n        /* \"transporters_users.sol\":1595:1638  tuMatrix[_transporterAddress][_userAddress] */\n      0x00\n        /* \"transporters_users.sol\":1625:1637  _userAddress */\n      dup5\n        /* \"transporters_users.sol\":1595:1638  tuMatrix[_transporterAddress][_userAddress] */\n      0xffffffffffffffffffffffffffffffffffffffff\n      and\n      0xffffffffffffffffffffffffffffffffffffffff\n      and\n      dup2\n      mstore\n      0x20\n      add\n      swap1\n      dup2\n      mstore\n      0x20\n      add\n      0x00\n      keccak256\n        /* \"transporters_users.sol\":1565:1638  Transporter_User storage tu = tuMatrix[_transporterAddress][_userAddress] */\n      swap1\n      pop\n        /* \"transporters_users.sol\":1665:1684  _transporterAddress */\n      dup4\n        /* \"transporters_users.sol\":1648:1650  tu */\n      dup2\n        /* \"transporters_users.sol\":1648:1662  tu.transporter */\n      0x00\n      add\n      0x00\n        /* \"transporters_users.sol\":1648:1684  tu.transporter = _transporterAddress */\n      0x0100\n      exp\n      dup2\n      sload\n      dup2\n      0xffffffffffffffffffffffffffffffffffffffff\n      mul\n      not\n      and\n      swap1\n      dup4\n      0xffffffffffffffffffffffffffffffffffffffff\n      and\n      mul\n      or\n      swap1\n      sstore\n      pop\n        /* \"transporters_users.sol\":1704:1716  _userAddress */\n      dup3\n        /* \"transporters_users.sol\":1694:1696  tu */\n      dup2\n        /* \"transporters_users.sol\":1694:1701  tu.user */\n      0x01\n      add\n      0x00\n        /* \"transporters_users.sol\":1694:1716  tu.user = _userAddress */\n      0x0100\n      exp\n      dup2\n      sload\n      dup2\n      0xffffffffffffffffffffffffffffffffffffffff\n      mul\n      not\n      and\n      swap1\n      dup4\n      0xffffffffffffffffffffffffffffffffffffffff\n      and\n      mul\n      or\n      swap1\n      sstore\n      pop\n        /* \"transporters_users.sol\":1750:1769  usersOfTransporters */\n      0x02\n        /* \"transporters_users.sol\":1750:1790  usersOfTransporters[_transporterAddress] */\n      0x00\n        /* \"transporters_users.sol\":1770:1789  _transporterAddress */\n      dup6\n        /* \"transporters_users.sol\":1750:1790  usersOfTransporters[_transporterAddress] */\n      0xffffffffffffffffffffffffffffffffffffffff\n      and\n      0xffffffffffffffffffffffffffffffffffffffff\n      and\n      dup2\n      mstore\n      0x20\n      add\n      swap1\n      dup2\n      mstore\n      0x20\n      add\n      0x00\n      keccak256\n        /* \"transporters_users.sol\":1796:1808  _userAddress */\n      dup4\n        /* \"transporters_users.sol\":1750:1809  usersOfTransporters[_transporterAddress].push(_userAddress) */\n      swap1\n      dup1\n        /* \"--CODEGEN--\":39:40   */\n      0x01\n        /* \"--CODEGEN--\":33:36   */\n      dup2\n        /* \"--CODEGEN--\":27:37   */\n      sload\n        /* \"--CODEGEN--\":23:41   */\n      add\n        /* \"--CODEGEN--\":57:67   */\n      dup1\n        /* \"--CODEGEN--\":52:55   */\n      dup3\n        /* \"--CODEGEN--\":45:68   */\n      sstore\n        /* \"--CODEGEN--\":79:89   */\n      dup1\n        /* \"--CODEGEN--\":72:89   */\n      swap2\n      pop\n        /* \"--CODEGEN--\":0:93   */\n      pop\n        /* \"transporters_users.sol\":1750:1809  usersOfTransporters[_transporterAddress].push(_userAddress) */\n      swap1\n      0x01\n      dup3\n      sub\n      swap1\n      0x00\n      mstore\n      keccak256(0x00, 0x20)\n      add\n      0x00\n      swap1\n      swap2\n      swap3\n      swap1\n      swap2\n      swap1\n      swap2\n      0x0100\n      exp\n      dup2\n      sload\n      dup2\n      0xffffffffffffffffffffffffffffffffffffffff\n      mul\n      not\n      and\n      swap1\n      dup4\n      0xffffffffffffffffffffffffffffffffffffffff\n      and\n      mul\n      or\n      swap1\n      sstore\n      pop\n        /* \"transporters_users.sol\":1726:1728  tu */\n      dup2\n        /* \"transporters_users.sol\":1726:1747  tu.indexInTransporter */\n      0x02\n      add\n        /* \"transporters_users.sol\":1726:1809  tu.indexInTransporter = usersOfTransporters[_transporterAddress].push(_userAddress) */\n      dup2\n      swap1\n      sstore\n      pop\n        /* \"transporters_users.sol\":1836:1855  usersOfTransporters */\n      0x02\n        /* \"transporters_users.sol\":1836:1869  usersOfTransporters[_userAddress] */\n      0x00\n        /* \"transporters_users.sol\":1856:1868  _userAddress */\n      dup5\n        /* \"transporters_users.sol\":1836:1869  usersOfTransporters[_userAddress] */\n      0xffffffffffffffffffffffffffffffffffffffff\n      and\n      0xffffffffffffffffffffffffffffffffffffffff\n      and\n      dup2\n      mstore\n      0x20\n      add\n      swap1\n      dup2\n      mstore\n      0x20\n      add\n      0x00\n      keccak256\n        /* \"transporters_users.sol\":1875:1894  _transporterAddress */\n      dup5\n        /* \"transporters_users.sol\":1836:1895  usersOfTransporters[_userAddress].push(_transporterAddress) */\n      swap1\n      dup1\n        /* \"--CODEGEN--\":39:40   */\n      0x01\n        /* \"--CODEGEN--\":33:36   */\n      dup2\n        /* \"--CODEGEN--\":27:37   */\n      sload\n        /* \"--CODEGEN--\":23:41   */\n      add\n        /* \"--CODEGEN--\":57:67   */\n      dup1\n        /* \"--CODEGEN--\":52:55   */\n      dup3\n        /* \"--CODEGEN--\":45:68   */\n      sstore\n        /* \"--CODEGEN--\":79:89   */\n      dup1\n        /* \"--CODEGEN--\":72:89   */\n      swap2\n      pop\n        /* \"--CODEGEN--\":0:93   */\n      pop\n        /* \"transporters_users.sol\":1836:1895  usersOfTransporters[_userAddress].push(_transporterAddress) */\n      swap1\n      0x01\n      dup3\n      sub\n      swap1\n      0x00\n      mstore\n      keccak256(0x00, 0x20)\n      add\n      0x00\n      swap1\n      swap2\n      swap3\n      swap1\n      swap2\n      swap1\n      swap2\n      0x0100\n      exp\n      dup2\n      sload\n      dup2\n      0xffffffffffffffffffffffffffffffffffffffff\n      mul\n      not\n      and\n      swap1\n      dup4\n      0xffffffffffffffffffffffffffffffffffffffff\n      and\n      mul\n      or\n      swap1\n      sstore\n      pop\n        /* \"transporters_users.sol\":1819:1821  tu */\n      dup2\n        /* \"transporters_users.sol\":1819:1833  tu.indexInUser */\n      0x03\n      add\n        /* \"transporters_users.sol\":1819:1895  tu.indexInUser = usersOfTransporters[_userAddress].push(_transporterAddress) */\n      dup2\n      swap1\n      sstore\n      pop\n        /* \"transporters_users.sol\":1913:1917  true */\n      0x01\n        /* \"transporters_users.sol\":1906:1917  return true */\n      swap2\n      pop\n      pop\n        /* \"transporters_users.sol\":1351:1924  function insertTU(address _transporterAddress, address _userAddress) public returns (bool success){... */\n      swap3\n      swap2\n      pop\n      pop\n      jump\t// out\n        /* \"transporters_users.sol\":4421:4659  function getTransportReceiver(address _userAddress, address _transporterAddress, address _assetAddress) public view returns (address to){... */\n    tag_16:\n        /* \"transporters_users.sol\":4546:4556  address to */\n      0x00\n        /* \"transporters_users.sol\":4574:4582  tuMatrix */\n      0x01\n        /* \"transporters_users.sol\":4574:4603  tuMatrix[_transporterAddress] */\n      0x00\n        /* \"transporters_users.sol\":4583:4602  _transporterAddress */\n      dup5\n        /* \"transporters_users.sol\":4574:4603  tuMatrix[_transporterAddress] */\n      0xffffffffffffffffffffffffffffffffffffffff\n      and\n      0xffffffffffffffffffffffffffffffffffffffff\n      and\n      dup2\n      mstore\n      0x20\n      add\n      swap1\n      dup2\n      mstore\n      0x20\n      add\n      0x00\n      keccak256\n        /* \"transporters_users.sol\":4574:4617  tuMatrix[_transporterAddress][_userAddress] */\n      0x00\n        /* \"transporters_users.sol\":4604:4616  _userAddress */\n      dup6\n        /* \"transporters_users.sol\":4574:4617  tuMatrix[_transporterAddress][_userAddress] */\n      0xffffffffffffffffffffffffffffffffffffffff\n      and\n      0xffffffffffffffffffffffffffffffffffffffff\n      and\n      dup2\n      mstore\n      0x20\n      add\n      swap1\n      dup2\n      mstore\n      0x20\n      add\n      0x00\n      keccak256\n        /* \"transporters_users.sol\":4574:4634  tuMatrix[_transporterAddress][_userAddress].activeTransports */\n      0x06\n      add\n        /* \"transporters_users.sol\":4574:4649  tuMatrix[_transporterAddress][_userAddress].activeTransports[_assetAddress] */\n      0x00\n        /* \"transporters_users.sol\":4635:4648  _assetAddress */\n      dup4\n        /* \"transporters_users.sol\":4574:4649  tuMatrix[_transporterAddress][_userAddress].activeTransports[_assetAddress] */\n      0xffffffffffffffffffffffffffffffffffffffff\n      and\n      0xffffffffffffffffffffffffffffffffffffffff\n      and\n      dup2\n      mstore\n      0x20\n      add\n      swap1\n      dup2\n      mstore\n      0x20\n      add\n      0x00\n      keccak256\n        /* \"transporters_users.sol\":4574:4652  tuMatrix[_transporterAddress][_userAddress].activeTransports[_assetAddress].to */\n      0x03\n      add\n      0x00\n      swap1\n      sload\n      swap1\n      0x0100\n      exp\n      swap1\n      div\n      0xffffffffffffffffffffffffffffffffffffffff\n      and\n        /* \"transporters_users.sol\":4567:4652  return tuMatrix[_transporterAddress][_userAddress].activeTransports[_assetAddress].to */\n      swap1\n      pop\n        /* \"transporters_users.sol\":4421:4659  function getTransportReceiver(address _userAddress, address _transporterAddress, address _assetAddress) public view returns (address to){... */\n      swap4\n      swap3\n      pop\n      pop\n      pop\n      jump\t// out\n        /* \"transporters_users.sol\":4665:5426  function deleteTransport(address _userAddress, address _transporterAddress, address _assetAddress) public{... */\n    tag_19:\n        /* \"transporters_users.sol\":4802:4822  traceabilityContract */\n      0x00\n      dup1\n      swap1\n      sload\n      swap1\n      0x0100\n      exp\n      swap1\n      div\n      0xffffffffffffffffffffffffffffffffffffffff\n      and\n        /* \"transporters_users.sol\":4788:4822  msg.sender == traceabilityContract */\n      0xffffffffffffffffffffffffffffffffffffffff\n      and\n        /* \"transporters_users.sol\":4788:4798  msg.sender */\n      caller\n        /* \"transporters_users.sol\":4788:4822  msg.sender == traceabilityContract */\n      0xffffffffffffffffffffffffffffffffffffffff\n      and\n      eq\n        /* \"transporters_users.sol\":4780:4851  require(msg.sender == traceabilityContract, \"only TC can do this call\") */\n      iszero\n      iszero\n      tag_39\n      jumpi\n      mload(0x40)\n      0x08c379a000000000000000000000000000000000000000000000000000000000\n      dup2\n      mstore\n      0x04\n      add\n      dup1\n      dup1\n      0x20\n      add\n      dup3\n      dup2\n      sub\n      dup3\n      mstore\n      0x18\n      dup2\n      mstore\n      0x20\n      add\n      dup1\n      0x6f6e6c792054432063616e20646f20746869732063616c6c0000000000000000\n      dup2\n      mstore\n      pop\n      0x20\n      add\n      swap2\n      pop\n      pop\n      mload(0x40)\n      dup1\n      swap2\n      sub\n      swap1\n      revert\n    tag_39:\n        /* \"transporters_users.sol\":4862:4900  address[] storage activeTransportArray */\n      0x00\n        /* \"transporters_users.sol\":4903:4911  tuMatrix */\n      0x01\n        /* \"transporters_users.sol\":4903:4932  tuMatrix[_transporterAddress] */\n      0x00\n        /* \"transporters_users.sol\":4912:4931  _transporterAddress */\n      dup5\n        /* \"transporters_users.sol\":4903:4932  tuMatrix[_transporterAddress] */\n      0xffffffffffffffffffffffffffffffffffffffff\n      and\n      0xffffffffffffffffffffffffffffffffffffffff\n      and\n      dup2\n      mstore\n      0x20\n      add\n      swap1\n      dup2\n      mstore\n      0x20\n      add\n      0x00\n      keccak256\n        /* \"transporters_users.sol\":4903:4946  tuMatrix[_transporterAddress][_userAddress] */\n      0x00\n        /* \"transporters_users.sol\":4933:4945  _userAddress */\n      dup6\n        /* \"transporters_users.sol\":4903:4946  tuMatrix[_transporterAddress][_userAddress] */\n      0xffffffffffffffffffffffffffffffffffffffff\n      and\n      0xffffffffffffffffffffffffffffffffffffffff\n      and\n      dup2\n      mstore\n      0x20\n      add\n      swap1\n      dup2\n      mstore\n      0x20\n      add\n      0x00\n      keccak256\n        /* \"transporters_users.sol\":4903:4967  tuMatrix[_transporterAddress][_userAddress].activeTransportsList */\n      0x07\n      add\n        /* \"transporters_users.sol\":4862:4967  address[] storage activeTransportArray = tuMatrix[_transporterAddress][_userAddress].activeTransportsList */\n      swap1\n      pop\n        /* \"transporters_users.sol\":4977:4996  Transport storage t */\n      0x00\n        /* \"transporters_users.sol\":4999:5007  tuMatrix */\n      0x01\n        /* \"transporters_users.sol\":4999:5028  tuMatrix[_transporterAddress] */\n      0x00\n        /* \"transporters_users.sol\":5008:5027  _transporterAddress */\n      dup6\n        /* \"transporters_users.sol\":4999:5028  tuMatrix[_transporterAddress] */\n      0xffffffffffffffffffffffffffffffffffffffff\n      and\n      0xffffffffffffffffffffffffffffffffffffffff\n      and\n      dup2\n      mstore\n      0x20\n      add\n      swap1\n      dup2\n      mstore\n      0x20\n      add\n      0x00\n      keccak256\n        /* \"transporters_users.sol\":4999:5042  tuMatrix[_transporterAddress][_userAddress] */\n      0x00\n        /* \"transporters_users.sol\":5029:5041  _userAddress */\n      dup7\n        /* \"transporters_users.sol\":4999:5042  tuMatrix[_transporterAddress][_userAddress] */\n      0xffffffffffffffffffffffffffffffffffffffff\n      and\n      0xffffffffffffffffffffffffffffffffffffffff\n      and\n      dup2\n      mstore\n      0x20\n      add\n      swap1\n      dup2\n      mstore\n      0x20\n      add\n      0x00\n      keccak256\n        /* \"transporters_users.sol\":4999:5059  tuMatrix[_transporterAddress][_userAddress].activeTransports */\n      0x06\n      add\n        /* \"transporters_users.sol\":4999:5074  tuMatrix[_transporterAddress][_userAddress].activeTransports[_assetAddress] */\n      0x00\n        /* \"transporters_users.sol\":5060:5073  _assetAddress */\n      dup5\n        /* \"transporters_users.sol\":4999:5074  tuMatrix[_transporterAddress][_userAddress].activeTransports[_assetAddress] */\n      0xffffffffffffffffffffffffffffffffffffffff\n      and\n      0xffffffffffffffffffffffffffffffffffffffff\n      and\n      dup2\n      mstore\n      0x20\n      add\n      swap1\n      dup2\n      mstore\n      0x20\n      add\n      0x00\n      keccak256\n        /* \"transporters_users.sol\":4977:5074  Transport storage t = tuMatrix[_transporterAddress][_userAddress].activeTransports[_assetAddress] */\n      swap1\n      pop\n        /* \"transporters_users.sol\":5113:5129  uint rowToDelete */\n      0x00\n        /* \"transporters_users.sol\":5132:5133  t */\n      dup2\n        /* \"transporters_users.sol\":5132:5139  t.index */\n      0x01\n      add\n      sload\n        /* \"transporters_users.sol\":5113:5139  uint rowToDelete = t.index */\n      swap1\n      pop\n        /* \"transporters_users.sol\":5149:5166  address keyToMove */\n      0x00\n        /* \"transporters_users.sol\":5169:5189  activeTransportArray */\n      dup4\n        /* \"transporters_users.sol\":5220:5221  1 */\n      0x01\n        /* \"transporters_users.sol\":5190:5210  activeTransportArray */\n      dup6\n        /* \"transporters_users.sol\":5190:5217  activeTransportArray.length */\n      dup1\n      sload\n      swap1\n      pop\n        /* \"transporters_users.sol\":5190:5221  activeTransportArray.length - 1 */\n      sub\n        /* \"transporters_users.sol\":5169:5222  activeTransportArray[activeTransportArray.length - 1] */\n      dup2\n      sload\n      dup2\n      lt\n      iszero\n      iszero\n      tag_40\n      jumpi\n      invalid\n    tag_40:\n      swap1\n      0x00\n      mstore\n      keccak256(0x00, 0x20)\n      add\n      0x00\n      swap1\n      sload\n      swap1\n      0x0100\n      exp\n      swap1\n      div\n      0xffffffffffffffffffffffffffffffffffffffff\n      and\n        /* \"transporters_users.sol\":5149:5222  address keyToMove = activeTransportArray[activeTransportArray.length - 1] */\n      swap1\n      pop\n        /* \"transporters_users.sol\":5269:5278  keyToMove */\n      dup1\n        /* \"transporters_users.sol\":5233:5253  activeTransportArray */\n      dup5\n        /* \"transporters_users.sol\":5254:5265  rowToDelete */\n      dup4\n        /* \"transporters_users.sol\":5233:5266  activeTransportArray[rowToDelete] */\n      dup2\n      sload\n      dup2\n      lt\n      iszero\n      iszero\n      tag_42\n      jumpi\n      invalid\n    tag_42:\n      swap1\n      0x00\n      mstore\n      keccak256(0x00, 0x20)\n      add\n      0x00\n        /* \"transporters_users.sol\":5233:5278  activeTransportArray[rowToDelete] = keyToMove */\n      0x0100\n      exp\n      dup2\n      sload\n      dup2\n      0xffffffffffffffffffffffffffffffffffffffff\n      mul\n      not\n      and\n      swap1\n      dup4\n      0xffffffffffffffffffffffffffffffffffffffff\n      and\n      mul\n      or\n      swap1\n      sstore\n      pop\n        /* \"transporters_users.sol\":5368:5379  rowToDelete */\n      dup2\n        /* \"transporters_users.sol\":5288:5296  tuMatrix */\n      0x01\n        /* \"transporters_users.sol\":5288:5317  tuMatrix[_transporterAddress] */\n      0x00\n        /* \"transporters_users.sol\":5297:5316  _transporterAddress */\n      dup9\n        /* \"transporters_users.sol\":5288:5317  tuMatrix[_transporterAddress] */\n      0xffffffffffffffffffffffffffffffffffffffff\n      and\n      0xffffffffffffffffffffffffffffffffffffffff\n      and\n      dup2\n      mstore\n      0x20\n      add\n      swap1\n      dup2\n      mstore\n      0x20\n      add\n      0x00\n      keccak256\n        /* \"transporters_users.sol\":5288:5331  tuMatrix[_transporterAddress][_userAddress] */\n      0x00\n        /* \"transporters_users.sol\":5318:5330  _userAddress */\n      dup10\n        /* \"transporters_users.sol\":5288:5331  tuMatrix[_transporterAddress][_userAddress] */\n      0xffffffffffffffffffffffffffffffffffffffff\n      and\n      0xffffffffffffffffffffffffffffffffffffffff\n      and\n      dup2\n      mstore\n      0x20\n      add\n      swap1\n      dup2\n      mstore\n      0x20\n      add\n      0x00\n      keccak256\n        /* \"transporters_users.sol\":5288:5348  tuMatrix[_transporterAddress][_userAddress].activeTransports */\n      0x06\n      add\n        /* \"transporters_users.sol\":5288:5359  tuMatrix[_transporterAddress][_userAddress].activeTransports[keyToMove] */\n      0x00\n        /* \"transporters_users.sol\":5349:5358  keyToMove */\n      dup4\n        /* \"transporters_users.sol\":5288:5359  tuMatrix[_transporterAddress][_userAddress].activeTransports[keyToMove] */\n      0xffffffffffffffffffffffffffffffffffffffff\n      and\n      0xffffffffffffffffffffffffffffffffffffffff\n      and\n      dup2\n      mstore\n      0x20\n      add\n      swap1\n      dup2\n      mstore\n      0x20\n      add\n      0x00\n      keccak256\n        /* \"transporters_users.sol\":5288:5365  tuMatrix[_transporterAddress][_userAddress].activeTransports[keyToMove].index */\n      0x01\n      add\n        /* \"transporters_users.sol\":5288:5379  tuMatrix[_transporterAddress][_userAddress].activeTransports[keyToMove].index = rowToDelete */\n      dup2\n      swap1\n      sstore\n      pop\n        /* \"transporters_users.sol\":5389:5409  activeTransportArray */\n      dup4\n        /* \"transporters_users.sol\":5389:5419  activeTransportArray.length -- */\n      dup1\n      sload\n      dup1\n      swap2\n      swap1\n      0x01\n      swap1\n      sub\n      tag_44\n      swap2\n      swap1\n      tag_45\n      jump\t// in\n    tag_44:\n      pop\n        /* \"transporters_users.sol\":4665:5426  function deleteTransport(address _userAddress, address _transporterAddress, address _assetAddress) public{... */\n      pop\n      pop\n      pop\n      pop\n      pop\n      pop\n      pop\n      jump\t// out\n        /* \"transporters_users.sol\":2494:3448  function requestTransportStart(address _userAddress, address _assetAddress, address _transporterAddress, address _receiverAddress) ... */\n    tag_22:\n        /* \"transporters_users.sol\":2659:2671  bool success */\n      0x00\n        /* \"transporters_users.sol\":2712:2732  traceabilityContract */\n      dup1\n      0x00\n      swap1\n      sload\n      swap1\n      0x0100\n      exp\n      swap1\n      div\n      0xffffffffffffffffffffffffffffffffffffffff\n      and\n        /* \"transporters_users.sol\":2698:2732  msg.sender == traceabilityContract */\n      0xffffffffffffffffffffffffffffffffffffffff\n      and\n        /* \"transporters_users.sol\":2698:2708  msg.sender */\n      caller\n        /* \"transporters_users.sol\":2698:2732  msg.sender == traceabilityContract */\n      0xffffffffffffffffffffffffffffffffffffffff\n      and\n      eq\n        /* \"transporters_users.sol\":2690:2761  require(msg.sender == traceabilityContract, \"only TC can do this call\") */\n      iszero\n      iszero\n      tag_47\n      jumpi\n      mload(0x40)\n      0x08c379a000000000000000000000000000000000000000000000000000000000\n      dup2\n      mstore\n      0x04\n      add\n      dup1\n      dup1\n      0x20\n      add\n      dup3\n      dup2\n      sub\n      dup3\n      mstore\n      0x18\n      dup2\n      mstore\n      0x20\n      add\n      dup1\n      0x6f6e6c792054432063616e20646f20746869732063616c6c0000000000000000\n      dup2\n      mstore\n      pop\n      0x20\n      add\n      swap2\n      pop\n      pop\n      mload(0x40)\n      dup1\n      swap2\n      sub\n      swap1\n      revert\n    tag_47:\n        /* \"transporters_users.sol\":2848:2852  true */\n      0x01\n        /* \"transporters_users.sol\":2792:2852  isTransporterOfUser(_transporterAddress, msg.sender) == true */\n      iszero\n      iszero\n        /* \"transporters_users.sol\":2792:2844  isTransporterOfUser(_transporterAddress, msg.sender) */\n      tag_48\n        /* \"transporters_users.sol\":2812:2831  _transporterAddress */\n      dup5\n        /* \"transporters_users.sol\":2833:2843  msg.sender */\n      caller\n        /* \"transporters_users.sol\":2792:2811  isTransporterOfUser */\n      tag_28\n        /* \"transporters_users.sol\":2792:2844  isTransporterOfUser(_transporterAddress, msg.sender) */\n      jump\t// in\n    tag_48:\n        /* \"transporters_users.sol\":2792:2852  isTransporterOfUser(_transporterAddress, msg.sender) == true */\n      iszero\n      iszero\n      eq\n        /* \"transporters_users.sol\":2771:2923  require(... */\n      iszero\n      iszero\n      tag_49\n      jumpi\n      mload(0x40)\n      0x08c379a000000000000000000000000000000000000000000000000000000000\n      dup2\n      mstore\n      0x04\n      add\n      dup1\n      dup1\n      0x20\n      add\n      dup3\n      dup2\n      sub\n      dup3\n      mstore\n      0x2c\n      dup2\n      mstore\n      0x20\n      add\n      dup1\n      data_314a78c46bcdb0b036fee4186417aed0f0dec006f476c7b3a487e66fa99a6b2e\n      0x2c\n      swap2\n      codecopy\n      0x40\n      add\n      swap2\n      pop\n      pop\n      mload(0x40)\n      dup1\n      swap2\n      sub\n      swap1\n      revert\n    tag_49:\n        /* \"transporters_users.sol\":3005:3032  Transporter_User storage tu */\n      0x00\n        /* \"transporters_users.sol\":3035:3043  tuMatrix */\n      0x01\n        /* \"transporters_users.sol\":3035:3064  tuMatrix[_transporterAddress] */\n      0x00\n        /* \"transporters_users.sol\":3044:3063  _transporterAddress */\n      dup6\n        /* \"transporters_users.sol\":3035:3064  tuMatrix[_transporterAddress] */\n      0xffffffffffffffffffffffffffffffffffffffff\n      and\n      0xffffffffffffffffffffffffffffffffffffffff\n      and\n      dup2\n      mstore\n      0x20\n      add\n      swap1\n      dup2\n      mstore\n      0x20\n      add\n      0x00\n      keccak256\n        /* \"transporters_users.sol\":3035:3078  tuMatrix[_transporterAddress][_userAddress] */\n      0x00\n        /* \"transporters_users.sol\":3065:3077  _userAddress */\n      dup8\n        /* \"transporters_users.sol\":3035:3078  tuMatrix[_transporterAddress][_userAddress] */\n      0xffffffffffffffffffffffffffffffffffffffff\n      and\n      0xffffffffffffffffffffffffffffffffffffffff\n      and\n      dup2\n      mstore\n      0x20\n      add\n      swap1\n      dup2\n      mstore\n      0x20\n      add\n      0x00\n      keccak256\n        /* \"transporters_users.sol\":3005:3078  Transporter_User storage tu = tuMatrix[_transporterAddress][_userAddress] */\n      swap1\n      pop\n        /* \"transporters_users.sol\":3104:3123  Transport storage t */\n      0x00\n        /* \"transporters_users.sol\":3126:3128  tu */\n      dup2\n        /* \"transporters_users.sol\":3126:3146  tu.pendingTransports */\n      0x04\n      add\n        /* \"transporters_users.sol\":3126:3161  tu.pendingTransports[_assetAddress] */\n      0x00\n        /* \"transporters_users.sol\":3147:3160  _assetAddress */\n      dup8\n        /* \"transporters_users.sol\":3126:3161  tu.pendingTransports[_assetAddress] */\n      0xffffffffffffffffffffffffffffffffffffffff\n      and\n      0xffffffffffffffffffffffffffffffffffffffff\n      and\n      dup2\n      mstore\n      0x20\n      add\n      swap1\n      dup2\n      mstore\n      0x20\n      add\n      0x00\n      keccak256\n        /* \"transporters_users.sol\":3104:3161  Transport storage t = tu.pendingTransports[_assetAddress] */\n      swap1\n      pop\n        /* \"transporters_users.sol\":3182:3209  TransportState.PendingStart */\n      0x00\n        /* \"transporters_users.sol\":3172:3173  t */\n      dup2\n        /* \"transporters_users.sol\":3172:3179  t.state */\n      0x00\n      add\n      0x00\n        /* \"transporters_users.sol\":3172:3209  t.state = TransportState.PendingStart */\n      0x0100\n      exp\n      dup2\n      sload\n      dup2\n      0xff\n      mul\n      not\n      and\n      swap1\n      dup4\n      0x02\n      dup2\n      gt\n      iszero\n      tag_50\n      jumpi\n      invalid\n    tag_50:\n      mul\n      or\n      swap1\n      sstore\n      pop\n        /* \"transporters_users.sol\":3228:3240  _userAddress */\n      dup7\n        /* \"transporters_users.sol\":3219:3220  t */\n      dup2\n        /* \"transporters_users.sol\":3219:3225  t.from */\n      0x02\n      add\n      0x00\n        /* \"transporters_users.sol\":3219:3240  t.from = _userAddress */\n      0x0100\n      exp\n      dup2\n      sload\n      dup2\n      0xffffffffffffffffffffffffffffffffffffffff\n      mul\n      not\n      and\n      swap1\n      dup4\n      0xffffffffffffffffffffffffffffffffffffffff\n      and\n      mul\n      or\n      swap1\n      sstore\n      pop\n        /* \"transporters_users.sol\":3257:3273  _receiverAddress */\n      dup4\n        /* \"transporters_users.sol\":3250:3251  t */\n      dup2\n        /* \"transporters_users.sol\":3250:3254  t.to */\n      0x03\n      add\n      0x00\n        /* \"transporters_users.sol\":3250:3273  t.to = _receiverAddress */\n      0x0100\n      exp\n      dup2\n      sload\n      dup2\n      0xffffffffffffffffffffffffffffffffffffffff\n      mul\n      not\n      and\n      swap1\n      dup4\n      0xffffffffffffffffffffffffffffffffffffffff\n      and\n      mul\n      or\n      swap1\n      sstore\n      pop\n        /* \"transporters_users.sol\":3299:3318  _transporterAddress */\n      dup5\n        /* \"transporters_users.sol\":3283:3284  t */\n      dup2\n        /* \"transporters_users.sol\":3283:3296  t.transporter */\n      0x04\n      add\n      0x00\n        /* \"transporters_users.sol\":3283:3318  t.transporter = _transporterAddress */\n      0x0100\n      exp\n      dup2\n      sload\n      dup2\n      0xffffffffffffffffffffffffffffffffffffffff\n      mul\n      not\n      and\n      swap1\n      dup4\n      0xffffffffffffffffffffffffffffffffffffffff\n      and\n      mul\n      or\n      swap1\n      sstore\n      pop\n        /* \"transporters_users.sol\":3338:3351  _assetAddress */\n      dup6\n        /* \"transporters_users.sol\":3328:3329  t */\n      dup2\n        /* \"transporters_users.sol\":3328:3335  t.asset */\n      0x05\n      add\n      0x00\n        /* \"transporters_users.sol\":3328:3351  t.asset = _assetAddress */\n      0x0100\n      exp\n      dup2\n      sload\n      dup2\n      0xffffffffffffffffffffffffffffffffffffffff\n      mul\n      not\n      and\n      swap1\n      dup4\n      0xffffffffffffffffffffffffffffffffffffffff\n      and\n      mul\n      or\n      swap1\n      sstore\n      pop\n        /* \"transporters_users.sol\":3418:3419  1 */\n      0x01\n        /* \"transporters_users.sol\":3371:3373  tu */\n      dup3\n        /* \"transporters_users.sol\":3371:3395  tu.pendingTransportsList */\n      0x05\n      add\n        /* \"transporters_users.sol\":3401:3414  _assetAddress */\n      dup8\n        /* \"transporters_users.sol\":3371:3415  tu.pendingTransportsList.push(_assetAddress) */\n      swap1\n      dup1\n        /* \"--CODEGEN--\":39:40   */\n      0x01\n        /* \"--CODEGEN--\":33:36   */\n      dup2\n        /* \"--CODEGEN--\":27:37   */\n      sload\n        /* \"--CODEGEN--\":23:41   */\n      add\n        /* \"--CODEGEN--\":57:67   */\n      dup1\n        /* \"--CODEGEN--\":52:55   */\n      dup3\n        /* \"--CODEGEN--\":45:68   */\n      sstore\n        /* \"--CODEGEN--\":79:89   */\n      dup1\n        /* \"--CODEGEN--\":72:89   */\n      swap2\n      pop\n        /* \"--CODEGEN--\":0:93   */\n      pop\n        /* \"transporters_users.sol\":3371:3415  tu.pendingTransportsList.push(_assetAddress) */\n      swap1\n      0x01\n      dup3\n      sub\n      swap1\n      0x00\n      mstore\n      keccak256(0x00, 0x20)\n      add\n      0x00\n      swap1\n      swap2\n      swap3\n      swap1\n      swap2\n      swap1\n      swap2\n      0x0100\n      exp\n      dup2\n      sload\n      dup2\n      0xffffffffffffffffffffffffffffffffffffffff\n      mul\n      not\n      and\n      swap1\n      dup4\n      0xffffffffffffffffffffffffffffffffffffffff\n      and\n      mul\n      or\n      swap1\n      sstore\n      pop\n        /* \"transporters_users.sol\":3371:3419  tu.pendingTransportsList.push(_assetAddress) - 1 */\n      sub\n        /* \"transporters_users.sol\":3361:3362  t */\n      dup2\n        /* \"transporters_users.sol\":3361:3368  t.index */\n      0x01\n      add\n        /* \"transporters_users.sol\":3361:3419  t.index = tu.pendingTransportsList.push(_assetAddress) - 1 */\n      dup2\n      swap1\n      sstore\n      pop\n        /* \"transporters_users.sol\":3437:3441  true */\n      0x01\n        /* \"transporters_users.sol\":3430:3441  return true */\n      swap3\n      pop\n      pop\n      pop\n        /* \"transporters_users.sol\":2494:3448  function requestTransportStart(address _userAddress, address _assetAddress, address _transporterAddress, address _receiverAddress) ... */\n      swap5\n      swap4\n      pop\n      pop\n      pop\n      pop\n      jump\t// out\n        /* \"transporters_users.sol\":2144:2488  function isPendingTransport(address _userAddress, address _transporterAddress, address _assetAddress) ... */\n    tag_25:\n        /* \"transporters_users.sol\":2276:2289  bool isIndeed */\n      0x00\n        /* \"transporters_users.sol\":2305:2332  Transporter_User storage tu */\n      dup1\n        /* \"transporters_users.sol\":2335:2343  tuMatrix */\n      0x01\n        /* \"transporters_users.sol\":2335:2364  tuMatrix[_transporterAddress] */\n      0x00\n        /* \"transporters_users.sol\":2344:2363  _transporterAddress */\n      dup6\n        /* \"transporters_users.sol\":2335:2364  tuMatrix[_transporterAddress] */\n      0xffffffffffffffffffffffffffffffffffffffff\n      and\n      0xffffffffffffffffffffffffffffffffffffffff\n      and\n      dup2\n      mstore\n      0x20\n      add\n      swap1\n      dup2\n      mstore\n      0x20\n      add\n      0x00\n      keccak256\n        /* \"transporters_users.sol\":2335:2378  tuMatrix[_transporterAddress][_userAddress] */\n      0x00\n        /* \"transporters_users.sol\":2365:2377  _userAddress */\n      dup7\n        /* \"transporters_users.sol\":2335:2378  tuMatrix[_transporterAddress][_userAddress] */\n      0xffffffffffffffffffffffffffffffffffffffff\n      and\n      0xffffffffffffffffffffffffffffffffffffffff\n      and\n      dup2\n      mstore\n      0x20\n      add\n      swap1\n      dup2\n      mstore\n      0x20\n      add\n      0x00\n      keccak256\n        /* \"transporters_users.sol\":2305:2378  Transporter_User storage tu = tuMatrix[_transporterAddress][_userAddress] */\n      swap1\n      pop\n        /* \"transporters_users.sol\":2413:2415  tu */\n      dup1\n        /* \"transporters_users.sol\":2413:2437  tu.pendingTransportsList */\n      0x05\n      add\n        /* \"transporters_users.sol\":2438:2440  tu */\n      dup2\n        /* \"transporters_users.sol\":2438:2458  tu.pendingTransports */\n      0x04\n      add\n        /* \"transporters_users.sol\":2438:2473  tu.pendingTransports[_assetAddress] */\n      0x00\n        /* \"transporters_users.sol\":2459:2472  _assetAddress */\n      dup6\n        /* \"transporters_users.sol\":2438:2473  tu.pendingTransports[_assetAddress] */\n      0xffffffffffffffffffffffffffffffffffffffff\n      and\n      0xffffffffffffffffffffffffffffffffffffffff\n      and\n      dup2\n      mstore\n      0x20\n      add\n      swap1\n      dup2\n      mstore\n      0x20\n      add\n      0x00\n      keccak256\n        /* \"transporters_users.sol\":2438:2479  tu.pendingTransports[_assetAddress].index */\n      0x01\n      add\n      sload\n        /* \"transporters_users.sol\":2413:2480  tu.pendingTransportsList[tu.pendingTransports[_assetAddress].index] */\n      dup2\n      sload\n      dup2\n      lt\n      iszero\n      iszero\n      tag_53\n      jumpi\n      invalid\n    tag_53:\n      swap1\n      0x00\n      mstore\n      keccak256(0x00, 0x20)\n      add\n      0x00\n      swap1\n      sload\n      swap1\n      0x0100\n      exp\n      swap1\n      div\n      0xffffffffffffffffffffffffffffffffffffffff\n      and\n        /* \"transporters_users.sol\":2396:2480  _assetAddress == tu.pendingTransportsList[tu.pendingTransports[_assetAddress].index] */\n      0xffffffffffffffffffffffffffffffffffffffff\n      and\n        /* \"transporters_users.sol\":2396:2409  _assetAddress */\n      dup4\n        /* \"transporters_users.sol\":2396:2480  _assetAddress == tu.pendingTransportsList[tu.pendingTransports[_assetAddress].index] */\n      0xffffffffffffffffffffffffffffffffffffffff\n      and\n      eq\n        /* \"transporters_users.sol\":2388:2481  return (_assetAddress == tu.pendingTransportsList[tu.pendingTransports[_assetAddress].index]) */\n      swap2\n      pop\n      pop\n        /* \"transporters_users.sol\":2144:2488  function isPendingTransport(address _userAddress, address _transporterAddress, address _assetAddress) ... */\n      swap4\n      swap3\n      pop\n      pop\n      pop\n      jump\t// out\n        /* \"transporters_users.sol\":1930:2138  function isTransporterOfUser(address _transporterAddress, address _userAddress) public view returns (bool isIndeed){... */\n    tag_28:\n        /* \"transporters_users.sol\":2031:2044  bool isIndeed */\n      0x00\n        /* \"transporters_users.sol\":2129:2130  0 */\n      dup1\n        /* \"transporters_users.sol\":2062:2131  tuMatrix[_transporterAddress][_userAddress].transporter != address(0) */\n      0xffffffffffffffffffffffffffffffffffffffff\n      and\n        /* \"transporters_users.sol\":2062:2070  tuMatrix */\n      0x01\n        /* \"transporters_users.sol\":2062:2091  tuMatrix[_transporterAddress] */\n      0x00\n        /* \"transporters_users.sol\":2071:2090  _transporterAddress */\n      dup6\n        /* \"transporters_users.sol\":2062:2091  tuMatrix[_transporterAddress] */\n      0xffffffffffffffffffffffffffffffffffffffff\n      and\n      0xffffffffffffffffffffffffffffffffffffffff\n      and\n      dup2\n      mstore\n      0x20\n      add\n      swap1\n      dup2\n      mstore\n      0x20\n      add\n      0x00\n      keccak256\n        /* \"transporters_users.sol\":2062:2105  tuMatrix[_transporterAddress][_userAddress] */\n      0x00\n        /* \"transporters_users.sol\":2092:2104  _userAddress */\n      dup5\n        /* \"transporters_users.sol\":2062:2105  tuMatrix[_transporterAddress][_userAddress] */\n      0xffffffffffffffffffffffffffffffffffffffff\n      and\n      0xffffffffffffffffffffffffffffffffffffffff\n      and\n      dup2\n      mstore\n      0x20\n      add\n      swap1\n      dup2\n      mstore\n      0x20\n      add\n      0x00\n      keccak256\n        /* \"transporters_users.sol\":2062:2117  tuMatrix[_transporterAddress][_userAddress].transporter */\n      0x00\n      add\n      0x00\n      swap1\n      sload\n      swap1\n      0x0100\n      exp\n      swap1\n      div\n      0xffffffffffffffffffffffffffffffffffffffff\n      and\n        /* \"transporters_users.sol\":2062:2131  tuMatrix[_transporterAddress][_userAddress].transporter != address(0) */\n      0xffffffffffffffffffffffffffffffffffffffff\n      and\n      eq\n      iszero\n        /* \"transporters_users.sol\":2055:2131  return tuMatrix[_transporterAddress][_userAddress].transporter != address(0) */\n      swap1\n      pop\n        /* \"transporters_users.sol\":1930:2138  function isTransporterOfUser(address _transporterAddress, address _userAddress) public view returns (bool isIndeed){... */\n      swap3\n      swap2\n      pop\n      pop\n      jump\t// out\n        /* \"transporters_users.sol\":3454:4415  function activateTransport(address _userAddress, address _transporterAddress, address _assetAddress) public{... */\n    tag_31:\n        /* \"transporters_users.sol\":3593:3613  traceabilityContract */\n      0x00\n      dup1\n      swap1\n      sload\n      swap1\n      0x0100\n      exp\n      swap1\n      div\n      0xffffffffffffffffffffffffffffffffffffffff\n      and\n        /* \"transporters_users.sol\":3579:3613  msg.sender == traceabilityContract */\n      0xffffffffffffffffffffffffffffffffffffffff\n      and\n        /* \"transporters_users.sol\":3579:3589  msg.sender */\n      caller\n        /* \"transporters_users.sol\":3579:3613  msg.sender == traceabilityContract */\n      0xffffffffffffffffffffffffffffffffffffffff\n      and\n      eq\n        /* \"transporters_users.sol\":3571:3642  require(msg.sender == traceabilityContract, \"only TC can do this call\") */\n      iszero\n      iszero\n      tag_57\n      jumpi\n      mload(0x40)\n      0x08c379a000000000000000000000000000000000000000000000000000000000\n      dup2\n      mstore\n      0x04\n      add\n      dup1\n      dup1\n      0x20\n      add\n      dup3\n      dup2\n      sub\n      dup3\n      mstore\n      0x18\n      dup2\n      mstore\n      0x20\n      add\n      dup1\n      0x6f6e6c792054432063616e20646f20746869732063616c6c0000000000000000\n      dup2\n      mstore\n      pop\n      0x20\n      add\n      swap2\n      pop\n      pop\n      mload(0x40)\n      dup1\n      swap2\n      sub\n      swap1\n      revert\n    tag_57:\n        /* \"transporters_users.sol\":3653:3692  address[] storage pendingTransportArray */\n      0x00\n        /* \"transporters_users.sol\":3695:3703  tuMatrix */\n      0x01\n        /* \"transporters_users.sol\":3695:3724  tuMatrix[_transporterAddress] */\n      0x00\n        /* \"transporters_users.sol\":3704:3723  _transporterAddress */\n      dup5\n        /* \"transporters_users.sol\":3695:3724  tuMatrix[_transporterAddress] */\n      0xffffffffffffffffffffffffffffffffffffffff\n      and\n      0xffffffffffffffffffffffffffffffffffffffff\n      and\n      dup2\n      mstore\n      0x20\n      add\n      swap1\n      dup2\n      mstore\n      0x20\n      add\n      0x00\n      keccak256\n        /* \"transporters_users.sol\":3695:3738  tuMatrix[_transporterAddress][_userAddress] */\n      0x00\n        /* \"transporters_users.sol\":3725:3737  _userAddress */\n      dup6\n        /* \"transporters_users.sol\":3695:3738  tuMatrix[_transporterAddress][_userAddress] */\n      0xffffffffffffffffffffffffffffffffffffffff\n      and\n      0xffffffffffffffffffffffffffffffffffffffff\n      and\n      dup2\n      mstore\n      0x20\n      add\n      swap1\n      dup2\n      mstore\n      0x20\n      add\n      0x00\n      keccak256\n        /* \"transporters_users.sol\":3695:3760  tuMatrix[_transporterAddress][_userAddress].pendingTransportsList */\n      0x05\n      add\n        /* \"transporters_users.sol\":3653:3760  address[] storage pendingTransportArray = tuMatrix[_transporterAddress][_userAddress].pendingTransportsList */\n      swap1\n      pop\n        /* \"transporters_users.sol\":3770:3789  Transport storage t */\n      0x00\n        /* \"transporters_users.sol\":3792:3800  tuMatrix */\n      0x01\n        /* \"transporters_users.sol\":3792:3821  tuMatrix[_transporterAddress] */\n      0x00\n        /* \"transporters_users.sol\":3801:3820  _transporterAddress */\n      dup6\n        /* \"transporters_users.sol\":3792:3821  tuMatrix[_transporterAddress] */\n      0xffffffffffffffffffffffffffffffffffffffff\n      and\n      0xffffffffffffffffffffffffffffffffffffffff\n      and\n      dup2\n      mstore\n      0x20\n      add\n      swap1\n      dup2\n      mstore\n      0x20\n      add\n      0x00\n      keccak256\n        /* \"transporters_users.sol\":3792:3835  tuMatrix[_transporterAddress][_userAddress] */\n      0x00\n        /* \"transporters_users.sol\":3822:3834  _userAddress */\n      dup7\n        /* \"transporters_users.sol\":3792:3835  tuMatrix[_transporterAddress][_userAddress] */\n      0xffffffffffffffffffffffffffffffffffffffff\n      and\n      0xffffffffffffffffffffffffffffffffffffffff\n      and\n      dup2\n      mstore\n      0x20\n      add\n      swap1\n      dup2\n      mstore\n      0x20\n      add\n      0x00\n      keccak256\n        /* \"transporters_users.sol\":3792:3853  tuMatrix[_transporterAddress][_userAddress].pendingTransports */\n      0x04\n      add\n        /* \"transporters_users.sol\":3792:3868  tuMatrix[_transporterAddress][_userAddress].pendingTransports[_assetAddress] */\n      0x00\n        /* \"transporters_users.sol\":3854:3867  _assetAddress */\n      dup5\n        /* \"transporters_users.sol\":3792:3868  tuMatrix[_transporterAddress][_userAddress].pendingTransports[_assetAddress] */\n      0xffffffffffffffffffffffffffffffffffffffff\n      and\n      0xffffffffffffffffffffffffffffffffffffffff\n      and\n      dup2\n      mstore\n      0x20\n      add\n      swap1\n      dup2\n      mstore\n      0x20\n      add\n      0x00\n      keccak256\n        /* \"transporters_users.sol\":3770:3868  Transport storage t = tuMatrix[_transporterAddress][_userAddress].pendingTransports[_assetAddress] */\n      swap1\n      pop\n        /* \"transporters_users.sol\":3917:3933  uint rowToDelete */\n      0x00\n        /* \"transporters_users.sol\":3936:3937  t */\n      dup2\n        /* \"transporters_users.sol\":3936:3943  t.index */\n      0x01\n      add\n      sload\n        /* \"transporters_users.sol\":3917:3943  uint rowToDelete = t.index */\n      swap1\n      pop\n        /* \"transporters_users.sol\":3953:3970  address keyToMove */\n      0x00\n        /* \"transporters_users.sol\":3973:3994  pendingTransportArray */\n      dup4\n        /* \"transporters_users.sol\":4026:4027  1 */\n      0x01\n        /* \"transporters_users.sol\":3995:4016  pendingTransportArray */\n      dup6\n        /* \"transporters_users.sol\":3995:4023  pendingTransportArray.length */\n      dup1\n      sload\n      swap1\n      pop\n        /* \"transporters_users.sol\":3995:4027  pendingTransportArray.length - 1 */\n      sub\n        /* \"transporters_users.sol\":3973:4028  pendingTransportArray[pendingTransportArray.length - 1] */\n      dup2\n      sload\n      dup2\n      lt\n      iszero\n      iszero\n      tag_58\n      jumpi\n      invalid\n    tag_58:\n      swap1\n      0x00\n      mstore\n      keccak256(0x00, 0x20)\n      add\n      0x00\n      swap1\n      sload\n      swap1\n      0x0100\n      exp\n      swap1\n      div\n      0xffffffffffffffffffffffffffffffffffffffff\n      and\n        /* \"transporters_users.sol\":3953:4028  address keyToMove = pendingTransportArray[pendingTransportArray.length - 1] */\n      swap1\n      pop\n        /* \"transporters_users.sol\":4076:4085  keyToMove */\n      dup1\n        /* \"transporters_users.sol\":4039:4060  pendingTransportArray */\n      dup5\n        /* \"transporters_users.sol\":4061:4072  rowToDelete */\n      dup4\n        /* \"transporters_users.sol\":4039:4073  pendingTransportArray[rowToDelete] */\n      dup2\n      sload\n      dup2\n      lt\n      iszero\n      iszero\n      tag_60\n      jumpi\n      invalid\n    tag_60:\n      swap1\n      0x00\n      mstore\n      keccak256(0x00, 0x20)\n      add\n      0x00\n        /* \"transporters_users.sol\":4039:4085  pendingTransportArray[rowToDelete] = keyToMove */\n      0x0100\n      exp\n      dup2\n      sload\n      dup2\n      0xffffffffffffffffffffffffffffffffffffffff\n      mul\n      not\n      and\n      swap1\n      dup4\n      0xffffffffffffffffffffffffffffffffffffffff\n      and\n      mul\n      or\n      swap1\n      sstore\n      pop\n        /* \"transporters_users.sol\":4176:4187  rowToDelete */\n      dup2\n        /* \"transporters_users.sol\":4095:4103  tuMatrix */\n      0x01\n        /* \"transporters_users.sol\":4095:4124  tuMatrix[_transporterAddress] */\n      0x00\n        /* \"transporters_users.sol\":4104:4123  _transporterAddress */\n      dup9\n        /* \"transporters_users.sol\":4095:4124  tuMatrix[_transporterAddress] */\n      0xffffffffffffffffffffffffffffffffffffffff\n      and\n      0xffffffffffffffffffffffffffffffffffffffff\n      and\n      dup2\n      mstore\n      0x20\n      add\n      swap1\n      dup2\n      mstore\n      0x20\n      add\n      0x00\n      keccak256\n        /* \"transporters_users.sol\":4095:4138  tuMatrix[_transporterAddress][_userAddress] */\n      0x00\n        /* \"transporters_users.sol\":4125:4137  _userAddress */\n      dup10\n        /* \"transporters_users.sol\":4095:4138  tuMatrix[_transporterAddress][_userAddress] */\n      0xffffffffffffffffffffffffffffffffffffffff\n      and\n      0xffffffffffffffffffffffffffffffffffffffff\n      and\n      dup2\n      mstore\n      0x20\n      add\n      swap1\n      dup2\n      mstore\n      0x20\n      add\n      0x00\n      keccak256\n        /* \"transporters_users.sol\":4095:4156  tuMatrix[_transporterAddress][_userAddress].pendingTransports */\n      0x04\n      add\n        /* \"transporters_users.sol\":4095:4167  tuMatrix[_transporterAddress][_userAddress].pendingTransports[keyToMove] */\n      0x00\n        /* \"transporters_users.sol\":4157:4166  keyToMove */\n      dup4\n        /* \"transporters_users.sol\":4095:4167  tuMatrix[_transporterAddress][_userAddress].pendingTransports[keyToMove] */\n      0xffffffffffffffffffffffffffffffffffffffff\n      and\n      0xffffffffffffffffffffffffffffffffffffffff\n      and\n      dup2\n      mstore\n      0x20\n      add\n      swap1\n      dup2\n      mstore\n      0x20\n      add\n      0x00\n      keccak256\n        /* \"transporters_users.sol\":4095:4173  tuMatrix[_transporterAddress][_userAddress].pendingTransports[keyToMove].index */\n      0x01\n      add\n        /* \"transporters_users.sol\":4095:4187  tuMatrix[_transporterAddress][_userAddress].pendingTransports[keyToMove].index = rowToDelete */\n      dup2\n      swap1\n      sstore\n      pop\n        /* \"transporters_users.sol\":4197:4218  pendingTransportArray */\n      dup4\n        /* \"transporters_users.sol\":4197:4228  pendingTransportArray.length -- */\n      dup1\n      sload\n      dup1\n      swap2\n      swap1\n      0x01\n      swap1\n      sub\n      tag_62\n      swap2\n      swap1\n      tag_45\n      jump\t// in\n    tag_62:\n      pop\n        /* \"transporters_users.sol\":4360:4361  1 */\n      0x01\n        /* \"transporters_users.sol\":4273:4281  tuMatrix */\n      dup1\n        /* \"transporters_users.sol\":4273:4302  tuMatrix[_transporterAddress] */\n      0x00\n        /* \"transporters_users.sol\":4282:4301  _transporterAddress */\n      dup9\n        /* \"transporters_users.sol\":4273:4302  tuMatrix[_transporterAddress] */\n      0xffffffffffffffffffffffffffffffffffffffff\n      and\n      0xffffffffffffffffffffffffffffffffffffffff\n      and\n      dup2\n      mstore\n      0x20\n      add\n      swap1\n      dup2\n      mstore\n      0x20\n      add\n      0x00\n      keccak256\n        /* \"transporters_users.sol\":4273:4316  tuMatrix[_transporterAddress][_userAddress] */\n      0x00\n        /* \"transporters_users.sol\":4303:4315  _userAddress */\n      dup10\n        /* \"transporters_users.sol\":4273:4316  tuMatrix[_transporterAddress][_userAddress] */\n      0xffffffffffffffffffffffffffffffffffffffff\n      and\n      0xffffffffffffffffffffffffffffffffffffffff\n      and\n      dup2\n      mstore\n      0x20\n      add\n      swap1\n      dup2\n      mstore\n      0x20\n      add\n      0x00\n      keccak256\n        /* \"transporters_users.sol\":4273:4337  tuMatrix[_transporterAddress][_userAddress].activeTransportsList */\n      0x07\n      add\n        /* \"transporters_users.sol\":4343:4356  _assetAddress */\n      dup7\n        /* \"transporters_users.sol\":4273:4357  tuMatrix[_transporterAddress][_userAddress].activeTransportsList.push(_assetAddress) */\n      swap1\n      dup1\n        /* \"--CODEGEN--\":39:40   */\n      0x01\n        /* \"--CODEGEN--\":33:36   */\n      dup2\n        /* \"--CODEGEN--\":27:37   */\n      sload\n        /* \"--CODEGEN--\":23:41   */\n      add\n        /* \"--CODEGEN--\":57:67   */\n      dup1\n        /* \"--CODEGEN--\":52:55   */\n      dup3\n        /* \"--CODEGEN--\":45:68   */\n      sstore\n        /* \"--CODEGEN--\":79:89   */\n      dup1\n        /* \"--CODEGEN--\":72:89   */\n      swap2\n      pop\n        /* \"--CODEGEN--\":0:93   */\n      pop\n        /* \"transporters_users.sol\":4273:4357  tuMatrix[_transporterAddress][_userAddress].activeTransportsList.push(_assetAddress) */\n      swap1\n      0x01\n      dup3\n      sub\n      swap1\n      0x00\n      mstore\n      keccak256(0x00, 0x20)\n      add\n      0x00\n      swap1\n      swap2\n      swap3\n      swap1\n      swap2\n      swap1\n      swap2\n      0x0100\n      exp\n      dup2\n      sload\n      dup2\n      0xffffffffffffffffffffffffffffffffffffffff\n      mul\n      not\n      and\n      swap1\n      dup4\n      0xffffffffffffffffffffffffffffffffffffffff\n      and\n      mul\n      or\n      swap1\n      sstore\n      pop\n        /* \"transporters_users.sol\":4273:4361  tuMatrix[_transporterAddress][_userAddress].activeTransportsList.push(_assetAddress) - 1 */\n      sub\n        /* \"transporters_users.sol\":4263:4264  t */\n      dup4\n        /* \"transporters_users.sol\":4263:4270  t.index */\n      0x01\n      add\n        /* \"transporters_users.sol\":4263:4361  t.index = tuMatrix[_transporterAddress][_userAddress].activeTransportsList.push(_assetAddress) - 1 */\n      dup2\n      swap1\n      sstore\n      pop\n        /* \"transporters_users.sol\":4381:4408  TransportState.Transporting */\n      0x01\n        /* \"transporters_users.sol\":4371:4372  t */\n      dup4\n        /* \"transporters_users.sol\":4371:4378  t.state */\n      0x00\n      add\n      0x00\n        /* \"transporters_users.sol\":4371:4408  t.state = TransportState.Transporting */\n      0x0100\n      exp\n      dup2\n      sload\n      dup2\n      0xff\n      mul\n      not\n      and\n      swap1\n      dup4\n      0x02\n      dup2\n      gt\n      iszero\n      tag_64\n      jumpi\n      invalid\n    tag_64:\n      mul\n      or\n      swap1\n      sstore\n      pop\n        /* \"transporters_users.sol\":3454:4415  function activateTransport(address _userAddress, address _transporterAddress, address _assetAddress) public{... */\n      pop\n      pop\n      pop\n      pop\n      pop\n      pop\n      pop\n      jump\t// out\n        /* \"transporters_users.sol\":25:5428  contract Transporters_Users{... */\n    tag_45:\n      dup2\n      sload\n      dup2\n      dup4\n      sstore\n      dup2\n      dup2\n      gt\n      iszero\n      tag_65\n      jumpi\n      dup2\n      dup4\n      0x00\n      mstore\n      keccak256(0x00, 0x20)\n      swap2\n      dup3\n      add\n      swap2\n      add\n      tag_66\n      swap2\n      swap1\n      tag_67\n      jump\t// in\n    tag_66:\n    tag_65:\n      pop\n      pop\n      pop\n      jump\t// out\n    tag_67:\n      tag_68\n      swap2\n      swap1\n    tag_69:\n      dup1\n      dup3\n      gt\n      iszero\n      tag_70\n      jumpi\n      0x00\n      dup2\n      0x00\n      swap1\n      sstore\n      pop\n      0x01\n      add\n      jump(tag_69)\n    tag_70:\n      pop\n      swap1\n      jump\n    tag_68:\n      swap1\n      jump\t// out\n    stop\n    data_314a78c46bcdb0b036fee4186417aed0f0dec006f476c7b3a487e66fa99a6b2e 7472616e73706f72746572206973206e6f7420706172746e6572206f66206d6573736167652073656e646572\n\n    auxdata: 0xa165627a7a723058201f71e1b8152649a06fd9825e9e72df860b8ef668e8e22b74c36ec8d34d474d400029\n}\n","bytecode":{"linkReferences":{},"object":"608060405234801561001057600080fd5b506040516020806117a98339810180604052602081101561003057600080fd5b8101908080519060200190929190505050806000806101000a81548173ffffffffffffffffffffffffffffffffffffffff021916908373ffffffffffffffffffffffffffffffffffffffff16021790555050611718806100916000396000f3fe608060405234801561001057600080fd5b506004361061009a576000357c01000000000000000000000000000000000000000000000000000000009004806390097b3c1161007857806390097b3c146102635780639eb8452a1461031f578063d1a08567146103bb578063d8775956146104375761009a565b806328d3170a1461009f578063365d82261461011b5780636a20d949146101df575b600080fd5b610101600480360360408110156100b557600080fd5b81019080803573ffffffffffffffffffffffffffffffffffffffff169060200190929190803573ffffffffffffffffffffffffffffffffffffffff1690602001909291905050506104bb565b604051808215151515815260200191505060405180910390f35b61019d6004803603606081101561013157600080fd5b81019080803573ffffffffffffffffffffffffffffffffffffffff169060200190929190803573ffffffffffffffffffffffffffffffffffffffff169060200190929190803573ffffffffffffffffffffffffffffffffffffffff1690602001909291905050506107a1565b604051808273ffffffffffffffffffffffffffffffffffffffff1673ffffffffffffffffffffffffffffffffffffffff16815260200191505060405180910390f35b610261600480360360608110156101f557600080fd5b81019080803573ffffffffffffffffffffffffffffffffffffffff169060200190929190803573ffffffffffffffffffffffffffffffffffffffff169060200190929190803573ffffffffffffffffffffffffffffffffffffffff16906020019092919050505061088c565b005b6103056004803603608081101561027957600080fd5b81019080803573ffffffffffffffffffffffffffffffffffffffff169060200190929190803573ffffffffffffffffffffffffffffffffffffffff169060200190929190803573ffffffffffffffffffffffffffffffffffffffff169060200190929190803573ffffffffffffffffffffffffffffffffffffffff169060200190929190505050610c19565b604051808215151515815260200191505060405180910390f35b6103a16004803603606081101561033557600080fd5b81019080803573ffffffffffffffffffffffffffffffffffffffff169060200190929190803573ffffffffffffffffffffffffffffffffffffffff169060200190929190803573ffffffffffffffffffffffffffffffffffffffff169060200190929190505050610fbe565b604051808215151515815260200191505060405180910390f35b61041d600480360360408110156103d157600080fd5b81019080803573ffffffffffffffffffffffffffffffffffffffff169060200190929190803573ffffffffffffffffffffffffffffffffffffffff1690602001909291905050506110f7565b604051808215151515815260200191505060405180910390f35b6104b96004803603606081101561044d57600080fd5b81019080803573ffffffffffffffffffffffffffffffffffffffff169060200190929190803573ffffffffffffffffffffffffffffffffffffffff169060200190929190803573ffffffffffffffffffffffffffffffffffffffff1690602001909291905050506111d0565b005b60006104c783836110f7565b15151561053c576040517f08c379a000000000000000000000000000000000000000000000000000000000815260040180806020018281038252601a8152602001807f4173736f63696174696f6e20616c72656164792065786973747300000000000081525060200191505060405180910390fd5b6000600160008573ffffffffffffffffffffffffffffffffffffffff1673ffffffffffffffffffffffffffffffffffffffff16815260200190815260200160002060008473ffffffffffffffffffffffffffffffffffffffff1673ffffffffffffffffffffffffffffffffffffffff1681526020019081526020016000209050838160000160006101000a81548173ffffffffffffffffffffffffffffffffffffffff021916908373ffffffffffffffffffffffffffffffffffffffff160217905550828160010160006101000a81548173ffffffffffffffffffffffffffffffffffffffff021916908373ffffffffffffffffffffffffffffffffffffffff160217905550600260008573ffffffffffffffffffffffffffffffffffffffff1673ffffffffffffffffffffffffffffffffffffffff1681526020019081526020016000208390806001815401808255809150509060018203906000526020600020016000909192909190916101000a81548173ffffffffffffffffffffffffffffffffffffffff021916908373ffffffffffffffffffffffffffffffffffffffff1602179055508160020181905550600260008473ffffffffffffffffffffffffffffffffffffffff1673ffffffffffffffffffffffffffffffffffffffff1681526020019081526020016000208490806001815401808255809150509060018203906000526020600020016000909192909190916101000a81548173ffffffffffffffffffffffffffffffffffffffff021916908373ffffffffffffffffffffffffffffffffffffffff1602179055508160030181905550600191505092915050565b6000600160008473ffffffffffffffffffffffffffffffffffffffff1673ffffffffffffffffffffffffffffffffffffffff16815260200190815260200160002060008573ffffffffffffffffffffffffffffffffffffffff1673ffffffffffffffffffffffffffffffffffffffff16815260200190815260200160002060060160008373ffffffffffffffffffffffffffffffffffffffff1673ffffffffffffffffffffffffffffffffffffffff16815260200190815260200160002060030160009054906101000a900473ffffffffffffffffffffffffffffffffffffffff1690509392505050565b6000809054906101000a900473ffffffffffffffffffffffffffffffffffffffff1673ffffffffffffffffffffffffffffffffffffffff163373ffffffffffffffffffffffffffffffffffffffff16141515610950576040517f08c379a00000000000000000000000000000000000000000000000000000000081526004018080602001828103825260188152602001807f6f6e6c792054432063616e20646f20746869732063616c6c000000000000000081525060200191505060405180910390fd5b6000600160008473ffffffffffffffffffffffffffffffffffffffff1673ffffffffffffffffffffffffffffffffffffffff16815260200190815260200160002060008573ffffffffffffffffffffffffffffffffffffffff1673ffffffffffffffffffffffffffffffffffffffff16815260200190815260200160002060070190506000600160008573ffffffffffffffffffffffffffffffffffffffff1673ffffffffffffffffffffffffffffffffffffffff16815260200190815260200160002060008673ffffffffffffffffffffffffffffffffffffffff1673ffffffffffffffffffffffffffffffffffffffff16815260200190815260200160002060060160008473ffffffffffffffffffffffffffffffffffffffff1673ffffffffffffffffffffffffffffffffffffffff16815260200190815260200160002090506000816001015490506000836001858054905003815481101515610ab357fe5b9060005260206000200160009054906101000a900473ffffffffffffffffffffffffffffffffffffffff169050808483815481101515610aef57fe5b9060005260206000200160006101000a81548173ffffffffffffffffffffffffffffffffffffffff021916908373ffffffffffffffffffffffffffffffffffffffff16021790555081600160008873ffffffffffffffffffffffffffffffffffffffff1673ffffffffffffffffffffffffffffffffffffffff16815260200190815260200160002060008973ffffffffffffffffffffffffffffffffffffffff1673ffffffffffffffffffffffffffffffffffffffff16815260200190815260200160002060060160008373ffffffffffffffffffffffffffffffffffffffff1673ffffffffffffffffffffffffffffffffffffffff1681526020019081526020016000206001018190555083805480919060019003610c0f919061166f565b5050505050505050565b60008060009054906101000a900473ffffffffffffffffffffffffffffffffffffffff1673ffffffffffffffffffffffffffffffffffffffff163373ffffffffffffffffffffffffffffffffffffffff16141515610cdf576040517f08c379a00000000000000000000000000000000000000000000000000000000081526004018080602001828103825260188152602001807f6f6e6c792054432063616e20646f20746869732063616c6c000000000000000081525060200191505060405180910390fd5b60011515610ced84336110f7565b1515141515610d47576040517f08c379a000000000000000000000000000000000000000000000000000000000815260040180806020018281038252602c8152602001806116c1602c913960400191505060405180910390fd5b6000600160008573ffffffffffffffffffffffffffffffffffffffff1673ffffffffffffffffffffffffffffffffffffffff16815260200190815260200160002060008773ffffffffffffffffffffffffffffffffffffffff1673ffffffffffffffffffffffffffffffffffffffff168152602001908152602001600020905060008160040160008773ffffffffffffffffffffffffffffffffffffffff1673ffffffffffffffffffffffffffffffffffffffff168152602001908152602001600020905060008160000160006101000a81548160ff02191690836002811115610e2d57fe5b0217905550868160020160006101000a81548173ffffffffffffffffffffffffffffffffffffffff021916908373ffffffffffffffffffffffffffffffffffffffff160217905550838160030160006101000a81548173ffffffffffffffffffffffffffffffffffffffff021916908373ffffffffffffffffffffffffffffffffffffffff160217905550848160040160006101000a81548173ffffffffffffffffffffffffffffffffffffffff021916908373ffffffffffffffffffffffffffffffffffffffff160217905550858160050160006101000a81548173ffffffffffffffffffffffffffffffffffffffff021916908373ffffffffffffffffffffffffffffffffffffffff1602179055506001826005018790806001815401808255809150509060018203906000526020600020016000909192909190916101000a81548173ffffffffffffffffffffffffffffffffffffffff021916908373ffffffffffffffffffffffffffffffffffffffff160217905550038160010181905550600192505050949350505050565b600080600160008573ffffffffffffffffffffffffffffffffffffffff1673ffffffffffffffffffffffffffffffffffffffff16815260200190815260200160002060008673ffffffffffffffffffffffffffffffffffffffff1673ffffffffffffffffffffffffffffffffffffffff1681526020019081526020016000209050806005018160040160008573ffffffffffffffffffffffffffffffffffffffff1673ffffffffffffffffffffffffffffffffffffffff1681526020019081526020016000206001015481548110151561109457fe5b9060005260206000200160009054906101000a900473ffffffffffffffffffffffffffffffffffffffff1673ffffffffffffffffffffffffffffffffffffffff168373ffffffffffffffffffffffffffffffffffffffff16149150509392505050565b60008073ffffffffffffffffffffffffffffffffffffffff16600160008573ffffffffffffffffffffffffffffffffffffffff1673ffffffffffffffffffffffffffffffffffffffff16815260200190815260200160002060008473ffffffffffffffffffffffffffffffffffffffff1673ffffffffffffffffffffffffffffffffffffffff16815260200190815260200160002060000160009054906101000a900473ffffffffffffffffffffffffffffffffffffffff1673ffffffffffffffffffffffffffffffffffffffff161415905092915050565b6000809054906101000a900473ffffffffffffffffffffffffffffffffffffffff1673ffffffffffffffffffffffffffffffffffffffff163373ffffffffffffffffffffffffffffffffffffffff16141515611294576040517f08c379a00000000000000000000000000000000000000000000000000000000081526004018080602001828103825260188152602001807f6f6e6c792054432063616e20646f20746869732063616c6c000000000000000081525060200191505060405180910390fd5b6000600160008473ffffffffffffffffffffffffffffffffffffffff1673ffffffffffffffffffffffffffffffffffffffff16815260200190815260200160002060008573ffffffffffffffffffffffffffffffffffffffff1673ffffffffffffffffffffffffffffffffffffffff16815260200190815260200160002060050190506000600160008573ffffffffffffffffffffffffffffffffffffffff1673ffffffffffffffffffffffffffffffffffffffff16815260200190815260200160002060008673ffffffffffffffffffffffffffffffffffffffff1673ffffffffffffffffffffffffffffffffffffffff16815260200190815260200160002060040160008473ffffffffffffffffffffffffffffffffffffffff1673ffffffffffffffffffffffffffffffffffffffff168152602001908152602001600020905060008160010154905060008360018580549050038154811015156113f757fe5b9060005260206000200160009054906101000a900473ffffffffffffffffffffffffffffffffffffffff16905080848381548110151561143357fe5b9060005260206000200160006101000a81548173ffffffffffffffffffffffffffffffffffffffff021916908373ffffffffffffffffffffffffffffffffffffffff16021790555081600160008873ffffffffffffffffffffffffffffffffffffffff1673ffffffffffffffffffffffffffffffffffffffff16815260200190815260200160002060008973ffffffffffffffffffffffffffffffffffffffff1673ffffffffffffffffffffffffffffffffffffffff16815260200190815260200160002060040160008373ffffffffffffffffffffffffffffffffffffffff1673ffffffffffffffffffffffffffffffffffffffff1681526020019081526020016000206001018190555083805480919060019003611553919061166f565b5060018060008873ffffffffffffffffffffffffffffffffffffffff1673ffffffffffffffffffffffffffffffffffffffff16815260200190815260200160002060008973ffffffffffffffffffffffffffffffffffffffff1673ffffffffffffffffffffffffffffffffffffffff1681526020019081526020016000206007018690806001815401808255809150509060018203906000526020600020016000909192909190916101000a81548173ffffffffffffffffffffffffffffffffffffffff021916908373ffffffffffffffffffffffffffffffffffffffff16021790555003836001018190555060018360000160006101000a81548160ff0219169083600281111561166157fe5b021790555050505050505050565b81548183558181111561169657818360005260206000209182019101611695919061169b565b5b505050565b6116bd91905b808211156116b95760008160009055506001016116a1565b5090565b9056fe7472616e73706f72746572206973206e6f7420706172746e6572206f66206d6573736167652073656e646572a165627a7a723058201f71e1b8152649a06fd9825e9e72df860b8ef668e8e22b74c36ec8d34d474d400029","opcodes":"PUSH1 0x80 PUSH1 0x40 MSTORE CALLVALUE DUP1 ISZERO PUSH2 0x10 JUMPI PUSH1 0x0 DUP1 REVERT JUMPDEST POP PUSH1 0x40 MLOAD PUSH1 0x20 DUP1 PUSH2 0x17A9 DUP4 CODECOPY DUP2 ADD DUP1 PUSH1 0x40 MSTORE PUSH1 0x20 DUP2 LT ISZERO PUSH2 0x30 JUMPI PUSH1 0x0 DUP1 REVERT JUMPDEST DUP2 ADD SWAP1 DUP1 DUP1 MLOAD SWAP1 PUSH1 0x20 ADD SWAP1 SWAP3 SWAP2 SWAP1 POP POP POP DUP1 PUSH1 0x0 DUP1 PUSH2 0x100 EXP DUP2 SLOAD DUP2 PUSH20 0xFFFFFFFFFFFFFFFFFFFFFFFFFFFFFFFFFFFFFFFF MUL NOT AND SWAP1 DUP4 PUSH20 0xFFFFFFFFFFFFFFFFFFFFFFFFFFFFFFFFFFFFFFFF AND MUL OR SWAP1 SSTORE POP POP PUSH2 0x1718 DUP1 PUSH2 0x91 PUSH1 0x0 CODECOPY PUSH1 0x0 RETURN INVALID PUSH1 0x80 PUSH1 0x40 MSTORE CALLVALUE DUP1 ISZERO PUSH2 0x10 JUMPI PUSH1 0x0 DUP1 REVERT JUMPDEST POP PUSH1 0x4 CALLDATASIZE LT PUSH2 0x9A JUMPI PUSH1 0x0 CALLDATALOAD PUSH29 0x100000000000000000000000000000000000000000000000000000000 SWAP1 DIV DUP1 PUSH4 0x90097B3C GT PUSH2 0x78 JUMPI DUP1 PUSH4 0x90097B3C EQ PUSH2 0x263 JUMPI DUP1 PUSH4 0x9EB8452A EQ PUSH2 0x31F JUMPI DUP1 PUSH4 0xD1A08567 EQ PUSH2 0x3BB JUMPI DUP1 PUSH4 0xD8775956 EQ PUSH2 0x437 JUMPI PUSH2 0x9A JUMP JUMPDEST DUP1 PUSH4 0x28D3170A EQ PUSH2 0x9F JUMPI DUP1 PUSH4 0x365D8226 EQ PUSH2 0x11B JUMPI DUP1 PUSH4 0x6A20D949 EQ PUSH2 0x1DF JUMPI JUMPDEST PUSH1 0x0 DUP1 REVERT JUMPDEST PUSH2 0x101 PUSH1 0x4 DUP1 CALLDATASIZE SUB PUSH1 0x40 DUP2 LT ISZERO PUSH2 0xB5 JUMPI PUSH1 0x0 DUP1 REVERT JUMPDEST DUP2 ADD SWAP1 DUP1 DUP1 CALLDATALOAD PUSH20 0xFFFFFFFFFFFFFFFFFFFFFFFFFFFFFFFFFFFFFFFF AND SWAP1 PUSH1 0x20 ADD SWAP1 SWAP3 SWAP2 SWAP1 DUP1 CALLDATALOAD PUSH20 0xFFFFFFFFFFFFFFFFFFFFFFFFFFFFFFFFFFFFFFFF AND SWAP1 PUSH1 0x20 ADD SWAP1 SWAP3 SWAP2 SWAP1 POP POP POP PUSH2 0x4BB JUMP JUMPDEST PUSH1 0x40 MLOAD DUP1 DUP3 ISZERO ISZERO ISZERO ISZERO DUP2 MSTORE PUSH1 0x20 ADD SWAP2 POP POP PUSH1 0x40 MLOAD DUP1 SWAP2 SUB SWAP1 RETURN JUMPDEST PUSH2 0x19D PUSH1 0x4 DUP1 CALLDATASIZE SUB PUSH1 0x60 DUP2 LT ISZERO PUSH2 0x131 JUMPI PUSH1 0x0 DUP1 REVERT JUMPDEST DUP2 ADD SWAP1 DUP1 DUP1 CALLDATALOAD PUSH20 0xFFFFFFFFFFFFFFFFFFFFFFFFFFFFFFFFFFFFFFFF AND SWAP1 PUSH1 0x20 ADD SWAP1 SWAP3 SWAP2 SWAP1 DUP1 CALLDATALOAD PUSH20 0xFFFFFFFFFFFFFFFFFFFFFFFFFFFFFFFFFFFFFFFF AND SWAP1 PUSH1 0x20 ADD SWAP1 SWAP3 SWAP2 SWAP1 DUP1 CALLDATALOAD PUSH20 0xFFFFFFFFFFFFFFFFFFFFFFFFFFFFFFFFFFFFFFFF AND SWAP1 PUSH1 0x20 ADD SWAP1 SWAP3 SWAP2 SWAP1 POP POP POP PUSH2 0x7A1 JUMP JUMPDEST PUSH1 0x40 MLOAD DUP1 DUP3 PUSH20 0xFFFFFFFFFFFFFFFFFFFFFFFFFFFFFFFFFFFFFFFF AND PUSH20 0xFFFFFFFFFFFFFFFFFFFFFFFFFFFFFFFFFFFFFFFF AND DUP2 MSTORE PUSH1 0x20 ADD SWAP2 POP POP PUSH1 0x40 MLOAD DUP1 SWAP2 SUB SWAP1 RETURN JUMPDEST PUSH2 0x261 PUSH1 0x4 DUP1 CALLDATASIZE SUB PUSH1 0x60 DUP2 LT ISZERO PUSH2 0x1F5 JUMPI PUSH1 0x0 DUP1 REVERT JUMPDEST DUP2 ADD SWAP1 DUP1 DUP1 CALLDATALOAD PUSH20 0xFFFFFFFFFFFFFFFFFFFFFFFFFFFFFFFFFFFFFFFF AND SWAP1 PUSH1 0x20 ADD SWAP1 SWAP3 SWAP2 SWAP1 DUP1 CALLDATALOAD PUSH20 0xFFFFFFFFFFFFFFFFFFFFFFFFFFFFFFFFFFFFFFFF AND SWAP1 PUSH1 0x20 ADD SWAP1 SWAP3 SWAP2 SWAP1 DUP1 CALLDATALOAD PUSH20 0xFFFFFFFFFFFFFFFFFFFFFFFFFFFFFFFFFFFFFFFF AND SWAP1 PUSH1 0x20 ADD SWAP1 SWAP3 SWAP2 SWAP1 POP POP POP PUSH2 0x88C JUMP JUMPDEST STOP JUMPDEST PUSH2 0x305 PUSH1 0x4 DUP1 CALLDATASIZE SUB PUSH1 0x80 DUP2 LT ISZERO PUSH2 0x279 JUMPI PUSH1 0x0 DUP1 REVERT JUMPDEST DUP2 ADD SWAP1 DUP1 DUP1 CALLDATALOAD PUSH20 0xFFFFFFFFFFFFFFFFFFFFFFFFFFFFFFFFFFFFFFFF AND SWAP1 PUSH1 0x20 ADD SWAP1 SWAP3 SWAP2 SWAP1 DUP1 CALLDATALOAD PUSH20 0xFFFFFFFFFFFFFFFFFFFFFFFFFFFFFFFFFFFFFFFF AND SWAP1 PUSH1 0x20 ADD SWAP1 SWAP3 SWAP2 SWAP1 DUP1 CALLDATALOAD PUSH20 0xFFFFFFFFFFFFFFFFFFFFFFFFFFFFFFFFFFFFFFFF AND SWAP1 PUSH1 0x20 ADD SWAP1 SWAP3 SWAP2 SWAP1 DUP1 CALLDATALOAD PUSH20 0xFFFFFFFFFFFFFFFFFFFFFFFFFFFFFFFFFFFFFFFF AND SWAP1 PUSH1 0x20 ADD SWAP1 SWAP3 SWAP2 SWAP1 POP POP POP PUSH2 0xC19 JUMP JUMPDEST PUSH1 0x40 MLOAD DUP1 DUP3 ISZERO ISZERO ISZERO ISZERO DUP2 MSTORE PUSH1 0x20 ADD SWAP2 POP POP PUSH1 0x40 MLOAD DUP1 SWAP2 SUB SWAP1 RETURN JUMPDEST PUSH2 0x3A1 PUSH1 0x4 DUP1 CALLDATASIZE SUB PUSH1 0x60 DUP2 LT ISZERO PUSH2 0x335 JUMPI PUSH1 0x0 DUP1 REVERT JUMPDEST DUP2 ADD SWAP1 DUP1 DUP1 CALLDATALOAD PUSH20 0xFFFFFFFFFFFFFFFFFFFFFFFFFFFFFFFFFFFFFFFF AND SWAP1 PUSH1 0x20 ADD SWAP1 SWAP3 SWAP2 SWAP1 DUP1 CALLDATALOAD PUSH20 0xFFFFFFFFFFFFFFFFFFFFFFFFFFFFFFFFFFFFFFFF AND SWAP1 PUSH1 0x20 ADD SWAP1 SWAP3 SWAP2 SWAP1 DUP1 CALLDATALOAD PUSH20 0xFFFFFFFFFFFFFFFFFFFFFFFFFFFFFFFFFFFFFFFF AND SWAP1 PUSH1 0x20 ADD SWAP1 SWAP3 SWAP2 SWAP1 POP POP POP PUSH2 0xFBE JUMP JUMPDEST PUSH1 0x40 MLOAD DUP1 DUP3 ISZERO ISZERO ISZERO ISZERO DUP2 MSTORE PUSH1 0x20 ADD SWAP2 POP POP PUSH1 0x40 MLOAD DUP1 SWAP2 SUB SWAP1 RETURN JUMPDEST PUSH2 0x41D PUSH1 0x4 DUP1 CALLDATASIZE SUB PUSH1 0x40 DUP2 LT ISZERO PUSH2 0x3D1 JUMPI PUSH1 0x0 DUP1 REVERT JUMPDEST DUP2 ADD SWAP1 DUP1 DUP1 CALLDATALOAD PUSH20 0xFFFFFFFFFFFFFFFFFFFFFFFFFFFFFFFFFFFFFFFF AND SWAP1 PUSH1 0x20 ADD SWAP1 SWAP3 SWAP2 SWAP1 DUP1 CALLDATALOAD PUSH20 0xFFFFFFFFFFFFFFFFFFFFFFFFFFFFFFFFFFFFFFFF AND SWAP1 PUSH1 0x20 ADD SWAP1 SWAP3 SWAP2 SWAP1 POP POP POP PUSH2 0x10F7 JUMP JUMPDEST PUSH1 0x40 MLOAD DUP1 DUP3 ISZERO ISZERO ISZERO ISZERO DUP2 MSTORE PUSH1 0x20 ADD SWAP2 POP POP PUSH1 0x40 MLOAD DUP1 SWAP2 SUB SWAP1 RETURN JUMPDEST PUSH2 0x4B9 PUSH1 0x4 DUP1 CALLDATASIZE SUB PUSH1 0x60 DUP2 LT ISZERO PUSH2 0x44D JUMPI PUSH1 0x0 DUP1 REVERT JUMPDEST DUP2 ADD SWAP1 DUP1 DUP1 CALLDATALOAD PUSH20 0xFFFFFFFFFFFFFFFFFFFFFFFFFFFFFFFFFFFFFFFF AND SWAP1 PUSH1 0x20 ADD SWAP1 SWAP3 SWAP2 SWAP1 DUP1 CALLDATALOAD PUSH20 0xFFFFFFFFFFFFFFFFFFFFFFFFFFFFFFFFFFFFFFFF AND SWAP1 PUSH1 0x20 ADD SWAP1 SWAP3 SWAP2 SWAP1 DUP1 CALLDATALOAD PUSH20 0xFFFFFFFFFFFFFFFFFFFFFFFFFFFFFFFFFFFFFFFF AND SWAP1 PUSH1 0x20 ADD SWAP1 SWAP3 SWAP2 SWAP1 POP POP POP PUSH2 0x11D0 JUMP JUMPDEST STOP JUMPDEST PUSH1 0x0 PUSH2 0x4C7 DUP4 DUP4 PUSH2 0x10F7 JUMP JUMPDEST ISZERO ISZERO ISZERO PUSH2 0x53C JUMPI PUSH1 0x40 MLOAD PUSH32 0x8C379A000000000000000000000000000000000000000000000000000000000 DUP2 MSTORE PUSH1 0x4 ADD DUP1 DUP1 PUSH1 0x20 ADD DUP3 DUP2 SUB DUP3 MSTORE PUSH1 0x1A DUP2 MSTORE PUSH1 0x20 ADD DUP1 PUSH32 0x4173736F63696174696F6E20616C726561647920657869737473000000000000 DUP2 MSTORE POP PUSH1 0x20 ADD SWAP2 POP POP PUSH1 0x40 MLOAD DUP1 SWAP2 SUB SWAP1 REVERT JUMPDEST PUSH1 0x0 PUSH1 0x1 PUSH1 0x0 DUP6 PUSH20 0xFFFFFFFFFFFFFFFFFFFFFFFFFFFFFFFFFFFFFFFF AND PUSH20 0xFFFFFFFFFFFFFFFFFFFFFFFFFFFFFFFFFFFFFFFF AND DUP2 MSTORE PUSH1 0x20 ADD SWAP1 DUP2 MSTORE PUSH1 0x20 ADD PUSH1 0x0 KECCAK256 PUSH1 0x0 DUP5 PUSH20 0xFFFFFFFFFFFFFFFFFFFFFFFFFFFFFFFFFFFFFFFF AND PUSH20 0xFFFFFFFFFFFFFFFFFFFFFFFFFFFFFFFFFFFFFFFF AND DUP2 MSTORE PUSH1 0x20 ADD SWAP1 DUP2 MSTORE PUSH1 0x20 ADD PUSH1 0x0 KECCAK256 SWAP1 POP DUP4 DUP2 PUSH1 0x0 ADD PUSH1 0x0 PUSH2 0x100 EXP DUP2 SLOAD DUP2 PUSH20 0xFFFFFFFFFFFFFFFFFFFFFFFFFFFFFFFFFFFFFFFF MUL NOT AND SWAP1 DUP4 PUSH20 0xFFFFFFFFFFFFFFFFFFFFFFFFFFFFFFFFFFFFFFFF AND MUL OR SWAP1 SSTORE POP DUP3 DUP2 PUSH1 0x1 ADD PUSH1 0x0 PUSH2 0x100 EXP DUP2 SLOAD DUP2 PUSH20 0xFFFFFFFFFFFFFFFFFFFFFFFFFFFFFFFFFFFFFFFF MUL NOT AND SWAP1 DUP4 PUSH20 0xFFFFFFFFFFFFFFFFFFFFFFFFFFFFFFFFFFFFFFFF AND MUL OR SWAP1 SSTORE POP PUSH1 0x2 PUSH1 0x0 DUP6 PUSH20 0xFFFFFFFFFFFFFFFFFFFFFFFFFFFFFFFFFFFFFFFF AND PUSH20 0xFFFFFFFFFFFFFFFFFFFFFFFFFFFFFFFFFFFFFFFF AND DUP2 MSTORE PUSH1 0x20 ADD SWAP1 DUP2 MSTORE PUSH1 0x20 ADD PUSH1 0x0 KECCAK256 DUP4 SWAP1 DUP1 PUSH1 0x1 DUP2 SLOAD ADD DUP1 DUP3 SSTORE DUP1 SWAP2 POP POP SWAP1 PUSH1 0x1 DUP3 SUB SWAP1 PUSH1 0x0 MSTORE PUSH1 0x20 PUSH1 0x0 KECCAK256 ADD PUSH1 0x0 SWAP1 SWAP2 SWAP3 SWAP1 SWAP2 SWAP1 SWAP2 PUSH2 0x100 EXP DUP2 SLOAD DUP2 PUSH20 0xFFFFFFFFFFFFFFFFFFFFFFFFFFFFFFFFFFFFFFFF MUL NOT AND SWAP1 DUP4 PUSH20 0xFFFFFFFFFFFFFFFFFFFFFFFFFFFFFFFFFFFFFFFF AND MUL OR SWAP1 SSTORE POP DUP2 PUSH1 0x2 ADD DUP2 SWAP1 SSTORE POP PUSH1 0x2 PUSH1 0x0 DUP5 PUSH20 0xFFFFFFFFFFFFFFFFFFFFFFFFFFFFFFFFFFFFFFFF AND PUSH20 0xFFFFFFFFFFFFFFFFFFFFFFFFFFFFFFFFFFFFFFFF AND DUP2 MSTORE PUSH1 0x20 ADD SWAP1 DUP2 MSTORE PUSH1 0x20 ADD PUSH1 0x0 KECCAK256 DUP5 SWAP1 DUP1 PUSH1 0x1 DUP2 SLOAD ADD DUP1 DUP3 SSTORE DUP1 SWAP2 POP POP SWAP1 PUSH1 0x1 DUP3 SUB SWAP1 PUSH1 0x0 MSTORE PUSH1 0x20 PUSH1 0x0 KECCAK256 ADD PUSH1 0x0 SWAP1 SWAP2 SWAP3 SWAP1 SWAP2 SWAP1 SWAP2 PUSH2 0x100 EXP DUP2 SLOAD DUP2 PUSH20 0xFFFFFFFFFFFFFFFFFFFFFFFFFFFFFFFFFFFFFFFF MUL NOT AND SWAP1 DUP4 PUSH20 0xFFFFFFFFFFFFFFFFFFFFFFFFFFFFFFFFFFFFFFFF AND MUL OR SWAP1 SSTORE POP DUP2 PUSH1 0x3 ADD DUP2 SWAP1 SSTORE POP PUSH1 0x1 SWAP2 POP POP SWAP3 SWAP2 POP POP JUMP JUMPDEST PUSH1 0x0 PUSH1 0x1 PUSH1 0x0 DUP5 PUSH20 0xFFFFFFFFFFFFFFFFFFFFFFFFFFFFFFFFFFFFFFFF AND PUSH20 0xFFFFFFFFFFFFFFFFFFFFFFFFFFFFFFFFFFFFFFFF AND DUP2 MSTORE PUSH1 0x20 ADD SWAP1 DUP2 MSTORE PUSH1 0x20 ADD PUSH1 0x0 KECCAK256 PUSH1 0x0 DUP6 PUSH20 0xFFFFFFFFFFFFFFFFFFFFFFFFFFFFFFFFFFFFFFFF AND PUSH20 0xFFFFFFFFFFFFFFFFFFFFFFFFFFFFFFFFFFFFFFFF AND DUP2 MSTORE PUSH1 0x20 ADD SWAP1 DUP2 MSTORE PUSH1 0x20 ADD PUSH1 0x0 KECCAK256 PUSH1 0x6 ADD PUSH1 0x0 DUP4 PUSH20 0xFFFFFFFFFFFFFFFFFFFFFFFFFFFFFFFFFFFFFFFF AND PUSH20 0xFFFFFFFFFFFFFFFFFFFFFFFFFFFFFFFFFFFFFFFF AND DUP2 MSTORE PUSH1 0x20 ADD SWAP1 DUP2 MSTORE PUSH1 0x20 ADD PUSH1 0x0 KECCAK256 PUSH1 0x3 ADD PUSH1 0x0 SWAP1 SLOAD SWAP1 PUSH2 0x100 EXP SWAP1 DIV PUSH20 0xFFFFFFFFFFFFFFFFFFFFFFFFFFFFFFFFFFFFFFFF AND SWAP1 POP SWAP4 SWAP3 POP POP POP JUMP JUMPDEST PUSH1 0x0 DUP1 SWAP1 SLOAD SWAP1 PUSH2 0x100 EXP SWAP1 DIV PUSH20 0xFFFFFFFFFFFFFFFFFFFFFFFFFFFFFFFFFFFFFFFF AND PUSH20 0xFFFFFFFFFFFFFFFFFFFFFFFFFFFFFFFFFFFFFFFF AND CALLER PUSH20 0xFFFFFFFFFFFFFFFFFFFFFFFFFFFFFFFFFFFFFFFF AND EQ ISZERO ISZERO PUSH2 0x950 JUMPI PUSH1 0x40 MLOAD PUSH32 0x8C379A000000000000000000000000000000000000000000000000000000000 DUP2 MSTORE PUSH1 0x4 ADD DUP1 DUP1 PUSH1 0x20 ADD DUP3 DUP2 SUB DUP3 MSTORE PUSH1 0x18 DUP2 MSTORE PUSH1 0x20 ADD DUP1 PUSH32 0x6F6E6C792054432063616E20646F20746869732063616C6C0000000000000000 DUP2 MSTORE POP PUSH1 0x20 ADD SWAP2 POP POP PUSH1 0x40 MLOAD DUP1 SWAP2 SUB SWAP1 REVERT JUMPDEST PUSH1 0x0 PUSH1 0x1 PUSH1 0x0 DUP5 PUSH20 0xFFFFFFFFFFFFFFFFFFFFFFFFFFFFFFFFFFFFFFFF AND PUSH20 0xFFFFFFFFFFFFFFFFFFFFFFFFFFFFFFFFFFFFFFFF AND DUP2 MSTORE PUSH1 0x20 ADD SWAP1 DUP2 MSTORE PUSH1 0x20 ADD PUSH1 0x0 KECCAK256 PUSH1 0x0 DUP6 PUSH20 0xFFFFFFFFFFFFFFFFFFFFFFFFFFFFFFFFFFFFFFFF AND PUSH20 0xFFFFFFFFFFFFFFFFFFFFFFFFFFFFFFFFFFFFFFFF AND DUP2 MSTORE PUSH1 0x20 ADD SWAP1 DUP2 MSTORE PUSH1 0x20 ADD PUSH1 0x0 KECCAK256 PUSH1 0x7 ADD SWAP1 POP PUSH1 0x0 PUSH1 0x1 PUSH1 0x0 DUP6 PUSH20 0xFFFFFFFFFFFFFFFFFFFFFFFFFFFFFFFFFFFFFFFF AND PUSH20 0xFFFFFFFFFFFFFFFFFFFFFFFFFFFFFFFFFFFFFFFF AND DUP2 MSTORE PUSH1 0x20 ADD SWAP1 DUP2 MSTORE PUSH1 0x20 ADD PUSH1 0x0 KECCAK256 PUSH1 0x0 DUP7 PUSH20 0xFFFFFFFFFFFFFFFFFFFFFFFFFFFFFFFFFFFFFFFF AND PUSH20 0xFFFFFFFFFFFFFFFFFFFFFFFFFFFFFFFFFFFFFFFF AND DUP2 MSTORE PUSH1 0x20 ADD SWAP1 DUP2 MSTORE PUSH1 0x20 ADD PUSH1 0x0 KECCAK256 PUSH1 0x6 ADD PUSH1 0x0 DUP5 PUSH20 0xFFFFFFFFFFFFFFFFFFFFFFFFFFFFFFFFFFFFFFFF AND PUSH20 0xFFFFFFFFFFFFFFFFFFFFFFFFFFFFFFFFFFFFFFFF AND DUP2 MSTORE PUSH1 0x20 ADD SWAP1 DUP2 MSTORE PUSH1 0x20 ADD PUSH1 0x0 KECCAK256 SWAP1 POP PUSH1 0x0 DUP2 PUSH1 0x1 ADD SLOAD SWAP1 POP PUSH1 0x0 DUP4 PUSH1 0x1 DUP6 DUP1 SLOAD SWAP1 POP SUB DUP2 SLOAD DUP2 LT ISZERO ISZERO PUSH2 0xAB3 JUMPI INVALID JUMPDEST SWAP1 PUSH1 0x0 MSTORE PUSH1 0x20 PUSH1 0x0 KECCAK256 ADD PUSH1 0x0 SWAP1 SLOAD SWAP1 PUSH2 0x100 EXP SWAP1 DIV PUSH20 0xFFFFFFFFFFFFFFFFFFFFFFFFFFFFFFFFFFFFFFFF AND SWAP1 POP DUP1 DUP5 DUP4 DUP2 SLOAD DUP2 LT ISZERO ISZERO PUSH2 0xAEF JUMPI INVALID JUMPDEST SWAP1 PUSH1 0x0 MSTORE PUSH1 0x20 PUSH1 0x0 KECCAK256 ADD PUSH1 0x0 PUSH2 0x100 EXP DUP2 SLOAD DUP2 PUSH20 0xFFFFFFFFFFFFFFFFFFFFFFFFFFFFFFFFFFFFFFFF MUL NOT AND SWAP1 DUP4 PUSH20 0xFFFFFFFFFFFFFFFFFFFFFFFFFFFFFFFFFFFFFFFF AND MUL OR SWAP1 SSTORE POP DUP2 PUSH1 0x1 PUSH1 0x0 DUP9 PUSH20 0xFFFFFFFFFFFFFFFFFFFFFFFFFFFFFFFFFFFFFFFF AND PUSH20 0xFFFFFFFFFFFFFFFFFFFFFFFFFFFFFFFFFFFFFFFF AND DUP2 MSTORE PUSH1 0x20 ADD SWAP1 DUP2 MSTORE PUSH1 0x20 ADD PUSH1 0x0 KECCAK256 PUSH1 0x0 DUP10 PUSH20 0xFFFFFFFFFFFFFFFFFFFFFFFFFFFFFFFFFFFFFFFF AND PUSH20 0xFFFFFFFFFFFFFFFFFFFFFFFFFFFFFFFFFFFFFFFF AND DUP2 MSTORE PUSH1 0x20 ADD SWAP1 DUP2 MSTORE PUSH1 0x20 ADD PUSH1 0x0 KECCAK256 PUSH1 0x6 ADD PUSH1 0x0 DUP4 PUSH20 0xFFFFFFFFFFFFFFFFFFFFFFFFFFFFFFFFFFFFFFFF AND PUSH20 0xFFFFFFFFFFFFFFFFFFFFFFFFFFFFFFFFFFFFFFFF AND DUP2 MSTORE PUSH1 0x20 ADD SWAP1 DUP2 MSTORE PUSH1 0x20 ADD PUSH1 0x0 KECCAK256 PUSH1 0x1 ADD DUP2 SWAP1 SSTORE POP DUP4 DUP1 SLOAD DUP1 SWAP2 SWAP1 PUSH1 0x1 SWAP1 SUB PUSH2 0xC0F SWAP2 SWAP1 PUSH2 0x166F JUMP JUMPDEST POP POP POP POP POP POP POP POP JUMP JUMPDEST PUSH1 0x0 DUP1 PUSH1 0x0 SWAP1 SLOAD SWAP1 PUSH2 0x100 EXP SWAP1 DIV PUSH20 0xFFFFFFFFFFFFFFFFFFFFFFFFFFFFFFFFFFFFFFFF AND PUSH20 0xFFFFFFFFFFFFFFFFFFFFFFFFFFFFFFFFFFFFFFFF AND CALLER PUSH20 0xFFFFFFFFFFFFFFFFFFFFFFFFFFFFFFFFFFFFFFFF AND EQ ISZERO ISZERO PUSH2 0xCDF JUMPI PUSH1 0x40 MLOAD PUSH32 0x8C379A000000000000000000000000000000000000000000000000000000000 DUP2 MSTORE PUSH1 0x4 ADD DUP1 DUP1 PUSH1 0x20 ADD DUP3 DUP2 SUB DUP3 MSTORE PUSH1 0x18 DUP2 MSTORE PUSH1 0x20 ADD DUP1 PUSH32 0x6F6E6C792054432063616E20646F20746869732063616C6C0000000000000000 DUP2 MSTORE POP PUSH1 0x20 ADD SWAP2 POP POP PUSH1 0x40 MLOAD DUP1 SWAP2 SUB SWAP1 REVERT JUMPDEST PUSH1 0x1 ISZERO ISZERO PUSH2 0xCED DUP5 CALLER PUSH2 0x10F7 JUMP JUMPDEST ISZERO ISZERO EQ ISZERO ISZERO PUSH2 0xD47 JUMPI PUSH1 0x40 MLOAD PUSH32 0x8C379A000000000000000000000000000000000000000000000000000000000 DUP2 MSTORE PUSH1 0x4 ADD DUP1 DUP1 PUSH1 0x20 ADD DUP3 DUP2 SUB DUP3 MSTORE PUSH1 0x2C DUP2 MSTORE PUSH1 0x20 ADD DUP1 PUSH2 0x16C1 PUSH1 0x2C SWAP2 CODECOPY PUSH1 0x40 ADD SWAP2 POP POP PUSH1 0x40 MLOAD DUP1 SWAP2 SUB SWAP1 REVERT JUMPDEST PUSH1 0x0 PUSH1 0x1 PUSH1 0x0 DUP6 PUSH20 0xFFFFFFFFFFFFFFFFFFFFFFFFFFFFFFFFFFFFFFFF AND PUSH20 0xFFFFFFFFFFFFFFFFFFFFFFFFFFFFFFFFFFFFFFFF AND DUP2 MSTORE PUSH1 0x20 ADD SWAP1 DUP2 MSTORE PUSH1 0x20 ADD PUSH1 0x0 KECCAK256 PUSH1 0x0 DUP8 PUSH20 0xFFFFFFFFFFFFFFFFFFFFFFFFFFFFFFFFFFFFFFFF AND PUSH20 0xFFFFFFFFFFFFFFFFFFFFFFFFFFFFFFFFFFFFFFFF AND DUP2 MSTORE PUSH1 0x20 ADD SWAP1 DUP2 MSTORE PUSH1 0x20 ADD PUSH1 0x0 KECCAK256 SWAP1 POP PUSH1 0x0 DUP2 PUSH1 0x4 ADD PUSH1 0x0 DUP8 PUSH20 0xFFFFFFFFFFFFFFFFFFFFFFFFFFFFFFFFFFFFFFFF AND PUSH20 0xFFFFFFFFFFFFFFFFFFFFFFFFFFFFFFFFFFFFFFFF AND DUP2 MSTORE PUSH1 0x20 ADD SWAP1 DUP2 MSTORE PUSH1 0x20 ADD PUSH1 0x0 KECCAK256 SWAP1 POP PUSH1 0x0 DUP2 PUSH1 0x0 ADD PUSH1 0x0 PUSH2 0x100 EXP DUP2 SLOAD DUP2 PUSH1 0xFF MUL NOT AND SWAP1 DUP4 PUSH1 0x2 DUP2 GT ISZERO PUSH2 0xE2D JUMPI INVALID JUMPDEST MUL OR SWAP1 SSTORE POP DUP7 DUP2 PUSH1 0x2 ADD PUSH1 0x0 PUSH2 0x100 EXP DUP2 SLOAD DUP2 PUSH20 0xFFFFFFFFFFFFFFFFFFFFFFFFFFFFFFFFFFFFFFFF MUL NOT AND SWAP1 DUP4 PUSH20 0xFFFFFFFFFFFFFFFFFFFFFFFFFFFFFFFFFFFFFFFF AND MUL OR SWAP1 SSTORE POP DUP4 DUP2 PUSH1 0x3 ADD PUSH1 0x0 PUSH2 0x100 EXP DUP2 SLOAD DUP2 PUSH20 0xFFFFFFFFFFFFFFFFFFFFFFFFFFFFFFFFFFFFFFFF MUL NOT AND SWAP1 DUP4 PUSH20 0xFFFFFFFFFFFFFFFFFFFFFFFFFFFFFFFFFFFFFFFF AND MUL OR SWAP1 SSTORE POP DUP5 DUP2 PUSH1 0x4 ADD PUSH1 0x0 PUSH2 0x100 EXP DUP2 SLOAD DUP2 PUSH20 0xFFFFFFFFFFFFFFFFFFFFFFFFFFFFFFFFFFFFFFFF MUL NOT AND SWAP1 DUP4 PUSH20 0xFFFFFFFFFFFFFFFFFFFFFFFFFFFFFFFFFFFFFFFF AND MUL OR SWAP1 SSTORE POP DUP6 DUP2 PUSH1 0x5 ADD PUSH1 0x0 PUSH2 0x100 EXP DUP2 SLOAD DUP2 PUSH20 0xFFFFFFFFFFFFFFFFFFFFFFFFFFFFFFFFFFFFFFFF MUL NOT AND SWAP1 DUP4 PUSH20 0xFFFFFFFFFFFFFFFFFFFFFFFFFFFFFFFFFFFFFFFF AND MUL OR SWAP1 SSTORE POP PUSH1 0x1 DUP3 PUSH1 0x5 ADD DUP8 SWAP1 DUP1 PUSH1 0x1 DUP2 SLOAD ADD DUP1 DUP3 SSTORE DUP1 SWAP2 POP POP SWAP1 PUSH1 0x1 DUP3 SUB SWAP1 PUSH1 0x0 MSTORE PUSH1 0x20 PUSH1 0x0 KECCAK256 ADD PUSH1 0x0 SWAP1 SWAP2 SWAP3 SWAP1 SWAP2 SWAP1 SWAP2 PUSH2 0x100 EXP DUP2 SLOAD DUP2 PUSH20 0xFFFFFFFFFFFFFFFFFFFFFFFFFFFFFFFFFFFFFFFF MUL NOT AND SWAP1 DUP4 PUSH20 0xFFFFFFFFFFFFFFFFFFFFFFFFFFFFFFFFFFFFFFFF AND MUL OR SWAP1 SSTORE POP SUB DUP2 PUSH1 0x1 ADD DUP2 SWAP1 SSTORE POP PUSH1 0x1 SWAP3 POP POP POP SWAP5 SWAP4 POP POP POP POP JUMP JUMPDEST PUSH1 0x0 DUP1 PUSH1 0x1 PUSH1 0x0 DUP6 PUSH20 0xFFFFFFFFFFFFFFFFFFFFFFFFFFFFFFFFFFFFFFFF AND PUSH20 0xFFFFFFFFFFFFFFFFFFFFFFFFFFFFFFFFFFFFFFFF AND DUP2 MSTORE PUSH1 0x20 ADD SWAP1 DUP2 MSTORE PUSH1 0x20 ADD PUSH1 0x0 KECCAK256 PUSH1 0x0 DUP7 PUSH20 0xFFFFFFFFFFFFFFFFFFFFFFFFFFFFFFFFFFFFFFFF AND PUSH20 0xFFFFFFFFFFFFFFFFFFFFFFFFFFFFFFFFFFFFFFFF AND DUP2 MSTORE PUSH1 0x20 ADD SWAP1 DUP2 MSTORE PUSH1 0x20 ADD PUSH1 0x0 KECCAK256 SWAP1 POP DUP1 PUSH1 0x5 ADD DUP2 PUSH1 0x4 ADD PUSH1 0x0 DUP6 PUSH20 0xFFFFFFFFFFFFFFFFFFFFFFFFFFFFFFFFFFFFFFFF AND PUSH20 0xFFFFFFFFFFFFFFFFFFFFFFFFFFFFFFFFFFFFFFFF AND DUP2 MSTORE PUSH1 0x20 ADD SWAP1 DUP2 MSTORE PUSH1 0x20 ADD PUSH1 0x0 KECCAK256 PUSH1 0x1 ADD SLOAD DUP2 SLOAD DUP2 LT ISZERO ISZERO PUSH2 0x1094 JUMPI INVALID JUMPDEST SWAP1 PUSH1 0x0 MSTORE PUSH1 0x20 PUSH1 0x0 KECCAK256 ADD PUSH1 0x0 SWAP1 SLOAD SWAP1 PUSH2 0x100 EXP SWAP1 DIV PUSH20 0xFFFFFFFFFFFFFFFFFFFFFFFFFFFFFFFFFFFFFFFF AND PUSH20 0xFFFFFFFFFFFFFFFFFFFFFFFFFFFFFFFFFFFFFFFF AND DUP4 PUSH20 0xFFFFFFFFFFFFFFFFFFFFFFFFFFFFFFFFFFFFFFFF AND EQ SWAP2 POP POP SWAP4 SWAP3 POP POP POP JUMP JUMPDEST PUSH1 0x0 DUP1 PUSH20 0xFFFFFFFFFFFFFFFFFFFFFFFFFFFFFFFFFFFFFFFF AND PUSH1 0x1 PUSH1 0x0 DUP6 PUSH20 0xFFFFFFFFFFFFFFFFFFFFFFFFFFFFFFFFFFFFFFFF AND PUSH20 0xFFFFFFFFFFFFFFFFFFFFFFFFFFFFFFFFFFFFFFFF AND DUP2 MSTORE PUSH1 0x20 ADD SWAP1 DUP2 MSTORE PUSH1 0x20 ADD PUSH1 0x0 KECCAK256 PUSH1 0x0 DUP5 PUSH20 0xFFFFFFFFFFFFFFFFFFFFFFFFFFFFFFFFFFFFFFFF AND PUSH20 0xFFFFFFFFFFFFFFFFFFFFFFFFFFFFFFFFFFFFFFFF AND DUP2 MSTORE PUSH1 0x20 ADD SWAP1 DUP2 MSTORE PUSH1 0x20 ADD PUSH1 0x0 KECCAK256 PUSH1 0x0 ADD PUSH1 0x0 SWAP1 SLOAD SWAP1 PUSH2 0x100 EXP SWAP1 DIV PUSH20 0xFFFFFFFFFFFFFFFFFFFFFFFFFFFFFFFFFFFFFFFF AND PUSH20 0xFFFFFFFFFFFFFFFFFFFFFFFFFFFFFFFFFFFFFFFF AND EQ ISZERO SWAP1 POP SWAP3 SWAP2 POP POP JUMP JUMPDEST PUSH1 0x0 DUP1 SWAP1 SLOAD SWAP1 PUSH2 0x100 EXP SWAP1 DIV PUSH20 0xFFFFFFFFFFFFFFFFFFFFFFFFFFFFFFFFFFFFFFFF AND PUSH20 0xFFFFFFFFFFFFFFFFFFFFFFFFFFFFFFFFFFFFFFFF AND CALLER PUSH20 0xFFFFFFFFFFFFFFFFFFFFFFFFFFFFFFFFFFFFFFFF AND EQ ISZERO ISZERO PUSH2 0x1294 JUMPI PUSH1 0x40 MLOAD PUSH32 0x8C379A000000000000000000000000000000000000000000000000000000000 DUP2 MSTORE PUSH1 0x4 ADD DUP1 DUP1 PUSH1 0x20 ADD DUP3 DUP2 SUB DUP3 MSTORE PUSH1 0x18 DUP2 MSTORE PUSH1 0x20 ADD DUP1 PUSH32 0x6F6E6C792054432063616E20646F20746869732063616C6C0000000000000000 DUP2 MSTORE POP PUSH1 0x20 ADD SWAP2 POP POP PUSH1 0x40 MLOAD DUP1 SWAP2 SUB SWAP1 REVERT JUMPDEST PUSH1 0x0 PUSH1 0x1 PUSH1 0x0 DUP5 PUSH20 0xFFFFFFFFFFFFFFFFFFFFFFFFFFFFFFFFFFFFFFFF AND PUSH20 0xFFFFFFFFFFFFFFFFFFFFFFFFFFFFFFFFFFFFFFFF AND DUP2 MSTORE PUSH1 0x20 ADD SWAP1 DUP2 MSTORE PUSH1 0x20 ADD PUSH1 0x0 KECCAK256 PUSH1 0x0 DUP6 PUSH20 0xFFFFFFFFFFFFFFFFFFFFFFFFFFFFFFFFFFFFFFFF AND PUSH20 0xFFFFFFFFFFFFFFFFFFFFFFFFFFFFFFFFFFFFFFFF AND DUP2 MSTORE PUSH1 0x20 ADD SWAP1 DUP2 MSTORE PUSH1 0x20 ADD PUSH1 0x0 KECCAK256 PUSH1 0x5 ADD SWAP1 POP PUSH1 0x0 PUSH1 0x1 PUSH1 0x0 DUP6 PUSH20 0xFFFFFFFFFFFFFFFFFFFFFFFFFFFFFFFFFFFFFFFF AND PUSH20 0xFFFFFFFFFFFFFFFFFFFFFFFFFFFFFFFFFFFFFFFF AND DUP2 MSTORE PUSH1 0x20 ADD SWAP1 DUP2 MSTORE PUSH1 0x20 ADD PUSH1 0x0 KECCAK256 PUSH1 0x0 DUP7 PUSH20 0xFFFFFFFFFFFFFFFFFFFFFFFFFFFFFFFFFFFFFFFF AND PUSH20 0xFFFFFFFFFFFFFFFFFFFFFFFFFFFFFFFFFFFFFFFF AND DUP2 MSTORE PUSH1 0x20 ADD SWAP1 DUP2 MSTORE PUSH1 0x20 ADD PUSH1 0x0 KECCAK256 PUSH1 0x4 ADD PUSH1 0x0 DUP5 PUSH20 0xFFFFFFFFFFFFFFFFFFFFFFFFFFFFFFFFFFFFFFFF AND PUSH20 0xFFFFFFFFFFFFFFFFFFFFFFFFFFFFFFFFFFFFFFFF AND DUP2 MSTORE PUSH1 0x20 ADD SWAP1 DUP2 MSTORE PUSH1 0x20 ADD PUSH1 0x0 KECCAK256 SWAP1 POP PUSH1 0x0 DUP2 PUSH1 0x1 ADD SLOAD SWAP1 POP PUSH1 0x0 DUP4 PUSH1 0x1 DUP6 DUP1 SLOAD SWAP1 POP SUB DUP2 SLOAD DUP2 LT ISZERO ISZERO PUSH2 0x13F7 JUMPI INVALID JUMPDEST SWAP1 PUSH1 0x0 MSTORE PUSH1 0x20 PUSH1 0x0 KECCAK256 ADD PUSH1 0x0 SWAP1 SLOAD SWAP1 PUSH2 0x100 EXP SWAP1 DIV PUSH20 0xFFFFFFFFFFFFFFFFFFFFFFFFFFFFFFFFFFFFFFFF AND SWAP1 POP DUP1 DUP5 DUP4 DUP2 SLOAD DUP2 LT ISZERO ISZERO PUSH2 0x1433 JUMPI INVALID JUMPDEST SWAP1 PUSH1 0x0 MSTORE PUSH1 0x20 PUSH1 0x0 KECCAK256 ADD PUSH1 0x0 PUSH2 0x100 EXP DUP2 SLOAD DUP2 PUSH20 0xFFFFFFFFFFFFFFFFFFFFFFFFFFFFFFFFFFFFFFFF MUL NOT AND SWAP1 DUP4 PUSH20 0xFFFFFFFFFFFFFFFFFFFFFFFFFFFFFFFFFFFFFFFF AND MUL OR SWAP1 SSTORE POP DUP2 PUSH1 0x1 PUSH1 0x0 DUP9 PUSH20 0xFFFFFFFFFFFFFFFFFFFFFFFFFFFFFFFFFFFFFFFF AND PUSH20 0xFFFFFFFFFFFFFFFFFFFFFFFFFFFFFFFFFFFFFFFF AND DUP2 MSTORE PUSH1 0x20 ADD SWAP1 DUP2 MSTORE PUSH1 0x20 ADD PUSH1 0x0 KECCAK256 PUSH1 0x0 DUP10 PUSH20 0xFFFFFFFFFFFFFFFFFFFFFFFFFFFFFFFFFFFFFFFF AND PUSH20 0xFFFFFFFFFFFFFFFFFFFFFFFFFFFFFFFFFFFFFFFF AND DUP2 MSTORE PUSH1 0x20 ADD SWAP1 DUP2 MSTORE PUSH1 0x20 ADD PUSH1 0x0 KECCAK256 PUSH1 0x4 ADD PUSH1 0x0 DUP4 PUSH20 0xFFFFFFFFFFFFFFFFFFFFFFFFFFFFFFFFFFFFFFFF AND PUSH20 0xFFFFFFFFFFFFFFFFFFFFFFFFFFFFFFFFFFFFFFFF AND DUP2 MSTORE PUSH1 0x20 ADD SWAP1 DUP2 MSTORE PUSH1 0x20 ADD PUSH1 0x0 KECCAK256 PUSH1 0x1 ADD DUP2 SWAP1 SSTORE POP DUP4 DUP1 SLOAD DUP1 SWAP2 SWAP1 PUSH1 0x1 SWAP1 SUB PUSH2 0x1553 SWAP2 SWAP1 PUSH2 0x166F JUMP JUMPDEST POP PUSH1 0x1 DUP1 PUSH1 0x0 DUP9 PUSH20 0xFFFFFFFFFFFFFFFFFFFFFFFFFFFFFFFFFFFFFFFF AND PUSH20 0xFFFFFFFFFFFFFFFFFFFFFFFFFFFFFFFFFFFFFFFF AND DUP2 MSTORE PUSH1 0x20 ADD SWAP1 DUP2 MSTORE PUSH1 0x20 ADD PUSH1 0x0 KECCAK256 PUSH1 0x0 DUP10 PUSH20 0xFFFFFFFFFFFFFFFFFFFFFFFFFFFFFFFFFFFFFFFF AND PUSH20 0xFFFFFFFFFFFFFFFFFFFFFFFFFFFFFFFFFFFFFFFF AND DUP2 MSTORE PUSH1 0x20 ADD SWAP1 DUP2 MSTORE PUSH1 0x20 ADD PUSH1 0x0 KECCAK256 PUSH1 0x7 ADD DUP7 SWAP1 DUP1 PUSH1 0x1 DUP2 SLOAD ADD DUP1 DUP3 SSTORE DUP1 SWAP2 POP POP SWAP1 PUSH1 0x1 DUP3 SUB SWAP1 PUSH1 0x0 MSTORE PUSH1 0x20 PUSH1 0x0 KECCAK256 ADD PUSH1 0x0 SWAP1 SWAP2 SWAP3 SWAP1 SWAP2 SWAP1 SWAP2 PUSH2 0x100 EXP DUP2 SLOAD DUP2 PUSH20 0xFFFFFFFFFFFFFFFFFFFFFFFFFFFFFFFFFFFFFFFF MUL NOT AND SWAP1 DUP4 PUSH20 0xFFFFFFFFFFFFFFFFFFFFFFFFFFFFFFFFFFFFFFFF AND MUL OR SWAP1 SSTORE POP SUB DUP4 PUSH1 0x1 ADD DUP2 SWAP1 SSTORE POP PUSH1 0x1 DUP4 PUSH1 0x0 ADD PUSH1 0x0 PUSH2 0x100 EXP DUP2 SLOAD DUP2 PUSH1 0xFF MUL NOT AND SWAP1 DUP4 PUSH1 0x2 DUP2 GT ISZERO PUSH2 0x1661 JUMPI INVALID JUMPDEST MUL OR SWAP1 SSTORE POP POP POP POP POP POP POP POP JUMP JUMPDEST DUP2 SLOAD DUP2 DUP4 SSTORE DUP2 DUP2 GT ISZERO PUSH2 0x1696 JUMPI DUP2 DUP4 PUSH1 0x0 MSTORE PUSH1 0x20 PUSH1 0x0 KECCAK256 SWAP2 DUP3 ADD SWAP2 ADD PUSH2 0x1695 SWAP2 SWAP1 PUSH2 0x169B JUMP JUMPDEST JUMPDEST POP POP POP JUMP JUMPDEST PUSH2 0x16BD SWAP2 SWAP1 JUMPDEST DUP1 DUP3 GT ISZERO PUSH2 0x16B9 JUMPI PUSH1 0x0 DUP2 PUSH1 0x0 SWAP1 SSTORE POP PUSH1 0x1 ADD PUSH2 0x16A1 JUMP JUMPDEST POP SWAP1 JUMP JUMPDEST SWAP1 JUMP INVALID PUSH21 0x72616E73706F72746572206973206E6F7420706172 PUSH21 0x6E6572206F66206D6573736167652073656E646572 LOG1 PUSH6 0x627A7A723058 KECCAK256 0x1f PUSH18 0xE1B8152649A06FD9825E9E72DF860B8EF668 0xe8 0xe2 0x2b PUSH21 0xC36EC8D34D474D4000290000000000000000000000 "},"gasEstimates":{"creation":{"codeDepositCost":"1182400","executionCost":"21606","totalCost":"1204006"},"external":{"activateTransport(address,address,address)":"infinite","deleteTransport(address,address,address)":"infinite","getTransportReceiver(address,address,address)":"934","insertTU(address,address)":"162999","isPendingTransport(address,address,address)":"1456","isTransporterOfUser(address,address)":"845","requestTransportStart(address,address,address,address)":"infinite"}},"methodIdentifiers":{"activateTransport(address,address,address)":"d8775956","deleteTransport(address,address,address)":"6a20d949","getTransportReceiver(address,address,address)":"365d8226","insertTU(address,address)":"28d3170a","isPendingTransport(address,address,address)":"9eb8452a","isTransporterOfUser(address,address)":"d1a08567","requestTransportStart(address,address,address,address)":"90097b3c"}},"userdoc":{"methods":{}}}