{
  "contractName": "Asset",
  "abi": [
    {
      "constant": true,
      "inputs": [],
      "name": "owner",
      "outputs": [
        {
          "name": "",
          "type": "address"
        }
      ],
      "payable": false,
      "stateMutability": "view",
      "type": "function"
    },
    {
      "constant": true,
      "inputs": [],
      "name": "assetState",
      "outputs": [
        {
          "name": "",
          "type": "uint8"
        }
      ],
      "payable": false,
      "stateMutability": "view",
      "type": "function"
    },
    {
      "constant": true,
      "inputs": [
        {
          "name": "",
          "type": "uint256"
        }
      ],
      "name": "transactions",
      "outputs": [
        {
          "name": "transactionType",
          "type": "uint8"
        },
        {
          "name": "address1",
          "type": "address"
        },
        {
          "name": "address2",
          "type": "address"
        },
        {
          "name": "description",
          "type": "string"
        },
        {
          "name": "date",
          "type": "uint256"
        }
      ],
      "payable": false,
      "stateMutability": "view",
      "type": "function"
    },
    {
      "inputs": [
        {
          "name": "_creator",
          "type": "address"
        },
        {
          "name": "_description",
          "type": "string"
        }
      ],
      "payable": false,
      "stateMutability": "nonpayable",
      "type": "constructor"
    },
    {
      "constant": false,
      "inputs": [
        {
          "name": "_from",
          "type": "address"
        },
        {
          "name": "_to",
          "type": "address"
        }
      ],
      "name": "askForTransport",
      "outputs": [],
      "payable": false,
      "stateMutability": "nonpayable",
      "type": "function"
    },
    {
      "constant": false,
      "inputs": [],
      "name": "newTransport",
      "outputs": [],
      "payable": false,
      "stateMutability": "nonpayable",
      "type": "function"
    },
    {
      "constant": false,
      "inputs": [
        {
          "name": "_from",
          "type": "address"
        },
        {
          "name": "_to",
          "type": "address"
        }
      ],
      "name": "askForTransportEnd",
      "outputs": [],
      "payable": false,
      "stateMutability": "nonpayable",
      "type": "function"
    },
    {
      "constant": false,
      "inputs": [],
      "name": "endTransport",
      "outputs": [],
      "payable": false,
      "stateMutability": "nonpayable",
      "type": "function"
    },
    {
      "constant": true,
      "inputs": [],
      "name": "getTransportData",
      "outputs": [
        {
          "name": "_from",
          "type": "address"
        },
        {
          "name": "_transporter",
          "type": "address"
        }
      ],
      "payable": false,
      "stateMutability": "view",
      "type": "function"
    }
  ],
  "bytecode": "0x60806040523480156200001157600080fd5b506040516200196138038062001961833981018060405260408110156200003757600080fd5b810190808051906020019092919080516401000000008111156200005a57600080fd5b828101905060208101848111156200007157600080fd5b81518560018202830111640100000000821117156200008f57600080fd5b505092919050505033600060016101000a81548173ffffffffffffffffffffffffffffffffffffffff021916908373ffffffffffffffffffffffffffffffffffffffff16021790555060008060006101000a81548160ff02191690836004811115620000f757fe5b021790555081600160006101000a81548173ffffffffffffffffffffffffffffffffffffffff021916908373ffffffffffffffffffffffffffffffffffffffff16021790555062000147620002d2565b6000816000019060058111156200015a57fe5b908160058111156200016857fe5b8152505081816060018190525082816020019073ffffffffffffffffffffffffffffffffffffffff16908173ffffffffffffffffffffffffffffffffffffffff1681525050428160800181815250506002819080600181540180825580915050906001820390600052602060002090600402016000909192909190915060008201518160000160006101000a81548160ff021916908360058111156200020a57fe5b021790555060208201518160000160016101000a81548173ffffffffffffffffffffffffffffffffffffffff021916908373ffffffffffffffffffffffffffffffffffffffff16021790555060408201518160010160006101000a81548173ffffffffffffffffffffffffffffffffffffffff021916908373ffffffffffffffffffffffffffffffffffffffff1602179055506060820151816002019080519060200190620002bb9291906200033a565b5060808201518160030155505050505050620003e9565b60a06040519081016040528060006005811115620002ec57fe5b8152602001600073ffffffffffffffffffffffffffffffffffffffff168152602001600073ffffffffffffffffffffffffffffffffffffffff16815260200160608152602001600081525090565b828054600181600116156101000203166002900490600052602060002090601f016020900481019282601f106200037d57805160ff1916838001178555620003ae565b82800160010185558215620003ae579182015b82811115620003ad57825182559160200191906001019062000390565b5b509050620003bd9190620003c1565b5090565b620003e691905b80821115620003e2576000816000905550600101620003c8565b5090565b90565b61156880620003f96000396000f3fe60806040526004361061008e576000357c0100000000000000000000000000000000000000000000000000000000900463ffffffff1680630b41573f1461009357806379ca5ca4146101045780638da5cb5b1461017557806398fa582a146101cc5780639ace38c214610205578063a4d62f9a1461033b578063b98c19c414610352578063cbd056c8146103dc575b600080fd5b34801561009f57600080fd5b50610102600480360360408110156100b657600080fd5b81019080803573ffffffffffffffffffffffffffffffffffffffff169060200190929190803573ffffffffffffffffffffffffffffffffffffffff1690602001909291905050506103f3565b005b34801561011057600080fd5b506101736004803603604081101561012757600080fd5b81019080803573ffffffffffffffffffffffffffffffffffffffff169060200190929190803573ffffffffffffffffffffffffffffffffffffffff1690602001909291905050506106ba565b005b34801561018157600080fd5b5061018a610a43565b604051808273ffffffffffffffffffffffffffffffffffffffff1673ffffffffffffffffffffffffffffffffffffffff16815260200191505060405180910390f35b3480156101d857600080fd5b506101e1610a69565b604051808260048111156101f157fe5b60ff16815260200191505060405180910390f35b34801561021157600080fd5b5061023e6004803603602081101561022857600080fd5b8101908080359060200190929190505050610a7b565b6040518086600581111561024e57fe5b60ff1681526020018573ffffffffffffffffffffffffffffffffffffffff1673ffffffffffffffffffffffffffffffffffffffff1681526020018473ffffffffffffffffffffffffffffffffffffffff1673ffffffffffffffffffffffffffffffffffffffff16815260200180602001838152602001828103825284818151815260200191508051906020019080838360005b838110156102fc5780820151818401526020810190506102e1565b50505050905090810190601f1680156103295780820380516001836020036101000a031916815260200191505b50965050505050505060405180910390f35b34801561034757600080fd5b50610350610ba5565b005b34801561035e57600080fd5b50610367610f0c565b604051808373ffffffffffffffffffffffffffffffffffffffff1673ffffffffffffffffffffffffffffffffffffffff1681526020018273ffffffffffffffffffffffffffffffffffffffff1673ffffffffffffffffffffffffffffffffffffffff1681526020019250505060405180910390f35b3480156103e857600080fd5b506103f16110c9565b005b600160009054906101000a900473ffffffffffffffffffffffffffffffffffffffff1673ffffffffffffffffffffffffffffffffffffffff168273ffffffffffffffffffffffffffffffffffffffff161415156104de576040517f08c379a00000000000000000000000000000000000000000000000000000000081526004018080602001828103825260318152602001807f6f6e6c79206f776e6572206f66207468652061737365742063616e2061736b2081526020017f666f7220656e64205472616e73706f727400000000000000000000000000000081525060400191505060405180910390fd5b60036000806101000a81548160ff021916908360048111156104fc57fe5b0217905550610509611430565b60038160000190600581111561051b57fe5b9081600581111561052857fe5b8152505082816020019073ffffffffffffffffffffffffffffffffffffffff16908173ffffffffffffffffffffffffffffffffffffffff168152505081816040019073ffffffffffffffffffffffffffffffffffffffff16908173ffffffffffffffffffffffffffffffffffffffff1681525050428160800181815250506002819080600181540180825580915050906001820390600052602060002090600402016000909192909190915060008201518160000160006101000a81548160ff021916908360058111156105f857fe5b021790555060208201518160000160016101000a81548173ffffffffffffffffffffffffffffffffffffffff021916908373ffffffffffffffffffffffffffffffffffffffff16021790555060408201518160010160006101000a81548173ffffffffffffffffffffffffffffffffffffffff021916908373ffffffffffffffffffffffffffffffffffffffff16021790555060608201518160020190805190602001906106a7929190611497565b5060808201518160030155505050505050565b600160009054906101000a900473ffffffffffffffffffffffffffffffffffffffff1673ffffffffffffffffffffffffffffffffffffffff168273ffffffffffffffffffffffffffffffffffffffff161415156107a5576040517f08c379a000000000000000000000000000000000000000000000000000000000815260040180806020018281038252602d8152602001807f4f6e6c79206f776e6572206f66207468652061737365742063616e2061736b2081526020017f666f72207472616e73706f72740000000000000000000000000000000000000081525060400191505060405180910390fd5b600060048111156107b257fe5b6000809054906101000a900460ff1660048111156107cc57fe5b141515610867576040517f08c379a00000000000000000000000000000000000000000000000000000000081526004018080602001828103825260318152602001807f43616e206e6f742061736b20666f72207472616e73706f72742069662061737381526020017f6574206973206e6f742077616974696e6700000000000000000000000000000081525060400191505060405180910390fd5b60016000806101000a81548160ff0219169083600481111561088557fe5b0217905550610892611430565b6001816000019060058111156108a457fe5b908160058111156108b157fe5b8152505082816020019073ffffffffffffffffffffffffffffffffffffffff16908173ffffffffffffffffffffffffffffffffffffffff168152505081816040019073ffffffffffffffffffffffffffffffffffffffff16908173ffffffffffffffffffffffffffffffffffffffff1681525050428160800181815250506002819080600181540180825580915050906001820390600052602060002090600402016000909192909190915060008201518160000160006101000a81548160ff0219169083600581111561098157fe5b021790555060208201518160000160016101000a81548173ffffffffffffffffffffffffffffffffffffffff021916908373ffffffffffffffffffffffffffffffffffffffff16021790555060408201518160010160006101000a81548173ffffffffffffffffffffffffffffffffffffffff021916908373ffffffffffffffffffffffffffffffffffffffff1602179055506060820151816002019080519060200190610a30929190611497565b5060808201518160030155505050505050565b600160009054906101000a900473ffffffffffffffffffffffffffffffffffffffff1681565b6000809054906101000a900460ff1681565b600281815481101515610a8a57fe5b90600052602060002090600402016000915090508060000160009054906101000a900460ff16908060000160019054906101000a900473ffffffffffffffffffffffffffffffffffffffff16908060010160009054906101000a900473ffffffffffffffffffffffffffffffffffffffff1690806002018054600181600116156101000203166002900480601f016020809104026020016040519081016040528092919081815260200182805460018160011615610100020316600290048015610b955780601f10610b6a57610100808354040283529160200191610b95565b820191906000526020600020905b815481529060010190602001808311610b7857829003601f168201915b5050505050908060030154905085565b60008060006101000a81548160ff02191690836004811115610bc357fe5b0217905550610bd0611430565b6002600160028054905003815481101515610be757fe5b906000526020600020906004020160a060405190810160405290816000820160009054906101000a900460ff166005811115610c1f57fe5b6005811115610c2a57fe5b81526020016000820160019054906101000a900473ffffffffffffffffffffffffffffffffffffffff1673ffffffffffffffffffffffffffffffffffffffff1673ffffffffffffffffffffffffffffffffffffffff1681526020016001820160009054906101000a900473ffffffffffffffffffffffffffffffffffffffff1673ffffffffffffffffffffffffffffffffffffffff1673ffffffffffffffffffffffffffffffffffffffff168152602001600282018054600181600116156101000203166002900480601f016020809104026020016040519081016040528092919081815260200182805460018160011615610100020316600290048015610d735780601f10610d4857610100808354040283529160200191610d73565b820191906000526020600020905b815481529060010190602001808311610d5657829003601f168201915b5050505050815260200160038201548152505090508060400151600160006101000a81548173ffffffffffffffffffffffffffffffffffffffff021916908373ffffffffffffffffffffffffffffffffffffffff160217905550600481600001906005811115610ddf57fe5b90816005811115610dec57fe5b81525050428160800181815250506002819080600181540180825580915050906001820390600052602060002090600402016000909192909190915060008201518160000160006101000a81548160ff02191690836005811115610e4c57fe5b021790555060208201518160000160016101000a81548173ffffffffffffffffffffffffffffffffffffffff021916908373ffffffffffffffffffffffffffffffffffffffff16021790555060408201518160010160006101000a81548173ffffffffffffffffffffffffffffffffffffffff021916908373ffffffffffffffffffffffffffffffffffffffff1602179055506060820151816002019080519060200190610efb929190611497565b506080820151816003015550505050565b60008060016004811115610f1c57fe5b6000809054906101000a900460ff166004811115610f3657fe5b1480610f66575060026004811115610f4a57fe5b6000809054906101000a900460ff166004811115610f6457fe5b145b80610f95575060036004811115610f7957fe5b6000809054906101000a900460ff166004811115610f9357fe5b145b151561102f576040517f08c379a00000000000000000000000000000000000000000000000000000000081526004018080602001828103825260218152602001807f6173736574206973206e6f742070656e64696e67206f66207472616e73706f7281526020017f740000000000000000000000000000000000000000000000000000000000000081525060400191505060405180910390fd5b600260016002805490500381548110151561104657fe5b906000526020600020906004020160000160019054906101000a900473ffffffffffffffffffffffffffffffffffffffff169150600260016002805490500381548110151561109157fe5b906000526020600020906004020160010160009054906101000a900473ffffffffffffffffffffffffffffffffffffffff1690509091565b60026000806101000a81548160ff021916908360048111156110e757fe5b02179055506110f4611430565b600260016002805490500381548110151561110b57fe5b906000526020600020906004020160a060405190810160405290816000820160009054906101000a900460ff16600581111561114357fe5b600581111561114e57fe5b81526020016000820160019054906101000a900473ffffffffffffffffffffffffffffffffffffffff1673ffffffffffffffffffffffffffffffffffffffff1673ffffffffffffffffffffffffffffffffffffffff1681526020016001820160009054906101000a900473ffffffffffffffffffffffffffffffffffffffff1673ffffffffffffffffffffffffffffffffffffffff1673ffffffffffffffffffffffffffffffffffffffff168152602001600282018054600181600116156101000203166002900480601f0160208091040260200160405190810160405280929190818152602001828054600181600116156101000203166002900480156112975780601f1061126c57610100808354040283529160200191611297565b820191906000526020600020905b81548152906001019060200180831161127a57829003601f168201915b5050505050815260200160038201548152505090508060400151600160006101000a81548173ffffffffffffffffffffffffffffffffffffffff021916908373ffffffffffffffffffffffffffffffffffffffff16021790555060028160000190600581111561130357fe5b9081600581111561131057fe5b81525050428160800181815250506002819080600181540180825580915050906001820390600052602060002090600402016000909192909190915060008201518160000160006101000a81548160ff0219169083600581111561137057fe5b021790555060208201518160000160016101000a81548173ffffffffffffffffffffffffffffffffffffffff021916908373ffffffffffffffffffffffffffffffffffffffff16021790555060408201518160010160006101000a81548173ffffffffffffffffffffffffffffffffffffffff021916908373ffffffffffffffffffffffffffffffffffffffff160217905550606082015181600201908051906020019061141f929190611497565b506080820151816003015550505050565b60a0604051908101604052806000600581111561144957fe5b8152602001600073ffffffffffffffffffffffffffffffffffffffff168152602001600073ffffffffffffffffffffffffffffffffffffffff16815260200160608152602001600081525090565b828054600181600116156101000203166002900490600052602060002090601f016020900481019282601f106114d857805160ff1916838001178555611506565b82800160010185558215611506579182015b828111156115055782518255916020019190600101906114ea565b5b5090506115139190611517565b5090565b61153991905b8082111561153557600081600090555060010161151d565b5090565b9056fea165627a7a7230582004d264abaf6603b1d9650042275413671f2d3b2ac4a31b9e36727d179b659d570029",
  "source": "pragma solidity ^0.5.0;\n\ncontract Asset { //is owned?\n\n    enum AssetState {Waiting, PendingTransport, InTransport, PendingReceipt, Consumed}\n    enum TransactionType {Creation, TransportStartRequest, TransportStart, TransportEndRequest, TransportEnd, Consume}\n    struct transaction {\n        TransactionType transactionType;\n        address address1;\n        address address2;\n        string description;\n        uint date;\n    }\n    AssetState public assetState;\n    address traceabilityContract; \n    address public owner;\n    transaction[] public transactions;\n\n    constructor(address _creator, string memory _description) public{\n        traceabilityContract = msg.sender;\n        assetState = AssetState.Waiting;\n        owner = _creator;\n\n        transaction memory t;\n        t.transactionType = TransactionType.Creation;\n        t.description = _description;\n        t.address1 = _creator;\n        t.date = now;\n        transactions.push(t);\n        \n    }\n\n    function askForTransport(address _from, address _to) public{\n        require(_from == owner, \"Only owner of the asset can ask for transport\");\n        require(assetState == AssetState.Waiting, \"Can not ask for transport if asset is not waiting\");\n        assetState = AssetState.PendingTransport;\n        transaction memory _t;\n        _t.transactionType = TransactionType.TransportStartRequest;\n        _t.address1 = _from;\n        _t.address2 = _to;\n        _t.date = now;\n        transactions.push(_t);\n    }\n\n    function newTransport() public {\n        assetState = AssetState.InTransport;\n        transaction memory _t = transactions[transactions.length - 1]; //copy the last transaction\n        owner = _t.address2;        \n        _t.transactionType = TransactionType.TransportStart;\n        _t.date = now;\n        transactions.push(_t);        \n    }\n\n    function askForTransportEnd(address _from, address _to) public{\n        require(_from == owner, \"only owner of the asset can ask for end Transport\");        \n        assetState = AssetState.PendingReceipt;\n        transaction memory _t;\n        _t.transactionType = TransactionType.TransportEndRequest;\n        _t.address1 = _from;\n        _t.address2 = _to;\n        _t.date = now;\n        transactions.push(_t);\n    }\n\n    function endTransport() public {\n        assetState = AssetState.Waiting;\n        transaction memory _t = transactions[transactions.length - 1]; //copy the last transaction\n        owner = _t.address2;        \n        _t.transactionType = TransactionType.TransportEnd;        \n        _t.date = now;\n        transactions.push(_t);\n    }\n\n    function getTransportData() public view returns (address _from, address _transporter){\n        require (\n            assetState == AssetState.PendingTransport || assetState == AssetState.InTransport || assetState == AssetState.PendingReceipt,\n            \"asset is not pending of transport\"\n        );\n\n        _from = transactions[transactions.length - 1].address1;\n        _transporter = transactions[transactions.length - 1].address2;\n    }\n}",
  "sourcePath": "/home/fernandogbr/proyecto_trazabilidad/ETH_Traceability_Truffle/contracts/asset.sol",
  "compiler": {
    "name": "solc",
    "version": "0.5.0+commit.1d4f565a.Emscripten.clang"
  },
  "schemaVersion": "3.0.2",
  "updatedAt": "2019-02-20T09:07:48.936Z",
  "devdoc": {
    "methods": {}
  },
  "userdoc": {
    "methods": {}
  }
}