{
  "contractName": "Shops",
  "abi": [
    {
      "constant": true,
      "inputs": [
        {
          "name": "",
          "type": "uint256"
        }
      ],
      "name": "shopsIndex",
      "outputs": [
        {
          "name": "",
          "type": "address"
        }
      ],
      "payable": false,
      "stateMutability": "view",
      "type": "function"
    },
    {
      "inputs": [
        {
          "name": "_tc",
          "type": "address"
        }
      ],
      "payable": false,
      "stateMutability": "nonpayable",
      "type": "constructor"
    },
    {
      "constant": true,
      "inputs": [
        {
          "name": "shopAddress",
          "type": "address"
        }
      ],
      "name": "isShop",
      "outputs": [
        {
          "name": "isIndeed",
          "type": "bool"
        }
      ],
      "payable": false,
      "stateMutability": "view",
      "type": "function"
    },
    {
      "constant": false,
      "inputs": [
        {
          "name": "_shopAddress",
          "type": "address"
        },
        {
          "name": "_data",
          "type": "string"
        }
      ],
      "name": "insertShop",
      "outputs": [
        {
          "name": "index",
          "type": "uint256"
        }
      ],
      "payable": false,
      "stateMutability": "nonpayable",
      "type": "function"
    },
    {
      "constant": false,
      "inputs": [
        {
          "name": "_shopAddress",
          "type": "address"
        },
        {
          "name": "_assetAddress",
          "type": "address"
        }
      ],
      "name": "addPendingAsset",
      "outputs": [
        {
          "name": "success",
          "type": "bool"
        }
      ],
      "payable": false,
      "stateMutability": "nonpayable",
      "type": "function"
    },
    {
      "constant": false,
      "inputs": [
        {
          "name": "_shopAddress",
          "type": "address"
        },
        {
          "name": "_assetAddress",
          "type": "address"
        }
      ],
      "name": "receiveAsset",
      "outputs": [
        {
          "name": "success",
          "type": "bool"
        }
      ],
      "payable": false,
      "stateMutability": "nonpayable",
      "type": "function"
    }
  ],
  "bytecode": "0x608060405234801561001057600080fd5b50604051602080610f498339810180604052602081101561003057600080fd5b8101908080519060200190929190505050806000806101000a81548173ffffffffffffffffffffffffffffffffffffffff021916908373ffffffffffffffffffffffffffffffffffffffff16021790555050610eb8806100916000396000f3fe60806040526004361061006d576000357c0100000000000000000000000000000000000000000000000000000000900463ffffffff168063079320a1146100725780631d0e8a4d146100ed57806362e6115a1461015657806391104740146101df5780639b7e02eb14610268575b600080fd5b34801561007e57600080fd5b506100ab6004803603602081101561009557600080fd5b8101908080359060200190929190505050610364565b604051808273ffffffffffffffffffffffffffffffffffffffff1673ffffffffffffffffffffffffffffffffffffffff16815260200191505060405180910390f35b3480156100f957600080fd5b5061013c6004803603602081101561011057600080fd5b81019080803573ffffffffffffffffffffffffffffffffffffffff1690602001909291905050506103a2565b604051808215151515815260200191505060405180910390f35b34801561016257600080fd5b506101c56004803603604081101561017957600080fd5b81019080803573ffffffffffffffffffffffffffffffffffffffff169060200190929190803573ffffffffffffffffffffffffffffffffffffffff16906020019092919050505061046c565b604051808215151515815260200191505060405180910390f35b3480156101eb57600080fd5b5061024e6004803603604081101561020257600080fd5b81019080803573ffffffffffffffffffffffffffffffffffffffff169060200190929190803573ffffffffffffffffffffffffffffffffffffffff1690602001909291905050506106e3565b604051808215151515815260200191505060405180910390f35b34801561027457600080fd5b5061034e6004803603604081101561028b57600080fd5b81019080803573ffffffffffffffffffffffffffffffffffffffff169060200190929190803590602001906401000000008111156102c857600080fd5b8201836020820111156102da57600080fd5b803590602001918460018302840111640100000000831117156102fc57600080fd5b91908080601f016020809104026020016040519081016040528093929190818152602001838380828437600081840152601f19601f820116905080830192505050505050509192919290505050610b5b565b6040518082815260200191505060405180910390f35b60028181548110151561037357fe5b906000526020600020016000915054906101000a900473ffffffffffffffffffffffffffffffffffffffff1681565b60008060028054905014156103ba5760009050610467565b8173ffffffffffffffffffffffffffffffffffffffff166002600160008573ffffffffffffffffffffffffffffffffffffffff1673ffffffffffffffffffffffffffffffffffffffff1681526020019081526020016000206001015481548110151561042257fe5b9060005260206000200160009054906101000a900473ffffffffffffffffffffffffffffffffffffffff1673ffffffffffffffffffffffffffffffffffffffff161490505b919050565b60008060009054906101000a900473ffffffffffffffffffffffffffffffffffffffff1673ffffffffffffffffffffffffffffffffffffffff163373ffffffffffffffffffffffffffffffffffffffff16141515610532576040517f08c379a00000000000000000000000000000000000000000000000000000000081526004018080602001828103825260188152602001807f6f6e6c792054432063616e20646f20746869732063616c6c000000000000000081525060200191505060405180910390fd5b61053b836103a2565b15156105af576040517f08c379a000000000000000000000000000000000000000000000000000000000815260040180806020018281038252601a8152602001807f57726f6e672073686f70416464726573732070726f766964656400000000000081525060200191505060405180910390fd5b60018060008573ffffffffffffffffffffffffffffffffffffffff1673ffffffffffffffffffffffffffffffffffffffff1681526020019081526020016000206003018390806001815401808255809150509060018203906000526020600020016000909192909190916101000a81548173ffffffffffffffffffffffffffffffffffffffff021916908373ffffffffffffffffffffffffffffffffffffffff16021790555003600160008573ffffffffffffffffffffffffffffffffffffffff1673ffffffffffffffffffffffffffffffffffffffff16815260200190815260200160002060020160008473ffffffffffffffffffffffffffffffffffffffff1673ffffffffffffffffffffffffffffffffffffffff168152602001908152602001600020819055506001905092915050565b60008060009054906101000a900473ffffffffffffffffffffffffffffffffffffffff1673ffffffffffffffffffffffffffffffffffffffff163373ffffffffffffffffffffffffffffffffffffffff161415156107a9576040517f08c379a00000000000000000000000000000000000000000000000000000000081526004018080602001828103825260188152602001807f6f6e6c792054432063616e20646f20746869732063616c6c000000000000000081525060200191505060405180910390fd5b6107b2836103a2565b1515610826576040517f08c379a000000000000000000000000000000000000000000000000000000000815260040180806020018281038252601a8152602001807f57726f6e672073686f70416464726573732070726f766964656400000000000081525060200191505060405180910390fd5b6000600160008573ffffffffffffffffffffffffffffffffffffffff1673ffffffffffffffffffffffffffffffffffffffff16815260200190815260200160002060030190506000600160008673ffffffffffffffffffffffffffffffffffffffff1673ffffffffffffffffffffffffffffffffffffffff16815260200190815260200160002060020160008573ffffffffffffffffffffffffffffffffffffffff1673ffffffffffffffffffffffffffffffffffffffff168152602001908152602001600020549050600082600184805490500381548110151561090757fe5b9060005260206000200160009054906101000a900473ffffffffffffffffffffffffffffffffffffffff16905080838381548110151561094357fe5b9060005260206000200160006101000a81548173ffffffffffffffffffffffffffffffffffffffff021916908373ffffffffffffffffffffffffffffffffffffffff16021790555081600160008873ffffffffffffffffffffffffffffffffffffffff1673ffffffffffffffffffffffffffffffffffffffff16815260200190815260200160002060020160008373ffffffffffffffffffffffffffffffffffffffff1673ffffffffffffffffffffffffffffffffffffffff1681526020019081526020016000208190555082805480919060019003610a239190610dbb565b5060018060008873ffffffffffffffffffffffffffffffffffffffff1673ffffffffffffffffffffffffffffffffffffffff1681526020019081526020016000206005018690806001815401808255809150509060018203906000526020600020016000909192909190916101000a81548173ffffffffffffffffffffffffffffffffffffffff021916908373ffffffffffffffffffffffffffffffffffffffff16021790555003600160008873ffffffffffffffffffffffffffffffffffffffff1673ffffffffffffffffffffffffffffffffffffffff16815260200190815260200160002060040160008773ffffffffffffffffffffffffffffffffffffffff1673ffffffffffffffffffffffffffffffffffffffff168152602001908152602001600020819055506001935050505092915050565b60008060009054906101000a900473ffffffffffffffffffffffffffffffffffffffff1673ffffffffffffffffffffffffffffffffffffffff163373ffffffffffffffffffffffffffffffffffffffff16141515610c21576040517f08c379a00000000000000000000000000000000000000000000000000000000081526004018080602001828103825260188152602001807f6f6e6c792054432063616e20646f20746869732063616c6c000000000000000081525060200191505060405180910390fd5b60001515610c2e846103a2565b1515141515610ca5576040517f08c379a000000000000000000000000000000000000000000000000000000000815260040180806020018281038252601d8152602001807f53686f7020697320616c726561647920696e207468652073797374656d00000081525060200191505060405180910390fd5b81600160008573ffffffffffffffffffffffffffffffffffffffff1673ffffffffffffffffffffffffffffffffffffffff1681526020019081526020016000206000019080519060200190610cfb929190610de7565b50600160028490806001815401808255809150509060018203906000526020600020016000909192909190916101000a81548173ffffffffffffffffffffffffffffffffffffffff021916908373ffffffffffffffffffffffffffffffffffffffff16021790555003600160008573ffffffffffffffffffffffffffffffffffffffff1673ffffffffffffffffffffffffffffffffffffffff16815260200190815260200160002060010181905550600160028054905003905092915050565b815481835581811115610de257818360005260206000209182019101610de19190610e67565b5b505050565b828054600181600116156101000203166002900490600052602060002090601f016020900481019282601f10610e2857805160ff1916838001178555610e56565b82800160010185558215610e56579182015b82811115610e55578251825591602001919060010190610e3a565b5b509050610e639190610e67565b5090565b610e8991905b80821115610e85576000816000905550600101610e6d565b5090565b9056fea165627a7a72305820aa8cba9627aa3a696c70f77a9a1a69b16c3f1376e3eada547f5e7bcb35add20d0029",
  "source": "pragma solidity ^0.5.0;\n\ncontract Shops {\n    address traceabilityContract;\n\n    struct Shop{\n        string registrationData; //extra data given on register\n\n        uint index; //index on the global shop list\n        mapping(address => uint) pendingAssets;  // address = addressAsset\n        address[] pendingAssetsList;\n        \n        mapping(address => uint) assetsIndex; // address = addressAsset\n        address[] assetsList;\n    }\n    mapping (address => Shop) private shops;\n    address[] public shopsIndex;\n\n    constructor (address _tc) public{\n        traceabilityContract = _tc;\n    }\n\n    function isShop(address shopAddress) public view returns(bool isIndeed) {\n        if(shopsIndex.length == 0) return false;\n        return (shopsIndex[shops[shopAddress].index] == shopAddress);\n    }\n\n    function insertShop(address _shopAddress, string memory _data) public returns(uint index){\n        require(msg.sender == traceabilityContract, \"only TC can do this call\");\n        require(isShop(_shopAddress) == false, \"Shop is already in the system\");\n\n        shops[_shopAddress].registrationData = _data;\n        shops[_shopAddress].index = shopsIndex.push(_shopAddress)-1;        \n        return shopsIndex.length-1;\n    }\n\n    function addPendingAsset(address _shopAddress, address _assetAddress) public returns (bool success){\n        require(msg.sender == traceabilityContract, \"only TC can do this call\");\n        require(isShop(_shopAddress), \"Wrong shopAddress provided\");\n\n        shops[_shopAddress].pendingAssets[_assetAddress] = shops[_shopAddress].pendingAssetsList.push(_assetAddress) - 1;\n        return true;\n    }\n\n    function receiveAsset(address _shopAddress, address _assetAddress) public returns (bool success){\n        require(msg.sender == traceabilityContract, \"only TC can do this call\");\n        require(isShop(_shopAddress), \"Wrong shopAddress provided\");\n\n        address[] storage pendingAssetArray = shops[_shopAddress].pendingAssetsList;\n        //delete from pendingAssets\n        uint rowToDelete = shops[_shopAddress].pendingAssets[_assetAddress];\n        address keyToMove = pendingAssetArray[pendingAssetArray.length - 1];\n\n        pendingAssetArray[rowToDelete] = keyToMove;\n        shops[_shopAddress].pendingAssets[keyToMove] = rowToDelete;\n        pendingAssetArray.length --;\n\n        // add to assetsIndex\n        shops[_shopAddress].assetsIndex[_assetAddress] = shops[_shopAddress].assetsList.push(_assetAddress) - 1;\n\n        return true;\n    }\n}",
  "sourcePath": "/home/fernandogbr/proyecto_trazabilidad/ETH_Traceability_Truffle/contracts/shops.sol",
  "compiler": {
    "name": "solc",
    "version": "0.5.0+commit.1d4f565a.Emscripten.clang"
  },
  "schemaVersion": "3.0.2",
  "updatedAt": "2019-02-20T09:07:48.940Z",
  "devdoc": {
    "methods": {}
  },
  "userdoc": {
    "methods": {}
  }
}