{
  "contractName": "TraceabilityContract",
  "abi": [
    {
      "constant": true,
      "inputs": [],
      "name": "owner",
      "outputs": [
        {
          "name": "",
          "type": "address"
        }
      ],
      "payable": false,
      "stateMutability": "view",
      "type": "function"
    },
    {
      "inputs": [],
      "payable": false,
      "stateMutability": "nonpayable",
      "type": "constructor"
    },
    {
      "anonymous": false,
      "inputs": [
        {
          "indexed": false,
          "name": "transporterAddress",
          "type": "address"
        },
        {
          "indexed": false,
          "name": "registrationData",
          "type": "string"
        }
      ],
      "name": "LogNewTransporter",
      "type": "event"
    },
    {
      "anonymous": false,
      "inputs": [
        {
          "indexed": false,
          "name": "certifierAddress",
          "type": "address"
        },
        {
          "indexed": false,
          "name": "registrationData",
          "type": "string"
        }
      ],
      "name": "LogNewCertifier",
      "type": "event"
    },
    {
      "anonymous": false,
      "inputs": [
        {
          "indexed": false,
          "name": "shopAddress",
          "type": "address"
        },
        {
          "indexed": false,
          "name": "registrationData",
          "type": "string"
        }
      ],
      "name": "LogNewShop",
      "type": "event"
    },
    {
      "anonymous": false,
      "inputs": [
        {
          "indexed": false,
          "name": "producerAddress",
          "type": "address"
        },
        {
          "indexed": false,
          "name": "registrationData",
          "type": "string"
        }
      ],
      "name": "LogNewProducer",
      "type": "event"
    },
    {
      "anonymous": false,
      "inputs": [
        {
          "indexed": true,
          "name": "producerAddress",
          "type": "address"
        },
        {
          "indexed": false,
          "name": "assetAddress",
          "type": "address"
        }
      ],
      "name": "LogNewAsset",
      "type": "event"
    },
    {
      "anonymous": false,
      "inputs": [
        {
          "indexed": true,
          "name": "userAddress",
          "type": "address"
        },
        {
          "indexed": true,
          "name": "transporterAddress",
          "type": "address"
        }
      ],
      "name": "LogAttachedTransporter",
      "type": "event"
    },
    {
      "constant": true,
      "inputs": [
        {
          "name": "_transporterAddress",
          "type": "address"
        }
      ],
      "name": "isTransporter",
      "outputs": [
        {
          "name": "isIndeed",
          "type": "bool"
        }
      ],
      "payable": false,
      "stateMutability": "view",
      "type": "function"
    },
    {
      "constant": true,
      "inputs": [
        {
          "name": "_shopAddress",
          "type": "address"
        }
      ],
      "name": "isShop",
      "outputs": [
        {
          "name": "isIndeed",
          "type": "bool"
        }
      ],
      "payable": false,
      "stateMutability": "view",
      "type": "function"
    },
    {
      "constant": true,
      "inputs": [
        {
          "name": "_producerAddress",
          "type": "address"
        }
      ],
      "name": "isProducer",
      "outputs": [
        {
          "name": "isIndeed",
          "type": "bool"
        }
      ],
      "payable": false,
      "stateMutability": "view",
      "type": "function"
    },
    {
      "constant": false,
      "inputs": [
        {
          "name": "_shopAddress",
          "type": "address"
        },
        {
          "name": "_data",
          "type": "string"
        }
      ],
      "name": "insertShop",
      "outputs": [
        {
          "name": "index",
          "type": "uint256"
        }
      ],
      "payable": false,
      "stateMutability": "nonpayable",
      "type": "function"
    },
    {
      "constant": false,
      "inputs": [
        {
          "name": "ProducerAddress",
          "type": "address"
        },
        {
          "name": "_data",
          "type": "string"
        }
      ],
      "name": "insertProducer",
      "outputs": [
        {
          "name": "index",
          "type": "uint256"
        }
      ],
      "payable": false,
      "stateMutability": "nonpayable",
      "type": "function"
    },
    {
      "constant": false,
      "inputs": [
        {
          "name": "_transporterAddress",
          "type": "address"
        },
        {
          "name": "_registrationData",
          "type": "string"
        }
      ],
      "name": "insertTransporter",
      "outputs": [
        {
          "name": "success",
          "type": "bool"
        }
      ],
      "payable": false,
      "stateMutability": "nonpayable",
      "type": "function"
    },
    {
      "constant": false,
      "inputs": [
        {
          "name": "_transporterAddress",
          "type": "address"
        }
      ],
      "name": "userAttachTransporter",
      "outputs": [
        {
          "name": "success",
          "type": "bool"
        }
      ],
      "payable": false,
      "stateMutability": "nonpayable",
      "type": "function"
    },
    {
      "constant": false,
      "inputs": [
        {
          "name": "_JSON",
          "type": "string"
        }
      ],
      "name": "createAsset",
      "outputs": [
        {
          "name": "assetAddress",
          "type": "address"
        }
      ],
      "payable": false,
      "stateMutability": "nonpayable",
      "type": "function"
    },
    {
      "constant": false,
      "inputs": [
        {
          "name": "_assetAddress",
          "type": "address"
        },
        {
          "name": "_transporterAddress",
          "type": "address"
        },
        {
          "name": "_receiverAddress",
          "type": "address"
        }
      ],
      "name": "requestTransportStart",
      "outputs": [
        {
          "name": "success",
          "type": "bool"
        }
      ],
      "payable": false,
      "stateMutability": "nonpayable",
      "type": "function"
    },
    {
      "constant": false,
      "inputs": [
        {
          "name": "_assetAddress",
          "type": "address"
        }
      ],
      "name": "startTransport",
      "outputs": [
        {
          "name": "success",
          "type": "bool"
        }
      ],
      "payable": false,
      "stateMutability": "nonpayable",
      "type": "function"
    },
    {
      "constant": false,
      "inputs": [
        {
          "name": "_assetAddress",
          "type": "address"
        }
      ],
      "name": "requestTransportEnd",
      "outputs": [
        {
          "name": "success",
          "type": "bool"
        }
      ],
      "payable": false,
      "stateMutability": "nonpayable",
      "type": "function"
    },
    {
      "constant": false,
      "inputs": [
        {
          "name": "_assetAddress",
          "type": "address"
        }
      ],
      "name": "endTransport",
      "outputs": [
        {
          "name": "success",
          "type": "bool"
        }
      ],
      "payable": false,
      "stateMutability": "nonpayable",
      "type": "function"
    }
  ],
  "bytecode": "0x60806040523480156200001157600080fd5b50336000806101000a81548173ffffffffffffffffffffffffffffffffffffffff021916908373ffffffffffffffffffffffffffffffffffffffff160217905550306200005d620002d4565b808273ffffffffffffffffffffffffffffffffffffffff1673ffffffffffffffffffffffffffffffffffffffff168152602001915050604051809103906000f080158015620000b0573d6000803e3d6000fd5b50600160006101000a81548173ffffffffffffffffffffffffffffffffffffffff021916908373ffffffffffffffffffffffffffffffffffffffff16021790555030620000fc620002e5565b808273ffffffffffffffffffffffffffffffffffffffff1673ffffffffffffffffffffffffffffffffffffffff168152602001915050604051809103906000f0801580156200014f573d6000803e3d6000fd5b50600260006101000a81548173ffffffffffffffffffffffffffffffffffffffff021916908373ffffffffffffffffffffffffffffffffffffffff160217905550306200019b620002f6565b808273ffffffffffffffffffffffffffffffffffffffff1673ffffffffffffffffffffffffffffffffffffffff168152602001915050604051809103906000f080158015620001ee573d6000803e3d6000fd5b50600360006101000a81548173ffffffffffffffffffffffffffffffffffffffff021916908373ffffffffffffffffffffffffffffffffffffffff160217905550306200023a62000307565b808273ffffffffffffffffffffffffffffffffffffffff1673ffffffffffffffffffffffffffffffffffffffff168152602001915050604051809103906000f0801580156200028d573d6000803e3d6000fd5b50600460006101000a81548173ffffffffffffffffffffffffffffffffffffffff021916908373ffffffffffffffffffffffffffffffffffffffff16021790555062000318565b6040516117fd806200312283390190565b604051612512806200491f83390190565b6040516107298062006e3183390190565b604051610f49806200755a83390190565b612dfa80620003286000396000f3fe6080604052600436106100c5576000357c0100000000000000000000000000000000000000000000000000000000900463ffffffff168063029d9e92146100ca5780631302ed1f146101335780631d0e8a4d14610233578063245fd4081461029c5780632b8109d5146103455780633db4de47146103ae57806355b1f24e146104175780638412d3d11461051f5780638736cb5d1461061b5780638da5cb5b146106845780639b7e02eb146106db578063b46d0110146107d7578063f552102214610840575b600080fd5b3480156100d657600080fd5b50610119600480360360208110156100ed57600080fd5b81019080803573ffffffffffffffffffffffffffffffffffffffff1690602001909291905050506108a9565b604051808215151515815260200191505060405180910390f35b34801561013f57600080fd5b506102196004803603604081101561015657600080fd5b81019080803573ffffffffffffffffffffffffffffffffffffffff1690602001909291908035906020019064010000000081111561019357600080fd5b8201836020820111156101a557600080fd5b803590602001918460018302840111640100000000831117156101c757600080fd5b91908080601f016020809104026020016040519081016040528093929190818152602001838380828437600081840152601f19601f820116905080830192505050505050509192919290505050610c9b565b604051808215151515815260200191505060405180910390f35b34801561023f57600080fd5b506102826004803603602081101561025657600080fd5b81019080803573ffffffffffffffffffffffffffffffffffffffff169060200190929190505050610f9e565b604051808215151515815260200191505060405180910390f35b3480156102a857600080fd5b5061032b600480360360608110156102bf57600080fd5b81019080803573ffffffffffffffffffffffffffffffffffffffff169060200190929190803573ffffffffffffffffffffffffffffffffffffffff169060200190929190803573ffffffffffffffffffffffffffffffffffffffff16906020019092919050505061109d565b604051808215151515815260200191505060405180910390f35b34801561035157600080fd5b506103946004803603602081101561036857600080fd5b81019080803573ffffffffffffffffffffffffffffffffffffffff1690602001909291905050506115ab565b604051808215151515815260200191505060405180910390f35b3480156103ba57600080fd5b506103fd600480360360208110156103d157600080fd5b81019080803573ffffffffffffffffffffffffffffffffffffffff1690602001909291905050506116aa565b604051808215151515815260200191505060405180910390f35b34801561042357600080fd5b506104dd6004803603602081101561043a57600080fd5b810190808035906020019064010000000081111561045757600080fd5b82018360208201111561046957600080fd5b8035906020019184600183028401116401000000008311171561048b57600080fd5b91908080601f016020809104026020016040519081016040528093929190818152602001838380828437600081840152601f19601f820116905080830192505050505050509192919290505050611ac7565b604051808273ffffffffffffffffffffffffffffffffffffffff1673ffffffffffffffffffffffffffffffffffffffff16815260200191505060405180910390f35b34801561052b57600080fd5b506106056004803603604081101561054257600080fd5b81019080803573ffffffffffffffffffffffffffffffffffffffff1690602001909291908035906020019064010000000081111561057f57600080fd5b82018360208201111561059157600080fd5b803590602001918460018302840111640100000000831117156105b357600080fd5b91908080601f016020809104026020016040519081016040528093929190818152602001838380828437600081840152601f19601f820116905080830192505050505050509192919290505050611caf565b6040518082815260200191505060405180910390f35b34801561062757600080fd5b5061066a6004803603602081101561063e57600080fd5b81019080803573ffffffffffffffffffffffffffffffffffffffff169060200190929190505050611fb2565b604051808215151515815260200191505060405180910390f35b34801561069057600080fd5b5061069961254f565b604051808273ffffffffffffffffffffffffffffffffffffffff1673ffffffffffffffffffffffffffffffffffffffff16815260200191505060405180910390f35b3480156106e757600080fd5b506107c1600480360360408110156106fe57600080fd5b81019080803573ffffffffffffffffffffffffffffffffffffffff1690602001909291908035906020019064010000000081111561073b57600080fd5b82018360208201111561074d57600080fd5b8035906020019184600183028401116401000000008311171561076f57600080fd5b91908080601f016020809104026020016040519081016040528093929190818152602001838380828437600081840152601f19601f820116905080830192505050505050509192919290505050612574565b6040518082815260200191505060405180910390f35b3480156107e357600080fd5b50610826600480360360208110156107fa57600080fd5b81019080803573ffffffffffffffffffffffffffffffffffffffff169060200190929190505050612877565b604051808215151515815260200191505060405180910390f35b34801561084c57600080fd5b5061088f6004803603602081101561086357600080fd5b81019080803573ffffffffffffffffffffffffffffffffffffffff169060200190929190505050612b55565b604051808215151515815260200191505060405180910390f35b60006108b4336115ab565b151561094e576040517f08c379a00000000000000000000000000000000000000000000000000000000081526004018080602001828103825260268152602001807f4f6e6c79207472616e73706f72746572732063616e207374617274207472616e81526020017f73706f727473000000000000000000000000000000000000000000000000000081525060400191505060405180910390fd5b6000808373ffffffffffffffffffffffffffffffffffffffff1663b98c19c46040518163ffffffff167c0100000000000000000000000000000000000000000000000000000000028152600401604080518083038186803b1580156109b257600080fd5b505afa1580156109c6573d6000803e3d6000fd5b505050506040513d60408110156109dc57600080fd5b810190808051906020019092919080519060200190929190505050915091503373ffffffffffffffffffffffffffffffffffffffff168173ffffffffffffffffffffffffffffffffffffffff16141515610ac4576040517f08c379a00000000000000000000000000000000000000000000000000000000081526004018080602001828103825260338152602001807f41737365742069732070656e64696e67207472616e73706f72742066726f6d2081526020017f616e6f74686572207472616e73706f727465720000000000000000000000000081525060400191505060405180910390fd5b610acf828286612c54565b1515610ad757fe5b600160009054906101000a900473ffffffffffffffffffffffffffffffffffffffff1673ffffffffffffffffffffffffffffffffffffffff1663d87759568383876040518463ffffffff167c0100000000000000000000000000000000000000000000000000000000028152600401808473ffffffffffffffffffffffffffffffffffffffff1673ffffffffffffffffffffffffffffffffffffffff1681526020018373ffffffffffffffffffffffffffffffffffffffff1673ffffffffffffffffffffffffffffffffffffffff1681526020018273ffffffffffffffffffffffffffffffffffffffff1673ffffffffffffffffffffffffffffffffffffffff1681526020019350505050600060405180830381600087803b158015610bfc57600080fd5b505af1158015610c10573d6000803e3d6000fd5b505050508373ffffffffffffffffffffffffffffffffffffffff1663cbd056c86040518163ffffffff167c0100000000000000000000000000000000000000000000000000000000028152600401600060405180830381600087803b158015610c7857600080fd5b505af1158015610c8c573d6000803e3d6000fd5b50505050600192505050919050565b60008060009054906101000a900473ffffffffffffffffffffffffffffffffffffffff1673ffffffffffffffffffffffffffffffffffffffff163373ffffffffffffffffffffffffffffffffffffffff16141515610d61576040517f08c379a000000000000000000000000000000000000000000000000000000000815260040180806020018281038252600a8152602001807f4f6e6c79206f776e65720000000000000000000000000000000000000000000081525060200191505060405180910390fd5b600360009054906101000a900473ffffffffffffffffffffffffffffffffffffffff1673ffffffffffffffffffffffffffffffffffffffff16631302ed1f84846040518363ffffffff167c0100000000000000000000000000000000000000000000000000000000028152600401808373ffffffffffffffffffffffffffffffffffffffff1673ffffffffffffffffffffffffffffffffffffffff16815260200180602001828103825283818151815260200191508051906020019080838360005b83811015610e3e578082015181840152602081019050610e23565b50505050905090810190601f168015610e6b5780820380516001836020036101000a031916815260200191505b509350505050602060405180830381600087803b158015610e8b57600080fd5b505af1158015610e9f573d6000803e3d6000fd5b505050506040513d6020811015610eb557600080fd5b810190808051906020019092919050505090507f4d13fc32a15280074c61b282b69dffa21ef4336b9b8bfbe0c6bc402cdd86c7158383604051808373ffffffffffffffffffffffffffffffffffffffff1673ffffffffffffffffffffffffffffffffffffffff16815260200180602001828103825283818151815260200191508051906020019080838360005b83811015610f5d578082015181840152602081019050610f42565b50505050905090810190601f168015610f8a5780820380516001836020036101000a031916815260200191505b50935050505060405180910390a192915050565b6000600460009054906101000a900473ffffffffffffffffffffffffffffffffffffffff1673ffffffffffffffffffffffffffffffffffffffff16631d0e8a4d836040518263ffffffff167c0100000000000000000000000000000000000000000000000000000000028152600401808273ffffffffffffffffffffffffffffffffffffffff1673ffffffffffffffffffffffffffffffffffffffff16815260200191505060206040518083038186803b15801561105b57600080fd5b505afa15801561106f573d6000803e3d6000fd5b505050506040513d602081101561108557600080fd5b81019080805190602001909291905050509050919050565b60003373ffffffffffffffffffffffffffffffffffffffff168473ffffffffffffffffffffffffffffffffffffffff16638da5cb5b6040518163ffffffff167c010000000000000000000000000000000000000000000000000000000002815260040160206040518083038186803b15801561111857600080fd5b505afa15801561112c573d6000803e3d6000fd5b505050506040513d602081101561114257600080fd5b810190808051906020019092919050505073ffffffffffffffffffffffffffffffffffffffff16141515611204576040517f08c379a000000000000000000000000000000000000000000000000000000000815260040180806020018281038252602f8152602001807f4f6e6c79206f776e6572206f66207468652061737365742063616e207265717581526020017f6573742061207472616e73706f7274000000000000000000000000000000000081525060400191505060405180910390fd5b61120d836115ab565b1515611281576040517f08c379a000000000000000000000000000000000000000000000000000000000815260040180806020018281038252601f8152602001807f6f6e6c79207472616e73706f72746572732063616e207472616e73706f72740081525060200191505060405180910390fd5b61128a82610f9e565b1515611324576040517f08c379a00000000000000000000000000000000000000000000000000000000081526004018080602001828103825260228152602001807f6f6e6c792073686f70732063616e20726563656976652061207472616e73706f81526020017f727400000000000000000000000000000000000000000000000000000000000081525060400191505060405180910390fd5b600160009054906101000a900473ffffffffffffffffffffffffffffffffffffffff1673ffffffffffffffffffffffffffffffffffffffff166390097b3c338686866040518563ffffffff167c0100000000000000000000000000000000000000000000000000000000028152600401808573ffffffffffffffffffffffffffffffffffffffff1673ffffffffffffffffffffffffffffffffffffffff1681526020018473ffffffffffffffffffffffffffffffffffffffff1673ffffffffffffffffffffffffffffffffffffffff1681526020018373ffffffffffffffffffffffffffffffffffffffff1673ffffffffffffffffffffffffffffffffffffffff1681526020018273ffffffffffffffffffffffffffffffffffffffff1673ffffffffffffffffffffffffffffffffffffffff168152602001945050505050602060405180830381600087803b15801561147d57600080fd5b505af1158015611491573d6000803e3d6000fd5b505050506040513d60208110156114a757600080fd5b8101908080519060200190929190505050508373ffffffffffffffffffffffffffffffffffffffff166379ca5ca433856040518363ffffffff167c0100000000000000000000000000000000000000000000000000000000028152600401808373ffffffffffffffffffffffffffffffffffffffff1673ffffffffffffffffffffffffffffffffffffffff1681526020018273ffffffffffffffffffffffffffffffffffffffff1673ffffffffffffffffffffffffffffffffffffffff16815260200192505050600060405180830381600087803b15801561158857600080fd5b505af115801561159c573d6000803e3d6000fd5b50505050600190509392505050565b6000600360009054906101000a900473ffffffffffffffffffffffffffffffffffffffff1673ffffffffffffffffffffffffffffffffffffffff16632b8109d5836040518263ffffffff167c0100000000000000000000000000000000000000000000000000000000028152600401808273ffffffffffffffffffffffffffffffffffffffff1673ffffffffffffffffffffffffffffffffffffffff16815260200191505060206040518083038186803b15801561166857600080fd5b505afa15801561167c573d6000803e3d6000fd5b505050506040513d602081101561169257600080fd5b81019080805190602001909291905050509050919050565b60006116b533610f9e565b1515611729576040517f08c379a000000000000000000000000000000000000000000000000000000000815260040180806020018281038252601b8152602001807f4f6e6c792073686f702063616e2072656365697665204173736574000000000081525060200191505060405180910390fd5b8173ffffffffffffffffffffffffffffffffffffffff1663a4d62f9a6040518163ffffffff167c0100000000000000000000000000000000000000000000000000000000028152600401600060405180830381600087803b15801561178d57600080fd5b505af11580156117a1573d6000803e3d6000fd5b505050506000808373ffffffffffffffffffffffffffffffffffffffff1663b98c19c46040518163ffffffff167c0100000000000000000000000000000000000000000000000000000000028152600401604080518083038186803b15801561180957600080fd5b505afa15801561181d573d6000803e3d6000fd5b505050506040513d604081101561183357600080fd5b81019080805190602001909291908051906020019092919050505091509150600160009054906101000a900473ffffffffffffffffffffffffffffffffffffffff1673ffffffffffffffffffffffffffffffffffffffff16636a20d9498383876040518463ffffffff167c0100000000000000000000000000000000000000000000000000000000028152600401808473ffffffffffffffffffffffffffffffffffffffff1673ffffffffffffffffffffffffffffffffffffffff1681526020018373ffffffffffffffffffffffffffffffffffffffff1673ffffffffffffffffffffffffffffffffffffffff1681526020018273ffffffffffffffffffffffffffffffffffffffff1673ffffffffffffffffffffffffffffffffffffffff1681526020019350505050600060405180830381600087803b15801561197757600080fd5b505af115801561198b573d6000803e3d6000fd5b50505050600460009054906101000a900473ffffffffffffffffffffffffffffffffffffffff1673ffffffffffffffffffffffffffffffffffffffff16639110474033866040518363ffffffff167c0100000000000000000000000000000000000000000000000000000000028152600401808373ffffffffffffffffffffffffffffffffffffffff1673ffffffffffffffffffffffffffffffffffffffff1681526020018273ffffffffffffffffffffffffffffffffffffffff1673ffffffffffffffffffffffffffffffffffffffff16815260200192505050602060405180830381600087803b158015611a8057600080fd5b505af1158015611a94573d6000803e3d6000fd5b505050506040513d6020811015611aaa57600080fd5b810190808051906020019092919050505050600192505050919050565b6000600260009054906101000a900473ffffffffffffffffffffffffffffffffffffffff1673ffffffffffffffffffffffffffffffffffffffff1663791c074133846040518363ffffffff167c0100000000000000000000000000000000000000000000000000000000028152600401808373ffffffffffffffffffffffffffffffffffffffff1673ffffffffffffffffffffffffffffffffffffffff16815260200180602001828103825283818151815260200191508051906020019080838360005b83811015611ba6578082015181840152602081019050611b8b565b50505050905090810190601f168015611bd35780820380516001836020036101000a031916815260200191505b509350505050602060405180830381600087803b158015611bf357600080fd5b505af1158015611c07573d6000803e3d6000fd5b505050506040513d6020811015611c1d57600080fd5b810190808051906020019092919050505090503373ffffffffffffffffffffffffffffffffffffffff167fc025769440426a633bedf01175c407aa85088e087b11a585ae5bc0e1a302004e82604051808273ffffffffffffffffffffffffffffffffffffffff1673ffffffffffffffffffffffffffffffffffffffff16815260200191505060405180910390a2919050565b60008060009054906101000a900473ffffffffffffffffffffffffffffffffffffffff1673ffffffffffffffffffffffffffffffffffffffff163373ffffffffffffffffffffffffffffffffffffffff16141515611d75576040517f08c379a000000000000000000000000000000000000000000000000000000000815260040180806020018281038252600a8152602001807f4f6e6c79206f776e65720000000000000000000000000000000000000000000081525060200191505060405180910390fd5b600260009054906101000a900473ffffffffffffffffffffffffffffffffffffffff1673ffffffffffffffffffffffffffffffffffffffff16638412d3d184846040518363ffffffff167c0100000000000000000000000000000000000000000000000000000000028152600401808373ffffffffffffffffffffffffffffffffffffffff1673ffffffffffffffffffffffffffffffffffffffff16815260200180602001828103825283818151815260200191508051906020019080838360005b83811015611e52578082015181840152602081019050611e37565b50505050905090810190601f168015611e7f5780820380516001836020036101000a031916815260200191505b509350505050602060405180830381600087803b158015611e9f57600080fd5b505af1158015611eb3573d6000803e3d6000fd5b505050506040513d6020811015611ec957600080fd5b810190808051906020019092919050505090507fb056bbe56ce656be62cde590f9c83ee5ae28ba40d9b2849cd6a02622af6c27508383604051808373ffffffffffffffffffffffffffffffffffffffff1673ffffffffffffffffffffffffffffffffffffffff16815260200180602001828103825283818151815260200191508051906020019080838360005b83811015611f71578082015181840152602081019050611f56565b50505050905090810190601f168015611f9e5780820380516001836020036101000a031916815260200191505b50935050505060405180910390a192915050565b6000611fbd336115ab565b1515612057576040517f08c379a000000000000000000000000000000000000000000000000000000000815260040180806020018281038252602c8152602001807f4f6e6c792061207472616e73706f727465722063616e2072657175657374207481526020017f72616e73706f727420656e64000000000000000000000000000000000000000081525060400191505060405180910390fd5b6000808373ffffffffffffffffffffffffffffffffffffffff1663b98c19c46040518163ffffffff167c0100000000000000000000000000000000000000000000000000000000028152600401604080518083038186803b1580156120bb57600080fd5b505afa1580156120cf573d6000803e3d6000fd5b505050506040513d60408110156120e557600080fd5b810190808051906020019092919080519060200190929190505050915091508073ffffffffffffffffffffffffffffffffffffffff163373ffffffffffffffffffffffffffffffffffffffff161415156121cd576040517f08c379a00000000000000000000000000000000000000000000000000000000081526004018080602001828103825260268152602001807f526571756573746572206973206e6f74207468652076616c6964207472616e7381526020017f706f72746572000000000000000000000000000000000000000000000000000081525060400191505060405180910390fd5b6000600160009054906101000a900473ffffffffffffffffffffffffffffffffffffffff1673ffffffffffffffffffffffffffffffffffffffff1663365d82268484886040518463ffffffff167c0100000000000000000000000000000000000000000000000000000000028152600401808473ffffffffffffffffffffffffffffffffffffffff1673ffffffffffffffffffffffffffffffffffffffff1681526020018373ffffffffffffffffffffffffffffffffffffffff1673ffffffffffffffffffffffffffffffffffffffff1681526020018273ffffffffffffffffffffffffffffffffffffffff1673ffffffffffffffffffffffffffffffffffffffff168152602001935050505060206040518083038186803b1580156122f257600080fd5b505afa158015612306573d6000803e3d6000fd5b505050506040513d602081101561231c57600080fd5b810190808051906020019092919050505090508473ffffffffffffffffffffffffffffffffffffffff16630b41573f83836040518363ffffffff167c0100000000000000000000000000000000000000000000000000000000028152600401808373ffffffffffffffffffffffffffffffffffffffff1673ffffffffffffffffffffffffffffffffffffffff1681526020018273ffffffffffffffffffffffffffffffffffffffff1673ffffffffffffffffffffffffffffffffffffffff16815260200192505050600060405180830381600087803b1580156123fe57600080fd5b505af1158015612412573d6000803e3d6000fd5b50505050600460009054906101000a900473ffffffffffffffffffffffffffffffffffffffff1673ffffffffffffffffffffffffffffffffffffffff166362e6115a82876040518363ffffffff167c0100000000000000000000000000000000000000000000000000000000028152600401808373ffffffffffffffffffffffffffffffffffffffff1673ffffffffffffffffffffffffffffffffffffffff1681526020018273ffffffffffffffffffffffffffffffffffffffff1673ffffffffffffffffffffffffffffffffffffffff16815260200192505050602060405180830381600087803b15801561250757600080fd5b505af115801561251b573d6000803e3d6000fd5b505050506040513d602081101561253157600080fd5b81019080805190602001909291905050505060019350505050919050565b6000809054906101000a900473ffffffffffffffffffffffffffffffffffffffff1681565b60008060009054906101000a900473ffffffffffffffffffffffffffffffffffffffff1673ffffffffffffffffffffffffffffffffffffffff163373ffffffffffffffffffffffffffffffffffffffff1614151561263a576040517f08c379a000000000000000000000000000000000000000000000000000000000815260040180806020018281038252600a8152602001807f4f6e6c79206f776e65720000000000000000000000000000000000000000000081525060200191505060405180910390fd5b600460009054906101000a900473ffffffffffffffffffffffffffffffffffffffff1673ffffffffffffffffffffffffffffffffffffffff16639b7e02eb84846040518363ffffffff167c0100000000000000000000000000000000000000000000000000000000028152600401808373ffffffffffffffffffffffffffffffffffffffff1673ffffffffffffffffffffffffffffffffffffffff16815260200180602001828103825283818151815260200191508051906020019080838360005b838110156127175780820151818401526020810190506126fc565b50505050905090810190601f1680156127445780820380516001836020036101000a031916815260200191505b509350505050602060405180830381600087803b15801561276457600080fd5b505af1158015612778573d6000803e3d6000fd5b505050506040513d602081101561278e57600080fd5b810190808051906020019092919050505090507f93eab32f8c5dc356093a926c4d817dbb30fc86a502fabd6e9922f16e5866e5748383604051808373ffffffffffffffffffffffffffffffffffffffff1673ffffffffffffffffffffffffffffffffffffffff16815260200180602001828103825283818151815260200191508051906020019080838360005b8381101561283657808201518184015260208101905061281b565b50505050905090810190601f1680156128635780820380516001836020036101000a031916815260200191505b50935050505060405180910390a192915050565b6000612882826115ab565b151561291c576040517f08c379a00000000000000000000000000000000000000000000000000000000081526004018080602001828103825260288152602001807f207472616e73706f7274657241646472657373206973206e6f7420612074726181526020017f6e73706f7274657200000000000000000000000000000000000000000000000081525060400191505060405180910390fd5b61292533612b55565b8061292e575060005b15156129c8576040517f08c379a00000000000000000000000000000000000000000000000000000000081526004018080602001828103825260268152602001807f53656e646572206973206e6f7420612076616c6964207472616e73706f72746581526020017f722075736572000000000000000000000000000000000000000000000000000081525060400191505060405180910390fd5b600160009054906101000a900473ffffffffffffffffffffffffffffffffffffffff1673ffffffffffffffffffffffffffffffffffffffff166328d3170a83336040518363ffffffff167c0100000000000000000000000000000000000000000000000000000000028152600401808373ffffffffffffffffffffffffffffffffffffffff1673ffffffffffffffffffffffffffffffffffffffff1681526020018273ffffffffffffffffffffffffffffffffffffffff1673ffffffffffffffffffffffffffffffffffffffff16815260200192505050602060405180830381600087803b158015612ab957600080fd5b505af1158015612acd573d6000803e3d6000fd5b505050506040513d6020811015612ae357600080fd5b810190808051906020019092919050505090508173ffffffffffffffffffffffffffffffffffffffff163373ffffffffffffffffffffffffffffffffffffffff167f74011501283de09f5fa60523776c4e4d25fd8304672adac75523c58abb54ddc660405160405180910390a3919050565b6000600260009054906101000a900473ffffffffffffffffffffffffffffffffffffffff1673ffffffffffffffffffffffffffffffffffffffff1663f5521022836040518263ffffffff167c0100000000000000000000000000000000000000000000000000000000028152600401808273ffffffffffffffffffffffffffffffffffffffff1673ffffffffffffffffffffffffffffffffffffffff16815260200191505060206040518083038186803b158015612c1257600080fd5b505afa158015612c26573d6000803e3d6000fd5b505050506040513d6020811015612c3c57600080fd5b81019080805190602001909291905050509050919050565b6000612c5f836115ab565b1515612c6757fe5b600160009054906101000a900473ffffffffffffffffffffffffffffffffffffffff1673ffffffffffffffffffffffffffffffffffffffff16639eb8452a8585856040518463ffffffff167c0100000000000000000000000000000000000000000000000000000000028152600401808473ffffffffffffffffffffffffffffffffffffffff1673ffffffffffffffffffffffffffffffffffffffff1681526020018373ffffffffffffffffffffffffffffffffffffffff1673ffffffffffffffffffffffffffffffffffffffff1681526020018273ffffffffffffffffffffffffffffffffffffffff1673ffffffffffffffffffffffffffffffffffffffff168152602001935050505060206040518083038186803b158015612d8a57600080fd5b505afa158015612d9e573d6000803e3d6000fd5b505050506040513d6020811015612db457600080fd5b81019080805190602001909291905050509050939250505056fea165627a7a7230582040ea7b579da7288ecb5dc620955a1aa5a4cd08af0029877721654e232e0dbdc60029608060405234801561001057600080fd5b506040516020806117fd8339810180604052602081101561003057600080fd5b8101908080519060200190929190505050806000806101000a81548173ffffffffffffffffffffffffffffffffffffffff021916908373ffffffffffffffffffffffffffffffffffffffff1602179055505061176c806100916000396000f3fe608060405260043610610083576000357c0100000000000000000000000000000000000000000000000000000000900463ffffffff16806328d3170a14610088578063365d8226146101115780636a20d949146101e257806390097b3c146102735780639eb8452a1461033c578063d1a08567146103e5578063d87759561461046e575b600080fd5b34801561009457600080fd5b506100f7600480360360408110156100ab57600080fd5b81019080803573ffffffffffffffffffffffffffffffffffffffff169060200190929190803573ffffffffffffffffffffffffffffffffffffffff1690602001909291905050506104ff565b604051808215151515815260200191505060405180910390f35b34801561011d57600080fd5b506101a06004803603606081101561013457600080fd5b81019080803573ffffffffffffffffffffffffffffffffffffffff169060200190929190803573ffffffffffffffffffffffffffffffffffffffff169060200190929190803573ffffffffffffffffffffffffffffffffffffffff1690602001909291905050506107e5565b604051808273ffffffffffffffffffffffffffffffffffffffff1673ffffffffffffffffffffffffffffffffffffffff16815260200191505060405180910390f35b3480156101ee57600080fd5b506102716004803603606081101561020557600080fd5b81019080803573ffffffffffffffffffffffffffffffffffffffff169060200190929190803573ffffffffffffffffffffffffffffffffffffffff169060200190929190803573ffffffffffffffffffffffffffffffffffffffff1690602001909291905050506108d0565b005b34801561027f57600080fd5b506103226004803603608081101561029657600080fd5b81019080803573ffffffffffffffffffffffffffffffffffffffff169060200190929190803573ffffffffffffffffffffffffffffffffffffffff169060200190929190803573ffffffffffffffffffffffffffffffffffffffff169060200190929190803573ffffffffffffffffffffffffffffffffffffffff169060200190929190505050610c5d565b604051808215151515815260200191505060405180910390f35b34801561034857600080fd5b506103cb6004803603606081101561035f57600080fd5b81019080803573ffffffffffffffffffffffffffffffffffffffff169060200190929190803573ffffffffffffffffffffffffffffffffffffffff169060200190929190803573ffffffffffffffffffffffffffffffffffffffff16906020019092919050505061103e565b604051808215151515815260200191505060405180910390f35b3480156103f157600080fd5b506104546004803603604081101561040857600080fd5b81019080803573ffffffffffffffffffffffffffffffffffffffff169060200190929190803573ffffffffffffffffffffffffffffffffffffffff169060200190929190505050611177565b604051808215151515815260200191505060405180910390f35b34801561047a57600080fd5b506104fd6004803603606081101561049157600080fd5b81019080803573ffffffffffffffffffffffffffffffffffffffff169060200190929190803573ffffffffffffffffffffffffffffffffffffffff169060200190929190803573ffffffffffffffffffffffffffffffffffffffff169060200190929190505050611250565b005b600061050b8383611177565b151515610580576040517f08c379a000000000000000000000000000000000000000000000000000000000815260040180806020018281038252601a8152602001807f4173736f63696174696f6e20616c72656164792065786973747300000000000081525060200191505060405180910390fd5b6000600160008573ffffffffffffffffffffffffffffffffffffffff1673ffffffffffffffffffffffffffffffffffffffff16815260200190815260200160002060008473ffffffffffffffffffffffffffffffffffffffff1673ffffffffffffffffffffffffffffffffffffffff1681526020019081526020016000209050838160000160006101000a81548173ffffffffffffffffffffffffffffffffffffffff021916908373ffffffffffffffffffffffffffffffffffffffff160217905550828160010160006101000a81548173ffffffffffffffffffffffffffffffffffffffff021916908373ffffffffffffffffffffffffffffffffffffffff160217905550600260008573ffffffffffffffffffffffffffffffffffffffff1673ffffffffffffffffffffffffffffffffffffffff1681526020019081526020016000208390806001815401808255809150509060018203906000526020600020016000909192909190916101000a81548173ffffffffffffffffffffffffffffffffffffffff021916908373ffffffffffffffffffffffffffffffffffffffff1602179055508160020181905550600260008473ffffffffffffffffffffffffffffffffffffffff1673ffffffffffffffffffffffffffffffffffffffff1681526020019081526020016000208490806001815401808255809150509060018203906000526020600020016000909192909190916101000a81548173ffffffffffffffffffffffffffffffffffffffff021916908373ffffffffffffffffffffffffffffffffffffffff1602179055508160030181905550600191505092915050565b6000600160008473ffffffffffffffffffffffffffffffffffffffff1673ffffffffffffffffffffffffffffffffffffffff16815260200190815260200160002060008573ffffffffffffffffffffffffffffffffffffffff1673ffffffffffffffffffffffffffffffffffffffff16815260200190815260200160002060060160008373ffffffffffffffffffffffffffffffffffffffff1673ffffffffffffffffffffffffffffffffffffffff16815260200190815260200160002060030160009054906101000a900473ffffffffffffffffffffffffffffffffffffffff1690509392505050565b6000809054906101000a900473ffffffffffffffffffffffffffffffffffffffff1673ffffffffffffffffffffffffffffffffffffffff163373ffffffffffffffffffffffffffffffffffffffff16141515610994576040517f08c379a00000000000000000000000000000000000000000000000000000000081526004018080602001828103825260188152602001807f6f6e6c792054432063616e20646f20746869732063616c6c000000000000000081525060200191505060405180910390fd5b6000600160008473ffffffffffffffffffffffffffffffffffffffff1673ffffffffffffffffffffffffffffffffffffffff16815260200190815260200160002060008573ffffffffffffffffffffffffffffffffffffffff1673ffffffffffffffffffffffffffffffffffffffff16815260200190815260200160002060070190506000600160008573ffffffffffffffffffffffffffffffffffffffff1673ffffffffffffffffffffffffffffffffffffffff16815260200190815260200160002060008673ffffffffffffffffffffffffffffffffffffffff1673ffffffffffffffffffffffffffffffffffffffff16815260200190815260200160002060060160008473ffffffffffffffffffffffffffffffffffffffff1673ffffffffffffffffffffffffffffffffffffffff16815260200190815260200160002090506000816001015490506000836001858054905003815481101515610af757fe5b9060005260206000200160009054906101000a900473ffffffffffffffffffffffffffffffffffffffff169050808483815481101515610b3357fe5b9060005260206000200160006101000a81548173ffffffffffffffffffffffffffffffffffffffff021916908373ffffffffffffffffffffffffffffffffffffffff16021790555081600160008873ffffffffffffffffffffffffffffffffffffffff1673ffffffffffffffffffffffffffffffffffffffff16815260200190815260200160002060008973ffffffffffffffffffffffffffffffffffffffff1673ffffffffffffffffffffffffffffffffffffffff16815260200190815260200160002060060160008373ffffffffffffffffffffffffffffffffffffffff1673ffffffffffffffffffffffffffffffffffffffff1681526020019081526020016000206001018190555083805480919060019003610c5391906116ef565b5050505050505050565b60008060009054906101000a900473ffffffffffffffffffffffffffffffffffffffff1673ffffffffffffffffffffffffffffffffffffffff163373ffffffffffffffffffffffffffffffffffffffff16141515610d23576040517f08c379a00000000000000000000000000000000000000000000000000000000081526004018080602001828103825260188152602001807f6f6e6c792054432063616e20646f20746869732063616c6c000000000000000081525060200191505060405180910390fd5b610d2d8386611177565b1515610dc7576040517f08c379a000000000000000000000000000000000000000000000000000000000815260040180806020018281038252602c8152602001807f7472616e73706f72746572206973206e6f7420706172746e6572206f66206d6581526020017f73736167652073656e646572000000000000000000000000000000000000000081525060400191505060405180910390fd5b6000600160008573ffffffffffffffffffffffffffffffffffffffff1673ffffffffffffffffffffffffffffffffffffffff16815260200190815260200160002060008773ffffffffffffffffffffffffffffffffffffffff1673ffffffffffffffffffffffffffffffffffffffff168152602001908152602001600020905060008160040160008773ffffffffffffffffffffffffffffffffffffffff1673ffffffffffffffffffffffffffffffffffffffff168152602001908152602001600020905060008160000160006101000a81548160ff02191690836002811115610ead57fe5b0217905550868160020160006101000a81548173ffffffffffffffffffffffffffffffffffffffff021916908373ffffffffffffffffffffffffffffffffffffffff160217905550838160030160006101000a81548173ffffffffffffffffffffffffffffffffffffffff021916908373ffffffffffffffffffffffffffffffffffffffff160217905550848160040160006101000a81548173ffffffffffffffffffffffffffffffffffffffff021916908373ffffffffffffffffffffffffffffffffffffffff160217905550858160050160006101000a81548173ffffffffffffffffffffffffffffffffffffffff021916908373ffffffffffffffffffffffffffffffffffffffff1602179055506001826005018790806001815401808255809150509060018203906000526020600020016000909192909190916101000a81548173ffffffffffffffffffffffffffffffffffffffff021916908373ffffffffffffffffffffffffffffffffffffffff160217905550038160010181905550600192505050949350505050565b600080600160008573ffffffffffffffffffffffffffffffffffffffff1673ffffffffffffffffffffffffffffffffffffffff16815260200190815260200160002060008673ffffffffffffffffffffffffffffffffffffffff1673ffffffffffffffffffffffffffffffffffffffff1681526020019081526020016000209050806005018160040160008573ffffffffffffffffffffffffffffffffffffffff1673ffffffffffffffffffffffffffffffffffffffff1681526020019081526020016000206001015481548110151561111457fe5b9060005260206000200160009054906101000a900473ffffffffffffffffffffffffffffffffffffffff1673ffffffffffffffffffffffffffffffffffffffff168373ffffffffffffffffffffffffffffffffffffffff16149150509392505050565b60008073ffffffffffffffffffffffffffffffffffffffff16600160008573ffffffffffffffffffffffffffffffffffffffff1673ffffffffffffffffffffffffffffffffffffffff16815260200190815260200160002060008473ffffffffffffffffffffffffffffffffffffffff1673ffffffffffffffffffffffffffffffffffffffff16815260200190815260200160002060000160009054906101000a900473ffffffffffffffffffffffffffffffffffffffff1673ffffffffffffffffffffffffffffffffffffffff161415905092915050565b6000809054906101000a900473ffffffffffffffffffffffffffffffffffffffff1673ffffffffffffffffffffffffffffffffffffffff163373ffffffffffffffffffffffffffffffffffffffff16141515611314576040517f08c379a00000000000000000000000000000000000000000000000000000000081526004018080602001828103825260188152602001807f6f6e6c792054432063616e20646f20746869732063616c6c000000000000000081525060200191505060405180910390fd5b6000600160008473ffffffffffffffffffffffffffffffffffffffff1673ffffffffffffffffffffffffffffffffffffffff16815260200190815260200160002060008573ffffffffffffffffffffffffffffffffffffffff1673ffffffffffffffffffffffffffffffffffffffff16815260200190815260200160002060050190506000600160008573ffffffffffffffffffffffffffffffffffffffff1673ffffffffffffffffffffffffffffffffffffffff16815260200190815260200160002060008673ffffffffffffffffffffffffffffffffffffffff1673ffffffffffffffffffffffffffffffffffffffff16815260200190815260200160002060040160008473ffffffffffffffffffffffffffffffffffffffff1673ffffffffffffffffffffffffffffffffffffffff1681526020019081526020016000209050600081600101549050600083600185805490500381548110151561147757fe5b9060005260206000200160009054906101000a900473ffffffffffffffffffffffffffffffffffffffff1690508084838154811015156114b357fe5b9060005260206000200160006101000a81548173ffffffffffffffffffffffffffffffffffffffff021916908373ffffffffffffffffffffffffffffffffffffffff16021790555081600160008873ffffffffffffffffffffffffffffffffffffffff1673ffffffffffffffffffffffffffffffffffffffff16815260200190815260200160002060008973ffffffffffffffffffffffffffffffffffffffff1673ffffffffffffffffffffffffffffffffffffffff16815260200190815260200160002060040160008373ffffffffffffffffffffffffffffffffffffffff1673ffffffffffffffffffffffffffffffffffffffff16815260200190815260200160002060010181905550838054809190600190036115d391906116ef565b5060018060008873ffffffffffffffffffffffffffffffffffffffff1673ffffffffffffffffffffffffffffffffffffffff16815260200190815260200160002060008973ffffffffffffffffffffffffffffffffffffffff1673ffffffffffffffffffffffffffffffffffffffff1681526020019081526020016000206007018690806001815401808255809150509060018203906000526020600020016000909192909190916101000a81548173ffffffffffffffffffffffffffffffffffffffff021916908373ffffffffffffffffffffffffffffffffffffffff16021790555003836001018190555060018360000160006101000a81548160ff021916908360028111156116e157fe5b021790555050505050505050565b81548183558181111561171657818360005260206000209182019101611715919061171b565b5b505050565b61173d91905b80821115611739576000816000905550600101611721565b5090565b9056fea165627a7a72305820ff0f1eab584830e0748a1b85ea0c48ca47df835f15a409a8acd94577ff60fa730029608060405234801561001057600080fd5b506040516020806125128339810180604052602081101561003057600080fd5b8101908080519060200190929190505050806000806101000a81548173ffffffffffffffffffffffffffffffffffffffff021916908373ffffffffffffffffffffffffffffffffffffffff16021790555050612481806100916000396000f3fe608060405260043610610062576000357c0100000000000000000000000000000000000000000000000000000000900463ffffffff168063791c0741146100675780638412d3d11461018f57806398581fd91461028b578063f552102214610306575b600080fd5b34801561007357600080fd5b5061014d6004803603604081101561008a57600080fd5b81019080803573ffffffffffffffffffffffffffffffffffffffff169060200190929190803590602001906401000000008111156100c757600080fd5b8201836020820111156100d957600080fd5b803590602001918460018302840111640100000000831117156100fb57600080fd5b91908080601f016020809104026020016040519081016040528093929190818152602001838380828437600081840152601f19601f82011690508083019250505050505050919291929050505061036f565b604051808273ffffffffffffffffffffffffffffffffffffffff1673ffffffffffffffffffffffffffffffffffffffff16815260200191505060405180910390f35b34801561019b57600080fd5b50610275600480360360408110156101b257600080fd5b81019080803573ffffffffffffffffffffffffffffffffffffffff169060200190929190803590602001906401000000008111156101ef57600080fd5b82018360208201111561020157600080fd5b8035906020019184600183028401116401000000008311171561022357600080fd5b91908080601f016020809104026020016040519081016040528093929190818152602001838380828437600081840152601f19601f8201169050808301925050505050505091929192905050506106b0565b6040518082815260200191505060405180910390f35b34801561029757600080fd5b506102c4600480360360208110156102ae57600080fd5b8101908080359060200190929190505050610936565b604051808273ffffffffffffffffffffffffffffffffffffffff1673ffffffffffffffffffffffffffffffffffffffff16815260200191505060405180910390f35b34801561031257600080fd5b506103556004803603602081101561032957600080fd5b81019080803573ffffffffffffffffffffffffffffffffffffffff169060200190929190505050610974565b604051808215151515815260200191505060405180910390f35b60008060009054906101000a900473ffffffffffffffffffffffffffffffffffffffff1673ffffffffffffffffffffffffffffffffffffffff163373ffffffffffffffffffffffffffffffffffffffff16141515610435576040517f08c379a00000000000000000000000000000000000000000000000000000000081526004018080602001828103825260188152602001807f6f6e6c792054432063616e20646f20746869732063616c6c000000000000000081525060200191505060405180910390fd5b61043e83610974565b15156104b2576040517f08c379a00000000000000000000000000000000000000000000000000000000081526004018080602001828103825260208152602001807f4f6e6c792070726f6475636572732063616e206372656174652061737365747381525060200191505060405180910390fd5b82826104bc610a3e565b808373ffffffffffffffffffffffffffffffffffffffff1673ffffffffffffffffffffffffffffffffffffffff16815260200180602001828103825283818151815260200191508051906020019080838360005b8381101561052b578082015181840152602081019050610510565b50505050905090810190601f1680156105585780820380516001836020036101000a031916815260200191505b509350505050604051809103906000f08015801561057a573d6000803e3d6000fd5b50905060018060003373ffffffffffffffffffffffffffffffffffffffff1673ffffffffffffffffffffffffffffffffffffffff1681526020019081526020016000206003018290806001815401808255809150509060018203906000526020600020016000909192909190916101000a81548173ffffffffffffffffffffffffffffffffffffffff021916908373ffffffffffffffffffffffffffffffffffffffff16021790555003600160003373ffffffffffffffffffffffffffffffffffffffff1673ffffffffffffffffffffffffffffffffffffffff16815260200190815260200160002060020160008373ffffffffffffffffffffffffffffffffffffffff1673ffffffffffffffffffffffffffffffffffffffff1681526020019081526020016000208190555080905092915050565b60008060009054906101000a900473ffffffffffffffffffffffffffffffffffffffff1673ffffffffffffffffffffffffffffffffffffffff163373ffffffffffffffffffffffffffffffffffffffff16141515610776576040517f08c379a00000000000000000000000000000000000000000000000000000000081526004018080602001828103825260188152602001807f6f6e6c792054432063616e20646f20746869732063616c6c000000000000000081525060200191505060405180910390fd5b6000151561078384610974565b1515141515610820576040517f08c379a00000000000000000000000000000000000000000000000000000000081526004018080602001828103825260218152602001807f50726f647563657220697320616c726561647920696e2074686520737973746581526020017f6d0000000000000000000000000000000000000000000000000000000000000081525060400191505060405180910390fd5b81600160008573ffffffffffffffffffffffffffffffffffffffff1673ffffffffffffffffffffffffffffffffffffffff1681526020019081526020016000206000019080519060200190610876929190610a4f565b50600160028490806001815401808255809150509060018203906000526020600020016000909192909190916101000a81548173ffffffffffffffffffffffffffffffffffffffff021916908373ffffffffffffffffffffffffffffffffffffffff16021790555003600160008573ffffffffffffffffffffffffffffffffffffffff1673ffffffffffffffffffffffffffffffffffffffff16815260200190815260200160002060010181905550600160028054905003905092915050565b60028181548110151561094557fe5b906000526020600020016000915054906101000a900473ffffffffffffffffffffffffffffffffffffffff1681565b600080600280549050141561098c5760009050610a39565b8173ffffffffffffffffffffffffffffffffffffffff166002600160008573ffffffffffffffffffffffffffffffffffffffff1673ffffffffffffffffffffffffffffffffffffffff168152602001908152602001600020600101548154811015156109f457fe5b9060005260206000200160009054906101000a900473ffffffffffffffffffffffffffffffffffffffff1673ffffffffffffffffffffffffffffffffffffffff161490505b919050565b6040516119618062000af583390190565b828054600181600116156101000203166002900490600052602060002090601f016020900481019282601f10610a9057805160ff1916838001178555610abe565b82800160010185558215610abe579182015b82811115610abd578251825591602001919060010190610aa2565b5b509050610acb9190610acf565b5090565b610af191905b80821115610aed576000816000905550600101610ad5565b5090565b9056fe60806040523480156200001157600080fd5b506040516200196138038062001961833981018060405260408110156200003757600080fd5b810190808051906020019092919080516401000000008111156200005a57600080fd5b828101905060208101848111156200007157600080fd5b81518560018202830111640100000000821117156200008f57600080fd5b505092919050505033600060016101000a81548173ffffffffffffffffffffffffffffffffffffffff021916908373ffffffffffffffffffffffffffffffffffffffff16021790555060008060006101000a81548160ff02191690836004811115620000f757fe5b021790555081600160006101000a81548173ffffffffffffffffffffffffffffffffffffffff021916908373ffffffffffffffffffffffffffffffffffffffff16021790555062000147620002d2565b6000816000019060058111156200015a57fe5b908160058111156200016857fe5b8152505081816060018190525082816020019073ffffffffffffffffffffffffffffffffffffffff16908173ffffffffffffffffffffffffffffffffffffffff1681525050428160800181815250506002819080600181540180825580915050906001820390600052602060002090600402016000909192909190915060008201518160000160006101000a81548160ff021916908360058111156200020a57fe5b021790555060208201518160000160016101000a81548173ffffffffffffffffffffffffffffffffffffffff021916908373ffffffffffffffffffffffffffffffffffffffff16021790555060408201518160010160006101000a81548173ffffffffffffffffffffffffffffffffffffffff021916908373ffffffffffffffffffffffffffffffffffffffff1602179055506060820151816002019080519060200190620002bb9291906200033a565b5060808201518160030155505050505050620003e9565b60a06040519081016040528060006005811115620002ec57fe5b8152602001600073ffffffffffffffffffffffffffffffffffffffff168152602001600073ffffffffffffffffffffffffffffffffffffffff16815260200160608152602001600081525090565b828054600181600116156101000203166002900490600052602060002090601f016020900481019282601f106200037d57805160ff1916838001178555620003ae565b82800160010185558215620003ae579182015b82811115620003ad57825182559160200191906001019062000390565b5b509050620003bd9190620003c1565b5090565b620003e691905b80821115620003e2576000816000905550600101620003c8565b5090565b90565b61156880620003f96000396000f3fe60806040526004361061008e576000357c0100000000000000000000000000000000000000000000000000000000900463ffffffff1680630b41573f1461009357806379ca5ca4146101045780638da5cb5b1461017557806398fa582a146101cc5780639ace38c214610205578063a4d62f9a1461033b578063b98c19c414610352578063cbd056c8146103dc575b600080fd5b34801561009f57600080fd5b50610102600480360360408110156100b657600080fd5b81019080803573ffffffffffffffffffffffffffffffffffffffff169060200190929190803573ffffffffffffffffffffffffffffffffffffffff1690602001909291905050506103f3565b005b34801561011057600080fd5b506101736004803603604081101561012757600080fd5b81019080803573ffffffffffffffffffffffffffffffffffffffff169060200190929190803573ffffffffffffffffffffffffffffffffffffffff1690602001909291905050506106ba565b005b34801561018157600080fd5b5061018a610a43565b604051808273ffffffffffffffffffffffffffffffffffffffff1673ffffffffffffffffffffffffffffffffffffffff16815260200191505060405180910390f35b3480156101d857600080fd5b506101e1610a69565b604051808260048111156101f157fe5b60ff16815260200191505060405180910390f35b34801561021157600080fd5b5061023e6004803603602081101561022857600080fd5b8101908080359060200190929190505050610a7b565b6040518086600581111561024e57fe5b60ff1681526020018573ffffffffffffffffffffffffffffffffffffffff1673ffffffffffffffffffffffffffffffffffffffff1681526020018473ffffffffffffffffffffffffffffffffffffffff1673ffffffffffffffffffffffffffffffffffffffff16815260200180602001838152602001828103825284818151815260200191508051906020019080838360005b838110156102fc5780820151818401526020810190506102e1565b50505050905090810190601f1680156103295780820380516001836020036101000a031916815260200191505b50965050505050505060405180910390f35b34801561034757600080fd5b50610350610ba5565b005b34801561035e57600080fd5b50610367610f0c565b604051808373ffffffffffffffffffffffffffffffffffffffff1673ffffffffffffffffffffffffffffffffffffffff1681526020018273ffffffffffffffffffffffffffffffffffffffff1673ffffffffffffffffffffffffffffffffffffffff1681526020019250505060405180910390f35b3480156103e857600080fd5b506103f16110c9565b005b600160009054906101000a900473ffffffffffffffffffffffffffffffffffffffff1673ffffffffffffffffffffffffffffffffffffffff168273ffffffffffffffffffffffffffffffffffffffff161415156104de576040517f08c379a00000000000000000000000000000000000000000000000000000000081526004018080602001828103825260318152602001807f6f6e6c79206f776e6572206f66207468652061737365742063616e2061736b2081526020017f666f7220656e64205472616e73706f727400000000000000000000000000000081525060400191505060405180910390fd5b60036000806101000a81548160ff021916908360048111156104fc57fe5b0217905550610509611430565b60038160000190600581111561051b57fe5b9081600581111561052857fe5b8152505082816020019073ffffffffffffffffffffffffffffffffffffffff16908173ffffffffffffffffffffffffffffffffffffffff168152505081816040019073ffffffffffffffffffffffffffffffffffffffff16908173ffffffffffffffffffffffffffffffffffffffff1681525050428160800181815250506002819080600181540180825580915050906001820390600052602060002090600402016000909192909190915060008201518160000160006101000a81548160ff021916908360058111156105f857fe5b021790555060208201518160000160016101000a81548173ffffffffffffffffffffffffffffffffffffffff021916908373ffffffffffffffffffffffffffffffffffffffff16021790555060408201518160010160006101000a81548173ffffffffffffffffffffffffffffffffffffffff021916908373ffffffffffffffffffffffffffffffffffffffff16021790555060608201518160020190805190602001906106a7929190611497565b5060808201518160030155505050505050565b600160009054906101000a900473ffffffffffffffffffffffffffffffffffffffff1673ffffffffffffffffffffffffffffffffffffffff168273ffffffffffffffffffffffffffffffffffffffff161415156107a5576040517f08c379a000000000000000000000000000000000000000000000000000000000815260040180806020018281038252602d8152602001807f4f6e6c79206f776e6572206f66207468652061737365742063616e2061736b2081526020017f666f72207472616e73706f72740000000000000000000000000000000000000081525060400191505060405180910390fd5b600060048111156107b257fe5b6000809054906101000a900460ff1660048111156107cc57fe5b141515610867576040517f08c379a00000000000000000000000000000000000000000000000000000000081526004018080602001828103825260318152602001807f43616e206e6f742061736b20666f72207472616e73706f72742069662061737381526020017f6574206973206e6f742077616974696e6700000000000000000000000000000081525060400191505060405180910390fd5b60016000806101000a81548160ff0219169083600481111561088557fe5b0217905550610892611430565b6001816000019060058111156108a457fe5b908160058111156108b157fe5b8152505082816020019073ffffffffffffffffffffffffffffffffffffffff16908173ffffffffffffffffffffffffffffffffffffffff168152505081816040019073ffffffffffffffffffffffffffffffffffffffff16908173ffffffffffffffffffffffffffffffffffffffff1681525050428160800181815250506002819080600181540180825580915050906001820390600052602060002090600402016000909192909190915060008201518160000160006101000a81548160ff0219169083600581111561098157fe5b021790555060208201518160000160016101000a81548173ffffffffffffffffffffffffffffffffffffffff021916908373ffffffffffffffffffffffffffffffffffffffff16021790555060408201518160010160006101000a81548173ffffffffffffffffffffffffffffffffffffffff021916908373ffffffffffffffffffffffffffffffffffffffff1602179055506060820151816002019080519060200190610a30929190611497565b5060808201518160030155505050505050565b600160009054906101000a900473ffffffffffffffffffffffffffffffffffffffff1681565b6000809054906101000a900460ff1681565b600281815481101515610a8a57fe5b90600052602060002090600402016000915090508060000160009054906101000a900460ff16908060000160019054906101000a900473ffffffffffffffffffffffffffffffffffffffff16908060010160009054906101000a900473ffffffffffffffffffffffffffffffffffffffff1690806002018054600181600116156101000203166002900480601f016020809104026020016040519081016040528092919081815260200182805460018160011615610100020316600290048015610b955780601f10610b6a57610100808354040283529160200191610b95565b820191906000526020600020905b815481529060010190602001808311610b7857829003601f168201915b5050505050908060030154905085565b60008060006101000a81548160ff02191690836004811115610bc357fe5b0217905550610bd0611430565b6002600160028054905003815481101515610be757fe5b906000526020600020906004020160a060405190810160405290816000820160009054906101000a900460ff166005811115610c1f57fe5b6005811115610c2a57fe5b81526020016000820160019054906101000a900473ffffffffffffffffffffffffffffffffffffffff1673ffffffffffffffffffffffffffffffffffffffff1673ffffffffffffffffffffffffffffffffffffffff1681526020016001820160009054906101000a900473ffffffffffffffffffffffffffffffffffffffff1673ffffffffffffffffffffffffffffffffffffffff1673ffffffffffffffffffffffffffffffffffffffff168152602001600282018054600181600116156101000203166002900480601f016020809104026020016040519081016040528092919081815260200182805460018160011615610100020316600290048015610d735780601f10610d4857610100808354040283529160200191610d73565b820191906000526020600020905b815481529060010190602001808311610d5657829003601f168201915b5050505050815260200160038201548152505090508060400151600160006101000a81548173ffffffffffffffffffffffffffffffffffffffff021916908373ffffffffffffffffffffffffffffffffffffffff160217905550600481600001906005811115610ddf57fe5b90816005811115610dec57fe5b81525050428160800181815250506002819080600181540180825580915050906001820390600052602060002090600402016000909192909190915060008201518160000160006101000a81548160ff02191690836005811115610e4c57fe5b021790555060208201518160000160016101000a81548173ffffffffffffffffffffffffffffffffffffffff021916908373ffffffffffffffffffffffffffffffffffffffff16021790555060408201518160010160006101000a81548173ffffffffffffffffffffffffffffffffffffffff021916908373ffffffffffffffffffffffffffffffffffffffff1602179055506060820151816002019080519060200190610efb929190611497565b506080820151816003015550505050565b60008060016004811115610f1c57fe5b6000809054906101000a900460ff166004811115610f3657fe5b1480610f66575060026004811115610f4a57fe5b6000809054906101000a900460ff166004811115610f6457fe5b145b80610f95575060036004811115610f7957fe5b6000809054906101000a900460ff166004811115610f9357fe5b145b151561102f576040517f08c379a00000000000000000000000000000000000000000000000000000000081526004018080602001828103825260218152602001807f6173736574206973206e6f742070656e64696e67206f66207472616e73706f7281526020017f740000000000000000000000000000000000000000000000000000000000000081525060400191505060405180910390fd5b600260016002805490500381548110151561104657fe5b906000526020600020906004020160000160019054906101000a900473ffffffffffffffffffffffffffffffffffffffff169150600260016002805490500381548110151561109157fe5b906000526020600020906004020160010160009054906101000a900473ffffffffffffffffffffffffffffffffffffffff1690509091565b60026000806101000a81548160ff021916908360048111156110e757fe5b02179055506110f4611430565b600260016002805490500381548110151561110b57fe5b906000526020600020906004020160a060405190810160405290816000820160009054906101000a900460ff16600581111561114357fe5b600581111561114e57fe5b81526020016000820160019054906101000a900473ffffffffffffffffffffffffffffffffffffffff1673ffffffffffffffffffffffffffffffffffffffff1673ffffffffffffffffffffffffffffffffffffffff1681526020016001820160009054906101000a900473ffffffffffffffffffffffffffffffffffffffff1673ffffffffffffffffffffffffffffffffffffffff1673ffffffffffffffffffffffffffffffffffffffff168152602001600282018054600181600116156101000203166002900480601f0160208091040260200160405190810160405280929190818152602001828054600181600116156101000203166002900480156112975780601f1061126c57610100808354040283529160200191611297565b820191906000526020600020905b81548152906001019060200180831161127a57829003601f168201915b5050505050815260200160038201548152505090508060400151600160006101000a81548173ffffffffffffffffffffffffffffffffffffffff021916908373ffffffffffffffffffffffffffffffffffffffff16021790555060028160000190600581111561130357fe5b9081600581111561131057fe5b81525050428160800181815250506002819080600181540180825580915050906001820390600052602060002090600402016000909192909190915060008201518160000160006101000a81548160ff0219169083600581111561137057fe5b021790555060208201518160000160016101000a81548173ffffffffffffffffffffffffffffffffffffffff021916908373ffffffffffffffffffffffffffffffffffffffff16021790555060408201518160010160006101000a81548173ffffffffffffffffffffffffffffffffffffffff021916908373ffffffffffffffffffffffffffffffffffffffff160217905550606082015181600201908051906020019061141f929190611497565b506080820151816003015550505050565b60a0604051908101604052806000600581111561144957fe5b8152602001600073ffffffffffffffffffffffffffffffffffffffff168152602001600073ffffffffffffffffffffffffffffffffffffffff16815260200160608152602001600081525090565b828054600181600116156101000203166002900490600052602060002090601f016020900481019282601f106114d857805160ff1916838001178555611506565b82800160010185558215611506579182015b828111156115055782518255916020019190600101906114ea565b5b5090506115139190611517565b5090565b61153991905b8082111561153557600081600090555060010161151d565b5090565b9056fea165627a7a7230582004d264abaf6603b1d9650042275413671f2d3b2ac4a31b9e36727d179b659d570029a165627a7a7230582015e35169f5ab5abcd4cf7682cf7dc6b9684cbd15c16c8c69c2f711e8b7b0de270029608060405234801561001057600080fd5b506040516020806107298339810180604052602081101561003057600080fd5b8101908080519060200190929190505050806000806101000a81548173ffffffffffffffffffffffffffffffffffffffff021916908373ffffffffffffffffffffffffffffffffffffffff16021790555050610698806100916000396000f3fe608060405260043610610057576000357c0100000000000000000000000000000000000000000000000000000000900463ffffffff1680631302ed1f1461005c5780632b8109d51461015c578063da3898fe146101c5575b600080fd5b34801561006857600080fd5b506101426004803603604081101561007f57600080fd5b81019080803573ffffffffffffffffffffffffffffffffffffffff169060200190929190803590602001906401000000008111156100bc57600080fd5b8201836020820111156100ce57600080fd5b803590602001918460018302840111640100000000831117156100f057600080fd5b91908080601f016020809104026020016040519081016040528093929190818152602001838380828437600081840152601f19601f820116905080830192505050505050509192919290505050610240565b604051808215151515815260200191505060405180910390f35b34801561016857600080fd5b506101ab6004803603602081101561017f57600080fd5b81019080803573ffffffffffffffffffffffffffffffffffffffff1690602001909291905050506104bf565b604051808215151515815260200191505060405180910390f35b3480156101d157600080fd5b506101fe600480360360208110156101e857600080fd5b8101908080359060200190929190505050610589565b604051808273ffffffffffffffffffffffffffffffffffffffff1673ffffffffffffffffffffffffffffffffffffffff16815260200191505060405180910390f35b60008060009054906101000a900473ffffffffffffffffffffffffffffffffffffffff1673ffffffffffffffffffffffffffffffffffffffff163373ffffffffffffffffffffffffffffffffffffffff16141515610306576040517f08c379a00000000000000000000000000000000000000000000000000000000081526004018080602001828103825260188152602001807f6f6e6c792054432063616e20646f20746869732063616c6c000000000000000081525060200191505060405180910390fd5b60001515610313846104bf565b15151415156103b0576040517f08c379a00000000000000000000000000000000000000000000000000000000081526004018080602001828103825260248152602001807f5472616e73706f7274657220697320616c726561647920696e2074686520737981526020017f7374656d0000000000000000000000000000000000000000000000000000000081525060400191505060405180910390fd5b81600160008573ffffffffffffffffffffffffffffffffffffffff1673ffffffffffffffffffffffffffffffffffffffff16815260200190815260200160002060000190805190602001906104069291906105c7565b50600160028490806001815401808255809150509060018203906000526020600020016000909192909190916101000a81548173ffffffffffffffffffffffffffffffffffffffff021916908373ffffffffffffffffffffffffffffffffffffffff16021790555003600160008573ffffffffffffffffffffffffffffffffffffffff1673ffffffffffffffffffffffffffffffffffffffff168152602001908152602001600020600101819055506001905092915050565b60008060028054905014156104d75760009050610584565b8173ffffffffffffffffffffffffffffffffffffffff166002600160008573ffffffffffffffffffffffffffffffffffffffff1673ffffffffffffffffffffffffffffffffffffffff1681526020019081526020016000206001015481548110151561053f57fe5b9060005260206000200160009054906101000a900473ffffffffffffffffffffffffffffffffffffffff1673ffffffffffffffffffffffffffffffffffffffff161490505b919050565b60028181548110151561059857fe5b906000526020600020016000915054906101000a900473ffffffffffffffffffffffffffffffffffffffff1681565b828054600181600116156101000203166002900490600052602060002090601f016020900481019282601f1061060857805160ff1916838001178555610636565b82800160010185558215610636579182015b8281111561063557825182559160200191906001019061061a565b5b5090506106439190610647565b5090565b61066991905b8082111561066557600081600090555060010161064d565b5090565b9056fea165627a7a72305820a40c2288d86cec1ff6dbcd9a84b9ad68d78bc9585c0e07ad5bbd37d32a07cc2a0029608060405234801561001057600080fd5b50604051602080610f498339810180604052602081101561003057600080fd5b8101908080519060200190929190505050806000806101000a81548173ffffffffffffffffffffffffffffffffffffffff021916908373ffffffffffffffffffffffffffffffffffffffff16021790555050610eb8806100916000396000f3fe60806040526004361061006d576000357c0100000000000000000000000000000000000000000000000000000000900463ffffffff168063079320a1146100725780631d0e8a4d146100ed57806362e6115a1461015657806391104740146101df5780639b7e02eb14610268575b600080fd5b34801561007e57600080fd5b506100ab6004803603602081101561009557600080fd5b8101908080359060200190929190505050610364565b604051808273ffffffffffffffffffffffffffffffffffffffff1673ffffffffffffffffffffffffffffffffffffffff16815260200191505060405180910390f35b3480156100f957600080fd5b5061013c6004803603602081101561011057600080fd5b81019080803573ffffffffffffffffffffffffffffffffffffffff1690602001909291905050506103a2565b604051808215151515815260200191505060405180910390f35b34801561016257600080fd5b506101c56004803603604081101561017957600080fd5b81019080803573ffffffffffffffffffffffffffffffffffffffff169060200190929190803573ffffffffffffffffffffffffffffffffffffffff16906020019092919050505061046c565b604051808215151515815260200191505060405180910390f35b3480156101eb57600080fd5b5061024e6004803603604081101561020257600080fd5b81019080803573ffffffffffffffffffffffffffffffffffffffff169060200190929190803573ffffffffffffffffffffffffffffffffffffffff1690602001909291905050506106e3565b604051808215151515815260200191505060405180910390f35b34801561027457600080fd5b5061034e6004803603604081101561028b57600080fd5b81019080803573ffffffffffffffffffffffffffffffffffffffff169060200190929190803590602001906401000000008111156102c857600080fd5b8201836020820111156102da57600080fd5b803590602001918460018302840111640100000000831117156102fc57600080fd5b91908080601f016020809104026020016040519081016040528093929190818152602001838380828437600081840152601f19601f820116905080830192505050505050509192919290505050610b5b565b6040518082815260200191505060405180910390f35b60028181548110151561037357fe5b906000526020600020016000915054906101000a900473ffffffffffffffffffffffffffffffffffffffff1681565b60008060028054905014156103ba5760009050610467565b8173ffffffffffffffffffffffffffffffffffffffff166002600160008573ffffffffffffffffffffffffffffffffffffffff1673ffffffffffffffffffffffffffffffffffffffff1681526020019081526020016000206001015481548110151561042257fe5b9060005260206000200160009054906101000a900473ffffffffffffffffffffffffffffffffffffffff1673ffffffffffffffffffffffffffffffffffffffff161490505b919050565b60008060009054906101000a900473ffffffffffffffffffffffffffffffffffffffff1673ffffffffffffffffffffffffffffffffffffffff163373ffffffffffffffffffffffffffffffffffffffff16141515610532576040517f08c379a00000000000000000000000000000000000000000000000000000000081526004018080602001828103825260188152602001807f6f6e6c792054432063616e20646f20746869732063616c6c000000000000000081525060200191505060405180910390fd5b61053b836103a2565b15156105af576040517f08c379a000000000000000000000000000000000000000000000000000000000815260040180806020018281038252601a8152602001807f57726f6e672073686f70416464726573732070726f766964656400000000000081525060200191505060405180910390fd5b60018060008573ffffffffffffffffffffffffffffffffffffffff1673ffffffffffffffffffffffffffffffffffffffff1681526020019081526020016000206003018390806001815401808255809150509060018203906000526020600020016000909192909190916101000a81548173ffffffffffffffffffffffffffffffffffffffff021916908373ffffffffffffffffffffffffffffffffffffffff16021790555003600160008573ffffffffffffffffffffffffffffffffffffffff1673ffffffffffffffffffffffffffffffffffffffff16815260200190815260200160002060020160008473ffffffffffffffffffffffffffffffffffffffff1673ffffffffffffffffffffffffffffffffffffffff168152602001908152602001600020819055506001905092915050565b60008060009054906101000a900473ffffffffffffffffffffffffffffffffffffffff1673ffffffffffffffffffffffffffffffffffffffff163373ffffffffffffffffffffffffffffffffffffffff161415156107a9576040517f08c379a00000000000000000000000000000000000000000000000000000000081526004018080602001828103825260188152602001807f6f6e6c792054432063616e20646f20746869732063616c6c000000000000000081525060200191505060405180910390fd5b6107b2836103a2565b1515610826576040517f08c379a000000000000000000000000000000000000000000000000000000000815260040180806020018281038252601a8152602001807f57726f6e672073686f70416464726573732070726f766964656400000000000081525060200191505060405180910390fd5b6000600160008573ffffffffffffffffffffffffffffffffffffffff1673ffffffffffffffffffffffffffffffffffffffff16815260200190815260200160002060030190506000600160008673ffffffffffffffffffffffffffffffffffffffff1673ffffffffffffffffffffffffffffffffffffffff16815260200190815260200160002060020160008573ffffffffffffffffffffffffffffffffffffffff1673ffffffffffffffffffffffffffffffffffffffff168152602001908152602001600020549050600082600184805490500381548110151561090757fe5b9060005260206000200160009054906101000a900473ffffffffffffffffffffffffffffffffffffffff16905080838381548110151561094357fe5b9060005260206000200160006101000a81548173ffffffffffffffffffffffffffffffffffffffff021916908373ffffffffffffffffffffffffffffffffffffffff16021790555081600160008873ffffffffffffffffffffffffffffffffffffffff1673ffffffffffffffffffffffffffffffffffffffff16815260200190815260200160002060020160008373ffffffffffffffffffffffffffffffffffffffff1673ffffffffffffffffffffffffffffffffffffffff1681526020019081526020016000208190555082805480919060019003610a239190610dbb565b5060018060008873ffffffffffffffffffffffffffffffffffffffff1673ffffffffffffffffffffffffffffffffffffffff1681526020019081526020016000206005018690806001815401808255809150509060018203906000526020600020016000909192909190916101000a81548173ffffffffffffffffffffffffffffffffffffffff021916908373ffffffffffffffffffffffffffffffffffffffff16021790555003600160008873ffffffffffffffffffffffffffffffffffffffff1673ffffffffffffffffffffffffffffffffffffffff16815260200190815260200160002060040160008773ffffffffffffffffffffffffffffffffffffffff1673ffffffffffffffffffffffffffffffffffffffff168152602001908152602001600020819055506001935050505092915050565b60008060009054906101000a900473ffffffffffffffffffffffffffffffffffffffff1673ffffffffffffffffffffffffffffffffffffffff163373ffffffffffffffffffffffffffffffffffffffff16141515610c21576040517f08c379a00000000000000000000000000000000000000000000000000000000081526004018080602001828103825260188152602001807f6f6e6c792054432063616e20646f20746869732063616c6c000000000000000081525060200191505060405180910390fd5b60001515610c2e846103a2565b1515141515610ca5576040517f08c379a000000000000000000000000000000000000000000000000000000000815260040180806020018281038252601d8152602001807f53686f7020697320616c726561647920696e207468652073797374656d00000081525060200191505060405180910390fd5b81600160008573ffffffffffffffffffffffffffffffffffffffff1673ffffffffffffffffffffffffffffffffffffffff1681526020019081526020016000206000019080519060200190610cfb929190610de7565b50600160028490806001815401808255809150509060018203906000526020600020016000909192909190916101000a81548173ffffffffffffffffffffffffffffffffffffffff021916908373ffffffffffffffffffffffffffffffffffffffff16021790555003600160008573ffffffffffffffffffffffffffffffffffffffff1673ffffffffffffffffffffffffffffffffffffffff16815260200190815260200160002060010181905550600160028054905003905092915050565b815481835581811115610de257818360005260206000209182019101610de19190610e67565b5b505050565b828054600181600116156101000203166002900490600052602060002090601f016020900481019282601f10610e2857805160ff1916838001178555610e56565b82800160010185558215610e56579182015b82811115610e55578251825591602001919060010190610e3a565b5b509050610e639190610e67565b5090565b610e8991905b80821115610e85576000816000905550600101610e6d565b5090565b9056fea165627a7a72305820aa8cba9627aa3a696c70f77a9a1a69b16c3f1376e3eada547f5e7bcb35add20d0029",
  "source": "pragma solidity ^0.5.0;\n\nimport \"./owned.sol\";\nimport \"./asset.sol\";\nimport \"./producers.sol\";\nimport \"./transporters.sol\";\nimport \"./shops.sol\";\n\nimport \"./transporters_users.sol\";\n\n\ncontract TraceabilityContract is owned {\n\n    event LogNewTransporter(address transporterAddress, string registrationData);\n    event LogNewCertifier(address certifierAddress, string registrationData);\n    event LogNewShop(address shopAddress, string registrationData);\n    event LogNewProducer(address producerAddress, string registrationData);\n    event LogNewAsset(address indexed producerAddress, address assetAddress);\n\n    event LogAttachedTransporter(address indexed userAddress, address indexed transporterAddress);\n\n    Transporters_Users tuContract;\n    Producers producersContract;  \n    Transporters transportersContract;\n    Shops shopsContract;\n    \n    constructor () public {\n        tuContract = new Transporters_Users(address(this));\n        producersContract = new Producers(address(this));                        \n        transportersContract = new Transporters(address(this));\n        shopsContract = new Shops(address(this));\n    }\n\n    /* Pertenencia a roles*/\n\n    function isTransporter(address _transporterAddress) public view returns(bool isIndeed) {\n        return transportersContract.isTransporter(_transporterAddress);\n    }\n\n    function isShop(address _shopAddress) public view returns(bool isIndeed) {\n        return shopsContract.isShop(_shopAddress);\n    } \n    \n    function isProducer(address _producerAddress) public view returns(bool isIndeed) {                \n        return producersContract.isProducer(_producerAddress);\n    } \n\n    /* insercin de participantes */ \n    //TODO quitar los returns??\n    function insertShop(address _shopAddress, string memory _data) public onlyOwner returns(uint index){\n        index = shopsContract.insertShop(_shopAddress, _data);\n        emit LogNewShop(_shopAddress, _data);             \n    }\n\n    function insertProducer(address ProducerAddress, string memory _data) public onlyOwner returns(uint index){\n        index = producersContract.insertProducer(ProducerAddress, _data);\n        emit LogNewProducer(ProducerAddress, _data);        \n    }\n\n    function insertTransporter(address _transporterAddress, string memory _registrationData) \n        public onlyOwner returns(bool success)\n    {       \n        success = transportersContract.insertTransporter(_transporterAddress, _registrationData);\n        emit LogNewTransporter(_transporterAddress, _registrationData);                \n    }\n\n\n    /* NxM relations */\n\n    function userAttachTransporter(address _transporterAddress) public returns(bool success){\n        require(isTransporter(_transporterAddress), \" transporterAddress is not a transporter\");\n        require(\n            isProducer(msg.sender) || false, //TODO aadir todos los posibles tipos de user\n            \"Sender is not a valid transporter user\"\n        ); \n\n        success = tuContract.insertTU(_transporterAddress, msg.sender);\n        emit LogAttachedTransporter(msg.sender, _transporterAddress);\n    }\n    \n\n    /* Checks */\n\n    function isTransporterOfUser(address _transporterAddress, address _userAddress) private view returns (bool isIndeed){\n        assert(isTransporter(_transporterAddress));\n        return tuContract.isTransporterOfUser(_transporterAddress, _userAddress);\n    }\n\n    function isPendingTransport(address _userAddress, address _transporterAddress, address _assetAddress) \n        private view returns (bool isIndeed)\n    {        \n        assert(isTransporter(_transporterAddress));\n        return tuContract.isPendingTransport(_userAddress, _transporterAddress, _assetAddress);\n    }\n\n\n    /* Operations */\n\n    function createAsset(string memory _JSON) public returns (address assetAddress){       \n        assetAddress = producersContract.createAsset(msg.sender, _JSON);\n        emit LogNewAsset(msg.sender, assetAddress);        \n    }\n\n    function requestTransportStart(address _assetAddress, address _transporterAddress, address _receiverAddress) \n        public \n        returns (bool success)\n    {   \n        require(Asset(_assetAddress).owner() == msg.sender, \"Only owner of the asset can request a transport\");           \n        require(isTransporter(_transporterAddress), \"only transporters can transport\");\n        require(\n            isShop(_receiverAddress), //TODO Aadir diferentes tipos de users\n            \"only shops can receive a transport\"\n        );        \n        \n        tuContract.requestTransportStart(msg.sender, _assetAddress, _transporterAddress, _receiverAddress);\n        \n        //Change asset status and add a transaction of type (TransportStartRequest)\n        Asset(_assetAddress).askForTransport(msg.sender, _transporterAddress);\n\n        return true;\n    }\n\n    function startTransport(address _assetAddress) public returns (bool success){     \n        //TODO quiza aadir una estructura asset que simplemente deje saber a este contrato la lista\n        //de assets que se han creado\n        require(isTransporter(msg.sender), \"Only transporters can start transports\");        \n        (address _from, address _transporter) = Asset(_assetAddress).getTransportData();\n        require (_transporter == msg.sender, \"Asset is pending transport from another transporter\");        \n        assert (isPendingTransport(_from, _transporter, _assetAddress));        \n        \n        //Delete transport from pending transports and add to activeTransports        \n        tuContract.activateTransport(_from, _transporter, _assetAddress);\n        \n        //Notify the assets contract (change state and add transaction)       \n        Asset(_assetAddress).newTransport();\n        return true;\n    }\n\n    function requestTransportEnd(address _assetAddress) public returns (bool success){\n        require(isTransporter(msg.sender), \"Only a transporter can request transport end\"); \n        \n        (address _from, address _transporter) = Asset(_assetAddress).getTransportData();\n        require(msg.sender == _transporter, \"Requester is not the valid transporter\");\n          \n        //conseguir datos del transport  \n        address _to = tuContract.getTransportReceiver(_from, _transporter, _assetAddress);\n\n        //pedir al asset el cambio de estado \n        Asset(_assetAddress).askForTransportEnd(_transporter, _to);\n\n        //Aadir a la lista de transportes pendientes de la tienda\n        shopsContract.addPendingAsset(_to, _assetAddress);\n                \n        return true;\n    }\n\n    function endTransport(address _assetAddress) public returns (bool success){      \n        require(\n            isShop(msg.sender), //TODO Add the rest of possible receivers i.e. factory, warehouse\n            \"Only shop can receive Asset\"\n        );\n        //TODO aadir mas comprobaciones de seguridad\n        \n        //add transaction to the asset history\n        Asset(_assetAddress).endTransport();\n        \n        (address _from, address _transporter) = Asset(_assetAddress).getTransportData();\n        // delete transport from transporter\n        tuContract.deleteTransport(_from, _transporter, _assetAddress);        \n        \n        // add asset to shop\n        shopsContract.receiveAsset(msg.sender, _assetAddress);\n        return true;\n    }\n}\n\n",
  "sourcePath": "/home/fernandogbr/proyecto_trazabilidad/ETH_Traceability_Truffle/contracts/traceabilityContract.sol",
  "compiler": {
    "name": "solc",
    "version": "0.5.0+commit.1d4f565a.Emscripten.clang"
  },
  "schemaVersion": "3.0.2",
  "updatedAt": "2019-02-20T09:07:48.941Z",
  "devdoc": {
    "methods": {}
  },
  "userdoc": {
    "methods": {}
  }
}