{
  "contractName": "Transporters",
  "abi": [
    {
      "constant": true,
      "inputs": [
        {
          "name": "",
          "type": "uint256"
        }
      ],
      "name": "transportersList",
      "outputs": [
        {
          "name": "",
          "type": "address"
        }
      ],
      "payable": false,
      "stateMutability": "view",
      "type": "function"
    },
    {
      "inputs": [
        {
          "name": "_tc",
          "type": "address"
        }
      ],
      "payable": false,
      "stateMutability": "nonpayable",
      "type": "constructor"
    },
    {
      "constant": true,
      "inputs": [
        {
          "name": "transporterAddress",
          "type": "address"
        }
      ],
      "name": "isTransporter",
      "outputs": [
        {
          "name": "isIndeed",
          "type": "bool"
        }
      ],
      "payable": false,
      "stateMutability": "view",
      "type": "function"
    },
    {
      "constant": false,
      "inputs": [
        {
          "name": "_transporterAddress",
          "type": "address"
        },
        {
          "name": "_registrationData",
          "type": "string"
        }
      ],
      "name": "insertTransporter",
      "outputs": [
        {
          "name": "success",
          "type": "bool"
        }
      ],
      "payable": false,
      "stateMutability": "nonpayable",
      "type": "function"
    }
  ],
  "bytecode": "0x608060405234801561001057600080fd5b506040516020806107298339810180604052602081101561003057600080fd5b8101908080519060200190929190505050806000806101000a81548173ffffffffffffffffffffffffffffffffffffffff021916908373ffffffffffffffffffffffffffffffffffffffff16021790555050610698806100916000396000f3fe608060405260043610610057576000357c0100000000000000000000000000000000000000000000000000000000900463ffffffff1680631302ed1f1461005c5780632b8109d51461015c578063da3898fe146101c5575b600080fd5b34801561006857600080fd5b506101426004803603604081101561007f57600080fd5b81019080803573ffffffffffffffffffffffffffffffffffffffff169060200190929190803590602001906401000000008111156100bc57600080fd5b8201836020820111156100ce57600080fd5b803590602001918460018302840111640100000000831117156100f057600080fd5b91908080601f016020809104026020016040519081016040528093929190818152602001838380828437600081840152601f19601f820116905080830192505050505050509192919290505050610240565b604051808215151515815260200191505060405180910390f35b34801561016857600080fd5b506101ab6004803603602081101561017f57600080fd5b81019080803573ffffffffffffffffffffffffffffffffffffffff1690602001909291905050506104bf565b604051808215151515815260200191505060405180910390f35b3480156101d157600080fd5b506101fe600480360360208110156101e857600080fd5b8101908080359060200190929190505050610589565b604051808273ffffffffffffffffffffffffffffffffffffffff1673ffffffffffffffffffffffffffffffffffffffff16815260200191505060405180910390f35b60008060009054906101000a900473ffffffffffffffffffffffffffffffffffffffff1673ffffffffffffffffffffffffffffffffffffffff163373ffffffffffffffffffffffffffffffffffffffff16141515610306576040517f08c379a00000000000000000000000000000000000000000000000000000000081526004018080602001828103825260188152602001807f6f6e6c792054432063616e20646f20746869732063616c6c000000000000000081525060200191505060405180910390fd5b60001515610313846104bf565b15151415156103b0576040517f08c379a00000000000000000000000000000000000000000000000000000000081526004018080602001828103825260248152602001807f5472616e73706f7274657220697320616c726561647920696e2074686520737981526020017f7374656d0000000000000000000000000000000000000000000000000000000081525060400191505060405180910390fd5b81600160008573ffffffffffffffffffffffffffffffffffffffff1673ffffffffffffffffffffffffffffffffffffffff16815260200190815260200160002060000190805190602001906104069291906105c7565b50600160028490806001815401808255809150509060018203906000526020600020016000909192909190916101000a81548173ffffffffffffffffffffffffffffffffffffffff021916908373ffffffffffffffffffffffffffffffffffffffff16021790555003600160008573ffffffffffffffffffffffffffffffffffffffff1673ffffffffffffffffffffffffffffffffffffffff168152602001908152602001600020600101819055506001905092915050565b60008060028054905014156104d75760009050610584565b8173ffffffffffffffffffffffffffffffffffffffff166002600160008573ffffffffffffffffffffffffffffffffffffffff1673ffffffffffffffffffffffffffffffffffffffff1681526020019081526020016000206001015481548110151561053f57fe5b9060005260206000200160009054906101000a900473ffffffffffffffffffffffffffffffffffffffff1673ffffffffffffffffffffffffffffffffffffffff161490505b919050565b60028181548110151561059857fe5b906000526020600020016000915054906101000a900473ffffffffffffffffffffffffffffffffffffffff1681565b828054600181600116156101000203166002900490600052602060002090601f016020900481019282601f1061060857805160ff1916838001178555610636565b82800160010185558215610636579182015b8281111561063557825182559160200191906001019061061a565b5b5090506106439190610647565b5090565b61066991905b8082111561066557600081600090555060010161064d565b5090565b9056fea165627a7a72305820a40c2288d86cec1ff6dbcd9a84b9ad68d78bc9585c0e07ad5bbd37d32a07cc2a0029",
  "source": "pragma solidity ^0.5.0;\n\ncontract Transporters {\n    address traceabilityContract;    \n\n    struct Transporter{\n        string registrationData; //extra data given on register\n\n        uint index; // index on the global transporter list\n    }    \n    mapping (address => Transporter) private  transporters;\n    address[] public transportersList;\n\n    constructor (address _tc) public{\n        traceabilityContract = _tc;        \n    }   \n\n    function isTransporter(address transporterAddress) public view returns(bool isIndeed) {\n        if(transportersList.length == 0) return false;\n        return (transportersList[transporters[transporterAddress].index] == transporterAddress);\n    }\n\n    function insertTransporter(        \n        address _transporterAddress,\n        string memory _registrationData\n    ) public returns(bool success){ \n        require(msg.sender == traceabilityContract, \"only TC can do this call\");       \n        require(isTransporter(_transporterAddress) == false, \"Transporter is already in the system\");  \n        \n        transporters[_transporterAddress].registrationData = _registrationData;\n        transporters[_transporterAddress].index = transportersList.push(_transporterAddress) - 1;        \n\n        return true;\n    }\n    \n}",
  "sourcePath": "/home/fernandogbr/proyecto_trazabilidad/ETH_Traceability_Truffle/contracts/transporters.sol",
  "compiler": {
    "name": "solc",
    "version": "0.5.0+commit.1d4f565a.Emscripten.clang"
  },
  "schemaVersion": "3.0.2",
  "updatedAt": "2019-02-20T09:07:48.943Z",
  "devdoc": {
    "methods": {}
  },
  "userdoc": {
    "methods": {}
  }
}