{
  "contractName": "Transporters_Users",
  "abi": [
    {
      "inputs": [
        {
          "name": "_tc",
          "type": "address"
        }
      ],
      "payable": false,
      "stateMutability": "nonpayable",
      "type": "constructor"
    },
    {
      "constant": false,
      "inputs": [
        {
          "name": "_transporterAddress",
          "type": "address"
        },
        {
          "name": "_userAddress",
          "type": "address"
        }
      ],
      "name": "insertTU",
      "outputs": [
        {
          "name": "success",
          "type": "bool"
        }
      ],
      "payable": false,
      "stateMutability": "nonpayable",
      "type": "function"
    },
    {
      "constant": true,
      "inputs": [
        {
          "name": "_transporterAddress",
          "type": "address"
        },
        {
          "name": "_userAddress",
          "type": "address"
        }
      ],
      "name": "isTransporterOfUser",
      "outputs": [
        {
          "name": "isIndeed",
          "type": "bool"
        }
      ],
      "payable": false,
      "stateMutability": "view",
      "type": "function"
    },
    {
      "constant": true,
      "inputs": [
        {
          "name": "_userAddress",
          "type": "address"
        },
        {
          "name": "_transporterAddress",
          "type": "address"
        },
        {
          "name": "_assetAddress",
          "type": "address"
        }
      ],
      "name": "isPendingTransport",
      "outputs": [
        {
          "name": "isIndeed",
          "type": "bool"
        }
      ],
      "payable": false,
      "stateMutability": "view",
      "type": "function"
    },
    {
      "constant": false,
      "inputs": [
        {
          "name": "_userAddress",
          "type": "address"
        },
        {
          "name": "_assetAddress",
          "type": "address"
        },
        {
          "name": "_transporterAddress",
          "type": "address"
        },
        {
          "name": "_receiverAddress",
          "type": "address"
        }
      ],
      "name": "requestTransportStart",
      "outputs": [
        {
          "name": "success",
          "type": "bool"
        }
      ],
      "payable": false,
      "stateMutability": "nonpayable",
      "type": "function"
    },
    {
      "constant": false,
      "inputs": [
        {
          "name": "_userAddress",
          "type": "address"
        },
        {
          "name": "_transporterAddress",
          "type": "address"
        },
        {
          "name": "_assetAddress",
          "type": "address"
        }
      ],
      "name": "activateTransport",
      "outputs": [],
      "payable": false,
      "stateMutability": "nonpayable",
      "type": "function"
    },
    {
      "constant": true,
      "inputs": [
        {
          "name": "_userAddress",
          "type": "address"
        },
        {
          "name": "_transporterAddress",
          "type": "address"
        },
        {
          "name": "_assetAddress",
          "type": "address"
        }
      ],
      "name": "getTransportReceiver",
      "outputs": [
        {
          "name": "to",
          "type": "address"
        }
      ],
      "payable": false,
      "stateMutability": "view",
      "type": "function"
    },
    {
      "constant": false,
      "inputs": [
        {
          "name": "_userAddress",
          "type": "address"
        },
        {
          "name": "_transporterAddress",
          "type": "address"
        },
        {
          "name": "_assetAddress",
          "type": "address"
        }
      ],
      "name": "deleteTransport",
      "outputs": [],
      "payable": false,
      "stateMutability": "nonpayable",
      "type": "function"
    }
  ],
  "bytecode": "0x608060405234801561001057600080fd5b506040516020806117fd8339810180604052602081101561003057600080fd5b8101908080519060200190929190505050806000806101000a81548173ffffffffffffffffffffffffffffffffffffffff021916908373ffffffffffffffffffffffffffffffffffffffff1602179055505061176c806100916000396000f3fe608060405260043610610083576000357c0100000000000000000000000000000000000000000000000000000000900463ffffffff16806328d3170a14610088578063365d8226146101115780636a20d949146101e257806390097b3c146102735780639eb8452a1461033c578063d1a08567146103e5578063d87759561461046e575b600080fd5b34801561009457600080fd5b506100f7600480360360408110156100ab57600080fd5b81019080803573ffffffffffffffffffffffffffffffffffffffff169060200190929190803573ffffffffffffffffffffffffffffffffffffffff1690602001909291905050506104ff565b604051808215151515815260200191505060405180910390f35b34801561011d57600080fd5b506101a06004803603606081101561013457600080fd5b81019080803573ffffffffffffffffffffffffffffffffffffffff169060200190929190803573ffffffffffffffffffffffffffffffffffffffff169060200190929190803573ffffffffffffffffffffffffffffffffffffffff1690602001909291905050506107e5565b604051808273ffffffffffffffffffffffffffffffffffffffff1673ffffffffffffffffffffffffffffffffffffffff16815260200191505060405180910390f35b3480156101ee57600080fd5b506102716004803603606081101561020557600080fd5b81019080803573ffffffffffffffffffffffffffffffffffffffff169060200190929190803573ffffffffffffffffffffffffffffffffffffffff169060200190929190803573ffffffffffffffffffffffffffffffffffffffff1690602001909291905050506108d0565b005b34801561027f57600080fd5b506103226004803603608081101561029657600080fd5b81019080803573ffffffffffffffffffffffffffffffffffffffff169060200190929190803573ffffffffffffffffffffffffffffffffffffffff169060200190929190803573ffffffffffffffffffffffffffffffffffffffff169060200190929190803573ffffffffffffffffffffffffffffffffffffffff169060200190929190505050610c5d565b604051808215151515815260200191505060405180910390f35b34801561034857600080fd5b506103cb6004803603606081101561035f57600080fd5b81019080803573ffffffffffffffffffffffffffffffffffffffff169060200190929190803573ffffffffffffffffffffffffffffffffffffffff169060200190929190803573ffffffffffffffffffffffffffffffffffffffff16906020019092919050505061103e565b604051808215151515815260200191505060405180910390f35b3480156103f157600080fd5b506104546004803603604081101561040857600080fd5b81019080803573ffffffffffffffffffffffffffffffffffffffff169060200190929190803573ffffffffffffffffffffffffffffffffffffffff169060200190929190505050611177565b604051808215151515815260200191505060405180910390f35b34801561047a57600080fd5b506104fd6004803603606081101561049157600080fd5b81019080803573ffffffffffffffffffffffffffffffffffffffff169060200190929190803573ffffffffffffffffffffffffffffffffffffffff169060200190929190803573ffffffffffffffffffffffffffffffffffffffff169060200190929190505050611250565b005b600061050b8383611177565b151515610580576040517f08c379a000000000000000000000000000000000000000000000000000000000815260040180806020018281038252601a8152602001807f4173736f63696174696f6e20616c72656164792065786973747300000000000081525060200191505060405180910390fd5b6000600160008573ffffffffffffffffffffffffffffffffffffffff1673ffffffffffffffffffffffffffffffffffffffff16815260200190815260200160002060008473ffffffffffffffffffffffffffffffffffffffff1673ffffffffffffffffffffffffffffffffffffffff1681526020019081526020016000209050838160000160006101000a81548173ffffffffffffffffffffffffffffffffffffffff021916908373ffffffffffffffffffffffffffffffffffffffff160217905550828160010160006101000a81548173ffffffffffffffffffffffffffffffffffffffff021916908373ffffffffffffffffffffffffffffffffffffffff160217905550600260008573ffffffffffffffffffffffffffffffffffffffff1673ffffffffffffffffffffffffffffffffffffffff1681526020019081526020016000208390806001815401808255809150509060018203906000526020600020016000909192909190916101000a81548173ffffffffffffffffffffffffffffffffffffffff021916908373ffffffffffffffffffffffffffffffffffffffff1602179055508160020181905550600260008473ffffffffffffffffffffffffffffffffffffffff1673ffffffffffffffffffffffffffffffffffffffff1681526020019081526020016000208490806001815401808255809150509060018203906000526020600020016000909192909190916101000a81548173ffffffffffffffffffffffffffffffffffffffff021916908373ffffffffffffffffffffffffffffffffffffffff1602179055508160030181905550600191505092915050565b6000600160008473ffffffffffffffffffffffffffffffffffffffff1673ffffffffffffffffffffffffffffffffffffffff16815260200190815260200160002060008573ffffffffffffffffffffffffffffffffffffffff1673ffffffffffffffffffffffffffffffffffffffff16815260200190815260200160002060060160008373ffffffffffffffffffffffffffffffffffffffff1673ffffffffffffffffffffffffffffffffffffffff16815260200190815260200160002060030160009054906101000a900473ffffffffffffffffffffffffffffffffffffffff1690509392505050565b6000809054906101000a900473ffffffffffffffffffffffffffffffffffffffff1673ffffffffffffffffffffffffffffffffffffffff163373ffffffffffffffffffffffffffffffffffffffff16141515610994576040517f08c379a00000000000000000000000000000000000000000000000000000000081526004018080602001828103825260188152602001807f6f6e6c792054432063616e20646f20746869732063616c6c000000000000000081525060200191505060405180910390fd5b6000600160008473ffffffffffffffffffffffffffffffffffffffff1673ffffffffffffffffffffffffffffffffffffffff16815260200190815260200160002060008573ffffffffffffffffffffffffffffffffffffffff1673ffffffffffffffffffffffffffffffffffffffff16815260200190815260200160002060070190506000600160008573ffffffffffffffffffffffffffffffffffffffff1673ffffffffffffffffffffffffffffffffffffffff16815260200190815260200160002060008673ffffffffffffffffffffffffffffffffffffffff1673ffffffffffffffffffffffffffffffffffffffff16815260200190815260200160002060060160008473ffffffffffffffffffffffffffffffffffffffff1673ffffffffffffffffffffffffffffffffffffffff16815260200190815260200160002090506000816001015490506000836001858054905003815481101515610af757fe5b9060005260206000200160009054906101000a900473ffffffffffffffffffffffffffffffffffffffff169050808483815481101515610b3357fe5b9060005260206000200160006101000a81548173ffffffffffffffffffffffffffffffffffffffff021916908373ffffffffffffffffffffffffffffffffffffffff16021790555081600160008873ffffffffffffffffffffffffffffffffffffffff1673ffffffffffffffffffffffffffffffffffffffff16815260200190815260200160002060008973ffffffffffffffffffffffffffffffffffffffff1673ffffffffffffffffffffffffffffffffffffffff16815260200190815260200160002060060160008373ffffffffffffffffffffffffffffffffffffffff1673ffffffffffffffffffffffffffffffffffffffff1681526020019081526020016000206001018190555083805480919060019003610c5391906116ef565b5050505050505050565b60008060009054906101000a900473ffffffffffffffffffffffffffffffffffffffff1673ffffffffffffffffffffffffffffffffffffffff163373ffffffffffffffffffffffffffffffffffffffff16141515610d23576040517f08c379a00000000000000000000000000000000000000000000000000000000081526004018080602001828103825260188152602001807f6f6e6c792054432063616e20646f20746869732063616c6c000000000000000081525060200191505060405180910390fd5b610d2d8386611177565b1515610dc7576040517f08c379a000000000000000000000000000000000000000000000000000000000815260040180806020018281038252602c8152602001807f7472616e73706f72746572206973206e6f7420706172746e6572206f66206d6581526020017f73736167652073656e646572000000000000000000000000000000000000000081525060400191505060405180910390fd5b6000600160008573ffffffffffffffffffffffffffffffffffffffff1673ffffffffffffffffffffffffffffffffffffffff16815260200190815260200160002060008773ffffffffffffffffffffffffffffffffffffffff1673ffffffffffffffffffffffffffffffffffffffff168152602001908152602001600020905060008160040160008773ffffffffffffffffffffffffffffffffffffffff1673ffffffffffffffffffffffffffffffffffffffff168152602001908152602001600020905060008160000160006101000a81548160ff02191690836002811115610ead57fe5b0217905550868160020160006101000a81548173ffffffffffffffffffffffffffffffffffffffff021916908373ffffffffffffffffffffffffffffffffffffffff160217905550838160030160006101000a81548173ffffffffffffffffffffffffffffffffffffffff021916908373ffffffffffffffffffffffffffffffffffffffff160217905550848160040160006101000a81548173ffffffffffffffffffffffffffffffffffffffff021916908373ffffffffffffffffffffffffffffffffffffffff160217905550858160050160006101000a81548173ffffffffffffffffffffffffffffffffffffffff021916908373ffffffffffffffffffffffffffffffffffffffff1602179055506001826005018790806001815401808255809150509060018203906000526020600020016000909192909190916101000a81548173ffffffffffffffffffffffffffffffffffffffff021916908373ffffffffffffffffffffffffffffffffffffffff160217905550038160010181905550600192505050949350505050565b600080600160008573ffffffffffffffffffffffffffffffffffffffff1673ffffffffffffffffffffffffffffffffffffffff16815260200190815260200160002060008673ffffffffffffffffffffffffffffffffffffffff1673ffffffffffffffffffffffffffffffffffffffff1681526020019081526020016000209050806005018160040160008573ffffffffffffffffffffffffffffffffffffffff1673ffffffffffffffffffffffffffffffffffffffff1681526020019081526020016000206001015481548110151561111457fe5b9060005260206000200160009054906101000a900473ffffffffffffffffffffffffffffffffffffffff1673ffffffffffffffffffffffffffffffffffffffff168373ffffffffffffffffffffffffffffffffffffffff16149150509392505050565b60008073ffffffffffffffffffffffffffffffffffffffff16600160008573ffffffffffffffffffffffffffffffffffffffff1673ffffffffffffffffffffffffffffffffffffffff16815260200190815260200160002060008473ffffffffffffffffffffffffffffffffffffffff1673ffffffffffffffffffffffffffffffffffffffff16815260200190815260200160002060000160009054906101000a900473ffffffffffffffffffffffffffffffffffffffff1673ffffffffffffffffffffffffffffffffffffffff161415905092915050565b6000809054906101000a900473ffffffffffffffffffffffffffffffffffffffff1673ffffffffffffffffffffffffffffffffffffffff163373ffffffffffffffffffffffffffffffffffffffff16141515611314576040517f08c379a00000000000000000000000000000000000000000000000000000000081526004018080602001828103825260188152602001807f6f6e6c792054432063616e20646f20746869732063616c6c000000000000000081525060200191505060405180910390fd5b6000600160008473ffffffffffffffffffffffffffffffffffffffff1673ffffffffffffffffffffffffffffffffffffffff16815260200190815260200160002060008573ffffffffffffffffffffffffffffffffffffffff1673ffffffffffffffffffffffffffffffffffffffff16815260200190815260200160002060050190506000600160008573ffffffffffffffffffffffffffffffffffffffff1673ffffffffffffffffffffffffffffffffffffffff16815260200190815260200160002060008673ffffffffffffffffffffffffffffffffffffffff1673ffffffffffffffffffffffffffffffffffffffff16815260200190815260200160002060040160008473ffffffffffffffffffffffffffffffffffffffff1673ffffffffffffffffffffffffffffffffffffffff1681526020019081526020016000209050600081600101549050600083600185805490500381548110151561147757fe5b9060005260206000200160009054906101000a900473ffffffffffffffffffffffffffffffffffffffff1690508084838154811015156114b357fe5b9060005260206000200160006101000a81548173ffffffffffffffffffffffffffffffffffffffff021916908373ffffffffffffffffffffffffffffffffffffffff16021790555081600160008873ffffffffffffffffffffffffffffffffffffffff1673ffffffffffffffffffffffffffffffffffffffff16815260200190815260200160002060008973ffffffffffffffffffffffffffffffffffffffff1673ffffffffffffffffffffffffffffffffffffffff16815260200190815260200160002060040160008373ffffffffffffffffffffffffffffffffffffffff1673ffffffffffffffffffffffffffffffffffffffff16815260200190815260200160002060010181905550838054809190600190036115d391906116ef565b5060018060008873ffffffffffffffffffffffffffffffffffffffff1673ffffffffffffffffffffffffffffffffffffffff16815260200190815260200160002060008973ffffffffffffffffffffffffffffffffffffffff1673ffffffffffffffffffffffffffffffffffffffff1681526020019081526020016000206007018690806001815401808255809150509060018203906000526020600020016000909192909190916101000a81548173ffffffffffffffffffffffffffffffffffffffff021916908373ffffffffffffffffffffffffffffffffffffffff16021790555003836001018190555060018360000160006101000a81548160ff021916908360028111156116e157fe5b021790555050505050505050565b81548183558181111561171657818360005260206000209182019101611715919061171b565b5b505050565b61173d91905b80821115611739576000816000905550600101611721565b5090565b9056fea165627a7a72305820ff0f1eab584830e0748a1b85ea0c48ca47df835f15a409a8acd94577ff60fa730029",
  "source": "pragma solidity ^0.5.0;\n\ncontract Transporters_Users{\n    address traceabilityContract;\n    \n\n    enum TransportState { PendingStart, Transporting, PendingEnd}\n\n    struct Transport {\n        TransportState state;\n\n        uint index; //index of the transport in the transport array\n\n        address from;\n        address to;\n        address transporter;\n        address asset;\n    }\n\n    struct Transporter_User{\n        address transporter;\n        address user; //Producer, and later, factory\n\n        uint indexInTransporter;\n        uint indexInUser;\n\n        //pending transport for a determinate transporter for a determinate user (producer)\n        mapping(address => Transport) pendingTransports; // address = addressAsset\n        address[] pendingTransportsList;\n\n        //active transport for a determinate transporter for a determinate user (producer)\n        mapping(address => Transport) activeTransports; // address = addressAsset\n        address[] activeTransportsList;        \n    }\n\n    mapping (address => mapping (address => Transporter_User)) tuMatrix; //transporter => user => T_U\n    mapping (address => address[]) usersOfTransporters; //transporter => user[]\n    mapping (address => address[]) transportersOfUsers; //user => transporter[]\n\n    constructor (address _tc) public{\n        traceabilityContract = _tc;\n    } \n\n    function insertTU(address _transporterAddress, address _userAddress) public returns (bool success){\n        require(!isTransporterOfUser(_transporterAddress, _userAddress), \"Association already exists\"); \n\n        Transporter_User storage tu = tuMatrix[_transporterAddress][_userAddress];\n        tu.transporter = _transporterAddress;\n        tu.user = _userAddress;\n        tu.indexInTransporter = usersOfTransporters[_transporterAddress].push(_userAddress);\n        tu.indexInUser = usersOfTransporters[_userAddress].push(_transporterAddress);\n\n        return true;\n    }\n\n    function isTransporterOfUser(address _transporterAddress, address _userAddress) public view returns (bool isIndeed){\n        return tuMatrix[_transporterAddress][_userAddress].transporter != address(0);\n    }\n\n    function isPendingTransport(address _userAddress, address _transporterAddress, address _assetAddress) \n        public view returns (bool isIndeed)\n    {\n        Transporter_User storage tu = tuMatrix[_transporterAddress][_userAddress];\n        return (_assetAddress == tu.pendingTransportsList[tu.pendingTransports[_assetAddress].index]);\n    }\n\n    function requestTransportStart(address _userAddress, address _assetAddress, address _transporterAddress, address _receiverAddress) \n        public \n        returns (bool success)\n    {   \n        require(msg.sender == traceabilityContract, \"only TC can do this call\");\n        require(\n            isTransporterOfUser(_transporterAddress, _userAddress), \n            \"transporter is not partner of message sender\"\n        );      \n\n        //Add to transport list of NxM transport_user aux entity\n        Transporter_User storage tu = tuMatrix[_transporterAddress][_userAddress];                \n        Transport storage t = tu.pendingTransports[_assetAddress];\n\n        t.state = TransportState.PendingStart;\n        t.from = _userAddress;\n        t.to = _receiverAddress;\n        t.transporter = _transporterAddress;\n        t.asset = _assetAddress;\n        t.index = tu.pendingTransportsList.push(_assetAddress) - 1;\n\n        return true;\n    }\n\n    function activateTransport(address _userAddress, address _transporterAddress, address _assetAddress) public{\n        require(msg.sender == traceabilityContract, \"only TC can do this call\");\n\n        address[] storage pendingTransportArray = tuMatrix[_transporterAddress][_userAddress].pendingTransportsList;\n        Transport storage t = tuMatrix[_transporterAddress][_userAddress].pendingTransports[_assetAddress];\n        \n        //Delete from pending\n        uint rowToDelete = t.index;\n        address keyToMove = pendingTransportArray[pendingTransportArray.length - 1];\n\n        pendingTransportArray[rowToDelete] = keyToMove;\n        tuMatrix[_transporterAddress][_userAddress].pendingTransports[keyToMove].index = rowToDelete;\n        pendingTransportArray.length --;\n\n        //Add to active\n        t.index = tuMatrix[_transporterAddress][_userAddress].activeTransportsList.push(_assetAddress) - 1;\n        t.state = TransportState.Transporting;\n    }\n\n    function getTransportReceiver(address _userAddress, address _transporterAddress, address _assetAddress) public view returns (address to){\n        return tuMatrix[_transporterAddress][_userAddress].activeTransports[_assetAddress].to;\n    }\n\n    function deleteTransport(address _userAddress, address _transporterAddress, address _assetAddress) public{\n        require(msg.sender == traceabilityContract, \"only TC can do this call\");\n\n        address[] storage activeTransportArray = tuMatrix[_transporterAddress][_userAddress].activeTransportsList;\n        Transport storage t = tuMatrix[_transporterAddress][_userAddress].activeTransports[_assetAddress];\n        //Delete from active\n        uint rowToDelete = t.index;\n        address keyToMove = activeTransportArray[activeTransportArray.length - 1];\n\n        activeTransportArray[rowToDelete] = keyToMove;\n        tuMatrix[_transporterAddress][_userAddress].activeTransports[keyToMove].index = rowToDelete;\n        activeTransportArray.length --;\n    }\n}",
  "sourcePath": "/home/fernandogbr/proyecto_trazabilidad/ETH_Traceability_Truffle/contracts/transporters_users.sol",
  "compiler": {
    "name": "solc",
    "version": "0.5.0+commit.1d4f565a.Emscripten.clang"
  },
  "schemaVersion": "3.0.2",
  "updatedAt": "2019-02-20T09:07:48.943Z",
  "devdoc": {
    "methods": {}
  },
  "userdoc": {
    "methods": {}
  }
}